{
	"S7/mp.sol": {
		"NFTMarketplaceWithERC20": {
			"abi": [
				{
					"inputs": [
						{
							"internalType": "address",
							"name": "_paymentToken",
							"type": "address"
						}
					],
					"stateMutability": "nonpayable",
					"type": "constructor"
				},
				{
					"anonymous": false,
					"inputs": [
						{
							"indexed": true,
							"internalType": "address",
							"name": "nftContract",
							"type": "address"
						},
						{
							"indexed": true,
							"internalType": "uint256",
							"name": "tokenId",
							"type": "uint256"
						},
						{
							"indexed": false,
							"internalType": "uint256",
							"name": "price",
							"type": "uint256"
						},
						{
							"indexed": true,
							"internalType": "address",
							"name": "buyer",
							"type": "address"
						}
					],
					"name": "GroupBidMatched",
					"type": "event"
				},
				{
					"anonymous": false,
					"inputs": [
						{
							"indexed": true,
							"internalType": "string",
							"name": "group",
							"type": "string"
						},
						{
							"indexed": false,
							"internalType": "uint256",
							"name": "price",
							"type": "uint256"
						},
						{
							"indexed": true,
							"internalType": "address",
							"name": "buyer",
							"type": "address"
						}
					],
					"name": "GroupBidPlaced",
					"type": "event"
				},
				{
					"anonymous": false,
					"inputs": [
						{
							"indexed": true,
							"internalType": "address",
							"name": "nftContract",
							"type": "address"
						},
						{
							"indexed": true,
							"internalType": "uint256",
							"name": "tokenId",
							"type": "uint256"
						},
						{
							"indexed": false,
							"internalType": "uint256",
							"name": "price",
							"type": "uint256"
						},
						{
							"indexed": true,
							"internalType": "address",
							"name": "seller",
							"type": "address"
						},
						{
							"indexed": false,
							"internalType": "string",
							"name": "group",
							"type": "string"
						}
					],
					"name": "NFTListed",
					"type": "event"
				},
				{
					"anonymous": false,
					"inputs": [
						{
							"indexed": true,
							"internalType": "address",
							"name": "nftContract",
							"type": "address"
						},
						{
							"indexed": true,
							"internalType": "uint256",
							"name": "tokenId",
							"type": "uint256"
						},
						{
							"indexed": true,
							"internalType": "address",
							"name": "seller",
							"type": "address"
						}
					],
					"name": "NFTListingCancelled",
					"type": "event"
				},
				{
					"anonymous": false,
					"inputs": [
						{
							"indexed": true,
							"internalType": "address",
							"name": "nftContract",
							"type": "address"
						},
						{
							"indexed": true,
							"internalType": "uint256",
							"name": "tokenId",
							"type": "uint256"
						},
						{
							"indexed": false,
							"internalType": "uint256",
							"name": "price",
							"type": "uint256"
						},
						{
							"indexed": true,
							"internalType": "address",
							"name": "buyer",
							"type": "address"
						}
					],
					"name": "NFTSold",
					"type": "event"
				},
				{
					"inputs": [
						{
							"internalType": "address",
							"name": "nftContract",
							"type": "address"
						},
						{
							"internalType": "uint256",
							"name": "tokenId",
							"type": "uint256"
						}
					],
					"name": "buyNFT",
					"outputs": [],
					"stateMutability": "nonpayable",
					"type": "function"
				},
				{
					"inputs": [
						{
							"internalType": "address",
							"name": "nftContract",
							"type": "address"
						},
						{
							"internalType": "uint256",
							"name": "tokenId",
							"type": "uint256"
						}
					],
					"name": "cancelListing",
					"outputs": [],
					"stateMutability": "nonpayable",
					"type": "function"
				},
				{
					"inputs": [
						{
							"internalType": "address",
							"name": "nftContract",
							"type": "address"
						},
						{
							"internalType": "uint256",
							"name": "tokenId",
							"type": "uint256"
						}
					],
					"name": "getListing",
					"outputs": [
						{
							"components": [
								{
									"internalType": "uint256",
									"name": "price",
									"type": "uint256"
								},
								{
									"internalType": "address",
									"name": "seller",
									"type": "address"
								},
								{
									"internalType": "string",
									"name": "group",
									"type": "string"
								}
							],
							"internalType": "struct NFTMarketplaceWithERC20.Listing",
							"name": "",
							"type": "tuple"
						}
					],
					"stateMutability": "view",
					"type": "function"
				},
				{
					"inputs": [
						{
							"internalType": "string",
							"name": "",
							"type": "string"
						}
					],
					"name": "groupBids",
					"outputs": [
						{
							"internalType": "uint256",
							"name": "price",
							"type": "uint256"
						},
						{
							"internalType": "address",
							"name": "buyer",
							"type": "address"
						}
					],
					"stateMutability": "view",
					"type": "function"
				},
				{
					"inputs": [
						{
							"internalType": "address",
							"name": "nftContract",
							"type": "address"
						},
						{
							"internalType": "uint256",
							"name": "tokenId",
							"type": "uint256"
						},
						{
							"internalType": "uint256",
							"name": "price",
							"type": "uint256"
						},
						{
							"internalType": "string",
							"name": "group",
							"type": "string"
						}
					],
					"name": "listNFT",
					"outputs": [],
					"stateMutability": "nonpayable",
					"type": "function"
				},
				{
					"inputs": [
						{
							"internalType": "uint256",
							"name": "",
							"type": "uint256"
						}
					],
					"name": "listedNFTs",
					"outputs": [
						{
							"internalType": "address",
							"name": "nftContract",
							"type": "address"
						},
						{
							"internalType": "uint256",
							"name": "tokenId",
							"type": "uint256"
						}
					],
					"stateMutability": "view",
					"type": "function"
				},
				{
					"inputs": [
						{
							"internalType": "address",
							"name": "",
							"type": "address"
						},
						{
							"internalType": "uint256",
							"name": "",
							"type": "uint256"
						}
					],
					"name": "listings",
					"outputs": [
						{
							"internalType": "uint256",
							"name": "price",
							"type": "uint256"
						},
						{
							"internalType": "address",
							"name": "seller",
							"type": "address"
						},
						{
							"internalType": "string",
							"name": "group",
							"type": "string"
						}
					],
					"stateMutability": "view",
					"type": "function"
				},
				{
					"inputs": [],
					"name": "paymentToken",
					"outputs": [
						{
							"internalType": "contract IERC20",
							"name": "",
							"type": "address"
						}
					],
					"stateMutability": "view",
					"type": "function"
				},
				{
					"inputs": [
						{
							"internalType": "string",
							"name": "group",
							"type": "string"
						},
						{
							"internalType": "uint256",
							"name": "price",
							"type": "uint256"
						}
					],
					"name": "placeGroupBid",
					"outputs": [],
					"stateMutability": "nonpayable",
					"type": "function"
				}
			],
			"devdoc": {
				"kind": "dev",
				"methods": {},
				"version": 1
			},
			"evm": {
				"assembly": "    /* \"S7/mp.sol\":238:5830  contract NFTMarketplaceWithERC20 is ReentrancyGuard {... */\n  mstore(0x40, 0x80)\n    /* \"S7/mp.sol\":1330:1418  constructor(address _paymentToken) {... */\n  callvalue\n  dup1\n  iszero\n  tag_1\n  jumpi\n  0x00\n  dup1\n  revert\ntag_1:\n  pop\n  mload(0x40)\n  sub(codesize, bytecodeSize)\n  dup1\n  bytecodeSize\n  dup4\n  codecopy\n  dup2\n  dup2\n  add\n  0x40\n  mstore\n  dup2\n  add\n  swap1\n  tag_2\n  swap2\n  swap1\n  tag_3\n  jump\t// in\ntag_2:\n    /* \"@openzeppelin/contracts/security/ReentrancyGuard.sol\":1716:1717  1 */\n  0x01\n    /* \"@openzeppelin/contracts/security/ReentrancyGuard.sol\":1821:1828  _status */\n  0x00\n    /* \"@openzeppelin/contracts/security/ReentrancyGuard.sol\":1821:1843  _status = _NOT_ENTERED */\n  dup2\n  swap1\n  sstore\n  pop\n    /* \"S7/mp.sol\":1397:1410  _paymentToken */\n  dup1\n    /* \"S7/mp.sol\":1375:1387  paymentToken */\n  0x03\n  0x00\n    /* \"S7/mp.sol\":1375:1411  paymentToken = IERC20(_paymentToken) */\n  0x0100\n  exp\n  dup2\n  sload\n  dup2\n  0xffffffffffffffffffffffffffffffffffffffff\n  mul\n  not\n  and\n  swap1\n  dup4\n  0xffffffffffffffffffffffffffffffffffffffff\n  and\n  mul\n  or\n  swap1\n  sstore\n  pop\n    /* \"S7/mp.sol\":1330:1418  constructor(address _paymentToken) {... */\n  pop\n    /* \"S7/mp.sol\":238:5830  contract NFTMarketplaceWithERC20 is ReentrancyGuard {... */\n  jump(tag_8)\n    /* \"#utility.yul\":88:205   */\ntag_10:\n    /* \"#utility.yul\":197:198   */\n  0x00\n    /* \"#utility.yul\":194:195   */\n  dup1\n    /* \"#utility.yul\":187:199   */\n  revert\n    /* \"#utility.yul\":334:460   */\ntag_12:\n    /* \"#utility.yul\":371:378   */\n  0x00\n    /* \"#utility.yul\":411:453   */\n  0xffffffffffffffffffffffffffffffffffffffff\n    /* \"#utility.yul\":404:409   */\n  dup3\n    /* \"#utility.yul\":400:454   */\n  and\n    /* \"#utility.yul\":389:454   */\n  swap1\n  pop\n    /* \"#utility.yul\":334:460   */\n  swap2\n  swap1\n  pop\n  jump\t// out\n    /* \"#utility.yul\":466:562   */\ntag_13:\n    /* \"#utility.yul\":503:510   */\n  0x00\n    /* \"#utility.yul\":532:556   */\n  tag_22\n    /* \"#utility.yul\":550:555   */\n  dup3\n    /* \"#utility.yul\":532:556   */\n  tag_12\n  jump\t// in\ntag_22:\n    /* \"#utility.yul\":521:556   */\n  swap1\n  pop\n    /* \"#utility.yul\":466:562   */\n  swap2\n  swap1\n  pop\n  jump\t// out\n    /* \"#utility.yul\":568:690   */\ntag_14:\n    /* \"#utility.yul\":641:665   */\n  tag_24\n    /* \"#utility.yul\":659:664   */\n  dup2\n    /* \"#utility.yul\":641:665   */\n  tag_13\n  jump\t// in\ntag_24:\n    /* \"#utility.yul\":634:639   */\n  dup2\n    /* \"#utility.yul\":631:666   */\n  eq\n    /* \"#utility.yul\":621:684   */\n  tag_25\n  jumpi\n    /* \"#utility.yul\":680:681   */\n  0x00\n    /* \"#utility.yul\":677:678   */\n  dup1\n    /* \"#utility.yul\":670:682   */\n  revert\n    /* \"#utility.yul\":621:684   */\ntag_25:\n    /* \"#utility.yul\":568:690   */\n  pop\n  jump\t// out\n    /* \"#utility.yul\":696:839   */\ntag_15:\n    /* \"#utility.yul\":753:758   */\n  0x00\n    /* \"#utility.yul\":784:790   */\n  dup2\n    /* \"#utility.yul\":778:791   */\n  mload\n    /* \"#utility.yul\":769:791   */\n  swap1\n  pop\n    /* \"#utility.yul\":800:833   */\n  tag_27\n    /* \"#utility.yul\":827:832   */\n  dup2\n    /* \"#utility.yul\":800:833   */\n  tag_14\n  jump\t// in\ntag_27:\n    /* \"#utility.yul\":696:839   */\n  swap3\n  swap2\n  pop\n  pop\n  jump\t// out\n    /* \"#utility.yul\":845:1196   */\ntag_3:\n    /* \"#utility.yul\":915:921   */\n  0x00\n    /* \"#utility.yul\":964:966   */\n  0x20\n    /* \"#utility.yul\":952:961   */\n  dup3\n    /* \"#utility.yul\":943:950   */\n  dup5\n    /* \"#utility.yul\":939:962   */\n  sub\n    /* \"#utility.yul\":935:967   */\n  slt\n    /* \"#utility.yul\":932:1051   */\n  iszero\n  tag_29\n  jumpi\n    /* \"#utility.yul\":970:1049   */\n  tag_30\n  tag_10\n  jump\t// in\ntag_30:\n    /* \"#utility.yul\":932:1051   */\ntag_29:\n    /* \"#utility.yul\":1090:1091   */\n  0x00\n    /* \"#utility.yul\":1115:1179   */\n  tag_31\n    /* \"#utility.yul\":1171:1178   */\n  dup5\n    /* \"#utility.yul\":1162:1168   */\n  dup3\n    /* \"#utility.yul\":1151:1160   */\n  dup6\n    /* \"#utility.yul\":1147:1169   */\n  add\n    /* \"#utility.yul\":1115:1179   */\n  tag_15\n  jump\t// in\ntag_31:\n    /* \"#utility.yul\":1105:1179   */\n  swap2\n  pop\n    /* \"#utility.yul\":1061:1189   */\n  pop\n    /* \"#utility.yul\":845:1196   */\n  swap3\n  swap2\n  pop\n  pop\n  jump\t// out\n    /* \"S7/mp.sol\":238:5830  contract NFTMarketplaceWithERC20 is ReentrancyGuard {... */\ntag_8:\n  dataSize(sub_0)\n  dup1\n  dataOffset(sub_0)\n  0x00\n  codecopy\n  0x00\n  return\nstop\n\nsub_0: assembly {\n        /* \"S7/mp.sol\":238:5830  contract NFTMarketplaceWithERC20 is ReentrancyGuard {... */\n      mstore(0x40, 0x80)\n      callvalue\n      dup1\n      iszero\n      tag_1\n      jumpi\n      0x00\n      dup1\n      revert\n    tag_1:\n      pop\n      jumpi(tag_2, lt(calldatasize, 0x04))\n      shr(0xe0, calldataload(0x00))\n      dup1\n      0xa01dc41f\n      gt\n      tag_12\n      jumpi\n      dup1\n      0xa01dc41f\n      eq\n      tag_7\n      jumpi\n      dup1\n      0xa0441780\n      eq\n      tag_8\n      jumpi\n      dup1\n      0xa82ba76f\n      eq\n      tag_9\n      jumpi\n      dup1\n      0xa91ffcea\n      eq\n      tag_10\n      jumpi\n      dup1\n      0xb2ddee06\n      eq\n      tag_11\n      jumpi\n      jump(tag_2)\n    tag_12:\n      dup1\n      0x07df30\n      eq\n      tag_3\n      jumpi\n      dup1\n      0x3013ce29\n      eq\n      tag_4\n      jumpi\n      dup1\n      0x8230584d\n      eq\n      tag_5\n      jumpi\n      dup1\n      0x88700d1c\n      eq\n      tag_6\n      jumpi\n    tag_2:\n      0x00\n      dup1\n      revert\n        /* \"S7/mp.sol\":463:526  mapping(address => mapping(uint256 => Listing)) public listings */\n    tag_3:\n      tag_13\n      0x04\n      dup1\n      calldatasize\n      sub\n      dup2\n      add\n      swap1\n      tag_14\n      swap2\n      swap1\n      tag_15\n      jump\t// in\n    tag_14:\n      tag_16\n      jump\t// in\n    tag_13:\n      mload(0x40)\n      tag_17\n      swap4\n      swap3\n      swap2\n      swap1\n      tag_18\n      jump\t// in\n    tag_17:\n      mload(0x40)\n      dup1\n      swap2\n      sub\n      swap1\n      return\n        /* \"S7/mp.sol\":577:603  IERC20 public paymentToken */\n    tag_4:\n      tag_19\n      tag_20\n      jump\t// in\n    tag_19:\n      mload(0x40)\n      tag_21\n      swap2\n      swap1\n      tag_22\n      jump\t// in\n    tag_21:\n      mload(0x40)\n      dup1\n      swap2\n      sub\n      swap1\n      return\n        /* \"S7/mp.sol\":2619:4012  function placeGroupBid(string memory group, uint256 price) external {... */\n    tag_5:\n      tag_23\n      0x04\n      dup1\n      calldatasize\n      sub\n      dup2\n      add\n      swap1\n      tag_24\n      swap2\n      swap1\n      tag_25\n      jump\t// in\n    tag_24:\n      tag_26\n      jump\t// in\n    tag_23:\n      stop\n        /* \"S7/mp.sol\":5646:5828  function getListing(address nftContract, uint256 tokenId) ... */\n    tag_6:\n      tag_27\n      0x04\n      dup1\n      calldatasize\n      sub\n      dup2\n      add\n      swap1\n      tag_28\n      swap2\n      swap1\n      tag_15\n      jump\t// in\n    tag_28:\n      tag_29\n      jump\t// in\n    tag_27:\n      mload(0x40)\n      tag_30\n      swap2\n      swap1\n      tag_31\n      jump\t// in\n    tag_30:\n      mload(0x40)\n      dup1\n      swap2\n      sub\n      swap1\n      return\n        /* \"S7/mp.sol\":702:731  ListedNFT[] public listedNFTs */\n    tag_7:\n      tag_32\n      0x04\n      dup1\n      calldatasize\n      sub\n      dup2\n      add\n      swap1\n      tag_33\n      swap2\n      swap1\n      tag_34\n      jump\t// in\n    tag_33:\n      tag_35\n      jump\t// in\n    tag_32:\n      mload(0x40)\n      tag_36\n      swap3\n      swap2\n      swap1\n      tag_37\n      jump\t// in\n    tag_36:\n      mload(0x40)\n      dup1\n      swap2\n      sub\n      swap1\n      return\n        /* \"S7/mp.sol\":1968:2613  function listNFT(address nftContract, uint256 tokenId, uint256 price, string memory group) ... */\n    tag_8:\n      tag_38\n      0x04\n      dup1\n      calldatasize\n      sub\n      dup2\n      add\n      swap1\n      tag_39\n      swap2\n      swap1\n      tag_40\n      jump\t// in\n    tag_39:\n      tag_41\n      jump\t// in\n    tag_38:\n      stop\n        /* \"S7/mp.sol\":4819:5640  function buyNFT(address nftContract, uint256 tokenId) ... */\n    tag_9:\n      tag_42\n      0x04\n      dup1\n      calldatasize\n      sub\n      dup2\n      add\n      swap1\n      tag_43\n      swap2\n      swap1\n      tag_15\n      jump\t// in\n    tag_43:\n      tag_44\n      jump\t// in\n    tag_42:\n      stop\n        /* \"S7/mp.sol\":532:571  mapping(string => Bid) public groupBids */\n    tag_10:\n      tag_45\n      0x04\n      dup1\n      calldatasize\n      sub\n      dup2\n      add\n      swap1\n      tag_46\n      swap2\n      swap1\n      tag_47\n      jump\t// in\n    tag_46:\n      tag_48\n      jump\t// in\n    tag_45:\n      mload(0x40)\n      tag_49\n      swap3\n      swap2\n      swap1\n      tag_50\n      jump\t// in\n    tag_49:\n      mload(0x40)\n      dup1\n      swap2\n      sub\n      swap1\n      return\n        /* \"S7/mp.sol\":4238:4813  function cancelListing(address nftContract, uint256 tokenId) ... */\n    tag_11:\n      tag_51\n      0x04\n      dup1\n      calldatasize\n      sub\n      dup2\n      add\n      swap1\n      tag_52\n      swap2\n      swap1\n      tag_15\n      jump\t// in\n    tag_52:\n      tag_53\n      jump\t// in\n    tag_51:\n      stop\n        /* \"S7/mp.sol\":463:526  mapping(address => mapping(uint256 => Listing)) public listings */\n    tag_16:\n      mstore(0x20, 0x01)\n      dup2\n      0x00\n      mstore\n      mstore(0x20, keccak256(0x00, 0x40))\n      dup1\n      0x00\n      mstore\n      keccak256(0x00, 0x40)\n      0x00\n      swap2\n      pop\n      swap2\n      pop\n      pop\n      dup1\n      0x00\n      add\n      sload\n      swap1\n      dup1\n      0x01\n      add\n      0x00\n      swap1\n      sload\n      swap1\n      0x0100\n      exp\n      swap1\n      div\n      0xffffffffffffffffffffffffffffffffffffffff\n      and\n      swap1\n      dup1\n      0x02\n      add\n      dup1\n      sload\n      tag_54\n      swap1\n      tag_55\n      jump\t// in\n    tag_54:\n      dup1\n      0x1f\n      add\n      0x20\n      dup1\n      swap2\n      div\n      mul\n      0x20\n      add\n      mload(0x40)\n      swap1\n      dup2\n      add\n      0x40\n      mstore\n      dup1\n      swap3\n      swap2\n      swap1\n      dup2\n      dup2\n      mstore\n      0x20\n      add\n      dup3\n      dup1\n      sload\n      tag_56\n      swap1\n      tag_55\n      jump\t// in\n    tag_56:\n      dup1\n      iszero\n      tag_57\n      jumpi\n      dup1\n      0x1f\n      lt\n      tag_58\n      jumpi\n      0x0100\n      dup1\n      dup4\n      sload\n      div\n      mul\n      dup4\n      mstore\n      swap2\n      0x20\n      add\n      swap2\n      jump(tag_57)\n    tag_58:\n      dup3\n      add\n      swap2\n      swap1\n      0x00\n      mstore\n      keccak256(0x00, 0x20)\n      swap1\n    tag_59:\n      dup2\n      sload\n      dup2\n      mstore\n      swap1\n      0x01\n      add\n      swap1\n      0x20\n      add\n      dup1\n      dup4\n      gt\n      tag_59\n      jumpi\n      dup3\n      swap1\n      sub\n      0x1f\n      and\n      dup3\n      add\n      swap2\n    tag_57:\n      pop\n      pop\n      pop\n      pop\n      pop\n      swap1\n      pop\n      dup4\n      jump\t// out\n        /* \"S7/mp.sol\":577:603  IERC20 public paymentToken */\n    tag_20:\n      0x03\n      0x00\n      swap1\n      sload\n      swap1\n      0x0100\n      exp\n      swap1\n      div\n      0xffffffffffffffffffffffffffffffffffffffff\n      and\n      dup2\n      jump\t// out\n        /* \"S7/mp.sol\":2619:4012  function placeGroupBid(string memory group, uint256 price) external {... */\n    tag_26:\n        /* \"S7/mp.sol\":2713:2714  0 */\n      0x00\n        /* \"S7/mp.sol\":2705:2710  price */\n      dup2\n        /* \"S7/mp.sol\":2705:2714  price > 0 */\n      gt\n        /* \"S7/mp.sol\":2697:2750  require(price > 0, \"Price must be greater than zero\") */\n      tag_61\n      jumpi\n      mload(0x40)\n      0x08c379a000000000000000000000000000000000000000000000000000000000\n      dup2\n      mstore\n      0x04\n      add\n      tag_62\n      swap1\n      tag_63\n      jump\t// in\n    tag_62:\n      mload(0x40)\n      dup1\n      swap2\n      sub\n      swap1\n      revert\n    tag_61:\n        /* \"S7/mp.sol\":2802:2803  0 */\n      0x00\n        /* \"S7/mp.sol\":2768:2804  groupBids[group].buyer == address(0) */\n      0xffffffffffffffffffffffffffffffffffffffff\n      and\n        /* \"S7/mp.sol\":2768:2777  groupBids */\n      0x02\n        /* \"S7/mp.sol\":2778:2783  group */\n      dup4\n        /* \"S7/mp.sol\":2768:2784  groupBids[group] */\n      mload(0x40)\n      tag_64\n      swap2\n      swap1\n      tag_65\n      jump\t// in\n    tag_64:\n      swap1\n      dup2\n      mstore\n      0x20\n      add\n      mload(0x40)\n      dup1\n      swap2\n      sub\n      swap1\n      keccak256\n        /* \"S7/mp.sol\":2768:2790  groupBids[group].buyer */\n      0x01\n      add\n      0x00\n      swap1\n      sload\n      swap1\n      0x0100\n      exp\n      swap1\n      div\n      0xffffffffffffffffffffffffffffffffffffffff\n      and\n        /* \"S7/mp.sol\":2768:2804  groupBids[group].buyer == address(0) */\n      0xffffffffffffffffffffffffffffffffffffffff\n      and\n      eq\n        /* \"S7/mp.sol\":2760:2833  require(groupBids[group].buyer == address(0), \"Group bid already exists\") */\n      tag_66\n      jumpi\n      mload(0x40)\n      0x08c379a000000000000000000000000000000000000000000000000000000000\n      dup2\n      mstore\n      0x04\n      add\n      tag_67\n      swap1\n      tag_68\n      jump\t// in\n    tag_67:\n      mload(0x40)\n      dup1\n      swap2\n      sub\n      swap1\n      revert\n    tag_66:\n        /* \"S7/mp.sol\":2851:2863  paymentToken */\n      0x03\n      0x00\n      swap1\n      sload\n      swap1\n      0x0100\n      exp\n      swap1\n      div\n      0xffffffffffffffffffffffffffffffffffffffff\n      and\n        /* \"S7/mp.sol\":2851:2876  paymentToken.transferFrom */\n      0xffffffffffffffffffffffffffffffffffffffff\n      and\n      0x23b872dd\n        /* \"S7/mp.sol\":2877:2887  msg.sender */\n      caller\n        /* \"S7/mp.sol\":2897:2901  this */\n      address\n        /* \"S7/mp.sol\":2904:2909  price */\n      dup5\n        /* \"S7/mp.sol\":2851:2910  paymentToken.transferFrom(msg.sender, address(this), price) */\n      mload(0x40)\n      dup5\n      0xffffffff\n      and\n      0xe0\n      shl\n      dup2\n      mstore\n      0x04\n      add\n      tag_69\n      swap4\n      swap3\n      swap2\n      swap1\n      tag_70\n      jump\t// in\n    tag_69:\n      0x20\n      mload(0x40)\n      dup1\n      dup4\n      sub\n      dup2\n      0x00\n      dup8\n      gas\n      call\n      iszero\n      dup1\n      iszero\n      tag_72\n      jumpi\n      returndatasize\n      0x00\n      dup1\n      returndatacopy\n      revert(0x00, returndatasize)\n    tag_72:\n      pop\n      pop\n      pop\n      pop\n      mload(0x40)\n      returndatasize\n      not(0x1f)\n      0x1f\n      dup3\n      add\n      and\n      dup3\n      add\n      dup1\n      0x40\n      mstore\n      pop\n      dup2\n      add\n      swap1\n      tag_73\n      swap2\n      swap1\n      tag_74\n      jump\t// in\n    tag_73:\n        /* \"S7/mp.sol\":2843:2938  require(paymentToken.transferFrom(msg.sender, address(this), price), \"Payment transfer failed\") */\n      tag_75\n      jumpi\n      mload(0x40)\n      0x08c379a000000000000000000000000000000000000000000000000000000000\n      dup2\n      mstore\n      0x04\n      add\n      tag_76\n      swap1\n      tag_77\n      jump\t// in\n    tag_76:\n      mload(0x40)\n      dup1\n      swap2\n      sub\n      swap1\n      revert\n    tag_75:\n        /* \"S7/mp.sol\":2968:2990  Bid(price, msg.sender) */\n      mload(0x40)\n      dup1\n      0x40\n      add\n      0x40\n      mstore\n      dup1\n        /* \"S7/mp.sol\":2972:2977  price */\n      dup3\n        /* \"S7/mp.sol\":2968:2990  Bid(price, msg.sender) */\n      dup2\n      mstore\n      0x20\n      add\n        /* \"S7/mp.sol\":2979:2989  msg.sender */\n      caller\n        /* \"S7/mp.sol\":2968:2990  Bid(price, msg.sender) */\n      0xffffffffffffffffffffffffffffffffffffffff\n      and\n      dup2\n      mstore\n      pop\n        /* \"S7/mp.sol\":2949:2958  groupBids */\n      0x02\n        /* \"S7/mp.sol\":2959:2964  group */\n      dup4\n        /* \"S7/mp.sol\":2949:2965  groupBids[group] */\n      mload(0x40)\n      tag_78\n      swap2\n      swap1\n      tag_65\n      jump\t// in\n    tag_78:\n      swap1\n      dup2\n      mstore\n      0x20\n      add\n      mload(0x40)\n      dup1\n      swap2\n      sub\n      swap1\n      keccak256\n        /* \"S7/mp.sol\":2949:2990  groupBids[group] = Bid(price, msg.sender) */\n      0x00\n      dup3\n      add\n      mload\n      dup2\n      0x00\n      add\n      sstore\n      0x20\n      dup3\n      add\n      mload\n      dup2\n      0x01\n      add\n      exp(0x0100, 0x00)\n      dup2\n      sload\n      dup2\n      0xffffffffffffffffffffffffffffffffffffffff\n      mul\n      not\n      and\n      swap1\n      dup4\n      0xffffffffffffffffffffffffffffffffffffffff\n      and\n      mul\n      or\n      swap1\n      sstore\n      pop\n      swap1\n      pop\n      pop\n        /* \"S7/mp.sol\":3034:3044  msg.sender */\n      caller\n        /* \"S7/mp.sol\":3005:3045  GroupBidPlaced(group, price, msg.sender) */\n      0xffffffffffffffffffffffffffffffffffffffff\n      and\n        /* \"S7/mp.sol\":3020:3025  group */\n      dup3\n        /* \"S7/mp.sol\":3005:3045  GroupBidPlaced(group, price, msg.sender) */\n      mload(0x40)\n      tag_79\n      swap2\n      swap1\n      tag_65\n      jump\t// in\n    tag_79:\n      mload(0x40)\n      dup1\n      swap2\n      sub\n      swap1\n      keccak256\n      0xb9b597ac955508b07ae61704bf8fbb68a1496727b57048867ed6d1f1256c9da6\n        /* \"S7/mp.sol\":3027:3032  price */\n      dup4\n        /* \"S7/mp.sol\":3005:3045  GroupBidPlaced(group, price, msg.sender) */\n      mload(0x40)\n      tag_80\n      swap2\n      swap1\n      tag_81\n      jump\t// in\n    tag_80:\n      mload(0x40)\n      dup1\n      swap2\n      sub\n      swap1\n      log3\n        /* \"S7/mp.sol\":3124:3133  uint256 i */\n      0x00\n        /* \"S7/mp.sol\":3119:4006  for (uint256 i = 0; i < listedNFTs.length; i++) {... */\n    tag_82:\n        /* \"S7/mp.sol\":3143:3153  listedNFTs */\n      0x04\n        /* \"S7/mp.sol\":3143:3160  listedNFTs.length */\n      dup1\n      sload\n      swap1\n      pop\n        /* \"S7/mp.sol\":3139:3140  i */\n      dup2\n        /* \"S7/mp.sol\":3139:3160  i < listedNFTs.length */\n      lt\n        /* \"S7/mp.sol\":3119:4006  for (uint256 i = 0; i < listedNFTs.length; i++) {... */\n      iszero\n      tag_83\n      jumpi\n        /* \"S7/mp.sol\":3181:3200  address nftContract */\n      0x00\n        /* \"S7/mp.sol\":3203:3213  listedNFTs */\n      0x04\n        /* \"S7/mp.sol\":3214:3215  i */\n      dup3\n        /* \"S7/mp.sol\":3203:3216  listedNFTs[i] */\n      dup2\n      sload\n      dup2\n      lt\n      tag_85\n      jumpi\n      tag_86\n      tag_87\n      jump\t// in\n    tag_86:\n    tag_85:\n      swap1\n      0x00\n      mstore\n      keccak256(0x00, 0x20)\n      swap1\n      0x02\n      mul\n      add\n        /* \"S7/mp.sol\":3203:3228  listedNFTs[i].nftContract */\n      0x00\n      add\n      0x00\n      swap1\n      sload\n      swap1\n      0x0100\n      exp\n      swap1\n      div\n      0xffffffffffffffffffffffffffffffffffffffff\n      and\n        /* \"S7/mp.sol\":3181:3228  address nftContract = listedNFTs[i].nftContract */\n      swap1\n      pop\n        /* \"S7/mp.sol\":3242:3257  uint256 tokenId */\n      0x00\n        /* \"S7/mp.sol\":3260:3270  listedNFTs */\n      0x04\n        /* \"S7/mp.sol\":3271:3272  i */\n      dup4\n        /* \"S7/mp.sol\":3260:3273  listedNFTs[i] */\n      dup2\n      sload\n      dup2\n      lt\n      tag_89\n      jumpi\n      tag_90\n      tag_87\n      jump\t// in\n    tag_90:\n    tag_89:\n      swap1\n      0x00\n      mstore\n      keccak256(0x00, 0x20)\n      swap1\n      0x02\n      mul\n      add\n        /* \"S7/mp.sol\":3260:3281  listedNFTs[i].tokenId */\n      0x01\n      add\n      sload\n        /* \"S7/mp.sol\":3242:3281  uint256 tokenId = listedNFTs[i].tokenId */\n      swap1\n      pop\n        /* \"S7/mp.sol\":3295:3317  Listing memory listing */\n      0x00\n        /* \"S7/mp.sol\":3320:3328  listings */\n      0x01\n        /* \"S7/mp.sol\":3320:3341  listings[nftContract] */\n      0x00\n        /* \"S7/mp.sol\":3329:3340  nftContract */\n      dup5\n        /* \"S7/mp.sol\":3320:3341  listings[nftContract] */\n      0xffffffffffffffffffffffffffffffffffffffff\n      and\n      0xffffffffffffffffffffffffffffffffffffffff\n      and\n      dup2\n      mstore\n      0x20\n      add\n      swap1\n      dup2\n      mstore\n      0x20\n      add\n      0x00\n      keccak256\n        /* \"S7/mp.sol\":3320:3350  listings[nftContract][tokenId] */\n      0x00\n        /* \"S7/mp.sol\":3342:3349  tokenId */\n      dup4\n        /* \"S7/mp.sol\":3320:3350  listings[nftContract][tokenId] */\n      dup2\n      mstore\n      0x20\n      add\n      swap1\n      dup2\n      mstore\n      0x20\n      add\n      0x00\n      keccak256\n        /* \"S7/mp.sol\":3295:3350  Listing memory listing = listings[nftContract][tokenId] */\n      mload(0x40)\n      dup1\n      0x60\n      add\n      0x40\n      mstore\n      swap1\n      dup2\n      0x00\n      dup3\n      add\n      sload\n      dup2\n      mstore\n      0x20\n      add\n      0x01\n      dup3\n      add\n      0x00\n      swap1\n      sload\n      swap1\n      0x0100\n      exp\n      swap1\n      div\n      0xffffffffffffffffffffffffffffffffffffffff\n      and\n      0xffffffffffffffffffffffffffffffffffffffff\n      and\n      0xffffffffffffffffffffffffffffffffffffffff\n      and\n      dup2\n      mstore\n      0x20\n      add\n      0x02\n      dup3\n      add\n      dup1\n      sload\n      tag_92\n      swap1\n      tag_55\n      jump\t// in\n    tag_92:\n      dup1\n      0x1f\n      add\n      0x20\n      dup1\n      swap2\n      div\n      mul\n      0x20\n      add\n      mload(0x40)\n      swap1\n      dup2\n      add\n      0x40\n      mstore\n      dup1\n      swap3\n      swap2\n      swap1\n      dup2\n      dup2\n      mstore\n      0x20\n      add\n      dup3\n      dup1\n      sload\n      tag_93\n      swap1\n      tag_55\n      jump\t// in\n    tag_93:\n      dup1\n      iszero\n      tag_94\n      jumpi\n      dup1\n      0x1f\n      lt\n      tag_95\n      jumpi\n      0x0100\n      dup1\n      dup4\n      sload\n      div\n      mul\n      dup4\n      mstore\n      swap2\n      0x20\n      add\n      swap2\n      jump(tag_94)\n    tag_95:\n      dup3\n      add\n      swap2\n      swap1\n      0x00\n      mstore\n      keccak256(0x00, 0x20)\n      swap1\n    tag_96:\n      dup2\n      sload\n      dup2\n      mstore\n      swap1\n      0x01\n      add\n      swap1\n      0x20\n      add\n      dup1\n      dup4\n      gt\n      tag_96\n      jumpi\n      dup3\n      swap1\n      sub\n      0x1f\n      and\n      dup3\n      add\n      swap2\n    tag_94:\n      pop\n      pop\n      pop\n      pop\n      pop\n      dup2\n      mstore\n      pop\n      pop\n      swap1\n      pop\n        /* \"S7/mp.sol\":3420:3425  group */\n      dup6\n        /* \"S7/mp.sol\":3404:3427  keccak256(bytes(group)) */\n      dup1\n      mload\n      swap1\n      0x20\n      add\n      keccak256\n        /* \"S7/mp.sol\":3385:3392  listing */\n      dup2\n        /* \"S7/mp.sol\":3385:3398  listing.group */\n      0x40\n      add\n      mload\n        /* \"S7/mp.sol\":3369:3400  keccak256(bytes(listing.group)) */\n      dup1\n      mload\n      swap1\n      0x20\n      add\n      keccak256\n        /* \"S7/mp.sol\":3369:3427  keccak256(bytes(listing.group)) == keccak256(bytes(group)) */\n      eq\n        /* \"S7/mp.sol\":3369:3453  keccak256(bytes(listing.group)) == keccak256(bytes(group)) && listing.price <= price */\n      dup1\n      iszero\n      tag_97\n      jumpi\n      pop\n        /* \"S7/mp.sol\":3448:3453  price */\n      dup5\n        /* \"S7/mp.sol\":3431:3438  listing */\n      dup2\n        /* \"S7/mp.sol\":3431:3444  listing.price */\n      0x00\n      add\n      mload\n        /* \"S7/mp.sol\":3431:3453  listing.price <= price */\n      gt\n      iszero\n        /* \"S7/mp.sol\":3369:3453  keccak256(bytes(listing.group)) == keccak256(bytes(group)) && listing.price <= price */\n    tag_97:\n        /* \"S7/mp.sol\":3365:3996  if (keccak256(bytes(listing.group)) == keccak256(bytes(group)) && listing.price <= price) {... */\n      iszero\n      tag_98\n      jumpi\n        /* \"S7/mp.sol\":3480:3489  groupBids */\n      0x02\n        /* \"S7/mp.sol\":3490:3495  group */\n      dup7\n        /* \"S7/mp.sol\":3480:3496  groupBids[group] */\n      mload(0x40)\n      tag_99\n      swap2\n      swap1\n      tag_65\n      jump\t// in\n    tag_99:\n      swap1\n      dup2\n      mstore\n      0x20\n      add\n      mload(0x40)\n      dup1\n      swap2\n      sub\n      swap1\n      keccak256\n      0x00\n        /* \"S7/mp.sol\":3473:3496  delete groupBids[group] */\n      dup1\n      dup3\n      add\n      0x00\n      swap1\n      sstore\n      0x01\n      dup3\n      add\n      exp(0x0100, 0x00)\n      dup2\n      sload\n      swap1\n      0xffffffffffffffffffffffffffffffffffffffff\n      mul\n      not\n      and\n      swap1\n      sstore\n      pop\n      pop\n        /* \"S7/mp.sol\":3521:3529  listings */\n      0x01\n        /* \"S7/mp.sol\":3521:3542  listings[nftContract] */\n      0x00\n        /* \"S7/mp.sol\":3530:3541  nftContract */\n      dup5\n        /* \"S7/mp.sol\":3521:3542  listings[nftContract] */\n      0xffffffffffffffffffffffffffffffffffffffff\n      and\n      0xffffffffffffffffffffffffffffffffffffffff\n      and\n      dup2\n      mstore\n      0x20\n      add\n      swap1\n      dup2\n      mstore\n      0x20\n      add\n      0x00\n      keccak256\n        /* \"S7/mp.sol\":3521:3551  listings[nftContract][tokenId] */\n      0x00\n        /* \"S7/mp.sol\":3543:3550  tokenId */\n      dup4\n        /* \"S7/mp.sol\":3521:3551  listings[nftContract][tokenId] */\n      dup2\n      mstore\n      0x20\n      add\n      swap1\n      dup2\n      mstore\n      0x20\n      add\n      0x00\n      keccak256\n      0x00\n        /* \"S7/mp.sol\":3514:3551  delete listings[nftContract][tokenId] */\n      dup1\n      dup3\n      add\n      0x00\n      swap1\n      sstore\n      0x01\n      dup3\n      add\n      exp(0x0100, 0x00)\n      dup2\n      sload\n      swap1\n      0xffffffffffffffffffffffffffffffffffffffff\n      mul\n      not\n      and\n      swap1\n      sstore\n      0x02\n      dup3\n      add\n      0x00\n      tag_100\n      swap2\n      swap1\n      tag_101\n      jump\t// in\n    tag_100:\n      pop\n      pop\n        /* \"S7/mp.sol\":3613:3625  paymentToken */\n      0x03\n      0x00\n      swap1\n      sload\n      swap1\n      0x0100\n      exp\n      swap1\n      div\n      0xffffffffffffffffffffffffffffffffffffffff\n      and\n        /* \"S7/mp.sol\":3613:3634  paymentToken.transfer */\n      0xffffffffffffffffffffffffffffffffffffffff\n      and\n      0xa9059cbb\n        /* \"S7/mp.sol\":3635:3642  listing */\n      dup3\n        /* \"S7/mp.sol\":3635:3649  listing.seller */\n      0x20\n      add\n      mload\n        /* \"S7/mp.sol\":3651:3658  listing */\n      dup4\n        /* \"S7/mp.sol\":3651:3664  listing.price */\n      0x00\n      add\n      mload\n        /* \"S7/mp.sol\":3613:3665  paymentToken.transfer(listing.seller, listing.price) */\n      mload(0x40)\n      dup4\n      0xffffffff\n      and\n      0xe0\n      shl\n      dup2\n      mstore\n      0x04\n      add\n      tag_102\n      swap3\n      swap2\n      swap1\n      tag_37\n      jump\t// in\n    tag_102:\n      0x20\n      mload(0x40)\n      dup1\n      dup4\n      sub\n      dup2\n      0x00\n      dup8\n      gas\n      call\n      iszero\n      dup1\n      iszero\n      tag_104\n      jumpi\n      returndatasize\n      0x00\n      dup1\n      returndatacopy\n      revert(0x00, returndatasize)\n    tag_104:\n      pop\n      pop\n      pop\n      pop\n      mload(0x40)\n      returndatasize\n      not(0x1f)\n      0x1f\n      dup3\n      add\n      and\n      dup3\n      add\n      dup1\n      0x40\n      mstore\n      pop\n      dup2\n      add\n      swap1\n      tag_105\n      swap2\n      swap1\n      tag_74\n      jump\t// in\n    tag_105:\n        /* \"S7/mp.sol\":3605:3693  require(paymentToken.transfer(listing.seller, listing.price), \"Payment transfer failed\") */\n      tag_106\n      jumpi\n      mload(0x40)\n      0x08c379a000000000000000000000000000000000000000000000000000000000\n      dup2\n      mstore\n      0x04\n      add\n      tag_107\n      swap1\n      tag_77\n      jump\t// in\n    tag_107:\n      mload(0x40)\n      dup1\n      swap2\n      sub\n      swap1\n      revert\n    tag_106:\n        /* \"S7/mp.sol\":3719:3730  nftContract */\n      dup3\n        /* \"S7/mp.sol\":3711:3748  IERC721(nftContract).safeTransferFrom */\n      0xffffffffffffffffffffffffffffffffffffffff\n      and\n      0x42842e0e\n        /* \"S7/mp.sol\":3749:3756  listing */\n      dup3\n        /* \"S7/mp.sol\":3749:3763  listing.seller */\n      0x20\n      add\n      mload\n        /* \"S7/mp.sol\":3765:3775  msg.sender */\n      caller\n        /* \"S7/mp.sol\":3777:3784  tokenId */\n      dup6\n        /* \"S7/mp.sol\":3711:3785  IERC721(nftContract).safeTransferFrom(listing.seller, msg.sender, tokenId) */\n      mload(0x40)\n      dup5\n      0xffffffff\n      and\n      0xe0\n      shl\n      dup2\n      mstore\n      0x04\n      add\n      tag_108\n      swap4\n      swap3\n      swap2\n      swap1\n      tag_70\n      jump\t// in\n    tag_108:\n      0x00\n      mload(0x40)\n      dup1\n      dup4\n      sub\n      dup2\n      0x00\n      dup8\n      dup1\n      extcodesize\n      iszero\n      dup1\n      iszero\n      tag_109\n      jumpi\n      0x00\n      dup1\n      revert\n    tag_109:\n      pop\n      gas\n      call\n      iszero\n      dup1\n      iszero\n      tag_111\n      jumpi\n      returndatasize\n      0x00\n      dup1\n      returndatacopy\n      revert(0x00, returndatasize)\n    tag_111:\n      pop\n      pop\n      pop\n      pop\n        /* \"S7/mp.sol\":3862:3872  msg.sender */\n      caller\n        /* \"S7/mp.sol\":3809:3873  GroupBidMatched(nftContract, tokenId, listing.price, msg.sender) */\n      0xffffffffffffffffffffffffffffffffffffffff\n      and\n        /* \"S7/mp.sol\":3838:3845  tokenId */\n      dup3\n        /* \"S7/mp.sol\":3825:3836  nftContract */\n      dup5\n        /* \"S7/mp.sol\":3809:3873  GroupBidMatched(nftContract, tokenId, listing.price, msg.sender) */\n      0xffffffffffffffffffffffffffffffffffffffff\n      and\n      0x1658be8dbd90f08a0f1b9367eaf7d55760d7addbb8dfe73c43524c77e6febebc\n        /* \"S7/mp.sol\":3847:3854  listing */\n      dup5\n        /* \"S7/mp.sol\":3847:3860  listing.price */\n      0x00\n      add\n      mload\n        /* \"S7/mp.sol\":3809:3873  GroupBidMatched(nftContract, tokenId, listing.price, msg.sender) */\n      mload(0x40)\n      tag_112\n      swap2\n      swap1\n      tag_81\n      jump\t// in\n    tag_112:\n      mload(0x40)\n      dup1\n      swap2\n      sub\n      swap1\n      log4\n        /* \"S7/mp.sol\":3939:3958  _removeListedNFT(i) */\n      tag_113\n        /* \"S7/mp.sol\":3956:3957  i */\n      dup5\n        /* \"S7/mp.sol\":3939:3955  _removeListedNFT */\n      tag_114\n        /* \"S7/mp.sol\":3939:3958  _removeListedNFT(i) */\n      jump\t// in\n    tag_113:\n        /* \"S7/mp.sol\":3976:3981  break */\n      pop\n      pop\n      pop\n      jump(tag_83)\n        /* \"S7/mp.sol\":3365:3996  if (keccak256(bytes(listing.group)) == keccak256(bytes(group)) && listing.price <= price) {... */\n    tag_98:\n        /* \"S7/mp.sol\":3167:4006  {... */\n      pop\n      pop\n      pop\n        /* \"S7/mp.sol\":3162:3165  i++ */\n      dup1\n      dup1\n      0x01\n      add\n      swap2\n      pop\n      pop\n        /* \"S7/mp.sol\":3119:4006  for (uint256 i = 0; i < listedNFTs.length; i++) {... */\n      jump(tag_82)\n    tag_83:\n      pop\n        /* \"S7/mp.sol\":2619:4012  function placeGroupBid(string memory group, uint256 price) external {... */\n      pop\n      pop\n      jump\t// out\n        /* \"S7/mp.sol\":5646:5828  function getListing(address nftContract, uint256 tokenId) ... */\n    tag_29:\n        /* \"S7/mp.sol\":5754:5768  Listing memory */\n      tag_115\n      tag_116\n      jump\t// in\n    tag_115:\n        /* \"S7/mp.sol\":5791:5799  listings */\n      0x01\n        /* \"S7/mp.sol\":5791:5812  listings[nftContract] */\n      0x00\n        /* \"S7/mp.sol\":5800:5811  nftContract */\n      dup5\n        /* \"S7/mp.sol\":5791:5812  listings[nftContract] */\n      0xffffffffffffffffffffffffffffffffffffffff\n      and\n      0xffffffffffffffffffffffffffffffffffffffff\n      and\n      dup2\n      mstore\n      0x20\n      add\n      swap1\n      dup2\n      mstore\n      0x20\n      add\n      0x00\n      keccak256\n        /* \"S7/mp.sol\":5791:5821  listings[nftContract][tokenId] */\n      0x00\n        /* \"S7/mp.sol\":5813:5820  tokenId */\n      dup4\n        /* \"S7/mp.sol\":5791:5821  listings[nftContract][tokenId] */\n      dup2\n      mstore\n      0x20\n      add\n      swap1\n      dup2\n      mstore\n      0x20\n      add\n      0x00\n      keccak256\n        /* \"S7/mp.sol\":5784:5821  return listings[nftContract][tokenId] */\n      mload(0x40)\n      dup1\n      0x60\n      add\n      0x40\n      mstore\n      swap1\n      dup2\n      0x00\n      dup3\n      add\n      sload\n      dup2\n      mstore\n      0x20\n      add\n      0x01\n      dup3\n      add\n      0x00\n      swap1\n      sload\n      swap1\n      0x0100\n      exp\n      swap1\n      div\n      0xffffffffffffffffffffffffffffffffffffffff\n      and\n      0xffffffffffffffffffffffffffffffffffffffff\n      and\n      0xffffffffffffffffffffffffffffffffffffffff\n      and\n      dup2\n      mstore\n      0x20\n      add\n      0x02\n      dup3\n      add\n      dup1\n      sload\n      tag_118\n      swap1\n      tag_55\n      jump\t// in\n    tag_118:\n      dup1\n      0x1f\n      add\n      0x20\n      dup1\n      swap2\n      div\n      mul\n      0x20\n      add\n      mload(0x40)\n      swap1\n      dup2\n      add\n      0x40\n      mstore\n      dup1\n      swap3\n      swap2\n      swap1\n      dup2\n      dup2\n      mstore\n      0x20\n      add\n      dup3\n      dup1\n      sload\n      tag_119\n      swap1\n      tag_55\n      jump\t// in\n    tag_119:\n      dup1\n      iszero\n      tag_120\n      jumpi\n      dup1\n      0x1f\n      lt\n      tag_121\n      jumpi\n      0x0100\n      dup1\n      dup4\n      sload\n      div\n      mul\n      dup4\n      mstore\n      swap2\n      0x20\n      add\n      swap2\n      jump(tag_120)\n    tag_121:\n      dup3\n      add\n      swap2\n      swap1\n      0x00\n      mstore\n      keccak256(0x00, 0x20)\n      swap1\n    tag_122:\n      dup2\n      sload\n      dup2\n      mstore\n      swap1\n      0x01\n      add\n      swap1\n      0x20\n      add\n      dup1\n      dup4\n      gt\n      tag_122\n      jumpi\n      dup3\n      swap1\n      sub\n      0x1f\n      and\n      dup3\n      add\n      swap2\n    tag_120:\n      pop\n      pop\n      pop\n      pop\n      pop\n      dup2\n      mstore\n      pop\n      pop\n      swap1\n      pop\n        /* \"S7/mp.sol\":5646:5828  function getListing(address nftContract, uint256 tokenId) ... */\n      swap3\n      swap2\n      pop\n      pop\n      jump\t// out\n        /* \"S7/mp.sol\":702:731  ListedNFT[] public listedNFTs */\n    tag_35:\n      0x04\n      dup2\n      dup2\n      sload\n      dup2\n      lt\n      tag_123\n      jumpi\n      0x00\n      dup1\n      revert\n    tag_123:\n      swap1\n      0x00\n      mstore\n      keccak256(0x00, 0x20)\n      swap1\n      0x02\n      mul\n      add\n      0x00\n      swap2\n      pop\n      swap1\n      pop\n      dup1\n      0x00\n      add\n      0x00\n      swap1\n      sload\n      swap1\n      0x0100\n      exp\n      swap1\n      div\n      0xffffffffffffffffffffffffffffffffffffffff\n      and\n      swap1\n      dup1\n      0x01\n      add\n      sload\n      swap1\n      pop\n      dup3\n      jump\t// out\n        /* \"S7/mp.sol\":1968:2613  function listNFT(address nftContract, uint256 tokenId, uint256 price, string memory group) ... */\n    tag_41:\n        /* \"S7/mp.sol\":2094:2105  nftContract */\n      dup4\n        /* \"S7/mp.sol\":2107:2114  tokenId */\n      dup4\n        /* \"S7/mp.sol\":2116:2126  msg.sender */\n      caller\n        /* \"S7/mp.sol\":1506:1517  IERC721 nft */\n      0x00\n        /* \"S7/mp.sol\":1528:1539  nftContract */\n      dup4\n        /* \"S7/mp.sol\":1506:1540  IERC721 nft = IERC721(nftContract) */\n      swap1\n      pop\n        /* \"S7/mp.sol\":1582:1589  spender */\n      dup2\n        /* \"S7/mp.sol\":1558:1589  nft.ownerOf(tokenId) == spender */\n      0xffffffffffffffffffffffffffffffffffffffff\n      and\n        /* \"S7/mp.sol\":1558:1561  nft */\n      dup2\n        /* \"S7/mp.sol\":1558:1569  nft.ownerOf */\n      0xffffffffffffffffffffffffffffffffffffffff\n      and\n      0x6352211e\n        /* \"S7/mp.sol\":1570:1577  tokenId */\n      dup6\n        /* \"S7/mp.sol\":1558:1578  nft.ownerOf(tokenId) */\n      mload(0x40)\n      dup3\n      0xffffffff\n      and\n      0xe0\n      shl\n      dup2\n      mstore\n      0x04\n      add\n      tag_126\n      swap2\n      swap1\n      tag_81\n      jump\t// in\n    tag_126:\n      0x20\n      mload(0x40)\n      dup1\n      dup4\n      sub\n      dup2\n      dup7\n      gas\n      staticcall\n      iszero\n      dup1\n      iszero\n      tag_128\n      jumpi\n      returndatasize\n      0x00\n      dup1\n      returndatacopy\n      revert(0x00, returndatasize)\n    tag_128:\n      pop\n      pop\n      pop\n      pop\n      mload(0x40)\n      returndatasize\n      not(0x1f)\n      0x1f\n      dup3\n      add\n      and\n      dup3\n      add\n      dup1\n      0x40\n      mstore\n      pop\n      dup2\n      add\n      swap1\n      tag_129\n      swap2\n      swap1\n      tag_130\n      jump\t// in\n    tag_129:\n        /* \"S7/mp.sol\":1558:1589  nft.ownerOf(tokenId) == spender */\n      0xffffffffffffffffffffffffffffffffffffffff\n      and\n      eq\n        /* \"S7/mp.sol\":1550:1618  require(nft.ownerOf(tokenId) == spender, \"Not the owner of the NFT\") */\n      tag_131\n      jumpi\n      mload(0x40)\n      0x08c379a000000000000000000000000000000000000000000000000000000000\n      dup2\n      mstore\n      0x04\n      add\n      tag_132\n      swap1\n      tag_133\n      jump\t// in\n    tag_132:\n      mload(0x40)\n      dup1\n      swap2\n      sub\n      swap1\n      revert\n    tag_131:\n        /* \"S7/mp.sol\":2147:2158  nftContract */\n      dup8\n        /* \"S7/mp.sol\":2160:2167  tokenId */\n      dup8\n        /* \"S7/mp.sol\":1757:1758  0 */\n      0x00\n        /* \"S7/mp.sol\":1717:1725  listings */\n      0x01\n        /* \"S7/mp.sol\":1717:1738  listings[nftContract] */\n      0x00\n        /* \"S7/mp.sol\":1726:1737  nftContract */\n      dup5\n        /* \"S7/mp.sol\":1717:1738  listings[nftContract] */\n      0xffffffffffffffffffffffffffffffffffffffff\n      and\n      0xffffffffffffffffffffffffffffffffffffffff\n      and\n      dup2\n      mstore\n      0x20\n      add\n      swap1\n      dup2\n      mstore\n      0x20\n      add\n      0x00\n      keccak256\n        /* \"S7/mp.sol\":1717:1747  listings[nftContract][tokenId] */\n      0x00\n        /* \"S7/mp.sol\":1739:1746  tokenId */\n      dup4\n        /* \"S7/mp.sol\":1717:1747  listings[nftContract][tokenId] */\n      dup2\n      mstore\n      0x20\n      add\n      swap1\n      dup2\n      mstore\n      0x20\n      add\n      0x00\n      keccak256\n        /* \"S7/mp.sol\":1717:1753  listings[nftContract][tokenId].price */\n      0x00\n      add\n      sload\n        /* \"S7/mp.sol\":1717:1758  listings[nftContract][tokenId].price == 0 */\n      eq\n        /* \"S7/mp.sol\":1709:1784  require(listings[nftContract][tokenId].price == 0, \"NFT is already listed\") */\n      tag_135\n      jumpi\n      mload(0x40)\n      0x08c379a000000000000000000000000000000000000000000000000000000000\n      dup2\n      mstore\n      0x04\n      add\n      tag_136\n      swap1\n      tag_137\n      jump\t// in\n    tag_136:\n      mload(0x40)\n      dup1\n      swap2\n      sub\n      swap1\n      revert\n    tag_135:\n        /* \"S7/mp.sol\":2199:2200  0 */\n      0x00\n        /* \"S7/mp.sol\":2191:2196  price */\n      dup9\n        /* \"S7/mp.sol\":2191:2200  price > 0 */\n      gt\n        /* \"S7/mp.sol\":2183:2236  require(price > 0, \"Price must be greater than zero\") */\n      tag_139\n      jumpi\n      mload(0x40)\n      0x08c379a000000000000000000000000000000000000000000000000000000000\n      dup2\n      mstore\n      0x04\n      add\n      tag_140\n      swap1\n      tag_63\n      jump\t// in\n    tag_140:\n      mload(0x40)\n      dup1\n      swap2\n      sub\n      swap1\n      revert\n    tag_139:\n        /* \"S7/mp.sol\":2247:2258  IERC721 nft */\n      0x00\n        /* \"S7/mp.sol\":2269:2280  nftContract */\n      dup11\n        /* \"S7/mp.sol\":2247:2281  IERC721 nft = IERC721(nftContract) */\n      swap1\n      pop\n        /* \"S7/mp.sol\":2335:2339  this */\n      address\n        /* \"S7/mp.sol\":2299:2340  nft.getApproved(tokenId) == address(this) */\n      0xffffffffffffffffffffffffffffffffffffffff\n      and\n        /* \"S7/mp.sol\":2299:2302  nft */\n      dup2\n        /* \"S7/mp.sol\":2299:2314  nft.getApproved */\n      0xffffffffffffffffffffffffffffffffffffffff\n      and\n      0x081812fc\n        /* \"S7/mp.sol\":2315:2322  tokenId */\n      dup13\n        /* \"S7/mp.sol\":2299:2323  nft.getApproved(tokenId) */\n      mload(0x40)\n      dup3\n      0xffffffff\n      and\n      0xe0\n      shl\n      dup2\n      mstore\n      0x04\n      add\n      tag_141\n      swap2\n      swap1\n      tag_81\n      jump\t// in\n    tag_141:\n      0x20\n      mload(0x40)\n      dup1\n      dup4\n      sub\n      dup2\n      dup7\n      gas\n      staticcall\n      iszero\n      dup1\n      iszero\n      tag_143\n      jumpi\n      returndatasize\n      0x00\n      dup1\n      returndatacopy\n      revert(0x00, returndatasize)\n    tag_143:\n      pop\n      pop\n      pop\n      pop\n      mload(0x40)\n      returndatasize\n      not(0x1f)\n      0x1f\n      dup3\n      add\n      and\n      dup3\n      add\n      dup1\n      0x40\n      mstore\n      pop\n      dup2\n      add\n      swap1\n      tag_144\n      swap2\n      swap1\n      tag_130\n      jump\t// in\n    tag_144:\n        /* \"S7/mp.sol\":2299:2340  nft.getApproved(tokenId) == address(this) */\n      0xffffffffffffffffffffffffffffffffffffffff\n      and\n      eq\n        /* \"S7/mp.sol\":2291:2369  require(nft.getApproved(tokenId) == address(this), \"Marketplace not approved\") */\n      tag_145\n      jumpi\n      mload(0x40)\n      0x08c379a000000000000000000000000000000000000000000000000000000000\n      dup2\n      mstore\n      0x04\n      add\n      tag_146\n      swap1\n      tag_147\n      jump\t// in\n    tag_146:\n      mload(0x40)\n      dup1\n      swap2\n      sub\n      swap1\n      revert\n    tag_145:\n        /* \"S7/mp.sol\":2413:2446  Listing(price, msg.sender, group) */\n      mload(0x40)\n      dup1\n      0x60\n      add\n      0x40\n      mstore\n      dup1\n        /* \"S7/mp.sol\":2421:2426  price */\n      dup11\n        /* \"S7/mp.sol\":2413:2446  Listing(price, msg.sender, group) */\n      dup2\n      mstore\n      0x20\n      add\n        /* \"S7/mp.sol\":2428:2438  msg.sender */\n      caller\n        /* \"S7/mp.sol\":2413:2446  Listing(price, msg.sender, group) */\n      0xffffffffffffffffffffffffffffffffffffffff\n      and\n      dup2\n      mstore\n      0x20\n      add\n        /* \"S7/mp.sol\":2440:2445  group */\n      dup10\n        /* \"S7/mp.sol\":2413:2446  Listing(price, msg.sender, group) */\n      dup2\n      mstore\n      pop\n        /* \"S7/mp.sol\":2380:2388  listings */\n      0x01\n        /* \"S7/mp.sol\":2380:2401  listings[nftContract] */\n      0x00\n        /* \"S7/mp.sol\":2389:2400  nftContract */\n      dup14\n        /* \"S7/mp.sol\":2380:2401  listings[nftContract] */\n      0xffffffffffffffffffffffffffffffffffffffff\n      and\n      0xffffffffffffffffffffffffffffffffffffffff\n      and\n      dup2\n      mstore\n      0x20\n      add\n      swap1\n      dup2\n      mstore\n      0x20\n      add\n      0x00\n      keccak256\n        /* \"S7/mp.sol\":2380:2410  listings[nftContract][tokenId] */\n      0x00\n        /* \"S7/mp.sol\":2402:2409  tokenId */\n      dup13\n        /* \"S7/mp.sol\":2380:2410  listings[nftContract][tokenId] */\n      dup2\n      mstore\n      0x20\n      add\n      swap1\n      dup2\n      mstore\n      0x20\n      add\n      0x00\n      keccak256\n        /* \"S7/mp.sol\":2380:2446  listings[nftContract][tokenId] = Listing(price, msg.sender, group) */\n      0x00\n      dup3\n      add\n      mload\n      dup2\n      0x00\n      add\n      sstore\n      0x20\n      dup3\n      add\n      mload\n      dup2\n      0x01\n      add\n      exp(0x0100, 0x00)\n      dup2\n      sload\n      dup2\n      0xffffffffffffffffffffffffffffffffffffffff\n      mul\n      not\n      and\n      swap1\n      dup4\n      0xffffffffffffffffffffffffffffffffffffffff\n      and\n      mul\n      or\n      swap1\n      sstore\n      pop\n      0x40\n      dup3\n      add\n      mload\n      dup2\n      0x02\n      add\n      swap1\n      dup2\n      tag_148\n      swap2\n      swap1\n      tag_149\n      jump\t// in\n    tag_148:\n      pop\n      swap1\n      pop\n      pop\n        /* \"S7/mp.sol\":2456:2466  listedNFTs */\n      0x04\n        /* \"S7/mp.sol\":2472:2503  ListedNFT(nftContract, tokenId) */\n      mload(0x40)\n      dup1\n      0x40\n      add\n      0x40\n      mstore\n      dup1\n        /* \"S7/mp.sol\":2482:2493  nftContract */\n      dup14\n        /* \"S7/mp.sol\":2472:2503  ListedNFT(nftContract, tokenId) */\n      0xffffffffffffffffffffffffffffffffffffffff\n      and\n      dup2\n      mstore\n      0x20\n      add\n        /* \"S7/mp.sol\":2495:2502  tokenId */\n      dup13\n        /* \"S7/mp.sol\":2472:2503  ListedNFT(nftContract, tokenId) */\n      dup2\n      mstore\n      pop\n        /* \"S7/mp.sol\":2456:2504  listedNFTs.push(ListedNFT(nftContract, tokenId)) */\n      swap1\n      dup1\n      0x01\n      dup2\n      sload\n      add\n      dup1\n      dup3\n      sstore\n      dup1\n      swap2\n      pop\n      pop\n      0x01\n      swap1\n      sub\n      swap1\n      0x00\n      mstore\n      keccak256(0x00, 0x20)\n      swap1\n      0x02\n      mul\n      add\n      0x00\n      swap1\n      swap2\n      swap1\n      swap2\n      swap1\n      swap2\n      pop\n      0x00\n      dup3\n      add\n      mload\n      dup2\n      0x00\n      add\n      exp(0x0100, 0x00)\n      dup2\n      sload\n      dup2\n      0xffffffffffffffffffffffffffffffffffffffff\n      mul\n      not\n      and\n      swap1\n      dup4\n      0xffffffffffffffffffffffffffffffffffffffff\n      and\n      mul\n      or\n      swap1\n      sstore\n      pop\n      0x20\n      dup3\n      add\n      mload\n      dup2\n      0x01\n      add\n      sstore\n      pop\n      pop\n        /* \"S7/mp.sol\":2588:2598  msg.sender */\n      caller\n        /* \"S7/mp.sol\":2549:2606  NFTListed(nftContract, tokenId, price, msg.sender, group) */\n      0xffffffffffffffffffffffffffffffffffffffff\n      and\n        /* \"S7/mp.sol\":2572:2579  tokenId */\n      dup11\n        /* \"S7/mp.sol\":2559:2570  nftContract */\n      dup13\n        /* \"S7/mp.sol\":2549:2606  NFTListed(nftContract, tokenId, price, msg.sender, group) */\n      0xffffffffffffffffffffffffffffffffffffffff\n      and\n      0xd3d530e863bcc675fbaac43a738955b08523ea4c724eb86d062f04c7a9e8517c\n        /* \"S7/mp.sol\":2581:2586  price */\n      dup13\n        /* \"S7/mp.sol\":2600:2605  group */\n      dup13\n        /* \"S7/mp.sol\":2549:2606  NFTListed(nftContract, tokenId, price, msg.sender, group) */\n      mload(0x40)\n      tag_151\n      swap3\n      swap2\n      swap1\n      tag_152\n      jump\t// in\n    tag_151:\n      mload(0x40)\n      dup1\n      swap2\n      sub\n      swap1\n      log4\n        /* \"S7/mp.sol\":2173:2613  {... */\n      pop\n        /* \"S7/mp.sol\":1628:1629  _ */\n      pop\n      pop\n        /* \"S7/mp.sol\":1496:1636  {... */\n      pop\n        /* \"S7/mp.sol\":1968:2613  function listNFT(address nftContract, uint256 tokenId, uint256 price, string memory group) ... */\n      pop\n      pop\n      pop\n      pop\n      pop\n      pop\n      pop\n      jump\t// out\n        /* \"S7/mp.sol\":4819:5640  function buyNFT(address nftContract, uint256 tokenId) ... */\n    tag_44:\n        /* \"@openzeppelin/contracts/security/ReentrancyGuard.sol\":2261:2282  _nonReentrantBefore() */\n      tag_154\n        /* \"@openzeppelin/contracts/security/ReentrancyGuard.sol\":2261:2280  _nonReentrantBefore */\n      tag_155\n        /* \"@openzeppelin/contracts/security/ReentrancyGuard.sol\":2261:2282  _nonReentrantBefore() */\n      jump\t// in\n    tag_154:\n        /* \"S7/mp.sol\":4931:4942  nftContract */\n      dup2\n        /* \"S7/mp.sol\":4944:4951  tokenId */\n      dup2\n        /* \"S7/mp.sol\":1921:1922  0 */\n      0x00\n        /* \"S7/mp.sol\":1882:1890  listings */\n      0x01\n        /* \"S7/mp.sol\":1882:1903  listings[nftContract] */\n      0x00\n        /* \"S7/mp.sol\":1891:1902  nftContract */\n      dup5\n        /* \"S7/mp.sol\":1882:1903  listings[nftContract] */\n      0xffffffffffffffffffffffffffffffffffffffff\n      and\n      0xffffffffffffffffffffffffffffffffffffffff\n      and\n      dup2\n      mstore\n      0x20\n      add\n      swap1\n      dup2\n      mstore\n      0x20\n      add\n      0x00\n      keccak256\n        /* \"S7/mp.sol\":1882:1912  listings[nftContract][tokenId] */\n      0x00\n        /* \"S7/mp.sol\":1904:1911  tokenId */\n      dup4\n        /* \"S7/mp.sol\":1882:1912  listings[nftContract][tokenId] */\n      dup2\n      mstore\n      0x20\n      add\n      swap1\n      dup2\n      mstore\n      0x20\n      add\n      0x00\n      keccak256\n        /* \"S7/mp.sol\":1882:1918  listings[nftContract][tokenId].price */\n      0x00\n      add\n      sload\n        /* \"S7/mp.sol\":1882:1922  listings[nftContract][tokenId].price > 0 */\n      gt\n        /* \"S7/mp.sol\":1874:1944  require(listings[nftContract][tokenId].price > 0, \"NFT is not listed\") */\n      tag_157\n      jumpi\n      mload(0x40)\n      0x08c379a000000000000000000000000000000000000000000000000000000000\n      dup2\n      mstore\n      0x04\n      add\n      tag_158\n      swap1\n      tag_159\n      jump\t// in\n    tag_158:\n      mload(0x40)\n      dup1\n      swap2\n      sub\n      swap1\n      revert\n    tag_157:\n        /* \"S7/mp.sol\":4967:4992  Listing memory listedItem */\n      0x00\n        /* \"S7/mp.sol\":4995:5003  listings */\n      0x01\n        /* \"S7/mp.sol\":4995:5016  listings[nftContract] */\n      0x00\n        /* \"S7/mp.sol\":5004:5015  nftContract */\n      dup7\n        /* \"S7/mp.sol\":4995:5016  listings[nftContract] */\n      0xffffffffffffffffffffffffffffffffffffffff\n      and\n      0xffffffffffffffffffffffffffffffffffffffff\n      and\n      dup2\n      mstore\n      0x20\n      add\n      swap1\n      dup2\n      mstore\n      0x20\n      add\n      0x00\n      keccak256\n        /* \"S7/mp.sol\":4995:5025  listings[nftContract][tokenId] */\n      0x00\n        /* \"S7/mp.sol\":5017:5024  tokenId */\n      dup6\n        /* \"S7/mp.sol\":4995:5025  listings[nftContract][tokenId] */\n      dup2\n      mstore\n      0x20\n      add\n      swap1\n      dup2\n      mstore\n      0x20\n      add\n      0x00\n      keccak256\n        /* \"S7/mp.sol\":4967:5025  Listing memory listedItem = listings[nftContract][tokenId] */\n      mload(0x40)\n      dup1\n      0x60\n      add\n      0x40\n      mstore\n      swap1\n      dup2\n      0x00\n      dup3\n      add\n      sload\n      dup2\n      mstore\n      0x20\n      add\n      0x01\n      dup3\n      add\n      0x00\n      swap1\n      sload\n      swap1\n      0x0100\n      exp\n      swap1\n      div\n      0xffffffffffffffffffffffffffffffffffffffff\n      and\n      0xffffffffffffffffffffffffffffffffffffffff\n      and\n      0xffffffffffffffffffffffffffffffffffffffff\n      and\n      dup2\n      mstore\n      0x20\n      add\n      0x02\n      dup3\n      add\n      dup1\n      sload\n      tag_161\n      swap1\n      tag_55\n      jump\t// in\n    tag_161:\n      dup1\n      0x1f\n      add\n      0x20\n      dup1\n      swap2\n      div\n      mul\n      0x20\n      add\n      mload(0x40)\n      swap1\n      dup2\n      add\n      0x40\n      mstore\n      dup1\n      swap3\n      swap2\n      swap1\n      dup2\n      dup2\n      mstore\n      0x20\n      add\n      dup3\n      dup1\n      sload\n      tag_162\n      swap1\n      tag_55\n      jump\t// in\n    tag_162:\n      dup1\n      iszero\n      tag_163\n      jumpi\n      dup1\n      0x1f\n      lt\n      tag_164\n      jumpi\n      0x0100\n      dup1\n      dup4\n      sload\n      div\n      mul\n      dup4\n      mstore\n      swap2\n      0x20\n      add\n      swap2\n      jump(tag_163)\n    tag_164:\n      dup3\n      add\n      swap2\n      swap1\n      0x00\n      mstore\n      keccak256(0x00, 0x20)\n      swap1\n    tag_165:\n      dup2\n      sload\n      dup2\n      mstore\n      swap1\n      0x01\n      add\n      swap1\n      0x20\n      add\n      dup1\n      dup4\n      gt\n      tag_165\n      jumpi\n      dup3\n      swap1\n      sub\n      0x1f\n      and\n      dup3\n      add\n      swap2\n    tag_163:\n      pop\n      pop\n      pop\n      pop\n      pop\n      dup2\n      mstore\n      pop\n      pop\n      swap1\n      pop\n        /* \"S7/mp.sol\":5043:5055  paymentToken */\n      0x03\n      0x00\n      swap1\n      sload\n      swap1\n      0x0100\n      exp\n      swap1\n      div\n      0xffffffffffffffffffffffffffffffffffffffff\n      and\n        /* \"S7/mp.sol\":5043:5068  paymentToken.transferFrom */\n      0xffffffffffffffffffffffffffffffffffffffff\n      and\n      0x23b872dd\n        /* \"S7/mp.sol\":5069:5079  msg.sender */\n      caller\n        /* \"S7/mp.sol\":5081:5091  listedItem */\n      dup4\n        /* \"S7/mp.sol\":5081:5098  listedItem.seller */\n      0x20\n      add\n      mload\n        /* \"S7/mp.sol\":5100:5110  listedItem */\n      dup5\n        /* \"S7/mp.sol\":5100:5116  listedItem.price */\n      0x00\n      add\n      mload\n        /* \"S7/mp.sol\":5043:5117  paymentToken.transferFrom(msg.sender, listedItem.seller, listedItem.price) */\n      mload(0x40)\n      dup5\n      0xffffffff\n      and\n      0xe0\n      shl\n      dup2\n      mstore\n      0x04\n      add\n      tag_166\n      swap4\n      swap3\n      swap2\n      swap1\n      tag_70\n      jump\t// in\n    tag_166:\n      0x20\n      mload(0x40)\n      dup1\n      dup4\n      sub\n      dup2\n      0x00\n      dup8\n      gas\n      call\n      iszero\n      dup1\n      iszero\n      tag_168\n      jumpi\n      returndatasize\n      0x00\n      dup1\n      returndatacopy\n      revert(0x00, returndatasize)\n    tag_168:\n      pop\n      pop\n      pop\n      pop\n      mload(0x40)\n      returndatasize\n      not(0x1f)\n      0x1f\n      dup3\n      add\n      and\n      dup3\n      add\n      dup1\n      0x40\n      mstore\n      pop\n      dup2\n      add\n      swap1\n      tag_169\n      swap2\n      swap1\n      tag_74\n      jump\t// in\n    tag_169:\n        /* \"S7/mp.sol\":5035:5145  require(paymentToken.transferFrom(msg.sender, listedItem.seller, listedItem.price), \"Payment transfer failed\") */\n      tag_170\n      jumpi\n      mload(0x40)\n      0x08c379a000000000000000000000000000000000000000000000000000000000\n      dup2\n      mstore\n      0x04\n      add\n      tag_171\n      swap1\n      tag_77\n      jump\t// in\n    tag_171:\n      mload(0x40)\n      dup1\n      swap2\n      sub\n      swap1\n      revert\n    tag_170:\n        /* \"S7/mp.sol\":5163:5171  listings */\n      0x01\n        /* \"S7/mp.sol\":5163:5184  listings[nftContract] */\n      0x00\n        /* \"S7/mp.sol\":5172:5183  nftContract */\n      dup7\n        /* \"S7/mp.sol\":5163:5184  listings[nftContract] */\n      0xffffffffffffffffffffffffffffffffffffffff\n      and\n      0xffffffffffffffffffffffffffffffffffffffff\n      and\n      dup2\n      mstore\n      0x20\n      add\n      swap1\n      dup2\n      mstore\n      0x20\n      add\n      0x00\n      keccak256\n        /* \"S7/mp.sol\":5163:5193  listings[nftContract][tokenId] */\n      0x00\n        /* \"S7/mp.sol\":5185:5192  tokenId */\n      dup6\n        /* \"S7/mp.sol\":5163:5193  listings[nftContract][tokenId] */\n      dup2\n      mstore\n      0x20\n      add\n      swap1\n      dup2\n      mstore\n      0x20\n      add\n      0x00\n      keccak256\n      0x00\n        /* \"S7/mp.sol\":5156:5193  delete listings[nftContract][tokenId] */\n      dup1\n      dup3\n      add\n      0x00\n      swap1\n      sstore\n      0x01\n      dup3\n      add\n      exp(0x0100, 0x00)\n      dup2\n      sload\n      swap1\n      0xffffffffffffffffffffffffffffffffffffffff\n      mul\n      not\n      and\n      swap1\n      sstore\n      0x02\n      dup3\n      add\n      0x00\n      tag_172\n      swap2\n      swap1\n      tag_101\n      jump\t// in\n    tag_172:\n      pop\n      pop\n        /* \"S7/mp.sol\":5248:5257  uint256 i */\n      0x00\n        /* \"S7/mp.sol\":5243:5472  for (uint256 i = 0; i < listedNFTs.length; i++) {... */\n    tag_173:\n        /* \"S7/mp.sol\":5267:5277  listedNFTs */\n      0x04\n        /* \"S7/mp.sol\":5267:5284  listedNFTs.length */\n      dup1\n      sload\n      swap1\n      pop\n        /* \"S7/mp.sol\":5263:5264  i */\n      dup2\n        /* \"S7/mp.sol\":5263:5284  i < listedNFTs.length */\n      lt\n        /* \"S7/mp.sol\":5243:5472  for (uint256 i = 0; i < listedNFTs.length; i++) {... */\n      iszero\n      tag_174\n      jumpi\n        /* \"S7/mp.sol\":5338:5349  nftContract */\n      dup6\n        /* \"S7/mp.sol\":5309:5349  listedNFTs[i].nftContract == nftContract */\n      0xffffffffffffffffffffffffffffffffffffffff\n      and\n        /* \"S7/mp.sol\":5309:5319  listedNFTs */\n      0x04\n        /* \"S7/mp.sol\":5320:5321  i */\n      dup3\n        /* \"S7/mp.sol\":5309:5322  listedNFTs[i] */\n      dup2\n      sload\n      dup2\n      lt\n      tag_176\n      jumpi\n      tag_177\n      tag_87\n      jump\t// in\n    tag_177:\n    tag_176:\n      swap1\n      0x00\n      mstore\n      keccak256(0x00, 0x20)\n      swap1\n      0x02\n      mul\n      add\n        /* \"S7/mp.sol\":5309:5334  listedNFTs[i].nftContract */\n      0x00\n      add\n      0x00\n      swap1\n      sload\n      swap1\n      0x0100\n      exp\n      swap1\n      div\n      0xffffffffffffffffffffffffffffffffffffffff\n      and\n        /* \"S7/mp.sol\":5309:5349  listedNFTs[i].nftContract == nftContract */\n      0xffffffffffffffffffffffffffffffffffffffff\n      and\n      eq\n        /* \"S7/mp.sol\":5309:5385  listedNFTs[i].nftContract == nftContract && listedNFTs[i].tokenId == tokenId */\n      dup1\n      iszero\n      tag_179\n      jumpi\n      pop\n        /* \"S7/mp.sol\":5378:5385  tokenId */\n      dup5\n        /* \"S7/mp.sol\":5353:5363  listedNFTs */\n      0x04\n        /* \"S7/mp.sol\":5364:5365  i */\n      dup3\n        /* \"S7/mp.sol\":5353:5366  listedNFTs[i] */\n      dup2\n      sload\n      dup2\n      lt\n      tag_180\n      jumpi\n      tag_181\n      tag_87\n      jump\t// in\n    tag_181:\n    tag_180:\n      swap1\n      0x00\n      mstore\n      keccak256(0x00, 0x20)\n      swap1\n      0x02\n      mul\n      add\n        /* \"S7/mp.sol\":5353:5374  listedNFTs[i].tokenId */\n      0x01\n      add\n      sload\n        /* \"S7/mp.sol\":5353:5385  listedNFTs[i].tokenId == tokenId */\n      eq\n        /* \"S7/mp.sol\":5309:5385  listedNFTs[i].nftContract == nftContract && listedNFTs[i].tokenId == tokenId */\n    tag_179:\n        /* \"S7/mp.sol\":5305:5462  if (listedNFTs[i].nftContract == nftContract && listedNFTs[i].tokenId == tokenId) {... */\n      iszero\n      tag_183\n      jumpi\n        /* \"S7/mp.sol\":5405:5424  _removeListedNFT(i) */\n      tag_184\n        /* \"S7/mp.sol\":5422:5423  i */\n      dup2\n        /* \"S7/mp.sol\":5405:5421  _removeListedNFT */\n      tag_114\n        /* \"S7/mp.sol\":5405:5424  _removeListedNFT(i) */\n      jump\t// in\n    tag_184:\n        /* \"S7/mp.sol\":5442:5447  break */\n      jump(tag_174)\n        /* \"S7/mp.sol\":5305:5462  if (listedNFTs[i].nftContract == nftContract && listedNFTs[i].tokenId == tokenId) {... */\n    tag_183:\n        /* \"S7/mp.sol\":5286:5289  i++ */\n      dup1\n      dup1\n      0x01\n      add\n      swap2\n      pop\n      pop\n        /* \"S7/mp.sol\":5243:5472  for (uint256 i = 0; i < listedNFTs.length; i++) {... */\n      jump(tag_173)\n    tag_174:\n      pop\n        /* \"S7/mp.sol\":5490:5501  nftContract */\n      dup5\n        /* \"S7/mp.sol\":5482:5519  IERC721(nftContract).safeTransferFrom */\n      0xffffffffffffffffffffffffffffffffffffffff\n      and\n      0x42842e0e\n        /* \"S7/mp.sol\":5520:5530  listedItem */\n      dup3\n        /* \"S7/mp.sol\":5520:5537  listedItem.seller */\n      0x20\n      add\n      mload\n        /* \"S7/mp.sol\":5539:5549  msg.sender */\n      caller\n        /* \"S7/mp.sol\":5551:5558  tokenId */\n      dup8\n        /* \"S7/mp.sol\":5482:5559  IERC721(nftContract).safeTransferFrom(listedItem.seller, msg.sender, tokenId) */\n      mload(0x40)\n      dup5\n      0xffffffff\n      and\n      0xe0\n      shl\n      dup2\n      mstore\n      0x04\n      add\n      tag_185\n      swap4\n      swap3\n      swap2\n      swap1\n      tag_70\n      jump\t// in\n    tag_185:\n      0x00\n      mload(0x40)\n      dup1\n      dup4\n      sub\n      dup2\n      0x00\n      dup8\n      dup1\n      extcodesize\n      iszero\n      dup1\n      iszero\n      tag_186\n      jumpi\n      0x00\n      dup1\n      revert\n    tag_186:\n      pop\n      gas\n      call\n      iszero\n      dup1\n      iszero\n      tag_188\n      jumpi\n      returndatasize\n      0x00\n      dup1\n      returndatacopy\n      revert(0x00, returndatasize)\n    tag_188:\n      pop\n      pop\n      pop\n      pop\n        /* \"S7/mp.sol\":5622:5632  msg.sender */\n      caller\n        /* \"S7/mp.sol\":5574:5633  NFTSold(nftContract, tokenId, listedItem.price, msg.sender) */\n      0xffffffffffffffffffffffffffffffffffffffff\n      and\n        /* \"S7/mp.sol\":5595:5602  tokenId */\n      dup5\n        /* \"S7/mp.sol\":5582:5593  nftContract */\n      dup7\n        /* \"S7/mp.sol\":5574:5633  NFTSold(nftContract, tokenId, listedItem.price, msg.sender) */\n      0xffffffffffffffffffffffffffffffffffffffff\n      and\n      0x77c3ced349b08a2af4e9d443fb697437c3197b3095d43fcbdc2cdc97b1a60e0c\n        /* \"S7/mp.sol\":5604:5614  listedItem */\n      dup5\n        /* \"S7/mp.sol\":5604:5620  listedItem.price */\n      0x00\n      add\n      mload\n        /* \"S7/mp.sol\":5574:5633  NFTSold(nftContract, tokenId, listedItem.price, msg.sender) */\n      mload(0x40)\n      tag_189\n      swap2\n      swap1\n      tag_81\n      jump\t// in\n    tag_189:\n      mload(0x40)\n      dup1\n      swap2\n      sub\n      swap1\n      log4\n        /* \"S7/mp.sol\":4957:5640  {... */\n      pop\n        /* \"@openzeppelin/contracts/security/ReentrancyGuard.sol\":2292:2293  _ */\n      pop\n      pop\n        /* \"@openzeppelin/contracts/security/ReentrancyGuard.sol\":2303:2323  _nonReentrantAfter() */\n      tag_190\n        /* \"@openzeppelin/contracts/security/ReentrancyGuard.sol\":2303:2321  _nonReentrantAfter */\n      tag_191\n        /* \"@openzeppelin/contracts/security/ReentrancyGuard.sol\":2303:2323  _nonReentrantAfter() */\n      jump\t// in\n    tag_190:\n        /* \"S7/mp.sol\":4819:5640  function buyNFT(address nftContract, uint256 tokenId) ... */\n      pop\n      pop\n      jump\t// out\n        /* \"S7/mp.sol\":532:571  mapping(string => Bid) public groupBids */\n    tag_48:\n      0x02\n      dup2\n      dup1\n      mload\n      0x20\n      dup2\n      add\n      dup3\n      add\n      dup1\n      mload\n      dup5\n      dup3\n      mstore\n      0x20\n      dup4\n      add\n      0x20\n      dup6\n      add\n      keccak256\n      dup2\n      dup4\n      mstore\n      dup1\n      swap6\n      pop\n      pop\n      pop\n      pop\n      pop\n      pop\n      0x00\n      swap2\n      pop\n      swap1\n      pop\n      dup1\n      0x00\n      add\n      sload\n      swap1\n      dup1\n      0x01\n      add\n      0x00\n      swap1\n      sload\n      swap1\n      0x0100\n      exp\n      swap1\n      div\n      0xffffffffffffffffffffffffffffffffffffffff\n      and\n      swap1\n      pop\n      dup3\n      jump\t// out\n        /* \"S7/mp.sol\":4238:4813  function cancelListing(address nftContract, uint256 tokenId) ... */\n    tag_53:\n        /* \"S7/mp.sol\":4334:4345  nftContract */\n      dup2\n        /* \"S7/mp.sol\":4347:4354  tokenId */\n      dup2\n        /* \"S7/mp.sol\":4356:4366  msg.sender */\n      caller\n        /* \"S7/mp.sol\":1506:1517  IERC721 nft */\n      0x00\n        /* \"S7/mp.sol\":1528:1539  nftContract */\n      dup4\n        /* \"S7/mp.sol\":1506:1540  IERC721 nft = IERC721(nftContract) */\n      swap1\n      pop\n        /* \"S7/mp.sol\":1582:1589  spender */\n      dup2\n        /* \"S7/mp.sol\":1558:1589  nft.ownerOf(tokenId) == spender */\n      0xffffffffffffffffffffffffffffffffffffffff\n      and\n        /* \"S7/mp.sol\":1558:1561  nft */\n      dup2\n        /* \"S7/mp.sol\":1558:1569  nft.ownerOf */\n      0xffffffffffffffffffffffffffffffffffffffff\n      and\n      0x6352211e\n        /* \"S7/mp.sol\":1570:1577  tokenId */\n      dup6\n        /* \"S7/mp.sol\":1558:1578  nft.ownerOf(tokenId) */\n      mload(0x40)\n      dup3\n      0xffffffff\n      and\n      0xe0\n      shl\n      dup2\n      mstore\n      0x04\n      add\n      tag_193\n      swap2\n      swap1\n      tag_81\n      jump\t// in\n    tag_193:\n      0x20\n      mload(0x40)\n      dup1\n      dup4\n      sub\n      dup2\n      dup7\n      gas\n      staticcall\n      iszero\n      dup1\n      iszero\n      tag_195\n      jumpi\n      returndatasize\n      0x00\n      dup1\n      returndatacopy\n      revert(0x00, returndatasize)\n    tag_195:\n      pop\n      pop\n      pop\n      pop\n      mload(0x40)\n      returndatasize\n      not(0x1f)\n      0x1f\n      dup3\n      add\n      and\n      dup3\n      add\n      dup1\n      0x40\n      mstore\n      pop\n      dup2\n      add\n      swap1\n      tag_196\n      swap2\n      swap1\n      tag_130\n      jump\t// in\n    tag_196:\n        /* \"S7/mp.sol\":1558:1589  nft.ownerOf(tokenId) == spender */\n      0xffffffffffffffffffffffffffffffffffffffff\n      and\n      eq\n        /* \"S7/mp.sol\":1550:1618  require(nft.ownerOf(tokenId) == spender, \"Not the owner of the NFT\") */\n      tag_197\n      jumpi\n      mload(0x40)\n      0x08c379a000000000000000000000000000000000000000000000000000000000\n      dup2\n      mstore\n      0x04\n      add\n      tag_198\n      swap1\n      tag_133\n      jump\t// in\n    tag_198:\n      mload(0x40)\n      dup1\n      swap2\n      sub\n      swap1\n      revert\n    tag_197:\n        /* \"S7/mp.sol\":4386:4397  nftContract */\n      dup6\n        /* \"S7/mp.sol\":4399:4406  tokenId */\n      dup6\n        /* \"S7/mp.sol\":1921:1922  0 */\n      0x00\n        /* \"S7/mp.sol\":1882:1890  listings */\n      0x01\n        /* \"S7/mp.sol\":1882:1903  listings[nftContract] */\n      0x00\n        /* \"S7/mp.sol\":1891:1902  nftContract */\n      dup5\n        /* \"S7/mp.sol\":1882:1903  listings[nftContract] */\n      0xffffffffffffffffffffffffffffffffffffffff\n      and\n      0xffffffffffffffffffffffffffffffffffffffff\n      and\n      dup2\n      mstore\n      0x20\n      add\n      swap1\n      dup2\n      mstore\n      0x20\n      add\n      0x00\n      keccak256\n        /* \"S7/mp.sol\":1882:1912  listings[nftContract][tokenId] */\n      0x00\n        /* \"S7/mp.sol\":1904:1911  tokenId */\n      dup4\n        /* \"S7/mp.sol\":1882:1912  listings[nftContract][tokenId] */\n      dup2\n      mstore\n      0x20\n      add\n      swap1\n      dup2\n      mstore\n      0x20\n      add\n      0x00\n      keccak256\n        /* \"S7/mp.sol\":1882:1918  listings[nftContract][tokenId].price */\n      0x00\n      add\n      sload\n        /* \"S7/mp.sol\":1882:1922  listings[nftContract][tokenId].price > 0 */\n      gt\n        /* \"S7/mp.sol\":1874:1944  require(listings[nftContract][tokenId].price > 0, \"NFT is not listed\") */\n      tag_200\n      jumpi\n      mload(0x40)\n      0x08c379a000000000000000000000000000000000000000000000000000000000\n      dup2\n      mstore\n      0x04\n      add\n      tag_201\n      swap1\n      tag_159\n      jump\t// in\n    tag_201:\n      mload(0x40)\n      dup1\n      swap2\n      sub\n      swap1\n      revert\n    tag_200:\n        /* \"S7/mp.sol\":4429:4437  listings */\n      0x01\n        /* \"S7/mp.sol\":4429:4450  listings[nftContract] */\n      0x00\n        /* \"S7/mp.sol\":4438:4449  nftContract */\n      dup10\n        /* \"S7/mp.sol\":4429:4450  listings[nftContract] */\n      0xffffffffffffffffffffffffffffffffffffffff\n      and\n      0xffffffffffffffffffffffffffffffffffffffff\n      and\n      dup2\n      mstore\n      0x20\n      add\n      swap1\n      dup2\n      mstore\n      0x20\n      add\n      0x00\n      keccak256\n        /* \"S7/mp.sol\":4429:4459  listings[nftContract][tokenId] */\n      0x00\n        /* \"S7/mp.sol\":4451:4458  tokenId */\n      dup9\n        /* \"S7/mp.sol\":4429:4459  listings[nftContract][tokenId] */\n      dup2\n      mstore\n      0x20\n      add\n      swap1\n      dup2\n      mstore\n      0x20\n      add\n      0x00\n      keccak256\n      0x00\n        /* \"S7/mp.sol\":4422:4459  delete listings[nftContract][tokenId] */\n      dup1\n      dup3\n      add\n      0x00\n      swap1\n      sstore\n      0x01\n      dup3\n      add\n      exp(0x0100, 0x00)\n      dup2\n      sload\n      swap1\n      0xffffffffffffffffffffffffffffffffffffffff\n      mul\n      not\n      and\n      swap1\n      sstore\n      0x02\n      dup3\n      add\n      0x00\n      tag_203\n      swap2\n      swap1\n      tag_101\n      jump\t// in\n    tag_203:\n      pop\n      pop\n        /* \"S7/mp.sol\":4514:4523  uint256 i */\n      0x00\n        /* \"S7/mp.sol\":4509:4738  for (uint256 i = 0; i < listedNFTs.length; i++) {... */\n    tag_204:\n        /* \"S7/mp.sol\":4533:4543  listedNFTs */\n      0x04\n        /* \"S7/mp.sol\":4533:4550  listedNFTs.length */\n      dup1\n      sload\n      swap1\n      pop\n        /* \"S7/mp.sol\":4529:4530  i */\n      dup2\n        /* \"S7/mp.sol\":4529:4550  i < listedNFTs.length */\n      lt\n        /* \"S7/mp.sol\":4509:4738  for (uint256 i = 0; i < listedNFTs.length; i++) {... */\n      iszero\n      tag_205\n      jumpi\n        /* \"S7/mp.sol\":4604:4615  nftContract */\n      dup9\n        /* \"S7/mp.sol\":4575:4615  listedNFTs[i].nftContract == nftContract */\n      0xffffffffffffffffffffffffffffffffffffffff\n      and\n        /* \"S7/mp.sol\":4575:4585  listedNFTs */\n      0x04\n        /* \"S7/mp.sol\":4586:4587  i */\n      dup3\n        /* \"S7/mp.sol\":4575:4588  listedNFTs[i] */\n      dup2\n      sload\n      dup2\n      lt\n      tag_207\n      jumpi\n      tag_208\n      tag_87\n      jump\t// in\n    tag_208:\n    tag_207:\n      swap1\n      0x00\n      mstore\n      keccak256(0x00, 0x20)\n      swap1\n      0x02\n      mul\n      add\n        /* \"S7/mp.sol\":4575:4600  listedNFTs[i].nftContract */\n      0x00\n      add\n      0x00\n      swap1\n      sload\n      swap1\n      0x0100\n      exp\n      swap1\n      div\n      0xffffffffffffffffffffffffffffffffffffffff\n      and\n        /* \"S7/mp.sol\":4575:4615  listedNFTs[i].nftContract == nftContract */\n      0xffffffffffffffffffffffffffffffffffffffff\n      and\n      eq\n        /* \"S7/mp.sol\":4575:4651  listedNFTs[i].nftContract == nftContract && listedNFTs[i].tokenId == tokenId */\n      dup1\n      iszero\n      tag_210\n      jumpi\n      pop\n        /* \"S7/mp.sol\":4644:4651  tokenId */\n      dup8\n        /* \"S7/mp.sol\":4619:4629  listedNFTs */\n      0x04\n        /* \"S7/mp.sol\":4630:4631  i */\n      dup3\n        /* \"S7/mp.sol\":4619:4632  listedNFTs[i] */\n      dup2\n      sload\n      dup2\n      lt\n      tag_211\n      jumpi\n      tag_212\n      tag_87\n      jump\t// in\n    tag_212:\n    tag_211:\n      swap1\n      0x00\n      mstore\n      keccak256(0x00, 0x20)\n      swap1\n      0x02\n      mul\n      add\n        /* \"S7/mp.sol\":4619:4640  listedNFTs[i].tokenId */\n      0x01\n      add\n      sload\n        /* \"S7/mp.sol\":4619:4651  listedNFTs[i].tokenId == tokenId */\n      eq\n        /* \"S7/mp.sol\":4575:4651  listedNFTs[i].nftContract == nftContract && listedNFTs[i].tokenId == tokenId */\n    tag_210:\n        /* \"S7/mp.sol\":4571:4728  if (listedNFTs[i].nftContract == nftContract && listedNFTs[i].tokenId == tokenId) {... */\n      iszero\n      tag_214\n      jumpi\n        /* \"S7/mp.sol\":4671:4690  _removeListedNFT(i) */\n      tag_215\n        /* \"S7/mp.sol\":4688:4689  i */\n      dup2\n        /* \"S7/mp.sol\":4671:4687  _removeListedNFT */\n      tag_114\n        /* \"S7/mp.sol\":4671:4690  _removeListedNFT(i) */\n      jump\t// in\n    tag_215:\n        /* \"S7/mp.sol\":4708:4713  break */\n      jump(tag_205)\n        /* \"S7/mp.sol\":4571:4728  if (listedNFTs[i].nftContract == nftContract && listedNFTs[i].tokenId == tokenId) {... */\n    tag_214:\n        /* \"S7/mp.sol\":4552:4555  i++ */\n      dup1\n      dup1\n      0x01\n      add\n      swap2\n      pop\n      pop\n        /* \"S7/mp.sol\":4509:4738  for (uint256 i = 0; i < listedNFTs.length; i++) {... */\n      jump(tag_204)\n    tag_205:\n      pop\n        /* \"S7/mp.sol\":4795:4805  msg.sender */\n      caller\n        /* \"S7/mp.sol\":4753:4806  NFTListingCancelled(nftContract, tokenId, msg.sender) */\n      0xffffffffffffffffffffffffffffffffffffffff\n      and\n        /* \"S7/mp.sol\":4786:4793  tokenId */\n      dup8\n        /* \"S7/mp.sol\":4773:4784  nftContract */\n      dup10\n        /* \"S7/mp.sol\":4753:4806  NFTListingCancelled(nftContract, tokenId, msg.sender) */\n      0xffffffffffffffffffffffffffffffffffffffff\n      and\n      0x83614a26fd4398c876bd6684c0d04cf2e84ee7e4bc24e8d8888ab0e724bac032\n      mload(0x40)\n      mload(0x40)\n      dup1\n      swap2\n      sub\n      swap1\n      log4\n        /* \"S7/mp.sol\":1628:1629  _ */\n      pop\n      pop\n        /* \"S7/mp.sol\":1496:1636  {... */\n      pop\n        /* \"S7/mp.sol\":4238:4813  function cancelListing(address nftContract, uint256 tokenId) ... */\n      pop\n      pop\n      pop\n      pop\n      pop\n      jump\t// out\n        /* \"S7/mp.sol\":4018:4232  function _removeListedNFT(uint256 index) internal {... */\n    tag_114:\n        /* \"S7/mp.sol\":4094:4104  listedNFTs */\n      0x04\n        /* \"S7/mp.sol\":4094:4111  listedNFTs.length */\n      dup1\n      sload\n      swap1\n      pop\n        /* \"S7/mp.sol\":4086:4091  index */\n      dup2\n        /* \"S7/mp.sol\":4086:4111  index < listedNFTs.length */\n      lt\n        /* \"S7/mp.sol\":4078:4135  require(index < listedNFTs.length, \"Index out of bounds\") */\n      tag_217\n      jumpi\n      mload(0x40)\n      0x08c379a000000000000000000000000000000000000000000000000000000000\n      dup2\n      mstore\n      0x04\n      add\n      tag_218\n      swap1\n      tag_219\n      jump\t// in\n    tag_218:\n      mload(0x40)\n      dup1\n      swap2\n      sub\n      swap1\n      revert\n    tag_217:\n        /* \"S7/mp.sol\":4166:4176  listedNFTs */\n      0x04\n        /* \"S7/mp.sol\":4197:4198  1 */\n      0x01\n        /* \"S7/mp.sol\":4177:4187  listedNFTs */\n      0x04\n        /* \"S7/mp.sol\":4177:4194  listedNFTs.length */\n      dup1\n      sload\n      swap1\n      pop\n        /* \"S7/mp.sol\":4177:4198  listedNFTs.length - 1 */\n      tag_220\n      swap2\n      swap1\n      tag_221\n      jump\t// in\n    tag_220:\n        /* \"S7/mp.sol\":4166:4199  listedNFTs[listedNFTs.length - 1] */\n      dup2\n      sload\n      dup2\n      lt\n      tag_222\n      jumpi\n      tag_223\n      tag_87\n      jump\t// in\n    tag_223:\n    tag_222:\n      swap1\n      0x00\n      mstore\n      keccak256(0x00, 0x20)\n      swap1\n      0x02\n      mul\n      add\n        /* \"S7/mp.sol\":4146:4156  listedNFTs */\n      0x04\n        /* \"S7/mp.sol\":4157:4162  index */\n      dup3\n        /* \"S7/mp.sol\":4146:4163  listedNFTs[index] */\n      dup2\n      sload\n      dup2\n      lt\n      tag_225\n      jumpi\n      tag_226\n      tag_87\n      jump\t// in\n    tag_226:\n    tag_225:\n      swap1\n      0x00\n      mstore\n      keccak256(0x00, 0x20)\n      swap1\n      0x02\n      mul\n      add\n        /* \"S7/mp.sol\":4146:4199  listedNFTs[index] = listedNFTs[listedNFTs.length - 1] */\n      0x00\n      dup3\n      add\n      0x00\n      swap1\n      sload\n      swap1\n      0x0100\n      exp\n      swap1\n      div\n      0xffffffffffffffffffffffffffffffffffffffff\n      and\n      dup2\n      0x00\n      add\n      exp(0x0100, 0x00)\n      dup2\n      sload\n      dup2\n      0xffffffffffffffffffffffffffffffffffffffff\n      mul\n      not\n      and\n      swap1\n      dup4\n      0xffffffffffffffffffffffffffffffffffffffff\n      and\n      mul\n      or\n      swap1\n      sstore\n      pop\n      0x01\n      dup3\n      add\n      sload\n      dup2\n      0x01\n      add\n      sstore\n      swap1\n      pop\n      pop\n        /* \"S7/mp.sol\":4209:4219  listedNFTs */\n      0x04\n        /* \"S7/mp.sol\":4209:4225  listedNFTs.pop() */\n      dup1\n      sload\n      dup1\n      tag_228\n      jumpi\n      tag_229\n      tag_230\n      jump\t// in\n    tag_229:\n    tag_228:\n      0x01\n      swap1\n      sub\n      dup2\n      dup2\n      swap1\n      0x00\n      mstore\n      keccak256(0x00, 0x20)\n      swap1\n      0x02\n      mul\n      add\n      0x00\n      dup1\n      dup3\n      add\n      exp(0x0100, 0x00)\n      dup2\n      sload\n      swap1\n      0xffffffffffffffffffffffffffffffffffffffff\n      mul\n      not\n      and\n      swap1\n      sstore\n      0x01\n      dup3\n      add\n      0x00\n      swap1\n      sstore\n      pop\n      pop\n      swap1\n      sstore\n        /* \"S7/mp.sol\":4018:4232  function _removeListedNFT(uint256 index) internal {... */\n      pop\n      jump\t// out\n        /* \"@openzeppelin/contracts/security/ReentrancyGuard.sol\":2336:2623  function _nonReentrantBefore() private {... */\n    tag_155:\n        /* \"@openzeppelin/contracts/security/ReentrancyGuard.sol\":1759:1760  2 */\n      0x02\n        /* \"@openzeppelin/contracts/security/ReentrancyGuard.sol\":2468:2475  _status */\n      sload(0x00)\n        /* \"@openzeppelin/contracts/security/ReentrancyGuard.sol\":2468:2487  _status != _ENTERED */\n      sub\n        /* \"@openzeppelin/contracts/security/ReentrancyGuard.sol\":2460:2523  require(_status != _ENTERED, \"ReentrancyGuard: reentrant call\") */\n      tag_233\n      jumpi\n      mload(0x40)\n      0x08c379a000000000000000000000000000000000000000000000000000000000\n      dup2\n      mstore\n      0x04\n      add\n      tag_234\n      swap1\n      tag_235\n      jump\t// in\n    tag_234:\n      mload(0x40)\n      dup1\n      swap2\n      sub\n      swap1\n      revert\n    tag_233:\n        /* \"@openzeppelin/contracts/security/ReentrancyGuard.sol\":1759:1760  2 */\n      0x02\n        /* \"@openzeppelin/contracts/security/ReentrancyGuard.sol\":2598:2605  _status */\n      0x00\n        /* \"@openzeppelin/contracts/security/ReentrancyGuard.sol\":2598:2616  _status = _ENTERED */\n      dup2\n      swap1\n      sstore\n      pop\n        /* \"@openzeppelin/contracts/security/ReentrancyGuard.sol\":2336:2623  function _nonReentrantBefore() private {... */\n      jump\t// out\n        /* \"@openzeppelin/contracts/security/ReentrancyGuard.sol\":2629:2838  function _nonReentrantAfter() private {... */\n    tag_191:\n        /* \"@openzeppelin/contracts/security/ReentrancyGuard.sol\":1716:1717  1 */\n      0x01\n        /* \"@openzeppelin/contracts/security/ReentrancyGuard.sol\":2809:2816  _status */\n      0x00\n        /* \"@openzeppelin/contracts/security/ReentrancyGuard.sol\":2809:2831  _status = _NOT_ENTERED */\n      dup2\n      swap1\n      sstore\n      pop\n        /* \"@openzeppelin/contracts/security/ReentrancyGuard.sol\":2629:2838  function _nonReentrantAfter() private {... */\n      jump\t// out\n    tag_101:\n      pop\n      dup1\n      sload\n      tag_237\n      swap1\n      tag_55\n      jump\t// in\n    tag_237:\n      0x00\n      dup3\n      sstore\n      dup1\n      0x1f\n      lt\n      tag_239\n      jumpi\n      pop\n      jump(tag_238)\n    tag_239:\n      0x1f\n      add\n      0x20\n      swap1\n      div\n      swap1\n      0x00\n      mstore\n      keccak256(0x00, 0x20)\n      swap1\n      dup2\n      add\n      swap1\n      tag_240\n      swap2\n      swap1\n      tag_241\n      jump\t// in\n    tag_240:\n    tag_238:\n      pop\n      jump\t// out\n    tag_116:\n      mload(0x40)\n      dup1\n      0x60\n      add\n      0x40\n      mstore\n      dup1\n      0x00\n      dup2\n      mstore\n      0x20\n      add\n      and(0xffffffffffffffffffffffffffffffffffffffff, 0x00)\n      dup2\n      mstore\n      0x20\n      add\n      0x60\n      dup2\n      mstore\n      pop\n      swap1\n      jump\t// out\n    tag_241:\n    tag_242:\n      dup1\n      dup3\n      gt\n      iszero\n      tag_243\n      jumpi\n      0x00\n      dup2\n      0x00\n      swap1\n      sstore\n      pop\n      0x01\n      add\n      jump(tag_242)\n    tag_243:\n      pop\n      swap1\n      jump\t// out\n        /* \"#utility.yul\":7:82   */\n    tag_244:\n        /* \"#utility.yul\":40:46   */\n      0x00\n        /* \"#utility.yul\":73:75   */\n      0x40\n        /* \"#utility.yul\":67:76   */\n      mload\n        /* \"#utility.yul\":57:76   */\n      swap1\n      pop\n        /* \"#utility.yul\":7:82   */\n      swap1\n      jump\t// out\n        /* \"#utility.yul\":88:205   */\n    tag_245:\n        /* \"#utility.yul\":197:198   */\n      0x00\n        /* \"#utility.yul\":194:195   */\n      dup1\n        /* \"#utility.yul\":187:199   */\n      revert\n        /* \"#utility.yul\":211:328   */\n    tag_246:\n        /* \"#utility.yul\":320:321   */\n      0x00\n        /* \"#utility.yul\":317:318   */\n      dup1\n        /* \"#utility.yul\":310:322   */\n      revert\n        /* \"#utility.yul\":334:460   */\n    tag_247:\n        /* \"#utility.yul\":371:378   */\n      0x00\n        /* \"#utility.yul\":411:453   */\n      0xffffffffffffffffffffffffffffffffffffffff\n        /* \"#utility.yul\":404:409   */\n      dup3\n        /* \"#utility.yul\":400:454   */\n      and\n        /* \"#utility.yul\":389:454   */\n      swap1\n      pop\n        /* \"#utility.yul\":334:460   */\n      swap2\n      swap1\n      pop\n      jump\t// out\n        /* \"#utility.yul\":466:562   */\n    tag_248:\n        /* \"#utility.yul\":503:510   */\n      0x00\n        /* \"#utility.yul\":532:556   */\n      tag_326\n        /* \"#utility.yul\":550:555   */\n      dup3\n        /* \"#utility.yul\":532:556   */\n      tag_247\n      jump\t// in\n    tag_326:\n        /* \"#utility.yul\":521:556   */\n      swap1\n      pop\n        /* \"#utility.yul\":466:562   */\n      swap2\n      swap1\n      pop\n      jump\t// out\n        /* \"#utility.yul\":568:690   */\n    tag_249:\n        /* \"#utility.yul\":641:665   */\n      tag_328\n        /* \"#utility.yul\":659:664   */\n      dup2\n        /* \"#utility.yul\":641:665   */\n      tag_248\n      jump\t// in\n    tag_328:\n        /* \"#utility.yul\":634:639   */\n      dup2\n        /* \"#utility.yul\":631:666   */\n      eq\n        /* \"#utility.yul\":621:684   */\n      tag_329\n      jumpi\n        /* \"#utility.yul\":680:681   */\n      0x00\n        /* \"#utility.yul\":677:678   */\n      dup1\n        /* \"#utility.yul\":670:682   */\n      revert\n        /* \"#utility.yul\":621:684   */\n    tag_329:\n        /* \"#utility.yul\":568:690   */\n      pop\n      jump\t// out\n        /* \"#utility.yul\":696:835   */\n    tag_250:\n        /* \"#utility.yul\":742:747   */\n      0x00\n        /* \"#utility.yul\":780:786   */\n      dup2\n        /* \"#utility.yul\":767:787   */\n      calldataload\n        /* \"#utility.yul\":758:787   */\n      swap1\n      pop\n        /* \"#utility.yul\":796:829   */\n      tag_331\n        /* \"#utility.yul\":823:828   */\n      dup2\n        /* \"#utility.yul\":796:829   */\n      tag_249\n      jump\t// in\n    tag_331:\n        /* \"#utility.yul\":696:835   */\n      swap3\n      swap2\n      pop\n      pop\n      jump\t// out\n        /* \"#utility.yul\":841:918   */\n    tag_251:\n        /* \"#utility.yul\":878:885   */\n      0x00\n        /* \"#utility.yul\":907:912   */\n      dup2\n        /* \"#utility.yul\":896:912   */\n      swap1\n      pop\n        /* \"#utility.yul\":841:918   */\n      swap2\n      swap1\n      pop\n      jump\t// out\n        /* \"#utility.yul\":924:1046   */\n    tag_252:\n        /* \"#utility.yul\":997:1021   */\n      tag_334\n        /* \"#utility.yul\":1015:1020   */\n      dup2\n        /* \"#utility.yul\":997:1021   */\n      tag_251\n      jump\t// in\n    tag_334:\n        /* \"#utility.yul\":990:995   */\n      dup2\n        /* \"#utility.yul\":987:1022   */\n      eq\n        /* \"#utility.yul\":977:1040   */\n      tag_335\n      jumpi\n        /* \"#utility.yul\":1036:1037   */\n      0x00\n        /* \"#utility.yul\":1033:1034   */\n      dup1\n        /* \"#utility.yul\":1026:1038   */\n      revert\n        /* \"#utility.yul\":977:1040   */\n    tag_335:\n        /* \"#utility.yul\":924:1046   */\n      pop\n      jump\t// out\n        /* \"#utility.yul\":1052:1191   */\n    tag_253:\n        /* \"#utility.yul\":1098:1103   */\n      0x00\n        /* \"#utility.yul\":1136:1142   */\n      dup2\n        /* \"#utility.yul\":1123:1143   */\n      calldataload\n        /* \"#utility.yul\":1114:1143   */\n      swap1\n      pop\n        /* \"#utility.yul\":1152:1185   */\n      tag_337\n        /* \"#utility.yul\":1179:1184   */\n      dup2\n        /* \"#utility.yul\":1152:1185   */\n      tag_252\n      jump\t// in\n    tag_337:\n        /* \"#utility.yul\":1052:1191   */\n      swap3\n      swap2\n      pop\n      pop\n      jump\t// out\n        /* \"#utility.yul\":1197:1671   */\n    tag_15:\n        /* \"#utility.yul\":1265:1271   */\n      0x00\n        /* \"#utility.yul\":1273:1279   */\n      dup1\n        /* \"#utility.yul\":1322:1324   */\n      0x40\n        /* \"#utility.yul\":1310:1319   */\n      dup4\n        /* \"#utility.yul\":1301:1308   */\n      dup6\n        /* \"#utility.yul\":1297:1320   */\n      sub\n        /* \"#utility.yul\":1293:1325   */\n      slt\n        /* \"#utility.yul\":1290:1409   */\n      iszero\n      tag_339\n      jumpi\n        /* \"#utility.yul\":1328:1407   */\n      tag_340\n      tag_245\n      jump\t// in\n    tag_340:\n        /* \"#utility.yul\":1290:1409   */\n    tag_339:\n        /* \"#utility.yul\":1448:1449   */\n      0x00\n        /* \"#utility.yul\":1473:1526   */\n      tag_341\n        /* \"#utility.yul\":1518:1525   */\n      dup6\n        /* \"#utility.yul\":1509:1515   */\n      dup3\n        /* \"#utility.yul\":1498:1507   */\n      dup7\n        /* \"#utility.yul\":1494:1516   */\n      add\n        /* \"#utility.yul\":1473:1526   */\n      tag_250\n      jump\t// in\n    tag_341:\n        /* \"#utility.yul\":1463:1526   */\n      swap3\n      pop\n        /* \"#utility.yul\":1419:1536   */\n      pop\n        /* \"#utility.yul\":1575:1577   */\n      0x20\n        /* \"#utility.yul\":1601:1654   */\n      tag_342\n        /* \"#utility.yul\":1646:1653   */\n      dup6\n        /* \"#utility.yul\":1637:1643   */\n      dup3\n        /* \"#utility.yul\":1626:1635   */\n      dup7\n        /* \"#utility.yul\":1622:1644   */\n      add\n        /* \"#utility.yul\":1601:1654   */\n      tag_253\n      jump\t// in\n    tag_342:\n        /* \"#utility.yul\":1591:1654   */\n      swap2\n      pop\n        /* \"#utility.yul\":1546:1664   */\n      pop\n        /* \"#utility.yul\":1197:1671   */\n      swap3\n      pop\n      swap3\n      swap1\n      pop\n      jump\t// out\n        /* \"#utility.yul\":1677:1795   */\n    tag_254:\n        /* \"#utility.yul\":1764:1788   */\n      tag_344\n        /* \"#utility.yul\":1782:1787   */\n      dup2\n        /* \"#utility.yul\":1764:1788   */\n      tag_251\n      jump\t// in\n    tag_344:\n        /* \"#utility.yul\":1759:1762   */\n      dup3\n        /* \"#utility.yul\":1752:1789   */\n      mstore\n        /* \"#utility.yul\":1677:1795   */\n      pop\n      pop\n      jump\t// out\n        /* \"#utility.yul\":1801:1919   */\n    tag_255:\n        /* \"#utility.yul\":1888:1912   */\n      tag_346\n        /* \"#utility.yul\":1906:1911   */\n      dup2\n        /* \"#utility.yul\":1888:1912   */\n      tag_248\n      jump\t// in\n    tag_346:\n        /* \"#utility.yul\":1883:1886   */\n      dup3\n        /* \"#utility.yul\":1876:1913   */\n      mstore\n        /* \"#utility.yul\":1801:1919   */\n      pop\n      pop\n      jump\t// out\n        /* \"#utility.yul\":1925:2024   */\n    tag_256:\n        /* \"#utility.yul\":1977:1983   */\n      0x00\n        /* \"#utility.yul\":2011:2016   */\n      dup2\n        /* \"#utility.yul\":2005:2017   */\n      mload\n        /* \"#utility.yul\":1995:2017   */\n      swap1\n      pop\n        /* \"#utility.yul\":1925:2024   */\n      swap2\n      swap1\n      pop\n      jump\t// out\n        /* \"#utility.yul\":2030:2199   */\n    tag_257:\n        /* \"#utility.yul\":2114:2125   */\n      0x00\n        /* \"#utility.yul\":2148:2154   */\n      dup3\n        /* \"#utility.yul\":2143:2146   */\n      dup3\n        /* \"#utility.yul\":2136:2155   */\n      mstore\n        /* \"#utility.yul\":2188:2192   */\n      0x20\n        /* \"#utility.yul\":2183:2186   */\n      dup3\n        /* \"#utility.yul\":2179:2193   */\n      add\n        /* \"#utility.yul\":2164:2193   */\n      swap1\n      pop\n        /* \"#utility.yul\":2030:2199   */\n      swap3\n      swap2\n      pop\n      pop\n      jump\t// out\n        /* \"#utility.yul\":2205:2344   */\n    tag_258:\n        /* \"#utility.yul\":2294:2300   */\n      dup3\n        /* \"#utility.yul\":2289:2292   */\n      dup2\n        /* \"#utility.yul\":2284:2287   */\n      dup4\n        /* \"#utility.yul\":2278:2301   */\n      mcopy\n        /* \"#utility.yul\":2335:2336   */\n      0x00\n        /* \"#utility.yul\":2326:2332   */\n      dup4\n        /* \"#utility.yul\":2321:2324   */\n      dup4\n        /* \"#utility.yul\":2317:2333   */\n      add\n        /* \"#utility.yul\":2310:2337   */\n      mstore\n        /* \"#utility.yul\":2205:2344   */\n      pop\n      pop\n      pop\n      jump\t// out\n        /* \"#utility.yul\":2350:2452   */\n    tag_259:\n        /* \"#utility.yul\":2391:2397   */\n      0x00\n        /* \"#utility.yul\":2442:2444   */\n      0x1f\n        /* \"#utility.yul\":2438:2445   */\n      not\n        /* \"#utility.yul\":2433:2435   */\n      0x1f\n        /* \"#utility.yul\":2426:2431   */\n      dup4\n        /* \"#utility.yul\":2422:2436   */\n      add\n        /* \"#utility.yul\":2418:2446   */\n      and\n        /* \"#utility.yul\":2408:2446   */\n      swap1\n      pop\n        /* \"#utility.yul\":2350:2452   */\n      swap2\n      swap1\n      pop\n      jump\t// out\n        /* \"#utility.yul\":2458:2835   */\n    tag_260:\n        /* \"#utility.yul\":2546:2549   */\n      0x00\n        /* \"#utility.yul\":2574:2613   */\n      tag_352\n        /* \"#utility.yul\":2607:2612   */\n      dup3\n        /* \"#utility.yul\":2574:2613   */\n      tag_256\n      jump\t// in\n    tag_352:\n        /* \"#utility.yul\":2629:2700   */\n      tag_353\n        /* \"#utility.yul\":2693:2699   */\n      dup2\n        /* \"#utility.yul\":2688:2691   */\n      dup6\n        /* \"#utility.yul\":2629:2700   */\n      tag_257\n      jump\t// in\n    tag_353:\n        /* \"#utility.yul\":2622:2700   */\n      swap4\n      pop\n        /* \"#utility.yul\":2709:2774   */\n      tag_354\n        /* \"#utility.yul\":2767:2773   */\n      dup2\n        /* \"#utility.yul\":2762:2765   */\n      dup6\n        /* \"#utility.yul\":2755:2759   */\n      0x20\n        /* \"#utility.yul\":2748:2753   */\n      dup7\n        /* \"#utility.yul\":2744:2760   */\n      add\n        /* \"#utility.yul\":2709:2774   */\n      tag_258\n      jump\t// in\n    tag_354:\n        /* \"#utility.yul\":2799:2828   */\n      tag_355\n        /* \"#utility.yul\":2821:2827   */\n      dup2\n        /* \"#utility.yul\":2799:2828   */\n      tag_259\n      jump\t// in\n    tag_355:\n        /* \"#utility.yul\":2794:2797   */\n      dup5\n        /* \"#utility.yul\":2790:2829   */\n      add\n        /* \"#utility.yul\":2783:2829   */\n      swap2\n      pop\n        /* \"#utility.yul\":2550:2835   */\n      pop\n        /* \"#utility.yul\":2458:2835   */\n      swap3\n      swap2\n      pop\n      pop\n      jump\t// out\n        /* \"#utility.yul\":2841:3374   */\n    tag_18:\n        /* \"#utility.yul\":3010:3014   */\n      0x00\n        /* \"#utility.yul\":3048:3050   */\n      0x60\n        /* \"#utility.yul\":3037:3046   */\n      dup3\n        /* \"#utility.yul\":3033:3051   */\n      add\n        /* \"#utility.yul\":3025:3051   */\n      swap1\n      pop\n        /* \"#utility.yul\":3061:3132   */\n      tag_357\n        /* \"#utility.yul\":3129:3130   */\n      0x00\n        /* \"#utility.yul\":3118:3127   */\n      dup4\n        /* \"#utility.yul\":3114:3131   */\n      add\n        /* \"#utility.yul\":3105:3111   */\n      dup7\n        /* \"#utility.yul\":3061:3132   */\n      tag_254\n      jump\t// in\n    tag_357:\n        /* \"#utility.yul\":3142:3214   */\n      tag_358\n        /* \"#utility.yul\":3210:3212   */\n      0x20\n        /* \"#utility.yul\":3199:3208   */\n      dup4\n        /* \"#utility.yul\":3195:3213   */\n      add\n        /* \"#utility.yul\":3186:3192   */\n      dup6\n        /* \"#utility.yul\":3142:3214   */\n      tag_255\n      jump\t// in\n    tag_358:\n        /* \"#utility.yul\":3261:3270   */\n      dup2\n        /* \"#utility.yul\":3255:3259   */\n      dup2\n        /* \"#utility.yul\":3251:3271   */\n      sub\n        /* \"#utility.yul\":3246:3248   */\n      0x40\n        /* \"#utility.yul\":3235:3244   */\n      dup4\n        /* \"#utility.yul\":3231:3249   */\n      add\n        /* \"#utility.yul\":3224:3272   */\n      mstore\n        /* \"#utility.yul\":3289:3367   */\n      tag_359\n        /* \"#utility.yul\":3362:3366   */\n      dup2\n        /* \"#utility.yul\":3353:3359   */\n      dup5\n        /* \"#utility.yul\":3289:3367   */\n      tag_260\n      jump\t// in\n    tag_359:\n        /* \"#utility.yul\":3281:3367   */\n      swap1\n      pop\n        /* \"#utility.yul\":2841:3374   */\n      swap5\n      swap4\n      pop\n      pop\n      pop\n      pop\n      jump\t// out\n        /* \"#utility.yul\":3380:3440   */\n    tag_261:\n        /* \"#utility.yul\":3408:3411   */\n      0x00\n        /* \"#utility.yul\":3429:3434   */\n      dup2\n        /* \"#utility.yul\":3422:3434   */\n      swap1\n      pop\n        /* \"#utility.yul\":3380:3440   */\n      swap2\n      swap1\n      pop\n      jump\t// out\n        /* \"#utility.yul\":3446:3588   */\n    tag_262:\n        /* \"#utility.yul\":3496:3505   */\n      0x00\n        /* \"#utility.yul\":3529:3582   */\n      tag_362\n        /* \"#utility.yul\":3547:3581   */\n      tag_363\n        /* \"#utility.yul\":3556:3580   */\n      tag_364\n        /* \"#utility.yul\":3574:3579   */\n      dup5\n        /* \"#utility.yul\":3556:3580   */\n      tag_247\n      jump\t// in\n    tag_364:\n        /* \"#utility.yul\":3547:3581   */\n      tag_261\n      jump\t// in\n    tag_363:\n        /* \"#utility.yul\":3529:3582   */\n      tag_247\n      jump\t// in\n    tag_362:\n        /* \"#utility.yul\":3516:3582   */\n      swap1\n      pop\n        /* \"#utility.yul\":3446:3588   */\n      swap2\n      swap1\n      pop\n      jump\t// out\n        /* \"#utility.yul\":3594:3720   */\n    tag_263:\n        /* \"#utility.yul\":3644:3653   */\n      0x00\n        /* \"#utility.yul\":3677:3714   */\n      tag_366\n        /* \"#utility.yul\":3708:3713   */\n      dup3\n        /* \"#utility.yul\":3677:3714   */\n      tag_262\n      jump\t// in\n    tag_366:\n        /* \"#utility.yul\":3664:3714   */\n      swap1\n      pop\n        /* \"#utility.yul\":3594:3720   */\n      swap2\n      swap1\n      pop\n      jump\t// out\n        /* \"#utility.yul\":3726:3866   */\n    tag_264:\n        /* \"#utility.yul\":3790:3799   */\n      0x00\n        /* \"#utility.yul\":3823:3860   */\n      tag_368\n        /* \"#utility.yul\":3854:3859   */\n      dup3\n        /* \"#utility.yul\":3823:3860   */\n      tag_263\n      jump\t// in\n    tag_368:\n        /* \"#utility.yul\":3810:3860   */\n      swap1\n      pop\n        /* \"#utility.yul\":3726:3866   */\n      swap2\n      swap1\n      pop\n      jump\t// out\n        /* \"#utility.yul\":3872:4031   */\n    tag_265:\n        /* \"#utility.yul\":3973:4024   */\n      tag_370\n        /* \"#utility.yul\":4018:4023   */\n      dup2\n        /* \"#utility.yul\":3973:4024   */\n      tag_264\n      jump\t// in\n    tag_370:\n        /* \"#utility.yul\":3968:3971   */\n      dup3\n        /* \"#utility.yul\":3961:4025   */\n      mstore\n        /* \"#utility.yul\":3872:4031   */\n      pop\n      pop\n      jump\t// out\n        /* \"#utility.yul\":4037:4287   */\n    tag_22:\n        /* \"#utility.yul\":4144:4148   */\n      0x00\n        /* \"#utility.yul\":4182:4184   */\n      0x20\n        /* \"#utility.yul\":4171:4180   */\n      dup3\n        /* \"#utility.yul\":4167:4185   */\n      add\n        /* \"#utility.yul\":4159:4185   */\n      swap1\n      pop\n        /* \"#utility.yul\":4195:4280   */\n      tag_372\n        /* \"#utility.yul\":4277:4278   */\n      0x00\n        /* \"#utility.yul\":4266:4275   */\n      dup4\n        /* \"#utility.yul\":4262:4279   */\n      add\n        /* \"#utility.yul\":4253:4259   */\n      dup5\n        /* \"#utility.yul\":4195:4280   */\n      tag_265\n      jump\t// in\n    tag_372:\n        /* \"#utility.yul\":4037:4287   */\n      swap3\n      swap2\n      pop\n      pop\n      jump\t// out\n        /* \"#utility.yul\":4293:4410   */\n    tag_266:\n        /* \"#utility.yul\":4402:4403   */\n      0x00\n        /* \"#utility.yul\":4399:4400   */\n      dup1\n        /* \"#utility.yul\":4392:4404   */\n      revert\n        /* \"#utility.yul\":4416:4533   */\n    tag_267:\n        /* \"#utility.yul\":4525:4526   */\n      0x00\n        /* \"#utility.yul\":4522:4523   */\n      dup1\n        /* \"#utility.yul\":4515:4527   */\n      revert\n        /* \"#utility.yul\":4539:4719   */\n    tag_268:\n        /* \"#utility.yul\":4587:4664   */\n      0x4e487b7100000000000000000000000000000000000000000000000000000000\n        /* \"#utility.yul\":4584:4585   */\n      0x00\n        /* \"#utility.yul\":4577:4665   */\n      mstore\n        /* \"#utility.yul\":4684:4688   */\n      0x41\n        /* \"#utility.yul\":4681:4682   */\n      0x04\n        /* \"#utility.yul\":4674:4689   */\n      mstore\n        /* \"#utility.yul\":4708:4712   */\n      0x24\n        /* \"#utility.yul\":4705:4706   */\n      0x00\n        /* \"#utility.yul\":4698:4713   */\n      revert\n        /* \"#utility.yul\":4725:5006   */\n    tag_269:\n        /* \"#utility.yul\":4808:4835   */\n      tag_377\n        /* \"#utility.yul\":4830:4834   */\n      dup3\n        /* \"#utility.yul\":4808:4835   */\n      tag_259\n      jump\t// in\n    tag_377:\n        /* \"#utility.yul\":4800:4806   */\n      dup2\n        /* \"#utility.yul\":4796:4836   */\n      add\n        /* \"#utility.yul\":4938:4944   */\n      dup2\n        /* \"#utility.yul\":4926:4936   */\n      dup2\n        /* \"#utility.yul\":4923:4945   */\n      lt\n        /* \"#utility.yul\":4902:4920   */\n      0xffffffffffffffff\n        /* \"#utility.yul\":4890:4900   */\n      dup3\n        /* \"#utility.yul\":4887:4921   */\n      gt\n        /* \"#utility.yul\":4884:4946   */\n      or\n        /* \"#utility.yul\":4881:4969   */\n      iszero\n      tag_378\n      jumpi\n        /* \"#utility.yul\":4949:4967   */\n      tag_379\n      tag_268\n      jump\t// in\n    tag_379:\n        /* \"#utility.yul\":4881:4969   */\n    tag_378:\n        /* \"#utility.yul\":4989:4999   */\n      dup1\n        /* \"#utility.yul\":4985:4987   */\n      0x40\n        /* \"#utility.yul\":4978:5000   */\n      mstore\n        /* \"#utility.yul\":4768:5006   */\n      pop\n        /* \"#utility.yul\":4725:5006   */\n      pop\n      pop\n      jump\t// out\n        /* \"#utility.yul\":5012:5141   */\n    tag_270:\n        /* \"#utility.yul\":5046:5052   */\n      0x00\n        /* \"#utility.yul\":5073:5093   */\n      tag_381\n      tag_244\n      jump\t// in\n    tag_381:\n        /* \"#utility.yul\":5063:5093   */\n      swap1\n      pop\n        /* \"#utility.yul\":5102:5135   */\n      tag_382\n        /* \"#utility.yul\":5130:5134   */\n      dup3\n        /* \"#utility.yul\":5122:5128   */\n      dup3\n        /* \"#utility.yul\":5102:5135   */\n      tag_269\n      jump\t// in\n    tag_382:\n        /* \"#utility.yul\":5012:5141   */\n      swap2\n      swap1\n      pop\n      jump\t// out\n        /* \"#utility.yul\":5147:5455   */\n    tag_271:\n        /* \"#utility.yul\":5209:5213   */\n      0x00\n        /* \"#utility.yul\":5299:5317   */\n      0xffffffffffffffff\n        /* \"#utility.yul\":5291:5297   */\n      dup3\n        /* \"#utility.yul\":5288:5318   */\n      gt\n        /* \"#utility.yul\":5285:5341   */\n      iszero\n      tag_384\n      jumpi\n        /* \"#utility.yul\":5321:5339   */\n      tag_385\n      tag_268\n      jump\t// in\n    tag_385:\n        /* \"#utility.yul\":5285:5341   */\n    tag_384:\n        /* \"#utility.yul\":5359:5388   */\n      tag_386\n        /* \"#utility.yul\":5381:5387   */\n      dup3\n        /* \"#utility.yul\":5359:5388   */\n      tag_259\n      jump\t// in\n    tag_386:\n        /* \"#utility.yul\":5351:5388   */\n      swap1\n      pop\n        /* \"#utility.yul\":5443:5447   */\n      0x20\n        /* \"#utility.yul\":5437:5441   */\n      dup2\n        /* \"#utility.yul\":5433:5448   */\n      add\n        /* \"#utility.yul\":5425:5448   */\n      swap1\n      pop\n        /* \"#utility.yul\":5147:5455   */\n      swap2\n      swap1\n      pop\n      jump\t// out\n        /* \"#utility.yul\":5461:5609   */\n    tag_272:\n        /* \"#utility.yul\":5559:5565   */\n      dup3\n        /* \"#utility.yul\":5554:5557   */\n      dup2\n        /* \"#utility.yul\":5549:5552   */\n      dup4\n        /* \"#utility.yul\":5536:5566   */\n      calldatacopy\n        /* \"#utility.yul\":5600:5601   */\n      0x00\n        /* \"#utility.yul\":5591:5597   */\n      dup4\n        /* \"#utility.yul\":5586:5589   */\n      dup4\n        /* \"#utility.yul\":5582:5598   */\n      add\n        /* \"#utility.yul\":5575:5602   */\n      mstore\n        /* \"#utility.yul\":5461:5609   */\n      pop\n      pop\n      pop\n      jump\t// out\n        /* \"#utility.yul\":5615:6040   */\n    tag_273:\n        /* \"#utility.yul\":5693:5698   */\n      0x00\n        /* \"#utility.yul\":5718:5784   */\n      tag_389\n        /* \"#utility.yul\":5734:5783   */\n      tag_390\n        /* \"#utility.yul\":5776:5782   */\n      dup5\n        /* \"#utility.yul\":5734:5783   */\n      tag_271\n      jump\t// in\n    tag_390:\n        /* \"#utility.yul\":5718:5784   */\n      tag_270\n      jump\t// in\n    tag_389:\n        /* \"#utility.yul\":5709:5784   */\n      swap1\n      pop\n        /* \"#utility.yul\":5807:5813   */\n      dup3\n        /* \"#utility.yul\":5800:5805   */\n      dup2\n        /* \"#utility.yul\":5793:5814   */\n      mstore\n        /* \"#utility.yul\":5845:5849   */\n      0x20\n        /* \"#utility.yul\":5838:5843   */\n      dup2\n        /* \"#utility.yul\":5834:5850   */\n      add\n        /* \"#utility.yul\":5883:5886   */\n      dup5\n        /* \"#utility.yul\":5874:5880   */\n      dup5\n        /* \"#utility.yul\":5869:5872   */\n      dup5\n        /* \"#utility.yul\":5865:5881   */\n      add\n        /* \"#utility.yul\":5862:5887   */\n      gt\n        /* \"#utility.yul\":5859:5971   */\n      iszero\n      tag_391\n      jumpi\n        /* \"#utility.yul\":5890:5969   */\n      tag_392\n      tag_267\n      jump\t// in\n    tag_392:\n        /* \"#utility.yul\":5859:5971   */\n    tag_391:\n        /* \"#utility.yul\":5980:6034   */\n      tag_393\n        /* \"#utility.yul\":6027:6033   */\n      dup5\n        /* \"#utility.yul\":6022:6025   */\n      dup3\n        /* \"#utility.yul\":6017:6020   */\n      dup6\n        /* \"#utility.yul\":5980:6034   */\n      tag_272\n      jump\t// in\n    tag_393:\n        /* \"#utility.yul\":5699:6040   */\n      pop\n        /* \"#utility.yul\":5615:6040   */\n      swap4\n      swap3\n      pop\n      pop\n      pop\n      jump\t// out\n        /* \"#utility.yul\":6060:6400   */\n    tag_274:\n        /* \"#utility.yul\":6116:6121   */\n      0x00\n        /* \"#utility.yul\":6165:6168   */\n      dup3\n        /* \"#utility.yul\":6158:6162   */\n      0x1f\n        /* \"#utility.yul\":6150:6156   */\n      dup4\n        /* \"#utility.yul\":6146:6163   */\n      add\n        /* \"#utility.yul\":6142:6169   */\n      slt\n        /* \"#utility.yul\":6132:6254   */\n      tag_395\n      jumpi\n        /* \"#utility.yul\":6173:6252   */\n      tag_396\n      tag_266\n      jump\t// in\n    tag_396:\n        /* \"#utility.yul\":6132:6254   */\n    tag_395:\n        /* \"#utility.yul\":6290:6296   */\n      dup2\n        /* \"#utility.yul\":6277:6297   */\n      calldataload\n        /* \"#utility.yul\":6315:6394   */\n      tag_397\n        /* \"#utility.yul\":6390:6393   */\n      dup5\n        /* \"#utility.yul\":6382:6388   */\n      dup3\n        /* \"#utility.yul\":6375:6379   */\n      0x20\n        /* \"#utility.yul\":6367:6373   */\n      dup7\n        /* \"#utility.yul\":6363:6380   */\n      add\n        /* \"#utility.yul\":6315:6394   */\n      tag_273\n      jump\t// in\n    tag_397:\n        /* \"#utility.yul\":6306:6394   */\n      swap2\n      pop\n        /* \"#utility.yul\":6122:6400   */\n      pop\n        /* \"#utility.yul\":6060:6400   */\n      swap3\n      swap2\n      pop\n      pop\n      jump\t// out\n        /* \"#utility.yul\":6406:7060   */\n    tag_25:\n        /* \"#utility.yul\":6484:6490   */\n      0x00\n        /* \"#utility.yul\":6492:6498   */\n      dup1\n        /* \"#utility.yul\":6541:6543   */\n      0x40\n        /* \"#utility.yul\":6529:6538   */\n      dup4\n        /* \"#utility.yul\":6520:6527   */\n      dup6\n        /* \"#utility.yul\":6516:6539   */\n      sub\n        /* \"#utility.yul\":6512:6544   */\n      slt\n        /* \"#utility.yul\":6509:6628   */\n      iszero\n      tag_399\n      jumpi\n        /* \"#utility.yul\":6547:6626   */\n      tag_400\n      tag_245\n      jump\t// in\n    tag_400:\n        /* \"#utility.yul\":6509:6628   */\n    tag_399:\n        /* \"#utility.yul\":6695:6696   */\n      0x00\n        /* \"#utility.yul\":6684:6693   */\n      dup4\n        /* \"#utility.yul\":6680:6697   */\n      add\n        /* \"#utility.yul\":6667:6698   */\n      calldataload\n        /* \"#utility.yul\":6725:6743   */\n      0xffffffffffffffff\n        /* \"#utility.yul\":6717:6723   */\n      dup2\n        /* \"#utility.yul\":6714:6744   */\n      gt\n        /* \"#utility.yul\":6711:6828   */\n      iszero\n      tag_401\n      jumpi\n        /* \"#utility.yul\":6747:6826   */\n      tag_402\n      tag_246\n      jump\t// in\n    tag_402:\n        /* \"#utility.yul\":6711:6828   */\n    tag_401:\n        /* \"#utility.yul\":6852:6915   */\n      tag_403\n        /* \"#utility.yul\":6907:6914   */\n      dup6\n        /* \"#utility.yul\":6898:6904   */\n      dup3\n        /* \"#utility.yul\":6887:6896   */\n      dup7\n        /* \"#utility.yul\":6883:6905   */\n      add\n        /* \"#utility.yul\":6852:6915   */\n      tag_274\n      jump\t// in\n    tag_403:\n        /* \"#utility.yul\":6842:6915   */\n      swap3\n      pop\n        /* \"#utility.yul\":6638:6925   */\n      pop\n        /* \"#utility.yul\":6964:6966   */\n      0x20\n        /* \"#utility.yul\":6990:7043   */\n      tag_404\n        /* \"#utility.yul\":7035:7042   */\n      dup6\n        /* \"#utility.yul\":7026:7032   */\n      dup3\n        /* \"#utility.yul\":7015:7024   */\n      dup7\n        /* \"#utility.yul\":7011:7033   */\n      add\n        /* \"#utility.yul\":6990:7043   */\n      tag_253\n      jump\t// in\n    tag_404:\n        /* \"#utility.yul\":6980:7043   */\n      swap2\n      pop\n        /* \"#utility.yul\":6935:7053   */\n      pop\n        /* \"#utility.yul\":6406:7060   */\n      swap3\n      pop\n      swap3\n      swap1\n      pop\n      jump\t// out\n        /* \"#utility.yul\":7066:7174   */\n    tag_275:\n        /* \"#utility.yul\":7143:7167   */\n      tag_406\n        /* \"#utility.yul\":7161:7166   */\n      dup2\n        /* \"#utility.yul\":7143:7167   */\n      tag_251\n      jump\t// in\n    tag_406:\n        /* \"#utility.yul\":7138:7141   */\n      dup3\n        /* \"#utility.yul\":7131:7168   */\n      mstore\n        /* \"#utility.yul\":7066:7174   */\n      pop\n      pop\n      jump\t// out\n        /* \"#utility.yul\":7180:7288   */\n    tag_276:\n        /* \"#utility.yul\":7257:7281   */\n      tag_408\n        /* \"#utility.yul\":7275:7280   */\n      dup2\n        /* \"#utility.yul\":7257:7281   */\n      tag_248\n      jump\t// in\n    tag_408:\n        /* \"#utility.yul\":7252:7255   */\n      dup3\n        /* \"#utility.yul\":7245:7282   */\n      mstore\n        /* \"#utility.yul\":7180:7288   */\n      pop\n      pop\n      jump\t// out\n        /* \"#utility.yul\":7294:7453   */\n    tag_277:\n        /* \"#utility.yul\":7368:7379   */\n      0x00\n        /* \"#utility.yul\":7402:7408   */\n      dup3\n        /* \"#utility.yul\":7397:7400   */\n      dup3\n        /* \"#utility.yul\":7390:7409   */\n      mstore\n        /* \"#utility.yul\":7442:7446   */\n      0x20\n        /* \"#utility.yul\":7437:7440   */\n      dup3\n        /* \"#utility.yul\":7433:7447   */\n      add\n        /* \"#utility.yul\":7418:7447   */\n      swap1\n      pop\n        /* \"#utility.yul\":7294:7453   */\n      swap3\n      swap2\n      pop\n      pop\n      jump\t// out\n        /* \"#utility.yul\":7459:7816   */\n    tag_278:\n        /* \"#utility.yul\":7537:7540   */\n      0x00\n        /* \"#utility.yul\":7565:7604   */\n      tag_411\n        /* \"#utility.yul\":7598:7603   */\n      dup3\n        /* \"#utility.yul\":7565:7604   */\n      tag_256\n      jump\t// in\n    tag_411:\n        /* \"#utility.yul\":7620:7681   */\n      tag_412\n        /* \"#utility.yul\":7674:7680   */\n      dup2\n        /* \"#utility.yul\":7669:7672   */\n      dup6\n        /* \"#utility.yul\":7620:7681   */\n      tag_277\n      jump\t// in\n    tag_412:\n        /* \"#utility.yul\":7613:7681   */\n      swap4\n      pop\n        /* \"#utility.yul\":7690:7755   */\n      tag_413\n        /* \"#utility.yul\":7748:7754   */\n      dup2\n        /* \"#utility.yul\":7743:7746   */\n      dup6\n        /* \"#utility.yul\":7736:7740   */\n      0x20\n        /* \"#utility.yul\":7729:7734   */\n      dup7\n        /* \"#utility.yul\":7725:7741   */\n      add\n        /* \"#utility.yul\":7690:7755   */\n      tag_258\n      jump\t// in\n    tag_413:\n        /* \"#utility.yul\":7780:7809   */\n      tag_414\n        /* \"#utility.yul\":7802:7808   */\n      dup2\n        /* \"#utility.yul\":7780:7809   */\n      tag_259\n      jump\t// in\n    tag_414:\n        /* \"#utility.yul\":7775:7778   */\n      dup5\n        /* \"#utility.yul\":7771:7810   */\n      add\n        /* \"#utility.yul\":7764:7810   */\n      swap2\n      pop\n        /* \"#utility.yul\":7541:7816   */\n      pop\n        /* \"#utility.yul\":7459:7816   */\n      swap3\n      swap2\n      pop\n      pop\n      jump\t// out\n        /* \"#utility.yul\":7910:8692   */\n    tag_279:\n        /* \"#utility.yul\":8027:8030   */\n      0x00\n        /* \"#utility.yul\":8063:8067   */\n      0x60\n        /* \"#utility.yul\":8058:8061   */\n      dup4\n        /* \"#utility.yul\":8054:8068   */\n      add\n        /* \"#utility.yul\":8151:8155   */\n      0x00\n        /* \"#utility.yul\":8144:8149   */\n      dup4\n        /* \"#utility.yul\":8140:8156   */\n      add\n        /* \"#utility.yul\":8134:8157   */\n      mload\n        /* \"#utility.yul\":8170:8233   */\n      tag_416\n        /* \"#utility.yul\":8227:8231   */\n      0x00\n        /* \"#utility.yul\":8222:8225   */\n      dup7\n        /* \"#utility.yul\":8218:8232   */\n      add\n        /* \"#utility.yul\":8204:8216   */\n      dup3\n        /* \"#utility.yul\":8170:8233   */\n      tag_275\n      jump\t// in\n    tag_416:\n        /* \"#utility.yul\":8078:8243   */\n      pop\n        /* \"#utility.yul\":8327:8331   */\n      0x20\n        /* \"#utility.yul\":8320:8325   */\n      dup4\n        /* \"#utility.yul\":8316:8332   */\n      add\n        /* \"#utility.yul\":8310:8333   */\n      mload\n        /* \"#utility.yul\":8346:8409   */\n      tag_417\n        /* \"#utility.yul\":8403:8407   */\n      0x20\n        /* \"#utility.yul\":8398:8401   */\n      dup7\n        /* \"#utility.yul\":8394:8408   */\n      add\n        /* \"#utility.yul\":8380:8392   */\n      dup3\n        /* \"#utility.yul\":8346:8409   */\n      tag_276\n      jump\t// in\n    tag_417:\n        /* \"#utility.yul\":8253:8419   */\n      pop\n        /* \"#utility.yul\":8502:8506   */\n      0x40\n        /* \"#utility.yul\":8495:8500   */\n      dup4\n        /* \"#utility.yul\":8491:8507   */\n      add\n        /* \"#utility.yul\":8485:8508   */\n      mload\n        /* \"#utility.yul\":8555:8558   */\n      dup5\n        /* \"#utility.yul\":8549:8553   */\n      dup3\n        /* \"#utility.yul\":8545:8559   */\n      sub\n        /* \"#utility.yul\":8538:8542   */\n      0x40\n        /* \"#utility.yul\":8533:8536   */\n      dup7\n        /* \"#utility.yul\":8529:8543   */\n      add\n        /* \"#utility.yul\":8522:8560   */\n      mstore\n        /* \"#utility.yul\":8581:8654   */\n      tag_418\n        /* \"#utility.yul\":8649:8653   */\n      dup3\n        /* \"#utility.yul\":8635:8647   */\n      dup3\n        /* \"#utility.yul\":8581:8654   */\n      tag_278\n      jump\t// in\n    tag_418:\n        /* \"#utility.yul\":8573:8654   */\n      swap2\n      pop\n        /* \"#utility.yul\":8429:8665   */\n      pop\n        /* \"#utility.yul\":8682:8686   */\n      dup1\n        /* \"#utility.yul\":8675:8686   */\n      swap2\n      pop\n        /* \"#utility.yul\":8032:8692   */\n      pop\n        /* \"#utility.yul\":7910:8692   */\n      swap3\n      swap2\n      pop\n      pop\n      jump\t// out\n        /* \"#utility.yul\":8698:9067   */\n    tag_31:\n        /* \"#utility.yul\":8839:8843   */\n      0x00\n        /* \"#utility.yul\":8877:8879   */\n      0x20\n        /* \"#utility.yul\":8866:8875   */\n      dup3\n        /* \"#utility.yul\":8862:8880   */\n      add\n        /* \"#utility.yul\":8854:8880   */\n      swap1\n      pop\n        /* \"#utility.yul\":8926:8935   */\n      dup2\n        /* \"#utility.yul\":8920:8924   */\n      dup2\n        /* \"#utility.yul\":8916:8936   */\n      sub\n        /* \"#utility.yul\":8912:8913   */\n      0x00\n        /* \"#utility.yul\":8901:8910   */\n      dup4\n        /* \"#utility.yul\":8897:8914   */\n      add\n        /* \"#utility.yul\":8890:8937   */\n      mstore\n        /* \"#utility.yul\":8954:9060   */\n      tag_420\n        /* \"#utility.yul\":9055:9059   */\n      dup2\n        /* \"#utility.yul\":9046:9052   */\n      dup5\n        /* \"#utility.yul\":8954:9060   */\n      tag_279\n      jump\t// in\n    tag_420:\n        /* \"#utility.yul\":8946:9060   */\n      swap1\n      pop\n        /* \"#utility.yul\":8698:9067   */\n      swap3\n      swap2\n      pop\n      pop\n      jump\t// out\n        /* \"#utility.yul\":9073:9402   */\n    tag_34:\n        /* \"#utility.yul\":9132:9138   */\n      0x00\n        /* \"#utility.yul\":9181:9183   */\n      0x20\n        /* \"#utility.yul\":9169:9178   */\n      dup3\n        /* \"#utility.yul\":9160:9167   */\n      dup5\n        /* \"#utility.yul\":9156:9179   */\n      sub\n        /* \"#utility.yul\":9152:9184   */\n      slt\n        /* \"#utility.yul\":9149:9268   */\n      iszero\n      tag_422\n      jumpi\n        /* \"#utility.yul\":9187:9266   */\n      tag_423\n      tag_245\n      jump\t// in\n    tag_423:\n        /* \"#utility.yul\":9149:9268   */\n    tag_422:\n        /* \"#utility.yul\":9307:9308   */\n      0x00\n        /* \"#utility.yul\":9332:9385   */\n      tag_424\n        /* \"#utility.yul\":9377:9384   */\n      dup5\n        /* \"#utility.yul\":9368:9374   */\n      dup3\n        /* \"#utility.yul\":9357:9366   */\n      dup6\n        /* \"#utility.yul\":9353:9375   */\n      add\n        /* \"#utility.yul\":9332:9385   */\n      tag_253\n      jump\t// in\n    tag_424:\n        /* \"#utility.yul\":9322:9385   */\n      swap2\n      pop\n        /* \"#utility.yul\":9278:9395   */\n      pop\n        /* \"#utility.yul\":9073:9402   */\n      swap3\n      swap2\n      pop\n      pop\n      jump\t// out\n        /* \"#utility.yul\":9408:9740   */\n    tag_37:\n        /* \"#utility.yul\":9529:9533   */\n      0x00\n        /* \"#utility.yul\":9567:9569   */\n      0x40\n        /* \"#utility.yul\":9556:9565   */\n      dup3\n        /* \"#utility.yul\":9552:9570   */\n      add\n        /* \"#utility.yul\":9544:9570   */\n      swap1\n      pop\n        /* \"#utility.yul\":9580:9651   */\n      tag_426\n        /* \"#utility.yul\":9648:9649   */\n      0x00\n        /* \"#utility.yul\":9637:9646   */\n      dup4\n        /* \"#utility.yul\":9633:9650   */\n      add\n        /* \"#utility.yul\":9624:9630   */\n      dup6\n        /* \"#utility.yul\":9580:9651   */\n      tag_255\n      jump\t// in\n    tag_426:\n        /* \"#utility.yul\":9661:9733   */\n      tag_427\n        /* \"#utility.yul\":9729:9731   */\n      0x20\n        /* \"#utility.yul\":9718:9727   */\n      dup4\n        /* \"#utility.yul\":9714:9732   */\n      add\n        /* \"#utility.yul\":9705:9711   */\n      dup5\n        /* \"#utility.yul\":9661:9733   */\n      tag_254\n      jump\t// in\n    tag_427:\n        /* \"#utility.yul\":9408:9740   */\n      swap4\n      swap3\n      pop\n      pop\n      pop\n      jump\t// out\n        /* \"#utility.yul\":9746:10691   */\n    tag_40:\n        /* \"#utility.yul\":9842:9848   */\n      0x00\n        /* \"#utility.yul\":9850:9856   */\n      dup1\n        /* \"#utility.yul\":9858:9864   */\n      0x00\n        /* \"#utility.yul\":9866:9872   */\n      dup1\n        /* \"#utility.yul\":9915:9918   */\n      0x80\n        /* \"#utility.yul\":9903:9912   */\n      dup6\n        /* \"#utility.yul\":9894:9901   */\n      dup8\n        /* \"#utility.yul\":9890:9913   */\n      sub\n        /* \"#utility.yul\":9886:9919   */\n      slt\n        /* \"#utility.yul\":9883:10003   */\n      iszero\n      tag_429\n      jumpi\n        /* \"#utility.yul\":9922:10001   */\n      tag_430\n      tag_245\n      jump\t// in\n    tag_430:\n        /* \"#utility.yul\":9883:10003   */\n    tag_429:\n        /* \"#utility.yul\":10042:10043   */\n      0x00\n        /* \"#utility.yul\":10067:10120   */\n      tag_431\n        /* \"#utility.yul\":10112:10119   */\n      dup8\n        /* \"#utility.yul\":10103:10109   */\n      dup3\n        /* \"#utility.yul\":10092:10101   */\n      dup9\n        /* \"#utility.yul\":10088:10110   */\n      add\n        /* \"#utility.yul\":10067:10120   */\n      tag_250\n      jump\t// in\n    tag_431:\n        /* \"#utility.yul\":10057:10120   */\n      swap5\n      pop\n        /* \"#utility.yul\":10013:10130   */\n      pop\n        /* \"#utility.yul\":10169:10171   */\n      0x20\n        /* \"#utility.yul\":10195:10248   */\n      tag_432\n        /* \"#utility.yul\":10240:10247   */\n      dup8\n        /* \"#utility.yul\":10231:10237   */\n      dup3\n        /* \"#utility.yul\":10220:10229   */\n      dup9\n        /* \"#utility.yul\":10216:10238   */\n      add\n        /* \"#utility.yul\":10195:10248   */\n      tag_253\n      jump\t// in\n    tag_432:\n        /* \"#utility.yul\":10185:10248   */\n      swap4\n      pop\n        /* \"#utility.yul\":10140:10258   */\n      pop\n        /* \"#utility.yul\":10297:10299   */\n      0x40\n        /* \"#utility.yul\":10323:10376   */\n      tag_433\n        /* \"#utility.yul\":10368:10375   */\n      dup8\n        /* \"#utility.yul\":10359:10365   */\n      dup3\n        /* \"#utility.yul\":10348:10357   */\n      dup9\n        /* \"#utility.yul\":10344:10366   */\n      add\n        /* \"#utility.yul\":10323:10376   */\n      tag_253\n      jump\t// in\n    tag_433:\n        /* \"#utility.yul\":10313:10376   */\n      swap3\n      pop\n        /* \"#utility.yul\":10268:10386   */\n      pop\n        /* \"#utility.yul\":10453:10455   */\n      0x60\n        /* \"#utility.yul\":10442:10451   */\n      dup6\n        /* \"#utility.yul\":10438:10456   */\n      add\n        /* \"#utility.yul\":10425:10457   */\n      calldataload\n        /* \"#utility.yul\":10484:10502   */\n      0xffffffffffffffff\n        /* \"#utility.yul\":10476:10482   */\n      dup2\n        /* \"#utility.yul\":10473:10503   */\n      gt\n        /* \"#utility.yul\":10470:10587   */\n      iszero\n      tag_434\n      jumpi\n        /* \"#utility.yul\":10506:10585   */\n      tag_435\n      tag_246\n      jump\t// in\n    tag_435:\n        /* \"#utility.yul\":10470:10587   */\n    tag_434:\n        /* \"#utility.yul\":10611:10674   */\n      tag_436\n        /* \"#utility.yul\":10666:10673   */\n      dup8\n        /* \"#utility.yul\":10657:10663   */\n      dup3\n        /* \"#utility.yul\":10646:10655   */\n      dup9\n        /* \"#utility.yul\":10642:10664   */\n      add\n        /* \"#utility.yul\":10611:10674   */\n      tag_274\n      jump\t// in\n    tag_436:\n        /* \"#utility.yul\":10601:10674   */\n      swap2\n      pop\n        /* \"#utility.yul\":10396:10684   */\n      pop\n        /* \"#utility.yul\":9746:10691   */\n      swap3\n      swap6\n      swap2\n      swap5\n      pop\n      swap3\n      pop\n      jump\t// out\n        /* \"#utility.yul\":10697:11206   */\n    tag_47:\n        /* \"#utility.yul\":10766:10772   */\n      0x00\n        /* \"#utility.yul\":10815:10817   */\n      0x20\n        /* \"#utility.yul\":10803:10812   */\n      dup3\n        /* \"#utility.yul\":10794:10801   */\n      dup5\n        /* \"#utility.yul\":10790:10813   */\n      sub\n        /* \"#utility.yul\":10786:10818   */\n      slt\n        /* \"#utility.yul\":10783:10902   */\n      iszero\n      tag_438\n      jumpi\n        /* \"#utility.yul\":10821:10900   */\n      tag_439\n      tag_245\n      jump\t// in\n    tag_439:\n        /* \"#utility.yul\":10783:10902   */\n    tag_438:\n        /* \"#utility.yul\":10969:10970   */\n      0x00\n        /* \"#utility.yul\":10958:10967   */\n      dup3\n        /* \"#utility.yul\":10954:10971   */\n      add\n        /* \"#utility.yul\":10941:10972   */\n      calldataload\n        /* \"#utility.yul\":10999:11017   */\n      0xffffffffffffffff\n        /* \"#utility.yul\":10991:10997   */\n      dup2\n        /* \"#utility.yul\":10988:11018   */\n      gt\n        /* \"#utility.yul\":10985:11102   */\n      iszero\n      tag_440\n      jumpi\n        /* \"#utility.yul\":11021:11100   */\n      tag_441\n      tag_246\n      jump\t// in\n    tag_441:\n        /* \"#utility.yul\":10985:11102   */\n    tag_440:\n        /* \"#utility.yul\":11126:11189   */\n      tag_442\n        /* \"#utility.yul\":11181:11188   */\n      dup5\n        /* \"#utility.yul\":11172:11178   */\n      dup3\n        /* \"#utility.yul\":11161:11170   */\n      dup6\n        /* \"#utility.yul\":11157:11179   */\n      add\n        /* \"#utility.yul\":11126:11189   */\n      tag_274\n      jump\t// in\n    tag_442:\n        /* \"#utility.yul\":11116:11189   */\n      swap2\n      pop\n        /* \"#utility.yul\":10912:11199   */\n      pop\n        /* \"#utility.yul\":10697:11206   */\n      swap3\n      swap2\n      pop\n      pop\n      jump\t// out\n        /* \"#utility.yul\":11212:11544   */\n    tag_50:\n        /* \"#utility.yul\":11333:11337   */\n      0x00\n        /* \"#utility.yul\":11371:11373   */\n      0x40\n        /* \"#utility.yul\":11360:11369   */\n      dup3\n        /* \"#utility.yul\":11356:11374   */\n      add\n        /* \"#utility.yul\":11348:11374   */\n      swap1\n      pop\n        /* \"#utility.yul\":11384:11455   */\n      tag_444\n        /* \"#utility.yul\":11452:11453   */\n      0x00\n        /* \"#utility.yul\":11441:11450   */\n      dup4\n        /* \"#utility.yul\":11437:11454   */\n      add\n        /* \"#utility.yul\":11428:11434   */\n      dup6\n        /* \"#utility.yul\":11384:11455   */\n      tag_254\n      jump\t// in\n    tag_444:\n        /* \"#utility.yul\":11465:11537   */\n      tag_445\n        /* \"#utility.yul\":11533:11535   */\n      0x20\n        /* \"#utility.yul\":11522:11531   */\n      dup4\n        /* \"#utility.yul\":11518:11536   */\n      add\n        /* \"#utility.yul\":11509:11515   */\n      dup5\n        /* \"#utility.yul\":11465:11537   */\n      tag_255\n      jump\t// in\n    tag_445:\n        /* \"#utility.yul\":11212:11544   */\n      swap4\n      swap3\n      pop\n      pop\n      pop\n      jump\t// out\n        /* \"#utility.yul\":11550:11730   */\n    tag_280:\n        /* \"#utility.yul\":11598:11675   */\n      0x4e487b7100000000000000000000000000000000000000000000000000000000\n        /* \"#utility.yul\":11595:11596   */\n      0x00\n        /* \"#utility.yul\":11588:11676   */\n      mstore\n        /* \"#utility.yul\":11695:11699   */\n      0x22\n        /* \"#utility.yul\":11692:11693   */\n      0x04\n        /* \"#utility.yul\":11685:11700   */\n      mstore\n        /* \"#utility.yul\":11719:11723   */\n      0x24\n        /* \"#utility.yul\":11716:11717   */\n      0x00\n        /* \"#utility.yul\":11709:11724   */\n      revert\n        /* \"#utility.yul\":11736:12056   */\n    tag_55:\n        /* \"#utility.yul\":11780:11786   */\n      0x00\n        /* \"#utility.yul\":11817:11818   */\n      0x02\n        /* \"#utility.yul\":11811:11815   */\n      dup3\n        /* \"#utility.yul\":11807:11819   */\n      div\n        /* \"#utility.yul\":11797:11819   */\n      swap1\n      pop\n        /* \"#utility.yul\":11864:11865   */\n      0x01\n        /* \"#utility.yul\":11858:11862   */\n      dup3\n        /* \"#utility.yul\":11854:11866   */\n      and\n        /* \"#utility.yul\":11885:11903   */\n      dup1\n        /* \"#utility.yul\":11875:11956   */\n      tag_448\n      jumpi\n        /* \"#utility.yul\":11941:11945   */\n      0x7f\n        /* \"#utility.yul\":11933:11939   */\n      dup3\n        /* \"#utility.yul\":11929:11946   */\n      and\n        /* \"#utility.yul\":11919:11946   */\n      swap2\n      pop\n        /* \"#utility.yul\":11875:11956   */\n    tag_448:\n        /* \"#utility.yul\":12003:12005   */\n      0x20\n        /* \"#utility.yul\":11995:12001   */\n      dup3\n        /* \"#utility.yul\":11992:12006   */\n      lt\n        /* \"#utility.yul\":11972:11990   */\n      dup2\n        /* \"#utility.yul\":11969:12007   */\n      sub\n        /* \"#utility.yul\":11966:12050   */\n      tag_449\n      jumpi\n        /* \"#utility.yul\":12022:12040   */\n      tag_450\n      tag_280\n      jump\t// in\n    tag_450:\n        /* \"#utility.yul\":11966:12050   */\n    tag_449:\n        /* \"#utility.yul\":11787:12056   */\n      pop\n        /* \"#utility.yul\":11736:12056   */\n      swap2\n      swap1\n      pop\n      jump\t// out\n        /* \"#utility.yul\":12062:12243   */\n    tag_281:\n        /* \"#utility.yul\":12202:12235   */\n      0x5072696365206d7573742062652067726561746572207468616e207a65726f00\n        /* \"#utility.yul\":12198:12199   */\n      0x00\n        /* \"#utility.yul\":12190:12196   */\n      dup3\n        /* \"#utility.yul\":12186:12200   */\n      add\n        /* \"#utility.yul\":12179:12236   */\n      mstore\n        /* \"#utility.yul\":12062:12243   */\n      pop\n      jump\t// out\n        /* \"#utility.yul\":12249:12615   */\n    tag_282:\n        /* \"#utility.yul\":12391:12394   */\n      0x00\n        /* \"#utility.yul\":12412:12479   */\n      tag_453\n        /* \"#utility.yul\":12476:12478   */\n      0x1f\n        /* \"#utility.yul\":12471:12474   */\n      dup4\n        /* \"#utility.yul\":12412:12479   */\n      tag_257\n      jump\t// in\n    tag_453:\n        /* \"#utility.yul\":12405:12479   */\n      swap2\n      pop\n        /* \"#utility.yul\":12488:12581   */\n      tag_454\n        /* \"#utility.yul\":12577:12580   */\n      dup3\n        /* \"#utility.yul\":12488:12581   */\n      tag_281\n      jump\t// in\n    tag_454:\n        /* \"#utility.yul\":12606:12608   */\n      0x20\n        /* \"#utility.yul\":12601:12604   */\n      dup3\n        /* \"#utility.yul\":12597:12609   */\n      add\n        /* \"#utility.yul\":12590:12609   */\n      swap1\n      pop\n        /* \"#utility.yul\":12249:12615   */\n      swap2\n      swap1\n      pop\n      jump\t// out\n        /* \"#utility.yul\":12621:13040   */\n    tag_63:\n        /* \"#utility.yul\":12787:12791   */\n      0x00\n        /* \"#utility.yul\":12825:12827   */\n      0x20\n        /* \"#utility.yul\":12814:12823   */\n      dup3\n        /* \"#utility.yul\":12810:12828   */\n      add\n        /* \"#utility.yul\":12802:12828   */\n      swap1\n      pop\n        /* \"#utility.yul\":12874:12883   */\n      dup2\n        /* \"#utility.yul\":12868:12872   */\n      dup2\n        /* \"#utility.yul\":12864:12884   */\n      sub\n        /* \"#utility.yul\":12860:12861   */\n      0x00\n        /* \"#utility.yul\":12849:12858   */\n      dup4\n        /* \"#utility.yul\":12845:12862   */\n      add\n        /* \"#utility.yul\":12838:12885   */\n      mstore\n        /* \"#utility.yul\":12902:13033   */\n      tag_456\n        /* \"#utility.yul\":13028:13032   */\n      dup2\n        /* \"#utility.yul\":12902:13033   */\n      tag_282\n      jump\t// in\n    tag_456:\n        /* \"#utility.yul\":12894:13033   */\n      swap1\n      pop\n        /* \"#utility.yul\":12621:13040   */\n      swap2\n      swap1\n      pop\n      jump\t// out\n        /* \"#utility.yul\":13046:13194   */\n    tag_283:\n        /* \"#utility.yul\":13148:13159   */\n      0x00\n        /* \"#utility.yul\":13185:13188   */\n      dup2\n        /* \"#utility.yul\":13170:13188   */\n      swap1\n      pop\n        /* \"#utility.yul\":13046:13194   */\n      swap3\n      swap2\n      pop\n      pop\n      jump\t// out\n        /* \"#utility.yul\":13200:13590   */\n    tag_284:\n        /* \"#utility.yul\":13306:13309   */\n      0x00\n        /* \"#utility.yul\":13334:13373   */\n      tag_459\n        /* \"#utility.yul\":13367:13372   */\n      dup3\n        /* \"#utility.yul\":13334:13373   */\n      tag_256\n      jump\t// in\n    tag_459:\n        /* \"#utility.yul\":13389:13478   */\n      tag_460\n        /* \"#utility.yul\":13471:13477   */\n      dup2\n        /* \"#utility.yul\":13466:13469   */\n      dup6\n        /* \"#utility.yul\":13389:13478   */\n      tag_283\n      jump\t// in\n    tag_460:\n        /* \"#utility.yul\":13382:13478   */\n      swap4\n      pop\n        /* \"#utility.yul\":13487:13552   */\n      tag_461\n        /* \"#utility.yul\":13545:13551   */\n      dup2\n        /* \"#utility.yul\":13540:13543   */\n      dup6\n        /* \"#utility.yul\":13533:13537   */\n      0x20\n        /* \"#utility.yul\":13526:13531   */\n      dup7\n        /* \"#utility.yul\":13522:13538   */\n      add\n        /* \"#utility.yul\":13487:13552   */\n      tag_258\n      jump\t// in\n    tag_461:\n        /* \"#utility.yul\":13577:13583   */\n      dup1\n        /* \"#utility.yul\":13572:13575   */\n      dup5\n        /* \"#utility.yul\":13568:13584   */\n      add\n        /* \"#utility.yul\":13561:13584   */\n      swap2\n      pop\n        /* \"#utility.yul\":13310:13590   */\n      pop\n        /* \"#utility.yul\":13200:13590   */\n      swap3\n      swap2\n      pop\n      pop\n      jump\t// out\n        /* \"#utility.yul\":13596:13871   */\n    tag_65:\n        /* \"#utility.yul\":13728:13731   */\n      0x00\n        /* \"#utility.yul\":13750:13845   */\n      tag_463\n        /* \"#utility.yul\":13841:13844   */\n      dup3\n        /* \"#utility.yul\":13832:13838   */\n      dup5\n        /* \"#utility.yul\":13750:13845   */\n      tag_284\n      jump\t// in\n    tag_463:\n        /* \"#utility.yul\":13743:13845   */\n      swap2\n      pop\n        /* \"#utility.yul\":13862:13865   */\n      dup2\n        /* \"#utility.yul\":13855:13865   */\n      swap1\n      pop\n        /* \"#utility.yul\":13596:13871   */\n      swap3\n      swap2\n      pop\n      pop\n      jump\t// out\n        /* \"#utility.yul\":13877:14051   */\n    tag_285:\n        /* \"#utility.yul\":14017:14043   */\n      0x47726f75702062696420616c7265616479206578697374730000000000000000\n        /* \"#utility.yul\":14013:14014   */\n      0x00\n        /* \"#utility.yul\":14005:14011   */\n      dup3\n        /* \"#utility.yul\":14001:14015   */\n      add\n        /* \"#utility.yul\":13994:14044   */\n      mstore\n        /* \"#utility.yul\":13877:14051   */\n      pop\n      jump\t// out\n        /* \"#utility.yul\":14057:14423   */\n    tag_286:\n        /* \"#utility.yul\":14199:14202   */\n      0x00\n        /* \"#utility.yul\":14220:14287   */\n      tag_466\n        /* \"#utility.yul\":14284:14286   */\n      0x18\n        /* \"#utility.yul\":14279:14282   */\n      dup4\n        /* \"#utility.yul\":14220:14287   */\n      tag_257\n      jump\t// in\n    tag_466:\n        /* \"#utility.yul\":14213:14287   */\n      swap2\n      pop\n        /* \"#utility.yul\":14296:14389   */\n      tag_467\n        /* \"#utility.yul\":14385:14388   */\n      dup3\n        /* \"#utility.yul\":14296:14389   */\n      tag_285\n      jump\t// in\n    tag_467:\n        /* \"#utility.yul\":14414:14416   */\n      0x20\n        /* \"#utility.yul\":14409:14412   */\n      dup3\n        /* \"#utility.yul\":14405:14417   */\n      add\n        /* \"#utility.yul\":14398:14417   */\n      swap1\n      pop\n        /* \"#utility.yul\":14057:14423   */\n      swap2\n      swap1\n      pop\n      jump\t// out\n        /* \"#utility.yul\":14429:14848   */\n    tag_68:\n        /* \"#utility.yul\":14595:14599   */\n      0x00\n        /* \"#utility.yul\":14633:14635   */\n      0x20\n        /* \"#utility.yul\":14622:14631   */\n      dup3\n        /* \"#utility.yul\":14618:14636   */\n      add\n        /* \"#utility.yul\":14610:14636   */\n      swap1\n      pop\n        /* \"#utility.yul\":14682:14691   */\n      dup2\n        /* \"#utility.yul\":14676:14680   */\n      dup2\n        /* \"#utility.yul\":14672:14692   */\n      sub\n        /* \"#utility.yul\":14668:14669   */\n      0x00\n        /* \"#utility.yul\":14657:14666   */\n      dup4\n        /* \"#utility.yul\":14653:14670   */\n      add\n        /* \"#utility.yul\":14646:14693   */\n      mstore\n        /* \"#utility.yul\":14710:14841   */\n      tag_469\n        /* \"#utility.yul\":14836:14840   */\n      dup2\n        /* \"#utility.yul\":14710:14841   */\n      tag_286\n      jump\t// in\n    tag_469:\n        /* \"#utility.yul\":14702:14841   */\n      swap1\n      pop\n        /* \"#utility.yul\":14429:14848   */\n      swap2\n      swap1\n      pop\n      jump\t// out\n        /* \"#utility.yul\":14854:15296   */\n    tag_70:\n        /* \"#utility.yul\":15003:15007   */\n      0x00\n        /* \"#utility.yul\":15041:15043   */\n      0x60\n        /* \"#utility.yul\":15030:15039   */\n      dup3\n        /* \"#utility.yul\":15026:15044   */\n      add\n        /* \"#utility.yul\":15018:15044   */\n      swap1\n      pop\n        /* \"#utility.yul\":15054:15125   */\n      tag_471\n        /* \"#utility.yul\":15122:15123   */\n      0x00\n        /* \"#utility.yul\":15111:15120   */\n      dup4\n        /* \"#utility.yul\":15107:15124   */\n      add\n        /* \"#utility.yul\":15098:15104   */\n      dup7\n        /* \"#utility.yul\":15054:15125   */\n      tag_255\n      jump\t// in\n    tag_471:\n        /* \"#utility.yul\":15135:15207   */\n      tag_472\n        /* \"#utility.yul\":15203:15205   */\n      0x20\n        /* \"#utility.yul\":15192:15201   */\n      dup4\n        /* \"#utility.yul\":15188:15206   */\n      add\n        /* \"#utility.yul\":15179:15185   */\n      dup6\n        /* \"#utility.yul\":15135:15207   */\n      tag_255\n      jump\t// in\n    tag_472:\n        /* \"#utility.yul\":15217:15289   */\n      tag_473\n        /* \"#utility.yul\":15285:15287   */\n      0x40\n        /* \"#utility.yul\":15274:15283   */\n      dup4\n        /* \"#utility.yul\":15270:15288   */\n      add\n        /* \"#utility.yul\":15261:15267   */\n      dup5\n        /* \"#utility.yul\":15217:15289   */\n      tag_254\n      jump\t// in\n    tag_473:\n        /* \"#utility.yul\":14854:15296   */\n      swap5\n      swap4\n      pop\n      pop\n      pop\n      pop\n      jump\t// out\n        /* \"#utility.yul\":15302:15392   */\n    tag_287:\n        /* \"#utility.yul\":15336:15343   */\n      0x00\n        /* \"#utility.yul\":15379:15384   */\n      dup2\n        /* \"#utility.yul\":15372:15385   */\n      iszero\n        /* \"#utility.yul\":15365:15386   */\n      iszero\n        /* \"#utility.yul\":15354:15386   */\n      swap1\n      pop\n        /* \"#utility.yul\":15302:15392   */\n      swap2\n      swap1\n      pop\n      jump\t// out\n        /* \"#utility.yul\":15398:15514   */\n    tag_288:\n        /* \"#utility.yul\":15468:15489   */\n      tag_476\n        /* \"#utility.yul\":15483:15488   */\n      dup2\n        /* \"#utility.yul\":15468:15489   */\n      tag_287\n      jump\t// in\n    tag_476:\n        /* \"#utility.yul\":15461:15466   */\n      dup2\n        /* \"#utility.yul\":15458:15490   */\n      eq\n        /* \"#utility.yul\":15448:15508   */\n      tag_477\n      jumpi\n        /* \"#utility.yul\":15504:15505   */\n      0x00\n        /* \"#utility.yul\":15501:15502   */\n      dup1\n        /* \"#utility.yul\":15494:15506   */\n      revert\n        /* \"#utility.yul\":15448:15508   */\n    tag_477:\n        /* \"#utility.yul\":15398:15514   */\n      pop\n      jump\t// out\n        /* \"#utility.yul\":15520:15657   */\n    tag_289:\n        /* \"#utility.yul\":15574:15579   */\n      0x00\n        /* \"#utility.yul\":15605:15611   */\n      dup2\n        /* \"#utility.yul\":15599:15612   */\n      mload\n        /* \"#utility.yul\":15590:15612   */\n      swap1\n      pop\n        /* \"#utility.yul\":15621:15651   */\n      tag_479\n        /* \"#utility.yul\":15645:15650   */\n      dup2\n        /* \"#utility.yul\":15621:15651   */\n      tag_288\n      jump\t// in\n    tag_479:\n        /* \"#utility.yul\":15520:15657   */\n      swap3\n      swap2\n      pop\n      pop\n      jump\t// out\n        /* \"#utility.yul\":15663:16008   */\n    tag_74:\n        /* \"#utility.yul\":15730:15736   */\n      0x00\n        /* \"#utility.yul\":15779:15781   */\n      0x20\n        /* \"#utility.yul\":15767:15776   */\n      dup3\n        /* \"#utility.yul\":15758:15765   */\n      dup5\n        /* \"#utility.yul\":15754:15777   */\n      sub\n        /* \"#utility.yul\":15750:15782   */\n      slt\n        /* \"#utility.yul\":15747:15866   */\n      iszero\n      tag_481\n      jumpi\n        /* \"#utility.yul\":15785:15864   */\n      tag_482\n      tag_245\n      jump\t// in\n    tag_482:\n        /* \"#utility.yul\":15747:15866   */\n    tag_481:\n        /* \"#utility.yul\":15905:15906   */\n      0x00\n        /* \"#utility.yul\":15930:15991   */\n      tag_483\n        /* \"#utility.yul\":15983:15990   */\n      dup5\n        /* \"#utility.yul\":15974:15980   */\n      dup3\n        /* \"#utility.yul\":15963:15972   */\n      dup6\n        /* \"#utility.yul\":15959:15981   */\n      add\n        /* \"#utility.yul\":15930:15991   */\n      tag_289\n      jump\t// in\n    tag_483:\n        /* \"#utility.yul\":15920:15991   */\n      swap2\n      pop\n        /* \"#utility.yul\":15876:16001   */\n      pop\n        /* \"#utility.yul\":15663:16008   */\n      swap3\n      swap2\n      pop\n      pop\n      jump\t// out\n        /* \"#utility.yul\":16014:16187   */\n    tag_290:\n        /* \"#utility.yul\":16154:16179   */\n      0x5061796d656e74207472616e73666572206661696c6564000000000000000000\n        /* \"#utility.yul\":16150:16151   */\n      0x00\n        /* \"#utility.yul\":16142:16148   */\n      dup3\n        /* \"#utility.yul\":16138:16152   */\n      add\n        /* \"#utility.yul\":16131:16180   */\n      mstore\n        /* \"#utility.yul\":16014:16187   */\n      pop\n      jump\t// out\n        /* \"#utility.yul\":16193:16559   */\n    tag_291:\n        /* \"#utility.yul\":16335:16338   */\n      0x00\n        /* \"#utility.yul\":16356:16423   */\n      tag_486\n        /* \"#utility.yul\":16420:16422   */\n      0x17\n        /* \"#utility.yul\":16415:16418   */\n      dup4\n        /* \"#utility.yul\":16356:16423   */\n      tag_257\n      jump\t// in\n    tag_486:\n        /* \"#utility.yul\":16349:16423   */\n      swap2\n      pop\n        /* \"#utility.yul\":16432:16525   */\n      tag_487\n        /* \"#utility.yul\":16521:16524   */\n      dup3\n        /* \"#utility.yul\":16432:16525   */\n      tag_290\n      jump\t// in\n    tag_487:\n        /* \"#utility.yul\":16550:16552   */\n      0x20\n        /* \"#utility.yul\":16545:16548   */\n      dup3\n        /* \"#utility.yul\":16541:16553   */\n      add\n        /* \"#utility.yul\":16534:16553   */\n      swap1\n      pop\n        /* \"#utility.yul\":16193:16559   */\n      swap2\n      swap1\n      pop\n      jump\t// out\n        /* \"#utility.yul\":16565:16984   */\n    tag_77:\n        /* \"#utility.yul\":16731:16735   */\n      0x00\n        /* \"#utility.yul\":16769:16771   */\n      0x20\n        /* \"#utility.yul\":16758:16767   */\n      dup3\n        /* \"#utility.yul\":16754:16772   */\n      add\n        /* \"#utility.yul\":16746:16772   */\n      swap1\n      pop\n        /* \"#utility.yul\":16818:16827   */\n      dup2\n        /* \"#utility.yul\":16812:16816   */\n      dup2\n        /* \"#utility.yul\":16808:16828   */\n      sub\n        /* \"#utility.yul\":16804:16805   */\n      0x00\n        /* \"#utility.yul\":16793:16802   */\n      dup4\n        /* \"#utility.yul\":16789:16806   */\n      add\n        /* \"#utility.yul\":16782:16829   */\n      mstore\n        /* \"#utility.yul\":16846:16977   */\n      tag_489\n        /* \"#utility.yul\":16972:16976   */\n      dup2\n        /* \"#utility.yul\":16846:16977   */\n      tag_291\n      jump\t// in\n    tag_489:\n        /* \"#utility.yul\":16838:16977   */\n      swap1\n      pop\n        /* \"#utility.yul\":16565:16984   */\n      swap2\n      swap1\n      pop\n      jump\t// out\n        /* \"#utility.yul\":16990:17212   */\n    tag_81:\n        /* \"#utility.yul\":17083:17087   */\n      0x00\n        /* \"#utility.yul\":17121:17123   */\n      0x20\n        /* \"#utility.yul\":17110:17119   */\n      dup3\n        /* \"#utility.yul\":17106:17124   */\n      add\n        /* \"#utility.yul\":17098:17124   */\n      swap1\n      pop\n        /* \"#utility.yul\":17134:17205   */\n      tag_491\n        /* \"#utility.yul\":17202:17203   */\n      0x00\n        /* \"#utility.yul\":17191:17200   */\n      dup4\n        /* \"#utility.yul\":17187:17204   */\n      add\n        /* \"#utility.yul\":17178:17184   */\n      dup5\n        /* \"#utility.yul\":17134:17205   */\n      tag_254\n      jump\t// in\n    tag_491:\n        /* \"#utility.yul\":16990:17212   */\n      swap3\n      swap2\n      pop\n      pop\n      jump\t// out\n        /* \"#utility.yul\":17218:17398   */\n    tag_87:\n        /* \"#utility.yul\":17266:17343   */\n      0x4e487b7100000000000000000000000000000000000000000000000000000000\n        /* \"#utility.yul\":17263:17264   */\n      0x00\n        /* \"#utility.yul\":17256:17344   */\n      mstore\n        /* \"#utility.yul\":17363:17367   */\n      0x32\n        /* \"#utility.yul\":17360:17361   */\n      0x04\n        /* \"#utility.yul\":17353:17368   */\n      mstore\n        /* \"#utility.yul\":17387:17391   */\n      0x24\n        /* \"#utility.yul\":17384:17385   */\n      0x00\n        /* \"#utility.yul\":17377:17392   */\n      revert\n        /* \"#utility.yul\":17404:17547   */\n    tag_292:\n        /* \"#utility.yul\":17461:17466   */\n      0x00\n        /* \"#utility.yul\":17492:17498   */\n      dup2\n        /* \"#utility.yul\":17486:17499   */\n      mload\n        /* \"#utility.yul\":17477:17499   */\n      swap1\n      pop\n        /* \"#utility.yul\":17508:17541   */\n      tag_494\n        /* \"#utility.yul\":17535:17540   */\n      dup2\n        /* \"#utility.yul\":17508:17541   */\n      tag_249\n      jump\t// in\n    tag_494:\n        /* \"#utility.yul\":17404:17547   */\n      swap3\n      swap2\n      pop\n      pop\n      jump\t// out\n        /* \"#utility.yul\":17553:17904   */\n    tag_130:\n        /* \"#utility.yul\":17623:17629   */\n      0x00\n        /* \"#utility.yul\":17672:17674   */\n      0x20\n        /* \"#utility.yul\":17660:17669   */\n      dup3\n        /* \"#utility.yul\":17651:17658   */\n      dup5\n        /* \"#utility.yul\":17647:17670   */\n      sub\n        /* \"#utility.yul\":17643:17675   */\n      slt\n        /* \"#utility.yul\":17640:17759   */\n      iszero\n      tag_496\n      jumpi\n        /* \"#utility.yul\":17678:17757   */\n      tag_497\n      tag_245\n      jump\t// in\n    tag_497:\n        /* \"#utility.yul\":17640:17759   */\n    tag_496:\n        /* \"#utility.yul\":17798:17799   */\n      0x00\n        /* \"#utility.yul\":17823:17887   */\n      tag_498\n        /* \"#utility.yul\":17879:17886   */\n      dup5\n        /* \"#utility.yul\":17870:17876   */\n      dup3\n        /* \"#utility.yul\":17859:17868   */\n      dup6\n        /* \"#utility.yul\":17855:17877   */\n      add\n        /* \"#utility.yul\":17823:17887   */\n      tag_292\n      jump\t// in\n    tag_498:\n        /* \"#utility.yul\":17813:17887   */\n      swap2\n      pop\n        /* \"#utility.yul\":17769:17897   */\n      pop\n        /* \"#utility.yul\":17553:17904   */\n      swap3\n      swap2\n      pop\n      pop\n      jump\t// out\n        /* \"#utility.yul\":17910:18084   */\n    tag_293:\n        /* \"#utility.yul\":18050:18076   */\n      0x4e6f7420746865206f776e6572206f6620746865204e46540000000000000000\n        /* \"#utility.yul\":18046:18047   */\n      0x00\n        /* \"#utility.yul\":18038:18044   */\n      dup3\n        /* \"#utility.yul\":18034:18048   */\n      add\n        /* \"#utility.yul\":18027:18077   */\n      mstore\n        /* \"#utility.yul\":17910:18084   */\n      pop\n      jump\t// out\n        /* \"#utility.yul\":18090:18456   */\n    tag_294:\n        /* \"#utility.yul\":18232:18235   */\n      0x00\n        /* \"#utility.yul\":18253:18320   */\n      tag_501\n        /* \"#utility.yul\":18317:18319   */\n      0x18\n        /* \"#utility.yul\":18312:18315   */\n      dup4\n        /* \"#utility.yul\":18253:18320   */\n      tag_257\n      jump\t// in\n    tag_501:\n        /* \"#utility.yul\":18246:18320   */\n      swap2\n      pop\n        /* \"#utility.yul\":18329:18422   */\n      tag_502\n        /* \"#utility.yul\":18418:18421   */\n      dup3\n        /* \"#utility.yul\":18329:18422   */\n      tag_293\n      jump\t// in\n    tag_502:\n        /* \"#utility.yul\":18447:18449   */\n      0x20\n        /* \"#utility.yul\":18442:18445   */\n      dup3\n        /* \"#utility.yul\":18438:18450   */\n      add\n        /* \"#utility.yul\":18431:18450   */\n      swap1\n      pop\n        /* \"#utility.yul\":18090:18456   */\n      swap2\n      swap1\n      pop\n      jump\t// out\n        /* \"#utility.yul\":18462:18881   */\n    tag_133:\n        /* \"#utility.yul\":18628:18632   */\n      0x00\n        /* \"#utility.yul\":18666:18668   */\n      0x20\n        /* \"#utility.yul\":18655:18664   */\n      dup3\n        /* \"#utility.yul\":18651:18669   */\n      add\n        /* \"#utility.yul\":18643:18669   */\n      swap1\n      pop\n        /* \"#utility.yul\":18715:18724   */\n      dup2\n        /* \"#utility.yul\":18709:18713   */\n      dup2\n        /* \"#utility.yul\":18705:18725   */\n      sub\n        /* \"#utility.yul\":18701:18702   */\n      0x00\n        /* \"#utility.yul\":18690:18699   */\n      dup4\n        /* \"#utility.yul\":18686:18703   */\n      add\n        /* \"#utility.yul\":18679:18726   */\n      mstore\n        /* \"#utility.yul\":18743:18874   */\n      tag_504\n        /* \"#utility.yul\":18869:18873   */\n      dup2\n        /* \"#utility.yul\":18743:18874   */\n      tag_294\n      jump\t// in\n    tag_504:\n        /* \"#utility.yul\":18735:18874   */\n      swap1\n      pop\n        /* \"#utility.yul\":18462:18881   */\n      swap2\n      swap1\n      pop\n      jump\t// out\n        /* \"#utility.yul\":18887:19058   */\n    tag_295:\n        /* \"#utility.yul\":19027:19050   */\n      0x4e465420697320616c7265616479206c69737465640000000000000000000000\n        /* \"#utility.yul\":19023:19024   */\n      0x00\n        /* \"#utility.yul\":19015:19021   */\n      dup3\n        /* \"#utility.yul\":19011:19025   */\n      add\n        /* \"#utility.yul\":19004:19051   */\n      mstore\n        /* \"#utility.yul\":18887:19058   */\n      pop\n      jump\t// out\n        /* \"#utility.yul\":19064:19430   */\n    tag_296:\n        /* \"#utility.yul\":19206:19209   */\n      0x00\n        /* \"#utility.yul\":19227:19294   */\n      tag_507\n        /* \"#utility.yul\":19291:19293   */\n      0x15\n        /* \"#utility.yul\":19286:19289   */\n      dup4\n        /* \"#utility.yul\":19227:19294   */\n      tag_257\n      jump\t// in\n    tag_507:\n        /* \"#utility.yul\":19220:19294   */\n      swap2\n      pop\n        /* \"#utility.yul\":19303:19396   */\n      tag_508\n        /* \"#utility.yul\":19392:19395   */\n      dup3\n        /* \"#utility.yul\":19303:19396   */\n      tag_295\n      jump\t// in\n    tag_508:\n        /* \"#utility.yul\":19421:19423   */\n      0x20\n        /* \"#utility.yul\":19416:19419   */\n      dup3\n        /* \"#utility.yul\":19412:19424   */\n      add\n        /* \"#utility.yul\":19405:19424   */\n      swap1\n      pop\n        /* \"#utility.yul\":19064:19430   */\n      swap2\n      swap1\n      pop\n      jump\t// out\n        /* \"#utility.yul\":19436:19855   */\n    tag_137:\n        /* \"#utility.yul\":19602:19606   */\n      0x00\n        /* \"#utility.yul\":19640:19642   */\n      0x20\n        /* \"#utility.yul\":19629:19638   */\n      dup3\n        /* \"#utility.yul\":19625:19643   */\n      add\n        /* \"#utility.yul\":19617:19643   */\n      swap1\n      pop\n        /* \"#utility.yul\":19689:19698   */\n      dup2\n        /* \"#utility.yul\":19683:19687   */\n      dup2\n        /* \"#utility.yul\":19679:19699   */\n      sub\n        /* \"#utility.yul\":19675:19676   */\n      0x00\n        /* \"#utility.yul\":19664:19673   */\n      dup4\n        /* \"#utility.yul\":19660:19677   */\n      add\n        /* \"#utility.yul\":19653:19700   */\n      mstore\n        /* \"#utility.yul\":19717:19848   */\n      tag_510\n        /* \"#utility.yul\":19843:19847   */\n      dup2\n        /* \"#utility.yul\":19717:19848   */\n      tag_296\n      jump\t// in\n    tag_510:\n        /* \"#utility.yul\":19709:19848   */\n      swap1\n      pop\n        /* \"#utility.yul\":19436:19855   */\n      swap2\n      swap1\n      pop\n      jump\t// out\n        /* \"#utility.yul\":19861:20035   */\n    tag_297:\n        /* \"#utility.yul\":20001:20027   */\n      0x4d61726b6574706c616365206e6f7420617070726f7665640000000000000000\n        /* \"#utility.yul\":19997:19998   */\n      0x00\n        /* \"#utility.yul\":19989:19995   */\n      dup3\n        /* \"#utility.yul\":19985:19999   */\n      add\n        /* \"#utility.yul\":19978:20028   */\n      mstore\n        /* \"#utility.yul\":19861:20035   */\n      pop\n      jump\t// out\n        /* \"#utility.yul\":20041:20407   */\n    tag_298:\n        /* \"#utility.yul\":20183:20186   */\n      0x00\n        /* \"#utility.yul\":20204:20271   */\n      tag_513\n        /* \"#utility.yul\":20268:20270   */\n      0x18\n        /* \"#utility.yul\":20263:20266   */\n      dup4\n        /* \"#utility.yul\":20204:20271   */\n      tag_257\n      jump\t// in\n    tag_513:\n        /* \"#utility.yul\":20197:20271   */\n      swap2\n      pop\n        /* \"#utility.yul\":20280:20373   */\n      tag_514\n        /* \"#utility.yul\":20369:20372   */\n      dup3\n        /* \"#utility.yul\":20280:20373   */\n      tag_297\n      jump\t// in\n    tag_514:\n        /* \"#utility.yul\":20398:20400   */\n      0x20\n        /* \"#utility.yul\":20393:20396   */\n      dup3\n        /* \"#utility.yul\":20389:20401   */\n      add\n        /* \"#utility.yul\":20382:20401   */\n      swap1\n      pop\n        /* \"#utility.yul\":20041:20407   */\n      swap2\n      swap1\n      pop\n      jump\t// out\n        /* \"#utility.yul\":20413:20832   */\n    tag_147:\n        /* \"#utility.yul\":20579:20583   */\n      0x00\n        /* \"#utility.yul\":20617:20619   */\n      0x20\n        /* \"#utility.yul\":20606:20615   */\n      dup3\n        /* \"#utility.yul\":20602:20620   */\n      add\n        /* \"#utility.yul\":20594:20620   */\n      swap1\n      pop\n        /* \"#utility.yul\":20666:20675   */\n      dup2\n        /* \"#utility.yul\":20660:20664   */\n      dup2\n        /* \"#utility.yul\":20656:20676   */\n      sub\n        /* \"#utility.yul\":20652:20653   */\n      0x00\n        /* \"#utility.yul\":20641:20650   */\n      dup4\n        /* \"#utility.yul\":20637:20654   */\n      add\n        /* \"#utility.yul\":20630:20677   */\n      mstore\n        /* \"#utility.yul\":20694:20825   */\n      tag_516\n        /* \"#utility.yul\":20820:20824   */\n      dup2\n        /* \"#utility.yul\":20694:20825   */\n      tag_298\n      jump\t// in\n    tag_516:\n        /* \"#utility.yul\":20686:20825   */\n      swap1\n      pop\n        /* \"#utility.yul\":20413:20832   */\n      swap2\n      swap1\n      pop\n      jump\t// out\n        /* \"#utility.yul\":20838:20979   */\n    tag_299:\n        /* \"#utility.yul\":20887:20891   */\n      0x00\n        /* \"#utility.yul\":20910:20913   */\n      dup2\n        /* \"#utility.yul\":20902:20913   */\n      swap1\n      pop\n        /* \"#utility.yul\":20933:20936   */\n      dup2\n        /* \"#utility.yul\":20930:20931   */\n      0x00\n        /* \"#utility.yul\":20923:20937   */\n      mstore\n        /* \"#utility.yul\":20967:20971   */\n      0x20\n        /* \"#utility.yul\":20964:20965   */\n      0x00\n        /* \"#utility.yul\":20954:20972   */\n      keccak256\n        /* \"#utility.yul\":20946:20972   */\n      swap1\n      pop\n        /* \"#utility.yul\":20838:20979   */\n      swap2\n      swap1\n      pop\n      jump\t// out\n        /* \"#utility.yul\":20985:21078   */\n    tag_300:\n        /* \"#utility.yul\":21022:21028   */\n      0x00\n        /* \"#utility.yul\":21069:21071   */\n      0x20\n        /* \"#utility.yul\":21064:21066   */\n      0x1f\n        /* \"#utility.yul\":21057:21062   */\n      dup4\n        /* \"#utility.yul\":21053:21067   */\n      add\n        /* \"#utility.yul\":21049:21072   */\n      div\n        /* \"#utility.yul\":21039:21072   */\n      swap1\n      pop\n        /* \"#utility.yul\":20985:21078   */\n      swap2\n      swap1\n      pop\n      jump\t// out\n        /* \"#utility.yul\":21084:21191   */\n    tag_301:\n        /* \"#utility.yul\":21128:21136   */\n      0x00\n        /* \"#utility.yul\":21178:21183   */\n      dup3\n        /* \"#utility.yul\":21172:21176   */\n      dup3\n        /* \"#utility.yul\":21168:21184   */\n      shl\n        /* \"#utility.yul\":21147:21184   */\n      swap1\n      pop\n        /* \"#utility.yul\":21084:21191   */\n      swap3\n      swap2\n      pop\n      pop\n      jump\t// out\n        /* \"#utility.yul\":21197:21590   */\n    tag_302:\n        /* \"#utility.yul\":21266:21272   */\n      0x00\n        /* \"#utility.yul\":21316:21317   */\n      0x08\n        /* \"#utility.yul\":21304:21314   */\n      dup4\n        /* \"#utility.yul\":21300:21318   */\n      mul\n        /* \"#utility.yul\":21339:21436   */\n      tag_521\n        /* \"#utility.yul\":21369:21435   */\n      0xffffffffffffffffffffffffffffffffffffffffffffffffffffffffffffffff\n        /* \"#utility.yul\":21358:21367   */\n      dup3\n        /* \"#utility.yul\":21339:21436   */\n      tag_301\n      jump\t// in\n    tag_521:\n        /* \"#utility.yul\":21457:21496   */\n      tag_522\n        /* \"#utility.yul\":21487:21495   */\n      dup7\n        /* \"#utility.yul\":21476:21485   */\n      dup4\n        /* \"#utility.yul\":21457:21496   */\n      tag_301\n      jump\t// in\n    tag_522:\n        /* \"#utility.yul\":21445:21496   */\n      swap6\n      pop\n        /* \"#utility.yul\":21529:21533   */\n      dup1\n        /* \"#utility.yul\":21525:21534   */\n      not\n        /* \"#utility.yul\":21518:21523   */\n      dup5\n        /* \"#utility.yul\":21514:21535   */\n      and\n        /* \"#utility.yul\":21505:21535   */\n      swap4\n      pop\n        /* \"#utility.yul\":21578:21582   */\n      dup1\n        /* \"#utility.yul\":21568:21576   */\n      dup7\n        /* \"#utility.yul\":21564:21583   */\n      and\n        /* \"#utility.yul\":21557:21562   */\n      dup5\n        /* \"#utility.yul\":21554:21584   */\n      or\n        /* \"#utility.yul\":21544:21584   */\n      swap3\n      pop\n        /* \"#utility.yul\":21273:21590   */\n      pop\n      pop\n        /* \"#utility.yul\":21197:21590   */\n      swap4\n      swap3\n      pop\n      pop\n      pop\n      jump\t// out\n        /* \"#utility.yul\":21596:21738   */\n    tag_303:\n        /* \"#utility.yul\":21646:21655   */\n      0x00\n        /* \"#utility.yul\":21679:21732   */\n      tag_524\n        /* \"#utility.yul\":21697:21731   */\n      tag_525\n        /* \"#utility.yul\":21706:21730   */\n      tag_526\n        /* \"#utility.yul\":21724:21729   */\n      dup5\n        /* \"#utility.yul\":21706:21730   */\n      tag_251\n      jump\t// in\n    tag_526:\n        /* \"#utility.yul\":21697:21731   */\n      tag_261\n      jump\t// in\n    tag_525:\n        /* \"#utility.yul\":21679:21732   */\n      tag_251\n      jump\t// in\n    tag_524:\n        /* \"#utility.yul\":21666:21732   */\n      swap1\n      pop\n        /* \"#utility.yul\":21596:21738   */\n      swap2\n      swap1\n      pop\n      jump\t// out\n        /* \"#utility.yul\":21744:21819   */\n    tag_304:\n        /* \"#utility.yul\":21787:21790   */\n      0x00\n        /* \"#utility.yul\":21808:21813   */\n      dup2\n        /* \"#utility.yul\":21801:21813   */\n      swap1\n      pop\n        /* \"#utility.yul\":21744:21819   */\n      swap2\n      swap1\n      pop\n      jump\t// out\n        /* \"#utility.yul\":21825:22094   */\n    tag_305:\n        /* \"#utility.yul\":21935:21974   */\n      tag_529\n        /* \"#utility.yul\":21966:21973   */\n      dup4\n        /* \"#utility.yul\":21935:21974   */\n      tag_303\n      jump\t// in\n    tag_529:\n        /* \"#utility.yul\":21996:22087   */\n      tag_530\n        /* \"#utility.yul\":22045:22086   */\n      tag_531\n        /* \"#utility.yul\":22069:22085   */\n      dup3\n        /* \"#utility.yul\":22045:22086   */\n      tag_304\n      jump\t// in\n    tag_531:\n        /* \"#utility.yul\":22037:22043   */\n      dup5\n        /* \"#utility.yul\":22030:22034   */\n      dup5\n        /* \"#utility.yul\":22024:22035   */\n      sload\n        /* \"#utility.yul\":21996:22087   */\n      tag_302\n      jump\t// in\n    tag_530:\n        /* \"#utility.yul\":21990:21994   */\n      dup3\n        /* \"#utility.yul\":21983:22088   */\n      sstore\n        /* \"#utility.yul\":21901:22094   */\n      pop\n        /* \"#utility.yul\":21825:22094   */\n      pop\n      pop\n      pop\n      jump\t// out\n        /* \"#utility.yul\":22100:22173   */\n    tag_306:\n        /* \"#utility.yul\":22145:22148   */\n      0x00\n        /* \"#utility.yul\":22100:22173   */\n      swap1\n      jump\t// out\n        /* \"#utility.yul\":22179:22368   */\n    tag_307:\n        /* \"#utility.yul\":22256:22288   */\n      tag_534\n      tag_306\n      jump\t// in\n    tag_534:\n        /* \"#utility.yul\":22297:22362   */\n      tag_535\n        /* \"#utility.yul\":22355:22361   */\n      dup2\n        /* \"#utility.yul\":22347:22353   */\n      dup5\n        /* \"#utility.yul\":22341:22345   */\n      dup5\n        /* \"#utility.yul\":22297:22362   */\n      tag_305\n      jump\t// in\n    tag_535:\n        /* \"#utility.yul\":22232:22368   */\n      pop\n        /* \"#utility.yul\":22179:22368   */\n      pop\n      pop\n      jump\t// out\n        /* \"#utility.yul\":22374:22560   */\n    tag_308:\n        /* \"#utility.yul\":22434:22554   */\n    tag_537:\n        /* \"#utility.yul\":22451:22454   */\n      dup2\n        /* \"#utility.yul\":22444:22449   */\n      dup2\n        /* \"#utility.yul\":22441:22455   */\n      lt\n        /* \"#utility.yul\":22434:22554   */\n      iszero\n      tag_539\n      jumpi\n        /* \"#utility.yul\":22505:22544   */\n      tag_540\n        /* \"#utility.yul\":22542:22543   */\n      0x00\n        /* \"#utility.yul\":22535:22540   */\n      dup3\n        /* \"#utility.yul\":22505:22544   */\n      tag_307\n      jump\t// in\n    tag_540:\n        /* \"#utility.yul\":22478:22479   */\n      0x01\n        /* \"#utility.yul\":22471:22476   */\n      dup2\n        /* \"#utility.yul\":22467:22480   */\n      add\n        /* \"#utility.yul\":22458:22480   */\n      swap1\n      pop\n        /* \"#utility.yul\":22434:22554   */\n      jump(tag_537)\n    tag_539:\n        /* \"#utility.yul\":22374:22560   */\n      pop\n      pop\n      jump\t// out\n        /* \"#utility.yul\":22566:23109   */\n    tag_309:\n        /* \"#utility.yul\":22667:22669   */\n      0x1f\n        /* \"#utility.yul\":22662:22665   */\n      dup3\n        /* \"#utility.yul\":22659:22670   */\n      gt\n        /* \"#utility.yul\":22656:23102   */\n      iszero\n      tag_542\n      jumpi\n        /* \"#utility.yul\":22701:22739   */\n      tag_543\n        /* \"#utility.yul\":22733:22738   */\n      dup2\n        /* \"#utility.yul\":22701:22739   */\n      tag_299\n      jump\t// in\n    tag_543:\n        /* \"#utility.yul\":22785:22814   */\n      tag_544\n        /* \"#utility.yul\":22803:22813   */\n      dup5\n        /* \"#utility.yul\":22785:22814   */\n      tag_300\n      jump\t// in\n    tag_544:\n        /* \"#utility.yul\":22775:22783   */\n      dup2\n        /* \"#utility.yul\":22771:22815   */\n      add\n        /* \"#utility.yul\":22968:22970   */\n      0x20\n        /* \"#utility.yul\":22956:22966   */\n      dup6\n        /* \"#utility.yul\":22953:22971   */\n      lt\n        /* \"#utility.yul\":22950:22999   */\n      iszero\n      tag_545\n      jumpi\n        /* \"#utility.yul\":22989:22997   */\n      dup2\n        /* \"#utility.yul\":22974:22997   */\n      swap1\n      pop\n        /* \"#utility.yul\":22950:22999   */\n    tag_545:\n        /* \"#utility.yul\":23012:23092   */\n      tag_546\n        /* \"#utility.yul\":23068:23090   */\n      tag_547\n        /* \"#utility.yul\":23086:23089   */\n      dup6\n        /* \"#utility.yul\":23068:23090   */\n      tag_300\n      jump\t// in\n    tag_547:\n        /* \"#utility.yul\":23058:23066   */\n      dup4\n        /* \"#utility.yul\":23054:23091   */\n      add\n        /* \"#utility.yul\":23041:23052   */\n      dup3\n        /* \"#utility.yul\":23012:23092   */\n      tag_308\n      jump\t// in\n    tag_546:\n        /* \"#utility.yul\":22671:23102   */\n      pop\n      pop\n        /* \"#utility.yul\":22656:23102   */\n    tag_542:\n        /* \"#utility.yul\":22566:23109   */\n      pop\n      pop\n      pop\n      jump\t// out\n        /* \"#utility.yul\":23115:23232   */\n    tag_310:\n        /* \"#utility.yul\":23169:23177   */\n      0x00\n        /* \"#utility.yul\":23219:23224   */\n      dup3\n        /* \"#utility.yul\":23213:23217   */\n      dup3\n        /* \"#utility.yul\":23209:23225   */\n      shr\n        /* \"#utility.yul\":23188:23225   */\n      swap1\n      pop\n        /* \"#utility.yul\":23115:23232   */\n      swap3\n      swap2\n      pop\n      pop\n      jump\t// out\n        /* \"#utility.yul\":23238:23407   */\n    tag_311:\n        /* \"#utility.yul\":23282:23288   */\n      0x00\n        /* \"#utility.yul\":23315:23366   */\n      tag_550\n        /* \"#utility.yul\":23363:23364   */\n      0x00\n        /* \"#utility.yul\":23359:23365   */\n      not\n        /* \"#utility.yul\":23351:23356   */\n      dup5\n        /* \"#utility.yul\":23348:23349   */\n      0x08\n        /* \"#utility.yul\":23344:23357   */\n      mul\n        /* \"#utility.yul\":23315:23366   */\n      tag_310\n      jump\t// in\n    tag_550:\n        /* \"#utility.yul\":23311:23367   */\n      not\n        /* \"#utility.yul\":23396:23400   */\n      dup1\n        /* \"#utility.yul\":23390:23394   */\n      dup4\n        /* \"#utility.yul\":23386:23401   */\n      and\n        /* \"#utility.yul\":23376:23401   */\n      swap2\n      pop\n        /* \"#utility.yul\":23289:23407   */\n      pop\n        /* \"#utility.yul\":23238:23407   */\n      swap3\n      swap2\n      pop\n      pop\n      jump\t// out\n        /* \"#utility.yul\":23412:23707   */\n    tag_312:\n        /* \"#utility.yul\":23488:23492   */\n      0x00\n        /* \"#utility.yul\":23634:23663   */\n      tag_552\n        /* \"#utility.yul\":23659:23662   */\n      dup4\n        /* \"#utility.yul\":23653:23657   */\n      dup4\n        /* \"#utility.yul\":23634:23663   */\n      tag_311\n      jump\t// in\n    tag_552:\n        /* \"#utility.yul\":23626:23663   */\n      swap2\n      pop\n        /* \"#utility.yul\":23696:23699   */\n      dup3\n        /* \"#utility.yul\":23693:23694   */\n      0x02\n        /* \"#utility.yul\":23689:23700   */\n      mul\n        /* \"#utility.yul\":23683:23687   */\n      dup3\n        /* \"#utility.yul\":23680:23701   */\n      or\n        /* \"#utility.yul\":23672:23701   */\n      swap1\n      pop\n        /* \"#utility.yul\":23412:23707   */\n      swap3\n      swap2\n      pop\n      pop\n      jump\t// out\n        /* \"#utility.yul\":23712:25107   */\n    tag_149:\n        /* \"#utility.yul\":23829:23866   */\n      tag_554\n        /* \"#utility.yul\":23862:23865   */\n      dup3\n        /* \"#utility.yul\":23829:23866   */\n      tag_256\n      jump\t// in\n    tag_554:\n        /* \"#utility.yul\":23931:23949   */\n      0xffffffffffffffff\n        /* \"#utility.yul\":23923:23929   */\n      dup2\n        /* \"#utility.yul\":23920:23950   */\n      gt\n        /* \"#utility.yul\":23917:23973   */\n      iszero\n      tag_555\n      jumpi\n        /* \"#utility.yul\":23953:23971   */\n      tag_556\n      tag_268\n      jump\t// in\n    tag_556:\n        /* \"#utility.yul\":23917:23973   */\n    tag_555:\n        /* \"#utility.yul\":23997:24035   */\n      tag_557\n        /* \"#utility.yul\":24029:24033   */\n      dup3\n        /* \"#utility.yul\":24023:24034   */\n      sload\n        /* \"#utility.yul\":23997:24035   */\n      tag_55\n      jump\t// in\n    tag_557:\n        /* \"#utility.yul\":24082:24149   */\n      tag_558\n        /* \"#utility.yul\":24142:24148   */\n      dup3\n        /* \"#utility.yul\":24134:24140   */\n      dup3\n        /* \"#utility.yul\":24128:24132   */\n      dup6\n        /* \"#utility.yul\":24082:24149   */\n      tag_309\n      jump\t// in\n    tag_558:\n        /* \"#utility.yul\":24176:24177   */\n      0x00\n        /* \"#utility.yul\":24200:24204   */\n      0x20\n        /* \"#utility.yul\":24187:24204   */\n      swap1\n      pop\n        /* \"#utility.yul\":24232:24234   */\n      0x1f\n        /* \"#utility.yul\":24224:24230   */\n      dup4\n        /* \"#utility.yul\":24221:24235   */\n      gt\n        /* \"#utility.yul\":24249:24250   */\n      0x01\n        /* \"#utility.yul\":24244:24862   */\n      dup2\n      eq\n      tag_560\n      jumpi\n        /* \"#utility.yul\":24906:24907   */\n      0x00\n        /* \"#utility.yul\":24923:24929   */\n      dup5\n        /* \"#utility.yul\":24920:24997   */\n      iszero\n      tag_561\n      jumpi\n        /* \"#utility.yul\":24972:24981   */\n      dup3\n        /* \"#utility.yul\":24967:24970   */\n      dup8\n        /* \"#utility.yul\":24963:24982   */\n      add\n        /* \"#utility.yul\":24957:24983   */\n      mload\n        /* \"#utility.yul\":24948:24983   */\n      swap1\n      pop\n        /* \"#utility.yul\":24920:24997   */\n    tag_561:\n        /* \"#utility.yul\":25023:25090   */\n      tag_562\n        /* \"#utility.yul\":25083:25089   */\n      dup6\n        /* \"#utility.yul\":25076:25081   */\n      dup3\n        /* \"#utility.yul\":25023:25090   */\n      tag_312\n      jump\t// in\n    tag_562:\n        /* \"#utility.yul\":25017:25021   */\n      dup7\n        /* \"#utility.yul\":25010:25091   */\n      sstore\n        /* \"#utility.yul\":24879:25101   */\n      pop\n        /* \"#utility.yul\":24214:25101   */\n      jump(tag_559)\n        /* \"#utility.yul\":24244:24862   */\n    tag_560:\n        /* \"#utility.yul\":24296:24300   */\n      0x1f\n        /* \"#utility.yul\":24292:24301   */\n      not\n        /* \"#utility.yul\":24284:24290   */\n      dup5\n        /* \"#utility.yul\":24280:24302   */\n      and\n        /* \"#utility.yul\":24330:24367   */\n      tag_563\n        /* \"#utility.yul\":24362:24366   */\n      dup7\n        /* \"#utility.yul\":24330:24367   */\n      tag_299\n      jump\t// in\n    tag_563:\n        /* \"#utility.yul\":24389:24390   */\n      0x00\n        /* \"#utility.yul\":24403:24611   */\n    tag_564:\n        /* \"#utility.yul\":24417:24424   */\n      dup3\n        /* \"#utility.yul\":24414:24415   */\n      dup2\n        /* \"#utility.yul\":24411:24425   */\n      lt\n        /* \"#utility.yul\":24403:24611   */\n      iszero\n      tag_566\n      jumpi\n        /* \"#utility.yul\":24496:24505   */\n      dup5\n        /* \"#utility.yul\":24491:24494   */\n      dup10\n        /* \"#utility.yul\":24487:24506   */\n      add\n        /* \"#utility.yul\":24481:24507   */\n      mload\n        /* \"#utility.yul\":24473:24479   */\n      dup3\n        /* \"#utility.yul\":24466:24508   */\n      sstore\n        /* \"#utility.yul\":24547:24548   */\n      0x01\n        /* \"#utility.yul\":24539:24545   */\n      dup3\n        /* \"#utility.yul\":24535:24549   */\n      add\n        /* \"#utility.yul\":24525:24549   */\n      swap2\n      pop\n        /* \"#utility.yul\":24594:24596   */\n      0x20\n        /* \"#utility.yul\":24583:24592   */\n      dup6\n        /* \"#utility.yul\":24579:24597   */\n      add\n        /* \"#utility.yul\":24566:24597   */\n      swap5\n      pop\n        /* \"#utility.yul\":24440:24444   */\n      0x20\n        /* \"#utility.yul\":24437:24438   */\n      dup2\n        /* \"#utility.yul\":24433:24445   */\n      add\n        /* \"#utility.yul\":24428:24445   */\n      swap1\n      pop\n        /* \"#utility.yul\":24403:24611   */\n      jump(tag_564)\n    tag_566:\n        /* \"#utility.yul\":24639:24645   */\n      dup7\n        /* \"#utility.yul\":24630:24637   */\n      dup4\n        /* \"#utility.yul\":24627:24646   */\n      lt\n        /* \"#utility.yul\":24624:24803   */\n      iszero\n      tag_567\n      jumpi\n        /* \"#utility.yul\":24697:24706   */\n      dup5\n        /* \"#utility.yul\":24692:24695   */\n      dup10\n        /* \"#utility.yul\":24688:24707   */\n      add\n        /* \"#utility.yul\":24682:24708   */\n      mload\n        /* \"#utility.yul\":24740:24788   */\n      tag_568\n        /* \"#utility.yul\":24782:24786   */\n      0x1f\n        /* \"#utility.yul\":24774:24780   */\n      dup10\n        /* \"#utility.yul\":24770:24787   */\n      and\n        /* \"#utility.yul\":24759:24768   */\n      dup3\n        /* \"#utility.yul\":24740:24788   */\n      tag_311\n      jump\t// in\n    tag_568:\n        /* \"#utility.yul\":24732:24738   */\n      dup4\n        /* \"#utility.yul\":24725:24789   */\n      sstore\n        /* \"#utility.yul\":24647:24803   */\n      pop\n        /* \"#utility.yul\":24624:24803   */\n    tag_567:\n        /* \"#utility.yul\":24849:24850   */\n      0x01\n        /* \"#utility.yul\":24845:24846   */\n      0x02\n        /* \"#utility.yul\":24837:24843   */\n      dup9\n        /* \"#utility.yul\":24833:24847   */\n      mul\n        /* \"#utility.yul\":24829:24851   */\n      add\n        /* \"#utility.yul\":24823:24827   */\n      dup9\n        /* \"#utility.yul\":24816:24852   */\n      sstore\n        /* \"#utility.yul\":24251:24862   */\n      pop\n      pop\n      pop\n        /* \"#utility.yul\":24214:25101   */\n    tag_559:\n      pop\n        /* \"#utility.yul\":23804:25107   */\n      pop\n      pop\n      pop\n        /* \"#utility.yul\":23712:25107   */\n      pop\n      pop\n      jump\t// out\n        /* \"#utility.yul\":25113:25536   */\n    tag_152:\n        /* \"#utility.yul\":25254:25258   */\n      0x00\n        /* \"#utility.yul\":25292:25294   */\n      0x40\n        /* \"#utility.yul\":25281:25290   */\n      dup3\n        /* \"#utility.yul\":25277:25295   */\n      add\n        /* \"#utility.yul\":25269:25295   */\n      swap1\n      pop\n        /* \"#utility.yul\":25305:25376   */\n      tag_570\n        /* \"#utility.yul\":25373:25374   */\n      0x00\n        /* \"#utility.yul\":25362:25371   */\n      dup4\n        /* \"#utility.yul\":25358:25375   */\n      add\n        /* \"#utility.yul\":25349:25355   */\n      dup6\n        /* \"#utility.yul\":25305:25376   */\n      tag_254\n      jump\t// in\n    tag_570:\n        /* \"#utility.yul\":25423:25432   */\n      dup2\n        /* \"#utility.yul\":25417:25421   */\n      dup2\n        /* \"#utility.yul\":25413:25433   */\n      sub\n        /* \"#utility.yul\":25408:25410   */\n      0x20\n        /* \"#utility.yul\":25397:25406   */\n      dup4\n        /* \"#utility.yul\":25393:25411   */\n      add\n        /* \"#utility.yul\":25386:25434   */\n      mstore\n        /* \"#utility.yul\":25451:25529   */\n      tag_571\n        /* \"#utility.yul\":25524:25528   */\n      dup2\n        /* \"#utility.yul\":25515:25521   */\n      dup5\n        /* \"#utility.yul\":25451:25529   */\n      tag_260\n      jump\t// in\n    tag_571:\n        /* \"#utility.yul\":25443:25529   */\n      swap1\n      pop\n        /* \"#utility.yul\":25113:25536   */\n      swap4\n      swap3\n      pop\n      pop\n      pop\n      jump\t// out\n        /* \"#utility.yul\":25542:25709   */\n    tag_313:\n        /* \"#utility.yul\":25682:25701   */\n      0x4e4654206973206e6f74206c6973746564000000000000000000000000000000\n        /* \"#utility.yul\":25678:25679   */\n      0x00\n        /* \"#utility.yul\":25670:25676   */\n      dup3\n        /* \"#utility.yul\":25666:25680   */\n      add\n        /* \"#utility.yul\":25659:25702   */\n      mstore\n        /* \"#utility.yul\":25542:25709   */\n      pop\n      jump\t// out\n        /* \"#utility.yul\":25715:26081   */\n    tag_314:\n        /* \"#utility.yul\":25857:25860   */\n      0x00\n        /* \"#utility.yul\":25878:25945   */\n      tag_574\n        /* \"#utility.yul\":25942:25944   */\n      0x11\n        /* \"#utility.yul\":25937:25940   */\n      dup4\n        /* \"#utility.yul\":25878:25945   */\n      tag_257\n      jump\t// in\n    tag_574:\n        /* \"#utility.yul\":25871:25945   */\n      swap2\n      pop\n        /* \"#utility.yul\":25954:26047   */\n      tag_575\n        /* \"#utility.yul\":26043:26046   */\n      dup3\n        /* \"#utility.yul\":25954:26047   */\n      tag_313\n      jump\t// in\n    tag_575:\n        /* \"#utility.yul\":26072:26074   */\n      0x20\n        /* \"#utility.yul\":26067:26070   */\n      dup3\n        /* \"#utility.yul\":26063:26075   */\n      add\n        /* \"#utility.yul\":26056:26075   */\n      swap1\n      pop\n        /* \"#utility.yul\":25715:26081   */\n      swap2\n      swap1\n      pop\n      jump\t// out\n        /* \"#utility.yul\":26087:26506   */\n    tag_159:\n        /* \"#utility.yul\":26253:26257   */\n      0x00\n        /* \"#utility.yul\":26291:26293   */\n      0x20\n        /* \"#utility.yul\":26280:26289   */\n      dup3\n        /* \"#utility.yul\":26276:26294   */\n      add\n        /* \"#utility.yul\":26268:26294   */\n      swap1\n      pop\n        /* \"#utility.yul\":26340:26349   */\n      dup2\n        /* \"#utility.yul\":26334:26338   */\n      dup2\n        /* \"#utility.yul\":26330:26350   */\n      sub\n        /* \"#utility.yul\":26326:26327   */\n      0x00\n        /* \"#utility.yul\":26315:26324   */\n      dup4\n        /* \"#utility.yul\":26311:26328   */\n      add\n        /* \"#utility.yul\":26304:26351   */\n      mstore\n        /* \"#utility.yul\":26368:26499   */\n      tag_577\n        /* \"#utility.yul\":26494:26498   */\n      dup2\n        /* \"#utility.yul\":26368:26499   */\n      tag_314\n      jump\t// in\n    tag_577:\n        /* \"#utility.yul\":26360:26499   */\n      swap1\n      pop\n        /* \"#utility.yul\":26087:26506   */\n      swap2\n      swap1\n      pop\n      jump\t// out\n        /* \"#utility.yul\":26512:26681   */\n    tag_315:\n        /* \"#utility.yul\":26652:26673   */\n      0x496e646578206f7574206f6620626f756e647300000000000000000000000000\n        /* \"#utility.yul\":26648:26649   */\n      0x00\n        /* \"#utility.yul\":26640:26646   */\n      dup3\n        /* \"#utility.yul\":26636:26650   */\n      add\n        /* \"#utility.yul\":26629:26674   */\n      mstore\n        /* \"#utility.yul\":26512:26681   */\n      pop\n      jump\t// out\n        /* \"#utility.yul\":26687:27053   */\n    tag_316:\n        /* \"#utility.yul\":26829:26832   */\n      0x00\n        /* \"#utility.yul\":26850:26917   */\n      tag_580\n        /* \"#utility.yul\":26914:26916   */\n      0x13\n        /* \"#utility.yul\":26909:26912   */\n      dup4\n        /* \"#utility.yul\":26850:26917   */\n      tag_257\n      jump\t// in\n    tag_580:\n        /* \"#utility.yul\":26843:26917   */\n      swap2\n      pop\n        /* \"#utility.yul\":26926:27019   */\n      tag_581\n        /* \"#utility.yul\":27015:27018   */\n      dup3\n        /* \"#utility.yul\":26926:27019   */\n      tag_315\n      jump\t// in\n    tag_581:\n        /* \"#utility.yul\":27044:27046   */\n      0x20\n        /* \"#utility.yul\":27039:27042   */\n      dup3\n        /* \"#utility.yul\":27035:27047   */\n      add\n        /* \"#utility.yul\":27028:27047   */\n      swap1\n      pop\n        /* \"#utility.yul\":26687:27053   */\n      swap2\n      swap1\n      pop\n      jump\t// out\n        /* \"#utility.yul\":27059:27478   */\n    tag_219:\n        /* \"#utility.yul\":27225:27229   */\n      0x00\n        /* \"#utility.yul\":27263:27265   */\n      0x20\n        /* \"#utility.yul\":27252:27261   */\n      dup3\n        /* \"#utility.yul\":27248:27266   */\n      add\n        /* \"#utility.yul\":27240:27266   */\n      swap1\n      pop\n        /* \"#utility.yul\":27312:27321   */\n      dup2\n        /* \"#utility.yul\":27306:27310   */\n      dup2\n        /* \"#utility.yul\":27302:27322   */\n      sub\n        /* \"#utility.yul\":27298:27299   */\n      0x00\n        /* \"#utility.yul\":27287:27296   */\n      dup4\n        /* \"#utility.yul\":27283:27300   */\n      add\n        /* \"#utility.yul\":27276:27323   */\n      mstore\n        /* \"#utility.yul\":27340:27471   */\n      tag_583\n        /* \"#utility.yul\":27466:27470   */\n      dup2\n        /* \"#utility.yul\":27340:27471   */\n      tag_316\n      jump\t// in\n    tag_583:\n        /* \"#utility.yul\":27332:27471   */\n      swap1\n      pop\n        /* \"#utility.yul\":27059:27478   */\n      swap2\n      swap1\n      pop\n      jump\t// out\n        /* \"#utility.yul\":27484:27664   */\n    tag_317:\n        /* \"#utility.yul\":27532:27609   */\n      0x4e487b7100000000000000000000000000000000000000000000000000000000\n        /* \"#utility.yul\":27529:27530   */\n      0x00\n        /* \"#utility.yul\":27522:27610   */\n      mstore\n        /* \"#utility.yul\":27629:27633   */\n      0x11\n        /* \"#utility.yul\":27626:27627   */\n      0x04\n        /* \"#utility.yul\":27619:27634   */\n      mstore\n        /* \"#utility.yul\":27653:27657   */\n      0x24\n        /* \"#utility.yul\":27650:27651   */\n      0x00\n        /* \"#utility.yul\":27643:27658   */\n      revert\n        /* \"#utility.yul\":27670:27864   */\n    tag_221:\n        /* \"#utility.yul\":27710:27714   */\n      0x00\n        /* \"#utility.yul\":27730:27750   */\n      tag_586\n        /* \"#utility.yul\":27748:27749   */\n      dup3\n        /* \"#utility.yul\":27730:27750   */\n      tag_251\n      jump\t// in\n    tag_586:\n        /* \"#utility.yul\":27725:27750   */\n      swap2\n      pop\n        /* \"#utility.yul\":27764:27784   */\n      tag_587\n        /* \"#utility.yul\":27782:27783   */\n      dup4\n        /* \"#utility.yul\":27764:27784   */\n      tag_251\n      jump\t// in\n    tag_587:\n        /* \"#utility.yul\":27759:27784   */\n      swap3\n      pop\n        /* \"#utility.yul\":27808:27809   */\n      dup3\n        /* \"#utility.yul\":27805:27806   */\n      dup3\n        /* \"#utility.yul\":27801:27810   */\n      sub\n        /* \"#utility.yul\":27793:27810   */\n      swap1\n      pop\n        /* \"#utility.yul\":27832:27833   */\n      dup2\n        /* \"#utility.yul\":27826:27830   */\n      dup2\n        /* \"#utility.yul\":27823:27834   */\n      gt\n        /* \"#utility.yul\":27820:27857   */\n      iszero\n      tag_588\n      jumpi\n        /* \"#utility.yul\":27837:27855   */\n      tag_589\n      tag_317\n      jump\t// in\n    tag_589:\n        /* \"#utility.yul\":27820:27857   */\n    tag_588:\n        /* \"#utility.yul\":27670:27864   */\n      swap3\n      swap2\n      pop\n      pop\n      jump\t// out\n        /* \"#utility.yul\":27870:28050   */\n    tag_230:\n        /* \"#utility.yul\":27918:27995   */\n      0x4e487b7100000000000000000000000000000000000000000000000000000000\n        /* \"#utility.yul\":27915:27916   */\n      0x00\n        /* \"#utility.yul\":27908:27996   */\n      mstore\n        /* \"#utility.yul\":28015:28019   */\n      0x31\n        /* \"#utility.yul\":28012:28013   */\n      0x04\n        /* \"#utility.yul\":28005:28020   */\n      mstore\n        /* \"#utility.yul\":28039:28043   */\n      0x24\n        /* \"#utility.yul\":28036:28037   */\n      0x00\n        /* \"#utility.yul\":28029:28044   */\n      revert\n        /* \"#utility.yul\":28056:28237   */\n    tag_318:\n        /* \"#utility.yul\":28196:28229   */\n      0x5265656e7472616e637947756172643a207265656e7472616e742063616c6c00\n        /* \"#utility.yul\":28192:28193   */\n      0x00\n        /* \"#utility.yul\":28184:28190   */\n      dup3\n        /* \"#utility.yul\":28180:28194   */\n      add\n        /* \"#utility.yul\":28173:28230   */\n      mstore\n        /* \"#utility.yul\":28056:28237   */\n      pop\n      jump\t// out\n        /* \"#utility.yul\":28243:28609   */\n    tag_319:\n        /* \"#utility.yul\":28385:28388   */\n      0x00\n        /* \"#utility.yul\":28406:28473   */\n      tag_593\n        /* \"#utility.yul\":28470:28472   */\n      0x1f\n        /* \"#utility.yul\":28465:28468   */\n      dup4\n        /* \"#utility.yul\":28406:28473   */\n      tag_257\n      jump\t// in\n    tag_593:\n        /* \"#utility.yul\":28399:28473   */\n      swap2\n      pop\n        /* \"#utility.yul\":28482:28575   */\n      tag_594\n        /* \"#utility.yul\":28571:28574   */\n      dup3\n        /* \"#utility.yul\":28482:28575   */\n      tag_318\n      jump\t// in\n    tag_594:\n        /* \"#utility.yul\":28600:28602   */\n      0x20\n        /* \"#utility.yul\":28595:28598   */\n      dup3\n        /* \"#utility.yul\":28591:28603   */\n      add\n        /* \"#utility.yul\":28584:28603   */\n      swap1\n      pop\n        /* \"#utility.yul\":28243:28609   */\n      swap2\n      swap1\n      pop\n      jump\t// out\n        /* \"#utility.yul\":28615:29034   */\n    tag_235:\n        /* \"#utility.yul\":28781:28785   */\n      0x00\n        /* \"#utility.yul\":28819:28821   */\n      0x20\n        /* \"#utility.yul\":28808:28817   */\n      dup3\n        /* \"#utility.yul\":28804:28822   */\n      add\n        /* \"#utility.yul\":28796:28822   */\n      swap1\n      pop\n        /* \"#utility.yul\":28868:28877   */\n      dup2\n        /* \"#utility.yul\":28862:28866   */\n      dup2\n        /* \"#utility.yul\":28858:28878   */\n      sub\n        /* \"#utility.yul\":28854:28855   */\n      0x00\n        /* \"#utility.yul\":28843:28852   */\n      dup4\n        /* \"#utility.yul\":28839:28856   */\n      add\n        /* \"#utility.yul\":28832:28879   */\n      mstore\n        /* \"#utility.yul\":28896:29027   */\n      tag_596\n        /* \"#utility.yul\":29022:29026   */\n      dup2\n        /* \"#utility.yul\":28896:29027   */\n      tag_319\n      jump\t// in\n    tag_596:\n        /* \"#utility.yul\":28888:29027   */\n      swap1\n      pop\n        /* \"#utility.yul\":28615:29034   */\n      swap2\n      swap1\n      pop\n      jump\t// out\n\n    auxdata: 0xa2646970667358221220935b5bd7df53ee7af39ba7350961032b6d3c77344f29117914cb82468b97d56f64736f6c634300081a0033\n}\n",
				"bytecode": {
					"linkReferences": {},
					"object": "608060405234801561000f575f80fd5b50604051612af9380380612af9833981810160405281019061003191906100dc565b60015f819055508060035f6101000a81548173ffffffffffffffffffffffffffffffffffffffff021916908373ffffffffffffffffffffffffffffffffffffffff16021790555050610107565b5f80fd5b5f73ffffffffffffffffffffffffffffffffffffffff82169050919050565b5f6100ab82610082565b9050919050565b6100bb816100a1565b81146100c5575f80fd5b50565b5f815190506100d6816100b2565b92915050565b5f602082840312156100f1576100f061007e565b5b5f6100fe848285016100c8565b91505092915050565b6129e5806101145f395ff3fe608060405234801561000f575f80fd5b5060043610610090575f3560e01c8063a01dc41f11610064578063a01dc41f14610130578063a044178014610161578063a82ba76f1461017d578063a91ffcea14610199578063b2ddee06146101ca57610090565b806207df30146100945780633013ce29146100c65780638230584d146100e457806388700d1c14610100575b5f80fd5b6100ae60048036038101906100a99190611c0d565b6101e6565b6040516100bd93929190611cd9565b60405180910390f35b6100ce6102bc565b6040516100db9190611d70565b60405180910390f35b6100fe60048036038101906100f99190611eb5565b6102e1565b005b61011a60048036038101906101159190611c0d565b610a4e565b6040516101279190611fc2565b60405180910390f35b61014a60048036038101906101459190611fe2565b610ba3565b60405161015892919061200d565b60405180910390f35b61017b60048036038101906101769190612034565b610bf1565b005b61019760048036038101906101929190611c0d565b611096565b005b6101b360048036038101906101ae91906120b4565b61159a565b6040516101c19291906120fb565b60405180910390f35b6101e460048036038101906101df9190611c0d565b6115f1565b005b6001602052815f5260405f20602052805f5260405f205f9150915050805f015490806001015f9054906101000a900473ffffffffffffffffffffffffffffffffffffffff169080600201805461023b9061214f565b80601f01602080910402602001604051908101604052809291908181526020018280546102679061214f565b80156102b25780601f10610289576101008083540402835291602001916102b2565b820191905f5260205f20905b81548152906001019060200180831161029557829003601f168201915b5050505050905083565b60035f9054906101000a900473ffffffffffffffffffffffffffffffffffffffff1681565b5f8111610323576040517f08c379a000000000000000000000000000000000000000000000000000000000815260040161031a906121c9565b60405180910390fd5b5f73ffffffffffffffffffffffffffffffffffffffff1660028360405161034a9190612221565b90815260200160405180910390206001015f9054906101000a900473ffffffffffffffffffffffffffffffffffffffff1673ffffffffffffffffffffffffffffffffffffffff16146103d1576040517f08c379a00000000000000000000000000000000000000000000000000000000081526004016103c890612281565b60405180910390fd5b60035f9054906101000a900473ffffffffffffffffffffffffffffffffffffffff1673ffffffffffffffffffffffffffffffffffffffff166323b872dd3330846040518463ffffffff1660e01b815260040161042f9392919061229f565b6020604051808303815f875af115801561044b573d5f803e3d5ffd5b505050506040513d601f19601f8201168201806040525081019061046f9190612309565b6104ae576040517f08c379a00000000000000000000000000000000000000000000000000000000081526004016104a59061237e565b60405180910390fd5b60405180604001604052808281526020013373ffffffffffffffffffffffffffffffffffffffff168152506002836040516104e99190612221565b90815260200160405180910390205f820151815f01556020820151816001015f6101000a81548173ffffffffffffffffffffffffffffffffffffffff021916908373ffffffffffffffffffffffffffffffffffffffff1602179055509050503373ffffffffffffffffffffffffffffffffffffffff168260405161056d9190612221565b60405180910390207fb9b597ac955508b07ae61704bf8fbb68a1496727b57048867ed6d1f1256c9da6836040516105a4919061239c565b60405180910390a35f5b600480549050811015610a49575f600482815481106105d0576105cf6123b5565b5b905f5260205f2090600202015f015f9054906101000a900473ffffffffffffffffffffffffffffffffffffffff1690505f60048381548110610615576106146123b5565b5b905f5260205f2090600202016001015490505f60015f8473ffffffffffffffffffffffffffffffffffffffff1673ffffffffffffffffffffffffffffffffffffffff1681526020019081526020015f205f8381526020019081526020015f206040518060600160405290815f8201548152602001600182015f9054906101000a900473ffffffffffffffffffffffffffffffffffffffff1673ffffffffffffffffffffffffffffffffffffffff1673ffffffffffffffffffffffffffffffffffffffff1681526020016002820180546106ed9061214f565b80601f01602080910402602001604051908101604052809291908181526020018280546107199061214f565b80156107645780601f1061073b57610100808354040283529160200191610764565b820191905f5260205f20905b81548152906001019060200180831161074757829003601f168201915b50505050508152505090508580519060200120816040015180519060200120148015610793575084815f015111155b15610a39576002866040516107a89190612221565b90815260200160405180910390205f8082015f9055600182015f6101000a81549073ffffffffffffffffffffffffffffffffffffffff0219169055505060015f8473ffffffffffffffffffffffffffffffffffffffff1673ffffffffffffffffffffffffffffffffffffffff1681526020019081526020015f205f8381526020019081526020015f205f8082015f9055600182015f6101000a81549073ffffffffffffffffffffffffffffffffffffffff0219169055600282015f61086d9190611ae2565b505060035f9054906101000a900473ffffffffffffffffffffffffffffffffffffffff1673ffffffffffffffffffffffffffffffffffffffff1663a9059cbb8260200151835f01516040518363ffffffff1660e01b81526004016108d292919061200d565b6020604051808303815f875af11580156108ee573d5f803e3d5ffd5b505050506040513d601f19601f820116820180604052508101906109129190612309565b610951576040517f08c379a00000000000000000000000000000000000000000000000000000000081526004016109489061237e565b60405180910390fd5b8273ffffffffffffffffffffffffffffffffffffffff166342842e0e826020015133856040518463ffffffff1660e01b81526004016109929392919061229f565b5f604051808303815f87803b1580156109a9575f80fd5b505af11580156109bb573d5f803e3d5ffd5b505050503373ffffffffffffffffffffffffffffffffffffffff16828473ffffffffffffffffffffffffffffffffffffffff167f1658be8dbd90f08a0f1b9367eaf7d55760d7addbb8dfe73c43524c77e6febebc845f0151604051610a20919061239c565b60405180910390a4610a318461192c565b505050610a49565b50505080806001019150506105ae565b505050565b610a56611b1f565b60015f8473ffffffffffffffffffffffffffffffffffffffff1673ffffffffffffffffffffffffffffffffffffffff1681526020019081526020015f205f8381526020019081526020015f206040518060600160405290815f8201548152602001600182015f9054906101000a900473ffffffffffffffffffffffffffffffffffffffff1673ffffffffffffffffffffffffffffffffffffffff1673ffffffffffffffffffffffffffffffffffffffff168152602001600282018054610b1b9061214f565b80601f0160208091040260200160405190810160405280929190818152602001828054610b479061214f565b8015610b925780601f10610b6957610100808354040283529160200191610b92565b820191905f5260205f20905b815481529060010190602001808311610b7557829003601f168201915b505050505081525050905092915050565b60048181548110610bb2575f80fd5b905f5260205f2090600202015f91509050805f015f9054906101000a900473ffffffffffffffffffffffffffffffffffffffff16908060010154905082565b8383335f8390508173ffffffffffffffffffffffffffffffffffffffff168173ffffffffffffffffffffffffffffffffffffffff16636352211e856040518263ffffffff1660e01b8152600401610c48919061239c565b602060405180830381865afa158015610c63573d5f803e3d5ffd5b505050506040513d601f19601f82011682018060405250810190610c8791906123f6565b73ffffffffffffffffffffffffffffffffffffffff1614610cdd576040517f08c379a0000000000000000000000000000000000000000000000000000000008152600401610cd49061246b565b60405180910390fd5b87875f60015f8473ffffffffffffffffffffffffffffffffffffffff1673ffffffffffffffffffffffffffffffffffffffff1681526020019081526020015f205f8381526020019081526020015f205f015414610d6f576040517f08c379a0000000000000000000000000000000000000000000000000000000008152600401610d66906124d3565b60405180910390fd5b5f8811610db1576040517f08c379a0000000000000000000000000000000000000000000000000000000008152600401610da8906121c9565b60405180910390fd5b5f8a90503073ffffffffffffffffffffffffffffffffffffffff168173ffffffffffffffffffffffffffffffffffffffff1663081812fc8c6040518263ffffffff1660e01b8152600401610e05919061239c565b602060405180830381865afa158015610e20573d5f803e3d5ffd5b505050506040513d601f19601f82011682018060405250810190610e4491906123f6565b73ffffffffffffffffffffffffffffffffffffffff1614610e9a576040517f08c379a0000000000000000000000000000000000000000000000000000000008152600401610e919061253b565b60405180910390fd5b60405180606001604052808a81526020013373ffffffffffffffffffffffffffffffffffffffff1681526020018981525060015f8d73ffffffffffffffffffffffffffffffffffffffff1673ffffffffffffffffffffffffffffffffffffffff1681526020019081526020015f205f8c81526020019081526020015f205f820151815f01556020820151816001015f6101000a81548173ffffffffffffffffffffffffffffffffffffffff021916908373ffffffffffffffffffffffffffffffffffffffff1602179055506040820151816002019081610f7a91906126ed565b50905050600460405180604001604052808d73ffffffffffffffffffffffffffffffffffffffff1681526020018c815250908060018154018082558091505060019003905f5260205f2090600202015f909190919091505f820151815f015f6101000a81548173ffffffffffffffffffffffffffffffffffffffff021916908373ffffffffffffffffffffffffffffffffffffffff1602179055506020820151816001015550503373ffffffffffffffffffffffffffffffffffffffff168a8c73ffffffffffffffffffffffffffffffffffffffff167fd3d530e863bcc675fbaac43a738955b08523ea4c724eb86d062f04c7a9e8517c8c8c6040516110819291906127bc565b60405180910390a45050505050505050505050565b61109e611a8c565b81815f60015f8473ffffffffffffffffffffffffffffffffffffffff1673ffffffffffffffffffffffffffffffffffffffff1681526020019081526020015f205f8381526020019081526020015f205f015411611130576040517f08c379a000000000000000000000000000000000000000000000000000000000815260040161112790612834565b60405180910390fd5b5f60015f8673ffffffffffffffffffffffffffffffffffffffff1673ffffffffffffffffffffffffffffffffffffffff1681526020019081526020015f205f8581526020019081526020015f206040518060600160405290815f8201548152602001600182015f9054906101000a900473ffffffffffffffffffffffffffffffffffffffff1673ffffffffffffffffffffffffffffffffffffffff1673ffffffffffffffffffffffffffffffffffffffff1681526020016002820180546111f69061214f565b80601f01602080910402602001604051908101604052809291908181526020018280546112229061214f565b801561126d5780601f106112445761010080835404028352916020019161126d565b820191905f5260205f20905b81548152906001019060200180831161125057829003601f168201915b505050505081525050905060035f9054906101000a900473ffffffffffffffffffffffffffffffffffffffff1673ffffffffffffffffffffffffffffffffffffffff166323b872dd338360200151845f01516040518463ffffffff1660e01b81526004016112dd9392919061229f565b6020604051808303815f875af11580156112f9573d5f803e3d5ffd5b505050506040513d601f19601f8201168201806040525081019061131d9190612309565b61135c576040517f08c379a00000000000000000000000000000000000000000000000000000000081526004016113539061237e565b60405180910390fd5b60015f8673ffffffffffffffffffffffffffffffffffffffff1673ffffffffffffffffffffffffffffffffffffffff1681526020019081526020015f205f8581526020019081526020015f205f8082015f9055600182015f6101000a81549073ffffffffffffffffffffffffffffffffffffffff0219169055600282015f6113e49190611ae2565b50505f5b6004805490508110156114b3578573ffffffffffffffffffffffffffffffffffffffff16600482815481106114205761141f6123b5565b5b905f5260205f2090600202015f015f9054906101000a900473ffffffffffffffffffffffffffffffffffffffff1673ffffffffffffffffffffffffffffffffffffffff1614801561149357508460048281548110611481576114806123b5565b5b905f5260205f20906002020160010154145b156114a6576114a18161192c565b6114b3565b80806001019150506113e8565b508473ffffffffffffffffffffffffffffffffffffffff166342842e0e826020015133876040518463ffffffff1660e01b81526004016114f59392919061229f565b5f604051808303815f87803b15801561150c575f80fd5b505af115801561151e573d5f803e3d5ffd5b505050503373ffffffffffffffffffffffffffffffffffffffff16848673ffffffffffffffffffffffffffffffffffffffff167f77c3ced349b08a2af4e9d443fb697437c3197b3095d43fcbdc2cdc97b1a60e0c845f0151604051611583919061239c565b60405180910390a4505050611596611ad9565b5050565b6002818051602081018201805184825260208301602085012081835280955050505050505f91509050805f015490806001015f9054906101000a900473ffffffffffffffffffffffffffffffffffffffff16905082565b8181335f8390508173ffffffffffffffffffffffffffffffffffffffff168173ffffffffffffffffffffffffffffffffffffffff16636352211e856040518263ffffffff1660e01b8152600401611648919061239c565b602060405180830381865afa158015611663573d5f803e3d5ffd5b505050506040513d601f19601f8201168201806040525081019061168791906123f6565b73ffffffffffffffffffffffffffffffffffffffff16146116dd576040517f08c379a00000000000000000000000000000000000000000000000000000000081526004016116d49061246b565b60405180910390fd5b85855f60015f8473ffffffffffffffffffffffffffffffffffffffff1673ffffffffffffffffffffffffffffffffffffffff1681526020019081526020015f205f8381526020019081526020015f205f01541161176f576040517f08c379a000000000000000000000000000000000000000000000000000000000815260040161176690612834565b60405180910390fd5b60015f8973ffffffffffffffffffffffffffffffffffffffff1673ffffffffffffffffffffffffffffffffffffffff1681526020019081526020015f205f8881526020019081526020015f205f8082015f9055600182015f6101000a81549073ffffffffffffffffffffffffffffffffffffffff0219169055600282015f6117f79190611ae2565b50505f5b6004805490508110156118c6578873ffffffffffffffffffffffffffffffffffffffff1660048281548110611833576118326123b5565b5b905f5260205f2090600202015f015f9054906101000a900473ffffffffffffffffffffffffffffffffffffffff1673ffffffffffffffffffffffffffffffffffffffff161480156118a657508760048281548110611894576118936123b5565b5b905f5260205f20906002020160010154145b156118b9576118b48161192c565b6118c6565b80806001019150506117fb565b503373ffffffffffffffffffffffffffffffffffffffff16878973ffffffffffffffffffffffffffffffffffffffff167f83614a26fd4398c876bd6684c0d04cf2e84ee7e4bc24e8d8888ab0e724bac03260405160405180910390a45050505050505050565b6004805490508110611973576040517f08c379a000000000000000000000000000000000000000000000000000000000815260040161196a9061289c565b60405180910390fd5b6004600160048054905061198791906128e7565b81548110611998576119976123b5565b5b905f5260205f209060020201600482815481106119b8576119b76123b5565b5b905f5260205f2090600202015f82015f9054906101000a900473ffffffffffffffffffffffffffffffffffffffff16815f015f6101000a81548173ffffffffffffffffffffffffffffffffffffffff021916908373ffffffffffffffffffffffffffffffffffffffff160217905550600182015481600101559050506004805480611a4657611a4561291a565b5b600190038181905f5260205f2090600202015f8082015f6101000a81549073ffffffffffffffffffffffffffffffffffffffff0219169055600182015f90555050905550565b60025f5403611ad0576040517f08c379a0000000000000000000000000000000000000000000000000000000008152600401611ac790612991565b60405180910390fd5b60025f81905550565b60015f81905550565b508054611aee9061214f565b5f825580601f10611aff5750611b1c565b601f0160209004905f5260205f2090810190611b1b9190611b54565b5b50565b60405180606001604052805f81526020015f73ffffffffffffffffffffffffffffffffffffffff168152602001606081525090565b5b80821115611b6b575f815f905550600101611b55565b5090565b5f604051905090565b5f80fd5b5f80fd5b5f73ffffffffffffffffffffffffffffffffffffffff82169050919050565b5f611ba982611b80565b9050919050565b611bb981611b9f565b8114611bc3575f80fd5b50565b5f81359050611bd481611bb0565b92915050565b5f819050919050565b611bec81611bda565b8114611bf6575f80fd5b50565b5f81359050611c0781611be3565b92915050565b5f8060408385031215611c2357611c22611b78565b5b5f611c3085828601611bc6565b9250506020611c4185828601611bf9565b9150509250929050565b611c5481611bda565b82525050565b611c6381611b9f565b82525050565b5f81519050919050565b5f82825260208201905092915050565b8281835e5f83830152505050565b5f601f19601f8301169050919050565b5f611cab82611c69565b611cb58185611c73565b9350611cc5818560208601611c83565b611cce81611c91565b840191505092915050565b5f606082019050611cec5f830186611c4b565b611cf96020830185611c5a565b8181036040830152611d0b8184611ca1565b9050949350505050565b5f819050919050565b5f611d38611d33611d2e84611b80565b611d15565b611b80565b9050919050565b5f611d4982611d1e565b9050919050565b5f611d5a82611d3f565b9050919050565b611d6a81611d50565b82525050565b5f602082019050611d835f830184611d61565b92915050565b5f80fd5b5f80fd5b7f4e487b71000000000000000000000000000000000000000000000000000000005f52604160045260245ffd5b611dc782611c91565b810181811067ffffffffffffffff82111715611de657611de5611d91565b5b80604052505050565b5f611df8611b6f565b9050611e048282611dbe565b919050565b5f67ffffffffffffffff821115611e2357611e22611d91565b5b611e2c82611c91565b9050602081019050919050565b828183375f83830152505050565b5f611e59611e5484611e09565b611def565b905082815260208101848484011115611e7557611e74611d8d565b5b611e80848285611e39565b509392505050565b5f82601f830112611e9c57611e9b611d89565b5b8135611eac848260208601611e47565b91505092915050565b5f8060408385031215611ecb57611eca611b78565b5b5f83013567ffffffffffffffff811115611ee857611ee7611b7c565b5b611ef485828601611e88565b9250506020611f0585828601611bf9565b9150509250929050565b611f1881611bda565b82525050565b611f2781611b9f565b82525050565b5f82825260208201905092915050565b5f611f4782611c69565b611f518185611f2d565b9350611f61818560208601611c83565b611f6a81611c91565b840191505092915050565b5f606083015f830151611f8a5f860182611f0f565b506020830151611f9d6020860182611f1e565b5060408301518482036040860152611fb58282611f3d565b9150508091505092915050565b5f6020820190508181035f830152611fda8184611f75565b905092915050565b5f60208284031215611ff757611ff6611b78565b5b5f61200484828501611bf9565b91505092915050565b5f6040820190506120205f830185611c5a565b61202d6020830184611c4b565b9392505050565b5f805f806080858703121561204c5761204b611b78565b5b5f61205987828801611bc6565b945050602061206a87828801611bf9565b935050604061207b87828801611bf9565b925050606085013567ffffffffffffffff81111561209c5761209b611b7c565b5b6120a887828801611e88565b91505092959194509250565b5f602082840312156120c9576120c8611b78565b5b5f82013567ffffffffffffffff8111156120e6576120e5611b7c565b5b6120f284828501611e88565b91505092915050565b5f60408201905061210e5f830185611c4b565b61211b6020830184611c5a565b9392505050565b7f4e487b71000000000000000000000000000000000000000000000000000000005f52602260045260245ffd5b5f600282049050600182168061216657607f821691505b60208210810361217957612178612122565b5b50919050565b7f5072696365206d7573742062652067726561746572207468616e207a65726f005f82015250565b5f6121b3601f83611c73565b91506121be8261217f565b602082019050919050565b5f6020820190508181035f8301526121e0816121a7565b9050919050565b5f81905092915050565b5f6121fb82611c69565b61220581856121e7565b9350612215818560208601611c83565b80840191505092915050565b5f61222c82846121f1565b915081905092915050565b7f47726f75702062696420616c72656164792065786973747300000000000000005f82015250565b5f61226b601883611c73565b915061227682612237565b602082019050919050565b5f6020820190508181035f8301526122988161225f565b9050919050565b5f6060820190506122b25f830186611c5a565b6122bf6020830185611c5a565b6122cc6040830184611c4b565b949350505050565b5f8115159050919050565b6122e8816122d4565b81146122f2575f80fd5b50565b5f81519050612303816122df565b92915050565b5f6020828403121561231e5761231d611b78565b5b5f61232b848285016122f5565b91505092915050565b7f5061796d656e74207472616e73666572206661696c65640000000000000000005f82015250565b5f612368601783611c73565b915061237382612334565b602082019050919050565b5f6020820190508181035f8301526123958161235c565b9050919050565b5f6020820190506123af5f830184611c4b565b92915050565b7f4e487b71000000000000000000000000000000000000000000000000000000005f52603260045260245ffd5b5f815190506123f081611bb0565b92915050565b5f6020828403121561240b5761240a611b78565b5b5f612418848285016123e2565b91505092915050565b7f4e6f7420746865206f776e6572206f6620746865204e465400000000000000005f82015250565b5f612455601883611c73565b915061246082612421565b602082019050919050565b5f6020820190508181035f83015261248281612449565b9050919050565b7f4e465420697320616c7265616479206c697374656400000000000000000000005f82015250565b5f6124bd601583611c73565b91506124c882612489565b602082019050919050565b5f6020820190508181035f8301526124ea816124b1565b9050919050565b7f4d61726b6574706c616365206e6f7420617070726f76656400000000000000005f82015250565b5f612525601883611c73565b9150612530826124f1565b602082019050919050565b5f6020820190508181035f83015261255281612519565b9050919050565b5f819050815f5260205f209050919050565b5f6020601f8301049050919050565b5f82821b905092915050565b5f600883026125b57fffffffffffffffffffffffffffffffffffffffffffffffffffffffffffffffff8261257a565b6125bf868361257a565b95508019841693508086168417925050509392505050565b5f6125f16125ec6125e784611bda565b611d15565b611bda565b9050919050565b5f819050919050565b61260a836125d7565b61261e612616826125f8565b848454612586565b825550505050565b5f90565b612632612626565b61263d818484612601565b505050565b5b81811015612660576126555f8261262a565b600181019050612643565b5050565b601f8211156126a55761267681612559565b61267f8461256b565b8101602085101561268e578190505b6126a261269a8561256b565b830182612642565b50505b505050565b5f82821c905092915050565b5f6126c55f19846008026126aa565b1980831691505092915050565b5f6126dd83836126b6565b9150826002028217905092915050565b6126f682611c69565b67ffffffffffffffff81111561270f5761270e611d91565b5b612719825461214f565b612724828285612664565b5f60209050601f831160018114612755575f8415612743578287015190505b61274d85826126d2565b8655506127b4565b601f19841661276386612559565b5f5b8281101561278a57848901518255600182019150602085019450602081019050612765565b868310156127a757848901516127a3601f8916826126b6565b8355505b6001600288020188555050505b505050505050565b5f6040820190506127cf5f830185611c4b565b81810360208301526127e18184611ca1565b90509392505050565b7f4e4654206973206e6f74206c69737465640000000000000000000000000000005f82015250565b5f61281e601183611c73565b9150612829826127ea565b602082019050919050565b5f6020820190508181035f83015261284b81612812565b9050919050565b7f496e646578206f7574206f6620626f756e6473000000000000000000000000005f82015250565b5f612886601383611c73565b915061289182612852565b602082019050919050565b5f6020820190508181035f8301526128b38161287a565b9050919050565b7f4e487b71000000000000000000000000000000000000000000000000000000005f52601160045260245ffd5b5f6128f182611bda565b91506128fc83611bda565b9250828203905081811115612914576129136128ba565b5b92915050565b7f4e487b71000000000000000000000000000000000000000000000000000000005f52603160045260245ffd5b7f5265656e7472616e637947756172643a207265656e7472616e742063616c6c005f82015250565b5f61297b601f83611c73565b915061298682612947565b602082019050919050565b5f6020820190508181035f8301526129a88161296f565b905091905056fea2646970667358221220935b5bd7df53ee7af39ba7350961032b6d3c77344f29117914cb82468b97d56f64736f6c634300081a0033",
					"opcodes": "PUSH1 0x80 PUSH1 0x40 MSTORE CALLVALUE DUP1 ISZERO PUSH2 0xF JUMPI PUSH0 DUP1 REVERT JUMPDEST POP PUSH1 0x40 MLOAD PUSH2 0x2AF9 CODESIZE SUB DUP1 PUSH2 0x2AF9 DUP4 CODECOPY DUP2 DUP2 ADD PUSH1 0x40 MSTORE DUP2 ADD SWAP1 PUSH2 0x31 SWAP2 SWAP1 PUSH2 0xDC JUMP JUMPDEST PUSH1 0x1 PUSH0 DUP2 SWAP1 SSTORE POP DUP1 PUSH1 0x3 PUSH0 PUSH2 0x100 EXP DUP2 SLOAD DUP2 PUSH20 0xFFFFFFFFFFFFFFFFFFFFFFFFFFFFFFFFFFFFFFFF MUL NOT AND SWAP1 DUP4 PUSH20 0xFFFFFFFFFFFFFFFFFFFFFFFFFFFFFFFFFFFFFFFF AND MUL OR SWAP1 SSTORE POP POP PUSH2 0x107 JUMP JUMPDEST PUSH0 DUP1 REVERT JUMPDEST PUSH0 PUSH20 0xFFFFFFFFFFFFFFFFFFFFFFFFFFFFFFFFFFFFFFFF DUP3 AND SWAP1 POP SWAP2 SWAP1 POP JUMP JUMPDEST PUSH0 PUSH2 0xAB DUP3 PUSH2 0x82 JUMP JUMPDEST SWAP1 POP SWAP2 SWAP1 POP JUMP JUMPDEST PUSH2 0xBB DUP2 PUSH2 0xA1 JUMP JUMPDEST DUP2 EQ PUSH2 0xC5 JUMPI PUSH0 DUP1 REVERT JUMPDEST POP JUMP JUMPDEST PUSH0 DUP2 MLOAD SWAP1 POP PUSH2 0xD6 DUP2 PUSH2 0xB2 JUMP JUMPDEST SWAP3 SWAP2 POP POP JUMP JUMPDEST PUSH0 PUSH1 0x20 DUP3 DUP5 SUB SLT ISZERO PUSH2 0xF1 JUMPI PUSH2 0xF0 PUSH2 0x7E JUMP JUMPDEST JUMPDEST PUSH0 PUSH2 0xFE DUP5 DUP3 DUP6 ADD PUSH2 0xC8 JUMP JUMPDEST SWAP2 POP POP SWAP3 SWAP2 POP POP JUMP JUMPDEST PUSH2 0x29E5 DUP1 PUSH2 0x114 PUSH0 CODECOPY PUSH0 RETURN INVALID PUSH1 0x80 PUSH1 0x40 MSTORE CALLVALUE DUP1 ISZERO PUSH2 0xF JUMPI PUSH0 DUP1 REVERT JUMPDEST POP PUSH1 0x4 CALLDATASIZE LT PUSH2 0x90 JUMPI PUSH0 CALLDATALOAD PUSH1 0xE0 SHR DUP1 PUSH4 0xA01DC41F GT PUSH2 0x64 JUMPI DUP1 PUSH4 0xA01DC41F EQ PUSH2 0x130 JUMPI DUP1 PUSH4 0xA0441780 EQ PUSH2 0x161 JUMPI DUP1 PUSH4 0xA82BA76F EQ PUSH2 0x17D JUMPI DUP1 PUSH4 0xA91FFCEA EQ PUSH2 0x199 JUMPI DUP1 PUSH4 0xB2DDEE06 EQ PUSH2 0x1CA JUMPI PUSH2 0x90 JUMP JUMPDEST DUP1 PUSH3 0x7DF30 EQ PUSH2 0x94 JUMPI DUP1 PUSH4 0x3013CE29 EQ PUSH2 0xC6 JUMPI DUP1 PUSH4 0x8230584D EQ PUSH2 0xE4 JUMPI DUP1 PUSH4 0x88700D1C EQ PUSH2 0x100 JUMPI JUMPDEST PUSH0 DUP1 REVERT JUMPDEST PUSH2 0xAE PUSH1 0x4 DUP1 CALLDATASIZE SUB DUP2 ADD SWAP1 PUSH2 0xA9 SWAP2 SWAP1 PUSH2 0x1C0D JUMP JUMPDEST PUSH2 0x1E6 JUMP JUMPDEST PUSH1 0x40 MLOAD PUSH2 0xBD SWAP4 SWAP3 SWAP2 SWAP1 PUSH2 0x1CD9 JUMP JUMPDEST PUSH1 0x40 MLOAD DUP1 SWAP2 SUB SWAP1 RETURN JUMPDEST PUSH2 0xCE PUSH2 0x2BC JUMP JUMPDEST PUSH1 0x40 MLOAD PUSH2 0xDB SWAP2 SWAP1 PUSH2 0x1D70 JUMP JUMPDEST PUSH1 0x40 MLOAD DUP1 SWAP2 SUB SWAP1 RETURN JUMPDEST PUSH2 0xFE PUSH1 0x4 DUP1 CALLDATASIZE SUB DUP2 ADD SWAP1 PUSH2 0xF9 SWAP2 SWAP1 PUSH2 0x1EB5 JUMP JUMPDEST PUSH2 0x2E1 JUMP JUMPDEST STOP JUMPDEST PUSH2 0x11A PUSH1 0x4 DUP1 CALLDATASIZE SUB DUP2 ADD SWAP1 PUSH2 0x115 SWAP2 SWAP1 PUSH2 0x1C0D JUMP JUMPDEST PUSH2 0xA4E JUMP JUMPDEST PUSH1 0x40 MLOAD PUSH2 0x127 SWAP2 SWAP1 PUSH2 0x1FC2 JUMP JUMPDEST PUSH1 0x40 MLOAD DUP1 SWAP2 SUB SWAP1 RETURN JUMPDEST PUSH2 0x14A PUSH1 0x4 DUP1 CALLDATASIZE SUB DUP2 ADD SWAP1 PUSH2 0x145 SWAP2 SWAP1 PUSH2 0x1FE2 JUMP JUMPDEST PUSH2 0xBA3 JUMP JUMPDEST PUSH1 0x40 MLOAD PUSH2 0x158 SWAP3 SWAP2 SWAP1 PUSH2 0x200D JUMP JUMPDEST PUSH1 0x40 MLOAD DUP1 SWAP2 SUB SWAP1 RETURN JUMPDEST PUSH2 0x17B PUSH1 0x4 DUP1 CALLDATASIZE SUB DUP2 ADD SWAP1 PUSH2 0x176 SWAP2 SWAP1 PUSH2 0x2034 JUMP JUMPDEST PUSH2 0xBF1 JUMP JUMPDEST STOP JUMPDEST PUSH2 0x197 PUSH1 0x4 DUP1 CALLDATASIZE SUB DUP2 ADD SWAP1 PUSH2 0x192 SWAP2 SWAP1 PUSH2 0x1C0D JUMP JUMPDEST PUSH2 0x1096 JUMP JUMPDEST STOP JUMPDEST PUSH2 0x1B3 PUSH1 0x4 DUP1 CALLDATASIZE SUB DUP2 ADD SWAP1 PUSH2 0x1AE SWAP2 SWAP1 PUSH2 0x20B4 JUMP JUMPDEST PUSH2 0x159A JUMP JUMPDEST PUSH1 0x40 MLOAD PUSH2 0x1C1 SWAP3 SWAP2 SWAP1 PUSH2 0x20FB JUMP JUMPDEST PUSH1 0x40 MLOAD DUP1 SWAP2 SUB SWAP1 RETURN JUMPDEST PUSH2 0x1E4 PUSH1 0x4 DUP1 CALLDATASIZE SUB DUP2 ADD SWAP1 PUSH2 0x1DF SWAP2 SWAP1 PUSH2 0x1C0D JUMP JUMPDEST PUSH2 0x15F1 JUMP JUMPDEST STOP JUMPDEST PUSH1 0x1 PUSH1 0x20 MSTORE DUP2 PUSH0 MSTORE PUSH1 0x40 PUSH0 KECCAK256 PUSH1 0x20 MSTORE DUP1 PUSH0 MSTORE PUSH1 0x40 PUSH0 KECCAK256 PUSH0 SWAP2 POP SWAP2 POP POP DUP1 PUSH0 ADD SLOAD SWAP1 DUP1 PUSH1 0x1 ADD PUSH0 SWAP1 SLOAD SWAP1 PUSH2 0x100 EXP SWAP1 DIV PUSH20 0xFFFFFFFFFFFFFFFFFFFFFFFFFFFFFFFFFFFFFFFF AND SWAP1 DUP1 PUSH1 0x2 ADD DUP1 SLOAD PUSH2 0x23B SWAP1 PUSH2 0x214F JUMP JUMPDEST DUP1 PUSH1 0x1F ADD PUSH1 0x20 DUP1 SWAP2 DIV MUL PUSH1 0x20 ADD PUSH1 0x40 MLOAD SWAP1 DUP2 ADD PUSH1 0x40 MSTORE DUP1 SWAP3 SWAP2 SWAP1 DUP2 DUP2 MSTORE PUSH1 0x20 ADD DUP3 DUP1 SLOAD PUSH2 0x267 SWAP1 PUSH2 0x214F JUMP JUMPDEST DUP1 ISZERO PUSH2 0x2B2 JUMPI DUP1 PUSH1 0x1F LT PUSH2 0x289 JUMPI PUSH2 0x100 DUP1 DUP4 SLOAD DIV MUL DUP4 MSTORE SWAP2 PUSH1 0x20 ADD SWAP2 PUSH2 0x2B2 JUMP JUMPDEST DUP3 ADD SWAP2 SWAP1 PUSH0 MSTORE PUSH1 0x20 PUSH0 KECCAK256 SWAP1 JUMPDEST DUP2 SLOAD DUP2 MSTORE SWAP1 PUSH1 0x1 ADD SWAP1 PUSH1 0x20 ADD DUP1 DUP4 GT PUSH2 0x295 JUMPI DUP3 SWAP1 SUB PUSH1 0x1F AND DUP3 ADD SWAP2 JUMPDEST POP POP POP POP POP SWAP1 POP DUP4 JUMP JUMPDEST PUSH1 0x3 PUSH0 SWAP1 SLOAD SWAP1 PUSH2 0x100 EXP SWAP1 DIV PUSH20 0xFFFFFFFFFFFFFFFFFFFFFFFFFFFFFFFFFFFFFFFF AND DUP2 JUMP JUMPDEST PUSH0 DUP2 GT PUSH2 0x323 JUMPI PUSH1 0x40 MLOAD PUSH32 0x8C379A000000000000000000000000000000000000000000000000000000000 DUP2 MSTORE PUSH1 0x4 ADD PUSH2 0x31A SWAP1 PUSH2 0x21C9 JUMP JUMPDEST PUSH1 0x40 MLOAD DUP1 SWAP2 SUB SWAP1 REVERT JUMPDEST PUSH0 PUSH20 0xFFFFFFFFFFFFFFFFFFFFFFFFFFFFFFFFFFFFFFFF AND PUSH1 0x2 DUP4 PUSH1 0x40 MLOAD PUSH2 0x34A SWAP2 SWAP1 PUSH2 0x2221 JUMP JUMPDEST SWAP1 DUP2 MSTORE PUSH1 0x20 ADD PUSH1 0x40 MLOAD DUP1 SWAP2 SUB SWAP1 KECCAK256 PUSH1 0x1 ADD PUSH0 SWAP1 SLOAD SWAP1 PUSH2 0x100 EXP SWAP1 DIV PUSH20 0xFFFFFFFFFFFFFFFFFFFFFFFFFFFFFFFFFFFFFFFF AND PUSH20 0xFFFFFFFFFFFFFFFFFFFFFFFFFFFFFFFFFFFFFFFF AND EQ PUSH2 0x3D1 JUMPI PUSH1 0x40 MLOAD PUSH32 0x8C379A000000000000000000000000000000000000000000000000000000000 DUP2 MSTORE PUSH1 0x4 ADD PUSH2 0x3C8 SWAP1 PUSH2 0x2281 JUMP JUMPDEST PUSH1 0x40 MLOAD DUP1 SWAP2 SUB SWAP1 REVERT JUMPDEST PUSH1 0x3 PUSH0 SWAP1 SLOAD SWAP1 PUSH2 0x100 EXP SWAP1 DIV PUSH20 0xFFFFFFFFFFFFFFFFFFFFFFFFFFFFFFFFFFFFFFFF AND PUSH20 0xFFFFFFFFFFFFFFFFFFFFFFFFFFFFFFFFFFFFFFFF AND PUSH4 0x23B872DD CALLER ADDRESS DUP5 PUSH1 0x40 MLOAD DUP5 PUSH4 0xFFFFFFFF AND PUSH1 0xE0 SHL DUP2 MSTORE PUSH1 0x4 ADD PUSH2 0x42F SWAP4 SWAP3 SWAP2 SWAP1 PUSH2 0x229F JUMP JUMPDEST PUSH1 0x20 PUSH1 0x40 MLOAD DUP1 DUP4 SUB DUP2 PUSH0 DUP8 GAS CALL ISZERO DUP1 ISZERO PUSH2 0x44B JUMPI RETURNDATASIZE PUSH0 DUP1 RETURNDATACOPY RETURNDATASIZE PUSH0 REVERT JUMPDEST POP POP POP POP PUSH1 0x40 MLOAD RETURNDATASIZE PUSH1 0x1F NOT PUSH1 0x1F DUP3 ADD AND DUP3 ADD DUP1 PUSH1 0x40 MSTORE POP DUP2 ADD SWAP1 PUSH2 0x46F SWAP2 SWAP1 PUSH2 0x2309 JUMP JUMPDEST PUSH2 0x4AE JUMPI PUSH1 0x40 MLOAD PUSH32 0x8C379A000000000000000000000000000000000000000000000000000000000 DUP2 MSTORE PUSH1 0x4 ADD PUSH2 0x4A5 SWAP1 PUSH2 0x237E JUMP JUMPDEST PUSH1 0x40 MLOAD DUP1 SWAP2 SUB SWAP1 REVERT JUMPDEST PUSH1 0x40 MLOAD DUP1 PUSH1 0x40 ADD PUSH1 0x40 MSTORE DUP1 DUP3 DUP2 MSTORE PUSH1 0x20 ADD CALLER PUSH20 0xFFFFFFFFFFFFFFFFFFFFFFFFFFFFFFFFFFFFFFFF AND DUP2 MSTORE POP PUSH1 0x2 DUP4 PUSH1 0x40 MLOAD PUSH2 0x4E9 SWAP2 SWAP1 PUSH2 0x2221 JUMP JUMPDEST SWAP1 DUP2 MSTORE PUSH1 0x20 ADD PUSH1 0x40 MLOAD DUP1 SWAP2 SUB SWAP1 KECCAK256 PUSH0 DUP3 ADD MLOAD DUP2 PUSH0 ADD SSTORE PUSH1 0x20 DUP3 ADD MLOAD DUP2 PUSH1 0x1 ADD PUSH0 PUSH2 0x100 EXP DUP2 SLOAD DUP2 PUSH20 0xFFFFFFFFFFFFFFFFFFFFFFFFFFFFFFFFFFFFFFFF MUL NOT AND SWAP1 DUP4 PUSH20 0xFFFFFFFFFFFFFFFFFFFFFFFFFFFFFFFFFFFFFFFF AND MUL OR SWAP1 SSTORE POP SWAP1 POP POP CALLER PUSH20 0xFFFFFFFFFFFFFFFFFFFFFFFFFFFFFFFFFFFFFFFF AND DUP3 PUSH1 0x40 MLOAD PUSH2 0x56D SWAP2 SWAP1 PUSH2 0x2221 JUMP JUMPDEST PUSH1 0x40 MLOAD DUP1 SWAP2 SUB SWAP1 KECCAK256 PUSH32 0xB9B597AC955508B07AE61704BF8FBB68A1496727B57048867ED6D1F1256C9DA6 DUP4 PUSH1 0x40 MLOAD PUSH2 0x5A4 SWAP2 SWAP1 PUSH2 0x239C JUMP JUMPDEST PUSH1 0x40 MLOAD DUP1 SWAP2 SUB SWAP1 LOG3 PUSH0 JUMPDEST PUSH1 0x4 DUP1 SLOAD SWAP1 POP DUP2 LT ISZERO PUSH2 0xA49 JUMPI PUSH0 PUSH1 0x4 DUP3 DUP2 SLOAD DUP2 LT PUSH2 0x5D0 JUMPI PUSH2 0x5CF PUSH2 0x23B5 JUMP JUMPDEST JUMPDEST SWAP1 PUSH0 MSTORE PUSH1 0x20 PUSH0 KECCAK256 SWAP1 PUSH1 0x2 MUL ADD PUSH0 ADD PUSH0 SWAP1 SLOAD SWAP1 PUSH2 0x100 EXP SWAP1 DIV PUSH20 0xFFFFFFFFFFFFFFFFFFFFFFFFFFFFFFFFFFFFFFFF AND SWAP1 POP PUSH0 PUSH1 0x4 DUP4 DUP2 SLOAD DUP2 LT PUSH2 0x615 JUMPI PUSH2 0x614 PUSH2 0x23B5 JUMP JUMPDEST JUMPDEST SWAP1 PUSH0 MSTORE PUSH1 0x20 PUSH0 KECCAK256 SWAP1 PUSH1 0x2 MUL ADD PUSH1 0x1 ADD SLOAD SWAP1 POP PUSH0 PUSH1 0x1 PUSH0 DUP5 PUSH20 0xFFFFFFFFFFFFFFFFFFFFFFFFFFFFFFFFFFFFFFFF AND PUSH20 0xFFFFFFFFFFFFFFFFFFFFFFFFFFFFFFFFFFFFFFFF AND DUP2 MSTORE PUSH1 0x20 ADD SWAP1 DUP2 MSTORE PUSH1 0x20 ADD PUSH0 KECCAK256 PUSH0 DUP4 DUP2 MSTORE PUSH1 0x20 ADD SWAP1 DUP2 MSTORE PUSH1 0x20 ADD PUSH0 KECCAK256 PUSH1 0x40 MLOAD DUP1 PUSH1 0x60 ADD PUSH1 0x40 MSTORE SWAP1 DUP2 PUSH0 DUP3 ADD SLOAD DUP2 MSTORE PUSH1 0x20 ADD PUSH1 0x1 DUP3 ADD PUSH0 SWAP1 SLOAD SWAP1 PUSH2 0x100 EXP SWAP1 DIV PUSH20 0xFFFFFFFFFFFFFFFFFFFFFFFFFFFFFFFFFFFFFFFF AND PUSH20 0xFFFFFFFFFFFFFFFFFFFFFFFFFFFFFFFFFFFFFFFF AND PUSH20 0xFFFFFFFFFFFFFFFFFFFFFFFFFFFFFFFFFFFFFFFF AND DUP2 MSTORE PUSH1 0x20 ADD PUSH1 0x2 DUP3 ADD DUP1 SLOAD PUSH2 0x6ED SWAP1 PUSH2 0x214F JUMP JUMPDEST DUP1 PUSH1 0x1F ADD PUSH1 0x20 DUP1 SWAP2 DIV MUL PUSH1 0x20 ADD PUSH1 0x40 MLOAD SWAP1 DUP2 ADD PUSH1 0x40 MSTORE DUP1 SWAP3 SWAP2 SWAP1 DUP2 DUP2 MSTORE PUSH1 0x20 ADD DUP3 DUP1 SLOAD PUSH2 0x719 SWAP1 PUSH2 0x214F JUMP JUMPDEST DUP1 ISZERO PUSH2 0x764 JUMPI DUP1 PUSH1 0x1F LT PUSH2 0x73B JUMPI PUSH2 0x100 DUP1 DUP4 SLOAD DIV MUL DUP4 MSTORE SWAP2 PUSH1 0x20 ADD SWAP2 PUSH2 0x764 JUMP JUMPDEST DUP3 ADD SWAP2 SWAP1 PUSH0 MSTORE PUSH1 0x20 PUSH0 KECCAK256 SWAP1 JUMPDEST DUP2 SLOAD DUP2 MSTORE SWAP1 PUSH1 0x1 ADD SWAP1 PUSH1 0x20 ADD DUP1 DUP4 GT PUSH2 0x747 JUMPI DUP3 SWAP1 SUB PUSH1 0x1F AND DUP3 ADD SWAP2 JUMPDEST POP POP POP POP POP DUP2 MSTORE POP POP SWAP1 POP DUP6 DUP1 MLOAD SWAP1 PUSH1 0x20 ADD KECCAK256 DUP2 PUSH1 0x40 ADD MLOAD DUP1 MLOAD SWAP1 PUSH1 0x20 ADD KECCAK256 EQ DUP1 ISZERO PUSH2 0x793 JUMPI POP DUP5 DUP2 PUSH0 ADD MLOAD GT ISZERO JUMPDEST ISZERO PUSH2 0xA39 JUMPI PUSH1 0x2 DUP7 PUSH1 0x40 MLOAD PUSH2 0x7A8 SWAP2 SWAP1 PUSH2 0x2221 JUMP JUMPDEST SWAP1 DUP2 MSTORE PUSH1 0x20 ADD PUSH1 0x40 MLOAD DUP1 SWAP2 SUB SWAP1 KECCAK256 PUSH0 DUP1 DUP3 ADD PUSH0 SWAP1 SSTORE PUSH1 0x1 DUP3 ADD PUSH0 PUSH2 0x100 EXP DUP2 SLOAD SWAP1 PUSH20 0xFFFFFFFFFFFFFFFFFFFFFFFFFFFFFFFFFFFFFFFF MUL NOT AND SWAP1 SSTORE POP POP PUSH1 0x1 PUSH0 DUP5 PUSH20 0xFFFFFFFFFFFFFFFFFFFFFFFFFFFFFFFFFFFFFFFF AND PUSH20 0xFFFFFFFFFFFFFFFFFFFFFFFFFFFFFFFFFFFFFFFF AND DUP2 MSTORE PUSH1 0x20 ADD SWAP1 DUP2 MSTORE PUSH1 0x20 ADD PUSH0 KECCAK256 PUSH0 DUP4 DUP2 MSTORE PUSH1 0x20 ADD SWAP1 DUP2 MSTORE PUSH1 0x20 ADD PUSH0 KECCAK256 PUSH0 DUP1 DUP3 ADD PUSH0 SWAP1 SSTORE PUSH1 0x1 DUP3 ADD PUSH0 PUSH2 0x100 EXP DUP2 SLOAD SWAP1 PUSH20 0xFFFFFFFFFFFFFFFFFFFFFFFFFFFFFFFFFFFFFFFF MUL NOT AND SWAP1 SSTORE PUSH1 0x2 DUP3 ADD PUSH0 PUSH2 0x86D SWAP2 SWAP1 PUSH2 0x1AE2 JUMP JUMPDEST POP POP PUSH1 0x3 PUSH0 SWAP1 SLOAD SWAP1 PUSH2 0x100 EXP SWAP1 DIV PUSH20 0xFFFFFFFFFFFFFFFFFFFFFFFFFFFFFFFFFFFFFFFF AND PUSH20 0xFFFFFFFFFFFFFFFFFFFFFFFFFFFFFFFFFFFFFFFF AND PUSH4 0xA9059CBB DUP3 PUSH1 0x20 ADD MLOAD DUP4 PUSH0 ADD MLOAD PUSH1 0x40 MLOAD DUP4 PUSH4 0xFFFFFFFF AND PUSH1 0xE0 SHL DUP2 MSTORE PUSH1 0x4 ADD PUSH2 0x8D2 SWAP3 SWAP2 SWAP1 PUSH2 0x200D JUMP JUMPDEST PUSH1 0x20 PUSH1 0x40 MLOAD DUP1 DUP4 SUB DUP2 PUSH0 DUP8 GAS CALL ISZERO DUP1 ISZERO PUSH2 0x8EE JUMPI RETURNDATASIZE PUSH0 DUP1 RETURNDATACOPY RETURNDATASIZE PUSH0 REVERT JUMPDEST POP POP POP POP PUSH1 0x40 MLOAD RETURNDATASIZE PUSH1 0x1F NOT PUSH1 0x1F DUP3 ADD AND DUP3 ADD DUP1 PUSH1 0x40 MSTORE POP DUP2 ADD SWAP1 PUSH2 0x912 SWAP2 SWAP1 PUSH2 0x2309 JUMP JUMPDEST PUSH2 0x951 JUMPI PUSH1 0x40 MLOAD PUSH32 0x8C379A000000000000000000000000000000000000000000000000000000000 DUP2 MSTORE PUSH1 0x4 ADD PUSH2 0x948 SWAP1 PUSH2 0x237E JUMP JUMPDEST PUSH1 0x40 MLOAD DUP1 SWAP2 SUB SWAP1 REVERT JUMPDEST DUP3 PUSH20 0xFFFFFFFFFFFFFFFFFFFFFFFFFFFFFFFFFFFFFFFF AND PUSH4 0x42842E0E DUP3 PUSH1 0x20 ADD MLOAD CALLER DUP6 PUSH1 0x40 MLOAD DUP5 PUSH4 0xFFFFFFFF AND PUSH1 0xE0 SHL DUP2 MSTORE PUSH1 0x4 ADD PUSH2 0x992 SWAP4 SWAP3 SWAP2 SWAP1 PUSH2 0x229F JUMP JUMPDEST PUSH0 PUSH1 0x40 MLOAD DUP1 DUP4 SUB DUP2 PUSH0 DUP8 DUP1 EXTCODESIZE ISZERO DUP1 ISZERO PUSH2 0x9A9 JUMPI PUSH0 DUP1 REVERT JUMPDEST POP GAS CALL ISZERO DUP1 ISZERO PUSH2 0x9BB JUMPI RETURNDATASIZE PUSH0 DUP1 RETURNDATACOPY RETURNDATASIZE PUSH0 REVERT JUMPDEST POP POP POP POP CALLER PUSH20 0xFFFFFFFFFFFFFFFFFFFFFFFFFFFFFFFFFFFFFFFF AND DUP3 DUP5 PUSH20 0xFFFFFFFFFFFFFFFFFFFFFFFFFFFFFFFFFFFFFFFF AND PUSH32 0x1658BE8DBD90F08A0F1B9367EAF7D55760D7ADDBB8DFE73C43524C77E6FEBEBC DUP5 PUSH0 ADD MLOAD PUSH1 0x40 MLOAD PUSH2 0xA20 SWAP2 SWAP1 PUSH2 0x239C JUMP JUMPDEST PUSH1 0x40 MLOAD DUP1 SWAP2 SUB SWAP1 LOG4 PUSH2 0xA31 DUP5 PUSH2 0x192C JUMP JUMPDEST POP POP POP PUSH2 0xA49 JUMP JUMPDEST POP POP POP DUP1 DUP1 PUSH1 0x1 ADD SWAP2 POP POP PUSH2 0x5AE JUMP JUMPDEST POP POP POP JUMP JUMPDEST PUSH2 0xA56 PUSH2 0x1B1F JUMP JUMPDEST PUSH1 0x1 PUSH0 DUP5 PUSH20 0xFFFFFFFFFFFFFFFFFFFFFFFFFFFFFFFFFFFFFFFF AND PUSH20 0xFFFFFFFFFFFFFFFFFFFFFFFFFFFFFFFFFFFFFFFF AND DUP2 MSTORE PUSH1 0x20 ADD SWAP1 DUP2 MSTORE PUSH1 0x20 ADD PUSH0 KECCAK256 PUSH0 DUP4 DUP2 MSTORE PUSH1 0x20 ADD SWAP1 DUP2 MSTORE PUSH1 0x20 ADD PUSH0 KECCAK256 PUSH1 0x40 MLOAD DUP1 PUSH1 0x60 ADD PUSH1 0x40 MSTORE SWAP1 DUP2 PUSH0 DUP3 ADD SLOAD DUP2 MSTORE PUSH1 0x20 ADD PUSH1 0x1 DUP3 ADD PUSH0 SWAP1 SLOAD SWAP1 PUSH2 0x100 EXP SWAP1 DIV PUSH20 0xFFFFFFFFFFFFFFFFFFFFFFFFFFFFFFFFFFFFFFFF AND PUSH20 0xFFFFFFFFFFFFFFFFFFFFFFFFFFFFFFFFFFFFFFFF AND PUSH20 0xFFFFFFFFFFFFFFFFFFFFFFFFFFFFFFFFFFFFFFFF AND DUP2 MSTORE PUSH1 0x20 ADD PUSH1 0x2 DUP3 ADD DUP1 SLOAD PUSH2 0xB1B SWAP1 PUSH2 0x214F JUMP JUMPDEST DUP1 PUSH1 0x1F ADD PUSH1 0x20 DUP1 SWAP2 DIV MUL PUSH1 0x20 ADD PUSH1 0x40 MLOAD SWAP1 DUP2 ADD PUSH1 0x40 MSTORE DUP1 SWAP3 SWAP2 SWAP1 DUP2 DUP2 MSTORE PUSH1 0x20 ADD DUP3 DUP1 SLOAD PUSH2 0xB47 SWAP1 PUSH2 0x214F JUMP JUMPDEST DUP1 ISZERO PUSH2 0xB92 JUMPI DUP1 PUSH1 0x1F LT PUSH2 0xB69 JUMPI PUSH2 0x100 DUP1 DUP4 SLOAD DIV MUL DUP4 MSTORE SWAP2 PUSH1 0x20 ADD SWAP2 PUSH2 0xB92 JUMP JUMPDEST DUP3 ADD SWAP2 SWAP1 PUSH0 MSTORE PUSH1 0x20 PUSH0 KECCAK256 SWAP1 JUMPDEST DUP2 SLOAD DUP2 MSTORE SWAP1 PUSH1 0x1 ADD SWAP1 PUSH1 0x20 ADD DUP1 DUP4 GT PUSH2 0xB75 JUMPI DUP3 SWAP1 SUB PUSH1 0x1F AND DUP3 ADD SWAP2 JUMPDEST POP POP POP POP POP DUP2 MSTORE POP POP SWAP1 POP SWAP3 SWAP2 POP POP JUMP JUMPDEST PUSH1 0x4 DUP2 DUP2 SLOAD DUP2 LT PUSH2 0xBB2 JUMPI PUSH0 DUP1 REVERT JUMPDEST SWAP1 PUSH0 MSTORE PUSH1 0x20 PUSH0 KECCAK256 SWAP1 PUSH1 0x2 MUL ADD PUSH0 SWAP2 POP SWAP1 POP DUP1 PUSH0 ADD PUSH0 SWAP1 SLOAD SWAP1 PUSH2 0x100 EXP SWAP1 DIV PUSH20 0xFFFFFFFFFFFFFFFFFFFFFFFFFFFFFFFFFFFFFFFF AND SWAP1 DUP1 PUSH1 0x1 ADD SLOAD SWAP1 POP DUP3 JUMP JUMPDEST DUP4 DUP4 CALLER PUSH0 DUP4 SWAP1 POP DUP2 PUSH20 0xFFFFFFFFFFFFFFFFFFFFFFFFFFFFFFFFFFFFFFFF AND DUP2 PUSH20 0xFFFFFFFFFFFFFFFFFFFFFFFFFFFFFFFFFFFFFFFF AND PUSH4 0x6352211E DUP6 PUSH1 0x40 MLOAD DUP3 PUSH4 0xFFFFFFFF AND PUSH1 0xE0 SHL DUP2 MSTORE PUSH1 0x4 ADD PUSH2 0xC48 SWAP2 SWAP1 PUSH2 0x239C JUMP JUMPDEST PUSH1 0x20 PUSH1 0x40 MLOAD DUP1 DUP4 SUB DUP2 DUP7 GAS STATICCALL ISZERO DUP1 ISZERO PUSH2 0xC63 JUMPI RETURNDATASIZE PUSH0 DUP1 RETURNDATACOPY RETURNDATASIZE PUSH0 REVERT JUMPDEST POP POP POP POP PUSH1 0x40 MLOAD RETURNDATASIZE PUSH1 0x1F NOT PUSH1 0x1F DUP3 ADD AND DUP3 ADD DUP1 PUSH1 0x40 MSTORE POP DUP2 ADD SWAP1 PUSH2 0xC87 SWAP2 SWAP1 PUSH2 0x23F6 JUMP JUMPDEST PUSH20 0xFFFFFFFFFFFFFFFFFFFFFFFFFFFFFFFFFFFFFFFF AND EQ PUSH2 0xCDD JUMPI PUSH1 0x40 MLOAD PUSH32 0x8C379A000000000000000000000000000000000000000000000000000000000 DUP2 MSTORE PUSH1 0x4 ADD PUSH2 0xCD4 SWAP1 PUSH2 0x246B JUMP JUMPDEST PUSH1 0x40 MLOAD DUP1 SWAP2 SUB SWAP1 REVERT JUMPDEST DUP8 DUP8 PUSH0 PUSH1 0x1 PUSH0 DUP5 PUSH20 0xFFFFFFFFFFFFFFFFFFFFFFFFFFFFFFFFFFFFFFFF AND PUSH20 0xFFFFFFFFFFFFFFFFFFFFFFFFFFFFFFFFFFFFFFFF AND DUP2 MSTORE PUSH1 0x20 ADD SWAP1 DUP2 MSTORE PUSH1 0x20 ADD PUSH0 KECCAK256 PUSH0 DUP4 DUP2 MSTORE PUSH1 0x20 ADD SWAP1 DUP2 MSTORE PUSH1 0x20 ADD PUSH0 KECCAK256 PUSH0 ADD SLOAD EQ PUSH2 0xD6F JUMPI PUSH1 0x40 MLOAD PUSH32 0x8C379A000000000000000000000000000000000000000000000000000000000 DUP2 MSTORE PUSH1 0x4 ADD PUSH2 0xD66 SWAP1 PUSH2 0x24D3 JUMP JUMPDEST PUSH1 0x40 MLOAD DUP1 SWAP2 SUB SWAP1 REVERT JUMPDEST PUSH0 DUP9 GT PUSH2 0xDB1 JUMPI PUSH1 0x40 MLOAD PUSH32 0x8C379A000000000000000000000000000000000000000000000000000000000 DUP2 MSTORE PUSH1 0x4 ADD PUSH2 0xDA8 SWAP1 PUSH2 0x21C9 JUMP JUMPDEST PUSH1 0x40 MLOAD DUP1 SWAP2 SUB SWAP1 REVERT JUMPDEST PUSH0 DUP11 SWAP1 POP ADDRESS PUSH20 0xFFFFFFFFFFFFFFFFFFFFFFFFFFFFFFFFFFFFFFFF AND DUP2 PUSH20 0xFFFFFFFFFFFFFFFFFFFFFFFFFFFFFFFFFFFFFFFF AND PUSH4 0x81812FC DUP13 PUSH1 0x40 MLOAD DUP3 PUSH4 0xFFFFFFFF AND PUSH1 0xE0 SHL DUP2 MSTORE PUSH1 0x4 ADD PUSH2 0xE05 SWAP2 SWAP1 PUSH2 0x239C JUMP JUMPDEST PUSH1 0x20 PUSH1 0x40 MLOAD DUP1 DUP4 SUB DUP2 DUP7 GAS STATICCALL ISZERO DUP1 ISZERO PUSH2 0xE20 JUMPI RETURNDATASIZE PUSH0 DUP1 RETURNDATACOPY RETURNDATASIZE PUSH0 REVERT JUMPDEST POP POP POP POP PUSH1 0x40 MLOAD RETURNDATASIZE PUSH1 0x1F NOT PUSH1 0x1F DUP3 ADD AND DUP3 ADD DUP1 PUSH1 0x40 MSTORE POP DUP2 ADD SWAP1 PUSH2 0xE44 SWAP2 SWAP1 PUSH2 0x23F6 JUMP JUMPDEST PUSH20 0xFFFFFFFFFFFFFFFFFFFFFFFFFFFFFFFFFFFFFFFF AND EQ PUSH2 0xE9A JUMPI PUSH1 0x40 MLOAD PUSH32 0x8C379A000000000000000000000000000000000000000000000000000000000 DUP2 MSTORE PUSH1 0x4 ADD PUSH2 0xE91 SWAP1 PUSH2 0x253B JUMP JUMPDEST PUSH1 0x40 MLOAD DUP1 SWAP2 SUB SWAP1 REVERT JUMPDEST PUSH1 0x40 MLOAD DUP1 PUSH1 0x60 ADD PUSH1 0x40 MSTORE DUP1 DUP11 DUP2 MSTORE PUSH1 0x20 ADD CALLER PUSH20 0xFFFFFFFFFFFFFFFFFFFFFFFFFFFFFFFFFFFFFFFF AND DUP2 MSTORE PUSH1 0x20 ADD DUP10 DUP2 MSTORE POP PUSH1 0x1 PUSH0 DUP14 PUSH20 0xFFFFFFFFFFFFFFFFFFFFFFFFFFFFFFFFFFFFFFFF AND PUSH20 0xFFFFFFFFFFFFFFFFFFFFFFFFFFFFFFFFFFFFFFFF AND DUP2 MSTORE PUSH1 0x20 ADD SWAP1 DUP2 MSTORE PUSH1 0x20 ADD PUSH0 KECCAK256 PUSH0 DUP13 DUP2 MSTORE PUSH1 0x20 ADD SWAP1 DUP2 MSTORE PUSH1 0x20 ADD PUSH0 KECCAK256 PUSH0 DUP3 ADD MLOAD DUP2 PUSH0 ADD SSTORE PUSH1 0x20 DUP3 ADD MLOAD DUP2 PUSH1 0x1 ADD PUSH0 PUSH2 0x100 EXP DUP2 SLOAD DUP2 PUSH20 0xFFFFFFFFFFFFFFFFFFFFFFFFFFFFFFFFFFFFFFFF MUL NOT AND SWAP1 DUP4 PUSH20 0xFFFFFFFFFFFFFFFFFFFFFFFFFFFFFFFFFFFFFFFF AND MUL OR SWAP1 SSTORE POP PUSH1 0x40 DUP3 ADD MLOAD DUP2 PUSH1 0x2 ADD SWAP1 DUP2 PUSH2 0xF7A SWAP2 SWAP1 PUSH2 0x26ED JUMP JUMPDEST POP SWAP1 POP POP PUSH1 0x4 PUSH1 0x40 MLOAD DUP1 PUSH1 0x40 ADD PUSH1 0x40 MSTORE DUP1 DUP14 PUSH20 0xFFFFFFFFFFFFFFFFFFFFFFFFFFFFFFFFFFFFFFFF AND DUP2 MSTORE PUSH1 0x20 ADD DUP13 DUP2 MSTORE POP SWAP1 DUP1 PUSH1 0x1 DUP2 SLOAD ADD DUP1 DUP3 SSTORE DUP1 SWAP2 POP POP PUSH1 0x1 SWAP1 SUB SWAP1 PUSH0 MSTORE PUSH1 0x20 PUSH0 KECCAK256 SWAP1 PUSH1 0x2 MUL ADD PUSH0 SWAP1 SWAP2 SWAP1 SWAP2 SWAP1 SWAP2 POP PUSH0 DUP3 ADD MLOAD DUP2 PUSH0 ADD PUSH0 PUSH2 0x100 EXP DUP2 SLOAD DUP2 PUSH20 0xFFFFFFFFFFFFFFFFFFFFFFFFFFFFFFFFFFFFFFFF MUL NOT AND SWAP1 DUP4 PUSH20 0xFFFFFFFFFFFFFFFFFFFFFFFFFFFFFFFFFFFFFFFF AND MUL OR SWAP1 SSTORE POP PUSH1 0x20 DUP3 ADD MLOAD DUP2 PUSH1 0x1 ADD SSTORE POP POP CALLER PUSH20 0xFFFFFFFFFFFFFFFFFFFFFFFFFFFFFFFFFFFFFFFF AND DUP11 DUP13 PUSH20 0xFFFFFFFFFFFFFFFFFFFFFFFFFFFFFFFFFFFFFFFF AND PUSH32 0xD3D530E863BCC675FBAAC43A738955B08523EA4C724EB86D062F04C7A9E8517C DUP13 DUP13 PUSH1 0x40 MLOAD PUSH2 0x1081 SWAP3 SWAP2 SWAP1 PUSH2 0x27BC JUMP JUMPDEST PUSH1 0x40 MLOAD DUP1 SWAP2 SUB SWAP1 LOG4 POP POP POP POP POP POP POP POP POP POP POP JUMP JUMPDEST PUSH2 0x109E PUSH2 0x1A8C JUMP JUMPDEST DUP2 DUP2 PUSH0 PUSH1 0x1 PUSH0 DUP5 PUSH20 0xFFFFFFFFFFFFFFFFFFFFFFFFFFFFFFFFFFFFFFFF AND PUSH20 0xFFFFFFFFFFFFFFFFFFFFFFFFFFFFFFFFFFFFFFFF AND DUP2 MSTORE PUSH1 0x20 ADD SWAP1 DUP2 MSTORE PUSH1 0x20 ADD PUSH0 KECCAK256 PUSH0 DUP4 DUP2 MSTORE PUSH1 0x20 ADD SWAP1 DUP2 MSTORE PUSH1 0x20 ADD PUSH0 KECCAK256 PUSH0 ADD SLOAD GT PUSH2 0x1130 JUMPI PUSH1 0x40 MLOAD PUSH32 0x8C379A000000000000000000000000000000000000000000000000000000000 DUP2 MSTORE PUSH1 0x4 ADD PUSH2 0x1127 SWAP1 PUSH2 0x2834 JUMP JUMPDEST PUSH1 0x40 MLOAD DUP1 SWAP2 SUB SWAP1 REVERT JUMPDEST PUSH0 PUSH1 0x1 PUSH0 DUP7 PUSH20 0xFFFFFFFFFFFFFFFFFFFFFFFFFFFFFFFFFFFFFFFF AND PUSH20 0xFFFFFFFFFFFFFFFFFFFFFFFFFFFFFFFFFFFFFFFF AND DUP2 MSTORE PUSH1 0x20 ADD SWAP1 DUP2 MSTORE PUSH1 0x20 ADD PUSH0 KECCAK256 PUSH0 DUP6 DUP2 MSTORE PUSH1 0x20 ADD SWAP1 DUP2 MSTORE PUSH1 0x20 ADD PUSH0 KECCAK256 PUSH1 0x40 MLOAD DUP1 PUSH1 0x60 ADD PUSH1 0x40 MSTORE SWAP1 DUP2 PUSH0 DUP3 ADD SLOAD DUP2 MSTORE PUSH1 0x20 ADD PUSH1 0x1 DUP3 ADD PUSH0 SWAP1 SLOAD SWAP1 PUSH2 0x100 EXP SWAP1 DIV PUSH20 0xFFFFFFFFFFFFFFFFFFFFFFFFFFFFFFFFFFFFFFFF AND PUSH20 0xFFFFFFFFFFFFFFFFFFFFFFFFFFFFFFFFFFFFFFFF AND PUSH20 0xFFFFFFFFFFFFFFFFFFFFFFFFFFFFFFFFFFFFFFFF AND DUP2 MSTORE PUSH1 0x20 ADD PUSH1 0x2 DUP3 ADD DUP1 SLOAD PUSH2 0x11F6 SWAP1 PUSH2 0x214F JUMP JUMPDEST DUP1 PUSH1 0x1F ADD PUSH1 0x20 DUP1 SWAP2 DIV MUL PUSH1 0x20 ADD PUSH1 0x40 MLOAD SWAP1 DUP2 ADD PUSH1 0x40 MSTORE DUP1 SWAP3 SWAP2 SWAP1 DUP2 DUP2 MSTORE PUSH1 0x20 ADD DUP3 DUP1 SLOAD PUSH2 0x1222 SWAP1 PUSH2 0x214F JUMP JUMPDEST DUP1 ISZERO PUSH2 0x126D JUMPI DUP1 PUSH1 0x1F LT PUSH2 0x1244 JUMPI PUSH2 0x100 DUP1 DUP4 SLOAD DIV MUL DUP4 MSTORE SWAP2 PUSH1 0x20 ADD SWAP2 PUSH2 0x126D JUMP JUMPDEST DUP3 ADD SWAP2 SWAP1 PUSH0 MSTORE PUSH1 0x20 PUSH0 KECCAK256 SWAP1 JUMPDEST DUP2 SLOAD DUP2 MSTORE SWAP1 PUSH1 0x1 ADD SWAP1 PUSH1 0x20 ADD DUP1 DUP4 GT PUSH2 0x1250 JUMPI DUP3 SWAP1 SUB PUSH1 0x1F AND DUP3 ADD SWAP2 JUMPDEST POP POP POP POP POP DUP2 MSTORE POP POP SWAP1 POP PUSH1 0x3 PUSH0 SWAP1 SLOAD SWAP1 PUSH2 0x100 EXP SWAP1 DIV PUSH20 0xFFFFFFFFFFFFFFFFFFFFFFFFFFFFFFFFFFFFFFFF AND PUSH20 0xFFFFFFFFFFFFFFFFFFFFFFFFFFFFFFFFFFFFFFFF AND PUSH4 0x23B872DD CALLER DUP4 PUSH1 0x20 ADD MLOAD DUP5 PUSH0 ADD MLOAD PUSH1 0x40 MLOAD DUP5 PUSH4 0xFFFFFFFF AND PUSH1 0xE0 SHL DUP2 MSTORE PUSH1 0x4 ADD PUSH2 0x12DD SWAP4 SWAP3 SWAP2 SWAP1 PUSH2 0x229F JUMP JUMPDEST PUSH1 0x20 PUSH1 0x40 MLOAD DUP1 DUP4 SUB DUP2 PUSH0 DUP8 GAS CALL ISZERO DUP1 ISZERO PUSH2 0x12F9 JUMPI RETURNDATASIZE PUSH0 DUP1 RETURNDATACOPY RETURNDATASIZE PUSH0 REVERT JUMPDEST POP POP POP POP PUSH1 0x40 MLOAD RETURNDATASIZE PUSH1 0x1F NOT PUSH1 0x1F DUP3 ADD AND DUP3 ADD DUP1 PUSH1 0x40 MSTORE POP DUP2 ADD SWAP1 PUSH2 0x131D SWAP2 SWAP1 PUSH2 0x2309 JUMP JUMPDEST PUSH2 0x135C JUMPI PUSH1 0x40 MLOAD PUSH32 0x8C379A000000000000000000000000000000000000000000000000000000000 DUP2 MSTORE PUSH1 0x4 ADD PUSH2 0x1353 SWAP1 PUSH2 0x237E JUMP JUMPDEST PUSH1 0x40 MLOAD DUP1 SWAP2 SUB SWAP1 REVERT JUMPDEST PUSH1 0x1 PUSH0 DUP7 PUSH20 0xFFFFFFFFFFFFFFFFFFFFFFFFFFFFFFFFFFFFFFFF AND PUSH20 0xFFFFFFFFFFFFFFFFFFFFFFFFFFFFFFFFFFFFFFFF AND DUP2 MSTORE PUSH1 0x20 ADD SWAP1 DUP2 MSTORE PUSH1 0x20 ADD PUSH0 KECCAK256 PUSH0 DUP6 DUP2 MSTORE PUSH1 0x20 ADD SWAP1 DUP2 MSTORE PUSH1 0x20 ADD PUSH0 KECCAK256 PUSH0 DUP1 DUP3 ADD PUSH0 SWAP1 SSTORE PUSH1 0x1 DUP3 ADD PUSH0 PUSH2 0x100 EXP DUP2 SLOAD SWAP1 PUSH20 0xFFFFFFFFFFFFFFFFFFFFFFFFFFFFFFFFFFFFFFFF MUL NOT AND SWAP1 SSTORE PUSH1 0x2 DUP3 ADD PUSH0 PUSH2 0x13E4 SWAP2 SWAP1 PUSH2 0x1AE2 JUMP JUMPDEST POP POP PUSH0 JUMPDEST PUSH1 0x4 DUP1 SLOAD SWAP1 POP DUP2 LT ISZERO PUSH2 0x14B3 JUMPI DUP6 PUSH20 0xFFFFFFFFFFFFFFFFFFFFFFFFFFFFFFFFFFFFFFFF AND PUSH1 0x4 DUP3 DUP2 SLOAD DUP2 LT PUSH2 0x1420 JUMPI PUSH2 0x141F PUSH2 0x23B5 JUMP JUMPDEST JUMPDEST SWAP1 PUSH0 MSTORE PUSH1 0x20 PUSH0 KECCAK256 SWAP1 PUSH1 0x2 MUL ADD PUSH0 ADD PUSH0 SWAP1 SLOAD SWAP1 PUSH2 0x100 EXP SWAP1 DIV PUSH20 0xFFFFFFFFFFFFFFFFFFFFFFFFFFFFFFFFFFFFFFFF AND PUSH20 0xFFFFFFFFFFFFFFFFFFFFFFFFFFFFFFFFFFFFFFFF AND EQ DUP1 ISZERO PUSH2 0x1493 JUMPI POP DUP5 PUSH1 0x4 DUP3 DUP2 SLOAD DUP2 LT PUSH2 0x1481 JUMPI PUSH2 0x1480 PUSH2 0x23B5 JUMP JUMPDEST JUMPDEST SWAP1 PUSH0 MSTORE PUSH1 0x20 PUSH0 KECCAK256 SWAP1 PUSH1 0x2 MUL ADD PUSH1 0x1 ADD SLOAD EQ JUMPDEST ISZERO PUSH2 0x14A6 JUMPI PUSH2 0x14A1 DUP2 PUSH2 0x192C JUMP JUMPDEST PUSH2 0x14B3 JUMP JUMPDEST DUP1 DUP1 PUSH1 0x1 ADD SWAP2 POP POP PUSH2 0x13E8 JUMP JUMPDEST POP DUP5 PUSH20 0xFFFFFFFFFFFFFFFFFFFFFFFFFFFFFFFFFFFFFFFF AND PUSH4 0x42842E0E DUP3 PUSH1 0x20 ADD MLOAD CALLER DUP8 PUSH1 0x40 MLOAD DUP5 PUSH4 0xFFFFFFFF AND PUSH1 0xE0 SHL DUP2 MSTORE PUSH1 0x4 ADD PUSH2 0x14F5 SWAP4 SWAP3 SWAP2 SWAP1 PUSH2 0x229F JUMP JUMPDEST PUSH0 PUSH1 0x40 MLOAD DUP1 DUP4 SUB DUP2 PUSH0 DUP8 DUP1 EXTCODESIZE ISZERO DUP1 ISZERO PUSH2 0x150C JUMPI PUSH0 DUP1 REVERT JUMPDEST POP GAS CALL ISZERO DUP1 ISZERO PUSH2 0x151E JUMPI RETURNDATASIZE PUSH0 DUP1 RETURNDATACOPY RETURNDATASIZE PUSH0 REVERT JUMPDEST POP POP POP POP CALLER PUSH20 0xFFFFFFFFFFFFFFFFFFFFFFFFFFFFFFFFFFFFFFFF AND DUP5 DUP7 PUSH20 0xFFFFFFFFFFFFFFFFFFFFFFFFFFFFFFFFFFFFFFFF AND PUSH32 0x77C3CED349B08A2AF4E9D443FB697437C3197B3095D43FCBDC2CDC97B1A60E0C DUP5 PUSH0 ADD MLOAD PUSH1 0x40 MLOAD PUSH2 0x1583 SWAP2 SWAP1 PUSH2 0x239C JUMP JUMPDEST PUSH1 0x40 MLOAD DUP1 SWAP2 SUB SWAP1 LOG4 POP POP POP PUSH2 0x1596 PUSH2 0x1AD9 JUMP JUMPDEST POP POP JUMP JUMPDEST PUSH1 0x2 DUP2 DUP1 MLOAD PUSH1 0x20 DUP2 ADD DUP3 ADD DUP1 MLOAD DUP5 DUP3 MSTORE PUSH1 0x20 DUP4 ADD PUSH1 0x20 DUP6 ADD KECCAK256 DUP2 DUP4 MSTORE DUP1 SWAP6 POP POP POP POP POP POP PUSH0 SWAP2 POP SWAP1 POP DUP1 PUSH0 ADD SLOAD SWAP1 DUP1 PUSH1 0x1 ADD PUSH0 SWAP1 SLOAD SWAP1 PUSH2 0x100 EXP SWAP1 DIV PUSH20 0xFFFFFFFFFFFFFFFFFFFFFFFFFFFFFFFFFFFFFFFF AND SWAP1 POP DUP3 JUMP JUMPDEST DUP2 DUP2 CALLER PUSH0 DUP4 SWAP1 POP DUP2 PUSH20 0xFFFFFFFFFFFFFFFFFFFFFFFFFFFFFFFFFFFFFFFF AND DUP2 PUSH20 0xFFFFFFFFFFFFFFFFFFFFFFFFFFFFFFFFFFFFFFFF AND PUSH4 0x6352211E DUP6 PUSH1 0x40 MLOAD DUP3 PUSH4 0xFFFFFFFF AND PUSH1 0xE0 SHL DUP2 MSTORE PUSH1 0x4 ADD PUSH2 0x1648 SWAP2 SWAP1 PUSH2 0x239C JUMP JUMPDEST PUSH1 0x20 PUSH1 0x40 MLOAD DUP1 DUP4 SUB DUP2 DUP7 GAS STATICCALL ISZERO DUP1 ISZERO PUSH2 0x1663 JUMPI RETURNDATASIZE PUSH0 DUP1 RETURNDATACOPY RETURNDATASIZE PUSH0 REVERT JUMPDEST POP POP POP POP PUSH1 0x40 MLOAD RETURNDATASIZE PUSH1 0x1F NOT PUSH1 0x1F DUP3 ADD AND DUP3 ADD DUP1 PUSH1 0x40 MSTORE POP DUP2 ADD SWAP1 PUSH2 0x1687 SWAP2 SWAP1 PUSH2 0x23F6 JUMP JUMPDEST PUSH20 0xFFFFFFFFFFFFFFFFFFFFFFFFFFFFFFFFFFFFFFFF AND EQ PUSH2 0x16DD JUMPI PUSH1 0x40 MLOAD PUSH32 0x8C379A000000000000000000000000000000000000000000000000000000000 DUP2 MSTORE PUSH1 0x4 ADD PUSH2 0x16D4 SWAP1 PUSH2 0x246B JUMP JUMPDEST PUSH1 0x40 MLOAD DUP1 SWAP2 SUB SWAP1 REVERT JUMPDEST DUP6 DUP6 PUSH0 PUSH1 0x1 PUSH0 DUP5 PUSH20 0xFFFFFFFFFFFFFFFFFFFFFFFFFFFFFFFFFFFFFFFF AND PUSH20 0xFFFFFFFFFFFFFFFFFFFFFFFFFFFFFFFFFFFFFFFF AND DUP2 MSTORE PUSH1 0x20 ADD SWAP1 DUP2 MSTORE PUSH1 0x20 ADD PUSH0 KECCAK256 PUSH0 DUP4 DUP2 MSTORE PUSH1 0x20 ADD SWAP1 DUP2 MSTORE PUSH1 0x20 ADD PUSH0 KECCAK256 PUSH0 ADD SLOAD GT PUSH2 0x176F JUMPI PUSH1 0x40 MLOAD PUSH32 0x8C379A000000000000000000000000000000000000000000000000000000000 DUP2 MSTORE PUSH1 0x4 ADD PUSH2 0x1766 SWAP1 PUSH2 0x2834 JUMP JUMPDEST PUSH1 0x40 MLOAD DUP1 SWAP2 SUB SWAP1 REVERT JUMPDEST PUSH1 0x1 PUSH0 DUP10 PUSH20 0xFFFFFFFFFFFFFFFFFFFFFFFFFFFFFFFFFFFFFFFF AND PUSH20 0xFFFFFFFFFFFFFFFFFFFFFFFFFFFFFFFFFFFFFFFF AND DUP2 MSTORE PUSH1 0x20 ADD SWAP1 DUP2 MSTORE PUSH1 0x20 ADD PUSH0 KECCAK256 PUSH0 DUP9 DUP2 MSTORE PUSH1 0x20 ADD SWAP1 DUP2 MSTORE PUSH1 0x20 ADD PUSH0 KECCAK256 PUSH0 DUP1 DUP3 ADD PUSH0 SWAP1 SSTORE PUSH1 0x1 DUP3 ADD PUSH0 PUSH2 0x100 EXP DUP2 SLOAD SWAP1 PUSH20 0xFFFFFFFFFFFFFFFFFFFFFFFFFFFFFFFFFFFFFFFF MUL NOT AND SWAP1 SSTORE PUSH1 0x2 DUP3 ADD PUSH0 PUSH2 0x17F7 SWAP2 SWAP1 PUSH2 0x1AE2 JUMP JUMPDEST POP POP PUSH0 JUMPDEST PUSH1 0x4 DUP1 SLOAD SWAP1 POP DUP2 LT ISZERO PUSH2 0x18C6 JUMPI DUP9 PUSH20 0xFFFFFFFFFFFFFFFFFFFFFFFFFFFFFFFFFFFFFFFF AND PUSH1 0x4 DUP3 DUP2 SLOAD DUP2 LT PUSH2 0x1833 JUMPI PUSH2 0x1832 PUSH2 0x23B5 JUMP JUMPDEST JUMPDEST SWAP1 PUSH0 MSTORE PUSH1 0x20 PUSH0 KECCAK256 SWAP1 PUSH1 0x2 MUL ADD PUSH0 ADD PUSH0 SWAP1 SLOAD SWAP1 PUSH2 0x100 EXP SWAP1 DIV PUSH20 0xFFFFFFFFFFFFFFFFFFFFFFFFFFFFFFFFFFFFFFFF AND PUSH20 0xFFFFFFFFFFFFFFFFFFFFFFFFFFFFFFFFFFFFFFFF AND EQ DUP1 ISZERO PUSH2 0x18A6 JUMPI POP DUP8 PUSH1 0x4 DUP3 DUP2 SLOAD DUP2 LT PUSH2 0x1894 JUMPI PUSH2 0x1893 PUSH2 0x23B5 JUMP JUMPDEST JUMPDEST SWAP1 PUSH0 MSTORE PUSH1 0x20 PUSH0 KECCAK256 SWAP1 PUSH1 0x2 MUL ADD PUSH1 0x1 ADD SLOAD EQ JUMPDEST ISZERO PUSH2 0x18B9 JUMPI PUSH2 0x18B4 DUP2 PUSH2 0x192C JUMP JUMPDEST PUSH2 0x18C6 JUMP JUMPDEST DUP1 DUP1 PUSH1 0x1 ADD SWAP2 POP POP PUSH2 0x17FB JUMP JUMPDEST POP CALLER PUSH20 0xFFFFFFFFFFFFFFFFFFFFFFFFFFFFFFFFFFFFFFFF AND DUP8 DUP10 PUSH20 0xFFFFFFFFFFFFFFFFFFFFFFFFFFFFFFFFFFFFFFFF AND PUSH32 0x83614A26FD4398C876BD6684C0D04CF2E84EE7E4BC24E8D8888AB0E724BAC032 PUSH1 0x40 MLOAD PUSH1 0x40 MLOAD DUP1 SWAP2 SUB SWAP1 LOG4 POP POP POP POP POP POP POP POP JUMP JUMPDEST PUSH1 0x4 DUP1 SLOAD SWAP1 POP DUP2 LT PUSH2 0x1973 JUMPI PUSH1 0x40 MLOAD PUSH32 0x8C379A000000000000000000000000000000000000000000000000000000000 DUP2 MSTORE PUSH1 0x4 ADD PUSH2 0x196A SWAP1 PUSH2 0x289C JUMP JUMPDEST PUSH1 0x40 MLOAD DUP1 SWAP2 SUB SWAP1 REVERT JUMPDEST PUSH1 0x4 PUSH1 0x1 PUSH1 0x4 DUP1 SLOAD SWAP1 POP PUSH2 0x1987 SWAP2 SWAP1 PUSH2 0x28E7 JUMP JUMPDEST DUP2 SLOAD DUP2 LT PUSH2 0x1998 JUMPI PUSH2 0x1997 PUSH2 0x23B5 JUMP JUMPDEST JUMPDEST SWAP1 PUSH0 MSTORE PUSH1 0x20 PUSH0 KECCAK256 SWAP1 PUSH1 0x2 MUL ADD PUSH1 0x4 DUP3 DUP2 SLOAD DUP2 LT PUSH2 0x19B8 JUMPI PUSH2 0x19B7 PUSH2 0x23B5 JUMP JUMPDEST JUMPDEST SWAP1 PUSH0 MSTORE PUSH1 0x20 PUSH0 KECCAK256 SWAP1 PUSH1 0x2 MUL ADD PUSH0 DUP3 ADD PUSH0 SWAP1 SLOAD SWAP1 PUSH2 0x100 EXP SWAP1 DIV PUSH20 0xFFFFFFFFFFFFFFFFFFFFFFFFFFFFFFFFFFFFFFFF AND DUP2 PUSH0 ADD PUSH0 PUSH2 0x100 EXP DUP2 SLOAD DUP2 PUSH20 0xFFFFFFFFFFFFFFFFFFFFFFFFFFFFFFFFFFFFFFFF MUL NOT AND SWAP1 DUP4 PUSH20 0xFFFFFFFFFFFFFFFFFFFFFFFFFFFFFFFFFFFFFFFF AND MUL OR SWAP1 SSTORE POP PUSH1 0x1 DUP3 ADD SLOAD DUP2 PUSH1 0x1 ADD SSTORE SWAP1 POP POP PUSH1 0x4 DUP1 SLOAD DUP1 PUSH2 0x1A46 JUMPI PUSH2 0x1A45 PUSH2 0x291A JUMP JUMPDEST JUMPDEST PUSH1 0x1 SWAP1 SUB DUP2 DUP2 SWAP1 PUSH0 MSTORE PUSH1 0x20 PUSH0 KECCAK256 SWAP1 PUSH1 0x2 MUL ADD PUSH0 DUP1 DUP3 ADD PUSH0 PUSH2 0x100 EXP DUP2 SLOAD SWAP1 PUSH20 0xFFFFFFFFFFFFFFFFFFFFFFFFFFFFFFFFFFFFFFFF MUL NOT AND SWAP1 SSTORE PUSH1 0x1 DUP3 ADD PUSH0 SWAP1 SSTORE POP POP SWAP1 SSTORE POP JUMP JUMPDEST PUSH1 0x2 PUSH0 SLOAD SUB PUSH2 0x1AD0 JUMPI PUSH1 0x40 MLOAD PUSH32 0x8C379A000000000000000000000000000000000000000000000000000000000 DUP2 MSTORE PUSH1 0x4 ADD PUSH2 0x1AC7 SWAP1 PUSH2 0x2991 JUMP JUMPDEST PUSH1 0x40 MLOAD DUP1 SWAP2 SUB SWAP1 REVERT JUMPDEST PUSH1 0x2 PUSH0 DUP2 SWAP1 SSTORE POP JUMP JUMPDEST PUSH1 0x1 PUSH0 DUP2 SWAP1 SSTORE POP JUMP JUMPDEST POP DUP1 SLOAD PUSH2 0x1AEE SWAP1 PUSH2 0x214F JUMP JUMPDEST PUSH0 DUP3 SSTORE DUP1 PUSH1 0x1F LT PUSH2 0x1AFF JUMPI POP PUSH2 0x1B1C JUMP JUMPDEST PUSH1 0x1F ADD PUSH1 0x20 SWAP1 DIV SWAP1 PUSH0 MSTORE PUSH1 0x20 PUSH0 KECCAK256 SWAP1 DUP2 ADD SWAP1 PUSH2 0x1B1B SWAP2 SWAP1 PUSH2 0x1B54 JUMP JUMPDEST JUMPDEST POP JUMP JUMPDEST PUSH1 0x40 MLOAD DUP1 PUSH1 0x60 ADD PUSH1 0x40 MSTORE DUP1 PUSH0 DUP2 MSTORE PUSH1 0x20 ADD PUSH0 PUSH20 0xFFFFFFFFFFFFFFFFFFFFFFFFFFFFFFFFFFFFFFFF AND DUP2 MSTORE PUSH1 0x20 ADD PUSH1 0x60 DUP2 MSTORE POP SWAP1 JUMP JUMPDEST JUMPDEST DUP1 DUP3 GT ISZERO PUSH2 0x1B6B JUMPI PUSH0 DUP2 PUSH0 SWAP1 SSTORE POP PUSH1 0x1 ADD PUSH2 0x1B55 JUMP JUMPDEST POP SWAP1 JUMP JUMPDEST PUSH0 PUSH1 0x40 MLOAD SWAP1 POP SWAP1 JUMP JUMPDEST PUSH0 DUP1 REVERT JUMPDEST PUSH0 DUP1 REVERT JUMPDEST PUSH0 PUSH20 0xFFFFFFFFFFFFFFFFFFFFFFFFFFFFFFFFFFFFFFFF DUP3 AND SWAP1 POP SWAP2 SWAP1 POP JUMP JUMPDEST PUSH0 PUSH2 0x1BA9 DUP3 PUSH2 0x1B80 JUMP JUMPDEST SWAP1 POP SWAP2 SWAP1 POP JUMP JUMPDEST PUSH2 0x1BB9 DUP2 PUSH2 0x1B9F JUMP JUMPDEST DUP2 EQ PUSH2 0x1BC3 JUMPI PUSH0 DUP1 REVERT JUMPDEST POP JUMP JUMPDEST PUSH0 DUP2 CALLDATALOAD SWAP1 POP PUSH2 0x1BD4 DUP2 PUSH2 0x1BB0 JUMP JUMPDEST SWAP3 SWAP2 POP POP JUMP JUMPDEST PUSH0 DUP2 SWAP1 POP SWAP2 SWAP1 POP JUMP JUMPDEST PUSH2 0x1BEC DUP2 PUSH2 0x1BDA JUMP JUMPDEST DUP2 EQ PUSH2 0x1BF6 JUMPI PUSH0 DUP1 REVERT JUMPDEST POP JUMP JUMPDEST PUSH0 DUP2 CALLDATALOAD SWAP1 POP PUSH2 0x1C07 DUP2 PUSH2 0x1BE3 JUMP JUMPDEST SWAP3 SWAP2 POP POP JUMP JUMPDEST PUSH0 DUP1 PUSH1 0x40 DUP4 DUP6 SUB SLT ISZERO PUSH2 0x1C23 JUMPI PUSH2 0x1C22 PUSH2 0x1B78 JUMP JUMPDEST JUMPDEST PUSH0 PUSH2 0x1C30 DUP6 DUP3 DUP7 ADD PUSH2 0x1BC6 JUMP JUMPDEST SWAP3 POP POP PUSH1 0x20 PUSH2 0x1C41 DUP6 DUP3 DUP7 ADD PUSH2 0x1BF9 JUMP JUMPDEST SWAP2 POP POP SWAP3 POP SWAP3 SWAP1 POP JUMP JUMPDEST PUSH2 0x1C54 DUP2 PUSH2 0x1BDA JUMP JUMPDEST DUP3 MSTORE POP POP JUMP JUMPDEST PUSH2 0x1C63 DUP2 PUSH2 0x1B9F JUMP JUMPDEST DUP3 MSTORE POP POP JUMP JUMPDEST PUSH0 DUP2 MLOAD SWAP1 POP SWAP2 SWAP1 POP JUMP JUMPDEST PUSH0 DUP3 DUP3 MSTORE PUSH1 0x20 DUP3 ADD SWAP1 POP SWAP3 SWAP2 POP POP JUMP JUMPDEST DUP3 DUP2 DUP4 MCOPY PUSH0 DUP4 DUP4 ADD MSTORE POP POP POP JUMP JUMPDEST PUSH0 PUSH1 0x1F NOT PUSH1 0x1F DUP4 ADD AND SWAP1 POP SWAP2 SWAP1 POP JUMP JUMPDEST PUSH0 PUSH2 0x1CAB DUP3 PUSH2 0x1C69 JUMP JUMPDEST PUSH2 0x1CB5 DUP2 DUP6 PUSH2 0x1C73 JUMP JUMPDEST SWAP4 POP PUSH2 0x1CC5 DUP2 DUP6 PUSH1 0x20 DUP7 ADD PUSH2 0x1C83 JUMP JUMPDEST PUSH2 0x1CCE DUP2 PUSH2 0x1C91 JUMP JUMPDEST DUP5 ADD SWAP2 POP POP SWAP3 SWAP2 POP POP JUMP JUMPDEST PUSH0 PUSH1 0x60 DUP3 ADD SWAP1 POP PUSH2 0x1CEC PUSH0 DUP4 ADD DUP7 PUSH2 0x1C4B JUMP JUMPDEST PUSH2 0x1CF9 PUSH1 0x20 DUP4 ADD DUP6 PUSH2 0x1C5A JUMP JUMPDEST DUP2 DUP2 SUB PUSH1 0x40 DUP4 ADD MSTORE PUSH2 0x1D0B DUP2 DUP5 PUSH2 0x1CA1 JUMP JUMPDEST SWAP1 POP SWAP5 SWAP4 POP POP POP POP JUMP JUMPDEST PUSH0 DUP2 SWAP1 POP SWAP2 SWAP1 POP JUMP JUMPDEST PUSH0 PUSH2 0x1D38 PUSH2 0x1D33 PUSH2 0x1D2E DUP5 PUSH2 0x1B80 JUMP JUMPDEST PUSH2 0x1D15 JUMP JUMPDEST PUSH2 0x1B80 JUMP JUMPDEST SWAP1 POP SWAP2 SWAP1 POP JUMP JUMPDEST PUSH0 PUSH2 0x1D49 DUP3 PUSH2 0x1D1E JUMP JUMPDEST SWAP1 POP SWAP2 SWAP1 POP JUMP JUMPDEST PUSH0 PUSH2 0x1D5A DUP3 PUSH2 0x1D3F JUMP JUMPDEST SWAP1 POP SWAP2 SWAP1 POP JUMP JUMPDEST PUSH2 0x1D6A DUP2 PUSH2 0x1D50 JUMP JUMPDEST DUP3 MSTORE POP POP JUMP JUMPDEST PUSH0 PUSH1 0x20 DUP3 ADD SWAP1 POP PUSH2 0x1D83 PUSH0 DUP4 ADD DUP5 PUSH2 0x1D61 JUMP JUMPDEST SWAP3 SWAP2 POP POP JUMP JUMPDEST PUSH0 DUP1 REVERT JUMPDEST PUSH0 DUP1 REVERT JUMPDEST PUSH32 0x4E487B7100000000000000000000000000000000000000000000000000000000 PUSH0 MSTORE PUSH1 0x41 PUSH1 0x4 MSTORE PUSH1 0x24 PUSH0 REVERT JUMPDEST PUSH2 0x1DC7 DUP3 PUSH2 0x1C91 JUMP JUMPDEST DUP2 ADD DUP2 DUP2 LT PUSH8 0xFFFFFFFFFFFFFFFF DUP3 GT OR ISZERO PUSH2 0x1DE6 JUMPI PUSH2 0x1DE5 PUSH2 0x1D91 JUMP JUMPDEST JUMPDEST DUP1 PUSH1 0x40 MSTORE POP POP POP JUMP JUMPDEST PUSH0 PUSH2 0x1DF8 PUSH2 0x1B6F JUMP JUMPDEST SWAP1 POP PUSH2 0x1E04 DUP3 DUP3 PUSH2 0x1DBE JUMP JUMPDEST SWAP2 SWAP1 POP JUMP JUMPDEST PUSH0 PUSH8 0xFFFFFFFFFFFFFFFF DUP3 GT ISZERO PUSH2 0x1E23 JUMPI PUSH2 0x1E22 PUSH2 0x1D91 JUMP JUMPDEST JUMPDEST PUSH2 0x1E2C DUP3 PUSH2 0x1C91 JUMP JUMPDEST SWAP1 POP PUSH1 0x20 DUP2 ADD SWAP1 POP SWAP2 SWAP1 POP JUMP JUMPDEST DUP3 DUP2 DUP4 CALLDATACOPY PUSH0 DUP4 DUP4 ADD MSTORE POP POP POP JUMP JUMPDEST PUSH0 PUSH2 0x1E59 PUSH2 0x1E54 DUP5 PUSH2 0x1E09 JUMP JUMPDEST PUSH2 0x1DEF JUMP JUMPDEST SWAP1 POP DUP3 DUP2 MSTORE PUSH1 0x20 DUP2 ADD DUP5 DUP5 DUP5 ADD GT ISZERO PUSH2 0x1E75 JUMPI PUSH2 0x1E74 PUSH2 0x1D8D JUMP JUMPDEST JUMPDEST PUSH2 0x1E80 DUP5 DUP3 DUP6 PUSH2 0x1E39 JUMP JUMPDEST POP SWAP4 SWAP3 POP POP POP JUMP JUMPDEST PUSH0 DUP3 PUSH1 0x1F DUP4 ADD SLT PUSH2 0x1E9C JUMPI PUSH2 0x1E9B PUSH2 0x1D89 JUMP JUMPDEST JUMPDEST DUP2 CALLDATALOAD PUSH2 0x1EAC DUP5 DUP3 PUSH1 0x20 DUP7 ADD PUSH2 0x1E47 JUMP JUMPDEST SWAP2 POP POP SWAP3 SWAP2 POP POP JUMP JUMPDEST PUSH0 DUP1 PUSH1 0x40 DUP4 DUP6 SUB SLT ISZERO PUSH2 0x1ECB JUMPI PUSH2 0x1ECA PUSH2 0x1B78 JUMP JUMPDEST JUMPDEST PUSH0 DUP4 ADD CALLDATALOAD PUSH8 0xFFFFFFFFFFFFFFFF DUP2 GT ISZERO PUSH2 0x1EE8 JUMPI PUSH2 0x1EE7 PUSH2 0x1B7C JUMP JUMPDEST JUMPDEST PUSH2 0x1EF4 DUP6 DUP3 DUP7 ADD PUSH2 0x1E88 JUMP JUMPDEST SWAP3 POP POP PUSH1 0x20 PUSH2 0x1F05 DUP6 DUP3 DUP7 ADD PUSH2 0x1BF9 JUMP JUMPDEST SWAP2 POP POP SWAP3 POP SWAP3 SWAP1 POP JUMP JUMPDEST PUSH2 0x1F18 DUP2 PUSH2 0x1BDA JUMP JUMPDEST DUP3 MSTORE POP POP JUMP JUMPDEST PUSH2 0x1F27 DUP2 PUSH2 0x1B9F JUMP JUMPDEST DUP3 MSTORE POP POP JUMP JUMPDEST PUSH0 DUP3 DUP3 MSTORE PUSH1 0x20 DUP3 ADD SWAP1 POP SWAP3 SWAP2 POP POP JUMP JUMPDEST PUSH0 PUSH2 0x1F47 DUP3 PUSH2 0x1C69 JUMP JUMPDEST PUSH2 0x1F51 DUP2 DUP6 PUSH2 0x1F2D JUMP JUMPDEST SWAP4 POP PUSH2 0x1F61 DUP2 DUP6 PUSH1 0x20 DUP7 ADD PUSH2 0x1C83 JUMP JUMPDEST PUSH2 0x1F6A DUP2 PUSH2 0x1C91 JUMP JUMPDEST DUP5 ADD SWAP2 POP POP SWAP3 SWAP2 POP POP JUMP JUMPDEST PUSH0 PUSH1 0x60 DUP4 ADD PUSH0 DUP4 ADD MLOAD PUSH2 0x1F8A PUSH0 DUP7 ADD DUP3 PUSH2 0x1F0F JUMP JUMPDEST POP PUSH1 0x20 DUP4 ADD MLOAD PUSH2 0x1F9D PUSH1 0x20 DUP7 ADD DUP3 PUSH2 0x1F1E JUMP JUMPDEST POP PUSH1 0x40 DUP4 ADD MLOAD DUP5 DUP3 SUB PUSH1 0x40 DUP7 ADD MSTORE PUSH2 0x1FB5 DUP3 DUP3 PUSH2 0x1F3D JUMP JUMPDEST SWAP2 POP POP DUP1 SWAP2 POP POP SWAP3 SWAP2 POP POP JUMP JUMPDEST PUSH0 PUSH1 0x20 DUP3 ADD SWAP1 POP DUP2 DUP2 SUB PUSH0 DUP4 ADD MSTORE PUSH2 0x1FDA DUP2 DUP5 PUSH2 0x1F75 JUMP JUMPDEST SWAP1 POP SWAP3 SWAP2 POP POP JUMP JUMPDEST PUSH0 PUSH1 0x20 DUP3 DUP5 SUB SLT ISZERO PUSH2 0x1FF7 JUMPI PUSH2 0x1FF6 PUSH2 0x1B78 JUMP JUMPDEST JUMPDEST PUSH0 PUSH2 0x2004 DUP5 DUP3 DUP6 ADD PUSH2 0x1BF9 JUMP JUMPDEST SWAP2 POP POP SWAP3 SWAP2 POP POP JUMP JUMPDEST PUSH0 PUSH1 0x40 DUP3 ADD SWAP1 POP PUSH2 0x2020 PUSH0 DUP4 ADD DUP6 PUSH2 0x1C5A JUMP JUMPDEST PUSH2 0x202D PUSH1 0x20 DUP4 ADD DUP5 PUSH2 0x1C4B JUMP JUMPDEST SWAP4 SWAP3 POP POP POP JUMP JUMPDEST PUSH0 DUP1 PUSH0 DUP1 PUSH1 0x80 DUP6 DUP8 SUB SLT ISZERO PUSH2 0x204C JUMPI PUSH2 0x204B PUSH2 0x1B78 JUMP JUMPDEST JUMPDEST PUSH0 PUSH2 0x2059 DUP8 DUP3 DUP9 ADD PUSH2 0x1BC6 JUMP JUMPDEST SWAP5 POP POP PUSH1 0x20 PUSH2 0x206A DUP8 DUP3 DUP9 ADD PUSH2 0x1BF9 JUMP JUMPDEST SWAP4 POP POP PUSH1 0x40 PUSH2 0x207B DUP8 DUP3 DUP9 ADD PUSH2 0x1BF9 JUMP JUMPDEST SWAP3 POP POP PUSH1 0x60 DUP6 ADD CALLDATALOAD PUSH8 0xFFFFFFFFFFFFFFFF DUP2 GT ISZERO PUSH2 0x209C JUMPI PUSH2 0x209B PUSH2 0x1B7C JUMP JUMPDEST JUMPDEST PUSH2 0x20A8 DUP8 DUP3 DUP9 ADD PUSH2 0x1E88 JUMP JUMPDEST SWAP2 POP POP SWAP3 SWAP6 SWAP2 SWAP5 POP SWAP3 POP JUMP JUMPDEST PUSH0 PUSH1 0x20 DUP3 DUP5 SUB SLT ISZERO PUSH2 0x20C9 JUMPI PUSH2 0x20C8 PUSH2 0x1B78 JUMP JUMPDEST JUMPDEST PUSH0 DUP3 ADD CALLDATALOAD PUSH8 0xFFFFFFFFFFFFFFFF DUP2 GT ISZERO PUSH2 0x20E6 JUMPI PUSH2 0x20E5 PUSH2 0x1B7C JUMP JUMPDEST JUMPDEST PUSH2 0x20F2 DUP5 DUP3 DUP6 ADD PUSH2 0x1E88 JUMP JUMPDEST SWAP2 POP POP SWAP3 SWAP2 POP POP JUMP JUMPDEST PUSH0 PUSH1 0x40 DUP3 ADD SWAP1 POP PUSH2 0x210E PUSH0 DUP4 ADD DUP6 PUSH2 0x1C4B JUMP JUMPDEST PUSH2 0x211B PUSH1 0x20 DUP4 ADD DUP5 PUSH2 0x1C5A JUMP JUMPDEST SWAP4 SWAP3 POP POP POP JUMP JUMPDEST PUSH32 0x4E487B7100000000000000000000000000000000000000000000000000000000 PUSH0 MSTORE PUSH1 0x22 PUSH1 0x4 MSTORE PUSH1 0x24 PUSH0 REVERT JUMPDEST PUSH0 PUSH1 0x2 DUP3 DIV SWAP1 POP PUSH1 0x1 DUP3 AND DUP1 PUSH2 0x2166 JUMPI PUSH1 0x7F DUP3 AND SWAP2 POP JUMPDEST PUSH1 0x20 DUP3 LT DUP2 SUB PUSH2 0x2179 JUMPI PUSH2 0x2178 PUSH2 0x2122 JUMP JUMPDEST JUMPDEST POP SWAP2 SWAP1 POP JUMP JUMPDEST PUSH32 0x5072696365206D7573742062652067726561746572207468616E207A65726F00 PUSH0 DUP3 ADD MSTORE POP JUMP JUMPDEST PUSH0 PUSH2 0x21B3 PUSH1 0x1F DUP4 PUSH2 0x1C73 JUMP JUMPDEST SWAP2 POP PUSH2 0x21BE DUP3 PUSH2 0x217F JUMP JUMPDEST PUSH1 0x20 DUP3 ADD SWAP1 POP SWAP2 SWAP1 POP JUMP JUMPDEST PUSH0 PUSH1 0x20 DUP3 ADD SWAP1 POP DUP2 DUP2 SUB PUSH0 DUP4 ADD MSTORE PUSH2 0x21E0 DUP2 PUSH2 0x21A7 JUMP JUMPDEST SWAP1 POP SWAP2 SWAP1 POP JUMP JUMPDEST PUSH0 DUP2 SWAP1 POP SWAP3 SWAP2 POP POP JUMP JUMPDEST PUSH0 PUSH2 0x21FB DUP3 PUSH2 0x1C69 JUMP JUMPDEST PUSH2 0x2205 DUP2 DUP6 PUSH2 0x21E7 JUMP JUMPDEST SWAP4 POP PUSH2 0x2215 DUP2 DUP6 PUSH1 0x20 DUP7 ADD PUSH2 0x1C83 JUMP JUMPDEST DUP1 DUP5 ADD SWAP2 POP POP SWAP3 SWAP2 POP POP JUMP JUMPDEST PUSH0 PUSH2 0x222C DUP3 DUP5 PUSH2 0x21F1 JUMP JUMPDEST SWAP2 POP DUP2 SWAP1 POP SWAP3 SWAP2 POP POP JUMP JUMPDEST PUSH32 0x47726F75702062696420616C7265616479206578697374730000000000000000 PUSH0 DUP3 ADD MSTORE POP JUMP JUMPDEST PUSH0 PUSH2 0x226B PUSH1 0x18 DUP4 PUSH2 0x1C73 JUMP JUMPDEST SWAP2 POP PUSH2 0x2276 DUP3 PUSH2 0x2237 JUMP JUMPDEST PUSH1 0x20 DUP3 ADD SWAP1 POP SWAP2 SWAP1 POP JUMP JUMPDEST PUSH0 PUSH1 0x20 DUP3 ADD SWAP1 POP DUP2 DUP2 SUB PUSH0 DUP4 ADD MSTORE PUSH2 0x2298 DUP2 PUSH2 0x225F JUMP JUMPDEST SWAP1 POP SWAP2 SWAP1 POP JUMP JUMPDEST PUSH0 PUSH1 0x60 DUP3 ADD SWAP1 POP PUSH2 0x22B2 PUSH0 DUP4 ADD DUP7 PUSH2 0x1C5A JUMP JUMPDEST PUSH2 0x22BF PUSH1 0x20 DUP4 ADD DUP6 PUSH2 0x1C5A JUMP JUMPDEST PUSH2 0x22CC PUSH1 0x40 DUP4 ADD DUP5 PUSH2 0x1C4B JUMP JUMPDEST SWAP5 SWAP4 POP POP POP POP JUMP JUMPDEST PUSH0 DUP2 ISZERO ISZERO SWAP1 POP SWAP2 SWAP1 POP JUMP JUMPDEST PUSH2 0x22E8 DUP2 PUSH2 0x22D4 JUMP JUMPDEST DUP2 EQ PUSH2 0x22F2 JUMPI PUSH0 DUP1 REVERT JUMPDEST POP JUMP JUMPDEST PUSH0 DUP2 MLOAD SWAP1 POP PUSH2 0x2303 DUP2 PUSH2 0x22DF JUMP JUMPDEST SWAP3 SWAP2 POP POP JUMP JUMPDEST PUSH0 PUSH1 0x20 DUP3 DUP5 SUB SLT ISZERO PUSH2 0x231E JUMPI PUSH2 0x231D PUSH2 0x1B78 JUMP JUMPDEST JUMPDEST PUSH0 PUSH2 0x232B DUP5 DUP3 DUP6 ADD PUSH2 0x22F5 JUMP JUMPDEST SWAP2 POP POP SWAP3 SWAP2 POP POP JUMP JUMPDEST PUSH32 0x5061796D656E74207472616E73666572206661696C6564000000000000000000 PUSH0 DUP3 ADD MSTORE POP JUMP JUMPDEST PUSH0 PUSH2 0x2368 PUSH1 0x17 DUP4 PUSH2 0x1C73 JUMP JUMPDEST SWAP2 POP PUSH2 0x2373 DUP3 PUSH2 0x2334 JUMP JUMPDEST PUSH1 0x20 DUP3 ADD SWAP1 POP SWAP2 SWAP1 POP JUMP JUMPDEST PUSH0 PUSH1 0x20 DUP3 ADD SWAP1 POP DUP2 DUP2 SUB PUSH0 DUP4 ADD MSTORE PUSH2 0x2395 DUP2 PUSH2 0x235C JUMP JUMPDEST SWAP1 POP SWAP2 SWAP1 POP JUMP JUMPDEST PUSH0 PUSH1 0x20 DUP3 ADD SWAP1 POP PUSH2 0x23AF PUSH0 DUP4 ADD DUP5 PUSH2 0x1C4B JUMP JUMPDEST SWAP3 SWAP2 POP POP JUMP JUMPDEST PUSH32 0x4E487B7100000000000000000000000000000000000000000000000000000000 PUSH0 MSTORE PUSH1 0x32 PUSH1 0x4 MSTORE PUSH1 0x24 PUSH0 REVERT JUMPDEST PUSH0 DUP2 MLOAD SWAP1 POP PUSH2 0x23F0 DUP2 PUSH2 0x1BB0 JUMP JUMPDEST SWAP3 SWAP2 POP POP JUMP JUMPDEST PUSH0 PUSH1 0x20 DUP3 DUP5 SUB SLT ISZERO PUSH2 0x240B JUMPI PUSH2 0x240A PUSH2 0x1B78 JUMP JUMPDEST JUMPDEST PUSH0 PUSH2 0x2418 DUP5 DUP3 DUP6 ADD PUSH2 0x23E2 JUMP JUMPDEST SWAP2 POP POP SWAP3 SWAP2 POP POP JUMP JUMPDEST PUSH32 0x4E6F7420746865206F776E6572206F6620746865204E46540000000000000000 PUSH0 DUP3 ADD MSTORE POP JUMP JUMPDEST PUSH0 PUSH2 0x2455 PUSH1 0x18 DUP4 PUSH2 0x1C73 JUMP JUMPDEST SWAP2 POP PUSH2 0x2460 DUP3 PUSH2 0x2421 JUMP JUMPDEST PUSH1 0x20 DUP3 ADD SWAP1 POP SWAP2 SWAP1 POP JUMP JUMPDEST PUSH0 PUSH1 0x20 DUP3 ADD SWAP1 POP DUP2 DUP2 SUB PUSH0 DUP4 ADD MSTORE PUSH2 0x2482 DUP2 PUSH2 0x2449 JUMP JUMPDEST SWAP1 POP SWAP2 SWAP1 POP JUMP JUMPDEST PUSH32 0x4E465420697320616C7265616479206C69737465640000000000000000000000 PUSH0 DUP3 ADD MSTORE POP JUMP JUMPDEST PUSH0 PUSH2 0x24BD PUSH1 0x15 DUP4 PUSH2 0x1C73 JUMP JUMPDEST SWAP2 POP PUSH2 0x24C8 DUP3 PUSH2 0x2489 JUMP JUMPDEST PUSH1 0x20 DUP3 ADD SWAP1 POP SWAP2 SWAP1 POP JUMP JUMPDEST PUSH0 PUSH1 0x20 DUP3 ADD SWAP1 POP DUP2 DUP2 SUB PUSH0 DUP4 ADD MSTORE PUSH2 0x24EA DUP2 PUSH2 0x24B1 JUMP JUMPDEST SWAP1 POP SWAP2 SWAP1 POP JUMP JUMPDEST PUSH32 0x4D61726B6574706C616365206E6F7420617070726F7665640000000000000000 PUSH0 DUP3 ADD MSTORE POP JUMP JUMPDEST PUSH0 PUSH2 0x2525 PUSH1 0x18 DUP4 PUSH2 0x1C73 JUMP JUMPDEST SWAP2 POP PUSH2 0x2530 DUP3 PUSH2 0x24F1 JUMP JUMPDEST PUSH1 0x20 DUP3 ADD SWAP1 POP SWAP2 SWAP1 POP JUMP JUMPDEST PUSH0 PUSH1 0x20 DUP3 ADD SWAP1 POP DUP2 DUP2 SUB PUSH0 DUP4 ADD MSTORE PUSH2 0x2552 DUP2 PUSH2 0x2519 JUMP JUMPDEST SWAP1 POP SWAP2 SWAP1 POP JUMP JUMPDEST PUSH0 DUP2 SWAP1 POP DUP2 PUSH0 MSTORE PUSH1 0x20 PUSH0 KECCAK256 SWAP1 POP SWAP2 SWAP1 POP JUMP JUMPDEST PUSH0 PUSH1 0x20 PUSH1 0x1F DUP4 ADD DIV SWAP1 POP SWAP2 SWAP1 POP JUMP JUMPDEST PUSH0 DUP3 DUP3 SHL SWAP1 POP SWAP3 SWAP2 POP POP JUMP JUMPDEST PUSH0 PUSH1 0x8 DUP4 MUL PUSH2 0x25B5 PUSH32 0xFFFFFFFFFFFFFFFFFFFFFFFFFFFFFFFFFFFFFFFFFFFFFFFFFFFFFFFFFFFFFFFF DUP3 PUSH2 0x257A JUMP JUMPDEST PUSH2 0x25BF DUP7 DUP4 PUSH2 0x257A JUMP JUMPDEST SWAP6 POP DUP1 NOT DUP5 AND SWAP4 POP DUP1 DUP7 AND DUP5 OR SWAP3 POP POP POP SWAP4 SWAP3 POP POP POP JUMP JUMPDEST PUSH0 PUSH2 0x25F1 PUSH2 0x25EC PUSH2 0x25E7 DUP5 PUSH2 0x1BDA JUMP JUMPDEST PUSH2 0x1D15 JUMP JUMPDEST PUSH2 0x1BDA JUMP JUMPDEST SWAP1 POP SWAP2 SWAP1 POP JUMP JUMPDEST PUSH0 DUP2 SWAP1 POP SWAP2 SWAP1 POP JUMP JUMPDEST PUSH2 0x260A DUP4 PUSH2 0x25D7 JUMP JUMPDEST PUSH2 0x261E PUSH2 0x2616 DUP3 PUSH2 0x25F8 JUMP JUMPDEST DUP5 DUP5 SLOAD PUSH2 0x2586 JUMP JUMPDEST DUP3 SSTORE POP POP POP POP JUMP JUMPDEST PUSH0 SWAP1 JUMP JUMPDEST PUSH2 0x2632 PUSH2 0x2626 JUMP JUMPDEST PUSH2 0x263D DUP2 DUP5 DUP5 PUSH2 0x2601 JUMP JUMPDEST POP POP POP JUMP JUMPDEST JUMPDEST DUP2 DUP2 LT ISZERO PUSH2 0x2660 JUMPI PUSH2 0x2655 PUSH0 DUP3 PUSH2 0x262A JUMP JUMPDEST PUSH1 0x1 DUP2 ADD SWAP1 POP PUSH2 0x2643 JUMP JUMPDEST POP POP JUMP JUMPDEST PUSH1 0x1F DUP3 GT ISZERO PUSH2 0x26A5 JUMPI PUSH2 0x2676 DUP2 PUSH2 0x2559 JUMP JUMPDEST PUSH2 0x267F DUP5 PUSH2 0x256B JUMP JUMPDEST DUP2 ADD PUSH1 0x20 DUP6 LT ISZERO PUSH2 0x268E JUMPI DUP2 SWAP1 POP JUMPDEST PUSH2 0x26A2 PUSH2 0x269A DUP6 PUSH2 0x256B JUMP JUMPDEST DUP4 ADD DUP3 PUSH2 0x2642 JUMP JUMPDEST POP POP JUMPDEST POP POP POP JUMP JUMPDEST PUSH0 DUP3 DUP3 SHR SWAP1 POP SWAP3 SWAP2 POP POP JUMP JUMPDEST PUSH0 PUSH2 0x26C5 PUSH0 NOT DUP5 PUSH1 0x8 MUL PUSH2 0x26AA JUMP JUMPDEST NOT DUP1 DUP4 AND SWAP2 POP POP SWAP3 SWAP2 POP POP JUMP JUMPDEST PUSH0 PUSH2 0x26DD DUP4 DUP4 PUSH2 0x26B6 JUMP JUMPDEST SWAP2 POP DUP3 PUSH1 0x2 MUL DUP3 OR SWAP1 POP SWAP3 SWAP2 POP POP JUMP JUMPDEST PUSH2 0x26F6 DUP3 PUSH2 0x1C69 JUMP JUMPDEST PUSH8 0xFFFFFFFFFFFFFFFF DUP2 GT ISZERO PUSH2 0x270F JUMPI PUSH2 0x270E PUSH2 0x1D91 JUMP JUMPDEST JUMPDEST PUSH2 0x2719 DUP3 SLOAD PUSH2 0x214F JUMP JUMPDEST PUSH2 0x2724 DUP3 DUP3 DUP6 PUSH2 0x2664 JUMP JUMPDEST PUSH0 PUSH1 0x20 SWAP1 POP PUSH1 0x1F DUP4 GT PUSH1 0x1 DUP2 EQ PUSH2 0x2755 JUMPI PUSH0 DUP5 ISZERO PUSH2 0x2743 JUMPI DUP3 DUP8 ADD MLOAD SWAP1 POP JUMPDEST PUSH2 0x274D DUP6 DUP3 PUSH2 0x26D2 JUMP JUMPDEST DUP7 SSTORE POP PUSH2 0x27B4 JUMP JUMPDEST PUSH1 0x1F NOT DUP5 AND PUSH2 0x2763 DUP7 PUSH2 0x2559 JUMP JUMPDEST PUSH0 JUMPDEST DUP3 DUP2 LT ISZERO PUSH2 0x278A JUMPI DUP5 DUP10 ADD MLOAD DUP3 SSTORE PUSH1 0x1 DUP3 ADD SWAP2 POP PUSH1 0x20 DUP6 ADD SWAP5 POP PUSH1 0x20 DUP2 ADD SWAP1 POP PUSH2 0x2765 JUMP JUMPDEST DUP7 DUP4 LT ISZERO PUSH2 0x27A7 JUMPI DUP5 DUP10 ADD MLOAD PUSH2 0x27A3 PUSH1 0x1F DUP10 AND DUP3 PUSH2 0x26B6 JUMP JUMPDEST DUP4 SSTORE POP JUMPDEST PUSH1 0x1 PUSH1 0x2 DUP9 MUL ADD DUP9 SSTORE POP POP POP JUMPDEST POP POP POP POP POP POP JUMP JUMPDEST PUSH0 PUSH1 0x40 DUP3 ADD SWAP1 POP PUSH2 0x27CF PUSH0 DUP4 ADD DUP6 PUSH2 0x1C4B JUMP JUMPDEST DUP2 DUP2 SUB PUSH1 0x20 DUP4 ADD MSTORE PUSH2 0x27E1 DUP2 DUP5 PUSH2 0x1CA1 JUMP JUMPDEST SWAP1 POP SWAP4 SWAP3 POP POP POP JUMP JUMPDEST PUSH32 0x4E4654206973206E6F74206C6973746564000000000000000000000000000000 PUSH0 DUP3 ADD MSTORE POP JUMP JUMPDEST PUSH0 PUSH2 0x281E PUSH1 0x11 DUP4 PUSH2 0x1C73 JUMP JUMPDEST SWAP2 POP PUSH2 0x2829 DUP3 PUSH2 0x27EA JUMP JUMPDEST PUSH1 0x20 DUP3 ADD SWAP1 POP SWAP2 SWAP1 POP JUMP JUMPDEST PUSH0 PUSH1 0x20 DUP3 ADD SWAP1 POP DUP2 DUP2 SUB PUSH0 DUP4 ADD MSTORE PUSH2 0x284B DUP2 PUSH2 0x2812 JUMP JUMPDEST SWAP1 POP SWAP2 SWAP1 POP JUMP JUMPDEST PUSH32 0x496E646578206F7574206F6620626F756E647300000000000000000000000000 PUSH0 DUP3 ADD MSTORE POP JUMP JUMPDEST PUSH0 PUSH2 0x2886 PUSH1 0x13 DUP4 PUSH2 0x1C73 JUMP JUMPDEST SWAP2 POP PUSH2 0x2891 DUP3 PUSH2 0x2852 JUMP JUMPDEST PUSH1 0x20 DUP3 ADD SWAP1 POP SWAP2 SWAP1 POP JUMP JUMPDEST PUSH0 PUSH1 0x20 DUP3 ADD SWAP1 POP DUP2 DUP2 SUB PUSH0 DUP4 ADD MSTORE PUSH2 0x28B3 DUP2 PUSH2 0x287A JUMP JUMPDEST SWAP1 POP SWAP2 SWAP1 POP JUMP JUMPDEST PUSH32 0x4E487B7100000000000000000000000000000000000000000000000000000000 PUSH0 MSTORE PUSH1 0x11 PUSH1 0x4 MSTORE PUSH1 0x24 PUSH0 REVERT JUMPDEST PUSH0 PUSH2 0x28F1 DUP3 PUSH2 0x1BDA JUMP JUMPDEST SWAP2 POP PUSH2 0x28FC DUP4 PUSH2 0x1BDA JUMP JUMPDEST SWAP3 POP DUP3 DUP3 SUB SWAP1 POP DUP2 DUP2 GT ISZERO PUSH2 0x2914 JUMPI PUSH2 0x2913 PUSH2 0x28BA JUMP JUMPDEST JUMPDEST SWAP3 SWAP2 POP POP JUMP JUMPDEST PUSH32 0x4E487B7100000000000000000000000000000000000000000000000000000000 PUSH0 MSTORE PUSH1 0x31 PUSH1 0x4 MSTORE PUSH1 0x24 PUSH0 REVERT JUMPDEST PUSH32 0x5265656E7472616E637947756172643A207265656E7472616E742063616C6C00 PUSH0 DUP3 ADD MSTORE POP JUMP JUMPDEST PUSH0 PUSH2 0x297B PUSH1 0x1F DUP4 PUSH2 0x1C73 JUMP JUMPDEST SWAP2 POP PUSH2 0x2986 DUP3 PUSH2 0x2947 JUMP JUMPDEST PUSH1 0x20 DUP3 ADD SWAP1 POP SWAP2 SWAP1 POP JUMP JUMPDEST PUSH0 PUSH1 0x20 DUP3 ADD SWAP1 POP DUP2 DUP2 SUB PUSH0 DUP4 ADD MSTORE PUSH2 0x29A8 DUP2 PUSH2 0x296F JUMP JUMPDEST SWAP1 POP SWAP2 SWAP1 POP JUMP INVALID LOG2 PUSH5 0x6970667358 0x22 SLT KECCAK256 SWAP4 JUMPDEST JUMPDEST 0xD7 0xDF MSTORE8 0xEE PUSH27 0xF39BA7350961032B6D3C77344F29117914CB82468B97D56F64736F PUSH13 0x634300081A0033000000000000 "
				},
				"gasEstimates": {
					"creation": {
						"codeDepositCost": "2145000",
						"executionCost": "infinite",
						"totalCost": "infinite"
					},
					"external": {
						"buyNFT(address,uint256)": "infinite",
						"cancelListing(address,uint256)": "infinite",
						"getListing(address,uint256)": "infinite",
						"groupBids(string)": "infinite",
						"listNFT(address,uint256,uint256,string)": "infinite",
						"listedNFTs(uint256)": "infinite",
						"listings(address,uint256)": "infinite",
						"paymentToken()": "infinite",
						"placeGroupBid(string,uint256)": "infinite"
					},
					"internal": {
						"_removeListedNFT(uint256)": "infinite"
					}
				},
				"methodIdentifiers": {
					"buyNFT(address,uint256)": "a82ba76f",
					"cancelListing(address,uint256)": "b2ddee06",
					"getListing(address,uint256)": "88700d1c",
					"groupBids(string)": "a91ffcea",
					"listNFT(address,uint256,uint256,string)": "a0441780",
					"listedNFTs(uint256)": "a01dc41f",
					"listings(address,uint256)": "0007df30",
					"paymentToken()": "3013ce29",
					"placeGroupBid(string,uint256)": "8230584d"
				}
			},
			"storageLayout": {
				"storage": [
					{
						"astId": 10,
						"contract": "S7/mp.sol:NFTMarketplaceWithERC20",
						"label": "_status",
						"offset": 0,
						"slot": "0",
						"type": "t_uint256"
					},
					{
						"astId": 297,
						"contract": "S7/mp.sol:NFTMarketplaceWithERC20",
						"label": "listings",
						"offset": 0,
						"slot": "1",
						"type": "t_mapping(t_address,t_mapping(t_uint256,t_struct(Listing)285_storage))"
					},
					{
						"astId": 302,
						"contract": "S7/mp.sol:NFTMarketplaceWithERC20",
						"label": "groupBids",
						"offset": 0,
						"slot": "2",
						"type": "t_mapping(t_string_memory_ptr,t_struct(Bid)290_storage)"
					},
					{
						"astId": 305,
						"contract": "S7/mp.sol:NFTMarketplaceWithERC20",
						"label": "paymentToken",
						"offset": 0,
						"slot": "3",
						"type": "t_contract(IERC20)142"
					},
					{
						"astId": 314,
						"contract": "S7/mp.sol:NFTMarketplaceWithERC20",
						"label": "listedNFTs",
						"offset": 0,
						"slot": "4",
						"type": "t_array(t_struct(ListedNFT)310_storage)dyn_storage"
					}
				],
				"types": {
					"t_address": {
						"encoding": "inplace",
						"label": "address",
						"numberOfBytes": "20"
					},
					"t_array(t_struct(ListedNFT)310_storage)dyn_storage": {
						"base": "t_struct(ListedNFT)310_storage",
						"encoding": "dynamic_array",
						"label": "struct NFTMarketplaceWithERC20.ListedNFT[]",
						"numberOfBytes": "32"
					},
					"t_contract(IERC20)142": {
						"encoding": "inplace",
						"label": "contract IERC20",
						"numberOfBytes": "20"
					},
					"t_mapping(t_address,t_mapping(t_uint256,t_struct(Listing)285_storage))": {
						"encoding": "mapping",
						"key": "t_address",
						"label": "mapping(address => mapping(uint256 => struct NFTMarketplaceWithERC20.Listing))",
						"numberOfBytes": "32",
						"value": "t_mapping(t_uint256,t_struct(Listing)285_storage)"
					},
					"t_mapping(t_string_memory_ptr,t_struct(Bid)290_storage)": {
						"encoding": "mapping",
						"key": "t_string_memory_ptr",
						"label": "mapping(string => struct NFTMarketplaceWithERC20.Bid)",
						"numberOfBytes": "32",
						"value": "t_struct(Bid)290_storage"
					},
					"t_mapping(t_uint256,t_struct(Listing)285_storage)": {
						"encoding": "mapping",
						"key": "t_uint256",
						"label": "mapping(uint256 => struct NFTMarketplaceWithERC20.Listing)",
						"numberOfBytes": "32",
						"value": "t_struct(Listing)285_storage"
					},
					"t_string_memory_ptr": {
						"encoding": "bytes",
						"label": "string",
						"numberOfBytes": "32"
					},
					"t_string_storage": {
						"encoding": "bytes",
						"label": "string",
						"numberOfBytes": "32"
					},
					"t_struct(Bid)290_storage": {
						"encoding": "inplace",
						"label": "struct NFTMarketplaceWithERC20.Bid",
						"members": [
							{
								"astId": 287,
								"contract": "S7/mp.sol:NFTMarketplaceWithERC20",
								"label": "price",
								"offset": 0,
								"slot": "0",
								"type": "t_uint256"
							},
							{
								"astId": 289,
								"contract": "S7/mp.sol:NFTMarketplaceWithERC20",
								"label": "buyer",
								"offset": 0,
								"slot": "1",
								"type": "t_address"
							}
						],
						"numberOfBytes": "64"
					},
					"t_struct(ListedNFT)310_storage": {
						"encoding": "inplace",
						"label": "struct NFTMarketplaceWithERC20.ListedNFT",
						"members": [
							{
								"astId": 307,
								"contract": "S7/mp.sol:NFTMarketplaceWithERC20",
								"label": "nftContract",
								"offset": 0,
								"slot": "0",
								"type": "t_address"
							},
							{
								"astId": 309,
								"contract": "S7/mp.sol:NFTMarketplaceWithERC20",
								"label": "tokenId",
								"offset": 0,
								"slot": "1",
								"type": "t_uint256"
							}
						],
						"numberOfBytes": "64"
					},
					"t_struct(Listing)285_storage": {
						"encoding": "inplace",
						"label": "struct NFTMarketplaceWithERC20.Listing",
						"members": [
							{
								"astId": 280,
								"contract": "S7/mp.sol:NFTMarketplaceWithERC20",
								"label": "price",
								"offset": 0,
								"slot": "0",
								"type": "t_uint256"
							},
							{
								"astId": 282,
								"contract": "S7/mp.sol:NFTMarketplaceWithERC20",
								"label": "seller",
								"offset": 0,
								"slot": "1",
								"type": "t_address"
							},
							{
								"astId": 284,
								"contract": "S7/mp.sol:NFTMarketplaceWithERC20",
								"label": "group",
								"offset": 0,
								"slot": "2",
								"type": "t_string_storage"
							}
						],
						"numberOfBytes": "96"
					},
					"t_uint256": {
						"encoding": "inplace",
						"label": "uint256",
						"numberOfBytes": "32"
					}
				}
			},
			"userdoc": {
				"kind": "user",
				"methods": {},
				"version": 1
			}
		}
	}
}