{
	"S7/marketplace.sol": {
		"NFTMarketplaceWithERC20": {
			"abi": [
				{
					"inputs": [
						{
							"internalType": "address",
							"name": "_paymentToken",
							"type": "address"
						}
					],
					"stateMutability": "nonpayable",
					"type": "constructor"
				},
				{
					"anonymous": false,
					"inputs": [
						{
							"indexed": true,
							"internalType": "address",
							"name": "nftContract",
							"type": "address"
						},
						{
							"indexed": true,
							"internalType": "uint256",
							"name": "tokenId",
							"type": "uint256"
						},
						{
							"indexed": false,
							"internalType": "uint256",
							"name": "price",
							"type": "uint256"
						},
						{
							"indexed": true,
							"internalType": "address",
							"name": "buyer",
							"type": "address"
						}
					],
					"name": "GroupBidMatched",
					"type": "event"
				},
				{
					"anonymous": false,
					"inputs": [
						{
							"indexed": true,
							"internalType": "string",
							"name": "group",
							"type": "string"
						},
						{
							"indexed": false,
							"internalType": "uint256",
							"name": "price",
							"type": "uint256"
						},
						{
							"indexed": true,
							"internalType": "address",
							"name": "buyer",
							"type": "address"
						}
					],
					"name": "GroupBidPlaced",
					"type": "event"
				},
				{
					"anonymous": false,
					"inputs": [
						{
							"indexed": true,
							"internalType": "address",
							"name": "nftContract",
							"type": "address"
						},
						{
							"indexed": true,
							"internalType": "uint256",
							"name": "tokenId",
							"type": "uint256"
						},
						{
							"indexed": false,
							"internalType": "uint256",
							"name": "price",
							"type": "uint256"
						},
						{
							"indexed": true,
							"internalType": "address",
							"name": "seller",
							"type": "address"
						},
						{
							"indexed": false,
							"internalType": "string",
							"name": "group",
							"type": "string"
						}
					],
					"name": "NFTListed",
					"type": "event"
				},
				{
					"anonymous": false,
					"inputs": [
						{
							"indexed": true,
							"internalType": "address",
							"name": "nftContract",
							"type": "address"
						},
						{
							"indexed": true,
							"internalType": "uint256",
							"name": "tokenId",
							"type": "uint256"
						},
						{
							"indexed": true,
							"internalType": "address",
							"name": "seller",
							"type": "address"
						}
					],
					"name": "NFTListingCancelled",
					"type": "event"
				},
				{
					"anonymous": false,
					"inputs": [
						{
							"indexed": true,
							"internalType": "address",
							"name": "nftContract",
							"type": "address"
						},
						{
							"indexed": true,
							"internalType": "uint256",
							"name": "tokenId",
							"type": "uint256"
						},
						{
							"indexed": false,
							"internalType": "uint256",
							"name": "price",
							"type": "uint256"
						},
						{
							"indexed": true,
							"internalType": "address",
							"name": "buyer",
							"type": "address"
						}
					],
					"name": "NFTSold",
					"type": "event"
				},
				{
					"inputs": [
						{
							"internalType": "address",
							"name": "nftContract",
							"type": "address"
						},
						{
							"internalType": "uint256",
							"name": "tokenId",
							"type": "uint256"
						}
					],
					"name": "buyNFT",
					"outputs": [],
					"stateMutability": "nonpayable",
					"type": "function"
				},
				{
					"inputs": [
						{
							"internalType": "address",
							"name": "nftContract",
							"type": "address"
						},
						{
							"internalType": "uint256",
							"name": "tokenId",
							"type": "uint256"
						}
					],
					"name": "cancelListing",
					"outputs": [],
					"stateMutability": "nonpayable",
					"type": "function"
				},
				{
					"inputs": [
						{
							"internalType": "address",
							"name": "nftContract",
							"type": "address"
						},
						{
							"internalType": "uint256",
							"name": "tokenId",
							"type": "uint256"
						}
					],
					"name": "getListing",
					"outputs": [
						{
							"components": [
								{
									"internalType": "uint256",
									"name": "price",
									"type": "uint256"
								},
								{
									"internalType": "address",
									"name": "seller",
									"type": "address"
								},
								{
									"internalType": "string",
									"name": "group",
									"type": "string"
								}
							],
							"internalType": "struct NFTMarketplaceWithERC20.Listing",
							"name": "",
							"type": "tuple"
						}
					],
					"stateMutability": "view",
					"type": "function"
				},
				{
					"inputs": [
						{
							"internalType": "string",
							"name": "",
							"type": "string"
						}
					],
					"name": "groupBids",
					"outputs": [
						{
							"internalType": "uint256",
							"name": "price",
							"type": "uint256"
						},
						{
							"internalType": "address",
							"name": "buyer",
							"type": "address"
						}
					],
					"stateMutability": "view",
					"type": "function"
				},
				{
					"inputs": [
						{
							"internalType": "address",
							"name": "nftContract",
							"type": "address"
						},
						{
							"internalType": "uint256",
							"name": "tokenId",
							"type": "uint256"
						},
						{
							"internalType": "uint256",
							"name": "price",
							"type": "uint256"
						},
						{
							"internalType": "string",
							"name": "group",
							"type": "string"
						}
					],
					"name": "listNFT",
					"outputs": [],
					"stateMutability": "nonpayable",
					"type": "function"
				},
				{
					"inputs": [
						{
							"internalType": "address",
							"name": "",
							"type": "address"
						},
						{
							"internalType": "uint256",
							"name": "",
							"type": "uint256"
						}
					],
					"name": "listings",
					"outputs": [
						{
							"internalType": "uint256",
							"name": "price",
							"type": "uint256"
						},
						{
							"internalType": "address",
							"name": "seller",
							"type": "address"
						},
						{
							"internalType": "string",
							"name": "group",
							"type": "string"
						}
					],
					"stateMutability": "view",
					"type": "function"
				},
				{
					"inputs": [],
					"name": "paymentToken",
					"outputs": [
						{
							"internalType": "contract IERC20",
							"name": "",
							"type": "address"
						}
					],
					"stateMutability": "view",
					"type": "function"
				},
				{
					"inputs": [
						{
							"internalType": "string",
							"name": "group",
							"type": "string"
						},
						{
							"internalType": "uint256",
							"name": "price",
							"type": "uint256"
						}
					],
					"name": "placeGroupBid",
					"outputs": [],
					"stateMutability": "nonpayable",
					"type": "function"
				}
			],
			"devdoc": {
				"kind": "dev",
				"methods": {},
				"version": 1
			},
			"evm": {
				"assembly": "    /* \"S7/marketplace.sol\":238:4896  contract NFTMarketplaceWithERC20 is ReentrancyGuard {... */\n  mstore(0x40, 0x80)\n    /* \"S7/marketplace.sol\":1301:1458  constructor(address _paymentToken) {... */\n  callvalue\n  dup1\n  iszero\n  tag_1\n  jumpi\n  0x00\n  dup1\n  revert\ntag_1:\n  pop\n  mload(0x40)\n  sub(codesize, bytecodeSize)\n  dup1\n  bytecodeSize\n  dup4\n  codecopy\n  dup2\n  dup2\n  add\n  0x40\n  mstore\n  dup2\n  add\n  swap1\n  tag_2\n  swap2\n  swap1\n  tag_3\n  jump\t// in\ntag_2:\n    /* \"@openzeppelin/contracts/security/ReentrancyGuard.sol\":1716:1717  1 */\n  0x01\n    /* \"@openzeppelin/contracts/security/ReentrancyGuard.sol\":1821:1828  _status */\n  0x00\n    /* \"@openzeppelin/contracts/security/ReentrancyGuard.sol\":1821:1843  _status = _NOT_ENTERED */\n  dup2\n  swap1\n  sstore\n  pop\n    /* \"S7/marketplace.sol\":1368:1381  _paymentToken */\n  dup1\n    /* \"S7/marketplace.sol\":1346:1358  paymentToken */\n  0x03\n  0x00\n    /* \"S7/marketplace.sol\":1346:1382  paymentToken = IERC20(_paymentToken) */\n  0x0100\n  exp\n  dup2\n  sload\n  dup2\n  0xffffffffffffffffffffffffffffffffffffffff\n  mul\n  not\n  and\n  swap1\n  dup4\n  0xffffffffffffffffffffffffffffffffffffffff\n  and\n  mul\n  or\n  swap1\n  sstore\n  pop\n    /* \"S7/marketplace.sol\":1301:1458  constructor(address _paymentToken) {... */\n  pop\n    /* \"S7/marketplace.sol\":238:4896  contract NFTMarketplaceWithERC20 is ReentrancyGuard {... */\n  jump(tag_8)\n    /* \"#utility.yul\":88:205   */\ntag_10:\n    /* \"#utility.yul\":197:198   */\n  0x00\n    /* \"#utility.yul\":194:195   */\n  dup1\n    /* \"#utility.yul\":187:199   */\n  revert\n    /* \"#utility.yul\":334:460   */\ntag_12:\n    /* \"#utility.yul\":371:378   */\n  0x00\n    /* \"#utility.yul\":411:453   */\n  0xffffffffffffffffffffffffffffffffffffffff\n    /* \"#utility.yul\":404:409   */\n  dup3\n    /* \"#utility.yul\":400:454   */\n  and\n    /* \"#utility.yul\":389:454   */\n  swap1\n  pop\n    /* \"#utility.yul\":334:460   */\n  swap2\n  swap1\n  pop\n  jump\t// out\n    /* \"#utility.yul\":466:562   */\ntag_13:\n    /* \"#utility.yul\":503:510   */\n  0x00\n    /* \"#utility.yul\":532:556   */\n  tag_22\n    /* \"#utility.yul\":550:555   */\n  dup3\n    /* \"#utility.yul\":532:556   */\n  tag_12\n  jump\t// in\ntag_22:\n    /* \"#utility.yul\":521:556   */\n  swap1\n  pop\n    /* \"#utility.yul\":466:562   */\n  swap2\n  swap1\n  pop\n  jump\t// out\n    /* \"#utility.yul\":568:690   */\ntag_14:\n    /* \"#utility.yul\":641:665   */\n  tag_24\n    /* \"#utility.yul\":659:664   */\n  dup2\n    /* \"#utility.yul\":641:665   */\n  tag_13\n  jump\t// in\ntag_24:\n    /* \"#utility.yul\":634:639   */\n  dup2\n    /* \"#utility.yul\":631:666   */\n  eq\n    /* \"#utility.yul\":621:684   */\n  tag_25\n  jumpi\n    /* \"#utility.yul\":680:681   */\n  0x00\n    /* \"#utility.yul\":677:678   */\n  dup1\n    /* \"#utility.yul\":670:682   */\n  revert\n    /* \"#utility.yul\":621:684   */\ntag_25:\n    /* \"#utility.yul\":568:690   */\n  pop\n  jump\t// out\n    /* \"#utility.yul\":696:839   */\ntag_15:\n    /* \"#utility.yul\":753:758   */\n  0x00\n    /* \"#utility.yul\":784:790   */\n  dup2\n    /* \"#utility.yul\":778:791   */\n  mload\n    /* \"#utility.yul\":769:791   */\n  swap1\n  pop\n    /* \"#utility.yul\":800:833   */\n  tag_27\n    /* \"#utility.yul\":827:832   */\n  dup2\n    /* \"#utility.yul\":800:833   */\n  tag_14\n  jump\t// in\ntag_27:\n    /* \"#utility.yul\":696:839   */\n  swap3\n  swap2\n  pop\n  pop\n  jump\t// out\n    /* \"#utility.yul\":845:1196   */\ntag_3:\n    /* \"#utility.yul\":915:921   */\n  0x00\n    /* \"#utility.yul\":964:966   */\n  0x20\n    /* \"#utility.yul\":952:961   */\n  dup3\n    /* \"#utility.yul\":943:950   */\n  dup5\n    /* \"#utility.yul\":939:962   */\n  sub\n    /* \"#utility.yul\":935:967   */\n  slt\n    /* \"#utility.yul\":932:1051   */\n  iszero\n  tag_29\n  jumpi\n    /* \"#utility.yul\":970:1049   */\n  tag_30\n  tag_10\n  jump\t// in\ntag_30:\n    /* \"#utility.yul\":932:1051   */\ntag_29:\n    /* \"#utility.yul\":1090:1091   */\n  0x00\n    /* \"#utility.yul\":1115:1179   */\n  tag_31\n    /* \"#utility.yul\":1171:1178   */\n  dup5\n    /* \"#utility.yul\":1162:1168   */\n  dup3\n    /* \"#utility.yul\":1151:1160   */\n  dup6\n    /* \"#utility.yul\":1147:1169   */\n  add\n    /* \"#utility.yul\":1115:1179   */\n  tag_15\n  jump\t// in\ntag_31:\n    /* \"#utility.yul\":1105:1179   */\n  swap2\n  pop\n    /* \"#utility.yul\":1061:1189   */\n  pop\n    /* \"#utility.yul\":845:1196   */\n  swap3\n  swap2\n  pop\n  pop\n  jump\t// out\n    /* \"S7/marketplace.sol\":238:4896  contract NFTMarketplaceWithERC20 is ReentrancyGuard {... */\ntag_8:\n  dataSize(sub_0)\n  dup1\n  dataOffset(sub_0)\n  0x00\n  codecopy\n  0x00\n  return\nstop\n\nsub_0: assembly {\n        /* \"S7/marketplace.sol\":238:4896  contract NFTMarketplaceWithERC20 is ReentrancyGuard {... */\n      mstore(0x40, 0x80)\n      callvalue\n      dup1\n      iszero\n      tag_1\n      jumpi\n      0x00\n      dup1\n      revert\n    tag_1:\n      pop\n      jumpi(tag_2, lt(calldatasize, 0x04))\n      shr(0xe0, calldataload(0x00))\n      dup1\n      0xa0441780\n      gt\n      tag_11\n      jumpi\n      dup1\n      0xa0441780\n      eq\n      tag_7\n      jumpi\n      dup1\n      0xa82ba76f\n      eq\n      tag_8\n      jumpi\n      dup1\n      0xa91ffcea\n      eq\n      tag_9\n      jumpi\n      dup1\n      0xb2ddee06\n      eq\n      tag_10\n      jumpi\n      jump(tag_2)\n    tag_11:\n      dup1\n      0x07df30\n      eq\n      tag_3\n      jumpi\n      dup1\n      0x3013ce29\n      eq\n      tag_4\n      jumpi\n      dup1\n      0x8230584d\n      eq\n      tag_5\n      jumpi\n      dup1\n      0x88700d1c\n      eq\n      tag_6\n      jumpi\n    tag_2:\n      0x00\n      dup1\n      revert\n        /* \"S7/marketplace.sol\":514:577  mapping(address => mapping(uint256 => Listing)) public listings */\n    tag_3:\n      tag_12\n      0x04\n      dup1\n      calldatasize\n      sub\n      dup2\n      add\n      swap1\n      tag_13\n      swap2\n      swap1\n      tag_14\n      jump\t// in\n    tag_13:\n      tag_15\n      jump\t// in\n    tag_12:\n      mload(0x40)\n      tag_16\n      swap4\n      swap3\n      swap2\n      swap1\n      tag_17\n      jump\t// in\n    tag_16:\n      mload(0x40)\n      dup1\n      swap2\n      sub\n      swap1\n      return\n        /* \"S7/marketplace.sol\":678:704  IERC20 public paymentToken */\n    tag_4:\n      tag_18\n      tag_19\n      jump\t// in\n    tag_18:\n      mload(0x40)\n      tag_20\n      swap2\n      swap1\n      tag_21\n      jump\t// in\n    tag_20:\n      mload(0x40)\n      dup1\n      swap2\n      sub\n      swap1\n      return\n        /* \"S7/marketplace.sol\":3255:3736  function placeGroupBid(string memory group, uint256 price) external {... */\n    tag_5:\n      tag_22\n      0x04\n      dup1\n      calldatasize\n      sub\n      dup2\n      add\n      swap1\n      tag_23\n      swap2\n      swap1\n      tag_24\n      jump\t// in\n    tag_23:\n      tag_25\n      jump\t// in\n    tag_22:\n      stop\n        /* \"S7/marketplace.sol\":4712:4894  function getListing(address nftContract, uint256 tokenId) ... */\n    tag_6:\n      tag_26\n      0x04\n      dup1\n      calldatasize\n      sub\n      dup2\n      add\n      swap1\n      tag_27\n      swap2\n      swap1\n      tag_14\n      jump\t// in\n    tag_27:\n      tag_28\n      jump\t// in\n    tag_26:\n      mload(0x40)\n      tag_29\n      swap2\n      swap1\n      tag_30\n      jump\t// in\n    tag_29:\n      mload(0x40)\n      dup1\n      swap2\n      sub\n      swap1\n      return\n        /* \"S7/marketplace.sol\":2069:3186  function listNFT(address nftContract, uint256 tokenId, uint256 price, string memory group) ... */\n    tag_7:\n      tag_31\n      0x04\n      dup1\n      calldatasize\n      sub\n      dup2\n      add\n      swap1\n      tag_32\n      swap2\n      swap1\n      tag_33\n      jump\t// in\n    tag_32:\n      tag_34\n      jump\t// in\n    tag_31:\n      stop\n        /* \"S7/marketplace.sol\":4119:4663  function buyNFT(address nftContract, uint256 tokenId) ... */\n    tag_8:\n      tag_35\n      0x04\n      dup1\n      calldatasize\n      sub\n      dup2\n      add\n      swap1\n      tag_36\n      swap2\n      swap1\n      tag_14\n      jump\t// in\n    tag_36:\n      tag_37\n      jump\t// in\n    tag_35:\n      stop\n        /* \"S7/marketplace.sol\":632:671  mapping(string => Bid) public groupBids */\n    tag_9:\n      tag_38\n      0x04\n      dup1\n      calldatasize\n      sub\n      dup2\n      add\n      swap1\n      tag_39\n      swap2\n      swap1\n      tag_40\n      jump\t// in\n    tag_39:\n      tag_41\n      jump\t// in\n    tag_38:\n      mload(0x40)\n      tag_42\n      swap3\n      swap2\n      swap1\n      tag_43\n      jump\t// in\n    tag_42:\n      mload(0x40)\n      dup1\n      swap2\n      sub\n      swap1\n      return\n        /* \"S7/marketplace.sol\":3781:4077  function cancelListing(address nftContract, uint256 tokenId) ... */\n    tag_10:\n      tag_44\n      0x04\n      dup1\n      calldatasize\n      sub\n      dup2\n      add\n      swap1\n      tag_45\n      swap2\n      swap1\n      tag_14\n      jump\t// in\n    tag_45:\n      tag_46\n      jump\t// in\n    tag_44:\n      stop\n        /* \"S7/marketplace.sol\":514:577  mapping(address => mapping(uint256 => Listing)) public listings */\n    tag_15:\n      mstore(0x20, 0x01)\n      dup2\n      0x00\n      mstore\n      mstore(0x20, keccak256(0x00, 0x40))\n      dup1\n      0x00\n      mstore\n      keccak256(0x00, 0x40)\n      0x00\n      swap2\n      pop\n      swap2\n      pop\n      pop\n      dup1\n      0x00\n      add\n      sload\n      swap1\n      dup1\n      0x01\n      add\n      0x00\n      swap1\n      sload\n      swap1\n      0x0100\n      exp\n      swap1\n      div\n      0xffffffffffffffffffffffffffffffffffffffff\n      and\n      swap1\n      dup1\n      0x02\n      add\n      dup1\n      sload\n      tag_47\n      swap1\n      tag_48\n      jump\t// in\n    tag_47:\n      dup1\n      0x1f\n      add\n      0x20\n      dup1\n      swap2\n      div\n      mul\n      0x20\n      add\n      mload(0x40)\n      swap1\n      dup2\n      add\n      0x40\n      mstore\n      dup1\n      swap3\n      swap2\n      swap1\n      dup2\n      dup2\n      mstore\n      0x20\n      add\n      dup3\n      dup1\n      sload\n      tag_49\n      swap1\n      tag_48\n      jump\t// in\n    tag_49:\n      dup1\n      iszero\n      tag_50\n      jumpi\n      dup1\n      0x1f\n      lt\n      tag_51\n      jumpi\n      0x0100\n      dup1\n      dup4\n      sload\n      div\n      mul\n      dup4\n      mstore\n      swap2\n      0x20\n      add\n      swap2\n      jump(tag_50)\n    tag_51:\n      dup3\n      add\n      swap2\n      swap1\n      0x00\n      mstore\n      keccak256(0x00, 0x20)\n      swap1\n    tag_52:\n      dup2\n      sload\n      dup2\n      mstore\n      swap1\n      0x01\n      add\n      swap1\n      0x20\n      add\n      dup1\n      dup4\n      gt\n      tag_52\n      jumpi\n      dup3\n      swap1\n      sub\n      0x1f\n      and\n      dup3\n      add\n      swap2\n    tag_50:\n      pop\n      pop\n      pop\n      pop\n      pop\n      swap1\n      pop\n      dup4\n      jump\t// out\n        /* \"S7/marketplace.sol\":678:704  IERC20 public paymentToken */\n    tag_19:\n      0x03\n      0x00\n      swap1\n      sload\n      swap1\n      0x0100\n      exp\n      swap1\n      div\n      0xffffffffffffffffffffffffffffffffffffffff\n      and\n      dup2\n      jump\t// out\n        /* \"S7/marketplace.sol\":3255:3736  function placeGroupBid(string memory group, uint256 price) external {... */\n    tag_25:\n        /* \"S7/marketplace.sol\":3349:3350  0 */\n      0x00\n        /* \"S7/marketplace.sol\":3341:3346  price */\n      dup2\n        /* \"S7/marketplace.sol\":3341:3350  price > 0 */\n      gt\n        /* \"S7/marketplace.sol\":3333:3386  require(price > 0, \"Price must be greater than zero\") */\n      tag_54\n      jumpi\n      mload(0x40)\n      0x08c379a000000000000000000000000000000000000000000000000000000000\n      dup2\n      mstore\n      0x04\n      add\n      tag_55\n      swap1\n      tag_56\n      jump\t// in\n    tag_55:\n      mload(0x40)\n      dup1\n      swap2\n      sub\n      swap1\n      revert\n    tag_54:\n        /* \"S7/marketplace.sol\":3397:3419  Bid memory existingBid */\n      0x00\n        /* \"S7/marketplace.sol\":3422:3431  groupBids */\n      0x02\n        /* \"S7/marketplace.sol\":3432:3437  group */\n      dup4\n        /* \"S7/marketplace.sol\":3422:3438  groupBids[group] */\n      mload(0x40)\n      tag_57\n      swap2\n      swap1\n      tag_58\n      jump\t// in\n    tag_57:\n      swap1\n      dup2\n      mstore\n      0x20\n      add\n      mload(0x40)\n      dup1\n      swap2\n      sub\n      swap1\n      keccak256\n        /* \"S7/marketplace.sol\":3397:3438  Bid memory existingBid = groupBids[group] */\n      mload(0x40)\n      dup1\n      0x40\n      add\n      0x40\n      mstore\n      swap1\n      dup2\n      0x00\n      dup3\n      add\n      sload\n      dup2\n      mstore\n      0x20\n      add\n      0x01\n      dup3\n      add\n      0x00\n      swap1\n      sload\n      swap1\n      0x0100\n      exp\n      swap1\n      div\n      0xffffffffffffffffffffffffffffffffffffffff\n      and\n      0xffffffffffffffffffffffffffffffffffffffff\n      and\n      0xffffffffffffffffffffffffffffffffffffffff\n      and\n      dup2\n      mstore\n      pop\n      pop\n      swap1\n      pop\n        /* \"S7/marketplace.sol\":3485:3486  0 */\n      0x00\n        /* \"S7/marketplace.sol\":3456:3487  existingBid.buyer == address(0) */\n      0xffffffffffffffffffffffffffffffffffffffff\n      and\n        /* \"S7/marketplace.sol\":3456:3467  existingBid */\n      dup2\n        /* \"S7/marketplace.sol\":3456:3473  existingBid.buyer */\n      0x20\n      add\n      mload\n        /* \"S7/marketplace.sol\":3456:3487  existingBid.buyer == address(0) */\n      0xffffffffffffffffffffffffffffffffffffffff\n      and\n      eq\n        /* \"S7/marketplace.sol\":3448:3516  require(existingBid.buyer == address(0), \"Group bid already exists\") */\n      tag_59\n      jumpi\n      mload(0x40)\n      0x08c379a000000000000000000000000000000000000000000000000000000000\n      dup2\n      mstore\n      0x04\n      add\n      tag_60\n      swap1\n      tag_61\n      jump\t// in\n    tag_60:\n      mload(0x40)\n      dup1\n      swap2\n      sub\n      swap1\n      revert\n    tag_59:\n        /* \"S7/marketplace.sol\":3535:3547  paymentToken */\n      0x03\n      0x00\n      swap1\n      sload\n      swap1\n      0x0100\n      exp\n      swap1\n      div\n      0xffffffffffffffffffffffffffffffffffffffff\n      and\n        /* \"S7/marketplace.sol\":3535:3560  paymentToken.transferFrom */\n      0xffffffffffffffffffffffffffffffffffffffff\n      and\n      0x23b872dd\n        /* \"S7/marketplace.sol\":3561:3571  msg.sender */\n      caller\n        /* \"S7/marketplace.sol\":3581:3585  this */\n      address\n        /* \"S7/marketplace.sol\":3588:3593  price */\n      dup6\n        /* \"S7/marketplace.sol\":3535:3594  paymentToken.transferFrom(msg.sender, address(this), price) */\n      mload(0x40)\n      dup5\n      0xffffffff\n      and\n      0xe0\n      shl\n      dup2\n      mstore\n      0x04\n      add\n      tag_62\n      swap4\n      swap3\n      swap2\n      swap1\n      tag_63\n      jump\t// in\n    tag_62:\n      0x20\n      mload(0x40)\n      dup1\n      dup4\n      sub\n      dup2\n      0x00\n      dup8\n      gas\n      call\n      iszero\n      dup1\n      iszero\n      tag_65\n      jumpi\n      returndatasize\n      0x00\n      dup1\n      returndatacopy\n      revert(0x00, returndatasize)\n    tag_65:\n      pop\n      pop\n      pop\n      pop\n      mload(0x40)\n      returndatasize\n      not(0x1f)\n      0x1f\n      dup3\n      add\n      and\n      dup3\n      add\n      dup1\n      0x40\n      mstore\n      pop\n      dup2\n      add\n      swap1\n      tag_66\n      swap2\n      swap1\n      tag_67\n      jump\t// in\n    tag_66:\n        /* \"S7/marketplace.sol\":3527:3622  require(paymentToken.transferFrom(msg.sender, address(this), price), \"Payment transfer failed\") */\n      tag_68\n      jumpi\n      mload(0x40)\n      0x08c379a000000000000000000000000000000000000000000000000000000000\n      dup2\n      mstore\n      0x04\n      add\n      tag_69\n      swap1\n      tag_70\n      jump\t// in\n    tag_69:\n      mload(0x40)\n      dup1\n      swap2\n      sub\n      swap1\n      revert\n    tag_68:\n        /* \"S7/marketplace.sol\":3652:3674  Bid(price, msg.sender) */\n      mload(0x40)\n      dup1\n      0x40\n      add\n      0x40\n      mstore\n      dup1\n        /* \"S7/marketplace.sol\":3656:3661  price */\n      dup4\n        /* \"S7/marketplace.sol\":3652:3674  Bid(price, msg.sender) */\n      dup2\n      mstore\n      0x20\n      add\n        /* \"S7/marketplace.sol\":3663:3673  msg.sender */\n      caller\n        /* \"S7/marketplace.sol\":3652:3674  Bid(price, msg.sender) */\n      0xffffffffffffffffffffffffffffffffffffffff\n      and\n      dup2\n      mstore\n      pop\n        /* \"S7/marketplace.sol\":3633:3642  groupBids */\n      0x02\n        /* \"S7/marketplace.sol\":3643:3648  group */\n      dup5\n        /* \"S7/marketplace.sol\":3633:3649  groupBids[group] */\n      mload(0x40)\n      tag_71\n      swap2\n      swap1\n      tag_58\n      jump\t// in\n    tag_71:\n      swap1\n      dup2\n      mstore\n      0x20\n      add\n      mload(0x40)\n      dup1\n      swap2\n      sub\n      swap1\n      keccak256\n        /* \"S7/marketplace.sol\":3633:3674  groupBids[group] = Bid(price, msg.sender) */\n      0x00\n      dup3\n      add\n      mload\n      dup2\n      0x00\n      add\n      sstore\n      0x20\n      dup3\n      add\n      mload\n      dup2\n      0x01\n      add\n      exp(0x0100, 0x00)\n      dup2\n      sload\n      dup2\n      0xffffffffffffffffffffffffffffffffffffffff\n      mul\n      not\n      and\n      swap1\n      dup4\n      0xffffffffffffffffffffffffffffffffffffffff\n      and\n      mul\n      or\n      swap1\n      sstore\n      pop\n      swap1\n      pop\n      pop\n        /* \"S7/marketplace.sol\":3718:3728  msg.sender */\n      caller\n        /* \"S7/marketplace.sol\":3689:3729  GroupBidPlaced(group, price, msg.sender) */\n      0xffffffffffffffffffffffffffffffffffffffff\n      and\n        /* \"S7/marketplace.sol\":3704:3709  group */\n      dup4\n        /* \"S7/marketplace.sol\":3689:3729  GroupBidPlaced(group, price, msg.sender) */\n      mload(0x40)\n      tag_72\n      swap2\n      swap1\n      tag_58\n      jump\t// in\n    tag_72:\n      mload(0x40)\n      dup1\n      swap2\n      sub\n      swap1\n      keccak256\n      0xb9b597ac955508b07ae61704bf8fbb68a1496727b57048867ed6d1f1256c9da6\n        /* \"S7/marketplace.sol\":3711:3716  price */\n      dup5\n        /* \"S7/marketplace.sol\":3689:3729  GroupBidPlaced(group, price, msg.sender) */\n      mload(0x40)\n      tag_73\n      swap2\n      swap1\n      tag_74\n      jump\t// in\n    tag_73:\n      mload(0x40)\n      dup1\n      swap2\n      sub\n      swap1\n      log3\n        /* \"S7/marketplace.sol\":3323:3736  {... */\n      pop\n        /* \"S7/marketplace.sol\":3255:3736  function placeGroupBid(string memory group, uint256 price) external {... */\n      pop\n      pop\n      jump\t// out\n        /* \"S7/marketplace.sol\":4712:4894  function getListing(address nftContract, uint256 tokenId) ... */\n    tag_28:\n        /* \"S7/marketplace.sol\":4820:4834  Listing memory */\n      tag_75\n      tag_76\n      jump\t// in\n    tag_75:\n        /* \"S7/marketplace.sol\":4857:4865  listings */\n      0x01\n        /* \"S7/marketplace.sol\":4857:4878  listings[nftContract] */\n      0x00\n        /* \"S7/marketplace.sol\":4866:4877  nftContract */\n      dup5\n        /* \"S7/marketplace.sol\":4857:4878  listings[nftContract] */\n      0xffffffffffffffffffffffffffffffffffffffff\n      and\n      0xffffffffffffffffffffffffffffffffffffffff\n      and\n      dup2\n      mstore\n      0x20\n      add\n      swap1\n      dup2\n      mstore\n      0x20\n      add\n      0x00\n      keccak256\n        /* \"S7/marketplace.sol\":4857:4887  listings[nftContract][tokenId] */\n      0x00\n        /* \"S7/marketplace.sol\":4879:4886  tokenId */\n      dup4\n        /* \"S7/marketplace.sol\":4857:4887  listings[nftContract][tokenId] */\n      dup2\n      mstore\n      0x20\n      add\n      swap1\n      dup2\n      mstore\n      0x20\n      add\n      0x00\n      keccak256\n        /* \"S7/marketplace.sol\":4850:4887  return listings[nftContract][tokenId] */\n      mload(0x40)\n      dup1\n      0x60\n      add\n      0x40\n      mstore\n      swap1\n      dup2\n      0x00\n      dup3\n      add\n      sload\n      dup2\n      mstore\n      0x20\n      add\n      0x01\n      dup3\n      add\n      0x00\n      swap1\n      sload\n      swap1\n      0x0100\n      exp\n      swap1\n      div\n      0xffffffffffffffffffffffffffffffffffffffff\n      and\n      0xffffffffffffffffffffffffffffffffffffffff\n      and\n      0xffffffffffffffffffffffffffffffffffffffff\n      and\n      dup2\n      mstore\n      0x20\n      add\n      0x02\n      dup3\n      add\n      dup1\n      sload\n      tag_78\n      swap1\n      tag_48\n      jump\t// in\n    tag_78:\n      dup1\n      0x1f\n      add\n      0x20\n      dup1\n      swap2\n      div\n      mul\n      0x20\n      add\n      mload(0x40)\n      swap1\n      dup2\n      add\n      0x40\n      mstore\n      dup1\n      swap3\n      swap2\n      swap1\n      dup2\n      dup2\n      mstore\n      0x20\n      add\n      dup3\n      dup1\n      sload\n      tag_79\n      swap1\n      tag_48\n      jump\t// in\n    tag_79:\n      dup1\n      iszero\n      tag_80\n      jumpi\n      dup1\n      0x1f\n      lt\n      tag_81\n      jumpi\n      0x0100\n      dup1\n      dup4\n      sload\n      div\n      mul\n      dup4\n      mstore\n      swap2\n      0x20\n      add\n      swap2\n      jump(tag_80)\n    tag_81:\n      dup3\n      add\n      swap2\n      swap1\n      0x00\n      mstore\n      keccak256(0x00, 0x20)\n      swap1\n    tag_82:\n      dup2\n      sload\n      dup2\n      mstore\n      swap1\n      0x01\n      add\n      swap1\n      0x20\n      add\n      dup1\n      dup4\n      gt\n      tag_82\n      jumpi\n      dup3\n      swap1\n      sub\n      0x1f\n      and\n      dup3\n      add\n      swap2\n    tag_80:\n      pop\n      pop\n      pop\n      pop\n      pop\n      dup2\n      mstore\n      pop\n      pop\n      swap1\n      pop\n        /* \"S7/marketplace.sol\":4712:4894  function getListing(address nftContract, uint256 tokenId) ... */\n      swap3\n      swap2\n      pop\n      pop\n      jump\t// out\n        /* \"S7/marketplace.sol\":2069:3186  function listNFT(address nftContract, uint256 tokenId, uint256 price, string memory group) ... */\n    tag_34:\n        /* \"S7/marketplace.sol\":2195:2206  nftContract */\n      dup4\n        /* \"S7/marketplace.sol\":2208:2215  tokenId */\n      dup4\n        /* \"S7/marketplace.sol\":2217:2227  msg.sender */\n      caller\n        /* \"S7/marketplace.sol\":1546:1557  IERC721 nft */\n      0x00\n        /* \"S7/marketplace.sol\":1568:1579  nftContract */\n      dup4\n        /* \"S7/marketplace.sol\":1546:1580  IERC721 nft = IERC721(nftContract) */\n      swap1\n      pop\n        /* \"S7/marketplace.sol\":1622:1629  spender */\n      dup2\n        /* \"S7/marketplace.sol\":1598:1629  nft.ownerOf(tokenId) == spender */\n      0xffffffffffffffffffffffffffffffffffffffff\n      and\n        /* \"S7/marketplace.sol\":1598:1601  nft */\n      dup2\n        /* \"S7/marketplace.sol\":1598:1609  nft.ownerOf */\n      0xffffffffffffffffffffffffffffffffffffffff\n      and\n      0x6352211e\n        /* \"S7/marketplace.sol\":1610:1617  tokenId */\n      dup6\n        /* \"S7/marketplace.sol\":1598:1618  nft.ownerOf(tokenId) */\n      mload(0x40)\n      dup3\n      0xffffffff\n      and\n      0xe0\n      shl\n      dup2\n      mstore\n      0x04\n      add\n      tag_84\n      swap2\n      swap1\n      tag_74\n      jump\t// in\n    tag_84:\n      0x20\n      mload(0x40)\n      dup1\n      dup4\n      sub\n      dup2\n      dup7\n      gas\n      staticcall\n      iszero\n      dup1\n      iszero\n      tag_86\n      jumpi\n      returndatasize\n      0x00\n      dup1\n      returndatacopy\n      revert(0x00, returndatasize)\n    tag_86:\n      pop\n      pop\n      pop\n      pop\n      mload(0x40)\n      returndatasize\n      not(0x1f)\n      0x1f\n      dup3\n      add\n      and\n      dup3\n      add\n      dup1\n      0x40\n      mstore\n      pop\n      dup2\n      add\n      swap1\n      tag_87\n      swap2\n      swap1\n      tag_88\n      jump\t// in\n    tag_87:\n        /* \"S7/marketplace.sol\":1598:1629  nft.ownerOf(tokenId) == spender */\n      0xffffffffffffffffffffffffffffffffffffffff\n      and\n      eq\n        /* \"S7/marketplace.sol\":1590:1658  require(nft.ownerOf(tokenId) == spender, \"Not the owner of the NFT\") */\n      tag_89\n      jumpi\n      mload(0x40)\n      0x08c379a000000000000000000000000000000000000000000000000000000000\n      dup2\n      mstore\n      0x04\n      add\n      tag_90\n      swap1\n      tag_91\n      jump\t// in\n    tag_90:\n      mload(0x40)\n      dup1\n      swap2\n      sub\n      swap1\n      revert\n    tag_89:\n        /* \"S7/marketplace.sol\":2248:2259  nftContract */\n      dup8\n        /* \"S7/marketplace.sol\":2261:2268  tokenId */\n      dup8\n        /* \"S7/marketplace.sol\":1797:1798  0 */\n      0x00\n        /* \"S7/marketplace.sol\":1757:1765  listings */\n      0x01\n        /* \"S7/marketplace.sol\":1757:1778  listings[nftContract] */\n      0x00\n        /* \"S7/marketplace.sol\":1766:1777  nftContract */\n      dup5\n        /* \"S7/marketplace.sol\":1757:1778  listings[nftContract] */\n      0xffffffffffffffffffffffffffffffffffffffff\n      and\n      0xffffffffffffffffffffffffffffffffffffffff\n      and\n      dup2\n      mstore\n      0x20\n      add\n      swap1\n      dup2\n      mstore\n      0x20\n      add\n      0x00\n      keccak256\n        /* \"S7/marketplace.sol\":1757:1787  listings[nftContract][tokenId] */\n      0x00\n        /* \"S7/marketplace.sol\":1779:1786  tokenId */\n      dup4\n        /* \"S7/marketplace.sol\":1757:1787  listings[nftContract][tokenId] */\n      dup2\n      mstore\n      0x20\n      add\n      swap1\n      dup2\n      mstore\n      0x20\n      add\n      0x00\n      keccak256\n        /* \"S7/marketplace.sol\":1757:1793  listings[nftContract][tokenId].price */\n      0x00\n      add\n      sload\n        /* \"S7/marketplace.sol\":1757:1798  listings[nftContract][tokenId].price == 0 */\n      eq\n        /* \"S7/marketplace.sol\":1749:1824  require(listings[nftContract][tokenId].price == 0, \"NFT is already listed\") */\n      tag_93\n      jumpi\n      mload(0x40)\n      0x08c379a000000000000000000000000000000000000000000000000000000000\n      dup2\n      mstore\n      0x04\n      add\n      tag_94\n      swap1\n      tag_95\n      jump\t// in\n    tag_94:\n      mload(0x40)\n      dup1\n      swap2\n      sub\n      swap1\n      revert\n    tag_93:\n        /* \"S7/marketplace.sol\":2300:2301  0 */\n      0x00\n        /* \"S7/marketplace.sol\":2292:2297  price */\n      dup9\n        /* \"S7/marketplace.sol\":2292:2301  price > 0 */\n      gt\n        /* \"S7/marketplace.sol\":2284:2337  require(price > 0, \"Price must be greater than zero\") */\n      tag_97\n      jumpi\n      mload(0x40)\n      0x08c379a000000000000000000000000000000000000000000000000000000000\n      dup2\n      mstore\n      0x04\n      add\n      tag_98\n      swap1\n      tag_56\n      jump\t// in\n    tag_98:\n      mload(0x40)\n      dup1\n      swap2\n      sub\n      swap1\n      revert\n    tag_97:\n        /* \"S7/marketplace.sol\":2348:2359  IERC721 nft */\n      0x00\n        /* \"S7/marketplace.sol\":2370:2381  nftContract */\n      dup11\n        /* \"S7/marketplace.sol\":2348:2382  IERC721 nft = IERC721(nftContract) */\n      swap1\n      pop\n        /* \"S7/marketplace.sol\":2436:2440  this */\n      address\n        /* \"S7/marketplace.sol\":2400:2441  nft.getApproved(tokenId) == address(this) */\n      0xffffffffffffffffffffffffffffffffffffffff\n      and\n        /* \"S7/marketplace.sol\":2400:2403  nft */\n      dup2\n        /* \"S7/marketplace.sol\":2400:2415  nft.getApproved */\n      0xffffffffffffffffffffffffffffffffffffffff\n      and\n      0x081812fc\n        /* \"S7/marketplace.sol\":2416:2423  tokenId */\n      dup13\n        /* \"S7/marketplace.sol\":2400:2424  nft.getApproved(tokenId) */\n      mload(0x40)\n      dup3\n      0xffffffff\n      and\n      0xe0\n      shl\n      dup2\n      mstore\n      0x04\n      add\n      tag_99\n      swap2\n      swap1\n      tag_74\n      jump\t// in\n    tag_99:\n      0x20\n      mload(0x40)\n      dup1\n      dup4\n      sub\n      dup2\n      dup7\n      gas\n      staticcall\n      iszero\n      dup1\n      iszero\n      tag_101\n      jumpi\n      returndatasize\n      0x00\n      dup1\n      returndatacopy\n      revert(0x00, returndatasize)\n    tag_101:\n      pop\n      pop\n      pop\n      pop\n      mload(0x40)\n      returndatasize\n      not(0x1f)\n      0x1f\n      dup3\n      add\n      and\n      dup3\n      add\n      dup1\n      0x40\n      mstore\n      pop\n      dup2\n      add\n      swap1\n      tag_102\n      swap2\n      swap1\n      tag_88\n      jump\t// in\n    tag_102:\n        /* \"S7/marketplace.sol\":2400:2441  nft.getApproved(tokenId) == address(this) */\n      0xffffffffffffffffffffffffffffffffffffffff\n      and\n      eq\n        /* \"S7/marketplace.sol\":2392:2470  require(nft.getApproved(tokenId) == address(this), \"Marketplace not approved\") */\n      tag_103\n      jumpi\n      mload(0x40)\n      0x08c379a000000000000000000000000000000000000000000000000000000000\n      dup2\n      mstore\n      0x04\n      add\n      tag_104\n      swap1\n      tag_105\n      jump\t// in\n    tag_104:\n      mload(0x40)\n      dup1\n      swap2\n      sub\n      swap1\n      revert\n    tag_103:\n        /* \"S7/marketplace.sol\":2514:2547  Listing(price, msg.sender, group) */\n      mload(0x40)\n      dup1\n      0x60\n      add\n      0x40\n      mstore\n      dup1\n        /* \"S7/marketplace.sol\":2522:2527  price */\n      dup11\n        /* \"S7/marketplace.sol\":2514:2547  Listing(price, msg.sender, group) */\n      dup2\n      mstore\n      0x20\n      add\n        /* \"S7/marketplace.sol\":2529:2539  msg.sender */\n      caller\n        /* \"S7/marketplace.sol\":2514:2547  Listing(price, msg.sender, group) */\n      0xffffffffffffffffffffffffffffffffffffffff\n      and\n      dup2\n      mstore\n      0x20\n      add\n        /* \"S7/marketplace.sol\":2541:2546  group */\n      dup10\n        /* \"S7/marketplace.sol\":2514:2547  Listing(price, msg.sender, group) */\n      dup2\n      mstore\n      pop\n        /* \"S7/marketplace.sol\":2481:2489  listings */\n      0x01\n        /* \"S7/marketplace.sol\":2481:2502  listings[nftContract] */\n      0x00\n        /* \"S7/marketplace.sol\":2490:2501  nftContract */\n      dup14\n        /* \"S7/marketplace.sol\":2481:2502  listings[nftContract] */\n      0xffffffffffffffffffffffffffffffffffffffff\n      and\n      0xffffffffffffffffffffffffffffffffffffffff\n      and\n      dup2\n      mstore\n      0x20\n      add\n      swap1\n      dup2\n      mstore\n      0x20\n      add\n      0x00\n      keccak256\n        /* \"S7/marketplace.sol\":2481:2511  listings[nftContract][tokenId] */\n      0x00\n        /* \"S7/marketplace.sol\":2503:2510  tokenId */\n      dup13\n        /* \"S7/marketplace.sol\":2481:2511  listings[nftContract][tokenId] */\n      dup2\n      mstore\n      0x20\n      add\n      swap1\n      dup2\n      mstore\n      0x20\n      add\n      0x00\n      keccak256\n        /* \"S7/marketplace.sol\":2481:2547  listings[nftContract][tokenId] = Listing(price, msg.sender, group) */\n      0x00\n      dup3\n      add\n      mload\n      dup2\n      0x00\n      add\n      sstore\n      0x20\n      dup3\n      add\n      mload\n      dup2\n      0x01\n      add\n      exp(0x0100, 0x00)\n      dup2\n      sload\n      dup2\n      0xffffffffffffffffffffffffffffffffffffffff\n      mul\n      not\n      and\n      swap1\n      dup4\n      0xffffffffffffffffffffffffffffffffffffffff\n      and\n      mul\n      or\n      swap1\n      sstore\n      pop\n      0x40\n      dup3\n      add\n      mload\n      dup2\n      0x02\n      add\n      swap1\n      dup2\n      tag_106\n      swap2\n      swap1\n      tag_107\n      jump\t// in\n    tag_106:\n      pop\n      swap1\n      pop\n      pop\n        /* \"S7/marketplace.sol\":2601:2611  msg.sender */\n      caller\n        /* \"S7/marketplace.sol\":2562:2619  NFTListed(nftContract, tokenId, price, msg.sender, group) */\n      0xffffffffffffffffffffffffffffffffffffffff\n      and\n        /* \"S7/marketplace.sol\":2585:2592  tokenId */\n      dup11\n        /* \"S7/marketplace.sol\":2572:2583  nftContract */\n      dup13\n        /* \"S7/marketplace.sol\":2562:2619  NFTListed(nftContract, tokenId, price, msg.sender, group) */\n      0xffffffffffffffffffffffffffffffffffffffff\n      and\n      0xd3d530e863bcc675fbaac43a738955b08523ea4c724eb86d062f04c7a9e8517c\n        /* \"S7/marketplace.sol\":2594:2599  price */\n      dup13\n        /* \"S7/marketplace.sol\":2613:2618  group */\n      dup13\n        /* \"S7/marketplace.sol\":2562:2619  NFTListed(nftContract, tokenId, price, msg.sender, group) */\n      mload(0x40)\n      tag_108\n      swap3\n      swap2\n      swap1\n      tag_109\n      jump\t// in\n    tag_108:\n      mload(0x40)\n      dup1\n      swap2\n      sub\n      swap1\n      log4\n        /* \"S7/marketplace.sol\":2679:2693  Bid memory bid */\n      0x00\n        /* \"S7/marketplace.sol\":2696:2705  groupBids */\n      0x02\n        /* \"S7/marketplace.sol\":2706:2711  group */\n      dup10\n        /* \"S7/marketplace.sol\":2696:2712  groupBids[group] */\n      mload(0x40)\n      tag_110\n      swap2\n      swap1\n      tag_58\n      jump\t// in\n    tag_110:\n      swap1\n      dup2\n      mstore\n      0x20\n      add\n      mload(0x40)\n      dup1\n      swap2\n      sub\n      swap1\n      keccak256\n        /* \"S7/marketplace.sol\":2679:2712  Bid memory bid = groupBids[group] */\n      mload(0x40)\n      dup1\n      0x40\n      add\n      0x40\n      mstore\n      swap1\n      dup2\n      0x00\n      dup3\n      add\n      sload\n      dup2\n      mstore\n      0x20\n      add\n      0x01\n      dup3\n      add\n      0x00\n      swap1\n      sload\n      swap1\n      0x0100\n      exp\n      swap1\n      div\n      0xffffffffffffffffffffffffffffffffffffffff\n      and\n      0xffffffffffffffffffffffffffffffffffffffff\n      and\n      0xffffffffffffffffffffffffffffffffffffffff\n      and\n      dup2\n      mstore\n      pop\n      pop\n      swap1\n      pop\n        /* \"S7/marketplace.sol\":2739:2744  price */\n      dup10\n        /* \"S7/marketplace.sol\":2726:2729  bid */\n      dup2\n        /* \"S7/marketplace.sol\":2726:2735  bid.price */\n      0x00\n      add\n      mload\n        /* \"S7/marketplace.sol\":2726:2744  bid.price >= price */\n      lt\n      iszero\n        /* \"S7/marketplace.sol\":2726:2771  bid.price >= price && bid.buyer != address(0) */\n      dup1\n      iszero\n      tag_111\n      jumpi\n      pop\n        /* \"S7/marketplace.sol\":2769:2770  0 */\n      0x00\n        /* \"S7/marketplace.sol\":2748:2771  bid.buyer != address(0) */\n      0xffffffffffffffffffffffffffffffffffffffff\n      and\n        /* \"S7/marketplace.sol\":2748:2751  bid */\n      dup2\n        /* \"S7/marketplace.sol\":2748:2757  bid.buyer */\n      0x20\n      add\n      mload\n        /* \"S7/marketplace.sol\":2748:2771  bid.buyer != address(0) */\n      0xffffffffffffffffffffffffffffffffffffffff\n      and\n      eq\n      iszero\n        /* \"S7/marketplace.sol\":2726:2771  bid.price >= price && bid.buyer != address(0) */\n    tag_111:\n        /* \"S7/marketplace.sol\":2722:3180  if (bid.price >= price && bid.buyer != address(0)) {... */\n      iszero\n      tag_112\n      jumpi\n        /* \"S7/marketplace.sol\":2794:2803  groupBids */\n      0x02\n        /* \"S7/marketplace.sol\":2804:2809  group */\n      dup10\n        /* \"S7/marketplace.sol\":2794:2810  groupBids[group] */\n      mload(0x40)\n      tag_113\n      swap2\n      swap1\n      tag_58\n      jump\t// in\n    tag_113:\n      swap1\n      dup2\n      mstore\n      0x20\n      add\n      mload(0x40)\n      dup1\n      swap2\n      sub\n      swap1\n      keccak256\n      0x00\n        /* \"S7/marketplace.sol\":2787:2810  delete groupBids[group] */\n      dup1\n      dup3\n      add\n      0x00\n      swap1\n      sstore\n      0x01\n      dup3\n      add\n      exp(0x0100, 0x00)\n      dup2\n      sload\n      swap1\n      0xffffffffffffffffffffffffffffffffffffffff\n      mul\n      not\n      and\n      swap1\n      sstore\n      pop\n      pop\n        /* \"S7/marketplace.sol\":2831:2839  listings */\n      0x01\n        /* \"S7/marketplace.sol\":2831:2852  listings[nftContract] */\n      0x00\n        /* \"S7/marketplace.sol\":2840:2851  nftContract */\n      dup14\n        /* \"S7/marketplace.sol\":2831:2852  listings[nftContract] */\n      0xffffffffffffffffffffffffffffffffffffffff\n      and\n      0xffffffffffffffffffffffffffffffffffffffff\n      and\n      dup2\n      mstore\n      0x20\n      add\n      swap1\n      dup2\n      mstore\n      0x20\n      add\n      0x00\n      keccak256\n        /* \"S7/marketplace.sol\":2831:2861  listings[nftContract][tokenId] */\n      0x00\n        /* \"S7/marketplace.sol\":2853:2860  tokenId */\n      dup13\n        /* \"S7/marketplace.sol\":2831:2861  listings[nftContract][tokenId] */\n      dup2\n      mstore\n      0x20\n      add\n      swap1\n      dup2\n      mstore\n      0x20\n      add\n      0x00\n      keccak256\n      0x00\n        /* \"S7/marketplace.sol\":2824:2861  delete listings[nftContract][tokenId] */\n      dup1\n      dup3\n      add\n      0x00\n      swap1\n      sstore\n      0x01\n      dup3\n      add\n      exp(0x0100, 0x00)\n      dup2\n      sload\n      swap1\n      0xffffffffffffffffffffffffffffffffffffffff\n      mul\n      not\n      and\n      swap1\n      sstore\n      0x02\n      dup3\n      add\n      0x00\n      tag_114\n      swap2\n      swap1\n      tag_115\n      jump\t// in\n    tag_114:\n      pop\n      pop\n        /* \"S7/marketplace.sol\":2928:2940  paymentToken */\n      0x03\n      0x00\n      swap1\n      sload\n      swap1\n      0x0100\n      exp\n      swap1\n      div\n      0xffffffffffffffffffffffffffffffffffffffff\n      and\n        /* \"S7/marketplace.sol\":2928:2953  paymentToken.transferFrom */\n      0xffffffffffffffffffffffffffffffffffffffff\n      and\n      0x23b872dd\n        /* \"S7/marketplace.sol\":2954:2957  bid */\n      dup3\n        /* \"S7/marketplace.sol\":2954:2963  bid.buyer */\n      0x20\n      add\n      mload\n        /* \"S7/marketplace.sol\":2965:2975  msg.sender */\n      caller\n        /* \"S7/marketplace.sol\":2977:2982  price */\n      dup14\n        /* \"S7/marketplace.sol\":2928:2983  paymentToken.transferFrom(bid.buyer, msg.sender, price) */\n      mload(0x40)\n      dup5\n      0xffffffff\n      and\n      0xe0\n      shl\n      dup2\n      mstore\n      0x04\n      add\n      tag_116\n      swap4\n      swap3\n      swap2\n      swap1\n      tag_63\n      jump\t// in\n    tag_116:\n      0x20\n      mload(0x40)\n      dup1\n      dup4\n      sub\n      dup2\n      0x00\n      dup8\n      gas\n      call\n      iszero\n      dup1\n      iszero\n      tag_118\n      jumpi\n      returndatasize\n      0x00\n      dup1\n      returndatacopy\n      revert(0x00, returndatasize)\n    tag_118:\n      pop\n      pop\n      pop\n      pop\n      mload(0x40)\n      returndatasize\n      not(0x1f)\n      0x1f\n      dup3\n      add\n      and\n      dup3\n      add\n      dup1\n      0x40\n      mstore\n      pop\n      dup2\n      add\n      swap1\n      tag_119\n      swap2\n      swap1\n      tag_67\n      jump\t// in\n    tag_119:\n        /* \"S7/marketplace.sol\":2920:3011  require(paymentToken.transferFrom(bid.buyer, msg.sender, price), \"Payment transfer failed\") */\n      tag_120\n      jumpi\n      mload(0x40)\n      0x08c379a000000000000000000000000000000000000000000000000000000000\n      dup2\n      mstore\n      0x04\n      add\n      tag_121\n      swap1\n      tag_70\n      jump\t// in\n    tag_121:\n      mload(0x40)\n      dup1\n      swap2\n      sub\n      swap1\n      revert\n    tag_120:\n        /* \"S7/marketplace.sol\":3033:3044  nftContract */\n      dup12\n        /* \"S7/marketplace.sol\":3025:3062  IERC721(nftContract).safeTransferFrom */\n      0xffffffffffffffffffffffffffffffffffffffff\n      and\n      0x42842e0e\n        /* \"S7/marketplace.sol\":3063:3073  msg.sender */\n      caller\n        /* \"S7/marketplace.sol\":3075:3078  bid */\n      dup4\n        /* \"S7/marketplace.sol\":3075:3084  bid.buyer */\n      0x20\n      add\n      mload\n        /* \"S7/marketplace.sol\":3086:3093  tokenId */\n      dup15\n        /* \"S7/marketplace.sol\":3025:3094  IERC721(nftContract).safeTransferFrom(msg.sender, bid.buyer, tokenId) */\n      mload(0x40)\n      dup5\n      0xffffffff\n      and\n      0xe0\n      shl\n      dup2\n      mstore\n      0x04\n      add\n      tag_122\n      swap4\n      swap3\n      swap2\n      swap1\n      tag_63\n      jump\t// in\n    tag_122:\n      0x00\n      mload(0x40)\n      dup1\n      dup4\n      sub\n      dup2\n      0x00\n      dup8\n      dup1\n      extcodesize\n      iszero\n      dup1\n      iszero\n      tag_123\n      jumpi\n      0x00\n      dup1\n      revert\n    tag_123:\n      pop\n      gas\n      call\n      iszero\n      dup1\n      iszero\n      tag_125\n      jumpi\n      returndatasize\n      0x00\n      dup1\n      returndatacopy\n      revert(0x00, returndatasize)\n    tag_125:\n      pop\n      pop\n      pop\n      pop\n        /* \"S7/marketplace.sol\":3159:3162  bid */\n      dup1\n        /* \"S7/marketplace.sol\":3159:3168  bid.buyer */\n      0x20\n      add\n      mload\n        /* \"S7/marketplace.sol\":3114:3169  GroupBidMatched(nftContract, tokenId, price, bid.buyer) */\n      0xffffffffffffffffffffffffffffffffffffffff\n      and\n        /* \"S7/marketplace.sol\":3143:3150  tokenId */\n      dup12\n        /* \"S7/marketplace.sol\":3130:3141  nftContract */\n      dup14\n        /* \"S7/marketplace.sol\":3114:3169  GroupBidMatched(nftContract, tokenId, price, bid.buyer) */\n      0xffffffffffffffffffffffffffffffffffffffff\n      and\n      0x1658be8dbd90f08a0f1b9367eaf7d55760d7addbb8dfe73c43524c77e6febebc\n        /* \"S7/marketplace.sol\":3152:3157  price */\n      dup14\n        /* \"S7/marketplace.sol\":3114:3169  GroupBidMatched(nftContract, tokenId, price, bid.buyer) */\n      mload(0x40)\n      tag_126\n      swap2\n      swap1\n      tag_74\n      jump\t// in\n    tag_126:\n      mload(0x40)\n      dup1\n      swap2\n      sub\n      swap1\n      log4\n        /* \"S7/marketplace.sol\":2722:3180  if (bid.price >= price && bid.buyer != address(0)) {... */\n    tag_112:\n        /* \"S7/marketplace.sol\":2274:3186  {... */\n      pop\n      pop\n        /* \"S7/marketplace.sol\":1668:1669  _ */\n      pop\n      pop\n        /* \"S7/marketplace.sol\":1536:1676  {... */\n      pop\n        /* \"S7/marketplace.sol\":2069:3186  function listNFT(address nftContract, uint256 tokenId, uint256 price, string memory group) ... */\n      pop\n      pop\n      pop\n      pop\n      pop\n      pop\n      pop\n      jump\t// out\n        /* \"S7/marketplace.sol\":4119:4663  function buyNFT(address nftContract, uint256 tokenId) ... */\n    tag_37:\n        /* \"@openzeppelin/contracts/security/ReentrancyGuard.sol\":2261:2282  _nonReentrantBefore() */\n      tag_128\n        /* \"@openzeppelin/contracts/security/ReentrancyGuard.sol\":2261:2280  _nonReentrantBefore */\n      tag_129\n        /* \"@openzeppelin/contracts/security/ReentrancyGuard.sol\":2261:2282  _nonReentrantBefore() */\n      jump\t// in\n    tag_128:\n        /* \"S7/marketplace.sol\":4231:4242  nftContract */\n      dup2\n        /* \"S7/marketplace.sol\":4244:4251  tokenId */\n      dup2\n        /* \"S7/marketplace.sol\":1961:1962  0 */\n      0x00\n        /* \"S7/marketplace.sol\":1922:1930  listings */\n      0x01\n        /* \"S7/marketplace.sol\":1922:1943  listings[nftContract] */\n      0x00\n        /* \"S7/marketplace.sol\":1931:1942  nftContract */\n      dup5\n        /* \"S7/marketplace.sol\":1922:1943  listings[nftContract] */\n      0xffffffffffffffffffffffffffffffffffffffff\n      and\n      0xffffffffffffffffffffffffffffffffffffffff\n      and\n      dup2\n      mstore\n      0x20\n      add\n      swap1\n      dup2\n      mstore\n      0x20\n      add\n      0x00\n      keccak256\n        /* \"S7/marketplace.sol\":1922:1952  listings[nftContract][tokenId] */\n      0x00\n        /* \"S7/marketplace.sol\":1944:1951  tokenId */\n      dup4\n        /* \"S7/marketplace.sol\":1922:1952  listings[nftContract][tokenId] */\n      dup2\n      mstore\n      0x20\n      add\n      swap1\n      dup2\n      mstore\n      0x20\n      add\n      0x00\n      keccak256\n        /* \"S7/marketplace.sol\":1922:1958  listings[nftContract][tokenId].price */\n      0x00\n      add\n      sload\n        /* \"S7/marketplace.sol\":1922:1962  listings[nftContract][tokenId].price > 0 */\n      gt\n        /* \"S7/marketplace.sol\":1914:1984  require(listings[nftContract][tokenId].price > 0, \"NFT is not listed\") */\n      tag_131\n      jumpi\n      mload(0x40)\n      0x08c379a000000000000000000000000000000000000000000000000000000000\n      dup2\n      mstore\n      0x04\n      add\n      tag_132\n      swap1\n      tag_133\n      jump\t// in\n    tag_132:\n      mload(0x40)\n      dup1\n      swap2\n      sub\n      swap1\n      revert\n    tag_131:\n        /* \"S7/marketplace.sol\":4267:4292  Listing memory listedItem */\n      0x00\n        /* \"S7/marketplace.sol\":4295:4303  listings */\n      0x01\n        /* \"S7/marketplace.sol\":4295:4316  listings[nftContract] */\n      0x00\n        /* \"S7/marketplace.sol\":4304:4315  nftContract */\n      dup7\n        /* \"S7/marketplace.sol\":4295:4316  listings[nftContract] */\n      0xffffffffffffffffffffffffffffffffffffffff\n      and\n      0xffffffffffffffffffffffffffffffffffffffff\n      and\n      dup2\n      mstore\n      0x20\n      add\n      swap1\n      dup2\n      mstore\n      0x20\n      add\n      0x00\n      keccak256\n        /* \"S7/marketplace.sol\":4295:4325  listings[nftContract][tokenId] */\n      0x00\n        /* \"S7/marketplace.sol\":4317:4324  tokenId */\n      dup6\n        /* \"S7/marketplace.sol\":4295:4325  listings[nftContract][tokenId] */\n      dup2\n      mstore\n      0x20\n      add\n      swap1\n      dup2\n      mstore\n      0x20\n      add\n      0x00\n      keccak256\n        /* \"S7/marketplace.sol\":4267:4325  Listing memory listedItem = listings[nftContract][tokenId] */\n      mload(0x40)\n      dup1\n      0x60\n      add\n      0x40\n      mstore\n      swap1\n      dup2\n      0x00\n      dup3\n      add\n      sload\n      dup2\n      mstore\n      0x20\n      add\n      0x01\n      dup3\n      add\n      0x00\n      swap1\n      sload\n      swap1\n      0x0100\n      exp\n      swap1\n      div\n      0xffffffffffffffffffffffffffffffffffffffff\n      and\n      0xffffffffffffffffffffffffffffffffffffffff\n      and\n      0xffffffffffffffffffffffffffffffffffffffff\n      and\n      dup2\n      mstore\n      0x20\n      add\n      0x02\n      dup3\n      add\n      dup1\n      sload\n      tag_135\n      swap1\n      tag_48\n      jump\t// in\n    tag_135:\n      dup1\n      0x1f\n      add\n      0x20\n      dup1\n      swap2\n      div\n      mul\n      0x20\n      add\n      mload(0x40)\n      swap1\n      dup2\n      add\n      0x40\n      mstore\n      dup1\n      swap3\n      swap2\n      swap1\n      dup2\n      dup2\n      mstore\n      0x20\n      add\n      dup3\n      dup1\n      sload\n      tag_136\n      swap1\n      tag_48\n      jump\t// in\n    tag_136:\n      dup1\n      iszero\n      tag_137\n      jumpi\n      dup1\n      0x1f\n      lt\n      tag_138\n      jumpi\n      0x0100\n      dup1\n      dup4\n      sload\n      div\n      mul\n      dup4\n      mstore\n      swap2\n      0x20\n      add\n      swap2\n      jump(tag_137)\n    tag_138:\n      dup3\n      add\n      swap2\n      swap1\n      0x00\n      mstore\n      keccak256(0x00, 0x20)\n      swap1\n    tag_139:\n      dup2\n      sload\n      dup2\n      mstore\n      swap1\n      0x01\n      add\n      swap1\n      0x20\n      add\n      dup1\n      dup4\n      gt\n      tag_139\n      jumpi\n      dup3\n      swap1\n      sub\n      0x1f\n      and\n      dup3\n      add\n      swap2\n    tag_137:\n      pop\n      pop\n      pop\n      pop\n      pop\n      dup2\n      mstore\n      pop\n      pop\n      swap1\n      pop\n        /* \"S7/marketplace.sol\":4343:4355  paymentToken */\n      0x03\n      0x00\n      swap1\n      sload\n      swap1\n      0x0100\n      exp\n      swap1\n      div\n      0xffffffffffffffffffffffffffffffffffffffff\n      and\n        /* \"S7/marketplace.sol\":4343:4368  paymentToken.transferFrom */\n      0xffffffffffffffffffffffffffffffffffffffff\n      and\n      0x23b872dd\n        /* \"S7/marketplace.sol\":4369:4379  msg.sender */\n      caller\n        /* \"S7/marketplace.sol\":4381:4391  listedItem */\n      dup4\n        /* \"S7/marketplace.sol\":4381:4398  listedItem.seller */\n      0x20\n      add\n      mload\n        /* \"S7/marketplace.sol\":4400:4410  listedItem */\n      dup5\n        /* \"S7/marketplace.sol\":4400:4416  listedItem.price */\n      0x00\n      add\n      mload\n        /* \"S7/marketplace.sol\":4343:4417  paymentToken.transferFrom(msg.sender, listedItem.seller, listedItem.price) */\n      mload(0x40)\n      dup5\n      0xffffffff\n      and\n      0xe0\n      shl\n      dup2\n      mstore\n      0x04\n      add\n      tag_140\n      swap4\n      swap3\n      swap2\n      swap1\n      tag_63\n      jump\t// in\n    tag_140:\n      0x20\n      mload(0x40)\n      dup1\n      dup4\n      sub\n      dup2\n      0x00\n      dup8\n      gas\n      call\n      iszero\n      dup1\n      iszero\n      tag_142\n      jumpi\n      returndatasize\n      0x00\n      dup1\n      returndatacopy\n      revert(0x00, returndatasize)\n    tag_142:\n      pop\n      pop\n      pop\n      pop\n      mload(0x40)\n      returndatasize\n      not(0x1f)\n      0x1f\n      dup3\n      add\n      and\n      dup3\n      add\n      dup1\n      0x40\n      mstore\n      pop\n      dup2\n      add\n      swap1\n      tag_143\n      swap2\n      swap1\n      tag_67\n      jump\t// in\n    tag_143:\n        /* \"S7/marketplace.sol\":4335:4445  require(paymentToken.transferFrom(msg.sender, listedItem.seller, listedItem.price), \"Payment transfer failed\") */\n      tag_144\n      jumpi\n      mload(0x40)\n      0x08c379a000000000000000000000000000000000000000000000000000000000\n      dup2\n      mstore\n      0x04\n      add\n      tag_145\n      swap1\n      tag_70\n      jump\t// in\n    tag_145:\n      mload(0x40)\n      dup1\n      swap2\n      sub\n      swap1\n      revert\n    tag_144:\n        /* \"S7/marketplace.sol\":4463:4471  listings */\n      0x01\n        /* \"S7/marketplace.sol\":4463:4484  listings[nftContract] */\n      0x00\n        /* \"S7/marketplace.sol\":4472:4483  nftContract */\n      dup7\n        /* \"S7/marketplace.sol\":4463:4484  listings[nftContract] */\n      0xffffffffffffffffffffffffffffffffffffffff\n      and\n      0xffffffffffffffffffffffffffffffffffffffff\n      and\n      dup2\n      mstore\n      0x20\n      add\n      swap1\n      dup2\n      mstore\n      0x20\n      add\n      0x00\n      keccak256\n        /* \"S7/marketplace.sol\":4463:4493  listings[nftContract][tokenId] */\n      0x00\n        /* \"S7/marketplace.sol\":4485:4492  tokenId */\n      dup6\n        /* \"S7/marketplace.sol\":4463:4493  listings[nftContract][tokenId] */\n      dup2\n      mstore\n      0x20\n      add\n      swap1\n      dup2\n      mstore\n      0x20\n      add\n      0x00\n      keccak256\n      0x00\n        /* \"S7/marketplace.sol\":4456:4493  delete listings[nftContract][tokenId] */\n      dup1\n      dup3\n      add\n      0x00\n      swap1\n      sstore\n      0x01\n      dup3\n      add\n      exp(0x0100, 0x00)\n      dup2\n      sload\n      swap1\n      0xffffffffffffffffffffffffffffffffffffffff\n      mul\n      not\n      and\n      swap1\n      sstore\n      0x02\n      dup3\n      add\n      0x00\n      tag_146\n      swap2\n      swap1\n      tag_115\n      jump\t// in\n    tag_146:\n      pop\n      pop\n        /* \"S7/marketplace.sol\":4512:4523  nftContract */\n      dup5\n        /* \"S7/marketplace.sol\":4504:4541  IERC721(nftContract).safeTransferFrom */\n      0xffffffffffffffffffffffffffffffffffffffff\n      and\n      0x42842e0e\n        /* \"S7/marketplace.sol\":4542:4552  listedItem */\n      dup3\n        /* \"S7/marketplace.sol\":4542:4559  listedItem.seller */\n      0x20\n      add\n      mload\n        /* \"S7/marketplace.sol\":4561:4571  msg.sender */\n      caller\n        /* \"S7/marketplace.sol\":4573:4580  tokenId */\n      dup8\n        /* \"S7/marketplace.sol\":4504:4581  IERC721(nftContract).safeTransferFrom(listedItem.seller, msg.sender, tokenId) */\n      mload(0x40)\n      dup5\n      0xffffffff\n      and\n      0xe0\n      shl\n      dup2\n      mstore\n      0x04\n      add\n      tag_147\n      swap4\n      swap3\n      swap2\n      swap1\n      tag_63\n      jump\t// in\n    tag_147:\n      0x00\n      mload(0x40)\n      dup1\n      dup4\n      sub\n      dup2\n      0x00\n      dup8\n      dup1\n      extcodesize\n      iszero\n      dup1\n      iszero\n      tag_148\n      jumpi\n      0x00\n      dup1\n      revert\n    tag_148:\n      pop\n      gas\n      call\n      iszero\n      dup1\n      iszero\n      tag_150\n      jumpi\n      returndatasize\n      0x00\n      dup1\n      returndatacopy\n      revert(0x00, returndatasize)\n    tag_150:\n      pop\n      pop\n      pop\n      pop\n        /* \"S7/marketplace.sol\":4645:4655  msg.sender */\n      caller\n        /* \"S7/marketplace.sol\":4597:4656  NFTSold(nftContract, tokenId, listedItem.price, msg.sender) */\n      0xffffffffffffffffffffffffffffffffffffffff\n      and\n        /* \"S7/marketplace.sol\":4618:4625  tokenId */\n      dup5\n        /* \"S7/marketplace.sol\":4605:4616  nftContract */\n      dup7\n        /* \"S7/marketplace.sol\":4597:4656  NFTSold(nftContract, tokenId, listedItem.price, msg.sender) */\n      0xffffffffffffffffffffffffffffffffffffffff\n      and\n      0x77c3ced349b08a2af4e9d443fb697437c3197b3095d43fcbdc2cdc97b1a60e0c\n        /* \"S7/marketplace.sol\":4627:4637  listedItem */\n      dup5\n        /* \"S7/marketplace.sol\":4627:4643  listedItem.price */\n      0x00\n      add\n      mload\n        /* \"S7/marketplace.sol\":4597:4656  NFTSold(nftContract, tokenId, listedItem.price, msg.sender) */\n      mload(0x40)\n      tag_151\n      swap2\n      swap1\n      tag_74\n      jump\t// in\n    tag_151:\n      mload(0x40)\n      dup1\n      swap2\n      sub\n      swap1\n      log4\n        /* \"S7/marketplace.sol\":4257:4663  {... */\n      pop\n        /* \"@openzeppelin/contracts/security/ReentrancyGuard.sol\":2292:2293  _ */\n      pop\n      pop\n        /* \"@openzeppelin/contracts/security/ReentrancyGuard.sol\":2303:2323  _nonReentrantAfter() */\n      tag_152\n        /* \"@openzeppelin/contracts/security/ReentrancyGuard.sol\":2303:2321  _nonReentrantAfter */\n      tag_153\n        /* \"@openzeppelin/contracts/security/ReentrancyGuard.sol\":2303:2323  _nonReentrantAfter() */\n      jump\t// in\n    tag_152:\n        /* \"S7/marketplace.sol\":4119:4663  function buyNFT(address nftContract, uint256 tokenId) ... */\n      pop\n      pop\n      jump\t// out\n        /* \"S7/marketplace.sol\":632:671  mapping(string => Bid) public groupBids */\n    tag_41:\n      0x02\n      dup2\n      dup1\n      mload\n      0x20\n      dup2\n      add\n      dup3\n      add\n      dup1\n      mload\n      dup5\n      dup3\n      mstore\n      0x20\n      dup4\n      add\n      0x20\n      dup6\n      add\n      keccak256\n      dup2\n      dup4\n      mstore\n      dup1\n      swap6\n      pop\n      pop\n      pop\n      pop\n      pop\n      pop\n      0x00\n      swap2\n      pop\n      swap1\n      pop\n      dup1\n      0x00\n      add\n      sload\n      swap1\n      dup1\n      0x01\n      add\n      0x00\n      swap1\n      sload\n      swap1\n      0x0100\n      exp\n      swap1\n      div\n      0xffffffffffffffffffffffffffffffffffffffff\n      and\n      swap1\n      pop\n      dup3\n      jump\t// out\n        /* \"S7/marketplace.sol\":3781:4077  function cancelListing(address nftContract, uint256 tokenId) ... */\n    tag_46:\n        /* \"S7/marketplace.sol\":3877:3888  nftContract */\n      dup2\n        /* \"S7/marketplace.sol\":3890:3897  tokenId */\n      dup2\n        /* \"S7/marketplace.sol\":3899:3909  msg.sender */\n      caller\n        /* \"S7/marketplace.sol\":1546:1557  IERC721 nft */\n      0x00\n        /* \"S7/marketplace.sol\":1568:1579  nftContract */\n      dup4\n        /* \"S7/marketplace.sol\":1546:1580  IERC721 nft = IERC721(nftContract) */\n      swap1\n      pop\n        /* \"S7/marketplace.sol\":1622:1629  spender */\n      dup2\n        /* \"S7/marketplace.sol\":1598:1629  nft.ownerOf(tokenId) == spender */\n      0xffffffffffffffffffffffffffffffffffffffff\n      and\n        /* \"S7/marketplace.sol\":1598:1601  nft */\n      dup2\n        /* \"S7/marketplace.sol\":1598:1609  nft.ownerOf */\n      0xffffffffffffffffffffffffffffffffffffffff\n      and\n      0x6352211e\n        /* \"S7/marketplace.sol\":1610:1617  tokenId */\n      dup6\n        /* \"S7/marketplace.sol\":1598:1618  nft.ownerOf(tokenId) */\n      mload(0x40)\n      dup3\n      0xffffffff\n      and\n      0xe0\n      shl\n      dup2\n      mstore\n      0x04\n      add\n      tag_155\n      swap2\n      swap1\n      tag_74\n      jump\t// in\n    tag_155:\n      0x20\n      mload(0x40)\n      dup1\n      dup4\n      sub\n      dup2\n      dup7\n      gas\n      staticcall\n      iszero\n      dup1\n      iszero\n      tag_157\n      jumpi\n      returndatasize\n      0x00\n      dup1\n      returndatacopy\n      revert(0x00, returndatasize)\n    tag_157:\n      pop\n      pop\n      pop\n      pop\n      mload(0x40)\n      returndatasize\n      not(0x1f)\n      0x1f\n      dup3\n      add\n      and\n      dup3\n      add\n      dup1\n      0x40\n      mstore\n      pop\n      dup2\n      add\n      swap1\n      tag_158\n      swap2\n      swap1\n      tag_88\n      jump\t// in\n    tag_158:\n        /* \"S7/marketplace.sol\":1598:1629  nft.ownerOf(tokenId) == spender */\n      0xffffffffffffffffffffffffffffffffffffffff\n      and\n      eq\n        /* \"S7/marketplace.sol\":1590:1658  require(nft.ownerOf(tokenId) == spender, \"Not the owner of the NFT\") */\n      tag_159\n      jumpi\n      mload(0x40)\n      0x08c379a000000000000000000000000000000000000000000000000000000000\n      dup2\n      mstore\n      0x04\n      add\n      tag_160\n      swap1\n      tag_91\n      jump\t// in\n    tag_160:\n      mload(0x40)\n      dup1\n      swap2\n      sub\n      swap1\n      revert\n    tag_159:\n        /* \"S7/marketplace.sol\":3929:3940  nftContract */\n      dup6\n        /* \"S7/marketplace.sol\":3942:3949  tokenId */\n      dup6\n        /* \"S7/marketplace.sol\":1961:1962  0 */\n      0x00\n        /* \"S7/marketplace.sol\":1922:1930  listings */\n      0x01\n        /* \"S7/marketplace.sol\":1922:1943  listings[nftContract] */\n      0x00\n        /* \"S7/marketplace.sol\":1931:1942  nftContract */\n      dup5\n        /* \"S7/marketplace.sol\":1922:1943  listings[nftContract] */\n      0xffffffffffffffffffffffffffffffffffffffff\n      and\n      0xffffffffffffffffffffffffffffffffffffffff\n      and\n      dup2\n      mstore\n      0x20\n      add\n      swap1\n      dup2\n      mstore\n      0x20\n      add\n      0x00\n      keccak256\n        /* \"S7/marketplace.sol\":1922:1952  listings[nftContract][tokenId] */\n      0x00\n        /* \"S7/marketplace.sol\":1944:1951  tokenId */\n      dup4\n        /* \"S7/marketplace.sol\":1922:1952  listings[nftContract][tokenId] */\n      dup2\n      mstore\n      0x20\n      add\n      swap1\n      dup2\n      mstore\n      0x20\n      add\n      0x00\n      keccak256\n        /* \"S7/marketplace.sol\":1922:1958  listings[nftContract][tokenId].price */\n      0x00\n      add\n      sload\n        /* \"S7/marketplace.sol\":1922:1962  listings[nftContract][tokenId].price > 0 */\n      gt\n        /* \"S7/marketplace.sol\":1914:1984  require(listings[nftContract][tokenId].price > 0, \"NFT is not listed\") */\n      tag_162\n      jumpi\n      mload(0x40)\n      0x08c379a000000000000000000000000000000000000000000000000000000000\n      dup2\n      mstore\n      0x04\n      add\n      tag_163\n      swap1\n      tag_133\n      jump\t// in\n    tag_163:\n      mload(0x40)\n      dup1\n      swap2\n      sub\n      swap1\n      revert\n    tag_162:\n        /* \"S7/marketplace.sol\":3972:3980  listings */\n      0x01\n        /* \"S7/marketplace.sol\":3972:3993  listings[nftContract] */\n      0x00\n        /* \"S7/marketplace.sol\":3981:3992  nftContract */\n      dup10\n        /* \"S7/marketplace.sol\":3972:3993  listings[nftContract] */\n      0xffffffffffffffffffffffffffffffffffffffff\n      and\n      0xffffffffffffffffffffffffffffffffffffffff\n      and\n      dup2\n      mstore\n      0x20\n      add\n      swap1\n      dup2\n      mstore\n      0x20\n      add\n      0x00\n      keccak256\n        /* \"S7/marketplace.sol\":3972:4002  listings[nftContract][tokenId] */\n      0x00\n        /* \"S7/marketplace.sol\":3994:4001  tokenId */\n      dup9\n        /* \"S7/marketplace.sol\":3972:4002  listings[nftContract][tokenId] */\n      dup2\n      mstore\n      0x20\n      add\n      swap1\n      dup2\n      mstore\n      0x20\n      add\n      0x00\n      keccak256\n      0x00\n        /* \"S7/marketplace.sol\":3965:4002  delete listings[nftContract][tokenId] */\n      dup1\n      dup3\n      add\n      0x00\n      swap1\n      sstore\n      0x01\n      dup3\n      add\n      exp(0x0100, 0x00)\n      dup2\n      sload\n      swap1\n      0xffffffffffffffffffffffffffffffffffffffff\n      mul\n      not\n      and\n      swap1\n      sstore\n      0x02\n      dup3\n      add\n      0x00\n      tag_165\n      swap2\n      swap1\n      tag_115\n      jump\t// in\n    tag_165:\n      pop\n      pop\n        /* \"S7/marketplace.sol\":4059:4069  msg.sender */\n      caller\n        /* \"S7/marketplace.sol\":4017:4070  NFTListingCancelled(nftContract, tokenId, msg.sender) */\n      0xffffffffffffffffffffffffffffffffffffffff\n      and\n        /* \"S7/marketplace.sol\":4050:4057  tokenId */\n      dup8\n        /* \"S7/marketplace.sol\":4037:4048  nftContract */\n      dup10\n        /* \"S7/marketplace.sol\":4017:4070  NFTListingCancelled(nftContract, tokenId, msg.sender) */\n      0xffffffffffffffffffffffffffffffffffffffff\n      and\n      0x83614a26fd4398c876bd6684c0d04cf2e84ee7e4bc24e8d8888ab0e724bac032\n      mload(0x40)\n      mload(0x40)\n      dup1\n      swap2\n      sub\n      swap1\n      log4\n        /* \"S7/marketplace.sol\":1668:1669  _ */\n      pop\n      pop\n        /* \"S7/marketplace.sol\":1536:1676  {... */\n      pop\n        /* \"S7/marketplace.sol\":3781:4077  function cancelListing(address nftContract, uint256 tokenId) ... */\n      pop\n      pop\n      pop\n      pop\n      pop\n      jump\t// out\n        /* \"@openzeppelin/contracts/security/ReentrancyGuard.sol\":2336:2623  function _nonReentrantBefore() private {... */\n    tag_129:\n        /* \"@openzeppelin/contracts/security/ReentrancyGuard.sol\":1759:1760  2 */\n      0x02\n        /* \"@openzeppelin/contracts/security/ReentrancyGuard.sol\":2468:2475  _status */\n      sload(0x00)\n        /* \"@openzeppelin/contracts/security/ReentrancyGuard.sol\":2468:2487  _status != _ENTERED */\n      sub\n        /* \"@openzeppelin/contracts/security/ReentrancyGuard.sol\":2460:2523  require(_status != _ENTERED, \"ReentrancyGuard: reentrant call\") */\n      tag_167\n      jumpi\n      mload(0x40)\n      0x08c379a000000000000000000000000000000000000000000000000000000000\n      dup2\n      mstore\n      0x04\n      add\n      tag_168\n      swap1\n      tag_169\n      jump\t// in\n    tag_168:\n      mload(0x40)\n      dup1\n      swap2\n      sub\n      swap1\n      revert\n    tag_167:\n        /* \"@openzeppelin/contracts/security/ReentrancyGuard.sol\":1759:1760  2 */\n      0x02\n        /* \"@openzeppelin/contracts/security/ReentrancyGuard.sol\":2598:2605  _status */\n      0x00\n        /* \"@openzeppelin/contracts/security/ReentrancyGuard.sol\":2598:2616  _status = _ENTERED */\n      dup2\n      swap1\n      sstore\n      pop\n        /* \"@openzeppelin/contracts/security/ReentrancyGuard.sol\":2336:2623  function _nonReentrantBefore() private {... */\n      jump\t// out\n        /* \"@openzeppelin/contracts/security/ReentrancyGuard.sol\":2629:2838  function _nonReentrantAfter() private {... */\n    tag_153:\n        /* \"@openzeppelin/contracts/security/ReentrancyGuard.sol\":1716:1717  1 */\n      0x01\n        /* \"@openzeppelin/contracts/security/ReentrancyGuard.sol\":2809:2816  _status */\n      0x00\n        /* \"@openzeppelin/contracts/security/ReentrancyGuard.sol\":2809:2831  _status = _NOT_ENTERED */\n      dup2\n      swap1\n      sstore\n      pop\n        /* \"@openzeppelin/contracts/security/ReentrancyGuard.sol\":2629:2838  function _nonReentrantAfter() private {... */\n      jump\t// out\n    tag_76:\n      mload(0x40)\n      dup1\n      0x60\n      add\n      0x40\n      mstore\n      dup1\n      0x00\n      dup2\n      mstore\n      0x20\n      add\n      and(0xffffffffffffffffffffffffffffffffffffffff, 0x00)\n      dup2\n      mstore\n      0x20\n      add\n      0x60\n      dup2\n      mstore\n      pop\n      swap1\n      jump\t// out\n    tag_115:\n      pop\n      dup1\n      sload\n      tag_171\n      swap1\n      tag_48\n      jump\t// in\n    tag_171:\n      0x00\n      dup3\n      sstore\n      dup1\n      0x1f\n      lt\n      tag_173\n      jumpi\n      pop\n      jump(tag_172)\n    tag_173:\n      0x1f\n      add\n      0x20\n      swap1\n      div\n      swap1\n      0x00\n      mstore\n      keccak256(0x00, 0x20)\n      swap1\n      dup2\n      add\n      swap1\n      tag_174\n      swap2\n      swap1\n      tag_175\n      jump\t// in\n    tag_174:\n    tag_172:\n      pop\n      jump\t// out\n    tag_175:\n    tag_176:\n      dup1\n      dup3\n      gt\n      iszero\n      tag_177\n      jumpi\n      0x00\n      dup2\n      0x00\n      swap1\n      sstore\n      pop\n      0x01\n      add\n      jump(tag_176)\n    tag_177:\n      pop\n      swap1\n      jump\t// out\n        /* \"#utility.yul\":7:82   */\n    tag_178:\n        /* \"#utility.yul\":40:46   */\n      0x00\n        /* \"#utility.yul\":73:75   */\n      0x40\n        /* \"#utility.yul\":67:76   */\n      mload\n        /* \"#utility.yul\":57:76   */\n      swap1\n      pop\n        /* \"#utility.yul\":7:82   */\n      swap1\n      jump\t// out\n        /* \"#utility.yul\":88:205   */\n    tag_179:\n        /* \"#utility.yul\":197:198   */\n      0x00\n        /* \"#utility.yul\":194:195   */\n      dup1\n        /* \"#utility.yul\":187:199   */\n      revert\n        /* \"#utility.yul\":211:328   */\n    tag_180:\n        /* \"#utility.yul\":320:321   */\n      0x00\n        /* \"#utility.yul\":317:318   */\n      dup1\n        /* \"#utility.yul\":310:322   */\n      revert\n        /* \"#utility.yul\":334:460   */\n    tag_181:\n        /* \"#utility.yul\":371:378   */\n      0x00\n        /* \"#utility.yul\":411:453   */\n      0xffffffffffffffffffffffffffffffffffffffff\n        /* \"#utility.yul\":404:409   */\n      dup3\n        /* \"#utility.yul\":400:454   */\n      and\n        /* \"#utility.yul\":389:454   */\n      swap1\n      pop\n        /* \"#utility.yul\":334:460   */\n      swap2\n      swap1\n      pop\n      jump\t// out\n        /* \"#utility.yul\":466:562   */\n    tag_182:\n        /* \"#utility.yul\":503:510   */\n      0x00\n        /* \"#utility.yul\":532:556   */\n      tag_257\n        /* \"#utility.yul\":550:555   */\n      dup3\n        /* \"#utility.yul\":532:556   */\n      tag_181\n      jump\t// in\n    tag_257:\n        /* \"#utility.yul\":521:556   */\n      swap1\n      pop\n        /* \"#utility.yul\":466:562   */\n      swap2\n      swap1\n      pop\n      jump\t// out\n        /* \"#utility.yul\":568:690   */\n    tag_183:\n        /* \"#utility.yul\":641:665   */\n      tag_259\n        /* \"#utility.yul\":659:664   */\n      dup2\n        /* \"#utility.yul\":641:665   */\n      tag_182\n      jump\t// in\n    tag_259:\n        /* \"#utility.yul\":634:639   */\n      dup2\n        /* \"#utility.yul\":631:666   */\n      eq\n        /* \"#utility.yul\":621:684   */\n      tag_260\n      jumpi\n        /* \"#utility.yul\":680:681   */\n      0x00\n        /* \"#utility.yul\":677:678   */\n      dup1\n        /* \"#utility.yul\":670:682   */\n      revert\n        /* \"#utility.yul\":621:684   */\n    tag_260:\n        /* \"#utility.yul\":568:690   */\n      pop\n      jump\t// out\n        /* \"#utility.yul\":696:835   */\n    tag_184:\n        /* \"#utility.yul\":742:747   */\n      0x00\n        /* \"#utility.yul\":780:786   */\n      dup2\n        /* \"#utility.yul\":767:787   */\n      calldataload\n        /* \"#utility.yul\":758:787   */\n      swap1\n      pop\n        /* \"#utility.yul\":796:829   */\n      tag_262\n        /* \"#utility.yul\":823:828   */\n      dup2\n        /* \"#utility.yul\":796:829   */\n      tag_183\n      jump\t// in\n    tag_262:\n        /* \"#utility.yul\":696:835   */\n      swap3\n      swap2\n      pop\n      pop\n      jump\t// out\n        /* \"#utility.yul\":841:918   */\n    tag_185:\n        /* \"#utility.yul\":878:885   */\n      0x00\n        /* \"#utility.yul\":907:912   */\n      dup2\n        /* \"#utility.yul\":896:912   */\n      swap1\n      pop\n        /* \"#utility.yul\":841:918   */\n      swap2\n      swap1\n      pop\n      jump\t// out\n        /* \"#utility.yul\":924:1046   */\n    tag_186:\n        /* \"#utility.yul\":997:1021   */\n      tag_265\n        /* \"#utility.yul\":1015:1020   */\n      dup2\n        /* \"#utility.yul\":997:1021   */\n      tag_185\n      jump\t// in\n    tag_265:\n        /* \"#utility.yul\":990:995   */\n      dup2\n        /* \"#utility.yul\":987:1022   */\n      eq\n        /* \"#utility.yul\":977:1040   */\n      tag_266\n      jumpi\n        /* \"#utility.yul\":1036:1037   */\n      0x00\n        /* \"#utility.yul\":1033:1034   */\n      dup1\n        /* \"#utility.yul\":1026:1038   */\n      revert\n        /* \"#utility.yul\":977:1040   */\n    tag_266:\n        /* \"#utility.yul\":924:1046   */\n      pop\n      jump\t// out\n        /* \"#utility.yul\":1052:1191   */\n    tag_187:\n        /* \"#utility.yul\":1098:1103   */\n      0x00\n        /* \"#utility.yul\":1136:1142   */\n      dup2\n        /* \"#utility.yul\":1123:1143   */\n      calldataload\n        /* \"#utility.yul\":1114:1143   */\n      swap1\n      pop\n        /* \"#utility.yul\":1152:1185   */\n      tag_268\n        /* \"#utility.yul\":1179:1184   */\n      dup2\n        /* \"#utility.yul\":1152:1185   */\n      tag_186\n      jump\t// in\n    tag_268:\n        /* \"#utility.yul\":1052:1191   */\n      swap3\n      swap2\n      pop\n      pop\n      jump\t// out\n        /* \"#utility.yul\":1197:1671   */\n    tag_14:\n        /* \"#utility.yul\":1265:1271   */\n      0x00\n        /* \"#utility.yul\":1273:1279   */\n      dup1\n        /* \"#utility.yul\":1322:1324   */\n      0x40\n        /* \"#utility.yul\":1310:1319   */\n      dup4\n        /* \"#utility.yul\":1301:1308   */\n      dup6\n        /* \"#utility.yul\":1297:1320   */\n      sub\n        /* \"#utility.yul\":1293:1325   */\n      slt\n        /* \"#utility.yul\":1290:1409   */\n      iszero\n      tag_270\n      jumpi\n        /* \"#utility.yul\":1328:1407   */\n      tag_271\n      tag_179\n      jump\t// in\n    tag_271:\n        /* \"#utility.yul\":1290:1409   */\n    tag_270:\n        /* \"#utility.yul\":1448:1449   */\n      0x00\n        /* \"#utility.yul\":1473:1526   */\n      tag_272\n        /* \"#utility.yul\":1518:1525   */\n      dup6\n        /* \"#utility.yul\":1509:1515   */\n      dup3\n        /* \"#utility.yul\":1498:1507   */\n      dup7\n        /* \"#utility.yul\":1494:1516   */\n      add\n        /* \"#utility.yul\":1473:1526   */\n      tag_184\n      jump\t// in\n    tag_272:\n        /* \"#utility.yul\":1463:1526   */\n      swap3\n      pop\n        /* \"#utility.yul\":1419:1536   */\n      pop\n        /* \"#utility.yul\":1575:1577   */\n      0x20\n        /* \"#utility.yul\":1601:1654   */\n      tag_273\n        /* \"#utility.yul\":1646:1653   */\n      dup6\n        /* \"#utility.yul\":1637:1643   */\n      dup3\n        /* \"#utility.yul\":1626:1635   */\n      dup7\n        /* \"#utility.yul\":1622:1644   */\n      add\n        /* \"#utility.yul\":1601:1654   */\n      tag_187\n      jump\t// in\n    tag_273:\n        /* \"#utility.yul\":1591:1654   */\n      swap2\n      pop\n        /* \"#utility.yul\":1546:1664   */\n      pop\n        /* \"#utility.yul\":1197:1671   */\n      swap3\n      pop\n      swap3\n      swap1\n      pop\n      jump\t// out\n        /* \"#utility.yul\":1677:1795   */\n    tag_188:\n        /* \"#utility.yul\":1764:1788   */\n      tag_275\n        /* \"#utility.yul\":1782:1787   */\n      dup2\n        /* \"#utility.yul\":1764:1788   */\n      tag_185\n      jump\t// in\n    tag_275:\n        /* \"#utility.yul\":1759:1762   */\n      dup3\n        /* \"#utility.yul\":1752:1789   */\n      mstore\n        /* \"#utility.yul\":1677:1795   */\n      pop\n      pop\n      jump\t// out\n        /* \"#utility.yul\":1801:1919   */\n    tag_189:\n        /* \"#utility.yul\":1888:1912   */\n      tag_277\n        /* \"#utility.yul\":1906:1911   */\n      dup2\n        /* \"#utility.yul\":1888:1912   */\n      tag_182\n      jump\t// in\n    tag_277:\n        /* \"#utility.yul\":1883:1886   */\n      dup3\n        /* \"#utility.yul\":1876:1913   */\n      mstore\n        /* \"#utility.yul\":1801:1919   */\n      pop\n      pop\n      jump\t// out\n        /* \"#utility.yul\":1925:2024   */\n    tag_190:\n        /* \"#utility.yul\":1977:1983   */\n      0x00\n        /* \"#utility.yul\":2011:2016   */\n      dup2\n        /* \"#utility.yul\":2005:2017   */\n      mload\n        /* \"#utility.yul\":1995:2017   */\n      swap1\n      pop\n        /* \"#utility.yul\":1925:2024   */\n      swap2\n      swap1\n      pop\n      jump\t// out\n        /* \"#utility.yul\":2030:2199   */\n    tag_191:\n        /* \"#utility.yul\":2114:2125   */\n      0x00\n        /* \"#utility.yul\":2148:2154   */\n      dup3\n        /* \"#utility.yul\":2143:2146   */\n      dup3\n        /* \"#utility.yul\":2136:2155   */\n      mstore\n        /* \"#utility.yul\":2188:2192   */\n      0x20\n        /* \"#utility.yul\":2183:2186   */\n      dup3\n        /* \"#utility.yul\":2179:2193   */\n      add\n        /* \"#utility.yul\":2164:2193   */\n      swap1\n      pop\n        /* \"#utility.yul\":2030:2199   */\n      swap3\n      swap2\n      pop\n      pop\n      jump\t// out\n        /* \"#utility.yul\":2205:2344   */\n    tag_192:\n        /* \"#utility.yul\":2294:2300   */\n      dup3\n        /* \"#utility.yul\":2289:2292   */\n      dup2\n        /* \"#utility.yul\":2284:2287   */\n      dup4\n        /* \"#utility.yul\":2278:2301   */\n      mcopy\n        /* \"#utility.yul\":2335:2336   */\n      0x00\n        /* \"#utility.yul\":2326:2332   */\n      dup4\n        /* \"#utility.yul\":2321:2324   */\n      dup4\n        /* \"#utility.yul\":2317:2333   */\n      add\n        /* \"#utility.yul\":2310:2337   */\n      mstore\n        /* \"#utility.yul\":2205:2344   */\n      pop\n      pop\n      pop\n      jump\t// out\n        /* \"#utility.yul\":2350:2452   */\n    tag_193:\n        /* \"#utility.yul\":2391:2397   */\n      0x00\n        /* \"#utility.yul\":2442:2444   */\n      0x1f\n        /* \"#utility.yul\":2438:2445   */\n      not\n        /* \"#utility.yul\":2433:2435   */\n      0x1f\n        /* \"#utility.yul\":2426:2431   */\n      dup4\n        /* \"#utility.yul\":2422:2436   */\n      add\n        /* \"#utility.yul\":2418:2446   */\n      and\n        /* \"#utility.yul\":2408:2446   */\n      swap1\n      pop\n        /* \"#utility.yul\":2350:2452   */\n      swap2\n      swap1\n      pop\n      jump\t// out\n        /* \"#utility.yul\":2458:2835   */\n    tag_194:\n        /* \"#utility.yul\":2546:2549   */\n      0x00\n        /* \"#utility.yul\":2574:2613   */\n      tag_283\n        /* \"#utility.yul\":2607:2612   */\n      dup3\n        /* \"#utility.yul\":2574:2613   */\n      tag_190\n      jump\t// in\n    tag_283:\n        /* \"#utility.yul\":2629:2700   */\n      tag_284\n        /* \"#utility.yul\":2693:2699   */\n      dup2\n        /* \"#utility.yul\":2688:2691   */\n      dup6\n        /* \"#utility.yul\":2629:2700   */\n      tag_191\n      jump\t// in\n    tag_284:\n        /* \"#utility.yul\":2622:2700   */\n      swap4\n      pop\n        /* \"#utility.yul\":2709:2774   */\n      tag_285\n        /* \"#utility.yul\":2767:2773   */\n      dup2\n        /* \"#utility.yul\":2762:2765   */\n      dup6\n        /* \"#utility.yul\":2755:2759   */\n      0x20\n        /* \"#utility.yul\":2748:2753   */\n      dup7\n        /* \"#utility.yul\":2744:2760   */\n      add\n        /* \"#utility.yul\":2709:2774   */\n      tag_192\n      jump\t// in\n    tag_285:\n        /* \"#utility.yul\":2799:2828   */\n      tag_286\n        /* \"#utility.yul\":2821:2827   */\n      dup2\n        /* \"#utility.yul\":2799:2828   */\n      tag_193\n      jump\t// in\n    tag_286:\n        /* \"#utility.yul\":2794:2797   */\n      dup5\n        /* \"#utility.yul\":2790:2829   */\n      add\n        /* \"#utility.yul\":2783:2829   */\n      swap2\n      pop\n        /* \"#utility.yul\":2550:2835   */\n      pop\n        /* \"#utility.yul\":2458:2835   */\n      swap3\n      swap2\n      pop\n      pop\n      jump\t// out\n        /* \"#utility.yul\":2841:3374   */\n    tag_17:\n        /* \"#utility.yul\":3010:3014   */\n      0x00\n        /* \"#utility.yul\":3048:3050   */\n      0x60\n        /* \"#utility.yul\":3037:3046   */\n      dup3\n        /* \"#utility.yul\":3033:3051   */\n      add\n        /* \"#utility.yul\":3025:3051   */\n      swap1\n      pop\n        /* \"#utility.yul\":3061:3132   */\n      tag_288\n        /* \"#utility.yul\":3129:3130   */\n      0x00\n        /* \"#utility.yul\":3118:3127   */\n      dup4\n        /* \"#utility.yul\":3114:3131   */\n      add\n        /* \"#utility.yul\":3105:3111   */\n      dup7\n        /* \"#utility.yul\":3061:3132   */\n      tag_188\n      jump\t// in\n    tag_288:\n        /* \"#utility.yul\":3142:3214   */\n      tag_289\n        /* \"#utility.yul\":3210:3212   */\n      0x20\n        /* \"#utility.yul\":3199:3208   */\n      dup4\n        /* \"#utility.yul\":3195:3213   */\n      add\n        /* \"#utility.yul\":3186:3192   */\n      dup6\n        /* \"#utility.yul\":3142:3214   */\n      tag_189\n      jump\t// in\n    tag_289:\n        /* \"#utility.yul\":3261:3270   */\n      dup2\n        /* \"#utility.yul\":3255:3259   */\n      dup2\n        /* \"#utility.yul\":3251:3271   */\n      sub\n        /* \"#utility.yul\":3246:3248   */\n      0x40\n        /* \"#utility.yul\":3235:3244   */\n      dup4\n        /* \"#utility.yul\":3231:3249   */\n      add\n        /* \"#utility.yul\":3224:3272   */\n      mstore\n        /* \"#utility.yul\":3289:3367   */\n      tag_290\n        /* \"#utility.yul\":3362:3366   */\n      dup2\n        /* \"#utility.yul\":3353:3359   */\n      dup5\n        /* \"#utility.yul\":3289:3367   */\n      tag_194\n      jump\t// in\n    tag_290:\n        /* \"#utility.yul\":3281:3367   */\n      swap1\n      pop\n        /* \"#utility.yul\":2841:3374   */\n      swap5\n      swap4\n      pop\n      pop\n      pop\n      pop\n      jump\t// out\n        /* \"#utility.yul\":3380:3440   */\n    tag_195:\n        /* \"#utility.yul\":3408:3411   */\n      0x00\n        /* \"#utility.yul\":3429:3434   */\n      dup2\n        /* \"#utility.yul\":3422:3434   */\n      swap1\n      pop\n        /* \"#utility.yul\":3380:3440   */\n      swap2\n      swap1\n      pop\n      jump\t// out\n        /* \"#utility.yul\":3446:3588   */\n    tag_196:\n        /* \"#utility.yul\":3496:3505   */\n      0x00\n        /* \"#utility.yul\":3529:3582   */\n      tag_293\n        /* \"#utility.yul\":3547:3581   */\n      tag_294\n        /* \"#utility.yul\":3556:3580   */\n      tag_295\n        /* \"#utility.yul\":3574:3579   */\n      dup5\n        /* \"#utility.yul\":3556:3580   */\n      tag_181\n      jump\t// in\n    tag_295:\n        /* \"#utility.yul\":3547:3581   */\n      tag_195\n      jump\t// in\n    tag_294:\n        /* \"#utility.yul\":3529:3582   */\n      tag_181\n      jump\t// in\n    tag_293:\n        /* \"#utility.yul\":3516:3582   */\n      swap1\n      pop\n        /* \"#utility.yul\":3446:3588   */\n      swap2\n      swap1\n      pop\n      jump\t// out\n        /* \"#utility.yul\":3594:3720   */\n    tag_197:\n        /* \"#utility.yul\":3644:3653   */\n      0x00\n        /* \"#utility.yul\":3677:3714   */\n      tag_297\n        /* \"#utility.yul\":3708:3713   */\n      dup3\n        /* \"#utility.yul\":3677:3714   */\n      tag_196\n      jump\t// in\n    tag_297:\n        /* \"#utility.yul\":3664:3714   */\n      swap1\n      pop\n        /* \"#utility.yul\":3594:3720   */\n      swap2\n      swap1\n      pop\n      jump\t// out\n        /* \"#utility.yul\":3726:3866   */\n    tag_198:\n        /* \"#utility.yul\":3790:3799   */\n      0x00\n        /* \"#utility.yul\":3823:3860   */\n      tag_299\n        /* \"#utility.yul\":3854:3859   */\n      dup3\n        /* \"#utility.yul\":3823:3860   */\n      tag_197\n      jump\t// in\n    tag_299:\n        /* \"#utility.yul\":3810:3860   */\n      swap1\n      pop\n        /* \"#utility.yul\":3726:3866   */\n      swap2\n      swap1\n      pop\n      jump\t// out\n        /* \"#utility.yul\":3872:4031   */\n    tag_199:\n        /* \"#utility.yul\":3973:4024   */\n      tag_301\n        /* \"#utility.yul\":4018:4023   */\n      dup2\n        /* \"#utility.yul\":3973:4024   */\n      tag_198\n      jump\t// in\n    tag_301:\n        /* \"#utility.yul\":3968:3971   */\n      dup3\n        /* \"#utility.yul\":3961:4025   */\n      mstore\n        /* \"#utility.yul\":3872:4031   */\n      pop\n      pop\n      jump\t// out\n        /* \"#utility.yul\":4037:4287   */\n    tag_21:\n        /* \"#utility.yul\":4144:4148   */\n      0x00\n        /* \"#utility.yul\":4182:4184   */\n      0x20\n        /* \"#utility.yul\":4171:4180   */\n      dup3\n        /* \"#utility.yul\":4167:4185   */\n      add\n        /* \"#utility.yul\":4159:4185   */\n      swap1\n      pop\n        /* \"#utility.yul\":4195:4280   */\n      tag_303\n        /* \"#utility.yul\":4277:4278   */\n      0x00\n        /* \"#utility.yul\":4266:4275   */\n      dup4\n        /* \"#utility.yul\":4262:4279   */\n      add\n        /* \"#utility.yul\":4253:4259   */\n      dup5\n        /* \"#utility.yul\":4195:4280   */\n      tag_199\n      jump\t// in\n    tag_303:\n        /* \"#utility.yul\":4037:4287   */\n      swap3\n      swap2\n      pop\n      pop\n      jump\t// out\n        /* \"#utility.yul\":4293:4410   */\n    tag_200:\n        /* \"#utility.yul\":4402:4403   */\n      0x00\n        /* \"#utility.yul\":4399:4400   */\n      dup1\n        /* \"#utility.yul\":4392:4404   */\n      revert\n        /* \"#utility.yul\":4416:4533   */\n    tag_201:\n        /* \"#utility.yul\":4525:4526   */\n      0x00\n        /* \"#utility.yul\":4522:4523   */\n      dup1\n        /* \"#utility.yul\":4515:4527   */\n      revert\n        /* \"#utility.yul\":4539:4719   */\n    tag_202:\n        /* \"#utility.yul\":4587:4664   */\n      0x4e487b7100000000000000000000000000000000000000000000000000000000\n        /* \"#utility.yul\":4584:4585   */\n      0x00\n        /* \"#utility.yul\":4577:4665   */\n      mstore\n        /* \"#utility.yul\":4684:4688   */\n      0x41\n        /* \"#utility.yul\":4681:4682   */\n      0x04\n        /* \"#utility.yul\":4674:4689   */\n      mstore\n        /* \"#utility.yul\":4708:4712   */\n      0x24\n        /* \"#utility.yul\":4705:4706   */\n      0x00\n        /* \"#utility.yul\":4698:4713   */\n      revert\n        /* \"#utility.yul\":4725:5006   */\n    tag_203:\n        /* \"#utility.yul\":4808:4835   */\n      tag_308\n        /* \"#utility.yul\":4830:4834   */\n      dup3\n        /* \"#utility.yul\":4808:4835   */\n      tag_193\n      jump\t// in\n    tag_308:\n        /* \"#utility.yul\":4800:4806   */\n      dup2\n        /* \"#utility.yul\":4796:4836   */\n      add\n        /* \"#utility.yul\":4938:4944   */\n      dup2\n        /* \"#utility.yul\":4926:4936   */\n      dup2\n        /* \"#utility.yul\":4923:4945   */\n      lt\n        /* \"#utility.yul\":4902:4920   */\n      0xffffffffffffffff\n        /* \"#utility.yul\":4890:4900   */\n      dup3\n        /* \"#utility.yul\":4887:4921   */\n      gt\n        /* \"#utility.yul\":4884:4946   */\n      or\n        /* \"#utility.yul\":4881:4969   */\n      iszero\n      tag_309\n      jumpi\n        /* \"#utility.yul\":4949:4967   */\n      tag_310\n      tag_202\n      jump\t// in\n    tag_310:\n        /* \"#utility.yul\":4881:4969   */\n    tag_309:\n        /* \"#utility.yul\":4989:4999   */\n      dup1\n        /* \"#utility.yul\":4985:4987   */\n      0x40\n        /* \"#utility.yul\":4978:5000   */\n      mstore\n        /* \"#utility.yul\":4768:5006   */\n      pop\n        /* \"#utility.yul\":4725:5006   */\n      pop\n      pop\n      jump\t// out\n        /* \"#utility.yul\":5012:5141   */\n    tag_204:\n        /* \"#utility.yul\":5046:5052   */\n      0x00\n        /* \"#utility.yul\":5073:5093   */\n      tag_312\n      tag_178\n      jump\t// in\n    tag_312:\n        /* \"#utility.yul\":5063:5093   */\n      swap1\n      pop\n        /* \"#utility.yul\":5102:5135   */\n      tag_313\n        /* \"#utility.yul\":5130:5134   */\n      dup3\n        /* \"#utility.yul\":5122:5128   */\n      dup3\n        /* \"#utility.yul\":5102:5135   */\n      tag_203\n      jump\t// in\n    tag_313:\n        /* \"#utility.yul\":5012:5141   */\n      swap2\n      swap1\n      pop\n      jump\t// out\n        /* \"#utility.yul\":5147:5455   */\n    tag_205:\n        /* \"#utility.yul\":5209:5213   */\n      0x00\n        /* \"#utility.yul\":5299:5317   */\n      0xffffffffffffffff\n        /* \"#utility.yul\":5291:5297   */\n      dup3\n        /* \"#utility.yul\":5288:5318   */\n      gt\n        /* \"#utility.yul\":5285:5341   */\n      iszero\n      tag_315\n      jumpi\n        /* \"#utility.yul\":5321:5339   */\n      tag_316\n      tag_202\n      jump\t// in\n    tag_316:\n        /* \"#utility.yul\":5285:5341   */\n    tag_315:\n        /* \"#utility.yul\":5359:5388   */\n      tag_317\n        /* \"#utility.yul\":5381:5387   */\n      dup3\n        /* \"#utility.yul\":5359:5388   */\n      tag_193\n      jump\t// in\n    tag_317:\n        /* \"#utility.yul\":5351:5388   */\n      swap1\n      pop\n        /* \"#utility.yul\":5443:5447   */\n      0x20\n        /* \"#utility.yul\":5437:5441   */\n      dup2\n        /* \"#utility.yul\":5433:5448   */\n      add\n        /* \"#utility.yul\":5425:5448   */\n      swap1\n      pop\n        /* \"#utility.yul\":5147:5455   */\n      swap2\n      swap1\n      pop\n      jump\t// out\n        /* \"#utility.yul\":5461:5609   */\n    tag_206:\n        /* \"#utility.yul\":5559:5565   */\n      dup3\n        /* \"#utility.yul\":5554:5557   */\n      dup2\n        /* \"#utility.yul\":5549:5552   */\n      dup4\n        /* \"#utility.yul\":5536:5566   */\n      calldatacopy\n        /* \"#utility.yul\":5600:5601   */\n      0x00\n        /* \"#utility.yul\":5591:5597   */\n      dup4\n        /* \"#utility.yul\":5586:5589   */\n      dup4\n        /* \"#utility.yul\":5582:5598   */\n      add\n        /* \"#utility.yul\":5575:5602   */\n      mstore\n        /* \"#utility.yul\":5461:5609   */\n      pop\n      pop\n      pop\n      jump\t// out\n        /* \"#utility.yul\":5615:6040   */\n    tag_207:\n        /* \"#utility.yul\":5693:5698   */\n      0x00\n        /* \"#utility.yul\":5718:5784   */\n      tag_320\n        /* \"#utility.yul\":5734:5783   */\n      tag_321\n        /* \"#utility.yul\":5776:5782   */\n      dup5\n        /* \"#utility.yul\":5734:5783   */\n      tag_205\n      jump\t// in\n    tag_321:\n        /* \"#utility.yul\":5718:5784   */\n      tag_204\n      jump\t// in\n    tag_320:\n        /* \"#utility.yul\":5709:5784   */\n      swap1\n      pop\n        /* \"#utility.yul\":5807:5813   */\n      dup3\n        /* \"#utility.yul\":5800:5805   */\n      dup2\n        /* \"#utility.yul\":5793:5814   */\n      mstore\n        /* \"#utility.yul\":5845:5849   */\n      0x20\n        /* \"#utility.yul\":5838:5843   */\n      dup2\n        /* \"#utility.yul\":5834:5850   */\n      add\n        /* \"#utility.yul\":5883:5886   */\n      dup5\n        /* \"#utility.yul\":5874:5880   */\n      dup5\n        /* \"#utility.yul\":5869:5872   */\n      dup5\n        /* \"#utility.yul\":5865:5881   */\n      add\n        /* \"#utility.yul\":5862:5887   */\n      gt\n        /* \"#utility.yul\":5859:5971   */\n      iszero\n      tag_322\n      jumpi\n        /* \"#utility.yul\":5890:5969   */\n      tag_323\n      tag_201\n      jump\t// in\n    tag_323:\n        /* \"#utility.yul\":5859:5971   */\n    tag_322:\n        /* \"#utility.yul\":5980:6034   */\n      tag_324\n        /* \"#utility.yul\":6027:6033   */\n      dup5\n        /* \"#utility.yul\":6022:6025   */\n      dup3\n        /* \"#utility.yul\":6017:6020   */\n      dup6\n        /* \"#utility.yul\":5980:6034   */\n      tag_206\n      jump\t// in\n    tag_324:\n        /* \"#utility.yul\":5699:6040   */\n      pop\n        /* \"#utility.yul\":5615:6040   */\n      swap4\n      swap3\n      pop\n      pop\n      pop\n      jump\t// out\n        /* \"#utility.yul\":6060:6400   */\n    tag_208:\n        /* \"#utility.yul\":6116:6121   */\n      0x00\n        /* \"#utility.yul\":6165:6168   */\n      dup3\n        /* \"#utility.yul\":6158:6162   */\n      0x1f\n        /* \"#utility.yul\":6150:6156   */\n      dup4\n        /* \"#utility.yul\":6146:6163   */\n      add\n        /* \"#utility.yul\":6142:6169   */\n      slt\n        /* \"#utility.yul\":6132:6254   */\n      tag_326\n      jumpi\n        /* \"#utility.yul\":6173:6252   */\n      tag_327\n      tag_200\n      jump\t// in\n    tag_327:\n        /* \"#utility.yul\":6132:6254   */\n    tag_326:\n        /* \"#utility.yul\":6290:6296   */\n      dup2\n        /* \"#utility.yul\":6277:6297   */\n      calldataload\n        /* \"#utility.yul\":6315:6394   */\n      tag_328\n        /* \"#utility.yul\":6390:6393   */\n      dup5\n        /* \"#utility.yul\":6382:6388   */\n      dup3\n        /* \"#utility.yul\":6375:6379   */\n      0x20\n        /* \"#utility.yul\":6367:6373   */\n      dup7\n        /* \"#utility.yul\":6363:6380   */\n      add\n        /* \"#utility.yul\":6315:6394   */\n      tag_207\n      jump\t// in\n    tag_328:\n        /* \"#utility.yul\":6306:6394   */\n      swap2\n      pop\n        /* \"#utility.yul\":6122:6400   */\n      pop\n        /* \"#utility.yul\":6060:6400   */\n      swap3\n      swap2\n      pop\n      pop\n      jump\t// out\n        /* \"#utility.yul\":6406:7060   */\n    tag_24:\n        /* \"#utility.yul\":6484:6490   */\n      0x00\n        /* \"#utility.yul\":6492:6498   */\n      dup1\n        /* \"#utility.yul\":6541:6543   */\n      0x40\n        /* \"#utility.yul\":6529:6538   */\n      dup4\n        /* \"#utility.yul\":6520:6527   */\n      dup6\n        /* \"#utility.yul\":6516:6539   */\n      sub\n        /* \"#utility.yul\":6512:6544   */\n      slt\n        /* \"#utility.yul\":6509:6628   */\n      iszero\n      tag_330\n      jumpi\n        /* \"#utility.yul\":6547:6626   */\n      tag_331\n      tag_179\n      jump\t// in\n    tag_331:\n        /* \"#utility.yul\":6509:6628   */\n    tag_330:\n        /* \"#utility.yul\":6695:6696   */\n      0x00\n        /* \"#utility.yul\":6684:6693   */\n      dup4\n        /* \"#utility.yul\":6680:6697   */\n      add\n        /* \"#utility.yul\":6667:6698   */\n      calldataload\n        /* \"#utility.yul\":6725:6743   */\n      0xffffffffffffffff\n        /* \"#utility.yul\":6717:6723   */\n      dup2\n        /* \"#utility.yul\":6714:6744   */\n      gt\n        /* \"#utility.yul\":6711:6828   */\n      iszero\n      tag_332\n      jumpi\n        /* \"#utility.yul\":6747:6826   */\n      tag_333\n      tag_180\n      jump\t// in\n    tag_333:\n        /* \"#utility.yul\":6711:6828   */\n    tag_332:\n        /* \"#utility.yul\":6852:6915   */\n      tag_334\n        /* \"#utility.yul\":6907:6914   */\n      dup6\n        /* \"#utility.yul\":6898:6904   */\n      dup3\n        /* \"#utility.yul\":6887:6896   */\n      dup7\n        /* \"#utility.yul\":6883:6905   */\n      add\n        /* \"#utility.yul\":6852:6915   */\n      tag_208\n      jump\t// in\n    tag_334:\n        /* \"#utility.yul\":6842:6915   */\n      swap3\n      pop\n        /* \"#utility.yul\":6638:6925   */\n      pop\n        /* \"#utility.yul\":6964:6966   */\n      0x20\n        /* \"#utility.yul\":6990:7043   */\n      tag_335\n        /* \"#utility.yul\":7035:7042   */\n      dup6\n        /* \"#utility.yul\":7026:7032   */\n      dup3\n        /* \"#utility.yul\":7015:7024   */\n      dup7\n        /* \"#utility.yul\":7011:7033   */\n      add\n        /* \"#utility.yul\":6990:7043   */\n      tag_187\n      jump\t// in\n    tag_335:\n        /* \"#utility.yul\":6980:7043   */\n      swap2\n      pop\n        /* \"#utility.yul\":6935:7053   */\n      pop\n        /* \"#utility.yul\":6406:7060   */\n      swap3\n      pop\n      swap3\n      swap1\n      pop\n      jump\t// out\n        /* \"#utility.yul\":7066:7174   */\n    tag_209:\n        /* \"#utility.yul\":7143:7167   */\n      tag_337\n        /* \"#utility.yul\":7161:7166   */\n      dup2\n        /* \"#utility.yul\":7143:7167   */\n      tag_185\n      jump\t// in\n    tag_337:\n        /* \"#utility.yul\":7138:7141   */\n      dup3\n        /* \"#utility.yul\":7131:7168   */\n      mstore\n        /* \"#utility.yul\":7066:7174   */\n      pop\n      pop\n      jump\t// out\n        /* \"#utility.yul\":7180:7288   */\n    tag_210:\n        /* \"#utility.yul\":7257:7281   */\n      tag_339\n        /* \"#utility.yul\":7275:7280   */\n      dup2\n        /* \"#utility.yul\":7257:7281   */\n      tag_182\n      jump\t// in\n    tag_339:\n        /* \"#utility.yul\":7252:7255   */\n      dup3\n        /* \"#utility.yul\":7245:7282   */\n      mstore\n        /* \"#utility.yul\":7180:7288   */\n      pop\n      pop\n      jump\t// out\n        /* \"#utility.yul\":7294:7453   */\n    tag_211:\n        /* \"#utility.yul\":7368:7379   */\n      0x00\n        /* \"#utility.yul\":7402:7408   */\n      dup3\n        /* \"#utility.yul\":7397:7400   */\n      dup3\n        /* \"#utility.yul\":7390:7409   */\n      mstore\n        /* \"#utility.yul\":7442:7446   */\n      0x20\n        /* \"#utility.yul\":7437:7440   */\n      dup3\n        /* \"#utility.yul\":7433:7447   */\n      add\n        /* \"#utility.yul\":7418:7447   */\n      swap1\n      pop\n        /* \"#utility.yul\":7294:7453   */\n      swap3\n      swap2\n      pop\n      pop\n      jump\t// out\n        /* \"#utility.yul\":7459:7816   */\n    tag_212:\n        /* \"#utility.yul\":7537:7540   */\n      0x00\n        /* \"#utility.yul\":7565:7604   */\n      tag_342\n        /* \"#utility.yul\":7598:7603   */\n      dup3\n        /* \"#utility.yul\":7565:7604   */\n      tag_190\n      jump\t// in\n    tag_342:\n        /* \"#utility.yul\":7620:7681   */\n      tag_343\n        /* \"#utility.yul\":7674:7680   */\n      dup2\n        /* \"#utility.yul\":7669:7672   */\n      dup6\n        /* \"#utility.yul\":7620:7681   */\n      tag_211\n      jump\t// in\n    tag_343:\n        /* \"#utility.yul\":7613:7681   */\n      swap4\n      pop\n        /* \"#utility.yul\":7690:7755   */\n      tag_344\n        /* \"#utility.yul\":7748:7754   */\n      dup2\n        /* \"#utility.yul\":7743:7746   */\n      dup6\n        /* \"#utility.yul\":7736:7740   */\n      0x20\n        /* \"#utility.yul\":7729:7734   */\n      dup7\n        /* \"#utility.yul\":7725:7741   */\n      add\n        /* \"#utility.yul\":7690:7755   */\n      tag_192\n      jump\t// in\n    tag_344:\n        /* \"#utility.yul\":7780:7809   */\n      tag_345\n        /* \"#utility.yul\":7802:7808   */\n      dup2\n        /* \"#utility.yul\":7780:7809   */\n      tag_193\n      jump\t// in\n    tag_345:\n        /* \"#utility.yul\":7775:7778   */\n      dup5\n        /* \"#utility.yul\":7771:7810   */\n      add\n        /* \"#utility.yul\":7764:7810   */\n      swap2\n      pop\n        /* \"#utility.yul\":7541:7816   */\n      pop\n        /* \"#utility.yul\":7459:7816   */\n      swap3\n      swap2\n      pop\n      pop\n      jump\t// out\n        /* \"#utility.yul\":7910:8692   */\n    tag_213:\n        /* \"#utility.yul\":8027:8030   */\n      0x00\n        /* \"#utility.yul\":8063:8067   */\n      0x60\n        /* \"#utility.yul\":8058:8061   */\n      dup4\n        /* \"#utility.yul\":8054:8068   */\n      add\n        /* \"#utility.yul\":8151:8155   */\n      0x00\n        /* \"#utility.yul\":8144:8149   */\n      dup4\n        /* \"#utility.yul\":8140:8156   */\n      add\n        /* \"#utility.yul\":8134:8157   */\n      mload\n        /* \"#utility.yul\":8170:8233   */\n      tag_347\n        /* \"#utility.yul\":8227:8231   */\n      0x00\n        /* \"#utility.yul\":8222:8225   */\n      dup7\n        /* \"#utility.yul\":8218:8232   */\n      add\n        /* \"#utility.yul\":8204:8216   */\n      dup3\n        /* \"#utility.yul\":8170:8233   */\n      tag_209\n      jump\t// in\n    tag_347:\n        /* \"#utility.yul\":8078:8243   */\n      pop\n        /* \"#utility.yul\":8327:8331   */\n      0x20\n        /* \"#utility.yul\":8320:8325   */\n      dup4\n        /* \"#utility.yul\":8316:8332   */\n      add\n        /* \"#utility.yul\":8310:8333   */\n      mload\n        /* \"#utility.yul\":8346:8409   */\n      tag_348\n        /* \"#utility.yul\":8403:8407   */\n      0x20\n        /* \"#utility.yul\":8398:8401   */\n      dup7\n        /* \"#utility.yul\":8394:8408   */\n      add\n        /* \"#utility.yul\":8380:8392   */\n      dup3\n        /* \"#utility.yul\":8346:8409   */\n      tag_210\n      jump\t// in\n    tag_348:\n        /* \"#utility.yul\":8253:8419   */\n      pop\n        /* \"#utility.yul\":8502:8506   */\n      0x40\n        /* \"#utility.yul\":8495:8500   */\n      dup4\n        /* \"#utility.yul\":8491:8507   */\n      add\n        /* \"#utility.yul\":8485:8508   */\n      mload\n        /* \"#utility.yul\":8555:8558   */\n      dup5\n        /* \"#utility.yul\":8549:8553   */\n      dup3\n        /* \"#utility.yul\":8545:8559   */\n      sub\n        /* \"#utility.yul\":8538:8542   */\n      0x40\n        /* \"#utility.yul\":8533:8536   */\n      dup7\n        /* \"#utility.yul\":8529:8543   */\n      add\n        /* \"#utility.yul\":8522:8560   */\n      mstore\n        /* \"#utility.yul\":8581:8654   */\n      tag_349\n        /* \"#utility.yul\":8649:8653   */\n      dup3\n        /* \"#utility.yul\":8635:8647   */\n      dup3\n        /* \"#utility.yul\":8581:8654   */\n      tag_212\n      jump\t// in\n    tag_349:\n        /* \"#utility.yul\":8573:8654   */\n      swap2\n      pop\n        /* \"#utility.yul\":8429:8665   */\n      pop\n        /* \"#utility.yul\":8682:8686   */\n      dup1\n        /* \"#utility.yul\":8675:8686   */\n      swap2\n      pop\n        /* \"#utility.yul\":8032:8692   */\n      pop\n        /* \"#utility.yul\":7910:8692   */\n      swap3\n      swap2\n      pop\n      pop\n      jump\t// out\n        /* \"#utility.yul\":8698:9067   */\n    tag_30:\n        /* \"#utility.yul\":8839:8843   */\n      0x00\n        /* \"#utility.yul\":8877:8879   */\n      0x20\n        /* \"#utility.yul\":8866:8875   */\n      dup3\n        /* \"#utility.yul\":8862:8880   */\n      add\n        /* \"#utility.yul\":8854:8880   */\n      swap1\n      pop\n        /* \"#utility.yul\":8926:8935   */\n      dup2\n        /* \"#utility.yul\":8920:8924   */\n      dup2\n        /* \"#utility.yul\":8916:8936   */\n      sub\n        /* \"#utility.yul\":8912:8913   */\n      0x00\n        /* \"#utility.yul\":8901:8910   */\n      dup4\n        /* \"#utility.yul\":8897:8914   */\n      add\n        /* \"#utility.yul\":8890:8937   */\n      mstore\n        /* \"#utility.yul\":8954:9060   */\n      tag_351\n        /* \"#utility.yul\":9055:9059   */\n      dup2\n        /* \"#utility.yul\":9046:9052   */\n      dup5\n        /* \"#utility.yul\":8954:9060   */\n      tag_213\n      jump\t// in\n    tag_351:\n        /* \"#utility.yul\":8946:9060   */\n      swap1\n      pop\n        /* \"#utility.yul\":8698:9067   */\n      swap3\n      swap2\n      pop\n      pop\n      jump\t// out\n        /* \"#utility.yul\":9073:10018   */\n    tag_33:\n        /* \"#utility.yul\":9169:9175   */\n      0x00\n        /* \"#utility.yul\":9177:9183   */\n      dup1\n        /* \"#utility.yul\":9185:9191   */\n      0x00\n        /* \"#utility.yul\":9193:9199   */\n      dup1\n        /* \"#utility.yul\":9242:9245   */\n      0x80\n        /* \"#utility.yul\":9230:9239   */\n      dup6\n        /* \"#utility.yul\":9221:9228   */\n      dup8\n        /* \"#utility.yul\":9217:9240   */\n      sub\n        /* \"#utility.yul\":9213:9246   */\n      slt\n        /* \"#utility.yul\":9210:9330   */\n      iszero\n      tag_353\n      jumpi\n        /* \"#utility.yul\":9249:9328   */\n      tag_354\n      tag_179\n      jump\t// in\n    tag_354:\n        /* \"#utility.yul\":9210:9330   */\n    tag_353:\n        /* \"#utility.yul\":9369:9370   */\n      0x00\n        /* \"#utility.yul\":9394:9447   */\n      tag_355\n        /* \"#utility.yul\":9439:9446   */\n      dup8\n        /* \"#utility.yul\":9430:9436   */\n      dup3\n        /* \"#utility.yul\":9419:9428   */\n      dup9\n        /* \"#utility.yul\":9415:9437   */\n      add\n        /* \"#utility.yul\":9394:9447   */\n      tag_184\n      jump\t// in\n    tag_355:\n        /* \"#utility.yul\":9384:9447   */\n      swap5\n      pop\n        /* \"#utility.yul\":9340:9457   */\n      pop\n        /* \"#utility.yul\":9496:9498   */\n      0x20\n        /* \"#utility.yul\":9522:9575   */\n      tag_356\n        /* \"#utility.yul\":9567:9574   */\n      dup8\n        /* \"#utility.yul\":9558:9564   */\n      dup3\n        /* \"#utility.yul\":9547:9556   */\n      dup9\n        /* \"#utility.yul\":9543:9565   */\n      add\n        /* \"#utility.yul\":9522:9575   */\n      tag_187\n      jump\t// in\n    tag_356:\n        /* \"#utility.yul\":9512:9575   */\n      swap4\n      pop\n        /* \"#utility.yul\":9467:9585   */\n      pop\n        /* \"#utility.yul\":9624:9626   */\n      0x40\n        /* \"#utility.yul\":9650:9703   */\n      tag_357\n        /* \"#utility.yul\":9695:9702   */\n      dup8\n        /* \"#utility.yul\":9686:9692   */\n      dup3\n        /* \"#utility.yul\":9675:9684   */\n      dup9\n        /* \"#utility.yul\":9671:9693   */\n      add\n        /* \"#utility.yul\":9650:9703   */\n      tag_187\n      jump\t// in\n    tag_357:\n        /* \"#utility.yul\":9640:9703   */\n      swap3\n      pop\n        /* \"#utility.yul\":9595:9713   */\n      pop\n        /* \"#utility.yul\":9780:9782   */\n      0x60\n        /* \"#utility.yul\":9769:9778   */\n      dup6\n        /* \"#utility.yul\":9765:9783   */\n      add\n        /* \"#utility.yul\":9752:9784   */\n      calldataload\n        /* \"#utility.yul\":9811:9829   */\n      0xffffffffffffffff\n        /* \"#utility.yul\":9803:9809   */\n      dup2\n        /* \"#utility.yul\":9800:9830   */\n      gt\n        /* \"#utility.yul\":9797:9914   */\n      iszero\n      tag_358\n      jumpi\n        /* \"#utility.yul\":9833:9912   */\n      tag_359\n      tag_180\n      jump\t// in\n    tag_359:\n        /* \"#utility.yul\":9797:9914   */\n    tag_358:\n        /* \"#utility.yul\":9938:10001   */\n      tag_360\n        /* \"#utility.yul\":9993:10000   */\n      dup8\n        /* \"#utility.yul\":9984:9990   */\n      dup3\n        /* \"#utility.yul\":9973:9982   */\n      dup9\n        /* \"#utility.yul\":9969:9991   */\n      add\n        /* \"#utility.yul\":9938:10001   */\n      tag_208\n      jump\t// in\n    tag_360:\n        /* \"#utility.yul\":9928:10001   */\n      swap2\n      pop\n        /* \"#utility.yul\":9723:10011   */\n      pop\n        /* \"#utility.yul\":9073:10018   */\n      swap3\n      swap6\n      swap2\n      swap5\n      pop\n      swap3\n      pop\n      jump\t// out\n        /* \"#utility.yul\":10024:10533   */\n    tag_40:\n        /* \"#utility.yul\":10093:10099   */\n      0x00\n        /* \"#utility.yul\":10142:10144   */\n      0x20\n        /* \"#utility.yul\":10130:10139   */\n      dup3\n        /* \"#utility.yul\":10121:10128   */\n      dup5\n        /* \"#utility.yul\":10117:10140   */\n      sub\n        /* \"#utility.yul\":10113:10145   */\n      slt\n        /* \"#utility.yul\":10110:10229   */\n      iszero\n      tag_362\n      jumpi\n        /* \"#utility.yul\":10148:10227   */\n      tag_363\n      tag_179\n      jump\t// in\n    tag_363:\n        /* \"#utility.yul\":10110:10229   */\n    tag_362:\n        /* \"#utility.yul\":10296:10297   */\n      0x00\n        /* \"#utility.yul\":10285:10294   */\n      dup3\n        /* \"#utility.yul\":10281:10298   */\n      add\n        /* \"#utility.yul\":10268:10299   */\n      calldataload\n        /* \"#utility.yul\":10326:10344   */\n      0xffffffffffffffff\n        /* \"#utility.yul\":10318:10324   */\n      dup2\n        /* \"#utility.yul\":10315:10345   */\n      gt\n        /* \"#utility.yul\":10312:10429   */\n      iszero\n      tag_364\n      jumpi\n        /* \"#utility.yul\":10348:10427   */\n      tag_365\n      tag_180\n      jump\t// in\n    tag_365:\n        /* \"#utility.yul\":10312:10429   */\n    tag_364:\n        /* \"#utility.yul\":10453:10516   */\n      tag_366\n        /* \"#utility.yul\":10508:10515   */\n      dup5\n        /* \"#utility.yul\":10499:10505   */\n      dup3\n        /* \"#utility.yul\":10488:10497   */\n      dup6\n        /* \"#utility.yul\":10484:10506   */\n      add\n        /* \"#utility.yul\":10453:10516   */\n      tag_208\n      jump\t// in\n    tag_366:\n        /* \"#utility.yul\":10443:10516   */\n      swap2\n      pop\n        /* \"#utility.yul\":10239:10526   */\n      pop\n        /* \"#utility.yul\":10024:10533   */\n      swap3\n      swap2\n      pop\n      pop\n      jump\t// out\n        /* \"#utility.yul\":10539:10871   */\n    tag_43:\n        /* \"#utility.yul\":10660:10664   */\n      0x00\n        /* \"#utility.yul\":10698:10700   */\n      0x40\n        /* \"#utility.yul\":10687:10696   */\n      dup3\n        /* \"#utility.yul\":10683:10701   */\n      add\n        /* \"#utility.yul\":10675:10701   */\n      swap1\n      pop\n        /* \"#utility.yul\":10711:10782   */\n      tag_368\n        /* \"#utility.yul\":10779:10780   */\n      0x00\n        /* \"#utility.yul\":10768:10777   */\n      dup4\n        /* \"#utility.yul\":10764:10781   */\n      add\n        /* \"#utility.yul\":10755:10761   */\n      dup6\n        /* \"#utility.yul\":10711:10782   */\n      tag_188\n      jump\t// in\n    tag_368:\n        /* \"#utility.yul\":10792:10864   */\n      tag_369\n        /* \"#utility.yul\":10860:10862   */\n      0x20\n        /* \"#utility.yul\":10849:10858   */\n      dup4\n        /* \"#utility.yul\":10845:10863   */\n      add\n        /* \"#utility.yul\":10836:10842   */\n      dup5\n        /* \"#utility.yul\":10792:10864   */\n      tag_189\n      jump\t// in\n    tag_369:\n        /* \"#utility.yul\":10539:10871   */\n      swap4\n      swap3\n      pop\n      pop\n      pop\n      jump\t// out\n        /* \"#utility.yul\":10877:11057   */\n    tag_214:\n        /* \"#utility.yul\":10925:11002   */\n      0x4e487b7100000000000000000000000000000000000000000000000000000000\n        /* \"#utility.yul\":10922:10923   */\n      0x00\n        /* \"#utility.yul\":10915:11003   */\n      mstore\n        /* \"#utility.yul\":11022:11026   */\n      0x22\n        /* \"#utility.yul\":11019:11020   */\n      0x04\n        /* \"#utility.yul\":11012:11027   */\n      mstore\n        /* \"#utility.yul\":11046:11050   */\n      0x24\n        /* \"#utility.yul\":11043:11044   */\n      0x00\n        /* \"#utility.yul\":11036:11051   */\n      revert\n        /* \"#utility.yul\":11063:11383   */\n    tag_48:\n        /* \"#utility.yul\":11107:11113   */\n      0x00\n        /* \"#utility.yul\":11144:11145   */\n      0x02\n        /* \"#utility.yul\":11138:11142   */\n      dup3\n        /* \"#utility.yul\":11134:11146   */\n      div\n        /* \"#utility.yul\":11124:11146   */\n      swap1\n      pop\n        /* \"#utility.yul\":11191:11192   */\n      0x01\n        /* \"#utility.yul\":11185:11189   */\n      dup3\n        /* \"#utility.yul\":11181:11193   */\n      and\n        /* \"#utility.yul\":11212:11230   */\n      dup1\n        /* \"#utility.yul\":11202:11283   */\n      tag_372\n      jumpi\n        /* \"#utility.yul\":11268:11272   */\n      0x7f\n        /* \"#utility.yul\":11260:11266   */\n      dup3\n        /* \"#utility.yul\":11256:11273   */\n      and\n        /* \"#utility.yul\":11246:11273   */\n      swap2\n      pop\n        /* \"#utility.yul\":11202:11283   */\n    tag_372:\n        /* \"#utility.yul\":11330:11332   */\n      0x20\n        /* \"#utility.yul\":11322:11328   */\n      dup3\n        /* \"#utility.yul\":11319:11333   */\n      lt\n        /* \"#utility.yul\":11299:11317   */\n      dup2\n        /* \"#utility.yul\":11296:11334   */\n      sub\n        /* \"#utility.yul\":11293:11377   */\n      tag_373\n      jumpi\n        /* \"#utility.yul\":11349:11367   */\n      tag_374\n      tag_214\n      jump\t// in\n    tag_374:\n        /* \"#utility.yul\":11293:11377   */\n    tag_373:\n        /* \"#utility.yul\":11114:11383   */\n      pop\n        /* \"#utility.yul\":11063:11383   */\n      swap2\n      swap1\n      pop\n      jump\t// out\n        /* \"#utility.yul\":11389:11570   */\n    tag_215:\n        /* \"#utility.yul\":11529:11562   */\n      0x5072696365206d7573742062652067726561746572207468616e207a65726f00\n        /* \"#utility.yul\":11525:11526   */\n      0x00\n        /* \"#utility.yul\":11517:11523   */\n      dup3\n        /* \"#utility.yul\":11513:11527   */\n      add\n        /* \"#utility.yul\":11506:11563   */\n      mstore\n        /* \"#utility.yul\":11389:11570   */\n      pop\n      jump\t// out\n        /* \"#utility.yul\":11576:11942   */\n    tag_216:\n        /* \"#utility.yul\":11718:11721   */\n      0x00\n        /* \"#utility.yul\":11739:11806   */\n      tag_377\n        /* \"#utility.yul\":11803:11805   */\n      0x1f\n        /* \"#utility.yul\":11798:11801   */\n      dup4\n        /* \"#utility.yul\":11739:11806   */\n      tag_191\n      jump\t// in\n    tag_377:\n        /* \"#utility.yul\":11732:11806   */\n      swap2\n      pop\n        /* \"#utility.yul\":11815:11908   */\n      tag_378\n        /* \"#utility.yul\":11904:11907   */\n      dup3\n        /* \"#utility.yul\":11815:11908   */\n      tag_215\n      jump\t// in\n    tag_378:\n        /* \"#utility.yul\":11933:11935   */\n      0x20\n        /* \"#utility.yul\":11928:11931   */\n      dup3\n        /* \"#utility.yul\":11924:11936   */\n      add\n        /* \"#utility.yul\":11917:11936   */\n      swap1\n      pop\n        /* \"#utility.yul\":11576:11942   */\n      swap2\n      swap1\n      pop\n      jump\t// out\n        /* \"#utility.yul\":11948:12367   */\n    tag_56:\n        /* \"#utility.yul\":12114:12118   */\n      0x00\n        /* \"#utility.yul\":12152:12154   */\n      0x20\n        /* \"#utility.yul\":12141:12150   */\n      dup3\n        /* \"#utility.yul\":12137:12155   */\n      add\n        /* \"#utility.yul\":12129:12155   */\n      swap1\n      pop\n        /* \"#utility.yul\":12201:12210   */\n      dup2\n        /* \"#utility.yul\":12195:12199   */\n      dup2\n        /* \"#utility.yul\":12191:12211   */\n      sub\n        /* \"#utility.yul\":12187:12188   */\n      0x00\n        /* \"#utility.yul\":12176:12185   */\n      dup4\n        /* \"#utility.yul\":12172:12189   */\n      add\n        /* \"#utility.yul\":12165:12212   */\n      mstore\n        /* \"#utility.yul\":12229:12360   */\n      tag_380\n        /* \"#utility.yul\":12355:12359   */\n      dup2\n        /* \"#utility.yul\":12229:12360   */\n      tag_216\n      jump\t// in\n    tag_380:\n        /* \"#utility.yul\":12221:12360   */\n      swap1\n      pop\n        /* \"#utility.yul\":11948:12367   */\n      swap2\n      swap1\n      pop\n      jump\t// out\n        /* \"#utility.yul\":12373:12521   */\n    tag_217:\n        /* \"#utility.yul\":12475:12486   */\n      0x00\n        /* \"#utility.yul\":12512:12515   */\n      dup2\n        /* \"#utility.yul\":12497:12515   */\n      swap1\n      pop\n        /* \"#utility.yul\":12373:12521   */\n      swap3\n      swap2\n      pop\n      pop\n      jump\t// out\n        /* \"#utility.yul\":12527:12917   */\n    tag_218:\n        /* \"#utility.yul\":12633:12636   */\n      0x00\n        /* \"#utility.yul\":12661:12700   */\n      tag_383\n        /* \"#utility.yul\":12694:12699   */\n      dup3\n        /* \"#utility.yul\":12661:12700   */\n      tag_190\n      jump\t// in\n    tag_383:\n        /* \"#utility.yul\":12716:12805   */\n      tag_384\n        /* \"#utility.yul\":12798:12804   */\n      dup2\n        /* \"#utility.yul\":12793:12796   */\n      dup6\n        /* \"#utility.yul\":12716:12805   */\n      tag_217\n      jump\t// in\n    tag_384:\n        /* \"#utility.yul\":12709:12805   */\n      swap4\n      pop\n        /* \"#utility.yul\":12814:12879   */\n      tag_385\n        /* \"#utility.yul\":12872:12878   */\n      dup2\n        /* \"#utility.yul\":12867:12870   */\n      dup6\n        /* \"#utility.yul\":12860:12864   */\n      0x20\n        /* \"#utility.yul\":12853:12858   */\n      dup7\n        /* \"#utility.yul\":12849:12865   */\n      add\n        /* \"#utility.yul\":12814:12879   */\n      tag_192\n      jump\t// in\n    tag_385:\n        /* \"#utility.yul\":12904:12910   */\n      dup1\n        /* \"#utility.yul\":12899:12902   */\n      dup5\n        /* \"#utility.yul\":12895:12911   */\n      add\n        /* \"#utility.yul\":12888:12911   */\n      swap2\n      pop\n        /* \"#utility.yul\":12637:12917   */\n      pop\n        /* \"#utility.yul\":12527:12917   */\n      swap3\n      swap2\n      pop\n      pop\n      jump\t// out\n        /* \"#utility.yul\":12923:13198   */\n    tag_58:\n        /* \"#utility.yul\":13055:13058   */\n      0x00\n        /* \"#utility.yul\":13077:13172   */\n      tag_387\n        /* \"#utility.yul\":13168:13171   */\n      dup3\n        /* \"#utility.yul\":13159:13165   */\n      dup5\n        /* \"#utility.yul\":13077:13172   */\n      tag_218\n      jump\t// in\n    tag_387:\n        /* \"#utility.yul\":13070:13172   */\n      swap2\n      pop\n        /* \"#utility.yul\":13189:13192   */\n      dup2\n        /* \"#utility.yul\":13182:13192   */\n      swap1\n      pop\n        /* \"#utility.yul\":12923:13198   */\n      swap3\n      swap2\n      pop\n      pop\n      jump\t// out\n        /* \"#utility.yul\":13204:13378   */\n    tag_219:\n        /* \"#utility.yul\":13344:13370   */\n      0x47726f75702062696420616c7265616479206578697374730000000000000000\n        /* \"#utility.yul\":13340:13341   */\n      0x00\n        /* \"#utility.yul\":13332:13338   */\n      dup3\n        /* \"#utility.yul\":13328:13342   */\n      add\n        /* \"#utility.yul\":13321:13371   */\n      mstore\n        /* \"#utility.yul\":13204:13378   */\n      pop\n      jump\t// out\n        /* \"#utility.yul\":13384:13750   */\n    tag_220:\n        /* \"#utility.yul\":13526:13529   */\n      0x00\n        /* \"#utility.yul\":13547:13614   */\n      tag_390\n        /* \"#utility.yul\":13611:13613   */\n      0x18\n        /* \"#utility.yul\":13606:13609   */\n      dup4\n        /* \"#utility.yul\":13547:13614   */\n      tag_191\n      jump\t// in\n    tag_390:\n        /* \"#utility.yul\":13540:13614   */\n      swap2\n      pop\n        /* \"#utility.yul\":13623:13716   */\n      tag_391\n        /* \"#utility.yul\":13712:13715   */\n      dup3\n        /* \"#utility.yul\":13623:13716   */\n      tag_219\n      jump\t// in\n    tag_391:\n        /* \"#utility.yul\":13741:13743   */\n      0x20\n        /* \"#utility.yul\":13736:13739   */\n      dup3\n        /* \"#utility.yul\":13732:13744   */\n      add\n        /* \"#utility.yul\":13725:13744   */\n      swap1\n      pop\n        /* \"#utility.yul\":13384:13750   */\n      swap2\n      swap1\n      pop\n      jump\t// out\n        /* \"#utility.yul\":13756:14175   */\n    tag_61:\n        /* \"#utility.yul\":13922:13926   */\n      0x00\n        /* \"#utility.yul\":13960:13962   */\n      0x20\n        /* \"#utility.yul\":13949:13958   */\n      dup3\n        /* \"#utility.yul\":13945:13963   */\n      add\n        /* \"#utility.yul\":13937:13963   */\n      swap1\n      pop\n        /* \"#utility.yul\":14009:14018   */\n      dup2\n        /* \"#utility.yul\":14003:14007   */\n      dup2\n        /* \"#utility.yul\":13999:14019   */\n      sub\n        /* \"#utility.yul\":13995:13996   */\n      0x00\n        /* \"#utility.yul\":13984:13993   */\n      dup4\n        /* \"#utility.yul\":13980:13997   */\n      add\n        /* \"#utility.yul\":13973:14020   */\n      mstore\n        /* \"#utility.yul\":14037:14168   */\n      tag_393\n        /* \"#utility.yul\":14163:14167   */\n      dup2\n        /* \"#utility.yul\":14037:14168   */\n      tag_220\n      jump\t// in\n    tag_393:\n        /* \"#utility.yul\":14029:14168   */\n      swap1\n      pop\n        /* \"#utility.yul\":13756:14175   */\n      swap2\n      swap1\n      pop\n      jump\t// out\n        /* \"#utility.yul\":14181:14623   */\n    tag_63:\n        /* \"#utility.yul\":14330:14334   */\n      0x00\n        /* \"#utility.yul\":14368:14370   */\n      0x60\n        /* \"#utility.yul\":14357:14366   */\n      dup3\n        /* \"#utility.yul\":14353:14371   */\n      add\n        /* \"#utility.yul\":14345:14371   */\n      swap1\n      pop\n        /* \"#utility.yul\":14381:14452   */\n      tag_395\n        /* \"#utility.yul\":14449:14450   */\n      0x00\n        /* \"#utility.yul\":14438:14447   */\n      dup4\n        /* \"#utility.yul\":14434:14451   */\n      add\n        /* \"#utility.yul\":14425:14431   */\n      dup7\n        /* \"#utility.yul\":14381:14452   */\n      tag_189\n      jump\t// in\n    tag_395:\n        /* \"#utility.yul\":14462:14534   */\n      tag_396\n        /* \"#utility.yul\":14530:14532   */\n      0x20\n        /* \"#utility.yul\":14519:14528   */\n      dup4\n        /* \"#utility.yul\":14515:14533   */\n      add\n        /* \"#utility.yul\":14506:14512   */\n      dup6\n        /* \"#utility.yul\":14462:14534   */\n      tag_189\n      jump\t// in\n    tag_396:\n        /* \"#utility.yul\":14544:14616   */\n      tag_397\n        /* \"#utility.yul\":14612:14614   */\n      0x40\n        /* \"#utility.yul\":14601:14610   */\n      dup4\n        /* \"#utility.yul\":14597:14615   */\n      add\n        /* \"#utility.yul\":14588:14594   */\n      dup5\n        /* \"#utility.yul\":14544:14616   */\n      tag_188\n      jump\t// in\n    tag_397:\n        /* \"#utility.yul\":14181:14623   */\n      swap5\n      swap4\n      pop\n      pop\n      pop\n      pop\n      jump\t// out\n        /* \"#utility.yul\":14629:14719   */\n    tag_221:\n        /* \"#utility.yul\":14663:14670   */\n      0x00\n        /* \"#utility.yul\":14706:14711   */\n      dup2\n        /* \"#utility.yul\":14699:14712   */\n      iszero\n        /* \"#utility.yul\":14692:14713   */\n      iszero\n        /* \"#utility.yul\":14681:14713   */\n      swap1\n      pop\n        /* \"#utility.yul\":14629:14719   */\n      swap2\n      swap1\n      pop\n      jump\t// out\n        /* \"#utility.yul\":14725:14841   */\n    tag_222:\n        /* \"#utility.yul\":14795:14816   */\n      tag_400\n        /* \"#utility.yul\":14810:14815   */\n      dup2\n        /* \"#utility.yul\":14795:14816   */\n      tag_221\n      jump\t// in\n    tag_400:\n        /* \"#utility.yul\":14788:14793   */\n      dup2\n        /* \"#utility.yul\":14785:14817   */\n      eq\n        /* \"#utility.yul\":14775:14835   */\n      tag_401\n      jumpi\n        /* \"#utility.yul\":14831:14832   */\n      0x00\n        /* \"#utility.yul\":14828:14829   */\n      dup1\n        /* \"#utility.yul\":14821:14833   */\n      revert\n        /* \"#utility.yul\":14775:14835   */\n    tag_401:\n        /* \"#utility.yul\":14725:14841   */\n      pop\n      jump\t// out\n        /* \"#utility.yul\":14847:14984   */\n    tag_223:\n        /* \"#utility.yul\":14901:14906   */\n      0x00\n        /* \"#utility.yul\":14932:14938   */\n      dup2\n        /* \"#utility.yul\":14926:14939   */\n      mload\n        /* \"#utility.yul\":14917:14939   */\n      swap1\n      pop\n        /* \"#utility.yul\":14948:14978   */\n      tag_403\n        /* \"#utility.yul\":14972:14977   */\n      dup2\n        /* \"#utility.yul\":14948:14978   */\n      tag_222\n      jump\t// in\n    tag_403:\n        /* \"#utility.yul\":14847:14984   */\n      swap3\n      swap2\n      pop\n      pop\n      jump\t// out\n        /* \"#utility.yul\":14990:15335   */\n    tag_67:\n        /* \"#utility.yul\":15057:15063   */\n      0x00\n        /* \"#utility.yul\":15106:15108   */\n      0x20\n        /* \"#utility.yul\":15094:15103   */\n      dup3\n        /* \"#utility.yul\":15085:15092   */\n      dup5\n        /* \"#utility.yul\":15081:15104   */\n      sub\n        /* \"#utility.yul\":15077:15109   */\n      slt\n        /* \"#utility.yul\":15074:15193   */\n      iszero\n      tag_405\n      jumpi\n        /* \"#utility.yul\":15112:15191   */\n      tag_406\n      tag_179\n      jump\t// in\n    tag_406:\n        /* \"#utility.yul\":15074:15193   */\n    tag_405:\n        /* \"#utility.yul\":15232:15233   */\n      0x00\n        /* \"#utility.yul\":15257:15318   */\n      tag_407\n        /* \"#utility.yul\":15310:15317   */\n      dup5\n        /* \"#utility.yul\":15301:15307   */\n      dup3\n        /* \"#utility.yul\":15290:15299   */\n      dup6\n        /* \"#utility.yul\":15286:15308   */\n      add\n        /* \"#utility.yul\":15257:15318   */\n      tag_223\n      jump\t// in\n    tag_407:\n        /* \"#utility.yul\":15247:15318   */\n      swap2\n      pop\n        /* \"#utility.yul\":15203:15328   */\n      pop\n        /* \"#utility.yul\":14990:15335   */\n      swap3\n      swap2\n      pop\n      pop\n      jump\t// out\n        /* \"#utility.yul\":15341:15514   */\n    tag_224:\n        /* \"#utility.yul\":15481:15506   */\n      0x5061796d656e74207472616e73666572206661696c6564000000000000000000\n        /* \"#utility.yul\":15477:15478   */\n      0x00\n        /* \"#utility.yul\":15469:15475   */\n      dup3\n        /* \"#utility.yul\":15465:15479   */\n      add\n        /* \"#utility.yul\":15458:15507   */\n      mstore\n        /* \"#utility.yul\":15341:15514   */\n      pop\n      jump\t// out\n        /* \"#utility.yul\":15520:15886   */\n    tag_225:\n        /* \"#utility.yul\":15662:15665   */\n      0x00\n        /* \"#utility.yul\":15683:15750   */\n      tag_410\n        /* \"#utility.yul\":15747:15749   */\n      0x17\n        /* \"#utility.yul\":15742:15745   */\n      dup4\n        /* \"#utility.yul\":15683:15750   */\n      tag_191\n      jump\t// in\n    tag_410:\n        /* \"#utility.yul\":15676:15750   */\n      swap2\n      pop\n        /* \"#utility.yul\":15759:15852   */\n      tag_411\n        /* \"#utility.yul\":15848:15851   */\n      dup3\n        /* \"#utility.yul\":15759:15852   */\n      tag_224\n      jump\t// in\n    tag_411:\n        /* \"#utility.yul\":15877:15879   */\n      0x20\n        /* \"#utility.yul\":15872:15875   */\n      dup3\n        /* \"#utility.yul\":15868:15880   */\n      add\n        /* \"#utility.yul\":15861:15880   */\n      swap1\n      pop\n        /* \"#utility.yul\":15520:15886   */\n      swap2\n      swap1\n      pop\n      jump\t// out\n        /* \"#utility.yul\":15892:16311   */\n    tag_70:\n        /* \"#utility.yul\":16058:16062   */\n      0x00\n        /* \"#utility.yul\":16096:16098   */\n      0x20\n        /* \"#utility.yul\":16085:16094   */\n      dup3\n        /* \"#utility.yul\":16081:16099   */\n      add\n        /* \"#utility.yul\":16073:16099   */\n      swap1\n      pop\n        /* \"#utility.yul\":16145:16154   */\n      dup2\n        /* \"#utility.yul\":16139:16143   */\n      dup2\n        /* \"#utility.yul\":16135:16155   */\n      sub\n        /* \"#utility.yul\":16131:16132   */\n      0x00\n        /* \"#utility.yul\":16120:16129   */\n      dup4\n        /* \"#utility.yul\":16116:16133   */\n      add\n        /* \"#utility.yul\":16109:16156   */\n      mstore\n        /* \"#utility.yul\":16173:16304   */\n      tag_413\n        /* \"#utility.yul\":16299:16303   */\n      dup2\n        /* \"#utility.yul\":16173:16304   */\n      tag_225\n      jump\t// in\n    tag_413:\n        /* \"#utility.yul\":16165:16304   */\n      swap1\n      pop\n        /* \"#utility.yul\":15892:16311   */\n      swap2\n      swap1\n      pop\n      jump\t// out\n        /* \"#utility.yul\":16317:16539   */\n    tag_74:\n        /* \"#utility.yul\":16410:16414   */\n      0x00\n        /* \"#utility.yul\":16448:16450   */\n      0x20\n        /* \"#utility.yul\":16437:16446   */\n      dup3\n        /* \"#utility.yul\":16433:16451   */\n      add\n        /* \"#utility.yul\":16425:16451   */\n      swap1\n      pop\n        /* \"#utility.yul\":16461:16532   */\n      tag_415\n        /* \"#utility.yul\":16529:16530   */\n      0x00\n        /* \"#utility.yul\":16518:16527   */\n      dup4\n        /* \"#utility.yul\":16514:16531   */\n      add\n        /* \"#utility.yul\":16505:16511   */\n      dup5\n        /* \"#utility.yul\":16461:16532   */\n      tag_188\n      jump\t// in\n    tag_415:\n        /* \"#utility.yul\":16317:16539   */\n      swap3\n      swap2\n      pop\n      pop\n      jump\t// out\n        /* \"#utility.yul\":16545:16688   */\n    tag_226:\n        /* \"#utility.yul\":16602:16607   */\n      0x00\n        /* \"#utility.yul\":16633:16639   */\n      dup2\n        /* \"#utility.yul\":16627:16640   */\n      mload\n        /* \"#utility.yul\":16618:16640   */\n      swap1\n      pop\n        /* \"#utility.yul\":16649:16682   */\n      tag_417\n        /* \"#utility.yul\":16676:16681   */\n      dup2\n        /* \"#utility.yul\":16649:16682   */\n      tag_183\n      jump\t// in\n    tag_417:\n        /* \"#utility.yul\":16545:16688   */\n      swap3\n      swap2\n      pop\n      pop\n      jump\t// out\n        /* \"#utility.yul\":16694:17045   */\n    tag_88:\n        /* \"#utility.yul\":16764:16770   */\n      0x00\n        /* \"#utility.yul\":16813:16815   */\n      0x20\n        /* \"#utility.yul\":16801:16810   */\n      dup3\n        /* \"#utility.yul\":16792:16799   */\n      dup5\n        /* \"#utility.yul\":16788:16811   */\n      sub\n        /* \"#utility.yul\":16784:16816   */\n      slt\n        /* \"#utility.yul\":16781:16900   */\n      iszero\n      tag_419\n      jumpi\n        /* \"#utility.yul\":16819:16898   */\n      tag_420\n      tag_179\n      jump\t// in\n    tag_420:\n        /* \"#utility.yul\":16781:16900   */\n    tag_419:\n        /* \"#utility.yul\":16939:16940   */\n      0x00\n        /* \"#utility.yul\":16964:17028   */\n      tag_421\n        /* \"#utility.yul\":17020:17027   */\n      dup5\n        /* \"#utility.yul\":17011:17017   */\n      dup3\n        /* \"#utility.yul\":17000:17009   */\n      dup6\n        /* \"#utility.yul\":16996:17018   */\n      add\n        /* \"#utility.yul\":16964:17028   */\n      tag_226\n      jump\t// in\n    tag_421:\n        /* \"#utility.yul\":16954:17028   */\n      swap2\n      pop\n        /* \"#utility.yul\":16910:17038   */\n      pop\n        /* \"#utility.yul\":16694:17045   */\n      swap3\n      swap2\n      pop\n      pop\n      jump\t// out\n        /* \"#utility.yul\":17051:17225   */\n    tag_227:\n        /* \"#utility.yul\":17191:17217   */\n      0x4e6f7420746865206f776e6572206f6620746865204e46540000000000000000\n        /* \"#utility.yul\":17187:17188   */\n      0x00\n        /* \"#utility.yul\":17179:17185   */\n      dup3\n        /* \"#utility.yul\":17175:17189   */\n      add\n        /* \"#utility.yul\":17168:17218   */\n      mstore\n        /* \"#utility.yul\":17051:17225   */\n      pop\n      jump\t// out\n        /* \"#utility.yul\":17231:17597   */\n    tag_228:\n        /* \"#utility.yul\":17373:17376   */\n      0x00\n        /* \"#utility.yul\":17394:17461   */\n      tag_424\n        /* \"#utility.yul\":17458:17460   */\n      0x18\n        /* \"#utility.yul\":17453:17456   */\n      dup4\n        /* \"#utility.yul\":17394:17461   */\n      tag_191\n      jump\t// in\n    tag_424:\n        /* \"#utility.yul\":17387:17461   */\n      swap2\n      pop\n        /* \"#utility.yul\":17470:17563   */\n      tag_425\n        /* \"#utility.yul\":17559:17562   */\n      dup3\n        /* \"#utility.yul\":17470:17563   */\n      tag_227\n      jump\t// in\n    tag_425:\n        /* \"#utility.yul\":17588:17590   */\n      0x20\n        /* \"#utility.yul\":17583:17586   */\n      dup3\n        /* \"#utility.yul\":17579:17591   */\n      add\n        /* \"#utility.yul\":17572:17591   */\n      swap1\n      pop\n        /* \"#utility.yul\":17231:17597   */\n      swap2\n      swap1\n      pop\n      jump\t// out\n        /* \"#utility.yul\":17603:18022   */\n    tag_91:\n        /* \"#utility.yul\":17769:17773   */\n      0x00\n        /* \"#utility.yul\":17807:17809   */\n      0x20\n        /* \"#utility.yul\":17796:17805   */\n      dup3\n        /* \"#utility.yul\":17792:17810   */\n      add\n        /* \"#utility.yul\":17784:17810   */\n      swap1\n      pop\n        /* \"#utility.yul\":17856:17865   */\n      dup2\n        /* \"#utility.yul\":17850:17854   */\n      dup2\n        /* \"#utility.yul\":17846:17866   */\n      sub\n        /* \"#utility.yul\":17842:17843   */\n      0x00\n        /* \"#utility.yul\":17831:17840   */\n      dup4\n        /* \"#utility.yul\":17827:17844   */\n      add\n        /* \"#utility.yul\":17820:17867   */\n      mstore\n        /* \"#utility.yul\":17884:18015   */\n      tag_427\n        /* \"#utility.yul\":18010:18014   */\n      dup2\n        /* \"#utility.yul\":17884:18015   */\n      tag_228\n      jump\t// in\n    tag_427:\n        /* \"#utility.yul\":17876:18015   */\n      swap1\n      pop\n        /* \"#utility.yul\":17603:18022   */\n      swap2\n      swap1\n      pop\n      jump\t// out\n        /* \"#utility.yul\":18028:18199   */\n    tag_229:\n        /* \"#utility.yul\":18168:18191   */\n      0x4e465420697320616c7265616479206c69737465640000000000000000000000\n        /* \"#utility.yul\":18164:18165   */\n      0x00\n        /* \"#utility.yul\":18156:18162   */\n      dup3\n        /* \"#utility.yul\":18152:18166   */\n      add\n        /* \"#utility.yul\":18145:18192   */\n      mstore\n        /* \"#utility.yul\":18028:18199   */\n      pop\n      jump\t// out\n        /* \"#utility.yul\":18205:18571   */\n    tag_230:\n        /* \"#utility.yul\":18347:18350   */\n      0x00\n        /* \"#utility.yul\":18368:18435   */\n      tag_430\n        /* \"#utility.yul\":18432:18434   */\n      0x15\n        /* \"#utility.yul\":18427:18430   */\n      dup4\n        /* \"#utility.yul\":18368:18435   */\n      tag_191\n      jump\t// in\n    tag_430:\n        /* \"#utility.yul\":18361:18435   */\n      swap2\n      pop\n        /* \"#utility.yul\":18444:18537   */\n      tag_431\n        /* \"#utility.yul\":18533:18536   */\n      dup3\n        /* \"#utility.yul\":18444:18537   */\n      tag_229\n      jump\t// in\n    tag_431:\n        /* \"#utility.yul\":18562:18564   */\n      0x20\n        /* \"#utility.yul\":18557:18560   */\n      dup3\n        /* \"#utility.yul\":18553:18565   */\n      add\n        /* \"#utility.yul\":18546:18565   */\n      swap1\n      pop\n        /* \"#utility.yul\":18205:18571   */\n      swap2\n      swap1\n      pop\n      jump\t// out\n        /* \"#utility.yul\":18577:18996   */\n    tag_95:\n        /* \"#utility.yul\":18743:18747   */\n      0x00\n        /* \"#utility.yul\":18781:18783   */\n      0x20\n        /* \"#utility.yul\":18770:18779   */\n      dup3\n        /* \"#utility.yul\":18766:18784   */\n      add\n        /* \"#utility.yul\":18758:18784   */\n      swap1\n      pop\n        /* \"#utility.yul\":18830:18839   */\n      dup2\n        /* \"#utility.yul\":18824:18828   */\n      dup2\n        /* \"#utility.yul\":18820:18840   */\n      sub\n        /* \"#utility.yul\":18816:18817   */\n      0x00\n        /* \"#utility.yul\":18805:18814   */\n      dup4\n        /* \"#utility.yul\":18801:18818   */\n      add\n        /* \"#utility.yul\":18794:18841   */\n      mstore\n        /* \"#utility.yul\":18858:18989   */\n      tag_433\n        /* \"#utility.yul\":18984:18988   */\n      dup2\n        /* \"#utility.yul\":18858:18989   */\n      tag_230\n      jump\t// in\n    tag_433:\n        /* \"#utility.yul\":18850:18989   */\n      swap1\n      pop\n        /* \"#utility.yul\":18577:18996   */\n      swap2\n      swap1\n      pop\n      jump\t// out\n        /* \"#utility.yul\":19002:19176   */\n    tag_231:\n        /* \"#utility.yul\":19142:19168   */\n      0x4d61726b6574706c616365206e6f7420617070726f7665640000000000000000\n        /* \"#utility.yul\":19138:19139   */\n      0x00\n        /* \"#utility.yul\":19130:19136   */\n      dup3\n        /* \"#utility.yul\":19126:19140   */\n      add\n        /* \"#utility.yul\":19119:19169   */\n      mstore\n        /* \"#utility.yul\":19002:19176   */\n      pop\n      jump\t// out\n        /* \"#utility.yul\":19182:19548   */\n    tag_232:\n        /* \"#utility.yul\":19324:19327   */\n      0x00\n        /* \"#utility.yul\":19345:19412   */\n      tag_436\n        /* \"#utility.yul\":19409:19411   */\n      0x18\n        /* \"#utility.yul\":19404:19407   */\n      dup4\n        /* \"#utility.yul\":19345:19412   */\n      tag_191\n      jump\t// in\n    tag_436:\n        /* \"#utility.yul\":19338:19412   */\n      swap2\n      pop\n        /* \"#utility.yul\":19421:19514   */\n      tag_437\n        /* \"#utility.yul\":19510:19513   */\n      dup3\n        /* \"#utility.yul\":19421:19514   */\n      tag_231\n      jump\t// in\n    tag_437:\n        /* \"#utility.yul\":19539:19541   */\n      0x20\n        /* \"#utility.yul\":19534:19537   */\n      dup3\n        /* \"#utility.yul\":19530:19542   */\n      add\n        /* \"#utility.yul\":19523:19542   */\n      swap1\n      pop\n        /* \"#utility.yul\":19182:19548   */\n      swap2\n      swap1\n      pop\n      jump\t// out\n        /* \"#utility.yul\":19554:19973   */\n    tag_105:\n        /* \"#utility.yul\":19720:19724   */\n      0x00\n        /* \"#utility.yul\":19758:19760   */\n      0x20\n        /* \"#utility.yul\":19747:19756   */\n      dup3\n        /* \"#utility.yul\":19743:19761   */\n      add\n        /* \"#utility.yul\":19735:19761   */\n      swap1\n      pop\n        /* \"#utility.yul\":19807:19816   */\n      dup2\n        /* \"#utility.yul\":19801:19805   */\n      dup2\n        /* \"#utility.yul\":19797:19817   */\n      sub\n        /* \"#utility.yul\":19793:19794   */\n      0x00\n        /* \"#utility.yul\":19782:19791   */\n      dup4\n        /* \"#utility.yul\":19778:19795   */\n      add\n        /* \"#utility.yul\":19771:19818   */\n      mstore\n        /* \"#utility.yul\":19835:19966   */\n      tag_439\n        /* \"#utility.yul\":19961:19965   */\n      dup2\n        /* \"#utility.yul\":19835:19966   */\n      tag_232\n      jump\t// in\n    tag_439:\n        /* \"#utility.yul\":19827:19966   */\n      swap1\n      pop\n        /* \"#utility.yul\":19554:19973   */\n      swap2\n      swap1\n      pop\n      jump\t// out\n        /* \"#utility.yul\":19979:20120   */\n    tag_233:\n        /* \"#utility.yul\":20028:20032   */\n      0x00\n        /* \"#utility.yul\":20051:20054   */\n      dup2\n        /* \"#utility.yul\":20043:20054   */\n      swap1\n      pop\n        /* \"#utility.yul\":20074:20077   */\n      dup2\n        /* \"#utility.yul\":20071:20072   */\n      0x00\n        /* \"#utility.yul\":20064:20078   */\n      mstore\n        /* \"#utility.yul\":20108:20112   */\n      0x20\n        /* \"#utility.yul\":20105:20106   */\n      0x00\n        /* \"#utility.yul\":20095:20113   */\n      keccak256\n        /* \"#utility.yul\":20087:20113   */\n      swap1\n      pop\n        /* \"#utility.yul\":19979:20120   */\n      swap2\n      swap1\n      pop\n      jump\t// out\n        /* \"#utility.yul\":20126:20219   */\n    tag_234:\n        /* \"#utility.yul\":20163:20169   */\n      0x00\n        /* \"#utility.yul\":20210:20212   */\n      0x20\n        /* \"#utility.yul\":20205:20207   */\n      0x1f\n        /* \"#utility.yul\":20198:20203   */\n      dup4\n        /* \"#utility.yul\":20194:20208   */\n      add\n        /* \"#utility.yul\":20190:20213   */\n      div\n        /* \"#utility.yul\":20180:20213   */\n      swap1\n      pop\n        /* \"#utility.yul\":20126:20219   */\n      swap2\n      swap1\n      pop\n      jump\t// out\n        /* \"#utility.yul\":20225:20332   */\n    tag_235:\n        /* \"#utility.yul\":20269:20277   */\n      0x00\n        /* \"#utility.yul\":20319:20324   */\n      dup3\n        /* \"#utility.yul\":20313:20317   */\n      dup3\n        /* \"#utility.yul\":20309:20325   */\n      shl\n        /* \"#utility.yul\":20288:20325   */\n      swap1\n      pop\n        /* \"#utility.yul\":20225:20332   */\n      swap3\n      swap2\n      pop\n      pop\n      jump\t// out\n        /* \"#utility.yul\":20338:20731   */\n    tag_236:\n        /* \"#utility.yul\":20407:20413   */\n      0x00\n        /* \"#utility.yul\":20457:20458   */\n      0x08\n        /* \"#utility.yul\":20445:20455   */\n      dup4\n        /* \"#utility.yul\":20441:20459   */\n      mul\n        /* \"#utility.yul\":20480:20577   */\n      tag_444\n        /* \"#utility.yul\":20510:20576   */\n      0xffffffffffffffffffffffffffffffffffffffffffffffffffffffffffffffff\n        /* \"#utility.yul\":20499:20508   */\n      dup3\n        /* \"#utility.yul\":20480:20577   */\n      tag_235\n      jump\t// in\n    tag_444:\n        /* \"#utility.yul\":20598:20637   */\n      tag_445\n        /* \"#utility.yul\":20628:20636   */\n      dup7\n        /* \"#utility.yul\":20617:20626   */\n      dup4\n        /* \"#utility.yul\":20598:20637   */\n      tag_235\n      jump\t// in\n    tag_445:\n        /* \"#utility.yul\":20586:20637   */\n      swap6\n      pop\n        /* \"#utility.yul\":20670:20674   */\n      dup1\n        /* \"#utility.yul\":20666:20675   */\n      not\n        /* \"#utility.yul\":20659:20664   */\n      dup5\n        /* \"#utility.yul\":20655:20676   */\n      and\n        /* \"#utility.yul\":20646:20676   */\n      swap4\n      pop\n        /* \"#utility.yul\":20719:20723   */\n      dup1\n        /* \"#utility.yul\":20709:20717   */\n      dup7\n        /* \"#utility.yul\":20705:20724   */\n      and\n        /* \"#utility.yul\":20698:20703   */\n      dup5\n        /* \"#utility.yul\":20695:20725   */\n      or\n        /* \"#utility.yul\":20685:20725   */\n      swap3\n      pop\n        /* \"#utility.yul\":20414:20731   */\n      pop\n      pop\n        /* \"#utility.yul\":20338:20731   */\n      swap4\n      swap3\n      pop\n      pop\n      pop\n      jump\t// out\n        /* \"#utility.yul\":20737:20879   */\n    tag_237:\n        /* \"#utility.yul\":20787:20796   */\n      0x00\n        /* \"#utility.yul\":20820:20873   */\n      tag_447\n        /* \"#utility.yul\":20838:20872   */\n      tag_448\n        /* \"#utility.yul\":20847:20871   */\n      tag_449\n        /* \"#utility.yul\":20865:20870   */\n      dup5\n        /* \"#utility.yul\":20847:20871   */\n      tag_185\n      jump\t// in\n    tag_449:\n        /* \"#utility.yul\":20838:20872   */\n      tag_195\n      jump\t// in\n    tag_448:\n        /* \"#utility.yul\":20820:20873   */\n      tag_185\n      jump\t// in\n    tag_447:\n        /* \"#utility.yul\":20807:20873   */\n      swap1\n      pop\n        /* \"#utility.yul\":20737:20879   */\n      swap2\n      swap1\n      pop\n      jump\t// out\n        /* \"#utility.yul\":20885:20960   */\n    tag_238:\n        /* \"#utility.yul\":20928:20931   */\n      0x00\n        /* \"#utility.yul\":20949:20954   */\n      dup2\n        /* \"#utility.yul\":20942:20954   */\n      swap1\n      pop\n        /* \"#utility.yul\":20885:20960   */\n      swap2\n      swap1\n      pop\n      jump\t// out\n        /* \"#utility.yul\":20966:21235   */\n    tag_239:\n        /* \"#utility.yul\":21076:21115   */\n      tag_452\n        /* \"#utility.yul\":21107:21114   */\n      dup4\n        /* \"#utility.yul\":21076:21115   */\n      tag_237\n      jump\t// in\n    tag_452:\n        /* \"#utility.yul\":21137:21228   */\n      tag_453\n        /* \"#utility.yul\":21186:21227   */\n      tag_454\n        /* \"#utility.yul\":21210:21226   */\n      dup3\n        /* \"#utility.yul\":21186:21227   */\n      tag_238\n      jump\t// in\n    tag_454:\n        /* \"#utility.yul\":21178:21184   */\n      dup5\n        /* \"#utility.yul\":21171:21175   */\n      dup5\n        /* \"#utility.yul\":21165:21176   */\n      sload\n        /* \"#utility.yul\":21137:21228   */\n      tag_236\n      jump\t// in\n    tag_453:\n        /* \"#utility.yul\":21131:21135   */\n      dup3\n        /* \"#utility.yul\":21124:21229   */\n      sstore\n        /* \"#utility.yul\":21042:21235   */\n      pop\n        /* \"#utility.yul\":20966:21235   */\n      pop\n      pop\n      pop\n      jump\t// out\n        /* \"#utility.yul\":21241:21314   */\n    tag_240:\n        /* \"#utility.yul\":21286:21289   */\n      0x00\n        /* \"#utility.yul\":21241:21314   */\n      swap1\n      jump\t// out\n        /* \"#utility.yul\":21320:21509   */\n    tag_241:\n        /* \"#utility.yul\":21397:21429   */\n      tag_457\n      tag_240\n      jump\t// in\n    tag_457:\n        /* \"#utility.yul\":21438:21503   */\n      tag_458\n        /* \"#utility.yul\":21496:21502   */\n      dup2\n        /* \"#utility.yul\":21488:21494   */\n      dup5\n        /* \"#utility.yul\":21482:21486   */\n      dup5\n        /* \"#utility.yul\":21438:21503   */\n      tag_239\n      jump\t// in\n    tag_458:\n        /* \"#utility.yul\":21373:21509   */\n      pop\n        /* \"#utility.yul\":21320:21509   */\n      pop\n      pop\n      jump\t// out\n        /* \"#utility.yul\":21515:21701   */\n    tag_242:\n        /* \"#utility.yul\":21575:21695   */\n    tag_460:\n        /* \"#utility.yul\":21592:21595   */\n      dup2\n        /* \"#utility.yul\":21585:21590   */\n      dup2\n        /* \"#utility.yul\":21582:21596   */\n      lt\n        /* \"#utility.yul\":21575:21695   */\n      iszero\n      tag_462\n      jumpi\n        /* \"#utility.yul\":21646:21685   */\n      tag_463\n        /* \"#utility.yul\":21683:21684   */\n      0x00\n        /* \"#utility.yul\":21676:21681   */\n      dup3\n        /* \"#utility.yul\":21646:21685   */\n      tag_241\n      jump\t// in\n    tag_463:\n        /* \"#utility.yul\":21619:21620   */\n      0x01\n        /* \"#utility.yul\":21612:21617   */\n      dup2\n        /* \"#utility.yul\":21608:21621   */\n      add\n        /* \"#utility.yul\":21599:21621   */\n      swap1\n      pop\n        /* \"#utility.yul\":21575:21695   */\n      jump(tag_460)\n    tag_462:\n        /* \"#utility.yul\":21515:21701   */\n      pop\n      pop\n      jump\t// out\n        /* \"#utility.yul\":21707:22250   */\n    tag_243:\n        /* \"#utility.yul\":21808:21810   */\n      0x1f\n        /* \"#utility.yul\":21803:21806   */\n      dup3\n        /* \"#utility.yul\":21800:21811   */\n      gt\n        /* \"#utility.yul\":21797:22243   */\n      iszero\n      tag_465\n      jumpi\n        /* \"#utility.yul\":21842:21880   */\n      tag_466\n        /* \"#utility.yul\":21874:21879   */\n      dup2\n        /* \"#utility.yul\":21842:21880   */\n      tag_233\n      jump\t// in\n    tag_466:\n        /* \"#utility.yul\":21926:21955   */\n      tag_467\n        /* \"#utility.yul\":21944:21954   */\n      dup5\n        /* \"#utility.yul\":21926:21955   */\n      tag_234\n      jump\t// in\n    tag_467:\n        /* \"#utility.yul\":21916:21924   */\n      dup2\n        /* \"#utility.yul\":21912:21956   */\n      add\n        /* \"#utility.yul\":22109:22111   */\n      0x20\n        /* \"#utility.yul\":22097:22107   */\n      dup6\n        /* \"#utility.yul\":22094:22112   */\n      lt\n        /* \"#utility.yul\":22091:22140   */\n      iszero\n      tag_468\n      jumpi\n        /* \"#utility.yul\":22130:22138   */\n      dup2\n        /* \"#utility.yul\":22115:22138   */\n      swap1\n      pop\n        /* \"#utility.yul\":22091:22140   */\n    tag_468:\n        /* \"#utility.yul\":22153:22233   */\n      tag_469\n        /* \"#utility.yul\":22209:22231   */\n      tag_470\n        /* \"#utility.yul\":22227:22230   */\n      dup6\n        /* \"#utility.yul\":22209:22231   */\n      tag_234\n      jump\t// in\n    tag_470:\n        /* \"#utility.yul\":22199:22207   */\n      dup4\n        /* \"#utility.yul\":22195:22232   */\n      add\n        /* \"#utility.yul\":22182:22193   */\n      dup3\n        /* \"#utility.yul\":22153:22233   */\n      tag_242\n      jump\t// in\n    tag_469:\n        /* \"#utility.yul\":21812:22243   */\n      pop\n      pop\n        /* \"#utility.yul\":21797:22243   */\n    tag_465:\n        /* \"#utility.yul\":21707:22250   */\n      pop\n      pop\n      pop\n      jump\t// out\n        /* \"#utility.yul\":22256:22373   */\n    tag_244:\n        /* \"#utility.yul\":22310:22318   */\n      0x00\n        /* \"#utility.yul\":22360:22365   */\n      dup3\n        /* \"#utility.yul\":22354:22358   */\n      dup3\n        /* \"#utility.yul\":22350:22366   */\n      shr\n        /* \"#utility.yul\":22329:22366   */\n      swap1\n      pop\n        /* \"#utility.yul\":22256:22373   */\n      swap3\n      swap2\n      pop\n      pop\n      jump\t// out\n        /* \"#utility.yul\":22379:22548   */\n    tag_245:\n        /* \"#utility.yul\":22423:22429   */\n      0x00\n        /* \"#utility.yul\":22456:22507   */\n      tag_473\n        /* \"#utility.yul\":22504:22505   */\n      0x00\n        /* \"#utility.yul\":22500:22506   */\n      not\n        /* \"#utility.yul\":22492:22497   */\n      dup5\n        /* \"#utility.yul\":22489:22490   */\n      0x08\n        /* \"#utility.yul\":22485:22498   */\n      mul\n        /* \"#utility.yul\":22456:22507   */\n      tag_244\n      jump\t// in\n    tag_473:\n        /* \"#utility.yul\":22452:22508   */\n      not\n        /* \"#utility.yul\":22537:22541   */\n      dup1\n        /* \"#utility.yul\":22531:22535   */\n      dup4\n        /* \"#utility.yul\":22527:22542   */\n      and\n        /* \"#utility.yul\":22517:22542   */\n      swap2\n      pop\n        /* \"#utility.yul\":22430:22548   */\n      pop\n        /* \"#utility.yul\":22379:22548   */\n      swap3\n      swap2\n      pop\n      pop\n      jump\t// out\n        /* \"#utility.yul\":22553:22848   */\n    tag_246:\n        /* \"#utility.yul\":22629:22633   */\n      0x00\n        /* \"#utility.yul\":22775:22804   */\n      tag_475\n        /* \"#utility.yul\":22800:22803   */\n      dup4\n        /* \"#utility.yul\":22794:22798   */\n      dup4\n        /* \"#utility.yul\":22775:22804   */\n      tag_245\n      jump\t// in\n    tag_475:\n        /* \"#utility.yul\":22767:22804   */\n      swap2\n      pop\n        /* \"#utility.yul\":22837:22840   */\n      dup3\n        /* \"#utility.yul\":22834:22835   */\n      0x02\n        /* \"#utility.yul\":22830:22841   */\n      mul\n        /* \"#utility.yul\":22824:22828   */\n      dup3\n        /* \"#utility.yul\":22821:22842   */\n      or\n        /* \"#utility.yul\":22813:22842   */\n      swap1\n      pop\n        /* \"#utility.yul\":22553:22848   */\n      swap3\n      swap2\n      pop\n      pop\n      jump\t// out\n        /* \"#utility.yul\":22853:24248   */\n    tag_107:\n        /* \"#utility.yul\":22970:23007   */\n      tag_477\n        /* \"#utility.yul\":23003:23006   */\n      dup3\n        /* \"#utility.yul\":22970:23007   */\n      tag_190\n      jump\t// in\n    tag_477:\n        /* \"#utility.yul\":23072:23090   */\n      0xffffffffffffffff\n        /* \"#utility.yul\":23064:23070   */\n      dup2\n        /* \"#utility.yul\":23061:23091   */\n      gt\n        /* \"#utility.yul\":23058:23114   */\n      iszero\n      tag_478\n      jumpi\n        /* \"#utility.yul\":23094:23112   */\n      tag_479\n      tag_202\n      jump\t// in\n    tag_479:\n        /* \"#utility.yul\":23058:23114   */\n    tag_478:\n        /* \"#utility.yul\":23138:23176   */\n      tag_480\n        /* \"#utility.yul\":23170:23174   */\n      dup3\n        /* \"#utility.yul\":23164:23175   */\n      sload\n        /* \"#utility.yul\":23138:23176   */\n      tag_48\n      jump\t// in\n    tag_480:\n        /* \"#utility.yul\":23223:23290   */\n      tag_481\n        /* \"#utility.yul\":23283:23289   */\n      dup3\n        /* \"#utility.yul\":23275:23281   */\n      dup3\n        /* \"#utility.yul\":23269:23273   */\n      dup6\n        /* \"#utility.yul\":23223:23290   */\n      tag_243\n      jump\t// in\n    tag_481:\n        /* \"#utility.yul\":23317:23318   */\n      0x00\n        /* \"#utility.yul\":23341:23345   */\n      0x20\n        /* \"#utility.yul\":23328:23345   */\n      swap1\n      pop\n        /* \"#utility.yul\":23373:23375   */\n      0x1f\n        /* \"#utility.yul\":23365:23371   */\n      dup4\n        /* \"#utility.yul\":23362:23376   */\n      gt\n        /* \"#utility.yul\":23390:23391   */\n      0x01\n        /* \"#utility.yul\":23385:24003   */\n      dup2\n      eq\n      tag_483\n      jumpi\n        /* \"#utility.yul\":24047:24048   */\n      0x00\n        /* \"#utility.yul\":24064:24070   */\n      dup5\n        /* \"#utility.yul\":24061:24138   */\n      iszero\n      tag_484\n      jumpi\n        /* \"#utility.yul\":24113:24122   */\n      dup3\n        /* \"#utility.yul\":24108:24111   */\n      dup8\n        /* \"#utility.yul\":24104:24123   */\n      add\n        /* \"#utility.yul\":24098:24124   */\n      mload\n        /* \"#utility.yul\":24089:24124   */\n      swap1\n      pop\n        /* \"#utility.yul\":24061:24138   */\n    tag_484:\n        /* \"#utility.yul\":24164:24231   */\n      tag_485\n        /* \"#utility.yul\":24224:24230   */\n      dup6\n        /* \"#utility.yul\":24217:24222   */\n      dup3\n        /* \"#utility.yul\":24164:24231   */\n      tag_246\n      jump\t// in\n    tag_485:\n        /* \"#utility.yul\":24158:24162   */\n      dup7\n        /* \"#utility.yul\":24151:24232   */\n      sstore\n        /* \"#utility.yul\":24020:24242   */\n      pop\n        /* \"#utility.yul\":23355:24242   */\n      jump(tag_482)\n        /* \"#utility.yul\":23385:24003   */\n    tag_483:\n        /* \"#utility.yul\":23437:23441   */\n      0x1f\n        /* \"#utility.yul\":23433:23442   */\n      not\n        /* \"#utility.yul\":23425:23431   */\n      dup5\n        /* \"#utility.yul\":23421:23443   */\n      and\n        /* \"#utility.yul\":23471:23508   */\n      tag_486\n        /* \"#utility.yul\":23503:23507   */\n      dup7\n        /* \"#utility.yul\":23471:23508   */\n      tag_233\n      jump\t// in\n    tag_486:\n        /* \"#utility.yul\":23530:23531   */\n      0x00\n        /* \"#utility.yul\":23544:23752   */\n    tag_487:\n        /* \"#utility.yul\":23558:23565   */\n      dup3\n        /* \"#utility.yul\":23555:23556   */\n      dup2\n        /* \"#utility.yul\":23552:23566   */\n      lt\n        /* \"#utility.yul\":23544:23752   */\n      iszero\n      tag_489\n      jumpi\n        /* \"#utility.yul\":23637:23646   */\n      dup5\n        /* \"#utility.yul\":23632:23635   */\n      dup10\n        /* \"#utility.yul\":23628:23647   */\n      add\n        /* \"#utility.yul\":23622:23648   */\n      mload\n        /* \"#utility.yul\":23614:23620   */\n      dup3\n        /* \"#utility.yul\":23607:23649   */\n      sstore\n        /* \"#utility.yul\":23688:23689   */\n      0x01\n        /* \"#utility.yul\":23680:23686   */\n      dup3\n        /* \"#utility.yul\":23676:23690   */\n      add\n        /* \"#utility.yul\":23666:23690   */\n      swap2\n      pop\n        /* \"#utility.yul\":23735:23737   */\n      0x20\n        /* \"#utility.yul\":23724:23733   */\n      dup6\n        /* \"#utility.yul\":23720:23738   */\n      add\n        /* \"#utility.yul\":23707:23738   */\n      swap5\n      pop\n        /* \"#utility.yul\":23581:23585   */\n      0x20\n        /* \"#utility.yul\":23578:23579   */\n      dup2\n        /* \"#utility.yul\":23574:23586   */\n      add\n        /* \"#utility.yul\":23569:23586   */\n      swap1\n      pop\n        /* \"#utility.yul\":23544:23752   */\n      jump(tag_487)\n    tag_489:\n        /* \"#utility.yul\":23780:23786   */\n      dup7\n        /* \"#utility.yul\":23771:23778   */\n      dup4\n        /* \"#utility.yul\":23768:23787   */\n      lt\n        /* \"#utility.yul\":23765:23944   */\n      iszero\n      tag_490\n      jumpi\n        /* \"#utility.yul\":23838:23847   */\n      dup5\n        /* \"#utility.yul\":23833:23836   */\n      dup10\n        /* \"#utility.yul\":23829:23848   */\n      add\n        /* \"#utility.yul\":23823:23849   */\n      mload\n        /* \"#utility.yul\":23881:23929   */\n      tag_491\n        /* \"#utility.yul\":23923:23927   */\n      0x1f\n        /* \"#utility.yul\":23915:23921   */\n      dup10\n        /* \"#utility.yul\":23911:23928   */\n      and\n        /* \"#utility.yul\":23900:23909   */\n      dup3\n        /* \"#utility.yul\":23881:23929   */\n      tag_245\n      jump\t// in\n    tag_491:\n        /* \"#utility.yul\":23873:23879   */\n      dup4\n        /* \"#utility.yul\":23866:23930   */\n      sstore\n        /* \"#utility.yul\":23788:23944   */\n      pop\n        /* \"#utility.yul\":23765:23944   */\n    tag_490:\n        /* \"#utility.yul\":23990:23991   */\n      0x01\n        /* \"#utility.yul\":23986:23987   */\n      0x02\n        /* \"#utility.yul\":23978:23984   */\n      dup9\n        /* \"#utility.yul\":23974:23988   */\n      mul\n        /* \"#utility.yul\":23970:23992   */\n      add\n        /* \"#utility.yul\":23964:23968   */\n      dup9\n        /* \"#utility.yul\":23957:23993   */\n      sstore\n        /* \"#utility.yul\":23392:24003   */\n      pop\n      pop\n      pop\n        /* \"#utility.yul\":23355:24242   */\n    tag_482:\n      pop\n        /* \"#utility.yul\":22945:24248   */\n      pop\n      pop\n      pop\n        /* \"#utility.yul\":22853:24248   */\n      pop\n      pop\n      jump\t// out\n        /* \"#utility.yul\":24254:24677   */\n    tag_109:\n        /* \"#utility.yul\":24395:24399   */\n      0x00\n        /* \"#utility.yul\":24433:24435   */\n      0x40\n        /* \"#utility.yul\":24422:24431   */\n      dup3\n        /* \"#utility.yul\":24418:24436   */\n      add\n        /* \"#utility.yul\":24410:24436   */\n      swap1\n      pop\n        /* \"#utility.yul\":24446:24517   */\n      tag_493\n        /* \"#utility.yul\":24514:24515   */\n      0x00\n        /* \"#utility.yul\":24503:24512   */\n      dup4\n        /* \"#utility.yul\":24499:24516   */\n      add\n        /* \"#utility.yul\":24490:24496   */\n      dup6\n        /* \"#utility.yul\":24446:24517   */\n      tag_188\n      jump\t// in\n    tag_493:\n        /* \"#utility.yul\":24564:24573   */\n      dup2\n        /* \"#utility.yul\":24558:24562   */\n      dup2\n        /* \"#utility.yul\":24554:24574   */\n      sub\n        /* \"#utility.yul\":24549:24551   */\n      0x20\n        /* \"#utility.yul\":24538:24547   */\n      dup4\n        /* \"#utility.yul\":24534:24552   */\n      add\n        /* \"#utility.yul\":24527:24575   */\n      mstore\n        /* \"#utility.yul\":24592:24670   */\n      tag_494\n        /* \"#utility.yul\":24665:24669   */\n      dup2\n        /* \"#utility.yul\":24656:24662   */\n      dup5\n        /* \"#utility.yul\":24592:24670   */\n      tag_194\n      jump\t// in\n    tag_494:\n        /* \"#utility.yul\":24584:24670   */\n      swap1\n      pop\n        /* \"#utility.yul\":24254:24677   */\n      swap4\n      swap3\n      pop\n      pop\n      pop\n      jump\t// out\n        /* \"#utility.yul\":24683:24850   */\n    tag_247:\n        /* \"#utility.yul\":24823:24842   */\n      0x4e4654206973206e6f74206c6973746564000000000000000000000000000000\n        /* \"#utility.yul\":24819:24820   */\n      0x00\n        /* \"#utility.yul\":24811:24817   */\n      dup3\n        /* \"#utility.yul\":24807:24821   */\n      add\n        /* \"#utility.yul\":24800:24843   */\n      mstore\n        /* \"#utility.yul\":24683:24850   */\n      pop\n      jump\t// out\n        /* \"#utility.yul\":24856:25222   */\n    tag_248:\n        /* \"#utility.yul\":24998:25001   */\n      0x00\n        /* \"#utility.yul\":25019:25086   */\n      tag_497\n        /* \"#utility.yul\":25083:25085   */\n      0x11\n        /* \"#utility.yul\":25078:25081   */\n      dup4\n        /* \"#utility.yul\":25019:25086   */\n      tag_191\n      jump\t// in\n    tag_497:\n        /* \"#utility.yul\":25012:25086   */\n      swap2\n      pop\n        /* \"#utility.yul\":25095:25188   */\n      tag_498\n        /* \"#utility.yul\":25184:25187   */\n      dup3\n        /* \"#utility.yul\":25095:25188   */\n      tag_247\n      jump\t// in\n    tag_498:\n        /* \"#utility.yul\":25213:25215   */\n      0x20\n        /* \"#utility.yul\":25208:25211   */\n      dup3\n        /* \"#utility.yul\":25204:25216   */\n      add\n        /* \"#utility.yul\":25197:25216   */\n      swap1\n      pop\n        /* \"#utility.yul\":24856:25222   */\n      swap2\n      swap1\n      pop\n      jump\t// out\n        /* \"#utility.yul\":25228:25647   */\n    tag_133:\n        /* \"#utility.yul\":25394:25398   */\n      0x00\n        /* \"#utility.yul\":25432:25434   */\n      0x20\n        /* \"#utility.yul\":25421:25430   */\n      dup3\n        /* \"#utility.yul\":25417:25435   */\n      add\n        /* \"#utility.yul\":25409:25435   */\n      swap1\n      pop\n        /* \"#utility.yul\":25481:25490   */\n      dup2\n        /* \"#utility.yul\":25475:25479   */\n      dup2\n        /* \"#utility.yul\":25471:25491   */\n      sub\n        /* \"#utility.yul\":25467:25468   */\n      0x00\n        /* \"#utility.yul\":25456:25465   */\n      dup4\n        /* \"#utility.yul\":25452:25469   */\n      add\n        /* \"#utility.yul\":25445:25492   */\n      mstore\n        /* \"#utility.yul\":25509:25640   */\n      tag_500\n        /* \"#utility.yul\":25635:25639   */\n      dup2\n        /* \"#utility.yul\":25509:25640   */\n      tag_248\n      jump\t// in\n    tag_500:\n        /* \"#utility.yul\":25501:25640   */\n      swap1\n      pop\n        /* \"#utility.yul\":25228:25647   */\n      swap2\n      swap1\n      pop\n      jump\t// out\n        /* \"#utility.yul\":25653:25834   */\n    tag_249:\n        /* \"#utility.yul\":25793:25826   */\n      0x5265656e7472616e637947756172643a207265656e7472616e742063616c6c00\n        /* \"#utility.yul\":25789:25790   */\n      0x00\n        /* \"#utility.yul\":25781:25787   */\n      dup3\n        /* \"#utility.yul\":25777:25791   */\n      add\n        /* \"#utility.yul\":25770:25827   */\n      mstore\n        /* \"#utility.yul\":25653:25834   */\n      pop\n      jump\t// out\n        /* \"#utility.yul\":25840:26206   */\n    tag_250:\n        /* \"#utility.yul\":25982:25985   */\n      0x00\n        /* \"#utility.yul\":26003:26070   */\n      tag_503\n        /* \"#utility.yul\":26067:26069   */\n      0x1f\n        /* \"#utility.yul\":26062:26065   */\n      dup4\n        /* \"#utility.yul\":26003:26070   */\n      tag_191\n      jump\t// in\n    tag_503:\n        /* \"#utility.yul\":25996:26070   */\n      swap2\n      pop\n        /* \"#utility.yul\":26079:26172   */\n      tag_504\n        /* \"#utility.yul\":26168:26171   */\n      dup3\n        /* \"#utility.yul\":26079:26172   */\n      tag_249\n      jump\t// in\n    tag_504:\n        /* \"#utility.yul\":26197:26199   */\n      0x20\n        /* \"#utility.yul\":26192:26195   */\n      dup3\n        /* \"#utility.yul\":26188:26200   */\n      add\n        /* \"#utility.yul\":26181:26200   */\n      swap1\n      pop\n        /* \"#utility.yul\":25840:26206   */\n      swap2\n      swap1\n      pop\n      jump\t// out\n        /* \"#utility.yul\":26212:26631   */\n    tag_169:\n        /* \"#utility.yul\":26378:26382   */\n      0x00\n        /* \"#utility.yul\":26416:26418   */\n      0x20\n        /* \"#utility.yul\":26405:26414   */\n      dup3\n        /* \"#utility.yul\":26401:26419   */\n      add\n        /* \"#utility.yul\":26393:26419   */\n      swap1\n      pop\n        /* \"#utility.yul\":26465:26474   */\n      dup2\n        /* \"#utility.yul\":26459:26463   */\n      dup2\n        /* \"#utility.yul\":26455:26475   */\n      sub\n        /* \"#utility.yul\":26451:26452   */\n      0x00\n        /* \"#utility.yul\":26440:26449   */\n      dup4\n        /* \"#utility.yul\":26436:26453   */\n      add\n        /* \"#utility.yul\":26429:26476   */\n      mstore\n        /* \"#utility.yul\":26493:26624   */\n      tag_506\n        /* \"#utility.yul\":26619:26623   */\n      dup2\n        /* \"#utility.yul\":26493:26624   */\n      tag_250\n      jump\t// in\n    tag_506:\n        /* \"#utility.yul\":26485:26624   */\n      swap1\n      pop\n        /* \"#utility.yul\":26212:26631   */\n      swap2\n      swap1\n      pop\n      jump\t// out\n\n    auxdata: 0xa2646970667358221220edaea608e63cc0362ad7d79eb1055f3632762878b78a962a132be11b8957fc2d64736f6c634300081a0033\n}\n",
				"bytecode": {
					"linkReferences": {},
					"object": "608060405234801561000f575f80fd5b50604051612471380380612471833981810160405281019061003191906100dc565b60015f819055508060035f6101000a81548173ffffffffffffffffffffffffffffffffffffffff021916908373ffffffffffffffffffffffffffffffffffffffff16021790555050610107565b5f80fd5b5f73ffffffffffffffffffffffffffffffffffffffff82169050919050565b5f6100ab82610082565b9050919050565b6100bb816100a1565b81146100c5575f80fd5b50565b5f815190506100d6816100b2565b92915050565b5f602082840312156100f1576100f061007e565b5b5f6100fe848285016100c8565b91505092915050565b61235d806101145f395ff3fe608060405234801561000f575f80fd5b5060043610610085575f3560e01c8063a044178011610059578063a044178014610125578063a82ba76f14610141578063a91ffcea1461015d578063b2ddee061461018e57610085565b806207df30146100895780633013ce29146100bb5780638230584d146100d957806388700d1c146100f5575b5f80fd5b6100a3600480360381019061009e91906116f9565b6101aa565b6040516100b2939291906117c5565b60405180910390f35b6100c3610280565b6040516100d0919061185c565b60405180910390f35b6100f360048036038101906100ee91906119a1565b6102a5565b005b61010f600480360381019061010a91906116f9565b6105c3565b60405161011c9190611aae565b60405180910390f35b61013f600480360381019061013a9190611ace565b610718565b005b61015b600480360381019061015691906116f9565b610e7e565b005b61017760048036038101906101729190611b4e565b6112b4565b604051610185929190611b95565b60405180910390f35b6101a860048036038101906101a391906116f9565b61130b565b005b6001602052815f5260405f20602052805f5260405f205f9150915050805f015490806001015f9054906101000a900473ffffffffffffffffffffffffffffffffffffffff16908060020180546101ff90611be9565b80601f016020809104026020016040519081016040528092919081815260200182805461022b90611be9565b80156102765780601f1061024d57610100808354040283529160200191610276565b820191905f5260205f20905b81548152906001019060200180831161025957829003601f168201915b5050505050905083565b60035f9054906101000a900473ffffffffffffffffffffffffffffffffffffffff1681565b5f81116102e7576040517f08c379a00000000000000000000000000000000000000000000000000000000081526004016102de90611c63565b60405180910390fd5b5f6002836040516102f89190611cbb565b90815260200160405180910390206040518060400160405290815f8201548152602001600182015f9054906101000a900473ffffffffffffffffffffffffffffffffffffffff1673ffffffffffffffffffffffffffffffffffffffff1673ffffffffffffffffffffffffffffffffffffffff168152505090505f73ffffffffffffffffffffffffffffffffffffffff16816020015173ffffffffffffffffffffffffffffffffffffffff16146103e3576040517f08c379a00000000000000000000000000000000000000000000000000000000081526004016103da90611d1b565b60405180910390fd5b60035f9054906101000a900473ffffffffffffffffffffffffffffffffffffffff1673ffffffffffffffffffffffffffffffffffffffff166323b872dd3330856040518463ffffffff1660e01b815260040161044193929190611d39565b6020604051808303815f875af115801561045d573d5f803e3d5ffd5b505050506040513d601f19601f820116820180604052508101906104819190611da3565b6104c0576040517f08c379a00000000000000000000000000000000000000000000000000000000081526004016104b790611e18565b60405180910390fd5b60405180604001604052808381526020013373ffffffffffffffffffffffffffffffffffffffff168152506002846040516104fb9190611cbb565b90815260200160405180910390205f820151815f01556020820151816001015f6101000a81548173ffffffffffffffffffffffffffffffffffffffff021916908373ffffffffffffffffffffffffffffffffffffffff1602179055509050503373ffffffffffffffffffffffffffffffffffffffff168360405161057f9190611cbb565b60405180910390207fb9b597ac955508b07ae61704bf8fbb68a1496727b57048867ed6d1f1256c9da6846040516105b69190611e36565b60405180910390a3505050565b6105cb6115ce565b60015f8473ffffffffffffffffffffffffffffffffffffffff1673ffffffffffffffffffffffffffffffffffffffff1681526020019081526020015f205f8381526020019081526020015f206040518060600160405290815f8201548152602001600182015f9054906101000a900473ffffffffffffffffffffffffffffffffffffffff1673ffffffffffffffffffffffffffffffffffffffff1673ffffffffffffffffffffffffffffffffffffffff16815260200160028201805461069090611be9565b80601f01602080910402602001604051908101604052809291908181526020018280546106bc90611be9565b80156107075780601f106106de57610100808354040283529160200191610707565b820191905f5260205f20905b8154815290600101906020018083116106ea57829003601f168201915b505050505081525050905092915050565b8383335f8390508173ffffffffffffffffffffffffffffffffffffffff168173ffffffffffffffffffffffffffffffffffffffff16636352211e856040518263ffffffff1660e01b815260040161076f9190611e36565b602060405180830381865afa15801561078a573d5f803e3d5ffd5b505050506040513d601f19601f820116820180604052508101906107ae9190611e63565b73ffffffffffffffffffffffffffffffffffffffff1614610804576040517f08c379a00000000000000000000000000000000000000000000000000000000081526004016107fb90611ed8565b60405180910390fd5b87875f60015f8473ffffffffffffffffffffffffffffffffffffffff1673ffffffffffffffffffffffffffffffffffffffff1681526020019081526020015f205f8381526020019081526020015f205f015414610896576040517f08c379a000000000000000000000000000000000000000000000000000000000815260040161088d90611f40565b60405180910390fd5b5f88116108d8576040517f08c379a00000000000000000000000000000000000000000000000000000000081526004016108cf90611c63565b60405180910390fd5b5f8a90503073ffffffffffffffffffffffffffffffffffffffff168173ffffffffffffffffffffffffffffffffffffffff1663081812fc8c6040518263ffffffff1660e01b815260040161092c9190611e36565b602060405180830381865afa158015610947573d5f803e3d5ffd5b505050506040513d601f19601f8201168201806040525081019061096b9190611e63565b73ffffffffffffffffffffffffffffffffffffffff16146109c1576040517f08c379a00000000000000000000000000000000000000000000000000000000081526004016109b890611fa8565b60405180910390fd5b60405180606001604052808a81526020013373ffffffffffffffffffffffffffffffffffffffff1681526020018981525060015f8d73ffffffffffffffffffffffffffffffffffffffff1673ffffffffffffffffffffffffffffffffffffffff1681526020019081526020015f205f8c81526020019081526020015f205f820151815f01556020820151816001015f6101000a81548173ffffffffffffffffffffffffffffffffffffffff021916908373ffffffffffffffffffffffffffffffffffffffff1602179055506040820151816002019081610aa1919061215a565b509050503373ffffffffffffffffffffffffffffffffffffffff168a8c73ffffffffffffffffffffffffffffffffffffffff167fd3d530e863bcc675fbaac43a738955b08523ea4c724eb86d062f04c7a9e8517c8c8c604051610b05929190612229565b60405180910390a45f600289604051610b1e9190611cbb565b90815260200160405180910390206040518060400160405290815f8201548152602001600182015f9054906101000a900473ffffffffffffffffffffffffffffffffffffffff1673ffffffffffffffffffffffffffffffffffffffff1673ffffffffffffffffffffffffffffffffffffffff1681525050905089815f015110158015610bda57505f73ffffffffffffffffffffffffffffffffffffffff16816020015173ffffffffffffffffffffffffffffffffffffffff1614155b15610e7057600289604051610bef9190611cbb565b90815260200160405180910390205f8082015f9055600182015f6101000a81549073ffffffffffffffffffffffffffffffffffffffff0219169055505060015f8d73ffffffffffffffffffffffffffffffffffffffff1673ffffffffffffffffffffffffffffffffffffffff1681526020019081526020015f205f8c81526020019081526020015f205f8082015f9055600182015f6101000a81549073ffffffffffffffffffffffffffffffffffffffff0219169055600282015f610cb49190611603565b505060035f9054906101000a900473ffffffffffffffffffffffffffffffffffffffff1673ffffffffffffffffffffffffffffffffffffffff166323b872dd8260200151338d6040518463ffffffff1660e01b8152600401610d1893929190611d39565b6020604051808303815f875af1158015610d34573d5f803e3d5ffd5b505050506040513d601f19601f82011682018060405250810190610d589190611da3565b610d97576040517f08c379a0000000000000000000000000000000000000000000000000000000008152600401610d8e90611e18565b60405180910390fd5b8b73ffffffffffffffffffffffffffffffffffffffff166342842e0e3383602001518e6040518463ffffffff1660e01b8152600401610dd893929190611d39565b5f604051808303815f87803b158015610def575f80fd5b505af1158015610e01573d5f803e3d5ffd5b50505050806020015173ffffffffffffffffffffffffffffffffffffffff168b8d73ffffffffffffffffffffffffffffffffffffffff167f1658be8dbd90f08a0f1b9367eaf7d55760d7addbb8dfe73c43524c77e6febebc8d604051610e679190611e36565b60405180910390a45b505050505050505050505050565b610e86611578565b81815f60015f8473ffffffffffffffffffffffffffffffffffffffff1673ffffffffffffffffffffffffffffffffffffffff1681526020019081526020015f205f8381526020019081526020015f205f015411610f18576040517f08c379a0000000000000000000000000000000000000000000000000000000008152600401610f0f906122a1565b60405180910390fd5b5f60015f8673ffffffffffffffffffffffffffffffffffffffff1673ffffffffffffffffffffffffffffffffffffffff1681526020019081526020015f205f8581526020019081526020015f206040518060600160405290815f8201548152602001600182015f9054906101000a900473ffffffffffffffffffffffffffffffffffffffff1673ffffffffffffffffffffffffffffffffffffffff1673ffffffffffffffffffffffffffffffffffffffff168152602001600282018054610fde90611be9565b80601f016020809104026020016040519081016040528092919081815260200182805461100a90611be9565b80156110555780601f1061102c57610100808354040283529160200191611055565b820191905f5260205f20905b81548152906001019060200180831161103857829003601f168201915b505050505081525050905060035f9054906101000a900473ffffffffffffffffffffffffffffffffffffffff1673ffffffffffffffffffffffffffffffffffffffff166323b872dd338360200151845f01516040518463ffffffff1660e01b81526004016110c593929190611d39565b6020604051808303815f875af11580156110e1573d5f803e3d5ffd5b505050506040513d601f19601f820116820180604052508101906111059190611da3565b611144576040517f08c379a000000000000000000000000000000000000000000000000000000000815260040161113b90611e18565b60405180910390fd5b60015f8673ffffffffffffffffffffffffffffffffffffffff1673ffffffffffffffffffffffffffffffffffffffff1681526020019081526020015f205f8581526020019081526020015f205f8082015f9055600182015f6101000a81549073ffffffffffffffffffffffffffffffffffffffff0219169055600282015f6111cc9190611603565b50508473ffffffffffffffffffffffffffffffffffffffff166342842e0e826020015133876040518463ffffffff1660e01b815260040161120f93929190611d39565b5f604051808303815f87803b158015611226575f80fd5b505af1158015611238573d5f803e3d5ffd5b505050503373ffffffffffffffffffffffffffffffffffffffff16848673ffffffffffffffffffffffffffffffffffffffff167f77c3ced349b08a2af4e9d443fb697437c3197b3095d43fcbdc2cdc97b1a60e0c845f015160405161129d9190611e36565b60405180910390a45050506112b06115c5565b5050565b6002818051602081018201805184825260208301602085012081835280955050505050505f91509050805f015490806001015f9054906101000a900473ffffffffffffffffffffffffffffffffffffffff16905082565b8181335f8390508173ffffffffffffffffffffffffffffffffffffffff168173ffffffffffffffffffffffffffffffffffffffff16636352211e856040518263ffffffff1660e01b81526004016113629190611e36565b602060405180830381865afa15801561137d573d5f803e3d5ffd5b505050506040513d601f19601f820116820180604052508101906113a19190611e63565b73ffffffffffffffffffffffffffffffffffffffff16146113f7576040517f08c379a00000000000000000000000000000000000000000000000000000000081526004016113ee90611ed8565b60405180910390fd5b85855f60015f8473ffffffffffffffffffffffffffffffffffffffff1673ffffffffffffffffffffffffffffffffffffffff1681526020019081526020015f205f8381526020019081526020015f205f015411611489576040517f08c379a0000000000000000000000000000000000000000000000000000000008152600401611480906122a1565b60405180910390fd5b60015f8973ffffffffffffffffffffffffffffffffffffffff1673ffffffffffffffffffffffffffffffffffffffff1681526020019081526020015f205f8881526020019081526020015f205f8082015f9055600182015f6101000a81549073ffffffffffffffffffffffffffffffffffffffff0219169055600282015f6115119190611603565b50503373ffffffffffffffffffffffffffffffffffffffff16878973ffffffffffffffffffffffffffffffffffffffff167f83614a26fd4398c876bd6684c0d04cf2e84ee7e4bc24e8d8888ab0e724bac03260405160405180910390a45050505050505050565b60025f54036115bc576040517f08c379a00000000000000000000000000000000000000000000000000000000081526004016115b390612309565b60405180910390fd5b60025f81905550565b60015f81905550565b60405180606001604052805f81526020015f73ffffffffffffffffffffffffffffffffffffffff168152602001606081525090565b50805461160f90611be9565b5f825580601f10611620575061163d565b601f0160209004905f5260205f209081019061163c9190611640565b5b50565b5b80821115611657575f815f905550600101611641565b5090565b5f604051905090565b5f80fd5b5f80fd5b5f73ffffffffffffffffffffffffffffffffffffffff82169050919050565b5f6116958261166c565b9050919050565b6116a58161168b565b81146116af575f80fd5b50565b5f813590506116c08161169c565b92915050565b5f819050919050565b6116d8816116c6565b81146116e2575f80fd5b50565b5f813590506116f3816116cf565b92915050565b5f806040838503121561170f5761170e611664565b5b5f61171c858286016116b2565b925050602061172d858286016116e5565b9150509250929050565b611740816116c6565b82525050565b61174f8161168b565b82525050565b5f81519050919050565b5f82825260208201905092915050565b8281835e5f83830152505050565b5f601f19601f8301169050919050565b5f61179782611755565b6117a1818561175f565b93506117b181856020860161176f565b6117ba8161177d565b840191505092915050565b5f6060820190506117d85f830186611737565b6117e56020830185611746565b81810360408301526117f7818461178d565b9050949350505050565b5f819050919050565b5f61182461181f61181a8461166c565b611801565b61166c565b9050919050565b5f6118358261180a565b9050919050565b5f6118468261182b565b9050919050565b6118568161183c565b82525050565b5f60208201905061186f5f83018461184d565b92915050565b5f80fd5b5f80fd5b7f4e487b71000000000000000000000000000000000000000000000000000000005f52604160045260245ffd5b6118b38261177d565b810181811067ffffffffffffffff821117156118d2576118d161187d565b5b80604052505050565b5f6118e461165b565b90506118f082826118aa565b919050565b5f67ffffffffffffffff82111561190f5761190e61187d565b5b6119188261177d565b9050602081019050919050565b828183375f83830152505050565b5f611945611940846118f5565b6118db565b90508281526020810184848401111561196157611960611879565b5b61196c848285611925565b509392505050565b5f82601f83011261198857611987611875565b5b8135611998848260208601611933565b91505092915050565b5f80604083850312156119b7576119b6611664565b5b5f83013567ffffffffffffffff8111156119d4576119d3611668565b5b6119e085828601611974565b92505060206119f1858286016116e5565b9150509250929050565b611a04816116c6565b82525050565b611a138161168b565b82525050565b5f82825260208201905092915050565b5f611a3382611755565b611a3d8185611a19565b9350611a4d81856020860161176f565b611a568161177d565b840191505092915050565b5f606083015f830151611a765f8601826119fb565b506020830151611a896020860182611a0a565b5060408301518482036040860152611aa18282611a29565b9150508091505092915050565b5f6020820190508181035f830152611ac68184611a61565b905092915050565b5f805f8060808587031215611ae657611ae5611664565b5b5f611af3878288016116b2565b9450506020611b04878288016116e5565b9350506040611b15878288016116e5565b925050606085013567ffffffffffffffff811115611b3657611b35611668565b5b611b4287828801611974565b91505092959194509250565b5f60208284031215611b6357611b62611664565b5b5f82013567ffffffffffffffff811115611b8057611b7f611668565b5b611b8c84828501611974565b91505092915050565b5f604082019050611ba85f830185611737565b611bb56020830184611746565b9392505050565b7f4e487b71000000000000000000000000000000000000000000000000000000005f52602260045260245ffd5b5f6002820490506001821680611c0057607f821691505b602082108103611c1357611c12611bbc565b5b50919050565b7f5072696365206d7573742062652067726561746572207468616e207a65726f005f82015250565b5f611c4d601f8361175f565b9150611c5882611c19565b602082019050919050565b5f6020820190508181035f830152611c7a81611c41565b9050919050565b5f81905092915050565b5f611c9582611755565b611c9f8185611c81565b9350611caf81856020860161176f565b80840191505092915050565b5f611cc68284611c8b565b915081905092915050565b7f47726f75702062696420616c72656164792065786973747300000000000000005f82015250565b5f611d0560188361175f565b9150611d1082611cd1565b602082019050919050565b5f6020820190508181035f830152611d3281611cf9565b9050919050565b5f606082019050611d4c5f830186611746565b611d596020830185611746565b611d666040830184611737565b949350505050565b5f8115159050919050565b611d8281611d6e565b8114611d8c575f80fd5b50565b5f81519050611d9d81611d79565b92915050565b5f60208284031215611db857611db7611664565b5b5f611dc584828501611d8f565b91505092915050565b7f5061796d656e74207472616e73666572206661696c65640000000000000000005f82015250565b5f611e0260178361175f565b9150611e0d82611dce565b602082019050919050565b5f6020820190508181035f830152611e2f81611df6565b9050919050565b5f602082019050611e495f830184611737565b92915050565b5f81519050611e5d8161169c565b92915050565b5f60208284031215611e7857611e77611664565b5b5f611e8584828501611e4f565b91505092915050565b7f4e6f7420746865206f776e6572206f6620746865204e465400000000000000005f82015250565b5f611ec260188361175f565b9150611ecd82611e8e565b602082019050919050565b5f6020820190508181035f830152611eef81611eb6565b9050919050565b7f4e465420697320616c7265616479206c697374656400000000000000000000005f82015250565b5f611f2a60158361175f565b9150611f3582611ef6565b602082019050919050565b5f6020820190508181035f830152611f5781611f1e565b9050919050565b7f4d61726b6574706c616365206e6f7420617070726f76656400000000000000005f82015250565b5f611f9260188361175f565b9150611f9d82611f5e565b602082019050919050565b5f6020820190508181035f830152611fbf81611f86565b9050919050565b5f819050815f5260205f209050919050565b5f6020601f8301049050919050565b5f82821b905092915050565b5f600883026120227fffffffffffffffffffffffffffffffffffffffffffffffffffffffffffffffff82611fe7565b61202c8683611fe7565b95508019841693508086168417925050509392505050565b5f61205e612059612054846116c6565b611801565b6116c6565b9050919050565b5f819050919050565b61207783612044565b61208b61208382612065565b848454611ff3565b825550505050565b5f90565b61209f612093565b6120aa81848461206e565b505050565b5b818110156120cd576120c25f82612097565b6001810190506120b0565b5050565b601f821115612112576120e381611fc6565b6120ec84611fd8565b810160208510156120fb578190505b61210f61210785611fd8565b8301826120af565b50505b505050565b5f82821c905092915050565b5f6121325f1984600802612117565b1980831691505092915050565b5f61214a8383612123565b9150826002028217905092915050565b61216382611755565b67ffffffffffffffff81111561217c5761217b61187d565b5b6121868254611be9565b6121918282856120d1565b5f60209050601f8311600181146121c2575f84156121b0578287015190505b6121ba858261213f565b865550612221565b601f1984166121d086611fc6565b5f5b828110156121f7578489015182556001820191506020850194506020810190506121d2565b868310156122145784890151612210601f891682612123565b8355505b6001600288020188555050505b505050505050565b5f60408201905061223c5f830185611737565b818103602083015261224e818461178d565b90509392505050565b7f4e4654206973206e6f74206c69737465640000000000000000000000000000005f82015250565b5f61228b60118361175f565b915061229682612257565b602082019050919050565b5f6020820190508181035f8301526122b88161227f565b9050919050565b7f5265656e7472616e637947756172643a207265656e7472616e742063616c6c005f82015250565b5f6122f3601f8361175f565b91506122fe826122bf565b602082019050919050565b5f6020820190508181035f830152612320816122e7565b905091905056fea2646970667358221220edaea608e63cc0362ad7d79eb1055f3632762878b78a962a132be11b8957fc2d64736f6c634300081a0033",
					"opcodes": "PUSH1 0x80 PUSH1 0x40 MSTORE CALLVALUE DUP1 ISZERO PUSH2 0xF JUMPI PUSH0 DUP1 REVERT JUMPDEST POP PUSH1 0x40 MLOAD PUSH2 0x2471 CODESIZE SUB DUP1 PUSH2 0x2471 DUP4 CODECOPY DUP2 DUP2 ADD PUSH1 0x40 MSTORE DUP2 ADD SWAP1 PUSH2 0x31 SWAP2 SWAP1 PUSH2 0xDC JUMP JUMPDEST PUSH1 0x1 PUSH0 DUP2 SWAP1 SSTORE POP DUP1 PUSH1 0x3 PUSH0 PUSH2 0x100 EXP DUP2 SLOAD DUP2 PUSH20 0xFFFFFFFFFFFFFFFFFFFFFFFFFFFFFFFFFFFFFFFF MUL NOT AND SWAP1 DUP4 PUSH20 0xFFFFFFFFFFFFFFFFFFFFFFFFFFFFFFFFFFFFFFFF AND MUL OR SWAP1 SSTORE POP POP PUSH2 0x107 JUMP JUMPDEST PUSH0 DUP1 REVERT JUMPDEST PUSH0 PUSH20 0xFFFFFFFFFFFFFFFFFFFFFFFFFFFFFFFFFFFFFFFF DUP3 AND SWAP1 POP SWAP2 SWAP1 POP JUMP JUMPDEST PUSH0 PUSH2 0xAB DUP3 PUSH2 0x82 JUMP JUMPDEST SWAP1 POP SWAP2 SWAP1 POP JUMP JUMPDEST PUSH2 0xBB DUP2 PUSH2 0xA1 JUMP JUMPDEST DUP2 EQ PUSH2 0xC5 JUMPI PUSH0 DUP1 REVERT JUMPDEST POP JUMP JUMPDEST PUSH0 DUP2 MLOAD SWAP1 POP PUSH2 0xD6 DUP2 PUSH2 0xB2 JUMP JUMPDEST SWAP3 SWAP2 POP POP JUMP JUMPDEST PUSH0 PUSH1 0x20 DUP3 DUP5 SUB SLT ISZERO PUSH2 0xF1 JUMPI PUSH2 0xF0 PUSH2 0x7E JUMP JUMPDEST JUMPDEST PUSH0 PUSH2 0xFE DUP5 DUP3 DUP6 ADD PUSH2 0xC8 JUMP JUMPDEST SWAP2 POP POP SWAP3 SWAP2 POP POP JUMP JUMPDEST PUSH2 0x235D DUP1 PUSH2 0x114 PUSH0 CODECOPY PUSH0 RETURN INVALID PUSH1 0x80 PUSH1 0x40 MSTORE CALLVALUE DUP1 ISZERO PUSH2 0xF JUMPI PUSH0 DUP1 REVERT JUMPDEST POP PUSH1 0x4 CALLDATASIZE LT PUSH2 0x85 JUMPI PUSH0 CALLDATALOAD PUSH1 0xE0 SHR DUP1 PUSH4 0xA0441780 GT PUSH2 0x59 JUMPI DUP1 PUSH4 0xA0441780 EQ PUSH2 0x125 JUMPI DUP1 PUSH4 0xA82BA76F EQ PUSH2 0x141 JUMPI DUP1 PUSH4 0xA91FFCEA EQ PUSH2 0x15D JUMPI DUP1 PUSH4 0xB2DDEE06 EQ PUSH2 0x18E JUMPI PUSH2 0x85 JUMP JUMPDEST DUP1 PUSH3 0x7DF30 EQ PUSH2 0x89 JUMPI DUP1 PUSH4 0x3013CE29 EQ PUSH2 0xBB JUMPI DUP1 PUSH4 0x8230584D EQ PUSH2 0xD9 JUMPI DUP1 PUSH4 0x88700D1C EQ PUSH2 0xF5 JUMPI JUMPDEST PUSH0 DUP1 REVERT JUMPDEST PUSH2 0xA3 PUSH1 0x4 DUP1 CALLDATASIZE SUB DUP2 ADD SWAP1 PUSH2 0x9E SWAP2 SWAP1 PUSH2 0x16F9 JUMP JUMPDEST PUSH2 0x1AA JUMP JUMPDEST PUSH1 0x40 MLOAD PUSH2 0xB2 SWAP4 SWAP3 SWAP2 SWAP1 PUSH2 0x17C5 JUMP JUMPDEST PUSH1 0x40 MLOAD DUP1 SWAP2 SUB SWAP1 RETURN JUMPDEST PUSH2 0xC3 PUSH2 0x280 JUMP JUMPDEST PUSH1 0x40 MLOAD PUSH2 0xD0 SWAP2 SWAP1 PUSH2 0x185C JUMP JUMPDEST PUSH1 0x40 MLOAD DUP1 SWAP2 SUB SWAP1 RETURN JUMPDEST PUSH2 0xF3 PUSH1 0x4 DUP1 CALLDATASIZE SUB DUP2 ADD SWAP1 PUSH2 0xEE SWAP2 SWAP1 PUSH2 0x19A1 JUMP JUMPDEST PUSH2 0x2A5 JUMP JUMPDEST STOP JUMPDEST PUSH2 0x10F PUSH1 0x4 DUP1 CALLDATASIZE SUB DUP2 ADD SWAP1 PUSH2 0x10A SWAP2 SWAP1 PUSH2 0x16F9 JUMP JUMPDEST PUSH2 0x5C3 JUMP JUMPDEST PUSH1 0x40 MLOAD PUSH2 0x11C SWAP2 SWAP1 PUSH2 0x1AAE JUMP JUMPDEST PUSH1 0x40 MLOAD DUP1 SWAP2 SUB SWAP1 RETURN JUMPDEST PUSH2 0x13F PUSH1 0x4 DUP1 CALLDATASIZE SUB DUP2 ADD SWAP1 PUSH2 0x13A SWAP2 SWAP1 PUSH2 0x1ACE JUMP JUMPDEST PUSH2 0x718 JUMP JUMPDEST STOP JUMPDEST PUSH2 0x15B PUSH1 0x4 DUP1 CALLDATASIZE SUB DUP2 ADD SWAP1 PUSH2 0x156 SWAP2 SWAP1 PUSH2 0x16F9 JUMP JUMPDEST PUSH2 0xE7E JUMP JUMPDEST STOP JUMPDEST PUSH2 0x177 PUSH1 0x4 DUP1 CALLDATASIZE SUB DUP2 ADD SWAP1 PUSH2 0x172 SWAP2 SWAP1 PUSH2 0x1B4E JUMP JUMPDEST PUSH2 0x12B4 JUMP JUMPDEST PUSH1 0x40 MLOAD PUSH2 0x185 SWAP3 SWAP2 SWAP1 PUSH2 0x1B95 JUMP JUMPDEST PUSH1 0x40 MLOAD DUP1 SWAP2 SUB SWAP1 RETURN JUMPDEST PUSH2 0x1A8 PUSH1 0x4 DUP1 CALLDATASIZE SUB DUP2 ADD SWAP1 PUSH2 0x1A3 SWAP2 SWAP1 PUSH2 0x16F9 JUMP JUMPDEST PUSH2 0x130B JUMP JUMPDEST STOP JUMPDEST PUSH1 0x1 PUSH1 0x20 MSTORE DUP2 PUSH0 MSTORE PUSH1 0x40 PUSH0 KECCAK256 PUSH1 0x20 MSTORE DUP1 PUSH0 MSTORE PUSH1 0x40 PUSH0 KECCAK256 PUSH0 SWAP2 POP SWAP2 POP POP DUP1 PUSH0 ADD SLOAD SWAP1 DUP1 PUSH1 0x1 ADD PUSH0 SWAP1 SLOAD SWAP1 PUSH2 0x100 EXP SWAP1 DIV PUSH20 0xFFFFFFFFFFFFFFFFFFFFFFFFFFFFFFFFFFFFFFFF AND SWAP1 DUP1 PUSH1 0x2 ADD DUP1 SLOAD PUSH2 0x1FF SWAP1 PUSH2 0x1BE9 JUMP JUMPDEST DUP1 PUSH1 0x1F ADD PUSH1 0x20 DUP1 SWAP2 DIV MUL PUSH1 0x20 ADD PUSH1 0x40 MLOAD SWAP1 DUP2 ADD PUSH1 0x40 MSTORE DUP1 SWAP3 SWAP2 SWAP1 DUP2 DUP2 MSTORE PUSH1 0x20 ADD DUP3 DUP1 SLOAD PUSH2 0x22B SWAP1 PUSH2 0x1BE9 JUMP JUMPDEST DUP1 ISZERO PUSH2 0x276 JUMPI DUP1 PUSH1 0x1F LT PUSH2 0x24D JUMPI PUSH2 0x100 DUP1 DUP4 SLOAD DIV MUL DUP4 MSTORE SWAP2 PUSH1 0x20 ADD SWAP2 PUSH2 0x276 JUMP JUMPDEST DUP3 ADD SWAP2 SWAP1 PUSH0 MSTORE PUSH1 0x20 PUSH0 KECCAK256 SWAP1 JUMPDEST DUP2 SLOAD DUP2 MSTORE SWAP1 PUSH1 0x1 ADD SWAP1 PUSH1 0x20 ADD DUP1 DUP4 GT PUSH2 0x259 JUMPI DUP3 SWAP1 SUB PUSH1 0x1F AND DUP3 ADD SWAP2 JUMPDEST POP POP POP POP POP SWAP1 POP DUP4 JUMP JUMPDEST PUSH1 0x3 PUSH0 SWAP1 SLOAD SWAP1 PUSH2 0x100 EXP SWAP1 DIV PUSH20 0xFFFFFFFFFFFFFFFFFFFFFFFFFFFFFFFFFFFFFFFF AND DUP2 JUMP JUMPDEST PUSH0 DUP2 GT PUSH2 0x2E7 JUMPI PUSH1 0x40 MLOAD PUSH32 0x8C379A000000000000000000000000000000000000000000000000000000000 DUP2 MSTORE PUSH1 0x4 ADD PUSH2 0x2DE SWAP1 PUSH2 0x1C63 JUMP JUMPDEST PUSH1 0x40 MLOAD DUP1 SWAP2 SUB SWAP1 REVERT JUMPDEST PUSH0 PUSH1 0x2 DUP4 PUSH1 0x40 MLOAD PUSH2 0x2F8 SWAP2 SWAP1 PUSH2 0x1CBB JUMP JUMPDEST SWAP1 DUP2 MSTORE PUSH1 0x20 ADD PUSH1 0x40 MLOAD DUP1 SWAP2 SUB SWAP1 KECCAK256 PUSH1 0x40 MLOAD DUP1 PUSH1 0x40 ADD PUSH1 0x40 MSTORE SWAP1 DUP2 PUSH0 DUP3 ADD SLOAD DUP2 MSTORE PUSH1 0x20 ADD PUSH1 0x1 DUP3 ADD PUSH0 SWAP1 SLOAD SWAP1 PUSH2 0x100 EXP SWAP1 DIV PUSH20 0xFFFFFFFFFFFFFFFFFFFFFFFFFFFFFFFFFFFFFFFF AND PUSH20 0xFFFFFFFFFFFFFFFFFFFFFFFFFFFFFFFFFFFFFFFF AND PUSH20 0xFFFFFFFFFFFFFFFFFFFFFFFFFFFFFFFFFFFFFFFF AND DUP2 MSTORE POP POP SWAP1 POP PUSH0 PUSH20 0xFFFFFFFFFFFFFFFFFFFFFFFFFFFFFFFFFFFFFFFF AND DUP2 PUSH1 0x20 ADD MLOAD PUSH20 0xFFFFFFFFFFFFFFFFFFFFFFFFFFFFFFFFFFFFFFFF AND EQ PUSH2 0x3E3 JUMPI PUSH1 0x40 MLOAD PUSH32 0x8C379A000000000000000000000000000000000000000000000000000000000 DUP2 MSTORE PUSH1 0x4 ADD PUSH2 0x3DA SWAP1 PUSH2 0x1D1B JUMP JUMPDEST PUSH1 0x40 MLOAD DUP1 SWAP2 SUB SWAP1 REVERT JUMPDEST PUSH1 0x3 PUSH0 SWAP1 SLOAD SWAP1 PUSH2 0x100 EXP SWAP1 DIV PUSH20 0xFFFFFFFFFFFFFFFFFFFFFFFFFFFFFFFFFFFFFFFF AND PUSH20 0xFFFFFFFFFFFFFFFFFFFFFFFFFFFFFFFFFFFFFFFF AND PUSH4 0x23B872DD CALLER ADDRESS DUP6 PUSH1 0x40 MLOAD DUP5 PUSH4 0xFFFFFFFF AND PUSH1 0xE0 SHL DUP2 MSTORE PUSH1 0x4 ADD PUSH2 0x441 SWAP4 SWAP3 SWAP2 SWAP1 PUSH2 0x1D39 JUMP JUMPDEST PUSH1 0x20 PUSH1 0x40 MLOAD DUP1 DUP4 SUB DUP2 PUSH0 DUP8 GAS CALL ISZERO DUP1 ISZERO PUSH2 0x45D JUMPI RETURNDATASIZE PUSH0 DUP1 RETURNDATACOPY RETURNDATASIZE PUSH0 REVERT JUMPDEST POP POP POP POP PUSH1 0x40 MLOAD RETURNDATASIZE PUSH1 0x1F NOT PUSH1 0x1F DUP3 ADD AND DUP3 ADD DUP1 PUSH1 0x40 MSTORE POP DUP2 ADD SWAP1 PUSH2 0x481 SWAP2 SWAP1 PUSH2 0x1DA3 JUMP JUMPDEST PUSH2 0x4C0 JUMPI PUSH1 0x40 MLOAD PUSH32 0x8C379A000000000000000000000000000000000000000000000000000000000 DUP2 MSTORE PUSH1 0x4 ADD PUSH2 0x4B7 SWAP1 PUSH2 0x1E18 JUMP JUMPDEST PUSH1 0x40 MLOAD DUP1 SWAP2 SUB SWAP1 REVERT JUMPDEST PUSH1 0x40 MLOAD DUP1 PUSH1 0x40 ADD PUSH1 0x40 MSTORE DUP1 DUP4 DUP2 MSTORE PUSH1 0x20 ADD CALLER PUSH20 0xFFFFFFFFFFFFFFFFFFFFFFFFFFFFFFFFFFFFFFFF AND DUP2 MSTORE POP PUSH1 0x2 DUP5 PUSH1 0x40 MLOAD PUSH2 0x4FB SWAP2 SWAP1 PUSH2 0x1CBB JUMP JUMPDEST SWAP1 DUP2 MSTORE PUSH1 0x20 ADD PUSH1 0x40 MLOAD DUP1 SWAP2 SUB SWAP1 KECCAK256 PUSH0 DUP3 ADD MLOAD DUP2 PUSH0 ADD SSTORE PUSH1 0x20 DUP3 ADD MLOAD DUP2 PUSH1 0x1 ADD PUSH0 PUSH2 0x100 EXP DUP2 SLOAD DUP2 PUSH20 0xFFFFFFFFFFFFFFFFFFFFFFFFFFFFFFFFFFFFFFFF MUL NOT AND SWAP1 DUP4 PUSH20 0xFFFFFFFFFFFFFFFFFFFFFFFFFFFFFFFFFFFFFFFF AND MUL OR SWAP1 SSTORE POP SWAP1 POP POP CALLER PUSH20 0xFFFFFFFFFFFFFFFFFFFFFFFFFFFFFFFFFFFFFFFF AND DUP4 PUSH1 0x40 MLOAD PUSH2 0x57F SWAP2 SWAP1 PUSH2 0x1CBB JUMP JUMPDEST PUSH1 0x40 MLOAD DUP1 SWAP2 SUB SWAP1 KECCAK256 PUSH32 0xB9B597AC955508B07AE61704BF8FBB68A1496727B57048867ED6D1F1256C9DA6 DUP5 PUSH1 0x40 MLOAD PUSH2 0x5B6 SWAP2 SWAP1 PUSH2 0x1E36 JUMP JUMPDEST PUSH1 0x40 MLOAD DUP1 SWAP2 SUB SWAP1 LOG3 POP POP POP JUMP JUMPDEST PUSH2 0x5CB PUSH2 0x15CE JUMP JUMPDEST PUSH1 0x1 PUSH0 DUP5 PUSH20 0xFFFFFFFFFFFFFFFFFFFFFFFFFFFFFFFFFFFFFFFF AND PUSH20 0xFFFFFFFFFFFFFFFFFFFFFFFFFFFFFFFFFFFFFFFF AND DUP2 MSTORE PUSH1 0x20 ADD SWAP1 DUP2 MSTORE PUSH1 0x20 ADD PUSH0 KECCAK256 PUSH0 DUP4 DUP2 MSTORE PUSH1 0x20 ADD SWAP1 DUP2 MSTORE PUSH1 0x20 ADD PUSH0 KECCAK256 PUSH1 0x40 MLOAD DUP1 PUSH1 0x60 ADD PUSH1 0x40 MSTORE SWAP1 DUP2 PUSH0 DUP3 ADD SLOAD DUP2 MSTORE PUSH1 0x20 ADD PUSH1 0x1 DUP3 ADD PUSH0 SWAP1 SLOAD SWAP1 PUSH2 0x100 EXP SWAP1 DIV PUSH20 0xFFFFFFFFFFFFFFFFFFFFFFFFFFFFFFFFFFFFFFFF AND PUSH20 0xFFFFFFFFFFFFFFFFFFFFFFFFFFFFFFFFFFFFFFFF AND PUSH20 0xFFFFFFFFFFFFFFFFFFFFFFFFFFFFFFFFFFFFFFFF AND DUP2 MSTORE PUSH1 0x20 ADD PUSH1 0x2 DUP3 ADD DUP1 SLOAD PUSH2 0x690 SWAP1 PUSH2 0x1BE9 JUMP JUMPDEST DUP1 PUSH1 0x1F ADD PUSH1 0x20 DUP1 SWAP2 DIV MUL PUSH1 0x20 ADD PUSH1 0x40 MLOAD SWAP1 DUP2 ADD PUSH1 0x40 MSTORE DUP1 SWAP3 SWAP2 SWAP1 DUP2 DUP2 MSTORE PUSH1 0x20 ADD DUP3 DUP1 SLOAD PUSH2 0x6BC SWAP1 PUSH2 0x1BE9 JUMP JUMPDEST DUP1 ISZERO PUSH2 0x707 JUMPI DUP1 PUSH1 0x1F LT PUSH2 0x6DE JUMPI PUSH2 0x100 DUP1 DUP4 SLOAD DIV MUL DUP4 MSTORE SWAP2 PUSH1 0x20 ADD SWAP2 PUSH2 0x707 JUMP JUMPDEST DUP3 ADD SWAP2 SWAP1 PUSH0 MSTORE PUSH1 0x20 PUSH0 KECCAK256 SWAP1 JUMPDEST DUP2 SLOAD DUP2 MSTORE SWAP1 PUSH1 0x1 ADD SWAP1 PUSH1 0x20 ADD DUP1 DUP4 GT PUSH2 0x6EA JUMPI DUP3 SWAP1 SUB PUSH1 0x1F AND DUP3 ADD SWAP2 JUMPDEST POP POP POP POP POP DUP2 MSTORE POP POP SWAP1 POP SWAP3 SWAP2 POP POP JUMP JUMPDEST DUP4 DUP4 CALLER PUSH0 DUP4 SWAP1 POP DUP2 PUSH20 0xFFFFFFFFFFFFFFFFFFFFFFFFFFFFFFFFFFFFFFFF AND DUP2 PUSH20 0xFFFFFFFFFFFFFFFFFFFFFFFFFFFFFFFFFFFFFFFF AND PUSH4 0x6352211E DUP6 PUSH1 0x40 MLOAD DUP3 PUSH4 0xFFFFFFFF AND PUSH1 0xE0 SHL DUP2 MSTORE PUSH1 0x4 ADD PUSH2 0x76F SWAP2 SWAP1 PUSH2 0x1E36 JUMP JUMPDEST PUSH1 0x20 PUSH1 0x40 MLOAD DUP1 DUP4 SUB DUP2 DUP7 GAS STATICCALL ISZERO DUP1 ISZERO PUSH2 0x78A JUMPI RETURNDATASIZE PUSH0 DUP1 RETURNDATACOPY RETURNDATASIZE PUSH0 REVERT JUMPDEST POP POP POP POP PUSH1 0x40 MLOAD RETURNDATASIZE PUSH1 0x1F NOT PUSH1 0x1F DUP3 ADD AND DUP3 ADD DUP1 PUSH1 0x40 MSTORE POP DUP2 ADD SWAP1 PUSH2 0x7AE SWAP2 SWAP1 PUSH2 0x1E63 JUMP JUMPDEST PUSH20 0xFFFFFFFFFFFFFFFFFFFFFFFFFFFFFFFFFFFFFFFF AND EQ PUSH2 0x804 JUMPI PUSH1 0x40 MLOAD PUSH32 0x8C379A000000000000000000000000000000000000000000000000000000000 DUP2 MSTORE PUSH1 0x4 ADD PUSH2 0x7FB SWAP1 PUSH2 0x1ED8 JUMP JUMPDEST PUSH1 0x40 MLOAD DUP1 SWAP2 SUB SWAP1 REVERT JUMPDEST DUP8 DUP8 PUSH0 PUSH1 0x1 PUSH0 DUP5 PUSH20 0xFFFFFFFFFFFFFFFFFFFFFFFFFFFFFFFFFFFFFFFF AND PUSH20 0xFFFFFFFFFFFFFFFFFFFFFFFFFFFFFFFFFFFFFFFF AND DUP2 MSTORE PUSH1 0x20 ADD SWAP1 DUP2 MSTORE PUSH1 0x20 ADD PUSH0 KECCAK256 PUSH0 DUP4 DUP2 MSTORE PUSH1 0x20 ADD SWAP1 DUP2 MSTORE PUSH1 0x20 ADD PUSH0 KECCAK256 PUSH0 ADD SLOAD EQ PUSH2 0x896 JUMPI PUSH1 0x40 MLOAD PUSH32 0x8C379A000000000000000000000000000000000000000000000000000000000 DUP2 MSTORE PUSH1 0x4 ADD PUSH2 0x88D SWAP1 PUSH2 0x1F40 JUMP JUMPDEST PUSH1 0x40 MLOAD DUP1 SWAP2 SUB SWAP1 REVERT JUMPDEST PUSH0 DUP9 GT PUSH2 0x8D8 JUMPI PUSH1 0x40 MLOAD PUSH32 0x8C379A000000000000000000000000000000000000000000000000000000000 DUP2 MSTORE PUSH1 0x4 ADD PUSH2 0x8CF SWAP1 PUSH2 0x1C63 JUMP JUMPDEST PUSH1 0x40 MLOAD DUP1 SWAP2 SUB SWAP1 REVERT JUMPDEST PUSH0 DUP11 SWAP1 POP ADDRESS PUSH20 0xFFFFFFFFFFFFFFFFFFFFFFFFFFFFFFFFFFFFFFFF AND DUP2 PUSH20 0xFFFFFFFFFFFFFFFFFFFFFFFFFFFFFFFFFFFFFFFF AND PUSH4 0x81812FC DUP13 PUSH1 0x40 MLOAD DUP3 PUSH4 0xFFFFFFFF AND PUSH1 0xE0 SHL DUP2 MSTORE PUSH1 0x4 ADD PUSH2 0x92C SWAP2 SWAP1 PUSH2 0x1E36 JUMP JUMPDEST PUSH1 0x20 PUSH1 0x40 MLOAD DUP1 DUP4 SUB DUP2 DUP7 GAS STATICCALL ISZERO DUP1 ISZERO PUSH2 0x947 JUMPI RETURNDATASIZE PUSH0 DUP1 RETURNDATACOPY RETURNDATASIZE PUSH0 REVERT JUMPDEST POP POP POP POP PUSH1 0x40 MLOAD RETURNDATASIZE PUSH1 0x1F NOT PUSH1 0x1F DUP3 ADD AND DUP3 ADD DUP1 PUSH1 0x40 MSTORE POP DUP2 ADD SWAP1 PUSH2 0x96B SWAP2 SWAP1 PUSH2 0x1E63 JUMP JUMPDEST PUSH20 0xFFFFFFFFFFFFFFFFFFFFFFFFFFFFFFFFFFFFFFFF AND EQ PUSH2 0x9C1 JUMPI PUSH1 0x40 MLOAD PUSH32 0x8C379A000000000000000000000000000000000000000000000000000000000 DUP2 MSTORE PUSH1 0x4 ADD PUSH2 0x9B8 SWAP1 PUSH2 0x1FA8 JUMP JUMPDEST PUSH1 0x40 MLOAD DUP1 SWAP2 SUB SWAP1 REVERT JUMPDEST PUSH1 0x40 MLOAD DUP1 PUSH1 0x60 ADD PUSH1 0x40 MSTORE DUP1 DUP11 DUP2 MSTORE PUSH1 0x20 ADD CALLER PUSH20 0xFFFFFFFFFFFFFFFFFFFFFFFFFFFFFFFFFFFFFFFF AND DUP2 MSTORE PUSH1 0x20 ADD DUP10 DUP2 MSTORE POP PUSH1 0x1 PUSH0 DUP14 PUSH20 0xFFFFFFFFFFFFFFFFFFFFFFFFFFFFFFFFFFFFFFFF AND PUSH20 0xFFFFFFFFFFFFFFFFFFFFFFFFFFFFFFFFFFFFFFFF AND DUP2 MSTORE PUSH1 0x20 ADD SWAP1 DUP2 MSTORE PUSH1 0x20 ADD PUSH0 KECCAK256 PUSH0 DUP13 DUP2 MSTORE PUSH1 0x20 ADD SWAP1 DUP2 MSTORE PUSH1 0x20 ADD PUSH0 KECCAK256 PUSH0 DUP3 ADD MLOAD DUP2 PUSH0 ADD SSTORE PUSH1 0x20 DUP3 ADD MLOAD DUP2 PUSH1 0x1 ADD PUSH0 PUSH2 0x100 EXP DUP2 SLOAD DUP2 PUSH20 0xFFFFFFFFFFFFFFFFFFFFFFFFFFFFFFFFFFFFFFFF MUL NOT AND SWAP1 DUP4 PUSH20 0xFFFFFFFFFFFFFFFFFFFFFFFFFFFFFFFFFFFFFFFF AND MUL OR SWAP1 SSTORE POP PUSH1 0x40 DUP3 ADD MLOAD DUP2 PUSH1 0x2 ADD SWAP1 DUP2 PUSH2 0xAA1 SWAP2 SWAP1 PUSH2 0x215A JUMP JUMPDEST POP SWAP1 POP POP CALLER PUSH20 0xFFFFFFFFFFFFFFFFFFFFFFFFFFFFFFFFFFFFFFFF AND DUP11 DUP13 PUSH20 0xFFFFFFFFFFFFFFFFFFFFFFFFFFFFFFFFFFFFFFFF AND PUSH32 0xD3D530E863BCC675FBAAC43A738955B08523EA4C724EB86D062F04C7A9E8517C DUP13 DUP13 PUSH1 0x40 MLOAD PUSH2 0xB05 SWAP3 SWAP2 SWAP1 PUSH2 0x2229 JUMP JUMPDEST PUSH1 0x40 MLOAD DUP1 SWAP2 SUB SWAP1 LOG4 PUSH0 PUSH1 0x2 DUP10 PUSH1 0x40 MLOAD PUSH2 0xB1E SWAP2 SWAP1 PUSH2 0x1CBB JUMP JUMPDEST SWAP1 DUP2 MSTORE PUSH1 0x20 ADD PUSH1 0x40 MLOAD DUP1 SWAP2 SUB SWAP1 KECCAK256 PUSH1 0x40 MLOAD DUP1 PUSH1 0x40 ADD PUSH1 0x40 MSTORE SWAP1 DUP2 PUSH0 DUP3 ADD SLOAD DUP2 MSTORE PUSH1 0x20 ADD PUSH1 0x1 DUP3 ADD PUSH0 SWAP1 SLOAD SWAP1 PUSH2 0x100 EXP SWAP1 DIV PUSH20 0xFFFFFFFFFFFFFFFFFFFFFFFFFFFFFFFFFFFFFFFF AND PUSH20 0xFFFFFFFFFFFFFFFFFFFFFFFFFFFFFFFFFFFFFFFF AND PUSH20 0xFFFFFFFFFFFFFFFFFFFFFFFFFFFFFFFFFFFFFFFF AND DUP2 MSTORE POP POP SWAP1 POP DUP10 DUP2 PUSH0 ADD MLOAD LT ISZERO DUP1 ISZERO PUSH2 0xBDA JUMPI POP PUSH0 PUSH20 0xFFFFFFFFFFFFFFFFFFFFFFFFFFFFFFFFFFFFFFFF AND DUP2 PUSH1 0x20 ADD MLOAD PUSH20 0xFFFFFFFFFFFFFFFFFFFFFFFFFFFFFFFFFFFFFFFF AND EQ ISZERO JUMPDEST ISZERO PUSH2 0xE70 JUMPI PUSH1 0x2 DUP10 PUSH1 0x40 MLOAD PUSH2 0xBEF SWAP2 SWAP1 PUSH2 0x1CBB JUMP JUMPDEST SWAP1 DUP2 MSTORE PUSH1 0x20 ADD PUSH1 0x40 MLOAD DUP1 SWAP2 SUB SWAP1 KECCAK256 PUSH0 DUP1 DUP3 ADD PUSH0 SWAP1 SSTORE PUSH1 0x1 DUP3 ADD PUSH0 PUSH2 0x100 EXP DUP2 SLOAD SWAP1 PUSH20 0xFFFFFFFFFFFFFFFFFFFFFFFFFFFFFFFFFFFFFFFF MUL NOT AND SWAP1 SSTORE POP POP PUSH1 0x1 PUSH0 DUP14 PUSH20 0xFFFFFFFFFFFFFFFFFFFFFFFFFFFFFFFFFFFFFFFF AND PUSH20 0xFFFFFFFFFFFFFFFFFFFFFFFFFFFFFFFFFFFFFFFF AND DUP2 MSTORE PUSH1 0x20 ADD SWAP1 DUP2 MSTORE PUSH1 0x20 ADD PUSH0 KECCAK256 PUSH0 DUP13 DUP2 MSTORE PUSH1 0x20 ADD SWAP1 DUP2 MSTORE PUSH1 0x20 ADD PUSH0 KECCAK256 PUSH0 DUP1 DUP3 ADD PUSH0 SWAP1 SSTORE PUSH1 0x1 DUP3 ADD PUSH0 PUSH2 0x100 EXP DUP2 SLOAD SWAP1 PUSH20 0xFFFFFFFFFFFFFFFFFFFFFFFFFFFFFFFFFFFFFFFF MUL NOT AND SWAP1 SSTORE PUSH1 0x2 DUP3 ADD PUSH0 PUSH2 0xCB4 SWAP2 SWAP1 PUSH2 0x1603 JUMP JUMPDEST POP POP PUSH1 0x3 PUSH0 SWAP1 SLOAD SWAP1 PUSH2 0x100 EXP SWAP1 DIV PUSH20 0xFFFFFFFFFFFFFFFFFFFFFFFFFFFFFFFFFFFFFFFF AND PUSH20 0xFFFFFFFFFFFFFFFFFFFFFFFFFFFFFFFFFFFFFFFF AND PUSH4 0x23B872DD DUP3 PUSH1 0x20 ADD MLOAD CALLER DUP14 PUSH1 0x40 MLOAD DUP5 PUSH4 0xFFFFFFFF AND PUSH1 0xE0 SHL DUP2 MSTORE PUSH1 0x4 ADD PUSH2 0xD18 SWAP4 SWAP3 SWAP2 SWAP1 PUSH2 0x1D39 JUMP JUMPDEST PUSH1 0x20 PUSH1 0x40 MLOAD DUP1 DUP4 SUB DUP2 PUSH0 DUP8 GAS CALL ISZERO DUP1 ISZERO PUSH2 0xD34 JUMPI RETURNDATASIZE PUSH0 DUP1 RETURNDATACOPY RETURNDATASIZE PUSH0 REVERT JUMPDEST POP POP POP POP PUSH1 0x40 MLOAD RETURNDATASIZE PUSH1 0x1F NOT PUSH1 0x1F DUP3 ADD AND DUP3 ADD DUP1 PUSH1 0x40 MSTORE POP DUP2 ADD SWAP1 PUSH2 0xD58 SWAP2 SWAP1 PUSH2 0x1DA3 JUMP JUMPDEST PUSH2 0xD97 JUMPI PUSH1 0x40 MLOAD PUSH32 0x8C379A000000000000000000000000000000000000000000000000000000000 DUP2 MSTORE PUSH1 0x4 ADD PUSH2 0xD8E SWAP1 PUSH2 0x1E18 JUMP JUMPDEST PUSH1 0x40 MLOAD DUP1 SWAP2 SUB SWAP1 REVERT JUMPDEST DUP12 PUSH20 0xFFFFFFFFFFFFFFFFFFFFFFFFFFFFFFFFFFFFFFFF AND PUSH4 0x42842E0E CALLER DUP4 PUSH1 0x20 ADD MLOAD DUP15 PUSH1 0x40 MLOAD DUP5 PUSH4 0xFFFFFFFF AND PUSH1 0xE0 SHL DUP2 MSTORE PUSH1 0x4 ADD PUSH2 0xDD8 SWAP4 SWAP3 SWAP2 SWAP1 PUSH2 0x1D39 JUMP JUMPDEST PUSH0 PUSH1 0x40 MLOAD DUP1 DUP4 SUB DUP2 PUSH0 DUP8 DUP1 EXTCODESIZE ISZERO DUP1 ISZERO PUSH2 0xDEF JUMPI PUSH0 DUP1 REVERT JUMPDEST POP GAS CALL ISZERO DUP1 ISZERO PUSH2 0xE01 JUMPI RETURNDATASIZE PUSH0 DUP1 RETURNDATACOPY RETURNDATASIZE PUSH0 REVERT JUMPDEST POP POP POP POP DUP1 PUSH1 0x20 ADD MLOAD PUSH20 0xFFFFFFFFFFFFFFFFFFFFFFFFFFFFFFFFFFFFFFFF AND DUP12 DUP14 PUSH20 0xFFFFFFFFFFFFFFFFFFFFFFFFFFFFFFFFFFFFFFFF AND PUSH32 0x1658BE8DBD90F08A0F1B9367EAF7D55760D7ADDBB8DFE73C43524C77E6FEBEBC DUP14 PUSH1 0x40 MLOAD PUSH2 0xE67 SWAP2 SWAP1 PUSH2 0x1E36 JUMP JUMPDEST PUSH1 0x40 MLOAD DUP1 SWAP2 SUB SWAP1 LOG4 JUMPDEST POP POP POP POP POP POP POP POP POP POP POP POP JUMP JUMPDEST PUSH2 0xE86 PUSH2 0x1578 JUMP JUMPDEST DUP2 DUP2 PUSH0 PUSH1 0x1 PUSH0 DUP5 PUSH20 0xFFFFFFFFFFFFFFFFFFFFFFFFFFFFFFFFFFFFFFFF AND PUSH20 0xFFFFFFFFFFFFFFFFFFFFFFFFFFFFFFFFFFFFFFFF AND DUP2 MSTORE PUSH1 0x20 ADD SWAP1 DUP2 MSTORE PUSH1 0x20 ADD PUSH0 KECCAK256 PUSH0 DUP4 DUP2 MSTORE PUSH1 0x20 ADD SWAP1 DUP2 MSTORE PUSH1 0x20 ADD PUSH0 KECCAK256 PUSH0 ADD SLOAD GT PUSH2 0xF18 JUMPI PUSH1 0x40 MLOAD PUSH32 0x8C379A000000000000000000000000000000000000000000000000000000000 DUP2 MSTORE PUSH1 0x4 ADD PUSH2 0xF0F SWAP1 PUSH2 0x22A1 JUMP JUMPDEST PUSH1 0x40 MLOAD DUP1 SWAP2 SUB SWAP1 REVERT JUMPDEST PUSH0 PUSH1 0x1 PUSH0 DUP7 PUSH20 0xFFFFFFFFFFFFFFFFFFFFFFFFFFFFFFFFFFFFFFFF AND PUSH20 0xFFFFFFFFFFFFFFFFFFFFFFFFFFFFFFFFFFFFFFFF AND DUP2 MSTORE PUSH1 0x20 ADD SWAP1 DUP2 MSTORE PUSH1 0x20 ADD PUSH0 KECCAK256 PUSH0 DUP6 DUP2 MSTORE PUSH1 0x20 ADD SWAP1 DUP2 MSTORE PUSH1 0x20 ADD PUSH0 KECCAK256 PUSH1 0x40 MLOAD DUP1 PUSH1 0x60 ADD PUSH1 0x40 MSTORE SWAP1 DUP2 PUSH0 DUP3 ADD SLOAD DUP2 MSTORE PUSH1 0x20 ADD PUSH1 0x1 DUP3 ADD PUSH0 SWAP1 SLOAD SWAP1 PUSH2 0x100 EXP SWAP1 DIV PUSH20 0xFFFFFFFFFFFFFFFFFFFFFFFFFFFFFFFFFFFFFFFF AND PUSH20 0xFFFFFFFFFFFFFFFFFFFFFFFFFFFFFFFFFFFFFFFF AND PUSH20 0xFFFFFFFFFFFFFFFFFFFFFFFFFFFFFFFFFFFFFFFF AND DUP2 MSTORE PUSH1 0x20 ADD PUSH1 0x2 DUP3 ADD DUP1 SLOAD PUSH2 0xFDE SWAP1 PUSH2 0x1BE9 JUMP JUMPDEST DUP1 PUSH1 0x1F ADD PUSH1 0x20 DUP1 SWAP2 DIV MUL PUSH1 0x20 ADD PUSH1 0x40 MLOAD SWAP1 DUP2 ADD PUSH1 0x40 MSTORE DUP1 SWAP3 SWAP2 SWAP1 DUP2 DUP2 MSTORE PUSH1 0x20 ADD DUP3 DUP1 SLOAD PUSH2 0x100A SWAP1 PUSH2 0x1BE9 JUMP JUMPDEST DUP1 ISZERO PUSH2 0x1055 JUMPI DUP1 PUSH1 0x1F LT PUSH2 0x102C JUMPI PUSH2 0x100 DUP1 DUP4 SLOAD DIV MUL DUP4 MSTORE SWAP2 PUSH1 0x20 ADD SWAP2 PUSH2 0x1055 JUMP JUMPDEST DUP3 ADD SWAP2 SWAP1 PUSH0 MSTORE PUSH1 0x20 PUSH0 KECCAK256 SWAP1 JUMPDEST DUP2 SLOAD DUP2 MSTORE SWAP1 PUSH1 0x1 ADD SWAP1 PUSH1 0x20 ADD DUP1 DUP4 GT PUSH2 0x1038 JUMPI DUP3 SWAP1 SUB PUSH1 0x1F AND DUP3 ADD SWAP2 JUMPDEST POP POP POP POP POP DUP2 MSTORE POP POP SWAP1 POP PUSH1 0x3 PUSH0 SWAP1 SLOAD SWAP1 PUSH2 0x100 EXP SWAP1 DIV PUSH20 0xFFFFFFFFFFFFFFFFFFFFFFFFFFFFFFFFFFFFFFFF AND PUSH20 0xFFFFFFFFFFFFFFFFFFFFFFFFFFFFFFFFFFFFFFFF AND PUSH4 0x23B872DD CALLER DUP4 PUSH1 0x20 ADD MLOAD DUP5 PUSH0 ADD MLOAD PUSH1 0x40 MLOAD DUP5 PUSH4 0xFFFFFFFF AND PUSH1 0xE0 SHL DUP2 MSTORE PUSH1 0x4 ADD PUSH2 0x10C5 SWAP4 SWAP3 SWAP2 SWAP1 PUSH2 0x1D39 JUMP JUMPDEST PUSH1 0x20 PUSH1 0x40 MLOAD DUP1 DUP4 SUB DUP2 PUSH0 DUP8 GAS CALL ISZERO DUP1 ISZERO PUSH2 0x10E1 JUMPI RETURNDATASIZE PUSH0 DUP1 RETURNDATACOPY RETURNDATASIZE PUSH0 REVERT JUMPDEST POP POP POP POP PUSH1 0x40 MLOAD RETURNDATASIZE PUSH1 0x1F NOT PUSH1 0x1F DUP3 ADD AND DUP3 ADD DUP1 PUSH1 0x40 MSTORE POP DUP2 ADD SWAP1 PUSH2 0x1105 SWAP2 SWAP1 PUSH2 0x1DA3 JUMP JUMPDEST PUSH2 0x1144 JUMPI PUSH1 0x40 MLOAD PUSH32 0x8C379A000000000000000000000000000000000000000000000000000000000 DUP2 MSTORE PUSH1 0x4 ADD PUSH2 0x113B SWAP1 PUSH2 0x1E18 JUMP JUMPDEST PUSH1 0x40 MLOAD DUP1 SWAP2 SUB SWAP1 REVERT JUMPDEST PUSH1 0x1 PUSH0 DUP7 PUSH20 0xFFFFFFFFFFFFFFFFFFFFFFFFFFFFFFFFFFFFFFFF AND PUSH20 0xFFFFFFFFFFFFFFFFFFFFFFFFFFFFFFFFFFFFFFFF AND DUP2 MSTORE PUSH1 0x20 ADD SWAP1 DUP2 MSTORE PUSH1 0x20 ADD PUSH0 KECCAK256 PUSH0 DUP6 DUP2 MSTORE PUSH1 0x20 ADD SWAP1 DUP2 MSTORE PUSH1 0x20 ADD PUSH0 KECCAK256 PUSH0 DUP1 DUP3 ADD PUSH0 SWAP1 SSTORE PUSH1 0x1 DUP3 ADD PUSH0 PUSH2 0x100 EXP DUP2 SLOAD SWAP1 PUSH20 0xFFFFFFFFFFFFFFFFFFFFFFFFFFFFFFFFFFFFFFFF MUL NOT AND SWAP1 SSTORE PUSH1 0x2 DUP3 ADD PUSH0 PUSH2 0x11CC SWAP2 SWAP1 PUSH2 0x1603 JUMP JUMPDEST POP POP DUP5 PUSH20 0xFFFFFFFFFFFFFFFFFFFFFFFFFFFFFFFFFFFFFFFF AND PUSH4 0x42842E0E DUP3 PUSH1 0x20 ADD MLOAD CALLER DUP8 PUSH1 0x40 MLOAD DUP5 PUSH4 0xFFFFFFFF AND PUSH1 0xE0 SHL DUP2 MSTORE PUSH1 0x4 ADD PUSH2 0x120F SWAP4 SWAP3 SWAP2 SWAP1 PUSH2 0x1D39 JUMP JUMPDEST PUSH0 PUSH1 0x40 MLOAD DUP1 DUP4 SUB DUP2 PUSH0 DUP8 DUP1 EXTCODESIZE ISZERO DUP1 ISZERO PUSH2 0x1226 JUMPI PUSH0 DUP1 REVERT JUMPDEST POP GAS CALL ISZERO DUP1 ISZERO PUSH2 0x1238 JUMPI RETURNDATASIZE PUSH0 DUP1 RETURNDATACOPY RETURNDATASIZE PUSH0 REVERT JUMPDEST POP POP POP POP CALLER PUSH20 0xFFFFFFFFFFFFFFFFFFFFFFFFFFFFFFFFFFFFFFFF AND DUP5 DUP7 PUSH20 0xFFFFFFFFFFFFFFFFFFFFFFFFFFFFFFFFFFFFFFFF AND PUSH32 0x77C3CED349B08A2AF4E9D443FB697437C3197B3095D43FCBDC2CDC97B1A60E0C DUP5 PUSH0 ADD MLOAD PUSH1 0x40 MLOAD PUSH2 0x129D SWAP2 SWAP1 PUSH2 0x1E36 JUMP JUMPDEST PUSH1 0x40 MLOAD DUP1 SWAP2 SUB SWAP1 LOG4 POP POP POP PUSH2 0x12B0 PUSH2 0x15C5 JUMP JUMPDEST POP POP JUMP JUMPDEST PUSH1 0x2 DUP2 DUP1 MLOAD PUSH1 0x20 DUP2 ADD DUP3 ADD DUP1 MLOAD DUP5 DUP3 MSTORE PUSH1 0x20 DUP4 ADD PUSH1 0x20 DUP6 ADD KECCAK256 DUP2 DUP4 MSTORE DUP1 SWAP6 POP POP POP POP POP POP PUSH0 SWAP2 POP SWAP1 POP DUP1 PUSH0 ADD SLOAD SWAP1 DUP1 PUSH1 0x1 ADD PUSH0 SWAP1 SLOAD SWAP1 PUSH2 0x100 EXP SWAP1 DIV PUSH20 0xFFFFFFFFFFFFFFFFFFFFFFFFFFFFFFFFFFFFFFFF AND SWAP1 POP DUP3 JUMP JUMPDEST DUP2 DUP2 CALLER PUSH0 DUP4 SWAP1 POP DUP2 PUSH20 0xFFFFFFFFFFFFFFFFFFFFFFFFFFFFFFFFFFFFFFFF AND DUP2 PUSH20 0xFFFFFFFFFFFFFFFFFFFFFFFFFFFFFFFFFFFFFFFF AND PUSH4 0x6352211E DUP6 PUSH1 0x40 MLOAD DUP3 PUSH4 0xFFFFFFFF AND PUSH1 0xE0 SHL DUP2 MSTORE PUSH1 0x4 ADD PUSH2 0x1362 SWAP2 SWAP1 PUSH2 0x1E36 JUMP JUMPDEST PUSH1 0x20 PUSH1 0x40 MLOAD DUP1 DUP4 SUB DUP2 DUP7 GAS STATICCALL ISZERO DUP1 ISZERO PUSH2 0x137D JUMPI RETURNDATASIZE PUSH0 DUP1 RETURNDATACOPY RETURNDATASIZE PUSH0 REVERT JUMPDEST POP POP POP POP PUSH1 0x40 MLOAD RETURNDATASIZE PUSH1 0x1F NOT PUSH1 0x1F DUP3 ADD AND DUP3 ADD DUP1 PUSH1 0x40 MSTORE POP DUP2 ADD SWAP1 PUSH2 0x13A1 SWAP2 SWAP1 PUSH2 0x1E63 JUMP JUMPDEST PUSH20 0xFFFFFFFFFFFFFFFFFFFFFFFFFFFFFFFFFFFFFFFF AND EQ PUSH2 0x13F7 JUMPI PUSH1 0x40 MLOAD PUSH32 0x8C379A000000000000000000000000000000000000000000000000000000000 DUP2 MSTORE PUSH1 0x4 ADD PUSH2 0x13EE SWAP1 PUSH2 0x1ED8 JUMP JUMPDEST PUSH1 0x40 MLOAD DUP1 SWAP2 SUB SWAP1 REVERT JUMPDEST DUP6 DUP6 PUSH0 PUSH1 0x1 PUSH0 DUP5 PUSH20 0xFFFFFFFFFFFFFFFFFFFFFFFFFFFFFFFFFFFFFFFF AND PUSH20 0xFFFFFFFFFFFFFFFFFFFFFFFFFFFFFFFFFFFFFFFF AND DUP2 MSTORE PUSH1 0x20 ADD SWAP1 DUP2 MSTORE PUSH1 0x20 ADD PUSH0 KECCAK256 PUSH0 DUP4 DUP2 MSTORE PUSH1 0x20 ADD SWAP1 DUP2 MSTORE PUSH1 0x20 ADD PUSH0 KECCAK256 PUSH0 ADD SLOAD GT PUSH2 0x1489 JUMPI PUSH1 0x40 MLOAD PUSH32 0x8C379A000000000000000000000000000000000000000000000000000000000 DUP2 MSTORE PUSH1 0x4 ADD PUSH2 0x1480 SWAP1 PUSH2 0x22A1 JUMP JUMPDEST PUSH1 0x40 MLOAD DUP1 SWAP2 SUB SWAP1 REVERT JUMPDEST PUSH1 0x1 PUSH0 DUP10 PUSH20 0xFFFFFFFFFFFFFFFFFFFFFFFFFFFFFFFFFFFFFFFF AND PUSH20 0xFFFFFFFFFFFFFFFFFFFFFFFFFFFFFFFFFFFFFFFF AND DUP2 MSTORE PUSH1 0x20 ADD SWAP1 DUP2 MSTORE PUSH1 0x20 ADD PUSH0 KECCAK256 PUSH0 DUP9 DUP2 MSTORE PUSH1 0x20 ADD SWAP1 DUP2 MSTORE PUSH1 0x20 ADD PUSH0 KECCAK256 PUSH0 DUP1 DUP3 ADD PUSH0 SWAP1 SSTORE PUSH1 0x1 DUP3 ADD PUSH0 PUSH2 0x100 EXP DUP2 SLOAD SWAP1 PUSH20 0xFFFFFFFFFFFFFFFFFFFFFFFFFFFFFFFFFFFFFFFF MUL NOT AND SWAP1 SSTORE PUSH1 0x2 DUP3 ADD PUSH0 PUSH2 0x1511 SWAP2 SWAP1 PUSH2 0x1603 JUMP JUMPDEST POP POP CALLER PUSH20 0xFFFFFFFFFFFFFFFFFFFFFFFFFFFFFFFFFFFFFFFF AND DUP8 DUP10 PUSH20 0xFFFFFFFFFFFFFFFFFFFFFFFFFFFFFFFFFFFFFFFF AND PUSH32 0x83614A26FD4398C876BD6684C0D04CF2E84EE7E4BC24E8D8888AB0E724BAC032 PUSH1 0x40 MLOAD PUSH1 0x40 MLOAD DUP1 SWAP2 SUB SWAP1 LOG4 POP POP POP POP POP POP POP POP JUMP JUMPDEST PUSH1 0x2 PUSH0 SLOAD SUB PUSH2 0x15BC JUMPI PUSH1 0x40 MLOAD PUSH32 0x8C379A000000000000000000000000000000000000000000000000000000000 DUP2 MSTORE PUSH1 0x4 ADD PUSH2 0x15B3 SWAP1 PUSH2 0x2309 JUMP JUMPDEST PUSH1 0x40 MLOAD DUP1 SWAP2 SUB SWAP1 REVERT JUMPDEST PUSH1 0x2 PUSH0 DUP2 SWAP1 SSTORE POP JUMP JUMPDEST PUSH1 0x1 PUSH0 DUP2 SWAP1 SSTORE POP JUMP JUMPDEST PUSH1 0x40 MLOAD DUP1 PUSH1 0x60 ADD PUSH1 0x40 MSTORE DUP1 PUSH0 DUP2 MSTORE PUSH1 0x20 ADD PUSH0 PUSH20 0xFFFFFFFFFFFFFFFFFFFFFFFFFFFFFFFFFFFFFFFF AND DUP2 MSTORE PUSH1 0x20 ADD PUSH1 0x60 DUP2 MSTORE POP SWAP1 JUMP JUMPDEST POP DUP1 SLOAD PUSH2 0x160F SWAP1 PUSH2 0x1BE9 JUMP JUMPDEST PUSH0 DUP3 SSTORE DUP1 PUSH1 0x1F LT PUSH2 0x1620 JUMPI POP PUSH2 0x163D JUMP JUMPDEST PUSH1 0x1F ADD PUSH1 0x20 SWAP1 DIV SWAP1 PUSH0 MSTORE PUSH1 0x20 PUSH0 KECCAK256 SWAP1 DUP2 ADD SWAP1 PUSH2 0x163C SWAP2 SWAP1 PUSH2 0x1640 JUMP JUMPDEST JUMPDEST POP JUMP JUMPDEST JUMPDEST DUP1 DUP3 GT ISZERO PUSH2 0x1657 JUMPI PUSH0 DUP2 PUSH0 SWAP1 SSTORE POP PUSH1 0x1 ADD PUSH2 0x1641 JUMP JUMPDEST POP SWAP1 JUMP JUMPDEST PUSH0 PUSH1 0x40 MLOAD SWAP1 POP SWAP1 JUMP JUMPDEST PUSH0 DUP1 REVERT JUMPDEST PUSH0 DUP1 REVERT JUMPDEST PUSH0 PUSH20 0xFFFFFFFFFFFFFFFFFFFFFFFFFFFFFFFFFFFFFFFF DUP3 AND SWAP1 POP SWAP2 SWAP1 POP JUMP JUMPDEST PUSH0 PUSH2 0x1695 DUP3 PUSH2 0x166C JUMP JUMPDEST SWAP1 POP SWAP2 SWAP1 POP JUMP JUMPDEST PUSH2 0x16A5 DUP2 PUSH2 0x168B JUMP JUMPDEST DUP2 EQ PUSH2 0x16AF JUMPI PUSH0 DUP1 REVERT JUMPDEST POP JUMP JUMPDEST PUSH0 DUP2 CALLDATALOAD SWAP1 POP PUSH2 0x16C0 DUP2 PUSH2 0x169C JUMP JUMPDEST SWAP3 SWAP2 POP POP JUMP JUMPDEST PUSH0 DUP2 SWAP1 POP SWAP2 SWAP1 POP JUMP JUMPDEST PUSH2 0x16D8 DUP2 PUSH2 0x16C6 JUMP JUMPDEST DUP2 EQ PUSH2 0x16E2 JUMPI PUSH0 DUP1 REVERT JUMPDEST POP JUMP JUMPDEST PUSH0 DUP2 CALLDATALOAD SWAP1 POP PUSH2 0x16F3 DUP2 PUSH2 0x16CF JUMP JUMPDEST SWAP3 SWAP2 POP POP JUMP JUMPDEST PUSH0 DUP1 PUSH1 0x40 DUP4 DUP6 SUB SLT ISZERO PUSH2 0x170F JUMPI PUSH2 0x170E PUSH2 0x1664 JUMP JUMPDEST JUMPDEST PUSH0 PUSH2 0x171C DUP6 DUP3 DUP7 ADD PUSH2 0x16B2 JUMP JUMPDEST SWAP3 POP POP PUSH1 0x20 PUSH2 0x172D DUP6 DUP3 DUP7 ADD PUSH2 0x16E5 JUMP JUMPDEST SWAP2 POP POP SWAP3 POP SWAP3 SWAP1 POP JUMP JUMPDEST PUSH2 0x1740 DUP2 PUSH2 0x16C6 JUMP JUMPDEST DUP3 MSTORE POP POP JUMP JUMPDEST PUSH2 0x174F DUP2 PUSH2 0x168B JUMP JUMPDEST DUP3 MSTORE POP POP JUMP JUMPDEST PUSH0 DUP2 MLOAD SWAP1 POP SWAP2 SWAP1 POP JUMP JUMPDEST PUSH0 DUP3 DUP3 MSTORE PUSH1 0x20 DUP3 ADD SWAP1 POP SWAP3 SWAP2 POP POP JUMP JUMPDEST DUP3 DUP2 DUP4 MCOPY PUSH0 DUP4 DUP4 ADD MSTORE POP POP POP JUMP JUMPDEST PUSH0 PUSH1 0x1F NOT PUSH1 0x1F DUP4 ADD AND SWAP1 POP SWAP2 SWAP1 POP JUMP JUMPDEST PUSH0 PUSH2 0x1797 DUP3 PUSH2 0x1755 JUMP JUMPDEST PUSH2 0x17A1 DUP2 DUP6 PUSH2 0x175F JUMP JUMPDEST SWAP4 POP PUSH2 0x17B1 DUP2 DUP6 PUSH1 0x20 DUP7 ADD PUSH2 0x176F JUMP JUMPDEST PUSH2 0x17BA DUP2 PUSH2 0x177D JUMP JUMPDEST DUP5 ADD SWAP2 POP POP SWAP3 SWAP2 POP POP JUMP JUMPDEST PUSH0 PUSH1 0x60 DUP3 ADD SWAP1 POP PUSH2 0x17D8 PUSH0 DUP4 ADD DUP7 PUSH2 0x1737 JUMP JUMPDEST PUSH2 0x17E5 PUSH1 0x20 DUP4 ADD DUP6 PUSH2 0x1746 JUMP JUMPDEST DUP2 DUP2 SUB PUSH1 0x40 DUP4 ADD MSTORE PUSH2 0x17F7 DUP2 DUP5 PUSH2 0x178D JUMP JUMPDEST SWAP1 POP SWAP5 SWAP4 POP POP POP POP JUMP JUMPDEST PUSH0 DUP2 SWAP1 POP SWAP2 SWAP1 POP JUMP JUMPDEST PUSH0 PUSH2 0x1824 PUSH2 0x181F PUSH2 0x181A DUP5 PUSH2 0x166C JUMP JUMPDEST PUSH2 0x1801 JUMP JUMPDEST PUSH2 0x166C JUMP JUMPDEST SWAP1 POP SWAP2 SWAP1 POP JUMP JUMPDEST PUSH0 PUSH2 0x1835 DUP3 PUSH2 0x180A JUMP JUMPDEST SWAP1 POP SWAP2 SWAP1 POP JUMP JUMPDEST PUSH0 PUSH2 0x1846 DUP3 PUSH2 0x182B JUMP JUMPDEST SWAP1 POP SWAP2 SWAP1 POP JUMP JUMPDEST PUSH2 0x1856 DUP2 PUSH2 0x183C JUMP JUMPDEST DUP3 MSTORE POP POP JUMP JUMPDEST PUSH0 PUSH1 0x20 DUP3 ADD SWAP1 POP PUSH2 0x186F PUSH0 DUP4 ADD DUP5 PUSH2 0x184D JUMP JUMPDEST SWAP3 SWAP2 POP POP JUMP JUMPDEST PUSH0 DUP1 REVERT JUMPDEST PUSH0 DUP1 REVERT JUMPDEST PUSH32 0x4E487B7100000000000000000000000000000000000000000000000000000000 PUSH0 MSTORE PUSH1 0x41 PUSH1 0x4 MSTORE PUSH1 0x24 PUSH0 REVERT JUMPDEST PUSH2 0x18B3 DUP3 PUSH2 0x177D JUMP JUMPDEST DUP2 ADD DUP2 DUP2 LT PUSH8 0xFFFFFFFFFFFFFFFF DUP3 GT OR ISZERO PUSH2 0x18D2 JUMPI PUSH2 0x18D1 PUSH2 0x187D JUMP JUMPDEST JUMPDEST DUP1 PUSH1 0x40 MSTORE POP POP POP JUMP JUMPDEST PUSH0 PUSH2 0x18E4 PUSH2 0x165B JUMP JUMPDEST SWAP1 POP PUSH2 0x18F0 DUP3 DUP3 PUSH2 0x18AA JUMP JUMPDEST SWAP2 SWAP1 POP JUMP JUMPDEST PUSH0 PUSH8 0xFFFFFFFFFFFFFFFF DUP3 GT ISZERO PUSH2 0x190F JUMPI PUSH2 0x190E PUSH2 0x187D JUMP JUMPDEST JUMPDEST PUSH2 0x1918 DUP3 PUSH2 0x177D JUMP JUMPDEST SWAP1 POP PUSH1 0x20 DUP2 ADD SWAP1 POP SWAP2 SWAP1 POP JUMP JUMPDEST DUP3 DUP2 DUP4 CALLDATACOPY PUSH0 DUP4 DUP4 ADD MSTORE POP POP POP JUMP JUMPDEST PUSH0 PUSH2 0x1945 PUSH2 0x1940 DUP5 PUSH2 0x18F5 JUMP JUMPDEST PUSH2 0x18DB JUMP JUMPDEST SWAP1 POP DUP3 DUP2 MSTORE PUSH1 0x20 DUP2 ADD DUP5 DUP5 DUP5 ADD GT ISZERO PUSH2 0x1961 JUMPI PUSH2 0x1960 PUSH2 0x1879 JUMP JUMPDEST JUMPDEST PUSH2 0x196C DUP5 DUP3 DUP6 PUSH2 0x1925 JUMP JUMPDEST POP SWAP4 SWAP3 POP POP POP JUMP JUMPDEST PUSH0 DUP3 PUSH1 0x1F DUP4 ADD SLT PUSH2 0x1988 JUMPI PUSH2 0x1987 PUSH2 0x1875 JUMP JUMPDEST JUMPDEST DUP2 CALLDATALOAD PUSH2 0x1998 DUP5 DUP3 PUSH1 0x20 DUP7 ADD PUSH2 0x1933 JUMP JUMPDEST SWAP2 POP POP SWAP3 SWAP2 POP POP JUMP JUMPDEST PUSH0 DUP1 PUSH1 0x40 DUP4 DUP6 SUB SLT ISZERO PUSH2 0x19B7 JUMPI PUSH2 0x19B6 PUSH2 0x1664 JUMP JUMPDEST JUMPDEST PUSH0 DUP4 ADD CALLDATALOAD PUSH8 0xFFFFFFFFFFFFFFFF DUP2 GT ISZERO PUSH2 0x19D4 JUMPI PUSH2 0x19D3 PUSH2 0x1668 JUMP JUMPDEST JUMPDEST PUSH2 0x19E0 DUP6 DUP3 DUP7 ADD PUSH2 0x1974 JUMP JUMPDEST SWAP3 POP POP PUSH1 0x20 PUSH2 0x19F1 DUP6 DUP3 DUP7 ADD PUSH2 0x16E5 JUMP JUMPDEST SWAP2 POP POP SWAP3 POP SWAP3 SWAP1 POP JUMP JUMPDEST PUSH2 0x1A04 DUP2 PUSH2 0x16C6 JUMP JUMPDEST DUP3 MSTORE POP POP JUMP JUMPDEST PUSH2 0x1A13 DUP2 PUSH2 0x168B JUMP JUMPDEST DUP3 MSTORE POP POP JUMP JUMPDEST PUSH0 DUP3 DUP3 MSTORE PUSH1 0x20 DUP3 ADD SWAP1 POP SWAP3 SWAP2 POP POP JUMP JUMPDEST PUSH0 PUSH2 0x1A33 DUP3 PUSH2 0x1755 JUMP JUMPDEST PUSH2 0x1A3D DUP2 DUP6 PUSH2 0x1A19 JUMP JUMPDEST SWAP4 POP PUSH2 0x1A4D DUP2 DUP6 PUSH1 0x20 DUP7 ADD PUSH2 0x176F JUMP JUMPDEST PUSH2 0x1A56 DUP2 PUSH2 0x177D JUMP JUMPDEST DUP5 ADD SWAP2 POP POP SWAP3 SWAP2 POP POP JUMP JUMPDEST PUSH0 PUSH1 0x60 DUP4 ADD PUSH0 DUP4 ADD MLOAD PUSH2 0x1A76 PUSH0 DUP7 ADD DUP3 PUSH2 0x19FB JUMP JUMPDEST POP PUSH1 0x20 DUP4 ADD MLOAD PUSH2 0x1A89 PUSH1 0x20 DUP7 ADD DUP3 PUSH2 0x1A0A JUMP JUMPDEST POP PUSH1 0x40 DUP4 ADD MLOAD DUP5 DUP3 SUB PUSH1 0x40 DUP7 ADD MSTORE PUSH2 0x1AA1 DUP3 DUP3 PUSH2 0x1A29 JUMP JUMPDEST SWAP2 POP POP DUP1 SWAP2 POP POP SWAP3 SWAP2 POP POP JUMP JUMPDEST PUSH0 PUSH1 0x20 DUP3 ADD SWAP1 POP DUP2 DUP2 SUB PUSH0 DUP4 ADD MSTORE PUSH2 0x1AC6 DUP2 DUP5 PUSH2 0x1A61 JUMP JUMPDEST SWAP1 POP SWAP3 SWAP2 POP POP JUMP JUMPDEST PUSH0 DUP1 PUSH0 DUP1 PUSH1 0x80 DUP6 DUP8 SUB SLT ISZERO PUSH2 0x1AE6 JUMPI PUSH2 0x1AE5 PUSH2 0x1664 JUMP JUMPDEST JUMPDEST PUSH0 PUSH2 0x1AF3 DUP8 DUP3 DUP9 ADD PUSH2 0x16B2 JUMP JUMPDEST SWAP5 POP POP PUSH1 0x20 PUSH2 0x1B04 DUP8 DUP3 DUP9 ADD PUSH2 0x16E5 JUMP JUMPDEST SWAP4 POP POP PUSH1 0x40 PUSH2 0x1B15 DUP8 DUP3 DUP9 ADD PUSH2 0x16E5 JUMP JUMPDEST SWAP3 POP POP PUSH1 0x60 DUP6 ADD CALLDATALOAD PUSH8 0xFFFFFFFFFFFFFFFF DUP2 GT ISZERO PUSH2 0x1B36 JUMPI PUSH2 0x1B35 PUSH2 0x1668 JUMP JUMPDEST JUMPDEST PUSH2 0x1B42 DUP8 DUP3 DUP9 ADD PUSH2 0x1974 JUMP JUMPDEST SWAP2 POP POP SWAP3 SWAP6 SWAP2 SWAP5 POP SWAP3 POP JUMP JUMPDEST PUSH0 PUSH1 0x20 DUP3 DUP5 SUB SLT ISZERO PUSH2 0x1B63 JUMPI PUSH2 0x1B62 PUSH2 0x1664 JUMP JUMPDEST JUMPDEST PUSH0 DUP3 ADD CALLDATALOAD PUSH8 0xFFFFFFFFFFFFFFFF DUP2 GT ISZERO PUSH2 0x1B80 JUMPI PUSH2 0x1B7F PUSH2 0x1668 JUMP JUMPDEST JUMPDEST PUSH2 0x1B8C DUP5 DUP3 DUP6 ADD PUSH2 0x1974 JUMP JUMPDEST SWAP2 POP POP SWAP3 SWAP2 POP POP JUMP JUMPDEST PUSH0 PUSH1 0x40 DUP3 ADD SWAP1 POP PUSH2 0x1BA8 PUSH0 DUP4 ADD DUP6 PUSH2 0x1737 JUMP JUMPDEST PUSH2 0x1BB5 PUSH1 0x20 DUP4 ADD DUP5 PUSH2 0x1746 JUMP JUMPDEST SWAP4 SWAP3 POP POP POP JUMP JUMPDEST PUSH32 0x4E487B7100000000000000000000000000000000000000000000000000000000 PUSH0 MSTORE PUSH1 0x22 PUSH1 0x4 MSTORE PUSH1 0x24 PUSH0 REVERT JUMPDEST PUSH0 PUSH1 0x2 DUP3 DIV SWAP1 POP PUSH1 0x1 DUP3 AND DUP1 PUSH2 0x1C00 JUMPI PUSH1 0x7F DUP3 AND SWAP2 POP JUMPDEST PUSH1 0x20 DUP3 LT DUP2 SUB PUSH2 0x1C13 JUMPI PUSH2 0x1C12 PUSH2 0x1BBC JUMP JUMPDEST JUMPDEST POP SWAP2 SWAP1 POP JUMP JUMPDEST PUSH32 0x5072696365206D7573742062652067726561746572207468616E207A65726F00 PUSH0 DUP3 ADD MSTORE POP JUMP JUMPDEST PUSH0 PUSH2 0x1C4D PUSH1 0x1F DUP4 PUSH2 0x175F JUMP JUMPDEST SWAP2 POP PUSH2 0x1C58 DUP3 PUSH2 0x1C19 JUMP JUMPDEST PUSH1 0x20 DUP3 ADD SWAP1 POP SWAP2 SWAP1 POP JUMP JUMPDEST PUSH0 PUSH1 0x20 DUP3 ADD SWAP1 POP DUP2 DUP2 SUB PUSH0 DUP4 ADD MSTORE PUSH2 0x1C7A DUP2 PUSH2 0x1C41 JUMP JUMPDEST SWAP1 POP SWAP2 SWAP1 POP JUMP JUMPDEST PUSH0 DUP2 SWAP1 POP SWAP3 SWAP2 POP POP JUMP JUMPDEST PUSH0 PUSH2 0x1C95 DUP3 PUSH2 0x1755 JUMP JUMPDEST PUSH2 0x1C9F DUP2 DUP6 PUSH2 0x1C81 JUMP JUMPDEST SWAP4 POP PUSH2 0x1CAF DUP2 DUP6 PUSH1 0x20 DUP7 ADD PUSH2 0x176F JUMP JUMPDEST DUP1 DUP5 ADD SWAP2 POP POP SWAP3 SWAP2 POP POP JUMP JUMPDEST PUSH0 PUSH2 0x1CC6 DUP3 DUP5 PUSH2 0x1C8B JUMP JUMPDEST SWAP2 POP DUP2 SWAP1 POP SWAP3 SWAP2 POP POP JUMP JUMPDEST PUSH32 0x47726F75702062696420616C7265616479206578697374730000000000000000 PUSH0 DUP3 ADD MSTORE POP JUMP JUMPDEST PUSH0 PUSH2 0x1D05 PUSH1 0x18 DUP4 PUSH2 0x175F JUMP JUMPDEST SWAP2 POP PUSH2 0x1D10 DUP3 PUSH2 0x1CD1 JUMP JUMPDEST PUSH1 0x20 DUP3 ADD SWAP1 POP SWAP2 SWAP1 POP JUMP JUMPDEST PUSH0 PUSH1 0x20 DUP3 ADD SWAP1 POP DUP2 DUP2 SUB PUSH0 DUP4 ADD MSTORE PUSH2 0x1D32 DUP2 PUSH2 0x1CF9 JUMP JUMPDEST SWAP1 POP SWAP2 SWAP1 POP JUMP JUMPDEST PUSH0 PUSH1 0x60 DUP3 ADD SWAP1 POP PUSH2 0x1D4C PUSH0 DUP4 ADD DUP7 PUSH2 0x1746 JUMP JUMPDEST PUSH2 0x1D59 PUSH1 0x20 DUP4 ADD DUP6 PUSH2 0x1746 JUMP JUMPDEST PUSH2 0x1D66 PUSH1 0x40 DUP4 ADD DUP5 PUSH2 0x1737 JUMP JUMPDEST SWAP5 SWAP4 POP POP POP POP JUMP JUMPDEST PUSH0 DUP2 ISZERO ISZERO SWAP1 POP SWAP2 SWAP1 POP JUMP JUMPDEST PUSH2 0x1D82 DUP2 PUSH2 0x1D6E JUMP JUMPDEST DUP2 EQ PUSH2 0x1D8C JUMPI PUSH0 DUP1 REVERT JUMPDEST POP JUMP JUMPDEST PUSH0 DUP2 MLOAD SWAP1 POP PUSH2 0x1D9D DUP2 PUSH2 0x1D79 JUMP JUMPDEST SWAP3 SWAP2 POP POP JUMP JUMPDEST PUSH0 PUSH1 0x20 DUP3 DUP5 SUB SLT ISZERO PUSH2 0x1DB8 JUMPI PUSH2 0x1DB7 PUSH2 0x1664 JUMP JUMPDEST JUMPDEST PUSH0 PUSH2 0x1DC5 DUP5 DUP3 DUP6 ADD PUSH2 0x1D8F JUMP JUMPDEST SWAP2 POP POP SWAP3 SWAP2 POP POP JUMP JUMPDEST PUSH32 0x5061796D656E74207472616E73666572206661696C6564000000000000000000 PUSH0 DUP3 ADD MSTORE POP JUMP JUMPDEST PUSH0 PUSH2 0x1E02 PUSH1 0x17 DUP4 PUSH2 0x175F JUMP JUMPDEST SWAP2 POP PUSH2 0x1E0D DUP3 PUSH2 0x1DCE JUMP JUMPDEST PUSH1 0x20 DUP3 ADD SWAP1 POP SWAP2 SWAP1 POP JUMP JUMPDEST PUSH0 PUSH1 0x20 DUP3 ADD SWAP1 POP DUP2 DUP2 SUB PUSH0 DUP4 ADD MSTORE PUSH2 0x1E2F DUP2 PUSH2 0x1DF6 JUMP JUMPDEST SWAP1 POP SWAP2 SWAP1 POP JUMP JUMPDEST PUSH0 PUSH1 0x20 DUP3 ADD SWAP1 POP PUSH2 0x1E49 PUSH0 DUP4 ADD DUP5 PUSH2 0x1737 JUMP JUMPDEST SWAP3 SWAP2 POP POP JUMP JUMPDEST PUSH0 DUP2 MLOAD SWAP1 POP PUSH2 0x1E5D DUP2 PUSH2 0x169C JUMP JUMPDEST SWAP3 SWAP2 POP POP JUMP JUMPDEST PUSH0 PUSH1 0x20 DUP3 DUP5 SUB SLT ISZERO PUSH2 0x1E78 JUMPI PUSH2 0x1E77 PUSH2 0x1664 JUMP JUMPDEST JUMPDEST PUSH0 PUSH2 0x1E85 DUP5 DUP3 DUP6 ADD PUSH2 0x1E4F JUMP JUMPDEST SWAP2 POP POP SWAP3 SWAP2 POP POP JUMP JUMPDEST PUSH32 0x4E6F7420746865206F776E6572206F6620746865204E46540000000000000000 PUSH0 DUP3 ADD MSTORE POP JUMP JUMPDEST PUSH0 PUSH2 0x1EC2 PUSH1 0x18 DUP4 PUSH2 0x175F JUMP JUMPDEST SWAP2 POP PUSH2 0x1ECD DUP3 PUSH2 0x1E8E JUMP JUMPDEST PUSH1 0x20 DUP3 ADD SWAP1 POP SWAP2 SWAP1 POP JUMP JUMPDEST PUSH0 PUSH1 0x20 DUP3 ADD SWAP1 POP DUP2 DUP2 SUB PUSH0 DUP4 ADD MSTORE PUSH2 0x1EEF DUP2 PUSH2 0x1EB6 JUMP JUMPDEST SWAP1 POP SWAP2 SWAP1 POP JUMP JUMPDEST PUSH32 0x4E465420697320616C7265616479206C69737465640000000000000000000000 PUSH0 DUP3 ADD MSTORE POP JUMP JUMPDEST PUSH0 PUSH2 0x1F2A PUSH1 0x15 DUP4 PUSH2 0x175F JUMP JUMPDEST SWAP2 POP PUSH2 0x1F35 DUP3 PUSH2 0x1EF6 JUMP JUMPDEST PUSH1 0x20 DUP3 ADD SWAP1 POP SWAP2 SWAP1 POP JUMP JUMPDEST PUSH0 PUSH1 0x20 DUP3 ADD SWAP1 POP DUP2 DUP2 SUB PUSH0 DUP4 ADD MSTORE PUSH2 0x1F57 DUP2 PUSH2 0x1F1E JUMP JUMPDEST SWAP1 POP SWAP2 SWAP1 POP JUMP JUMPDEST PUSH32 0x4D61726B6574706C616365206E6F7420617070726F7665640000000000000000 PUSH0 DUP3 ADD MSTORE POP JUMP JUMPDEST PUSH0 PUSH2 0x1F92 PUSH1 0x18 DUP4 PUSH2 0x175F JUMP JUMPDEST SWAP2 POP PUSH2 0x1F9D DUP3 PUSH2 0x1F5E JUMP JUMPDEST PUSH1 0x20 DUP3 ADD SWAP1 POP SWAP2 SWAP1 POP JUMP JUMPDEST PUSH0 PUSH1 0x20 DUP3 ADD SWAP1 POP DUP2 DUP2 SUB PUSH0 DUP4 ADD MSTORE PUSH2 0x1FBF DUP2 PUSH2 0x1F86 JUMP JUMPDEST SWAP1 POP SWAP2 SWAP1 POP JUMP JUMPDEST PUSH0 DUP2 SWAP1 POP DUP2 PUSH0 MSTORE PUSH1 0x20 PUSH0 KECCAK256 SWAP1 POP SWAP2 SWAP1 POP JUMP JUMPDEST PUSH0 PUSH1 0x20 PUSH1 0x1F DUP4 ADD DIV SWAP1 POP SWAP2 SWAP1 POP JUMP JUMPDEST PUSH0 DUP3 DUP3 SHL SWAP1 POP SWAP3 SWAP2 POP POP JUMP JUMPDEST PUSH0 PUSH1 0x8 DUP4 MUL PUSH2 0x2022 PUSH32 0xFFFFFFFFFFFFFFFFFFFFFFFFFFFFFFFFFFFFFFFFFFFFFFFFFFFFFFFFFFFFFFFF DUP3 PUSH2 0x1FE7 JUMP JUMPDEST PUSH2 0x202C DUP7 DUP4 PUSH2 0x1FE7 JUMP JUMPDEST SWAP6 POP DUP1 NOT DUP5 AND SWAP4 POP DUP1 DUP7 AND DUP5 OR SWAP3 POP POP POP SWAP4 SWAP3 POP POP POP JUMP JUMPDEST PUSH0 PUSH2 0x205E PUSH2 0x2059 PUSH2 0x2054 DUP5 PUSH2 0x16C6 JUMP JUMPDEST PUSH2 0x1801 JUMP JUMPDEST PUSH2 0x16C6 JUMP JUMPDEST SWAP1 POP SWAP2 SWAP1 POP JUMP JUMPDEST PUSH0 DUP2 SWAP1 POP SWAP2 SWAP1 POP JUMP JUMPDEST PUSH2 0x2077 DUP4 PUSH2 0x2044 JUMP JUMPDEST PUSH2 0x208B PUSH2 0x2083 DUP3 PUSH2 0x2065 JUMP JUMPDEST DUP5 DUP5 SLOAD PUSH2 0x1FF3 JUMP JUMPDEST DUP3 SSTORE POP POP POP POP JUMP JUMPDEST PUSH0 SWAP1 JUMP JUMPDEST PUSH2 0x209F PUSH2 0x2093 JUMP JUMPDEST PUSH2 0x20AA DUP2 DUP5 DUP5 PUSH2 0x206E JUMP JUMPDEST POP POP POP JUMP JUMPDEST JUMPDEST DUP2 DUP2 LT ISZERO PUSH2 0x20CD JUMPI PUSH2 0x20C2 PUSH0 DUP3 PUSH2 0x2097 JUMP JUMPDEST PUSH1 0x1 DUP2 ADD SWAP1 POP PUSH2 0x20B0 JUMP JUMPDEST POP POP JUMP JUMPDEST PUSH1 0x1F DUP3 GT ISZERO PUSH2 0x2112 JUMPI PUSH2 0x20E3 DUP2 PUSH2 0x1FC6 JUMP JUMPDEST PUSH2 0x20EC DUP5 PUSH2 0x1FD8 JUMP JUMPDEST DUP2 ADD PUSH1 0x20 DUP6 LT ISZERO PUSH2 0x20FB JUMPI DUP2 SWAP1 POP JUMPDEST PUSH2 0x210F PUSH2 0x2107 DUP6 PUSH2 0x1FD8 JUMP JUMPDEST DUP4 ADD DUP3 PUSH2 0x20AF JUMP JUMPDEST POP POP JUMPDEST POP POP POP JUMP JUMPDEST PUSH0 DUP3 DUP3 SHR SWAP1 POP SWAP3 SWAP2 POP POP JUMP JUMPDEST PUSH0 PUSH2 0x2132 PUSH0 NOT DUP5 PUSH1 0x8 MUL PUSH2 0x2117 JUMP JUMPDEST NOT DUP1 DUP4 AND SWAP2 POP POP SWAP3 SWAP2 POP POP JUMP JUMPDEST PUSH0 PUSH2 0x214A DUP4 DUP4 PUSH2 0x2123 JUMP JUMPDEST SWAP2 POP DUP3 PUSH1 0x2 MUL DUP3 OR SWAP1 POP SWAP3 SWAP2 POP POP JUMP JUMPDEST PUSH2 0x2163 DUP3 PUSH2 0x1755 JUMP JUMPDEST PUSH8 0xFFFFFFFFFFFFFFFF DUP2 GT ISZERO PUSH2 0x217C JUMPI PUSH2 0x217B PUSH2 0x187D JUMP JUMPDEST JUMPDEST PUSH2 0x2186 DUP3 SLOAD PUSH2 0x1BE9 JUMP JUMPDEST PUSH2 0x2191 DUP3 DUP3 DUP6 PUSH2 0x20D1 JUMP JUMPDEST PUSH0 PUSH1 0x20 SWAP1 POP PUSH1 0x1F DUP4 GT PUSH1 0x1 DUP2 EQ PUSH2 0x21C2 JUMPI PUSH0 DUP5 ISZERO PUSH2 0x21B0 JUMPI DUP3 DUP8 ADD MLOAD SWAP1 POP JUMPDEST PUSH2 0x21BA DUP6 DUP3 PUSH2 0x213F JUMP JUMPDEST DUP7 SSTORE POP PUSH2 0x2221 JUMP JUMPDEST PUSH1 0x1F NOT DUP5 AND PUSH2 0x21D0 DUP7 PUSH2 0x1FC6 JUMP JUMPDEST PUSH0 JUMPDEST DUP3 DUP2 LT ISZERO PUSH2 0x21F7 JUMPI DUP5 DUP10 ADD MLOAD DUP3 SSTORE PUSH1 0x1 DUP3 ADD SWAP2 POP PUSH1 0x20 DUP6 ADD SWAP5 POP PUSH1 0x20 DUP2 ADD SWAP1 POP PUSH2 0x21D2 JUMP JUMPDEST DUP7 DUP4 LT ISZERO PUSH2 0x2214 JUMPI DUP5 DUP10 ADD MLOAD PUSH2 0x2210 PUSH1 0x1F DUP10 AND DUP3 PUSH2 0x2123 JUMP JUMPDEST DUP4 SSTORE POP JUMPDEST PUSH1 0x1 PUSH1 0x2 DUP9 MUL ADD DUP9 SSTORE POP POP POP JUMPDEST POP POP POP POP POP POP JUMP JUMPDEST PUSH0 PUSH1 0x40 DUP3 ADD SWAP1 POP PUSH2 0x223C PUSH0 DUP4 ADD DUP6 PUSH2 0x1737 JUMP JUMPDEST DUP2 DUP2 SUB PUSH1 0x20 DUP4 ADD MSTORE PUSH2 0x224E DUP2 DUP5 PUSH2 0x178D JUMP JUMPDEST SWAP1 POP SWAP4 SWAP3 POP POP POP JUMP JUMPDEST PUSH32 0x4E4654206973206E6F74206C6973746564000000000000000000000000000000 PUSH0 DUP3 ADD MSTORE POP JUMP JUMPDEST PUSH0 PUSH2 0x228B PUSH1 0x11 DUP4 PUSH2 0x175F JUMP JUMPDEST SWAP2 POP PUSH2 0x2296 DUP3 PUSH2 0x2257 JUMP JUMPDEST PUSH1 0x20 DUP3 ADD SWAP1 POP SWAP2 SWAP1 POP JUMP JUMPDEST PUSH0 PUSH1 0x20 DUP3 ADD SWAP1 POP DUP2 DUP2 SUB PUSH0 DUP4 ADD MSTORE PUSH2 0x22B8 DUP2 PUSH2 0x227F JUMP JUMPDEST SWAP1 POP SWAP2 SWAP1 POP JUMP JUMPDEST PUSH32 0x5265656E7472616E637947756172643A207265656E7472616E742063616C6C00 PUSH0 DUP3 ADD MSTORE POP JUMP JUMPDEST PUSH0 PUSH2 0x22F3 PUSH1 0x1F DUP4 PUSH2 0x175F JUMP JUMPDEST SWAP2 POP PUSH2 0x22FE DUP3 PUSH2 0x22BF JUMP JUMPDEST PUSH1 0x20 DUP3 ADD SWAP1 POP SWAP2 SWAP1 POP JUMP JUMPDEST PUSH0 PUSH1 0x20 DUP3 ADD SWAP1 POP DUP2 DUP2 SUB PUSH0 DUP4 ADD MSTORE PUSH2 0x2320 DUP2 PUSH2 0x22E7 JUMP JUMPDEST SWAP1 POP SWAP2 SWAP1 POP JUMP INVALID LOG2 PUSH5 0x6970667358 0x22 SLT KECCAK256 0xED 0xAE 0xA6 ADDMOD 0xE6 EXTCODECOPY 0xC0 CALLDATASIZE 0x2A 0xD7 0xD7 SWAP15 0xB1 SDIV PUSH0 CALLDATASIZE ORIGIN PUSH23 0x2878B78A962A132BE11B8957FC2D64736F6C634300081A STOP CALLER "
				},
				"gasEstimates": {
					"creation": {
						"codeDepositCost": "1810600",
						"executionCost": "infinite",
						"totalCost": "infinite"
					},
					"external": {
						"buyNFT(address,uint256)": "infinite",
						"cancelListing(address,uint256)": "infinite",
						"getListing(address,uint256)": "infinite",
						"groupBids(string)": "infinite",
						"listNFT(address,uint256,uint256,string)": "infinite",
						"listings(address,uint256)": "infinite",
						"paymentToken()": "infinite",
						"placeGroupBid(string,uint256)": "infinite"
					}
				},
				"methodIdentifiers": {
					"buyNFT(address,uint256)": "a82ba76f",
					"cancelListing(address,uint256)": "b2ddee06",
					"getListing(address,uint256)": "88700d1c",
					"groupBids(string)": "a91ffcea",
					"listNFT(address,uint256,uint256,string)": "a0441780",
					"listings(address,uint256)": "0007df30",
					"paymentToken()": "3013ce29",
					"placeGroupBid(string,uint256)": "8230584d"
				}
			},
			"storageLayout": {
				"storage": [
					{
						"astId": 10,
						"contract": "S7/marketplace.sol:NFTMarketplaceWithERC20",
						"label": "_status",
						"offset": 0,
						"slot": "0",
						"type": "t_uint256"
					},
					{
						"astId": 297,
						"contract": "S7/marketplace.sol:NFTMarketplaceWithERC20",
						"label": "listings",
						"offset": 0,
						"slot": "1",
						"type": "t_mapping(t_address,t_mapping(t_uint256,t_struct(Listing)285_storage))"
					},
					{
						"astId": 302,
						"contract": "S7/marketplace.sol:NFTMarketplaceWithERC20",
						"label": "groupBids",
						"offset": 0,
						"slot": "2",
						"type": "t_mapping(t_string_memory_ptr,t_struct(Bid)290_storage)"
					},
					{
						"astId": 305,
						"contract": "S7/marketplace.sol:NFTMarketplaceWithERC20",
						"label": "paymentToken",
						"offset": 0,
						"slot": "3",
						"type": "t_contract(IERC20)142"
					}
				],
				"types": {
					"t_address": {
						"encoding": "inplace",
						"label": "address",
						"numberOfBytes": "20"
					},
					"t_contract(IERC20)142": {
						"encoding": "inplace",
						"label": "contract IERC20",
						"numberOfBytes": "20"
					},
					"t_mapping(t_address,t_mapping(t_uint256,t_struct(Listing)285_storage))": {
						"encoding": "mapping",
						"key": "t_address",
						"label": "mapping(address => mapping(uint256 => struct NFTMarketplaceWithERC20.Listing))",
						"numberOfBytes": "32",
						"value": "t_mapping(t_uint256,t_struct(Listing)285_storage)"
					},
					"t_mapping(t_string_memory_ptr,t_struct(Bid)290_storage)": {
						"encoding": "mapping",
						"key": "t_string_memory_ptr",
						"label": "mapping(string => struct NFTMarketplaceWithERC20.Bid)",
						"numberOfBytes": "32",
						"value": "t_struct(Bid)290_storage"
					},
					"t_mapping(t_uint256,t_struct(Listing)285_storage)": {
						"encoding": "mapping",
						"key": "t_uint256",
						"label": "mapping(uint256 => struct NFTMarketplaceWithERC20.Listing)",
						"numberOfBytes": "32",
						"value": "t_struct(Listing)285_storage"
					},
					"t_string_memory_ptr": {
						"encoding": "bytes",
						"label": "string",
						"numberOfBytes": "32"
					},
					"t_string_storage": {
						"encoding": "bytes",
						"label": "string",
						"numberOfBytes": "32"
					},
					"t_struct(Bid)290_storage": {
						"encoding": "inplace",
						"label": "struct NFTMarketplaceWithERC20.Bid",
						"members": [
							{
								"astId": 287,
								"contract": "S7/marketplace.sol:NFTMarketplaceWithERC20",
								"label": "price",
								"offset": 0,
								"slot": "0",
								"type": "t_uint256"
							},
							{
								"astId": 289,
								"contract": "S7/marketplace.sol:NFTMarketplaceWithERC20",
								"label": "buyer",
								"offset": 0,
								"slot": "1",
								"type": "t_address"
							}
						],
						"numberOfBytes": "64"
					},
					"t_struct(Listing)285_storage": {
						"encoding": "inplace",
						"label": "struct NFTMarketplaceWithERC20.Listing",
						"members": [
							{
								"astId": 280,
								"contract": "S7/marketplace.sol:NFTMarketplaceWithERC20",
								"label": "price",
								"offset": 0,
								"slot": "0",
								"type": "t_uint256"
							},
							{
								"astId": 282,
								"contract": "S7/marketplace.sol:NFTMarketplaceWithERC20",
								"label": "seller",
								"offset": 0,
								"slot": "1",
								"type": "t_address"
							},
							{
								"astId": 284,
								"contract": "S7/marketplace.sol:NFTMarketplaceWithERC20",
								"label": "group",
								"offset": 0,
								"slot": "2",
								"type": "t_string_storage"
							}
						],
						"numberOfBytes": "96"
					},
					"t_uint256": {
						"encoding": "inplace",
						"label": "uint256",
						"numberOfBytes": "32"
					}
				}
			},
			"userdoc": {
				"kind": "user",
				"methods": {},
				"version": 1
			}
		}
	}
}