{
	"marketplace2.sol": {
		"NFTMarketplaceWithERC20": {
			"abi": [
				{
					"inputs": [
						{
							"internalType": "address",
							"name": "_paymentToken",
							"type": "address"
						}
					],
					"stateMutability": "nonpayable",
					"type": "constructor"
				},
				{
					"anonymous": false,
					"inputs": [
						{
							"indexed": true,
							"internalType": "address",
							"name": "nftContract",
							"type": "address"
						},
						{
							"indexed": true,
							"internalType": "uint256",
							"name": "tokenId",
							"type": "uint256"
						},
						{
							"indexed": false,
							"internalType": "uint256",
							"name": "price",
							"type": "uint256"
						},
						{
							"indexed": true,
							"internalType": "address",
							"name": "buyer",
							"type": "address"
						}
					],
					"name": "GroupBidMatched",
					"type": "event"
				},
				{
					"anonymous": false,
					"inputs": [
						{
							"indexed": true,
							"internalType": "bytes32",
							"name": "group",
							"type": "bytes32"
						},
						{
							"indexed": false,
							"internalType": "uint256",
							"name": "price",
							"type": "uint256"
						},
						{
							"indexed": true,
							"internalType": "address",
							"name": "buyer",
							"type": "address"
						}
					],
					"name": "GroupBidPlaced",
					"type": "event"
				},
				{
					"anonymous": false,
					"inputs": [
						{
							"indexed": true,
							"internalType": "address",
							"name": "nftContract",
							"type": "address"
						},
						{
							"indexed": true,
							"internalType": "uint256",
							"name": "tokenId",
							"type": "uint256"
						},
						{
							"indexed": false,
							"internalType": "uint256",
							"name": "price",
							"type": "uint256"
						},
						{
							"indexed": true,
							"internalType": "address",
							"name": "seller",
							"type": "address"
						},
						{
							"indexed": false,
							"internalType": "bytes32",
							"name": "group",
							"type": "bytes32"
						}
					],
					"name": "NFTListed",
					"type": "event"
				},
				{
					"anonymous": false,
					"inputs": [
						{
							"indexed": true,
							"internalType": "address",
							"name": "nftContract",
							"type": "address"
						},
						{
							"indexed": true,
							"internalType": "uint256",
							"name": "tokenId",
							"type": "uint256"
						},
						{
							"indexed": true,
							"internalType": "address",
							"name": "seller",
							"type": "address"
						}
					],
					"name": "NFTListingCancelled",
					"type": "event"
				},
				{
					"anonymous": false,
					"inputs": [
						{
							"indexed": true,
							"internalType": "address",
							"name": "nftContract",
							"type": "address"
						},
						{
							"indexed": true,
							"internalType": "uint256",
							"name": "tokenId",
							"type": "uint256"
						},
						{
							"indexed": false,
							"internalType": "uint256",
							"name": "price",
							"type": "uint256"
						},
						{
							"indexed": true,
							"internalType": "address",
							"name": "buyer",
							"type": "address"
						}
					],
					"name": "NFTSold",
					"type": "event"
				},
				{
					"inputs": [
						{
							"internalType": "address",
							"name": "nftContract",
							"type": "address"
						},
						{
							"internalType": "uint256",
							"name": "tokenId",
							"type": "uint256"
						}
					],
					"name": "buyNFT",
					"outputs": [],
					"stateMutability": "nonpayable",
					"type": "function"
				},
				{
					"inputs": [
						{
							"internalType": "address",
							"name": "nftContract",
							"type": "address"
						},
						{
							"internalType": "uint256",
							"name": "tokenId",
							"type": "uint256"
						}
					],
					"name": "cancelListing",
					"outputs": [],
					"stateMutability": "nonpayable",
					"type": "function"
				},
				{
					"inputs": [
						{
							"internalType": "address",
							"name": "nftContract",
							"type": "address"
						},
						{
							"internalType": "uint256",
							"name": "tokenId",
							"type": "uint256"
						}
					],
					"name": "getListing",
					"outputs": [
						{
							"components": [
								{
									"internalType": "uint256",
									"name": "price",
									"type": "uint256"
								},
								{
									"internalType": "address",
									"name": "seller",
									"type": "address"
								},
								{
									"internalType": "bytes32",
									"name": "group",
									"type": "bytes32"
								}
							],
							"internalType": "struct NFTMarketplaceWithERC20.Listing",
							"name": "",
							"type": "tuple"
						}
					],
					"stateMutability": "view",
					"type": "function"
				},
				{
					"inputs": [
						{
							"internalType": "bytes32",
							"name": "",
							"type": "bytes32"
						}
					],
					"name": "groupBids",
					"outputs": [
						{
							"internalType": "uint256",
							"name": "price",
							"type": "uint256"
						},
						{
							"internalType": "address",
							"name": "buyer",
							"type": "address"
						}
					],
					"stateMutability": "view",
					"type": "function"
				},
				{
					"inputs": [
						{
							"internalType": "bytes32",
							"name": "",
							"type": "bytes32"
						},
						{
							"internalType": "uint256",
							"name": "",
							"type": "uint256"
						}
					],
					"name": "groupContracts",
					"outputs": [
						{
							"internalType": "address",
							"name": "",
							"type": "address"
						}
					],
					"stateMutability": "view",
					"type": "function"
				},
				{
					"inputs": [
						{
							"internalType": "bytes32",
							"name": "",
							"type": "bytes32"
						},
						{
							"internalType": "address",
							"name": "",
							"type": "address"
						},
						{
							"internalType": "uint256",
							"name": "",
							"type": "uint256"
						}
					],
					"name": "groupTokenIds",
					"outputs": [
						{
							"internalType": "uint256",
							"name": "",
							"type": "uint256"
						}
					],
					"stateMutability": "view",
					"type": "function"
				},
				{
					"inputs": [
						{
							"internalType": "address",
							"name": "nftContract",
							"type": "address"
						},
						{
							"internalType": "uint256",
							"name": "tokenId",
							"type": "uint256"
						},
						{
							"internalType": "uint256",
							"name": "price",
							"type": "uint256"
						},
						{
							"internalType": "bytes32",
							"name": "group",
							"type": "bytes32"
						}
					],
					"name": "listNFT",
					"outputs": [],
					"stateMutability": "nonpayable",
					"type": "function"
				},
				{
					"inputs": [
						{
							"internalType": "address",
							"name": "",
							"type": "address"
						},
						{
							"internalType": "uint256",
							"name": "",
							"type": "uint256"
						}
					],
					"name": "listings",
					"outputs": [
						{
							"internalType": "uint256",
							"name": "price",
							"type": "uint256"
						},
						{
							"internalType": "address",
							"name": "seller",
							"type": "address"
						},
						{
							"internalType": "bytes32",
							"name": "group",
							"type": "bytes32"
						}
					],
					"stateMutability": "view",
					"type": "function"
				},
				{
					"inputs": [],
					"name": "paymentToken",
					"outputs": [
						{
							"internalType": "contract IERC20",
							"name": "",
							"type": "address"
						}
					],
					"stateMutability": "view",
					"type": "function"
				},
				{
					"inputs": [
						{
							"internalType": "bytes32",
							"name": "group",
							"type": "bytes32"
						},
						{
							"internalType": "uint256",
							"name": "price",
							"type": "uint256"
						}
					],
					"name": "placeGroupBid",
					"outputs": [],
					"stateMutability": "nonpayable",
					"type": "function"
				},
				{
					"inputs": [
						{
							"internalType": "string",
							"name": "source",
							"type": "string"
						}
					],
					"name": "stringToBytes32",
					"outputs": [
						{
							"internalType": "bytes32",
							"name": "result",
							"type": "bytes32"
						}
					],
					"stateMutability": "pure",
					"type": "function"
				}
			],
			"devdoc": {
				"kind": "dev",
				"methods": {},
				"version": 1
			},
			"evm": {
				"assembly": "    /* \"marketplace2.sol\":238:5945  contract NFTMarketplaceWithERC20 is ReentrancyGuard {... */\n  mstore(0x40, 0x80)\n    /* \"marketplace2.sol\":1302:1390  constructor(address _paymentToken) {... */\n  callvalue\n  dup1\n  iszero\n  tag_1\n  jumpi\n  0x00\n  dup1\n  revert\ntag_1:\n  pop\n  mload(0x40)\n  sub(codesize, bytecodeSize)\n  dup1\n  bytecodeSize\n  dup4\n  codecopy\n  dup2\n  dup2\n  add\n  0x40\n  mstore\n  dup2\n  add\n  swap1\n  tag_2\n  swap2\n  swap1\n  tag_3\n  jump\t// in\ntag_2:\n    /* \"@openzeppelin/contracts/security/ReentrancyGuard.sol\":1716:1717  1 */\n  0x01\n    /* \"@openzeppelin/contracts/security/ReentrancyGuard.sol\":1821:1828  _status */\n  0x00\n    /* \"@openzeppelin/contracts/security/ReentrancyGuard.sol\":1821:1843  _status = _NOT_ENTERED */\n  dup2\n  swap1\n  sstore\n  pop\n    /* \"marketplace2.sol\":1369:1382  _paymentToken */\n  dup1\n    /* \"marketplace2.sol\":1347:1359  paymentToken */\n  0x01\n  0x00\n    /* \"marketplace2.sol\":1347:1383  paymentToken = IERC20(_paymentToken) */\n  0x0100\n  exp\n  dup2\n  sload\n  dup2\n  0xffffffffffffffffffffffffffffffffffffffff\n  mul\n  not\n  and\n  swap1\n  dup4\n  0xffffffffffffffffffffffffffffffffffffffff\n  and\n  mul\n  or\n  swap1\n  sstore\n  pop\n    /* \"marketplace2.sol\":1302:1390  constructor(address _paymentToken) {... */\n  pop\n    /* \"marketplace2.sol\":238:5945  contract NFTMarketplaceWithERC20 is ReentrancyGuard {... */\n  jump(tag_8)\n    /* \"#utility.yul\":88:205   */\ntag_10:\n    /* \"#utility.yul\":197:198   */\n  0x00\n    /* \"#utility.yul\":194:195   */\n  dup1\n    /* \"#utility.yul\":187:199   */\n  revert\n    /* \"#utility.yul\":334:460   */\ntag_12:\n    /* \"#utility.yul\":371:378   */\n  0x00\n    /* \"#utility.yul\":411:453   */\n  0xffffffffffffffffffffffffffffffffffffffff\n    /* \"#utility.yul\":404:409   */\n  dup3\n    /* \"#utility.yul\":400:454   */\n  and\n    /* \"#utility.yul\":389:454   */\n  swap1\n  pop\n    /* \"#utility.yul\":334:460   */\n  swap2\n  swap1\n  pop\n  jump\t// out\n    /* \"#utility.yul\":466:562   */\ntag_13:\n    /* \"#utility.yul\":503:510   */\n  0x00\n    /* \"#utility.yul\":532:556   */\n  tag_22\n    /* \"#utility.yul\":550:555   */\n  dup3\n    /* \"#utility.yul\":532:556   */\n  tag_12\n  jump\t// in\ntag_22:\n    /* \"#utility.yul\":521:556   */\n  swap1\n  pop\n    /* \"#utility.yul\":466:562   */\n  swap2\n  swap1\n  pop\n  jump\t// out\n    /* \"#utility.yul\":568:690   */\ntag_14:\n    /* \"#utility.yul\":641:665   */\n  tag_24\n    /* \"#utility.yul\":659:664   */\n  dup2\n    /* \"#utility.yul\":641:665   */\n  tag_13\n  jump\t// in\ntag_24:\n    /* \"#utility.yul\":634:639   */\n  dup2\n    /* \"#utility.yul\":631:666   */\n  eq\n    /* \"#utility.yul\":621:684   */\n  tag_25\n  jumpi\n    /* \"#utility.yul\":680:681   */\n  0x00\n    /* \"#utility.yul\":677:678   */\n  dup1\n    /* \"#utility.yul\":670:682   */\n  revert\n    /* \"#utility.yul\":621:684   */\ntag_25:\n    /* \"#utility.yul\":568:690   */\n  pop\n  jump\t// out\n    /* \"#utility.yul\":696:839   */\ntag_15:\n    /* \"#utility.yul\":753:758   */\n  0x00\n    /* \"#utility.yul\":784:790   */\n  dup2\n    /* \"#utility.yul\":778:791   */\n  mload\n    /* \"#utility.yul\":769:791   */\n  swap1\n  pop\n    /* \"#utility.yul\":800:833   */\n  tag_27\n    /* \"#utility.yul\":827:832   */\n  dup2\n    /* \"#utility.yul\":800:833   */\n  tag_14\n  jump\t// in\ntag_27:\n    /* \"#utility.yul\":696:839   */\n  swap3\n  swap2\n  pop\n  pop\n  jump\t// out\n    /* \"#utility.yul\":845:1196   */\ntag_3:\n    /* \"#utility.yul\":915:921   */\n  0x00\n    /* \"#utility.yul\":964:966   */\n  0x20\n    /* \"#utility.yul\":952:961   */\n  dup3\n    /* \"#utility.yul\":943:950   */\n  dup5\n    /* \"#utility.yul\":939:962   */\n  sub\n    /* \"#utility.yul\":935:967   */\n  slt\n    /* \"#utility.yul\":932:1051   */\n  iszero\n  tag_29\n  jumpi\n    /* \"#utility.yul\":970:1049   */\n  tag_30\n  tag_10\n  jump\t// in\ntag_30:\n    /* \"#utility.yul\":932:1051   */\ntag_29:\n    /* \"#utility.yul\":1090:1091   */\n  0x00\n    /* \"#utility.yul\":1115:1179   */\n  tag_31\n    /* \"#utility.yul\":1171:1178   */\n  dup5\n    /* \"#utility.yul\":1162:1168   */\n  dup3\n    /* \"#utility.yul\":1151:1160   */\n  dup6\n    /* \"#utility.yul\":1147:1169   */\n  add\n    /* \"#utility.yul\":1115:1179   */\n  tag_15\n  jump\t// in\ntag_31:\n    /* \"#utility.yul\":1105:1179   */\n  swap2\n  pop\n    /* \"#utility.yul\":1061:1189   */\n  pop\n    /* \"#utility.yul\":845:1196   */\n  swap3\n  swap2\n  pop\n  pop\n  jump\t// out\n    /* \"marketplace2.sol\":238:5945  contract NFTMarketplaceWithERC20 is ReentrancyGuard {... */\ntag_8:\n  dataSize(sub_0)\n  dup1\n  dataOffset(sub_0)\n  0x00\n  codecopy\n  0x00\n  return\nstop\n\nsub_0: assembly {\n        /* \"marketplace2.sol\":238:5945  contract NFTMarketplaceWithERC20 is ReentrancyGuard {... */\n      mstore(0x40, 0x80)\n      callvalue\n      dup1\n      iszero\n      tag_1\n      jumpi\n      0x00\n      dup1\n      revert\n    tag_1:\n      pop\n      jumpi(tag_2, lt(calldatasize, 0x04))\n      shr(0xe0, calldataload(0x00))\n      dup1\n      0xb18e0550\n      gt\n      tag_14\n      jumpi\n      dup1\n      0xb18e0550\n      eq\n      tag_8\n      jumpi\n      dup1\n      0xb2ddee06\n      eq\n      tag_9\n      jumpi\n      dup1\n      0xc42753f3\n      eq\n      tag_10\n      jumpi\n      dup1\n      0xcfb51928\n      eq\n      tag_11\n      jumpi\n      dup1\n      0xdb7d8756\n      eq\n      tag_12\n      jumpi\n      dup1\n      0xf5c9ab24\n      eq\n      tag_13\n      jumpi\n      jump(tag_2)\n    tag_14:\n      dup1\n      0x07df30\n      eq\n      tag_3\n      jumpi\n      dup1\n      0x102e391d\n      eq\n      tag_4\n      jumpi\n      dup1\n      0x3013ce29\n      eq\n      tag_5\n      jumpi\n      dup1\n      0x88700d1c\n      eq\n      tag_6\n      jumpi\n      dup1\n      0xa82ba76f\n      eq\n      tag_7\n      jumpi\n    tag_2:\n      0x00\n      dup1\n      revert\n        /* \"marketplace2.sol\":497:560  mapping(address => mapping(uint256 => Listing)) public listings */\n    tag_3:\n      tag_15\n      0x04\n      dup1\n      calldatasize\n      sub\n      dup2\n      add\n      swap1\n      tag_16\n      swap2\n      swap1\n      tag_17\n      jump\t// in\n    tag_16:\n      tag_18\n      jump\t// in\n    tag_15:\n      mload(0x40)\n      tag_19\n      swap4\n      swap3\n      swap2\n      swap1\n      tag_20\n      jump\t// in\n    tag_19:\n      mload(0x40)\n      dup1\n      swap2\n      sub\n      swap1\n      return\n        /* \"marketplace2.sol\":669:739  mapping(bytes32 => mapping(address => uint256[])) public groupTokenIds */\n    tag_4:\n      tag_21\n      0x04\n      dup1\n      calldatasize\n      sub\n      dup2\n      add\n      swap1\n      tag_22\n      swap2\n      swap1\n      tag_23\n      jump\t// in\n    tag_22:\n      tag_24\n      jump\t// in\n    tag_21:\n      mload(0x40)\n      tag_25\n      swap2\n      swap1\n      tag_26\n      jump\t// in\n    tag_25:\n      mload(0x40)\n      dup1\n      swap2\n      sub\n      swap1\n      return\n        /* \"marketplace2.sol\":464:490  IERC20 public paymentToken */\n    tag_5:\n      tag_27\n      tag_28\n      jump\t// in\n    tag_27:\n      mload(0x40)\n      tag_29\n      swap2\n      swap1\n      tag_30\n      jump\t// in\n    tag_29:\n      mload(0x40)\n      dup1\n      swap2\n      sub\n      swap1\n      return\n        /* \"marketplace2.sol\":5564:5715  function getListing(address nftContract, uint256 tokenId) external view returns (Listing memory) {... */\n    tag_6:\n      tag_31\n      0x04\n      dup1\n      calldatasize\n      sub\n      dup2\n      add\n      swap1\n      tag_32\n      swap2\n      swap1\n      tag_17\n      jump\t// in\n    tag_32:\n      tag_33\n      jump\t// in\n    tag_31:\n      mload(0x40)\n      tag_34\n      swap2\n      swap1\n      tag_35\n      jump\t// in\n    tag_34:\n      mload(0x40)\n      dup1\n      swap2\n      sub\n      swap1\n      return\n        /* \"marketplace2.sol\":2938:3574  function buyNFT(address nftContract, uint256 tokenId)... */\n    tag_7:\n      tag_36\n      0x04\n      dup1\n      calldatasize\n      sub\n      dup2\n      add\n      swap1\n      tag_37\n      swap2\n      swap1\n      tag_17\n      jump\t// in\n    tag_37:\n      tag_38\n      jump\t// in\n    tag_36:\n      stop\n        /* \"marketplace2.sol\":566:606  mapping(bytes32 => Bid) public groupBids */\n    tag_8:\n      tag_39\n      0x04\n      dup1\n      calldatasize\n      sub\n      dup2\n      add\n      swap1\n      tag_40\n      swap2\n      swap1\n      tag_41\n      jump\t// in\n    tag_40:\n      tag_42\n      jump\t// in\n    tag_39:\n      mload(0x40)\n      tag_43\n      swap3\n      swap2\n      swap1\n      tag_44\n      jump\t// in\n    tag_43:\n      mload(0x40)\n      dup1\n      swap2\n      sub\n      swap1\n      return\n        /* \"marketplace2.sol\":2514:2932  function cancelListing(address nftContract, uint256 tokenId)... */\n    tag_9:\n      tag_45\n      0x04\n      dup1\n      calldatasize\n      sub\n      dup2\n      add\n      swap1\n      tag_46\n      swap2\n      swap1\n      tag_17\n      jump\t// in\n    tag_46:\n      tag_47\n      jump\t// in\n    tag_45:\n      stop\n        /* \"marketplace2.sol\":1915:2508  function listNFT(address nftContract, uint256 tokenId, uint256 price, bytes32 group)... */\n    tag_10:\n      tag_48\n      0x04\n      dup1\n      calldatasize\n      sub\n      dup2\n      add\n      swap1\n      tag_49\n      swap2\n      swap1\n      tag_50\n      jump\t// in\n    tag_49:\n      tag_51\n      jump\t// in\n    tag_48:\n      stop\n        /* \"marketplace2.sol\":5721:5943  function stringToBytes32(string memory source) public pure returns (bytes32 result) {... */\n    tag_11:\n      tag_52\n      0x04\n      dup1\n      calldatasize\n      sub\n      dup2\n      add\n      swap1\n      tag_53\n      swap2\n      swap1\n      tag_54\n      jump\t// in\n    tag_53:\n      tag_55\n      jump\t// in\n    tag_52:\n      mload(0x40)\n      tag_56\n      swap2\n      swap1\n      tag_57\n      jump\t// in\n    tag_56:\n      mload(0x40)\n      dup1\n      swap2\n      sub\n      swap1\n      return\n        /* \"marketplace2.sol\":612:663  mapping(bytes32 => address[]) public groupContracts */\n    tag_12:\n      tag_58\n      0x04\n      dup1\n      calldatasize\n      sub\n      dup2\n      add\n      swap1\n      tag_59\n      swap2\n      swap1\n      tag_60\n      jump\t// in\n    tag_59:\n      tag_61\n      jump\t// in\n    tag_58:\n      mload(0x40)\n      tag_62\n      swap2\n      swap1\n      tag_63\n      jump\t// in\n    tag_62:\n      mload(0x40)\n      dup1\n      swap2\n      sub\n      swap1\n      return\n        /* \"marketplace2.sol\":3580:5076  function placeGroupBid(bytes32 group, uint256 price) external {... */\n    tag_13:\n      tag_64\n      0x04\n      dup1\n      calldatasize\n      sub\n      dup2\n      add\n      swap1\n      tag_65\n      swap2\n      swap1\n      tag_60\n      jump\t// in\n    tag_65:\n      tag_66\n      jump\t// in\n    tag_64:\n      stop\n        /* \"marketplace2.sol\":497:560  mapping(address => mapping(uint256 => Listing)) public listings */\n    tag_18:\n      mstore(0x20, 0x02)\n      dup2\n      0x00\n      mstore\n      mstore(0x20, keccak256(0x00, 0x40))\n      dup1\n      0x00\n      mstore\n      keccak256(0x00, 0x40)\n      0x00\n      swap2\n      pop\n      swap2\n      pop\n      pop\n      dup1\n      0x00\n      add\n      sload\n      swap1\n      dup1\n      0x01\n      add\n      0x00\n      swap1\n      sload\n      swap1\n      0x0100\n      exp\n      swap1\n      div\n      0xffffffffffffffffffffffffffffffffffffffff\n      and\n      swap1\n      dup1\n      0x02\n      add\n      sload\n      swap1\n      pop\n      dup4\n      jump\t// out\n        /* \"marketplace2.sol\":669:739  mapping(bytes32 => mapping(address => uint256[])) public groupTokenIds */\n    tag_24:\n      mstore(0x20, 0x05)\n      dup3\n      0x00\n      mstore\n      mstore(0x20, keccak256(0x00, 0x40))\n      dup2\n      0x00\n      mstore\n      keccak256(0x00, 0x40)\n      dup2\n      dup2\n      sload\n      dup2\n      lt\n      tag_67\n      jumpi\n      0x00\n      dup1\n      revert\n    tag_67:\n      swap1\n      0x00\n      mstore\n      keccak256(0x00, 0x20)\n      add\n      0x00\n      swap3\n      pop\n      swap3\n      pop\n      pop\n      pop\n      sload\n      dup2\n      jump\t// out\n        /* \"marketplace2.sol\":464:490  IERC20 public paymentToken */\n    tag_28:\n      0x01\n      0x00\n      swap1\n      sload\n      swap1\n      0x0100\n      exp\n      swap1\n      div\n      0xffffffffffffffffffffffffffffffffffffffff\n      and\n      dup2\n      jump\t// out\n        /* \"marketplace2.sol\":5564:5715  function getListing(address nftContract, uint256 tokenId) external view returns (Listing memory) {... */\n    tag_33:\n        /* \"marketplace2.sol\":5645:5659  Listing memory */\n      tag_69\n      tag_70\n      jump\t// in\n    tag_69:\n        /* \"marketplace2.sol\":5678:5686  listings */\n      0x02\n        /* \"marketplace2.sol\":5678:5699  listings[nftContract] */\n      0x00\n        /* \"marketplace2.sol\":5687:5698  nftContract */\n      dup5\n        /* \"marketplace2.sol\":5678:5699  listings[nftContract] */\n      0xffffffffffffffffffffffffffffffffffffffff\n      and\n      0xffffffffffffffffffffffffffffffffffffffff\n      and\n      dup2\n      mstore\n      0x20\n      add\n      swap1\n      dup2\n      mstore\n      0x20\n      add\n      0x00\n      keccak256\n        /* \"marketplace2.sol\":5678:5708  listings[nftContract][tokenId] */\n      0x00\n        /* \"marketplace2.sol\":5700:5707  tokenId */\n      dup4\n        /* \"marketplace2.sol\":5678:5708  listings[nftContract][tokenId] */\n      dup2\n      mstore\n      0x20\n      add\n      swap1\n      dup2\n      mstore\n      0x20\n      add\n      0x00\n      keccak256\n        /* \"marketplace2.sol\":5671:5708  return listings[nftContract][tokenId] */\n      mload(0x40)\n      dup1\n      0x60\n      add\n      0x40\n      mstore\n      swap1\n      dup2\n      0x00\n      dup3\n      add\n      sload\n      dup2\n      mstore\n      0x20\n      add\n      0x01\n      dup3\n      add\n      0x00\n      swap1\n      sload\n      swap1\n      0x0100\n      exp\n      swap1\n      div\n      0xffffffffffffffffffffffffffffffffffffffff\n      and\n      0xffffffffffffffffffffffffffffffffffffffff\n      and\n      0xffffffffffffffffffffffffffffffffffffffff\n      and\n      dup2\n      mstore\n      0x20\n      add\n      0x02\n      dup3\n      add\n      sload\n      dup2\n      mstore\n      pop\n      pop\n      swap1\n      pop\n        /* \"marketplace2.sol\":5564:5715  function getListing(address nftContract, uint256 tokenId) external view returns (Listing memory) {... */\n      swap3\n      swap2\n      pop\n      pop\n      jump\t// out\n        /* \"marketplace2.sol\":2938:3574  function buyNFT(address nftContract, uint256 tokenId)... */\n    tag_38:\n        /* \"@openzeppelin/contracts/security/ReentrancyGuard.sol\":2261:2282  _nonReentrantBefore() */\n      tag_73\n        /* \"@openzeppelin/contracts/security/ReentrancyGuard.sol\":2261:2280  _nonReentrantBefore */\n      tag_74\n        /* \"@openzeppelin/contracts/security/ReentrancyGuard.sol\":2261:2282  _nonReentrantBefore() */\n      jump\t// in\n    tag_73:\n        /* \"marketplace2.sol\":3047:3058  nftContract */\n      dup2\n        /* \"marketplace2.sol\":3060:3067  tokenId */\n      dup2\n        /* \"marketplace2.sol\":1875:1876  0 */\n      0x00\n        /* \"marketplace2.sol\":1836:1844  listings */\n      0x02\n        /* \"marketplace2.sol\":1836:1857  listings[nftContract] */\n      0x00\n        /* \"marketplace2.sol\":1845:1856  nftContract */\n      dup5\n        /* \"marketplace2.sol\":1836:1857  listings[nftContract] */\n      0xffffffffffffffffffffffffffffffffffffffff\n      and\n      0xffffffffffffffffffffffffffffffffffffffff\n      and\n      dup2\n      mstore\n      0x20\n      add\n      swap1\n      dup2\n      mstore\n      0x20\n      add\n      0x00\n      keccak256\n        /* \"marketplace2.sol\":1836:1866  listings[nftContract][tokenId] */\n      0x00\n        /* \"marketplace2.sol\":1858:1865  tokenId */\n      dup4\n        /* \"marketplace2.sol\":1836:1866  listings[nftContract][tokenId] */\n      dup2\n      mstore\n      0x20\n      add\n      swap1\n      dup2\n      mstore\n      0x20\n      add\n      0x00\n      keccak256\n        /* \"marketplace2.sol\":1836:1872  listings[nftContract][tokenId].price */\n      0x00\n      add\n      sload\n        /* \"marketplace2.sol\":1836:1876  listings[nftContract][tokenId].price > 0 */\n      gt\n        /* \"marketplace2.sol\":1828:1891  require(listings[nftContract][tokenId].price > 0, \"Not listed\") */\n      tag_76\n      jumpi\n      mload(0x40)\n      0x08c379a000000000000000000000000000000000000000000000000000000000\n      dup2\n      mstore\n      0x04\n      add\n      tag_77\n      swap1\n      tag_78\n      jump\t// in\n    tag_77:\n      mload(0x40)\n      dup1\n      swap2\n      sub\n      swap1\n      revert\n    tag_76:\n        /* \"marketplace2.sol\":3083:3109  Listing storage listedItem */\n      0x00\n        /* \"marketplace2.sol\":3112:3120  listings */\n      0x02\n        /* \"marketplace2.sol\":3112:3133  listings[nftContract] */\n      0x00\n        /* \"marketplace2.sol\":3121:3132  nftContract */\n      dup7\n        /* \"marketplace2.sol\":3112:3133  listings[nftContract] */\n      0xffffffffffffffffffffffffffffffffffffffff\n      and\n      0xffffffffffffffffffffffffffffffffffffffff\n      and\n      dup2\n      mstore\n      0x20\n      add\n      swap1\n      dup2\n      mstore\n      0x20\n      add\n      0x00\n      keccak256\n        /* \"marketplace2.sol\":3112:3142  listings[nftContract][tokenId] */\n      0x00\n        /* \"marketplace2.sol\":3134:3141  tokenId */\n      dup6\n        /* \"marketplace2.sol\":3112:3142  listings[nftContract][tokenId] */\n      dup2\n      mstore\n      0x20\n      add\n      swap1\n      dup2\n      mstore\n      0x20\n      add\n      0x00\n      keccak256\n        /* \"marketplace2.sol\":3083:3142  Listing storage listedItem = listings[nftContract][tokenId] */\n      swap1\n      pop\n        /* \"marketplace2.sol\":3160:3172  paymentToken */\n      0x01\n      0x00\n      swap1\n      sload\n      swap1\n      0x0100\n      exp\n      swap1\n      div\n      0xffffffffffffffffffffffffffffffffffffffff\n      and\n        /* \"marketplace2.sol\":3160:3185  paymentToken.transferFrom */\n      0xffffffffffffffffffffffffffffffffffffffff\n      and\n      0x23b872dd\n        /* \"marketplace2.sol\":3186:3196  msg.sender */\n      caller\n        /* \"marketplace2.sol\":3198:3208  listedItem */\n      dup4\n        /* \"marketplace2.sol\":3198:3215  listedItem.seller */\n      0x01\n      add\n      0x00\n      swap1\n      sload\n      swap1\n      0x0100\n      exp\n      swap1\n      div\n      0xffffffffffffffffffffffffffffffffffffffff\n      and\n        /* \"marketplace2.sol\":3217:3227  listedItem */\n      dup5\n        /* \"marketplace2.sol\":3217:3233  listedItem.price */\n      0x00\n      add\n      sload\n        /* \"marketplace2.sol\":3160:3234  paymentToken.transferFrom(msg.sender, listedItem.seller, listedItem.price) */\n      mload(0x40)\n      dup5\n      0xffffffff\n      and\n      0xe0\n      shl\n      dup2\n      mstore\n      0x04\n      add\n      tag_80\n      swap4\n      swap3\n      swap2\n      swap1\n      tag_81\n      jump\t// in\n    tag_80:\n      0x20\n      mload(0x40)\n      dup1\n      dup4\n      sub\n      dup2\n      0x00\n      dup8\n      gas\n      call\n      iszero\n      dup1\n      iszero\n      tag_83\n      jumpi\n      returndatasize\n      0x00\n      dup1\n      returndatacopy\n      revert(0x00, returndatasize)\n    tag_83:\n      pop\n      pop\n      pop\n      pop\n      mload(0x40)\n      returndatasize\n      not(0x1f)\n      0x1f\n      dup3\n      add\n      and\n      dup3\n      add\n      dup1\n      0x40\n      mstore\n      pop\n      dup2\n      add\n      swap1\n      tag_84\n      swap2\n      swap1\n      tag_85\n      jump\t// in\n    tag_84:\n        /* \"marketplace2.sol\":3152:3253  require(paymentToken.transferFrom(msg.sender, listedItem.seller, listedItem.price), \"Payment failed\") */\n      tag_86\n      jumpi\n      mload(0x40)\n      0x08c379a000000000000000000000000000000000000000000000000000000000\n      dup2\n      mstore\n      0x04\n      add\n      tag_87\n      swap1\n      tag_88\n      jump\t// in\n    tag_87:\n      mload(0x40)\n      dup1\n      swap2\n      sub\n      swap1\n      revert\n    tag_86:\n        /* \"marketplace2.sol\":3264:3277  bytes32 group */\n      0x00\n        /* \"marketplace2.sol\":3280:3290  listedItem */\n      dup2\n        /* \"marketplace2.sol\":3280:3296  listedItem.group */\n      0x02\n      add\n      sload\n        /* \"marketplace2.sol\":3264:3296  bytes32 group = listedItem.group */\n      swap1\n      pop\n        /* \"marketplace2.sol\":3313:3321  listings */\n      0x02\n        /* \"marketplace2.sol\":3313:3334  listings[nftContract] */\n      0x00\n        /* \"marketplace2.sol\":3322:3333  nftContract */\n      dup8\n        /* \"marketplace2.sol\":3313:3334  listings[nftContract] */\n      0xffffffffffffffffffffffffffffffffffffffff\n      and\n      0xffffffffffffffffffffffffffffffffffffffff\n      and\n      dup2\n      mstore\n      0x20\n      add\n      swap1\n      dup2\n      mstore\n      0x20\n      add\n      0x00\n      keccak256\n        /* \"marketplace2.sol\":3313:3343  listings[nftContract][tokenId] */\n      0x00\n        /* \"marketplace2.sol\":3335:3342  tokenId */\n      dup7\n        /* \"marketplace2.sol\":3313:3343  listings[nftContract][tokenId] */\n      dup2\n      mstore\n      0x20\n      add\n      swap1\n      dup2\n      mstore\n      0x20\n      add\n      0x00\n      keccak256\n      0x00\n        /* \"marketplace2.sol\":3306:3343  delete listings[nftContract][tokenId] */\n      dup1\n      dup3\n      add\n      0x00\n      swap1\n      sstore\n      0x01\n      dup3\n      add\n      exp(0x0100, 0x00)\n      dup2\n      sload\n      swap1\n      0xffffffffffffffffffffffffffffffffffffffff\n      mul\n      not\n      and\n      swap1\n      sstore\n      0x02\n      dup3\n      add\n      0x00\n      swap1\n      sstore\n      pop\n      pop\n        /* \"marketplace2.sol\":3353:3405  _removeTokenIdFromGroup(group, nftContract, tokenId) */\n      tag_89\n        /* \"marketplace2.sol\":3377:3382  group */\n      dup2\n        /* \"marketplace2.sol\":3384:3395  nftContract */\n      dup8\n        /* \"marketplace2.sol\":3397:3404  tokenId */\n      dup8\n        /* \"marketplace2.sol\":3353:3376  _removeTokenIdFromGroup */\n      tag_90\n        /* \"marketplace2.sol\":3353:3405  _removeTokenIdFromGroup(group, nftContract, tokenId) */\n      jump\t// in\n    tag_89:\n        /* \"marketplace2.sol\":3424:3435  nftContract */\n      dup6\n        /* \"marketplace2.sol\":3416:3453  IERC721(nftContract).safeTransferFrom */\n      0xffffffffffffffffffffffffffffffffffffffff\n      and\n      0x42842e0e\n        /* \"marketplace2.sol\":3454:3464  listedItem */\n      dup4\n        /* \"marketplace2.sol\":3454:3471  listedItem.seller */\n      0x01\n      add\n      0x00\n      swap1\n      sload\n      swap1\n      0x0100\n      exp\n      swap1\n      div\n      0xffffffffffffffffffffffffffffffffffffffff\n      and\n        /* \"marketplace2.sol\":3473:3483  msg.sender */\n      caller\n        /* \"marketplace2.sol\":3485:3492  tokenId */\n      dup9\n        /* \"marketplace2.sol\":3416:3493  IERC721(nftContract).safeTransferFrom(listedItem.seller, msg.sender, tokenId) */\n      mload(0x40)\n      dup5\n      0xffffffff\n      and\n      0xe0\n      shl\n      dup2\n      mstore\n      0x04\n      add\n      tag_91\n      swap4\n      swap3\n      swap2\n      swap1\n      tag_81\n      jump\t// in\n    tag_91:\n      0x00\n      mload(0x40)\n      dup1\n      dup4\n      sub\n      dup2\n      0x00\n      dup8\n      dup1\n      extcodesize\n      iszero\n      dup1\n      iszero\n      tag_92\n      jumpi\n      0x00\n      dup1\n      revert\n    tag_92:\n      pop\n      gas\n      call\n      iszero\n      dup1\n      iszero\n      tag_94\n      jumpi\n      returndatasize\n      0x00\n      dup1\n      returndatacopy\n      revert(0x00, returndatasize)\n    tag_94:\n      pop\n      pop\n      pop\n      pop\n        /* \"marketplace2.sol\":3556:3566  msg.sender */\n      caller\n        /* \"marketplace2.sol\":3508:3567  NFTSold(nftContract, tokenId, listedItem.price, msg.sender) */\n      0xffffffffffffffffffffffffffffffffffffffff\n      and\n        /* \"marketplace2.sol\":3529:3536  tokenId */\n      dup6\n        /* \"marketplace2.sol\":3516:3527  nftContract */\n      dup8\n        /* \"marketplace2.sol\":3508:3567  NFTSold(nftContract, tokenId, listedItem.price, msg.sender) */\n      0xffffffffffffffffffffffffffffffffffffffff\n      and\n      0x77c3ced349b08a2af4e9d443fb697437c3197b3095d43fcbdc2cdc97b1a60e0c\n        /* \"marketplace2.sol\":3538:3548  listedItem */\n      dup6\n        /* \"marketplace2.sol\":3538:3554  listedItem.price */\n      0x00\n      add\n      sload\n        /* \"marketplace2.sol\":3508:3567  NFTSold(nftContract, tokenId, listedItem.price, msg.sender) */\n      mload(0x40)\n      tag_95\n      swap2\n      swap1\n      tag_26\n      jump\t// in\n    tag_95:\n      mload(0x40)\n      dup1\n      swap2\n      sub\n      swap1\n      log4\n        /* \"marketplace2.sol\":3073:3574  {... */\n      pop\n      pop\n        /* \"@openzeppelin/contracts/security/ReentrancyGuard.sol\":2292:2293  _ */\n      pop\n      pop\n        /* \"@openzeppelin/contracts/security/ReentrancyGuard.sol\":2303:2323  _nonReentrantAfter() */\n      tag_96\n        /* \"@openzeppelin/contracts/security/ReentrancyGuard.sol\":2303:2321  _nonReentrantAfter */\n      tag_97\n        /* \"@openzeppelin/contracts/security/ReentrancyGuard.sol\":2303:2323  _nonReentrantAfter() */\n      jump\t// in\n    tag_96:\n        /* \"marketplace2.sol\":2938:3574  function buyNFT(address nftContract, uint256 tokenId)... */\n      pop\n      pop\n      jump\t// out\n        /* \"marketplace2.sol\":566:606  mapping(bytes32 => Bid) public groupBids */\n    tag_42:\n      mstore(0x20, 0x03)\n      dup1\n      0x00\n      mstore\n      keccak256(0x00, 0x40)\n      0x00\n      swap2\n      pop\n      swap1\n      pop\n      dup1\n      0x00\n      add\n      sload\n      swap1\n      dup1\n      0x01\n      add\n      0x00\n      swap1\n      sload\n      swap1\n      0x0100\n      exp\n      swap1\n      div\n      0xffffffffffffffffffffffffffffffffffffffff\n      and\n      swap1\n      pop\n      dup3\n      jump\t// out\n        /* \"marketplace2.sol\":2514:2932  function cancelListing(address nftContract, uint256 tokenId)... */\n    tag_47:\n        /* \"marketplace2.sol\":2608:2619  nftContract */\n      dup2\n        /* \"marketplace2.sol\":2621:2628  tokenId */\n      dup2\n        /* \"marketplace2.sol\":2630:2640  msg.sender */\n      caller\n        /* \"marketplace2.sol\":1478:1489  IERC721 nft */\n      0x00\n        /* \"marketplace2.sol\":1500:1511  nftContract */\n      dup4\n        /* \"marketplace2.sol\":1478:1512  IERC721 nft = IERC721(nftContract) */\n      swap1\n      pop\n        /* \"marketplace2.sol\":1554:1561  spender */\n      dup2\n        /* \"marketplace2.sol\":1530:1561  nft.ownerOf(tokenId) == spender */\n      0xffffffffffffffffffffffffffffffffffffffff\n      and\n        /* \"marketplace2.sol\":1530:1533  nft */\n      dup2\n        /* \"marketplace2.sol\":1530:1541  nft.ownerOf */\n      0xffffffffffffffffffffffffffffffffffffffff\n      and\n      0x6352211e\n        /* \"marketplace2.sol\":1542:1549  tokenId */\n      dup6\n        /* \"marketplace2.sol\":1530:1550  nft.ownerOf(tokenId) */\n      mload(0x40)\n      dup3\n      0xffffffff\n      and\n      0xe0\n      shl\n      dup2\n      mstore\n      0x04\n      add\n      tag_99\n      swap2\n      swap1\n      tag_26\n      jump\t// in\n    tag_99:\n      0x20\n      mload(0x40)\n      dup1\n      dup4\n      sub\n      dup2\n      dup7\n      gas\n      staticcall\n      iszero\n      dup1\n      iszero\n      tag_101\n      jumpi\n      returndatasize\n      0x00\n      dup1\n      returndatacopy\n      revert(0x00, returndatasize)\n    tag_101:\n      pop\n      pop\n      pop\n      pop\n      mload(0x40)\n      returndatasize\n      not(0x1f)\n      0x1f\n      dup3\n      add\n      and\n      dup3\n      add\n      dup1\n      0x40\n      mstore\n      pop\n      dup2\n      add\n      swap1\n      tag_102\n      swap2\n      swap1\n      tag_103\n      jump\t// in\n    tag_102:\n        /* \"marketplace2.sol\":1530:1561  nft.ownerOf(tokenId) == spender */\n      0xffffffffffffffffffffffffffffffffffffffff\n      and\n      eq\n        /* \"marketplace2.sol\":1522:1579  require(nft.ownerOf(tokenId) == spender, \"Not the owner\") */\n      tag_104\n      jumpi\n      mload(0x40)\n      0x08c379a000000000000000000000000000000000000000000000000000000000\n      dup2\n      mstore\n      0x04\n      add\n      tag_105\n      swap1\n      tag_106\n      jump\t// in\n    tag_105:\n      mload(0x40)\n      dup1\n      swap2\n      sub\n      swap1\n      revert\n    tag_104:\n        /* \"marketplace2.sol\":2659:2670  nftContract */\n      dup6\n        /* \"marketplace2.sol\":2672:2679  tokenId */\n      dup6\n        /* \"marketplace2.sol\":1875:1876  0 */\n      0x00\n        /* \"marketplace2.sol\":1836:1844  listings */\n      0x02\n        /* \"marketplace2.sol\":1836:1857  listings[nftContract] */\n      0x00\n        /* \"marketplace2.sol\":1845:1856  nftContract */\n      dup5\n        /* \"marketplace2.sol\":1836:1857  listings[nftContract] */\n      0xffffffffffffffffffffffffffffffffffffffff\n      and\n      0xffffffffffffffffffffffffffffffffffffffff\n      and\n      dup2\n      mstore\n      0x20\n      add\n      swap1\n      dup2\n      mstore\n      0x20\n      add\n      0x00\n      keccak256\n        /* \"marketplace2.sol\":1836:1866  listings[nftContract][tokenId] */\n      0x00\n        /* \"marketplace2.sol\":1858:1865  tokenId */\n      dup4\n        /* \"marketplace2.sol\":1836:1866  listings[nftContract][tokenId] */\n      dup2\n      mstore\n      0x20\n      add\n      swap1\n      dup2\n      mstore\n      0x20\n      add\n      0x00\n      keccak256\n        /* \"marketplace2.sol\":1836:1872  listings[nftContract][tokenId].price */\n      0x00\n      add\n      sload\n        /* \"marketplace2.sol\":1836:1876  listings[nftContract][tokenId].price > 0 */\n      gt\n        /* \"marketplace2.sol\":1828:1891  require(listings[nftContract][tokenId].price > 0, \"Not listed\") */\n      tag_108\n      jumpi\n      mload(0x40)\n      0x08c379a000000000000000000000000000000000000000000000000000000000\n      dup2\n      mstore\n      0x04\n      add\n      tag_109\n      swap1\n      tag_78\n      jump\t// in\n    tag_109:\n      mload(0x40)\n      dup1\n      swap2\n      sub\n      swap1\n      revert\n    tag_108:\n        /* \"marketplace2.sol\":2695:2708  bytes32 group */\n      0x00\n        /* \"marketplace2.sol\":2711:2719  listings */\n      0x02\n        /* \"marketplace2.sol\":2711:2732  listings[nftContract] */\n      0x00\n        /* \"marketplace2.sol\":2720:2731  nftContract */\n      dup11\n        /* \"marketplace2.sol\":2711:2732  listings[nftContract] */\n      0xffffffffffffffffffffffffffffffffffffffff\n      and\n      0xffffffffffffffffffffffffffffffffffffffff\n      and\n      dup2\n      mstore\n      0x20\n      add\n      swap1\n      dup2\n      mstore\n      0x20\n      add\n      0x00\n      keccak256\n        /* \"marketplace2.sol\":2711:2741  listings[nftContract][tokenId] */\n      0x00\n        /* \"marketplace2.sol\":2733:2740  tokenId */\n      dup10\n        /* \"marketplace2.sol\":2711:2741  listings[nftContract][tokenId] */\n      dup2\n      mstore\n      0x20\n      add\n      swap1\n      dup2\n      mstore\n      0x20\n      add\n      0x00\n      keccak256\n        /* \"marketplace2.sol\":2711:2747  listings[nftContract][tokenId].group */\n      0x02\n      add\n      sload\n        /* \"marketplace2.sol\":2695:2747  bytes32 group = listings[nftContract][tokenId].group */\n      swap1\n      pop\n        /* \"marketplace2.sol\":2764:2772  listings */\n      0x02\n        /* \"marketplace2.sol\":2764:2785  listings[nftContract] */\n      0x00\n        /* \"marketplace2.sol\":2773:2784  nftContract */\n      dup11\n        /* \"marketplace2.sol\":2764:2785  listings[nftContract] */\n      0xffffffffffffffffffffffffffffffffffffffff\n      and\n      0xffffffffffffffffffffffffffffffffffffffff\n      and\n      dup2\n      mstore\n      0x20\n      add\n      swap1\n      dup2\n      mstore\n      0x20\n      add\n      0x00\n      keccak256\n        /* \"marketplace2.sol\":2764:2794  listings[nftContract][tokenId] */\n      0x00\n        /* \"marketplace2.sol\":2786:2793  tokenId */\n      dup10\n        /* \"marketplace2.sol\":2764:2794  listings[nftContract][tokenId] */\n      dup2\n      mstore\n      0x20\n      add\n      swap1\n      dup2\n      mstore\n      0x20\n      add\n      0x00\n      keccak256\n      0x00\n        /* \"marketplace2.sol\":2757:2794  delete listings[nftContract][tokenId] */\n      dup1\n      dup3\n      add\n      0x00\n      swap1\n      sstore\n      0x01\n      dup3\n      add\n      exp(0x0100, 0x00)\n      dup2\n      sload\n      swap1\n      0xffffffffffffffffffffffffffffffffffffffff\n      mul\n      not\n      and\n      swap1\n      sstore\n      0x02\n      dup3\n      add\n      0x00\n      swap1\n      sstore\n      pop\n      pop\n        /* \"marketplace2.sol\":2804:2856  _removeTokenIdFromGroup(group, nftContract, tokenId) */\n      tag_111\n        /* \"marketplace2.sol\":2828:2833  group */\n      dup2\n        /* \"marketplace2.sol\":2835:2846  nftContract */\n      dup11\n        /* \"marketplace2.sol\":2848:2855  tokenId */\n      dup11\n        /* \"marketplace2.sol\":2804:2827  _removeTokenIdFromGroup */\n      tag_90\n        /* \"marketplace2.sol\":2804:2856  _removeTokenIdFromGroup(group, nftContract, tokenId) */\n      jump\t// in\n    tag_111:\n        /* \"marketplace2.sol\":2914:2924  msg.sender */\n      caller\n        /* \"marketplace2.sol\":2872:2925  NFTListingCancelled(nftContract, tokenId, msg.sender) */\n      0xffffffffffffffffffffffffffffffffffffffff\n      and\n        /* \"marketplace2.sol\":2905:2912  tokenId */\n      dup9\n        /* \"marketplace2.sol\":2892:2903  nftContract */\n      dup11\n        /* \"marketplace2.sol\":2872:2925  NFTListingCancelled(nftContract, tokenId, msg.sender) */\n      0xffffffffffffffffffffffffffffffffffffffff\n      and\n      0x83614a26fd4398c876bd6684c0d04cf2e84ee7e4bc24e8d8888ab0e724bac032\n      mload(0x40)\n      mload(0x40)\n      dup1\n      swap2\n      sub\n      swap1\n      log4\n        /* \"marketplace2.sol\":2685:2932  {... */\n      pop\n        /* \"marketplace2.sol\":1589:1590  _ */\n      pop\n      pop\n        /* \"marketplace2.sol\":1468:1597  {... */\n      pop\n        /* \"marketplace2.sol\":2514:2932  function cancelListing(address nftContract, uint256 tokenId)... */\n      pop\n      pop\n      pop\n      pop\n      pop\n      jump\t// out\n        /* \"marketplace2.sol\":1915:2508  function listNFT(address nftContract, uint256 tokenId, uint256 price, bytes32 group)... */\n    tag_51:\n        /* \"marketplace2.sol\":2033:2044  nftContract */\n      dup4\n        /* \"marketplace2.sol\":2046:2053  tokenId */\n      dup4\n        /* \"marketplace2.sol\":2055:2065  msg.sender */\n      caller\n        /* \"marketplace2.sol\":1478:1489  IERC721 nft */\n      0x00\n        /* \"marketplace2.sol\":1500:1511  nftContract */\n      dup4\n        /* \"marketplace2.sol\":1478:1512  IERC721 nft = IERC721(nftContract) */\n      swap1\n      pop\n        /* \"marketplace2.sol\":1554:1561  spender */\n      dup2\n        /* \"marketplace2.sol\":1530:1561  nft.ownerOf(tokenId) == spender */\n      0xffffffffffffffffffffffffffffffffffffffff\n      and\n        /* \"marketplace2.sol\":1530:1533  nft */\n      dup2\n        /* \"marketplace2.sol\":1530:1541  nft.ownerOf */\n      0xffffffffffffffffffffffffffffffffffffffff\n      and\n      0x6352211e\n        /* \"marketplace2.sol\":1542:1549  tokenId */\n      dup6\n        /* \"marketplace2.sol\":1530:1550  nft.ownerOf(tokenId) */\n      mload(0x40)\n      dup3\n      0xffffffff\n      and\n      0xe0\n      shl\n      dup2\n      mstore\n      0x04\n      add\n      tag_113\n      swap2\n      swap1\n      tag_26\n      jump\t// in\n    tag_113:\n      0x20\n      mload(0x40)\n      dup1\n      dup4\n      sub\n      dup2\n      dup7\n      gas\n      staticcall\n      iszero\n      dup1\n      iszero\n      tag_115\n      jumpi\n      returndatasize\n      0x00\n      dup1\n      returndatacopy\n      revert(0x00, returndatasize)\n    tag_115:\n      pop\n      pop\n      pop\n      pop\n      mload(0x40)\n      returndatasize\n      not(0x1f)\n      0x1f\n      dup3\n      add\n      and\n      dup3\n      add\n      dup1\n      0x40\n      mstore\n      pop\n      dup2\n      add\n      swap1\n      tag_116\n      swap2\n      swap1\n      tag_103\n      jump\t// in\n    tag_116:\n        /* \"marketplace2.sol\":1530:1561  nft.ownerOf(tokenId) == spender */\n      0xffffffffffffffffffffffffffffffffffffffff\n      and\n      eq\n        /* \"marketplace2.sol\":1522:1579  require(nft.ownerOf(tokenId) == spender, \"Not the owner\") */\n      tag_117\n      jumpi\n      mload(0x40)\n      0x08c379a000000000000000000000000000000000000000000000000000000000\n      dup2\n      mstore\n      0x04\n      add\n      tag_118\n      swap1\n      tag_106\n      jump\t// in\n    tag_118:\n      mload(0x40)\n      dup1\n      swap2\n      sub\n      swap1\n      revert\n    tag_117:\n        /* \"marketplace2.sol\":2085:2096  nftContract */\n      dup8\n        /* \"marketplace2.sol\":2098:2105  tokenId */\n      dup8\n        /* \"marketplace2.sol\":1718:1719  0 */\n      0x00\n        /* \"marketplace2.sol\":1678:1686  listings */\n      0x02\n        /* \"marketplace2.sol\":1678:1699  listings[nftContract] */\n      0x00\n        /* \"marketplace2.sol\":1687:1698  nftContract */\n      dup5\n        /* \"marketplace2.sol\":1678:1699  listings[nftContract] */\n      0xffffffffffffffffffffffffffffffffffffffff\n      and\n      0xffffffffffffffffffffffffffffffffffffffff\n      and\n      dup2\n      mstore\n      0x20\n      add\n      swap1\n      dup2\n      mstore\n      0x20\n      add\n      0x00\n      keccak256\n        /* \"marketplace2.sol\":1678:1708  listings[nftContract][tokenId] */\n      0x00\n        /* \"marketplace2.sol\":1700:1707  tokenId */\n      dup4\n        /* \"marketplace2.sol\":1678:1708  listings[nftContract][tokenId] */\n      dup2\n      mstore\n      0x20\n      add\n      swap1\n      dup2\n      mstore\n      0x20\n      add\n      0x00\n      keccak256\n        /* \"marketplace2.sol\":1678:1714  listings[nftContract][tokenId].price */\n      0x00\n      add\n      sload\n        /* \"marketplace2.sol\":1678:1719  listings[nftContract][tokenId].price == 0 */\n      eq\n        /* \"marketplace2.sol\":1670:1738  require(listings[nftContract][tokenId].price == 0, \"Already listed\") */\n      tag_120\n      jumpi\n      mload(0x40)\n      0x08c379a000000000000000000000000000000000000000000000000000000000\n      dup2\n      mstore\n      0x04\n      add\n      tag_121\n      swap1\n      tag_122\n      jump\t// in\n    tag_121:\n      mload(0x40)\n      dup1\n      swap2\n      sub\n      swap1\n      revert\n    tag_120:\n        /* \"marketplace2.sol\":2137:2138  0 */\n      0x00\n        /* \"marketplace2.sol\":2129:2134  price */\n      dup9\n        /* \"marketplace2.sol\":2129:2138  price > 0 */\n      gt\n        /* \"marketplace2.sol\":2121:2152  require(price > 0, \"Price > 0\") */\n      tag_124\n      jumpi\n      mload(0x40)\n      0x08c379a000000000000000000000000000000000000000000000000000000000\n      dup2\n      mstore\n      0x04\n      add\n      tag_125\n      swap1\n      tag_126\n      jump\t// in\n    tag_125:\n      mload(0x40)\n      dup1\n      swap2\n      sub\n      swap1\n      revert\n    tag_124:\n        /* \"marketplace2.sol\":2223:2227  this */\n      address\n        /* \"marketplace2.sol\":2170:2228  IERC721(nftContract).getApproved(tokenId) == address(this) */\n      0xffffffffffffffffffffffffffffffffffffffff\n      and\n        /* \"marketplace2.sol\":2178:2189  nftContract */\n      dup11\n        /* \"marketplace2.sol\":2170:2202  IERC721(nftContract).getApproved */\n      0xffffffffffffffffffffffffffffffffffffffff\n      and\n      0x081812fc\n        /* \"marketplace2.sol\":2203:2210  tokenId */\n      dup12\n        /* \"marketplace2.sol\":2170:2211  IERC721(nftContract).getApproved(tokenId) */\n      mload(0x40)\n      dup3\n      0xffffffff\n      and\n      0xe0\n      shl\n      dup2\n      mstore\n      0x04\n      add\n      tag_127\n      swap2\n      swap1\n      tag_26\n      jump\t// in\n    tag_127:\n      0x20\n      mload(0x40)\n      dup1\n      dup4\n      sub\n      dup2\n      dup7\n      gas\n      staticcall\n      iszero\n      dup1\n      iszero\n      tag_129\n      jumpi\n      returndatasize\n      0x00\n      dup1\n      returndatacopy\n      revert(0x00, returndatasize)\n    tag_129:\n      pop\n      pop\n      pop\n      pop\n      mload(0x40)\n      returndatasize\n      not(0x1f)\n      0x1f\n      dup3\n      add\n      and\n      dup3\n      add\n      dup1\n      0x40\n      mstore\n      pop\n      dup2\n      add\n      swap1\n      tag_130\n      swap2\n      swap1\n      tag_103\n      jump\t// in\n    tag_130:\n        /* \"marketplace2.sol\":2170:2228  IERC721(nftContract).getApproved(tokenId) == address(this) */\n      0xffffffffffffffffffffffffffffffffffffffff\n      and\n      eq\n        /* \"marketplace2.sol\":2162:2245  require(IERC721(nftContract).getApproved(tokenId) == address(this), \"Not approved\") */\n      tag_131\n      jumpi\n      mload(0x40)\n      0x08c379a000000000000000000000000000000000000000000000000000000000\n      dup2\n      mstore\n      0x04\n      add\n      tag_132\n      swap1\n      tag_133\n      jump\t// in\n    tag_132:\n      mload(0x40)\n      dup1\n      swap2\n      sub\n      swap1\n      revert\n    tag_131:\n        /* \"marketplace2.sol\":2289:2322  Listing(price, msg.sender, group) */\n      mload(0x40)\n      dup1\n      0x60\n      add\n      0x40\n      mstore\n      dup1\n        /* \"marketplace2.sol\":2297:2302  price */\n      dup10\n        /* \"marketplace2.sol\":2289:2322  Listing(price, msg.sender, group) */\n      dup2\n      mstore\n      0x20\n      add\n        /* \"marketplace2.sol\":2304:2314  msg.sender */\n      caller\n        /* \"marketplace2.sol\":2289:2322  Listing(price, msg.sender, group) */\n      0xffffffffffffffffffffffffffffffffffffffff\n      and\n      dup2\n      mstore\n      0x20\n      add\n        /* \"marketplace2.sol\":2316:2321  group */\n      dup9\n        /* \"marketplace2.sol\":2289:2322  Listing(price, msg.sender, group) */\n      dup2\n      mstore\n      pop\n        /* \"marketplace2.sol\":2256:2264  listings */\n      0x02\n        /* \"marketplace2.sol\":2256:2277  listings[nftContract] */\n      0x00\n        /* \"marketplace2.sol\":2265:2276  nftContract */\n      dup13\n        /* \"marketplace2.sol\":2256:2277  listings[nftContract] */\n      0xffffffffffffffffffffffffffffffffffffffff\n      and\n      0xffffffffffffffffffffffffffffffffffffffff\n      and\n      dup2\n      mstore\n      0x20\n      add\n      swap1\n      dup2\n      mstore\n      0x20\n      add\n      0x00\n      keccak256\n        /* \"marketplace2.sol\":2256:2286  listings[nftContract][tokenId] */\n      0x00\n        /* \"marketplace2.sol\":2278:2285  tokenId */\n      dup12\n        /* \"marketplace2.sol\":2256:2286  listings[nftContract][tokenId] */\n      dup2\n      mstore\n      0x20\n      add\n      swap1\n      dup2\n      mstore\n      0x20\n      add\n      0x00\n      keccak256\n        /* \"marketplace2.sol\":2256:2322  listings[nftContract][tokenId] = Listing(price, msg.sender, group) */\n      0x00\n      dup3\n      add\n      mload\n      dup2\n      0x00\n      add\n      sstore\n      0x20\n      dup3\n      add\n      mload\n      dup2\n      0x01\n      add\n      exp(0x0100, 0x00)\n      dup2\n      sload\n      dup2\n      0xffffffffffffffffffffffffffffffffffffffff\n      mul\n      not\n      and\n      swap1\n      dup4\n      0xffffffffffffffffffffffffffffffffffffffff\n      and\n      mul\n      or\n      swap1\n      sstore\n      pop\n      0x40\n      dup3\n      add\n      mload\n      dup2\n      0x02\n      add\n      sstore\n      swap1\n      pop\n      pop\n        /* \"marketplace2.sol\":2332:2345  groupTokenIds */\n      0x05\n        /* \"marketplace2.sol\":2332:2352  groupTokenIds[group] */\n      0x00\n        /* \"marketplace2.sol\":2346:2351  group */\n      dup9\n        /* \"marketplace2.sol\":2332:2352  groupTokenIds[group] */\n      dup2\n      mstore\n      0x20\n      add\n      swap1\n      dup2\n      mstore\n      0x20\n      add\n      0x00\n      keccak256\n        /* \"marketplace2.sol\":2332:2365  groupTokenIds[group][nftContract] */\n      0x00\n        /* \"marketplace2.sol\":2353:2364  nftContract */\n      dup12\n        /* \"marketplace2.sol\":2332:2365  groupTokenIds[group][nftContract] */\n      0xffffffffffffffffffffffffffffffffffffffff\n      and\n      0xffffffffffffffffffffffffffffffffffffffff\n      and\n      dup2\n      mstore\n      0x20\n      add\n      swap1\n      dup2\n      mstore\n      0x20\n      add\n      0x00\n      keccak256\n        /* \"marketplace2.sol\":2371:2378  tokenId */\n      dup10\n        /* \"marketplace2.sol\":2332:2379  groupTokenIds[group][nftContract].push(tokenId) */\n      swap1\n      dup1\n      0x01\n      dup2\n      sload\n      add\n      dup1\n      dup3\n      sstore\n      dup1\n      swap2\n      pop\n      pop\n      0x01\n      swap1\n      sub\n      swap1\n      0x00\n      mstore\n      keccak256(0x00, 0x20)\n      add\n      0x00\n      swap1\n      swap2\n      swap1\n      swap2\n      swap1\n      swap2\n      pop\n      sstore\n        /* \"marketplace2.sol\":2389:2403  groupContracts */\n      0x04\n        /* \"marketplace2.sol\":2389:2410  groupContracts[group] */\n      0x00\n        /* \"marketplace2.sol\":2404:2409  group */\n      dup9\n        /* \"marketplace2.sol\":2389:2410  groupContracts[group] */\n      dup2\n      mstore\n      0x20\n      add\n      swap1\n      dup2\n      mstore\n      0x20\n      add\n      0x00\n      keccak256\n        /* \"marketplace2.sol\":2416:2427  nftContract */\n      dup11\n        /* \"marketplace2.sol\":2389:2428  groupContracts[group].push(nftContract) */\n      swap1\n      dup1\n      0x01\n      dup2\n      sload\n      add\n      dup1\n      dup3\n      sstore\n      dup1\n      swap2\n      pop\n      pop\n      0x01\n      swap1\n      sub\n      swap1\n      0x00\n      mstore\n      keccak256(0x00, 0x20)\n      add\n      0x00\n      swap1\n      swap2\n      swap1\n      swap2\n      swap1\n      swap2\n      0x0100\n      exp\n      dup2\n      sload\n      dup2\n      0xffffffffffffffffffffffffffffffffffffffff\n      mul\n      not\n      and\n      swap1\n      dup4\n      0xffffffffffffffffffffffffffffffffffffffff\n      and\n      mul\n      or\n      swap1\n      sstore\n      pop\n        /* \"marketplace2.sol\":2483:2493  msg.sender */\n      caller\n        /* \"marketplace2.sol\":2444:2501  NFTListed(nftContract, tokenId, price, msg.sender, group) */\n      0xffffffffffffffffffffffffffffffffffffffff\n      and\n        /* \"marketplace2.sol\":2467:2474  tokenId */\n      dup10\n        /* \"marketplace2.sol\":2454:2465  nftContract */\n      dup12\n        /* \"marketplace2.sol\":2444:2501  NFTListed(nftContract, tokenId, price, msg.sender, group) */\n      0xffffffffffffffffffffffffffffffffffffffff\n      and\n      0x1417b2eba804ddaa10ed9c3fc1581b7141dd70dbe8bf5e41c36d73c1625f0711\n        /* \"marketplace2.sol\":2476:2481  price */\n      dup12\n        /* \"marketplace2.sol\":2495:2500  group */\n      dup12\n        /* \"marketplace2.sol\":2444:2501  NFTListed(nftContract, tokenId, price, msg.sender, group) */\n      mload(0x40)\n      tag_136\n      swap3\n      swap2\n      swap1\n      tag_137\n      jump\t// in\n    tag_136:\n      mload(0x40)\n      dup1\n      swap2\n      sub\n      swap1\n      log4\n        /* \"marketplace2.sol\":1589:1590  _ */\n      pop\n      pop\n        /* \"marketplace2.sol\":1468:1597  {... */\n      pop\n        /* \"marketplace2.sol\":1915:2508  function listNFT(address nftContract, uint256 tokenId, uint256 price, bytes32 group)... */\n      pop\n      pop\n      pop\n      pop\n      pop\n      pop\n      pop\n      jump\t// out\n        /* \"marketplace2.sol\":5721:5943  function stringToBytes32(string memory source) public pure returns (bytes32 result) {... */\n    tag_55:\n        /* \"marketplace2.sol\":5789:5803  bytes32 result */\n      0x00\n        /* \"marketplace2.sol\":5847:5849  32 */\n      0x20\n        /* \"marketplace2.sol\":5829:5835  source */\n      dup3\n        /* \"marketplace2.sol\":5823:5843  bytes(source).length */\n      mload\n        /* \"marketplace2.sol\":5823:5849  bytes(source).length <= 32 */\n      gt\n      iszero\n        /* \"marketplace2.sol\":5815:5862  require(bytes(source).length <= 32, \"Too long\") */\n      tag_139\n      jumpi\n      mload(0x40)\n      0x08c379a000000000000000000000000000000000000000000000000000000000\n      dup2\n      mstore\n      0x04\n      add\n      tag_140\n      swap1\n      tag_141\n      jump\t// in\n    tag_140:\n      mload(0x40)\n      dup1\n      swap2\n      sub\n      swap1\n      revert\n    tag_139:\n        /* \"marketplace2.sol\":5923:5925  32 */\n      0x20\n        /* \"marketplace2.sol\":5915:5921  source */\n      dup3\n        /* \"marketplace2.sol\":5911:5926  add(source, 32) */\n      add\n        /* \"marketplace2.sol\":5905:5927  mload(add(source, 32)) */\n      mload\n        /* \"marketplace2.sol\":5895:5927  result := mload(add(source, 32)) */\n      swap1\n      pop\n        /* \"marketplace2.sol\":5721:5943  function stringToBytes32(string memory source) public pure returns (bytes32 result) {... */\n      swap2\n      swap1\n      pop\n      jump\t// out\n        /* \"marketplace2.sol\":612:663  mapping(bytes32 => address[]) public groupContracts */\n    tag_61:\n      mstore(0x20, 0x04)\n      dup2\n      0x00\n      mstore\n      keccak256(0x00, 0x40)\n      dup2\n      dup2\n      sload\n      dup2\n      lt\n      tag_142\n      jumpi\n      0x00\n      dup1\n      revert\n    tag_142:\n      swap1\n      0x00\n      mstore\n      keccak256(0x00, 0x20)\n      add\n      0x00\n      swap2\n      pop\n      swap2\n      pop\n      swap1\n      sload\n      swap1\n      0x0100\n      exp\n      swap1\n      div\n      0xffffffffffffffffffffffffffffffffffffffff\n      and\n      dup2\n      jump\t// out\n        /* \"marketplace2.sol\":3580:5076  function placeGroupBid(bytes32 group, uint256 price) external {... */\n    tag_66:\n        /* \"marketplace2.sol\":3668:3669  0 */\n      0x00\n        /* \"marketplace2.sol\":3660:3665  price */\n      dup2\n        /* \"marketplace2.sol\":3660:3669  price > 0 */\n      gt\n        /* \"marketplace2.sol\":3652:3683  require(price > 0, \"Price > 0\") */\n      tag_145\n      jumpi\n      mload(0x40)\n      0x08c379a000000000000000000000000000000000000000000000000000000000\n      dup2\n      mstore\n      0x04\n      add\n      tag_146\n      swap1\n      tag_126\n      jump\t// in\n    tag_146:\n      mload(0x40)\n      dup1\n      swap2\n      sub\n      swap1\n      revert\n    tag_145:\n        /* \"marketplace2.sol\":3735:3736  0 */\n      0x00\n        /* \"marketplace2.sol\":3701:3737  groupBids[group].buyer == address(0) */\n      0xffffffffffffffffffffffffffffffffffffffff\n      and\n        /* \"marketplace2.sol\":3701:3710  groupBids */\n      0x03\n        /* \"marketplace2.sol\":3701:3717  groupBids[group] */\n      0x00\n        /* \"marketplace2.sol\":3711:3716  group */\n      dup5\n        /* \"marketplace2.sol\":3701:3717  groupBids[group] */\n      dup2\n      mstore\n      0x20\n      add\n      swap1\n      dup2\n      mstore\n      0x20\n      add\n      0x00\n      keccak256\n        /* \"marketplace2.sol\":3701:3723  groupBids[group].buyer */\n      0x01\n      add\n      0x00\n      swap1\n      sload\n      swap1\n      0x0100\n      exp\n      swap1\n      div\n      0xffffffffffffffffffffffffffffffffffffffff\n      and\n        /* \"marketplace2.sol\":3701:3737  groupBids[group].buyer == address(0) */\n      0xffffffffffffffffffffffffffffffffffffffff\n      and\n      eq\n        /* \"marketplace2.sol\":3693:3752  require(groupBids[group].buyer == address(0), \"Bid exists\") */\n      tag_147\n      jumpi\n      mload(0x40)\n      0x08c379a000000000000000000000000000000000000000000000000000000000\n      dup2\n      mstore\n      0x04\n      add\n      tag_148\n      swap1\n      tag_149\n      jump\t// in\n    tag_148:\n      mload(0x40)\n      dup1\n      swap2\n      sub\n      swap1\n      revert\n    tag_147:\n        /* \"marketplace2.sol\":3770:3782  paymentToken */\n      0x01\n      0x00\n      swap1\n      sload\n      swap1\n      0x0100\n      exp\n      swap1\n      div\n      0xffffffffffffffffffffffffffffffffffffffff\n      and\n        /* \"marketplace2.sol\":3770:3795  paymentToken.transferFrom */\n      0xffffffffffffffffffffffffffffffffffffffff\n      and\n      0x23b872dd\n        /* \"marketplace2.sol\":3796:3806  msg.sender */\n      caller\n        /* \"marketplace2.sol\":3816:3820  this */\n      address\n        /* \"marketplace2.sol\":3823:3828  price */\n      dup5\n        /* \"marketplace2.sol\":3770:3829  paymentToken.transferFrom(msg.sender, address(this), price) */\n      mload(0x40)\n      dup5\n      0xffffffff\n      and\n      0xe0\n      shl\n      dup2\n      mstore\n      0x04\n      add\n      tag_150\n      swap4\n      swap3\n      swap2\n      swap1\n      tag_81\n      jump\t// in\n    tag_150:\n      0x20\n      mload(0x40)\n      dup1\n      dup4\n      sub\n      dup2\n      0x00\n      dup8\n      gas\n      call\n      iszero\n      dup1\n      iszero\n      tag_152\n      jumpi\n      returndatasize\n      0x00\n      dup1\n      returndatacopy\n      revert(0x00, returndatasize)\n    tag_152:\n      pop\n      pop\n      pop\n      pop\n      mload(0x40)\n      returndatasize\n      not(0x1f)\n      0x1f\n      dup3\n      add\n      and\n      dup3\n      add\n      dup1\n      0x40\n      mstore\n      pop\n      dup2\n      add\n      swap1\n      tag_153\n      swap2\n      swap1\n      tag_85\n      jump\t// in\n    tag_153:\n        /* \"marketplace2.sol\":3762:3849  require(paymentToken.transferFrom(msg.sender, address(this), price), \"Transfer failed\") */\n      tag_154\n      jumpi\n      mload(0x40)\n      0x08c379a000000000000000000000000000000000000000000000000000000000\n      dup2\n      mstore\n      0x04\n      add\n      tag_155\n      swap1\n      tag_156\n      jump\t// in\n    tag_155:\n      mload(0x40)\n      dup1\n      swap2\n      sub\n      swap1\n      revert\n    tag_154:\n        /* \"marketplace2.sol\":3879:3901  Bid(price, msg.sender) */\n      mload(0x40)\n      dup1\n      0x40\n      add\n      0x40\n      mstore\n      dup1\n        /* \"marketplace2.sol\":3883:3888  price */\n      dup3\n        /* \"marketplace2.sol\":3879:3901  Bid(price, msg.sender) */\n      dup2\n      mstore\n      0x20\n      add\n        /* \"marketplace2.sol\":3890:3900  msg.sender */\n      caller\n        /* \"marketplace2.sol\":3879:3901  Bid(price, msg.sender) */\n      0xffffffffffffffffffffffffffffffffffffffff\n      and\n      dup2\n      mstore\n      pop\n        /* \"marketplace2.sol\":3860:3869  groupBids */\n      0x03\n        /* \"marketplace2.sol\":3860:3876  groupBids[group] */\n      0x00\n        /* \"marketplace2.sol\":3870:3875  group */\n      dup5\n        /* \"marketplace2.sol\":3860:3876  groupBids[group] */\n      dup2\n      mstore\n      0x20\n      add\n      swap1\n      dup2\n      mstore\n      0x20\n      add\n      0x00\n      keccak256\n        /* \"marketplace2.sol\":3860:3901  groupBids[group] = Bid(price, msg.sender) */\n      0x00\n      dup3\n      add\n      mload\n      dup2\n      0x00\n      add\n      sstore\n      0x20\n      dup3\n      add\n      mload\n      dup2\n      0x01\n      add\n      exp(0x0100, 0x00)\n      dup2\n      sload\n      dup2\n      0xffffffffffffffffffffffffffffffffffffffff\n      mul\n      not\n      and\n      swap1\n      dup4\n      0xffffffffffffffffffffffffffffffffffffffff\n      and\n      mul\n      or\n      swap1\n      sstore\n      pop\n      swap1\n      pop\n      pop\n        /* \"marketplace2.sol\":3945:3955  msg.sender */\n      caller\n        /* \"marketplace2.sol\":3916:3956  GroupBidPlaced(group, price, msg.sender) */\n      0xffffffffffffffffffffffffffffffffffffffff\n      and\n        /* \"marketplace2.sol\":3931:3936  group */\n      dup3\n        /* \"marketplace2.sol\":3916:3956  GroupBidPlaced(group, price, msg.sender) */\n      0x52ae0f50cac87b9ab2c56dfe791e7cede837c3f194b7d309cda50d1f60b643d3\n        /* \"marketplace2.sol\":3938:3943  price */\n      dup4\n        /* \"marketplace2.sol\":3916:3956  GroupBidPlaced(group, price, msg.sender) */\n      mload(0x40)\n      tag_157\n      swap2\n      swap1\n      tag_26\n      jump\t// in\n    tag_157:\n      mload(0x40)\n      dup1\n      swap2\n      sub\n      swap1\n      log3\n        /* \"marketplace2.sol\":4006:4033  address[] storage contracts */\n      0x00\n        /* \"marketplace2.sol\":4036:4050  groupContracts */\n      0x04\n        /* \"marketplace2.sol\":4036:4057  groupContracts[group] */\n      0x00\n        /* \"marketplace2.sol\":4051:4056  group */\n      dup5\n        /* \"marketplace2.sol\":4036:4057  groupContracts[group] */\n      dup2\n      mstore\n      0x20\n      add\n      swap1\n      dup2\n      mstore\n      0x20\n      add\n      0x00\n      keccak256\n        /* \"marketplace2.sol\":4006:4057  address[] storage contracts = groupContracts[group] */\n      swap1\n      pop\n        /* \"marketplace2.sol\":4072:4078  uint i */\n      0x00\n        /* \"marketplace2.sol\":4067:5070  for (uint i = 0; i < contracts.length; i++) {... */\n    tag_158:\n        /* \"marketplace2.sol\":4088:4097  contracts */\n      dup2\n        /* \"marketplace2.sol\":4088:4104  contracts.length */\n      dup1\n      sload\n      swap1\n      pop\n        /* \"marketplace2.sol\":4084:4085  i */\n      dup2\n        /* \"marketplace2.sol\":4084:4104  i < contracts.length */\n      lt\n        /* \"marketplace2.sol\":4067:5070  for (uint i = 0; i < contracts.length; i++) {... */\n      iszero\n      tag_159\n      jumpi\n        /* \"marketplace2.sol\":4125:4144  address nftContract */\n      0x00\n        /* \"marketplace2.sol\":4147:4156  contracts */\n      dup3\n        /* \"marketplace2.sol\":4157:4158  i */\n      dup3\n        /* \"marketplace2.sol\":4147:4159  contracts[i] */\n      dup2\n      sload\n      dup2\n      lt\n      tag_161\n      jumpi\n      tag_162\n      tag_163\n      jump\t// in\n    tag_162:\n    tag_161:\n      swap1\n      0x00\n      mstore\n      keccak256(0x00, 0x20)\n      add\n      0x00\n      swap1\n      sload\n      swap1\n      0x0100\n      exp\n      swap1\n      div\n      0xffffffffffffffffffffffffffffffffffffffff\n      and\n        /* \"marketplace2.sol\":4125:4159  address nftContract = contracts[i] */\n      swap1\n      pop\n        /* \"marketplace2.sol\":4173:4199  uint256[] storage tokenIds */\n      0x00\n        /* \"marketplace2.sol\":4202:4215  groupTokenIds */\n      0x05\n        /* \"marketplace2.sol\":4202:4222  groupTokenIds[group] */\n      0x00\n        /* \"marketplace2.sol\":4216:4221  group */\n      dup8\n        /* \"marketplace2.sol\":4202:4222  groupTokenIds[group] */\n      dup2\n      mstore\n      0x20\n      add\n      swap1\n      dup2\n      mstore\n      0x20\n      add\n      0x00\n      keccak256\n        /* \"marketplace2.sol\":4202:4235  groupTokenIds[group][nftContract] */\n      0x00\n        /* \"marketplace2.sol\":4223:4234  nftContract */\n      dup4\n        /* \"marketplace2.sol\":4202:4235  groupTokenIds[group][nftContract] */\n      0xffffffffffffffffffffffffffffffffffffffff\n      and\n      0xffffffffffffffffffffffffffffffffffffffff\n      and\n      dup2\n      mstore\n      0x20\n      add\n      swap1\n      dup2\n      mstore\n      0x20\n      add\n      0x00\n      keccak256\n        /* \"marketplace2.sol\":4173:4235  uint256[] storage tokenIds = groupTokenIds[group][nftContract] */\n      swap1\n      pop\n        /* \"marketplace2.sol\":4255:4261  uint j */\n      0x00\n        /* \"marketplace2.sol\":4250:5060  for (uint j = 0; j < tokenIds.length; j++) {... */\n    tag_165:\n        /* \"marketplace2.sol\":4271:4279  tokenIds */\n      dup2\n        /* \"marketplace2.sol\":4271:4286  tokenIds.length */\n      dup1\n      sload\n      swap1\n      pop\n        /* \"marketplace2.sol\":4267:4268  j */\n      dup2\n        /* \"marketplace2.sol\":4267:4286  j < tokenIds.length */\n      lt\n        /* \"marketplace2.sol\":4250:5060  for (uint j = 0; j < tokenIds.length; j++) {... */\n      iszero\n      tag_166\n      jumpi\n        /* \"marketplace2.sol\":4311:4326  uint256 tokenId */\n      0x00\n        /* \"marketplace2.sol\":4329:4337  tokenIds */\n      dup3\n        /* \"marketplace2.sol\":4338:4339  j */\n      dup3\n        /* \"marketplace2.sol\":4329:4340  tokenIds[j] */\n      dup2\n      sload\n      dup2\n      lt\n      tag_168\n      jumpi\n      tag_169\n      tag_163\n      jump\t// in\n    tag_169:\n    tag_168:\n      swap1\n      0x00\n      mstore\n      keccak256(0x00, 0x20)\n      add\n      sload\n        /* \"marketplace2.sol\":4311:4340  uint256 tokenId = tokenIds[j] */\n      swap1\n      pop\n        /* \"marketplace2.sol\":4358:4381  Listing storage listing */\n      0x00\n        /* \"marketplace2.sol\":4384:4392  listings */\n      0x02\n        /* \"marketplace2.sol\":4384:4405  listings[nftContract] */\n      0x00\n        /* \"marketplace2.sol\":4393:4404  nftContract */\n      dup7\n        /* \"marketplace2.sol\":4384:4405  listings[nftContract] */\n      0xffffffffffffffffffffffffffffffffffffffff\n      and\n      0xffffffffffffffffffffffffffffffffffffffff\n      and\n      dup2\n      mstore\n      0x20\n      add\n      swap1\n      dup2\n      mstore\n      0x20\n      add\n      0x00\n      keccak256\n        /* \"marketplace2.sol\":4384:4414  listings[nftContract][tokenId] */\n      0x00\n        /* \"marketplace2.sol\":4406:4413  tokenId */\n      dup4\n        /* \"marketplace2.sol\":4384:4414  listings[nftContract][tokenId] */\n      dup2\n      mstore\n      0x20\n      add\n      swap1\n      dup2\n      mstore\n      0x20\n      add\n      0x00\n      keccak256\n        /* \"marketplace2.sol\":4358:4414  Listing storage listing = listings[nftContract][tokenId] */\n      swap1\n      pop\n        /* \"marketplace2.sol\":4453:4458  price */\n      dup8\n        /* \"marketplace2.sol\":4436:4443  listing */\n      dup2\n        /* \"marketplace2.sol\":4436:4449  listing.price */\n      0x00\n      add\n      sload\n        /* \"marketplace2.sol\":4436:4458  listing.price <= price */\n      gt\n      iszero\n        /* \"marketplace2.sol\":4436:4490  listing.price <= price && listing.seller != address(0) */\n      dup1\n      iszero\n      tag_171\n      jumpi\n      pop\n        /* \"marketplace2.sol\":4488:4489  0 */\n      0x00\n        /* \"marketplace2.sol\":4462:4490  listing.seller != address(0) */\n      0xffffffffffffffffffffffffffffffffffffffff\n      and\n        /* \"marketplace2.sol\":4462:4469  listing */\n      dup2\n        /* \"marketplace2.sol\":4462:4476  listing.seller */\n      0x01\n      add\n      0x00\n      swap1\n      sload\n      swap1\n      0x0100\n      exp\n      swap1\n      div\n      0xffffffffffffffffffffffffffffffffffffffff\n      and\n        /* \"marketplace2.sol\":4462:4490  listing.seller != address(0) */\n      0xffffffffffffffffffffffffffffffffffffffff\n      and\n      eq\n      iszero\n        /* \"marketplace2.sol\":4436:4490  listing.price <= price && listing.seller != address(0) */\n    tag_171:\n        /* \"marketplace2.sol\":4432:5046  if (listing.price <= price && listing.seller != address(0)) {... */\n      iszero\n      tag_172\n      jumpi\n        /* \"marketplace2.sol\":4514:4528  address seller */\n      0x00\n        /* \"marketplace2.sol\":4531:4538  listing */\n      dup2\n        /* \"marketplace2.sol\":4531:4545  listing.seller */\n      0x01\n      add\n      0x00\n      swap1\n      sload\n      swap1\n      0x0100\n      exp\n      swap1\n      div\n      0xffffffffffffffffffffffffffffffffffffffff\n      and\n        /* \"marketplace2.sol\":4514:4545  address seller = listing.seller */\n      swap1\n      pop\n        /* \"marketplace2.sol\":4574:4582  listings */\n      0x02\n        /* \"marketplace2.sol\":4574:4595  listings[nftContract] */\n      0x00\n        /* \"marketplace2.sol\":4583:4594  nftContract */\n      dup8\n        /* \"marketplace2.sol\":4574:4595  listings[nftContract] */\n      0xffffffffffffffffffffffffffffffffffffffff\n      and\n      0xffffffffffffffffffffffffffffffffffffffff\n      and\n      dup2\n      mstore\n      0x20\n      add\n      swap1\n      dup2\n      mstore\n      0x20\n      add\n      0x00\n      keccak256\n        /* \"marketplace2.sol\":4574:4604  listings[nftContract][tokenId] */\n      0x00\n        /* \"marketplace2.sol\":4596:4603  tokenId */\n      dup5\n        /* \"marketplace2.sol\":4574:4604  listings[nftContract][tokenId] */\n      dup2\n      mstore\n      0x20\n      add\n      swap1\n      dup2\n      mstore\n      0x20\n      add\n      0x00\n      keccak256\n      0x00\n        /* \"marketplace2.sol\":4567:4604  delete listings[nftContract][tokenId] */\n      dup1\n      dup3\n      add\n      0x00\n      swap1\n      sstore\n      0x01\n      dup3\n      add\n      exp(0x0100, 0x00)\n      dup2\n      sload\n      swap1\n      0xffffffffffffffffffffffffffffffffffffffff\n      mul\n      not\n      and\n      swap1\n      sstore\n      0x02\n      dup3\n      add\n      0x00\n      swap1\n      sstore\n      pop\n      pop\n        /* \"marketplace2.sol\":4633:4642  groupBids */\n      0x03\n        /* \"marketplace2.sol\":4633:4649  groupBids[group] */\n      0x00\n        /* \"marketplace2.sol\":4643:4648  group */\n      dup12\n        /* \"marketplace2.sol\":4633:4649  groupBids[group] */\n      dup2\n      mstore\n      0x20\n      add\n      swap1\n      dup2\n      mstore\n      0x20\n      add\n      0x00\n      keccak256\n      0x00\n        /* \"marketplace2.sol\":4626:4649  delete groupBids[group] */\n      dup1\n      dup3\n      add\n      0x00\n      swap1\n      sstore\n      0x01\n      dup3\n      add\n      exp(0x0100, 0x00)\n      dup2\n      sload\n      swap1\n      0xffffffffffffffffffffffffffffffffffffffff\n      mul\n      not\n      and\n      swap1\n      sstore\n      pop\n      pop\n        /* \"marketplace2.sol\":4672:4724  _removeTokenIdFromGroup(group, nftContract, tokenId) */\n      tag_173\n        /* \"marketplace2.sol\":4696:4701  group */\n      dup11\n        /* \"marketplace2.sol\":4703:4714  nftContract */\n      dup8\n        /* \"marketplace2.sol\":4716:4723  tokenId */\n      dup6\n        /* \"marketplace2.sol\":4672:4695  _removeTokenIdFromGroup */\n      tag_90\n        /* \"marketplace2.sol\":4672:4724  _removeTokenIdFromGroup(group, nftContract, tokenId) */\n      jump\t// in\n    tag_173:\n        /* \"marketplace2.sol\":4755:4767  paymentToken */\n      0x01\n      0x00\n      swap1\n      sload\n      swap1\n      0x0100\n      exp\n      swap1\n      div\n      0xffffffffffffffffffffffffffffffffffffffff\n      and\n        /* \"marketplace2.sol\":4755:4776  paymentToken.transfer */\n      0xffffffffffffffffffffffffffffffffffffffff\n      and\n      0xa9059cbb\n        /* \"marketplace2.sol\":4777:4783  seller */\n      dup3\n        /* \"marketplace2.sol\":4785:4792  listing */\n      dup5\n        /* \"marketplace2.sol\":4785:4798  listing.price */\n      0x00\n      add\n      sload\n        /* \"marketplace2.sol\":4755:4799  paymentToken.transfer(seller, listing.price) */\n      mload(0x40)\n      dup4\n      0xffffffff\n      and\n      0xe0\n      shl\n      dup2\n      mstore\n      0x04\n      add\n      tag_174\n      swap3\n      swap2\n      swap1\n      tag_175\n      jump\t// in\n    tag_174:\n      0x20\n      mload(0x40)\n      dup1\n      dup4\n      sub\n      dup2\n      0x00\n      dup8\n      gas\n      call\n      iszero\n      dup1\n      iszero\n      tag_177\n      jumpi\n      returndatasize\n      0x00\n      dup1\n      returndatacopy\n      revert(0x00, returndatasize)\n    tag_177:\n      pop\n      pop\n      pop\n      pop\n      mload(0x40)\n      returndatasize\n      not(0x1f)\n      0x1f\n      dup3\n      add\n      and\n      dup3\n      add\n      dup1\n      0x40\n      mstore\n      pop\n      dup2\n      add\n      swap1\n      tag_178\n      swap2\n      swap1\n      tag_85\n      jump\t// in\n    tag_178:\n        /* \"marketplace2.sol\":4747:4819  require(paymentToken.transfer(seller, listing.price), \"Pay seller fail\") */\n      tag_179\n      jumpi\n      mload(0x40)\n      0x08c379a000000000000000000000000000000000000000000000000000000000\n      dup2\n      mstore\n      0x04\n      add\n      tag_180\n      swap1\n      tag_181\n      jump\t// in\n    tag_180:\n      mload(0x40)\n      dup1\n      swap2\n      sub\n      swap1\n      revert\n    tag_179:\n        /* \"marketplace2.sol\":4849:4860  nftContract */\n      dup6\n        /* \"marketplace2.sol\":4841:4878  IERC721(nftContract).safeTransferFrom */\n      0xffffffffffffffffffffffffffffffffffffffff\n      and\n      0x42842e0e\n        /* \"marketplace2.sol\":4879:4885  seller */\n      dup3\n        /* \"marketplace2.sol\":4887:4897  msg.sender */\n      caller\n        /* \"marketplace2.sol\":4899:4906  tokenId */\n      dup7\n        /* \"marketplace2.sol\":4841:4907  IERC721(nftContract).safeTransferFrom(seller, msg.sender, tokenId) */\n      mload(0x40)\n      dup5\n      0xffffffff\n      and\n      0xe0\n      shl\n      dup2\n      mstore\n      0x04\n      add\n      tag_182\n      swap4\n      swap3\n      swap2\n      swap1\n      tag_81\n      jump\t// in\n    tag_182:\n      0x00\n      mload(0x40)\n      dup1\n      dup4\n      sub\n      dup2\n      0x00\n      dup8\n      dup1\n      extcodesize\n      iszero\n      dup1\n      iszero\n      tag_183\n      jumpi\n      0x00\n      dup1\n      revert\n    tag_183:\n      pop\n      gas\n      call\n      iszero\n      dup1\n      iszero\n      tag_185\n      jumpi\n      returndatasize\n      0x00\n      dup1\n      returndatacopy\n      revert(0x00, returndatasize)\n    tag_185:\n      pop\n      pop\n      pop\n      pop\n        /* \"marketplace2.sol\":4988:4998  msg.sender */\n      caller\n        /* \"marketplace2.sol\":4935:4999  GroupBidMatched(nftContract, tokenId, listing.price, msg.sender) */\n      0xffffffffffffffffffffffffffffffffffffffff\n      and\n        /* \"marketplace2.sol\":4964:4971  tokenId */\n      dup4\n        /* \"marketplace2.sol\":4951:4962  nftContract */\n      dup8\n        /* \"marketplace2.sol\":4935:4999  GroupBidMatched(nftContract, tokenId, listing.price, msg.sender) */\n      0xffffffffffffffffffffffffffffffffffffffff\n      and\n      0x1658be8dbd90f08a0f1b9367eaf7d55760d7addbb8dfe73c43524c77e6febebc\n        /* \"marketplace2.sol\":4973:4980  listing */\n      dup6\n        /* \"marketplace2.sol\":4973:4986  listing.price */\n      0x00\n      add\n      sload\n        /* \"marketplace2.sol\":4935:4999  GroupBidMatched(nftContract, tokenId, listing.price, msg.sender) */\n      mload(0x40)\n      tag_186\n      swap2\n      swap1\n      tag_26\n      jump\t// in\n    tag_186:\n      mload(0x40)\n      dup1\n      swap2\n      sub\n      swap1\n      log4\n        /* \"marketplace2.sol\":5021:5028  return; */\n      pop\n      pop\n      pop\n      pop\n      pop\n      pop\n      pop\n      pop\n      jump(tag_144)\n        /* \"marketplace2.sol\":4432:5046  if (listing.price <= price && listing.seller != address(0)) {... */\n    tag_172:\n        /* \"marketplace2.sol\":4293:5060  {... */\n      pop\n      pop\n        /* \"marketplace2.sol\":4288:4291  j++ */\n      dup1\n      dup1\n      0x01\n      add\n      swap2\n      pop\n      pop\n        /* \"marketplace2.sol\":4250:5060  for (uint j = 0; j < tokenIds.length; j++) {... */\n      jump(tag_165)\n    tag_166:\n      pop\n        /* \"marketplace2.sol\":4111:5070  {... */\n      pop\n      pop\n        /* \"marketplace2.sol\":4106:4109  i++ */\n      dup1\n      dup1\n      0x01\n      add\n      swap2\n      pop\n      pop\n        /* \"marketplace2.sol\":4067:5070  for (uint i = 0; i < contracts.length; i++) {... */\n      jump(tag_158)\n    tag_159:\n      pop\n        /* \"marketplace2.sol\":3642:5076  {... */\n      pop\n        /* \"marketplace2.sol\":3580:5076  function placeGroupBid(bytes32 group, uint256 price) external {... */\n    tag_144:\n      pop\n      pop\n      jump\t// out\n        /* \"@openzeppelin/contracts/security/ReentrancyGuard.sol\":2336:2623  function _nonReentrantBefore() private {... */\n    tag_74:\n        /* \"@openzeppelin/contracts/security/ReentrancyGuard.sol\":1759:1760  2 */\n      0x02\n        /* \"@openzeppelin/contracts/security/ReentrancyGuard.sol\":2468:2475  _status */\n      sload(0x00)\n        /* \"@openzeppelin/contracts/security/ReentrancyGuard.sol\":2468:2487  _status != _ENTERED */\n      sub\n        /* \"@openzeppelin/contracts/security/ReentrancyGuard.sol\":2460:2523  require(_status != _ENTERED, \"ReentrancyGuard: reentrant call\") */\n      tag_188\n      jumpi\n      mload(0x40)\n      0x08c379a000000000000000000000000000000000000000000000000000000000\n      dup2\n      mstore\n      0x04\n      add\n      tag_189\n      swap1\n      tag_190\n      jump\t// in\n    tag_189:\n      mload(0x40)\n      dup1\n      swap2\n      sub\n      swap1\n      revert\n    tag_188:\n        /* \"@openzeppelin/contracts/security/ReentrancyGuard.sol\":1759:1760  2 */\n      0x02\n        /* \"@openzeppelin/contracts/security/ReentrancyGuard.sol\":2598:2605  _status */\n      0x00\n        /* \"@openzeppelin/contracts/security/ReentrancyGuard.sol\":2598:2616  _status = _ENTERED */\n      dup2\n      swap1\n      sstore\n      pop\n        /* \"@openzeppelin/contracts/security/ReentrancyGuard.sol\":2336:2623  function _nonReentrantBefore() private {... */\n      jump\t// out\n        /* \"marketplace2.sol\":5082:5558  function _removeTokenIdFromGroup(bytes32 group, address nftContract, uint256 tokenId) internal {... */\n    tag_90:\n        /* \"marketplace2.sol\":5187:5211  uint256[] storage tokens */\n      0x00\n        /* \"marketplace2.sol\":5214:5227  groupTokenIds */\n      0x05\n        /* \"marketplace2.sol\":5214:5234  groupTokenIds[group] */\n      0x00\n        /* \"marketplace2.sol\":5228:5233  group */\n      dup6\n        /* \"marketplace2.sol\":5214:5234  groupTokenIds[group] */\n      dup2\n      mstore\n      0x20\n      add\n      swap1\n      dup2\n      mstore\n      0x20\n      add\n      0x00\n      keccak256\n        /* \"marketplace2.sol\":5214:5247  groupTokenIds[group][nftContract] */\n      0x00\n        /* \"marketplace2.sol\":5235:5246  nftContract */\n      dup5\n        /* \"marketplace2.sol\":5214:5247  groupTokenIds[group][nftContract] */\n      0xffffffffffffffffffffffffffffffffffffffff\n      and\n      0xffffffffffffffffffffffffffffffffffffffff\n      and\n      dup2\n      mstore\n      0x20\n      add\n      swap1\n      dup2\n      mstore\n      0x20\n      add\n      0x00\n      keccak256\n        /* \"marketplace2.sol\":5187:5247  uint256[] storage tokens = groupTokenIds[group][nftContract] */\n      swap1\n      pop\n        /* \"marketplace2.sol\":5262:5268  uint i */\n      0x00\n        /* \"marketplace2.sol\":5257:5471  for (uint i = 0; i < tokens.length; i++) {... */\n    tag_192:\n        /* \"marketplace2.sol\":5278:5284  tokens */\n      dup2\n        /* \"marketplace2.sol\":5278:5291  tokens.length */\n      dup1\n      sload\n      swap1\n      pop\n        /* \"marketplace2.sol\":5274:5275  i */\n      dup2\n        /* \"marketplace2.sol\":5274:5291  i < tokens.length */\n      lt\n        /* \"marketplace2.sol\":5257:5471  for (uint i = 0; i < tokens.length; i++) {... */\n      iszero\n      tag_193\n      jumpi\n        /* \"marketplace2.sol\":5329:5336  tokenId */\n      dup3\n        /* \"marketplace2.sol\":5316:5322  tokens */\n      dup3\n        /* \"marketplace2.sol\":5323:5324  i */\n      dup3\n        /* \"marketplace2.sol\":5316:5325  tokens[i] */\n      dup2\n      sload\n      dup2\n      lt\n      tag_195\n      jumpi\n      tag_196\n      tag_163\n      jump\t// in\n    tag_196:\n    tag_195:\n      swap1\n      0x00\n      mstore\n      keccak256(0x00, 0x20)\n      add\n      sload\n        /* \"marketplace2.sol\":5316:5336  tokens[i] == tokenId */\n      sub\n        /* \"marketplace2.sol\":5312:5461  if (tokens[i] == tokenId) {... */\n      tag_198\n      jumpi\n        /* \"marketplace2.sol\":5368:5374  tokens */\n      dup2\n        /* \"marketplace2.sol\":5391:5392  1 */\n      0x01\n        /* \"marketplace2.sol\":5375:5381  tokens */\n      dup4\n        /* \"marketplace2.sol\":5375:5388  tokens.length */\n      dup1\n      sload\n      swap1\n      pop\n        /* \"marketplace2.sol\":5375:5392  tokens.length - 1 */\n      tag_199\n      swap2\n      swap1\n      tag_200\n      jump\t// in\n    tag_199:\n        /* \"marketplace2.sol\":5368:5393  tokens[tokens.length - 1] */\n      dup2\n      sload\n      dup2\n      lt\n      tag_201\n      jumpi\n      tag_202\n      tag_163\n      jump\t// in\n    tag_202:\n    tag_201:\n      swap1\n      0x00\n      mstore\n      keccak256(0x00, 0x20)\n      add\n      sload\n        /* \"marketplace2.sol\":5356:5362  tokens */\n      dup3\n        /* \"marketplace2.sol\":5363:5364  i */\n      dup3\n        /* \"marketplace2.sol\":5356:5365  tokens[i] */\n      dup2\n      sload\n      dup2\n      lt\n      tag_204\n      jumpi\n      tag_205\n      tag_163\n      jump\t// in\n    tag_205:\n    tag_204:\n      swap1\n      0x00\n      mstore\n      keccak256(0x00, 0x20)\n      add\n        /* \"marketplace2.sol\":5356:5393  tokens[i] = tokens[tokens.length - 1] */\n      dup2\n      swap1\n      sstore\n      pop\n        /* \"marketplace2.sol\":5411:5417  tokens */\n      dup2\n        /* \"marketplace2.sol\":5411:5423  tokens.pop() */\n      dup1\n      sload\n      dup1\n      tag_207\n      jumpi\n      tag_208\n      tag_209\n      jump\t// in\n    tag_208:\n    tag_207:\n      0x01\n      swap1\n      sub\n      dup2\n      dup2\n      swap1\n      0x00\n      mstore\n      keccak256(0x00, 0x20)\n      add\n      0x00\n      swap1\n      sstore\n      swap1\n      sstore\n        /* \"marketplace2.sol\":5441:5446  break */\n      jump(tag_193)\n        /* \"marketplace2.sol\":5312:5461  if (tokens[i] == tokenId) {... */\n    tag_198:\n        /* \"marketplace2.sol\":5293:5296  i++ */\n      dup1\n      dup1\n      0x01\n      add\n      swap2\n      pop\n      pop\n        /* \"marketplace2.sol\":5257:5471  for (uint i = 0; i < tokens.length; i++) {... */\n      jump(tag_192)\n    tag_193:\n      pop\n        /* \"marketplace2.sol\":5177:5558  {... */\n      pop\n        /* \"marketplace2.sol\":5082:5558  function _removeTokenIdFromGroup(bytes32 group, address nftContract, uint256 tokenId) internal {... */\n      pop\n      pop\n      pop\n      jump\t// out\n        /* \"@openzeppelin/contracts/security/ReentrancyGuard.sol\":2629:2838  function _nonReentrantAfter() private {... */\n    tag_97:\n        /* \"@openzeppelin/contracts/security/ReentrancyGuard.sol\":1716:1717  1 */\n      0x01\n        /* \"@openzeppelin/contracts/security/ReentrancyGuard.sol\":2809:2816  _status */\n      0x00\n        /* \"@openzeppelin/contracts/security/ReentrancyGuard.sol\":2809:2831  _status = _NOT_ENTERED */\n      dup2\n      swap1\n      sstore\n      pop\n        /* \"@openzeppelin/contracts/security/ReentrancyGuard.sol\":2629:2838  function _nonReentrantAfter() private {... */\n      jump\t// out\n    tag_70:\n      mload(0x40)\n      dup1\n      0x60\n      add\n      0x40\n      mstore\n      dup1\n      0x00\n      dup2\n      mstore\n      0x20\n      add\n      and(0xffffffffffffffffffffffffffffffffffffffff, 0x00)\n      dup2\n      mstore\n      0x20\n      add\n      0x00\n      dup1\n      not\n      and\n      dup2\n      mstore\n      pop\n      swap1\n      jump\t// out\n        /* \"#utility.yul\":7:82   */\n    tag_212:\n        /* \"#utility.yul\":40:46   */\n      0x00\n        /* \"#utility.yul\":73:75   */\n      0x40\n        /* \"#utility.yul\":67:76   */\n      mload\n        /* \"#utility.yul\":57:76   */\n      swap1\n      pop\n        /* \"#utility.yul\":7:82   */\n      swap1\n      jump\t// out\n        /* \"#utility.yul\":88:205   */\n    tag_213:\n        /* \"#utility.yul\":197:198   */\n      0x00\n        /* \"#utility.yul\":194:195   */\n      dup1\n        /* \"#utility.yul\":187:199   */\n      revert\n        /* \"#utility.yul\":211:328   */\n    tag_214:\n        /* \"#utility.yul\":320:321   */\n      0x00\n        /* \"#utility.yul\":317:318   */\n      dup1\n        /* \"#utility.yul\":310:322   */\n      revert\n        /* \"#utility.yul\":334:460   */\n    tag_215:\n        /* \"#utility.yul\":371:378   */\n      0x00\n        /* \"#utility.yul\":411:453   */\n      0xffffffffffffffffffffffffffffffffffffffff\n        /* \"#utility.yul\":404:409   */\n      dup3\n        /* \"#utility.yul\":400:454   */\n      and\n        /* \"#utility.yul\":389:454   */\n      swap1\n      pop\n        /* \"#utility.yul\":334:460   */\n      swap2\n      swap1\n      pop\n      jump\t// out\n        /* \"#utility.yul\":466:562   */\n    tag_216:\n        /* \"#utility.yul\":503:510   */\n      0x00\n        /* \"#utility.yul\":532:556   */\n      tag_281\n        /* \"#utility.yul\":550:555   */\n      dup3\n        /* \"#utility.yul\":532:556   */\n      tag_215\n      jump\t// in\n    tag_281:\n        /* \"#utility.yul\":521:556   */\n      swap1\n      pop\n        /* \"#utility.yul\":466:562   */\n      swap2\n      swap1\n      pop\n      jump\t// out\n        /* \"#utility.yul\":568:690   */\n    tag_217:\n        /* \"#utility.yul\":641:665   */\n      tag_283\n        /* \"#utility.yul\":659:664   */\n      dup2\n        /* \"#utility.yul\":641:665   */\n      tag_216\n      jump\t// in\n    tag_283:\n        /* \"#utility.yul\":634:639   */\n      dup2\n        /* \"#utility.yul\":631:666   */\n      eq\n        /* \"#utility.yul\":621:684   */\n      tag_284\n      jumpi\n        /* \"#utility.yul\":680:681   */\n      0x00\n        /* \"#utility.yul\":677:678   */\n      dup1\n        /* \"#utility.yul\":670:682   */\n      revert\n        /* \"#utility.yul\":621:684   */\n    tag_284:\n        /* \"#utility.yul\":568:690   */\n      pop\n      jump\t// out\n        /* \"#utility.yul\":696:835   */\n    tag_218:\n        /* \"#utility.yul\":742:747   */\n      0x00\n        /* \"#utility.yul\":780:786   */\n      dup2\n        /* \"#utility.yul\":767:787   */\n      calldataload\n        /* \"#utility.yul\":758:787   */\n      swap1\n      pop\n        /* \"#utility.yul\":796:829   */\n      tag_286\n        /* \"#utility.yul\":823:828   */\n      dup2\n        /* \"#utility.yul\":796:829   */\n      tag_217\n      jump\t// in\n    tag_286:\n        /* \"#utility.yul\":696:835   */\n      swap3\n      swap2\n      pop\n      pop\n      jump\t// out\n        /* \"#utility.yul\":841:918   */\n    tag_219:\n        /* \"#utility.yul\":878:885   */\n      0x00\n        /* \"#utility.yul\":907:912   */\n      dup2\n        /* \"#utility.yul\":896:912   */\n      swap1\n      pop\n        /* \"#utility.yul\":841:918   */\n      swap2\n      swap1\n      pop\n      jump\t// out\n        /* \"#utility.yul\":924:1046   */\n    tag_220:\n        /* \"#utility.yul\":997:1021   */\n      tag_289\n        /* \"#utility.yul\":1015:1020   */\n      dup2\n        /* \"#utility.yul\":997:1021   */\n      tag_219\n      jump\t// in\n    tag_289:\n        /* \"#utility.yul\":990:995   */\n      dup2\n        /* \"#utility.yul\":987:1022   */\n      eq\n        /* \"#utility.yul\":977:1040   */\n      tag_290\n      jumpi\n        /* \"#utility.yul\":1036:1037   */\n      0x00\n        /* \"#utility.yul\":1033:1034   */\n      dup1\n        /* \"#utility.yul\":1026:1038   */\n      revert\n        /* \"#utility.yul\":977:1040   */\n    tag_290:\n        /* \"#utility.yul\":924:1046   */\n      pop\n      jump\t// out\n        /* \"#utility.yul\":1052:1191   */\n    tag_221:\n        /* \"#utility.yul\":1098:1103   */\n      0x00\n        /* \"#utility.yul\":1136:1142   */\n      dup2\n        /* \"#utility.yul\":1123:1143   */\n      calldataload\n        /* \"#utility.yul\":1114:1143   */\n      swap1\n      pop\n        /* \"#utility.yul\":1152:1185   */\n      tag_292\n        /* \"#utility.yul\":1179:1184   */\n      dup2\n        /* \"#utility.yul\":1152:1185   */\n      tag_220\n      jump\t// in\n    tag_292:\n        /* \"#utility.yul\":1052:1191   */\n      swap3\n      swap2\n      pop\n      pop\n      jump\t// out\n        /* \"#utility.yul\":1197:1671   */\n    tag_17:\n        /* \"#utility.yul\":1265:1271   */\n      0x00\n        /* \"#utility.yul\":1273:1279   */\n      dup1\n        /* \"#utility.yul\":1322:1324   */\n      0x40\n        /* \"#utility.yul\":1310:1319   */\n      dup4\n        /* \"#utility.yul\":1301:1308   */\n      dup6\n        /* \"#utility.yul\":1297:1320   */\n      sub\n        /* \"#utility.yul\":1293:1325   */\n      slt\n        /* \"#utility.yul\":1290:1409   */\n      iszero\n      tag_294\n      jumpi\n        /* \"#utility.yul\":1328:1407   */\n      tag_295\n      tag_213\n      jump\t// in\n    tag_295:\n        /* \"#utility.yul\":1290:1409   */\n    tag_294:\n        /* \"#utility.yul\":1448:1449   */\n      0x00\n        /* \"#utility.yul\":1473:1526   */\n      tag_296\n        /* \"#utility.yul\":1518:1525   */\n      dup6\n        /* \"#utility.yul\":1509:1515   */\n      dup3\n        /* \"#utility.yul\":1498:1507   */\n      dup7\n        /* \"#utility.yul\":1494:1516   */\n      add\n        /* \"#utility.yul\":1473:1526   */\n      tag_218\n      jump\t// in\n    tag_296:\n        /* \"#utility.yul\":1463:1526   */\n      swap3\n      pop\n        /* \"#utility.yul\":1419:1536   */\n      pop\n        /* \"#utility.yul\":1575:1577   */\n      0x20\n        /* \"#utility.yul\":1601:1654   */\n      tag_297\n        /* \"#utility.yul\":1646:1653   */\n      dup6\n        /* \"#utility.yul\":1637:1643   */\n      dup3\n        /* \"#utility.yul\":1626:1635   */\n      dup7\n        /* \"#utility.yul\":1622:1644   */\n      add\n        /* \"#utility.yul\":1601:1654   */\n      tag_221\n      jump\t// in\n    tag_297:\n        /* \"#utility.yul\":1591:1654   */\n      swap2\n      pop\n        /* \"#utility.yul\":1546:1664   */\n      pop\n        /* \"#utility.yul\":1197:1671   */\n      swap3\n      pop\n      swap3\n      swap1\n      pop\n      jump\t// out\n        /* \"#utility.yul\":1677:1795   */\n    tag_222:\n        /* \"#utility.yul\":1764:1788   */\n      tag_299\n        /* \"#utility.yul\":1782:1787   */\n      dup2\n        /* \"#utility.yul\":1764:1788   */\n      tag_219\n      jump\t// in\n    tag_299:\n        /* \"#utility.yul\":1759:1762   */\n      dup3\n        /* \"#utility.yul\":1752:1789   */\n      mstore\n        /* \"#utility.yul\":1677:1795   */\n      pop\n      pop\n      jump\t// out\n        /* \"#utility.yul\":1801:1919   */\n    tag_223:\n        /* \"#utility.yul\":1888:1912   */\n      tag_301\n        /* \"#utility.yul\":1906:1911   */\n      dup2\n        /* \"#utility.yul\":1888:1912   */\n      tag_216\n      jump\t// in\n    tag_301:\n        /* \"#utility.yul\":1883:1886   */\n      dup3\n        /* \"#utility.yul\":1876:1913   */\n      mstore\n        /* \"#utility.yul\":1801:1919   */\n      pop\n      pop\n      jump\t// out\n        /* \"#utility.yul\":1925:2002   */\n    tag_224:\n        /* \"#utility.yul\":1962:1969   */\n      0x00\n        /* \"#utility.yul\":1991:1996   */\n      dup2\n        /* \"#utility.yul\":1980:1996   */\n      swap1\n      pop\n        /* \"#utility.yul\":1925:2002   */\n      swap2\n      swap1\n      pop\n      jump\t// out\n        /* \"#utility.yul\":2008:2126   */\n    tag_225:\n        /* \"#utility.yul\":2095:2119   */\n      tag_304\n        /* \"#utility.yul\":2113:2118   */\n      dup2\n        /* \"#utility.yul\":2095:2119   */\n      tag_224\n      jump\t// in\n    tag_304:\n        /* \"#utility.yul\":2090:2093   */\n      dup3\n        /* \"#utility.yul\":2083:2120   */\n      mstore\n        /* \"#utility.yul\":2008:2126   */\n      pop\n      pop\n      jump\t// out\n        /* \"#utility.yul\":2132:2574   */\n    tag_20:\n        /* \"#utility.yul\":2281:2285   */\n      0x00\n        /* \"#utility.yul\":2319:2321   */\n      0x60\n        /* \"#utility.yul\":2308:2317   */\n      dup3\n        /* \"#utility.yul\":2304:2322   */\n      add\n        /* \"#utility.yul\":2296:2322   */\n      swap1\n      pop\n        /* \"#utility.yul\":2332:2403   */\n      tag_306\n        /* \"#utility.yul\":2400:2401   */\n      0x00\n        /* \"#utility.yul\":2389:2398   */\n      dup4\n        /* \"#utility.yul\":2385:2402   */\n      add\n        /* \"#utility.yul\":2376:2382   */\n      dup7\n        /* \"#utility.yul\":2332:2403   */\n      tag_222\n      jump\t// in\n    tag_306:\n        /* \"#utility.yul\":2413:2485   */\n      tag_307\n        /* \"#utility.yul\":2481:2483   */\n      0x20\n        /* \"#utility.yul\":2470:2479   */\n      dup4\n        /* \"#utility.yul\":2466:2484   */\n      add\n        /* \"#utility.yul\":2457:2463   */\n      dup6\n        /* \"#utility.yul\":2413:2485   */\n      tag_223\n      jump\t// in\n    tag_307:\n        /* \"#utility.yul\":2495:2567   */\n      tag_308\n        /* \"#utility.yul\":2563:2565   */\n      0x40\n        /* \"#utility.yul\":2552:2561   */\n      dup4\n        /* \"#utility.yul\":2548:2566   */\n      add\n        /* \"#utility.yul\":2539:2545   */\n      dup5\n        /* \"#utility.yul\":2495:2567   */\n      tag_225\n      jump\t// in\n    tag_308:\n        /* \"#utility.yul\":2132:2574   */\n      swap5\n      swap4\n      pop\n      pop\n      pop\n      pop\n      jump\t// out\n        /* \"#utility.yul\":2580:2702   */\n    tag_226:\n        /* \"#utility.yul\":2653:2677   */\n      tag_310\n        /* \"#utility.yul\":2671:2676   */\n      dup2\n        /* \"#utility.yul\":2653:2677   */\n      tag_224\n      jump\t// in\n    tag_310:\n        /* \"#utility.yul\":2646:2651   */\n      dup2\n        /* \"#utility.yul\":2643:2678   */\n      eq\n        /* \"#utility.yul\":2633:2696   */\n      tag_311\n      jumpi\n        /* \"#utility.yul\":2692:2693   */\n      0x00\n        /* \"#utility.yul\":2689:2690   */\n      dup1\n        /* \"#utility.yul\":2682:2694   */\n      revert\n        /* \"#utility.yul\":2633:2696   */\n    tag_311:\n        /* \"#utility.yul\":2580:2702   */\n      pop\n      jump\t// out\n        /* \"#utility.yul\":2708:2847   */\n    tag_227:\n        /* \"#utility.yul\":2754:2759   */\n      0x00\n        /* \"#utility.yul\":2792:2798   */\n      dup2\n        /* \"#utility.yul\":2779:2799   */\n      calldataload\n        /* \"#utility.yul\":2770:2799   */\n      swap1\n      pop\n        /* \"#utility.yul\":2808:2841   */\n      tag_313\n        /* \"#utility.yul\":2835:2840   */\n      dup2\n        /* \"#utility.yul\":2808:2841   */\n      tag_226\n      jump\t// in\n    tag_313:\n        /* \"#utility.yul\":2708:2847   */\n      swap3\n      swap2\n      pop\n      pop\n      jump\t// out\n        /* \"#utility.yul\":2853:3472   */\n    tag_23:\n        /* \"#utility.yul\":2930:2936   */\n      0x00\n        /* \"#utility.yul\":2938:2944   */\n      dup1\n        /* \"#utility.yul\":2946:2952   */\n      0x00\n        /* \"#utility.yul\":2995:2997   */\n      0x60\n        /* \"#utility.yul\":2983:2992   */\n      dup5\n        /* \"#utility.yul\":2974:2981   */\n      dup7\n        /* \"#utility.yul\":2970:2993   */\n      sub\n        /* \"#utility.yul\":2966:2998   */\n      slt\n        /* \"#utility.yul\":2963:3082   */\n      iszero\n      tag_315\n      jumpi\n        /* \"#utility.yul\":3001:3080   */\n      tag_316\n      tag_213\n      jump\t// in\n    tag_316:\n        /* \"#utility.yul\":2963:3082   */\n    tag_315:\n        /* \"#utility.yul\":3121:3122   */\n      0x00\n        /* \"#utility.yul\":3146:3199   */\n      tag_317\n        /* \"#utility.yul\":3191:3198   */\n      dup7\n        /* \"#utility.yul\":3182:3188   */\n      dup3\n        /* \"#utility.yul\":3171:3180   */\n      dup8\n        /* \"#utility.yul\":3167:3189   */\n      add\n        /* \"#utility.yul\":3146:3199   */\n      tag_227\n      jump\t// in\n    tag_317:\n        /* \"#utility.yul\":3136:3199   */\n      swap4\n      pop\n        /* \"#utility.yul\":3092:3209   */\n      pop\n        /* \"#utility.yul\":3248:3250   */\n      0x20\n        /* \"#utility.yul\":3274:3327   */\n      tag_318\n        /* \"#utility.yul\":3319:3326   */\n      dup7\n        /* \"#utility.yul\":3310:3316   */\n      dup3\n        /* \"#utility.yul\":3299:3308   */\n      dup8\n        /* \"#utility.yul\":3295:3317   */\n      add\n        /* \"#utility.yul\":3274:3327   */\n      tag_218\n      jump\t// in\n    tag_318:\n        /* \"#utility.yul\":3264:3327   */\n      swap3\n      pop\n        /* \"#utility.yul\":3219:3337   */\n      pop\n        /* \"#utility.yul\":3376:3378   */\n      0x40\n        /* \"#utility.yul\":3402:3455   */\n      tag_319\n        /* \"#utility.yul\":3447:3454   */\n      dup7\n        /* \"#utility.yul\":3438:3444   */\n      dup3\n        /* \"#utility.yul\":3427:3436   */\n      dup8\n        /* \"#utility.yul\":3423:3445   */\n      add\n        /* \"#utility.yul\":3402:3455   */\n      tag_221\n      jump\t// in\n    tag_319:\n        /* \"#utility.yul\":3392:3455   */\n      swap2\n      pop\n        /* \"#utility.yul\":3347:3465   */\n      pop\n        /* \"#utility.yul\":2853:3472   */\n      swap3\n      pop\n      swap3\n      pop\n      swap3\n      jump\t// out\n        /* \"#utility.yul\":3478:3700   */\n    tag_26:\n        /* \"#utility.yul\":3571:3575   */\n      0x00\n        /* \"#utility.yul\":3609:3611   */\n      0x20\n        /* \"#utility.yul\":3598:3607   */\n      dup3\n        /* \"#utility.yul\":3594:3612   */\n      add\n        /* \"#utility.yul\":3586:3612   */\n      swap1\n      pop\n        /* \"#utility.yul\":3622:3693   */\n      tag_321\n        /* \"#utility.yul\":3690:3691   */\n      0x00\n        /* \"#utility.yul\":3679:3688   */\n      dup4\n        /* \"#utility.yul\":3675:3692   */\n      add\n        /* \"#utility.yul\":3666:3672   */\n      dup5\n        /* \"#utility.yul\":3622:3693   */\n      tag_222\n      jump\t// in\n    tag_321:\n        /* \"#utility.yul\":3478:3700   */\n      swap3\n      swap2\n      pop\n      pop\n      jump\t// out\n        /* \"#utility.yul\":3706:3766   */\n    tag_228:\n        /* \"#utility.yul\":3734:3737   */\n      0x00\n        /* \"#utility.yul\":3755:3760   */\n      dup2\n        /* \"#utility.yul\":3748:3760   */\n      swap1\n      pop\n        /* \"#utility.yul\":3706:3766   */\n      swap2\n      swap1\n      pop\n      jump\t// out\n        /* \"#utility.yul\":3772:3914   */\n    tag_229:\n        /* \"#utility.yul\":3822:3831   */\n      0x00\n        /* \"#utility.yul\":3855:3908   */\n      tag_324\n        /* \"#utility.yul\":3873:3907   */\n      tag_325\n        /* \"#utility.yul\":3882:3906   */\n      tag_326\n        /* \"#utility.yul\":3900:3905   */\n      dup5\n        /* \"#utility.yul\":3882:3906   */\n      tag_215\n      jump\t// in\n    tag_326:\n        /* \"#utility.yul\":3873:3907   */\n      tag_228\n      jump\t// in\n    tag_325:\n        /* \"#utility.yul\":3855:3908   */\n      tag_215\n      jump\t// in\n    tag_324:\n        /* \"#utility.yul\":3842:3908   */\n      swap1\n      pop\n        /* \"#utility.yul\":3772:3914   */\n      swap2\n      swap1\n      pop\n      jump\t// out\n        /* \"#utility.yul\":3920:4046   */\n    tag_230:\n        /* \"#utility.yul\":3970:3979   */\n      0x00\n        /* \"#utility.yul\":4003:4040   */\n      tag_328\n        /* \"#utility.yul\":4034:4039   */\n      dup3\n        /* \"#utility.yul\":4003:4040   */\n      tag_229\n      jump\t// in\n    tag_328:\n        /* \"#utility.yul\":3990:4040   */\n      swap1\n      pop\n        /* \"#utility.yul\":3920:4046   */\n      swap2\n      swap1\n      pop\n      jump\t// out\n        /* \"#utility.yul\":4052:4192   */\n    tag_231:\n        /* \"#utility.yul\":4116:4125   */\n      0x00\n        /* \"#utility.yul\":4149:4186   */\n      tag_330\n        /* \"#utility.yul\":4180:4185   */\n      dup3\n        /* \"#utility.yul\":4149:4186   */\n      tag_230\n      jump\t// in\n    tag_330:\n        /* \"#utility.yul\":4136:4186   */\n      swap1\n      pop\n        /* \"#utility.yul\":4052:4192   */\n      swap2\n      swap1\n      pop\n      jump\t// out\n        /* \"#utility.yul\":4198:4357   */\n    tag_232:\n        /* \"#utility.yul\":4299:4350   */\n      tag_332\n        /* \"#utility.yul\":4344:4349   */\n      dup2\n        /* \"#utility.yul\":4299:4350   */\n      tag_231\n      jump\t// in\n    tag_332:\n        /* \"#utility.yul\":4294:4297   */\n      dup3\n        /* \"#utility.yul\":4287:4351   */\n      mstore\n        /* \"#utility.yul\":4198:4357   */\n      pop\n      pop\n      jump\t// out\n        /* \"#utility.yul\":4363:4613   */\n    tag_30:\n        /* \"#utility.yul\":4470:4474   */\n      0x00\n        /* \"#utility.yul\":4508:4510   */\n      0x20\n        /* \"#utility.yul\":4497:4506   */\n      dup3\n        /* \"#utility.yul\":4493:4511   */\n      add\n        /* \"#utility.yul\":4485:4511   */\n      swap1\n      pop\n        /* \"#utility.yul\":4521:4606   */\n      tag_334\n        /* \"#utility.yul\":4603:4604   */\n      0x00\n        /* \"#utility.yul\":4592:4601   */\n      dup4\n        /* \"#utility.yul\":4588:4605   */\n      add\n        /* \"#utility.yul\":4579:4585   */\n      dup5\n        /* \"#utility.yul\":4521:4606   */\n      tag_232\n      jump\t// in\n    tag_334:\n        /* \"#utility.yul\":4363:4613   */\n      swap3\n      swap2\n      pop\n      pop\n      jump\t// out\n        /* \"#utility.yul\":4619:4727   */\n    tag_233:\n        /* \"#utility.yul\":4696:4720   */\n      tag_336\n        /* \"#utility.yul\":4714:4719   */\n      dup2\n        /* \"#utility.yul\":4696:4720   */\n      tag_219\n      jump\t// in\n    tag_336:\n        /* \"#utility.yul\":4691:4694   */\n      dup3\n        /* \"#utility.yul\":4684:4721   */\n      mstore\n        /* \"#utility.yul\":4619:4727   */\n      pop\n      pop\n      jump\t// out\n        /* \"#utility.yul\":4733:4841   */\n    tag_234:\n        /* \"#utility.yul\":4810:4834   */\n      tag_338\n        /* \"#utility.yul\":4828:4833   */\n      dup2\n        /* \"#utility.yul\":4810:4834   */\n      tag_216\n      jump\t// in\n    tag_338:\n        /* \"#utility.yul\":4805:4808   */\n      dup3\n        /* \"#utility.yul\":4798:4835   */\n      mstore\n        /* \"#utility.yul\":4733:4841   */\n      pop\n      pop\n      jump\t// out\n        /* \"#utility.yul\":4847:4955   */\n    tag_235:\n        /* \"#utility.yul\":4924:4948   */\n      tag_340\n        /* \"#utility.yul\":4942:4947   */\n      dup2\n        /* \"#utility.yul\":4924:4948   */\n      tag_224\n      jump\t// in\n    tag_340:\n        /* \"#utility.yul\":4919:4922   */\n      dup3\n        /* \"#utility.yul\":4912:4949   */\n      mstore\n        /* \"#utility.yul\":4847:4955   */\n      pop\n      pop\n      jump\t// out\n        /* \"#utility.yul\":5049:5732   */\n    tag_236:\n        /* \"#utility.yul\":5194:5198   */\n      0x60\n        /* \"#utility.yul\":5189:5192   */\n      dup3\n        /* \"#utility.yul\":5185:5199   */\n      add\n        /* \"#utility.yul\":5282:5286   */\n      0x00\n        /* \"#utility.yul\":5275:5280   */\n      dup3\n        /* \"#utility.yul\":5271:5287   */\n      add\n        /* \"#utility.yul\":5265:5288   */\n      mload\n        /* \"#utility.yul\":5301:5364   */\n      tag_342\n        /* \"#utility.yul\":5358:5362   */\n      0x00\n        /* \"#utility.yul\":5353:5356   */\n      dup6\n        /* \"#utility.yul\":5349:5363   */\n      add\n        /* \"#utility.yul\":5335:5347   */\n      dup3\n        /* \"#utility.yul\":5301:5364   */\n      tag_233\n      jump\t// in\n    tag_342:\n        /* \"#utility.yul\":5209:5374   */\n      pop\n        /* \"#utility.yul\":5458:5462   */\n      0x20\n        /* \"#utility.yul\":5451:5456   */\n      dup3\n        /* \"#utility.yul\":5447:5463   */\n      add\n        /* \"#utility.yul\":5441:5464   */\n      mload\n        /* \"#utility.yul\":5477:5540   */\n      tag_343\n        /* \"#utility.yul\":5534:5538   */\n      0x20\n        /* \"#utility.yul\":5529:5532   */\n      dup6\n        /* \"#utility.yul\":5525:5539   */\n      add\n        /* \"#utility.yul\":5511:5523   */\n      dup3\n        /* \"#utility.yul\":5477:5540   */\n      tag_234\n      jump\t// in\n    tag_343:\n        /* \"#utility.yul\":5384:5550   */\n      pop\n        /* \"#utility.yul\":5633:5637   */\n      0x40\n        /* \"#utility.yul\":5626:5631   */\n      dup3\n        /* \"#utility.yul\":5622:5638   */\n      add\n        /* \"#utility.yul\":5616:5639   */\n      mload\n        /* \"#utility.yul\":5652:5715   */\n      tag_344\n        /* \"#utility.yul\":5709:5713   */\n      0x40\n        /* \"#utility.yul\":5704:5707   */\n      dup6\n        /* \"#utility.yul\":5700:5714   */\n      add\n        /* \"#utility.yul\":5686:5698   */\n      dup3\n        /* \"#utility.yul\":5652:5715   */\n      tag_235\n      jump\t// in\n    tag_344:\n        /* \"#utility.yul\":5560:5725   */\n      pop\n        /* \"#utility.yul\":5163:5732   */\n      pop\n        /* \"#utility.yul\":5049:5732   */\n      pop\n      pop\n      jump\t// out\n        /* \"#utility.yul\":5738:6056   */\n    tag_35:\n        /* \"#utility.yul\":5879:5883   */\n      0x00\n        /* \"#utility.yul\":5917:5919   */\n      0x60\n        /* \"#utility.yul\":5906:5915   */\n      dup3\n        /* \"#utility.yul\":5902:5920   */\n      add\n        /* \"#utility.yul\":5894:5920   */\n      swap1\n      pop\n        /* \"#utility.yul\":5930:6049   */\n      tag_346\n        /* \"#utility.yul\":6046:6047   */\n      0x00\n        /* \"#utility.yul\":6035:6044   */\n      dup4\n        /* \"#utility.yul\":6031:6048   */\n      add\n        /* \"#utility.yul\":6022:6028   */\n      dup5\n        /* \"#utility.yul\":5930:6049   */\n      tag_236\n      jump\t// in\n    tag_346:\n        /* \"#utility.yul\":5738:6056   */\n      swap3\n      swap2\n      pop\n      pop\n      jump\t// out\n        /* \"#utility.yul\":6062:6391   */\n    tag_41:\n        /* \"#utility.yul\":6121:6127   */\n      0x00\n        /* \"#utility.yul\":6170:6172   */\n      0x20\n        /* \"#utility.yul\":6158:6167   */\n      dup3\n        /* \"#utility.yul\":6149:6156   */\n      dup5\n        /* \"#utility.yul\":6145:6168   */\n      sub\n        /* \"#utility.yul\":6141:6173   */\n      slt\n        /* \"#utility.yul\":6138:6257   */\n      iszero\n      tag_348\n      jumpi\n        /* \"#utility.yul\":6176:6255   */\n      tag_349\n      tag_213\n      jump\t// in\n    tag_349:\n        /* \"#utility.yul\":6138:6257   */\n    tag_348:\n        /* \"#utility.yul\":6296:6297   */\n      0x00\n        /* \"#utility.yul\":6321:6374   */\n      tag_350\n        /* \"#utility.yul\":6366:6373   */\n      dup5\n        /* \"#utility.yul\":6357:6363   */\n      dup3\n        /* \"#utility.yul\":6346:6355   */\n      dup6\n        /* \"#utility.yul\":6342:6364   */\n      add\n        /* \"#utility.yul\":6321:6374   */\n      tag_227\n      jump\t// in\n    tag_350:\n        /* \"#utility.yul\":6311:6374   */\n      swap2\n      pop\n        /* \"#utility.yul\":6267:6384   */\n      pop\n        /* \"#utility.yul\":6062:6391   */\n      swap3\n      swap2\n      pop\n      pop\n      jump\t// out\n        /* \"#utility.yul\":6397:6729   */\n    tag_44:\n        /* \"#utility.yul\":6518:6522   */\n      0x00\n        /* \"#utility.yul\":6556:6558   */\n      0x40\n        /* \"#utility.yul\":6545:6554   */\n      dup3\n        /* \"#utility.yul\":6541:6559   */\n      add\n        /* \"#utility.yul\":6533:6559   */\n      swap1\n      pop\n        /* \"#utility.yul\":6569:6640   */\n      tag_352\n        /* \"#utility.yul\":6637:6638   */\n      0x00\n        /* \"#utility.yul\":6626:6635   */\n      dup4\n        /* \"#utility.yul\":6622:6639   */\n      add\n        /* \"#utility.yul\":6613:6619   */\n      dup6\n        /* \"#utility.yul\":6569:6640   */\n      tag_222\n      jump\t// in\n    tag_352:\n        /* \"#utility.yul\":6650:6722   */\n      tag_353\n        /* \"#utility.yul\":6718:6720   */\n      0x20\n        /* \"#utility.yul\":6707:6716   */\n      dup4\n        /* \"#utility.yul\":6703:6721   */\n      add\n        /* \"#utility.yul\":6694:6700   */\n      dup5\n        /* \"#utility.yul\":6650:6722   */\n      tag_223\n      jump\t// in\n    tag_353:\n        /* \"#utility.yul\":6397:6729   */\n      swap4\n      swap3\n      pop\n      pop\n      pop\n      jump\t// out\n        /* \"#utility.yul\":6735:7500   */\n    tag_50:\n        /* \"#utility.yul\":6821:6827   */\n      0x00\n        /* \"#utility.yul\":6829:6835   */\n      dup1\n        /* \"#utility.yul\":6837:6843   */\n      0x00\n        /* \"#utility.yul\":6845:6851   */\n      dup1\n        /* \"#utility.yul\":6894:6897   */\n      0x80\n        /* \"#utility.yul\":6882:6891   */\n      dup6\n        /* \"#utility.yul\":6873:6880   */\n      dup8\n        /* \"#utility.yul\":6869:6892   */\n      sub\n        /* \"#utility.yul\":6865:6898   */\n      slt\n        /* \"#utility.yul\":6862:6982   */\n      iszero\n      tag_355\n      jumpi\n        /* \"#utility.yul\":6901:6980   */\n      tag_356\n      tag_213\n      jump\t// in\n    tag_356:\n        /* \"#utility.yul\":6862:6982   */\n    tag_355:\n        /* \"#utility.yul\":7021:7022   */\n      0x00\n        /* \"#utility.yul\":7046:7099   */\n      tag_357\n        /* \"#utility.yul\":7091:7098   */\n      dup8\n        /* \"#utility.yul\":7082:7088   */\n      dup3\n        /* \"#utility.yul\":7071:7080   */\n      dup9\n        /* \"#utility.yul\":7067:7089   */\n      add\n        /* \"#utility.yul\":7046:7099   */\n      tag_218\n      jump\t// in\n    tag_357:\n        /* \"#utility.yul\":7036:7099   */\n      swap5\n      pop\n        /* \"#utility.yul\":6992:7109   */\n      pop\n        /* \"#utility.yul\":7148:7150   */\n      0x20\n        /* \"#utility.yul\":7174:7227   */\n      tag_358\n        /* \"#utility.yul\":7219:7226   */\n      dup8\n        /* \"#utility.yul\":7210:7216   */\n      dup3\n        /* \"#utility.yul\":7199:7208   */\n      dup9\n        /* \"#utility.yul\":7195:7217   */\n      add\n        /* \"#utility.yul\":7174:7227   */\n      tag_221\n      jump\t// in\n    tag_358:\n        /* \"#utility.yul\":7164:7227   */\n      swap4\n      pop\n        /* \"#utility.yul\":7119:7237   */\n      pop\n        /* \"#utility.yul\":7276:7278   */\n      0x40\n        /* \"#utility.yul\":7302:7355   */\n      tag_359\n        /* \"#utility.yul\":7347:7354   */\n      dup8\n        /* \"#utility.yul\":7338:7344   */\n      dup3\n        /* \"#utility.yul\":7327:7336   */\n      dup9\n        /* \"#utility.yul\":7323:7345   */\n      add\n        /* \"#utility.yul\":7302:7355   */\n      tag_221\n      jump\t// in\n    tag_359:\n        /* \"#utility.yul\":7292:7355   */\n      swap3\n      pop\n        /* \"#utility.yul\":7247:7365   */\n      pop\n        /* \"#utility.yul\":7404:7406   */\n      0x60\n        /* \"#utility.yul\":7430:7483   */\n      tag_360\n        /* \"#utility.yul\":7475:7482   */\n      dup8\n        /* \"#utility.yul\":7466:7472   */\n      dup3\n        /* \"#utility.yul\":7455:7464   */\n      dup9\n        /* \"#utility.yul\":7451:7473   */\n      add\n        /* \"#utility.yul\":7430:7483   */\n      tag_227\n      jump\t// in\n    tag_360:\n        /* \"#utility.yul\":7420:7483   */\n      swap2\n      pop\n        /* \"#utility.yul\":7375:7493   */\n      pop\n        /* \"#utility.yul\":6735:7500   */\n      swap3\n      swap6\n      swap2\n      swap5\n      pop\n      swap3\n      pop\n      jump\t// out\n        /* \"#utility.yul\":7506:7623   */\n    tag_237:\n        /* \"#utility.yul\":7615:7616   */\n      0x00\n        /* \"#utility.yul\":7612:7613   */\n      dup1\n        /* \"#utility.yul\":7605:7617   */\n      revert\n        /* \"#utility.yul\":7629:7746   */\n    tag_238:\n        /* \"#utility.yul\":7738:7739   */\n      0x00\n        /* \"#utility.yul\":7735:7736   */\n      dup1\n        /* \"#utility.yul\":7728:7740   */\n      revert\n        /* \"#utility.yul\":7752:7854   */\n    tag_239:\n        /* \"#utility.yul\":7793:7799   */\n      0x00\n        /* \"#utility.yul\":7844:7846   */\n      0x1f\n        /* \"#utility.yul\":7840:7847   */\n      not\n        /* \"#utility.yul\":7835:7837   */\n      0x1f\n        /* \"#utility.yul\":7828:7833   */\n      dup4\n        /* \"#utility.yul\":7824:7838   */\n      add\n        /* \"#utility.yul\":7820:7848   */\n      and\n        /* \"#utility.yul\":7810:7848   */\n      swap1\n      pop\n        /* \"#utility.yul\":7752:7854   */\n      swap2\n      swap1\n      pop\n      jump\t// out\n        /* \"#utility.yul\":7860:8040   */\n    tag_240:\n        /* \"#utility.yul\":7908:7985   */\n      0x4e487b7100000000000000000000000000000000000000000000000000000000\n        /* \"#utility.yul\":7905:7906   */\n      0x00\n        /* \"#utility.yul\":7898:7986   */\n      mstore\n        /* \"#utility.yul\":8005:8009   */\n      0x41\n        /* \"#utility.yul\":8002:8003   */\n      0x04\n        /* \"#utility.yul\":7995:8010   */\n      mstore\n        /* \"#utility.yul\":8029:8033   */\n      0x24\n        /* \"#utility.yul\":8026:8027   */\n      0x00\n        /* \"#utility.yul\":8019:8034   */\n      revert\n        /* \"#utility.yul\":8046:8327   */\n    tag_241:\n        /* \"#utility.yul\":8129:8156   */\n      tag_366\n        /* \"#utility.yul\":8151:8155   */\n      dup3\n        /* \"#utility.yul\":8129:8156   */\n      tag_239\n      jump\t// in\n    tag_366:\n        /* \"#utility.yul\":8121:8127   */\n      dup2\n        /* \"#utility.yul\":8117:8157   */\n      add\n        /* \"#utility.yul\":8259:8265   */\n      dup2\n        /* \"#utility.yul\":8247:8257   */\n      dup2\n        /* \"#utility.yul\":8244:8266   */\n      lt\n        /* \"#utility.yul\":8223:8241   */\n      0xffffffffffffffff\n        /* \"#utility.yul\":8211:8221   */\n      dup3\n        /* \"#utility.yul\":8208:8242   */\n      gt\n        /* \"#utility.yul\":8205:8267   */\n      or\n        /* \"#utility.yul\":8202:8290   */\n      iszero\n      tag_367\n      jumpi\n        /* \"#utility.yul\":8270:8288   */\n      tag_368\n      tag_240\n      jump\t// in\n    tag_368:\n        /* \"#utility.yul\":8202:8290   */\n    tag_367:\n        /* \"#utility.yul\":8310:8320   */\n      dup1\n        /* \"#utility.yul\":8306:8308   */\n      0x40\n        /* \"#utility.yul\":8299:8321   */\n      mstore\n        /* \"#utility.yul\":8089:8327   */\n      pop\n        /* \"#utility.yul\":8046:8327   */\n      pop\n      pop\n      jump\t// out\n        /* \"#utility.yul\":8333:8462   */\n    tag_242:\n        /* \"#utility.yul\":8367:8373   */\n      0x00\n        /* \"#utility.yul\":8394:8414   */\n      tag_370\n      tag_212\n      jump\t// in\n    tag_370:\n        /* \"#utility.yul\":8384:8414   */\n      swap1\n      pop\n        /* \"#utility.yul\":8423:8456   */\n      tag_371\n        /* \"#utility.yul\":8451:8455   */\n      dup3\n        /* \"#utility.yul\":8443:8449   */\n      dup3\n        /* \"#utility.yul\":8423:8456   */\n      tag_241\n      jump\t// in\n    tag_371:\n        /* \"#utility.yul\":8333:8462   */\n      swap2\n      swap1\n      pop\n      jump\t// out\n        /* \"#utility.yul\":8468:8776   */\n    tag_243:\n        /* \"#utility.yul\":8530:8534   */\n      0x00\n        /* \"#utility.yul\":8620:8638   */\n      0xffffffffffffffff\n        /* \"#utility.yul\":8612:8618   */\n      dup3\n        /* \"#utility.yul\":8609:8639   */\n      gt\n        /* \"#utility.yul\":8606:8662   */\n      iszero\n      tag_373\n      jumpi\n        /* \"#utility.yul\":8642:8660   */\n      tag_374\n      tag_240\n      jump\t// in\n    tag_374:\n        /* \"#utility.yul\":8606:8662   */\n    tag_373:\n        /* \"#utility.yul\":8680:8709   */\n      tag_375\n        /* \"#utility.yul\":8702:8708   */\n      dup3\n        /* \"#utility.yul\":8680:8709   */\n      tag_239\n      jump\t// in\n    tag_375:\n        /* \"#utility.yul\":8672:8709   */\n      swap1\n      pop\n        /* \"#utility.yul\":8764:8768   */\n      0x20\n        /* \"#utility.yul\":8758:8762   */\n      dup2\n        /* \"#utility.yul\":8754:8769   */\n      add\n        /* \"#utility.yul\":8746:8769   */\n      swap1\n      pop\n        /* \"#utility.yul\":8468:8776   */\n      swap2\n      swap1\n      pop\n      jump\t// out\n        /* \"#utility.yul\":8782:8930   */\n    tag_244:\n        /* \"#utility.yul\":8880:8886   */\n      dup3\n        /* \"#utility.yul\":8875:8878   */\n      dup2\n        /* \"#utility.yul\":8870:8873   */\n      dup4\n        /* \"#utility.yul\":8857:8887   */\n      calldatacopy\n        /* \"#utility.yul\":8921:8922   */\n      0x00\n        /* \"#utility.yul\":8912:8918   */\n      dup4\n        /* \"#utility.yul\":8907:8910   */\n      dup4\n        /* \"#utility.yul\":8903:8919   */\n      add\n        /* \"#utility.yul\":8896:8923   */\n      mstore\n        /* \"#utility.yul\":8782:8930   */\n      pop\n      pop\n      pop\n      jump\t// out\n        /* \"#utility.yul\":8936:9361   */\n    tag_245:\n        /* \"#utility.yul\":9014:9019   */\n      0x00\n        /* \"#utility.yul\":9039:9105   */\n      tag_378\n        /* \"#utility.yul\":9055:9104   */\n      tag_379\n        /* \"#utility.yul\":9097:9103   */\n      dup5\n        /* \"#utility.yul\":9055:9104   */\n      tag_243\n      jump\t// in\n    tag_379:\n        /* \"#utility.yul\":9039:9105   */\n      tag_242\n      jump\t// in\n    tag_378:\n        /* \"#utility.yul\":9030:9105   */\n      swap1\n      pop\n        /* \"#utility.yul\":9128:9134   */\n      dup3\n        /* \"#utility.yul\":9121:9126   */\n      dup2\n        /* \"#utility.yul\":9114:9135   */\n      mstore\n        /* \"#utility.yul\":9166:9170   */\n      0x20\n        /* \"#utility.yul\":9159:9164   */\n      dup2\n        /* \"#utility.yul\":9155:9171   */\n      add\n        /* \"#utility.yul\":9204:9207   */\n      dup5\n        /* \"#utility.yul\":9195:9201   */\n      dup5\n        /* \"#utility.yul\":9190:9193   */\n      dup5\n        /* \"#utility.yul\":9186:9202   */\n      add\n        /* \"#utility.yul\":9183:9208   */\n      gt\n        /* \"#utility.yul\":9180:9292   */\n      iszero\n      tag_380\n      jumpi\n        /* \"#utility.yul\":9211:9290   */\n      tag_381\n      tag_238\n      jump\t// in\n    tag_381:\n        /* \"#utility.yul\":9180:9292   */\n    tag_380:\n        /* \"#utility.yul\":9301:9355   */\n      tag_382\n        /* \"#utility.yul\":9348:9354   */\n      dup5\n        /* \"#utility.yul\":9343:9346   */\n      dup3\n        /* \"#utility.yul\":9338:9341   */\n      dup6\n        /* \"#utility.yul\":9301:9355   */\n      tag_244\n      jump\t// in\n    tag_382:\n        /* \"#utility.yul\":9020:9361   */\n      pop\n        /* \"#utility.yul\":8936:9361   */\n      swap4\n      swap3\n      pop\n      pop\n      pop\n      jump\t// out\n        /* \"#utility.yul\":9381:9721   */\n    tag_246:\n        /* \"#utility.yul\":9437:9442   */\n      0x00\n        /* \"#utility.yul\":9486:9489   */\n      dup3\n        /* \"#utility.yul\":9479:9483   */\n      0x1f\n        /* \"#utility.yul\":9471:9477   */\n      dup4\n        /* \"#utility.yul\":9467:9484   */\n      add\n        /* \"#utility.yul\":9463:9490   */\n      slt\n        /* \"#utility.yul\":9453:9575   */\n      tag_384\n      jumpi\n        /* \"#utility.yul\":9494:9573   */\n      tag_385\n      tag_237\n      jump\t// in\n    tag_385:\n        /* \"#utility.yul\":9453:9575   */\n    tag_384:\n        /* \"#utility.yul\":9611:9617   */\n      dup2\n        /* \"#utility.yul\":9598:9618   */\n      calldataload\n        /* \"#utility.yul\":9636:9715   */\n      tag_386\n        /* \"#utility.yul\":9711:9714   */\n      dup5\n        /* \"#utility.yul\":9703:9709   */\n      dup3\n        /* \"#utility.yul\":9696:9700   */\n      0x20\n        /* \"#utility.yul\":9688:9694   */\n      dup7\n        /* \"#utility.yul\":9684:9701   */\n      add\n        /* \"#utility.yul\":9636:9715   */\n      tag_245\n      jump\t// in\n    tag_386:\n        /* \"#utility.yul\":9627:9715   */\n      swap2\n      pop\n        /* \"#utility.yul\":9443:9721   */\n      pop\n        /* \"#utility.yul\":9381:9721   */\n      swap3\n      swap2\n      pop\n      pop\n      jump\t// out\n        /* \"#utility.yul\":9727:10236   */\n    tag_54:\n        /* \"#utility.yul\":9796:9802   */\n      0x00\n        /* \"#utility.yul\":9845:9847   */\n      0x20\n        /* \"#utility.yul\":9833:9842   */\n      dup3\n        /* \"#utility.yul\":9824:9831   */\n      dup5\n        /* \"#utility.yul\":9820:9843   */\n      sub\n        /* \"#utility.yul\":9816:9848   */\n      slt\n        /* \"#utility.yul\":9813:9932   */\n      iszero\n      tag_388\n      jumpi\n        /* \"#utility.yul\":9851:9930   */\n      tag_389\n      tag_213\n      jump\t// in\n    tag_389:\n        /* \"#utility.yul\":9813:9932   */\n    tag_388:\n        /* \"#utility.yul\":9999:10000   */\n      0x00\n        /* \"#utility.yul\":9988:9997   */\n      dup3\n        /* \"#utility.yul\":9984:10001   */\n      add\n        /* \"#utility.yul\":9971:10002   */\n      calldataload\n        /* \"#utility.yul\":10029:10047   */\n      0xffffffffffffffff\n        /* \"#utility.yul\":10021:10027   */\n      dup2\n        /* \"#utility.yul\":10018:10048   */\n      gt\n        /* \"#utility.yul\":10015:10132   */\n      iszero\n      tag_390\n      jumpi\n        /* \"#utility.yul\":10051:10130   */\n      tag_391\n      tag_214\n      jump\t// in\n    tag_391:\n        /* \"#utility.yul\":10015:10132   */\n    tag_390:\n        /* \"#utility.yul\":10156:10219   */\n      tag_392\n        /* \"#utility.yul\":10211:10218   */\n      dup5\n        /* \"#utility.yul\":10202:10208   */\n      dup3\n        /* \"#utility.yul\":10191:10200   */\n      dup6\n        /* \"#utility.yul\":10187:10209   */\n      add\n        /* \"#utility.yul\":10156:10219   */\n      tag_246\n      jump\t// in\n    tag_392:\n        /* \"#utility.yul\":10146:10219   */\n      swap2\n      pop\n        /* \"#utility.yul\":9942:10229   */\n      pop\n        /* \"#utility.yul\":9727:10236   */\n      swap3\n      swap2\n      pop\n      pop\n      jump\t// out\n        /* \"#utility.yul\":10242:10464   */\n    tag_57:\n        /* \"#utility.yul\":10335:10339   */\n      0x00\n        /* \"#utility.yul\":10373:10375   */\n      0x20\n        /* \"#utility.yul\":10362:10371   */\n      dup3\n        /* \"#utility.yul\":10358:10376   */\n      add\n        /* \"#utility.yul\":10350:10376   */\n      swap1\n      pop\n        /* \"#utility.yul\":10386:10457   */\n      tag_394\n        /* \"#utility.yul\":10454:10455   */\n      0x00\n        /* \"#utility.yul\":10443:10452   */\n      dup4\n        /* \"#utility.yul\":10439:10456   */\n      add\n        /* \"#utility.yul\":10430:10436   */\n      dup5\n        /* \"#utility.yul\":10386:10457   */\n      tag_225\n      jump\t// in\n    tag_394:\n        /* \"#utility.yul\":10242:10464   */\n      swap3\n      swap2\n      pop\n      pop\n      jump\t// out\n        /* \"#utility.yul\":10470:10944   */\n    tag_60:\n        /* \"#utility.yul\":10538:10544   */\n      0x00\n        /* \"#utility.yul\":10546:10552   */\n      dup1\n        /* \"#utility.yul\":10595:10597   */\n      0x40\n        /* \"#utility.yul\":10583:10592   */\n      dup4\n        /* \"#utility.yul\":10574:10581   */\n      dup6\n        /* \"#utility.yul\":10570:10593   */\n      sub\n        /* \"#utility.yul\":10566:10598   */\n      slt\n        /* \"#utility.yul\":10563:10682   */\n      iszero\n      tag_396\n      jumpi\n        /* \"#utility.yul\":10601:10680   */\n      tag_397\n      tag_213\n      jump\t// in\n    tag_397:\n        /* \"#utility.yul\":10563:10682   */\n    tag_396:\n        /* \"#utility.yul\":10721:10722   */\n      0x00\n        /* \"#utility.yul\":10746:10799   */\n      tag_398\n        /* \"#utility.yul\":10791:10798   */\n      dup6\n        /* \"#utility.yul\":10782:10788   */\n      dup3\n        /* \"#utility.yul\":10771:10780   */\n      dup7\n        /* \"#utility.yul\":10767:10789   */\n      add\n        /* \"#utility.yul\":10746:10799   */\n      tag_227\n      jump\t// in\n    tag_398:\n        /* \"#utility.yul\":10736:10799   */\n      swap3\n      pop\n        /* \"#utility.yul\":10692:10809   */\n      pop\n        /* \"#utility.yul\":10848:10850   */\n      0x20\n        /* \"#utility.yul\":10874:10927   */\n      tag_399\n        /* \"#utility.yul\":10919:10926   */\n      dup6\n        /* \"#utility.yul\":10910:10916   */\n      dup3\n        /* \"#utility.yul\":10899:10908   */\n      dup7\n        /* \"#utility.yul\":10895:10917   */\n      add\n        /* \"#utility.yul\":10874:10927   */\n      tag_221\n      jump\t// in\n    tag_399:\n        /* \"#utility.yul\":10864:10927   */\n      swap2\n      pop\n        /* \"#utility.yul\":10819:10937   */\n      pop\n        /* \"#utility.yul\":10470:10944   */\n      swap3\n      pop\n      swap3\n      swap1\n      pop\n      jump\t// out\n        /* \"#utility.yul\":10950:11172   */\n    tag_63:\n        /* \"#utility.yul\":11043:11047   */\n      0x00\n        /* \"#utility.yul\":11081:11083   */\n      0x20\n        /* \"#utility.yul\":11070:11079   */\n      dup3\n        /* \"#utility.yul\":11066:11084   */\n      add\n        /* \"#utility.yul\":11058:11084   */\n      swap1\n      pop\n        /* \"#utility.yul\":11094:11165   */\n      tag_401\n        /* \"#utility.yul\":11162:11163   */\n      0x00\n        /* \"#utility.yul\":11151:11160   */\n      dup4\n        /* \"#utility.yul\":11147:11164   */\n      add\n        /* \"#utility.yul\":11138:11144   */\n      dup5\n        /* \"#utility.yul\":11094:11165   */\n      tag_223\n      jump\t// in\n    tag_401:\n        /* \"#utility.yul\":10950:11172   */\n      swap3\n      swap2\n      pop\n      pop\n      jump\t// out\n        /* \"#utility.yul\":11178:11347   */\n    tag_247:\n        /* \"#utility.yul\":11262:11273   */\n      0x00\n        /* \"#utility.yul\":11296:11302   */\n      dup3\n        /* \"#utility.yul\":11291:11294   */\n      dup3\n        /* \"#utility.yul\":11284:11303   */\n      mstore\n        /* \"#utility.yul\":11336:11340   */\n      0x20\n        /* \"#utility.yul\":11331:11334   */\n      dup3\n        /* \"#utility.yul\":11327:11341   */\n      add\n        /* \"#utility.yul\":11312:11341   */\n      swap1\n      pop\n        /* \"#utility.yul\":11178:11347   */\n      swap3\n      swap2\n      pop\n      pop\n      jump\t// out\n        /* \"#utility.yul\":11353:11513   */\n    tag_248:\n        /* \"#utility.yul\":11493:11505   */\n      0x4e6f74206c697374656400000000000000000000000000000000000000000000\n        /* \"#utility.yul\":11489:11490   */\n      0x00\n        /* \"#utility.yul\":11481:11487   */\n      dup3\n        /* \"#utility.yul\":11477:11491   */\n      add\n        /* \"#utility.yul\":11470:11506   */\n      mstore\n        /* \"#utility.yul\":11353:11513   */\n      pop\n      jump\t// out\n        /* \"#utility.yul\":11519:11885   */\n    tag_249:\n        /* \"#utility.yul\":11661:11664   */\n      0x00\n        /* \"#utility.yul\":11682:11749   */\n      tag_405\n        /* \"#utility.yul\":11746:11748   */\n      0x0a\n        /* \"#utility.yul\":11741:11744   */\n      dup4\n        /* \"#utility.yul\":11682:11749   */\n      tag_247\n      jump\t// in\n    tag_405:\n        /* \"#utility.yul\":11675:11749   */\n      swap2\n      pop\n        /* \"#utility.yul\":11758:11851   */\n      tag_406\n        /* \"#utility.yul\":11847:11850   */\n      dup3\n        /* \"#utility.yul\":11758:11851   */\n      tag_248\n      jump\t// in\n    tag_406:\n        /* \"#utility.yul\":11876:11878   */\n      0x20\n        /* \"#utility.yul\":11871:11874   */\n      dup3\n        /* \"#utility.yul\":11867:11879   */\n      add\n        /* \"#utility.yul\":11860:11879   */\n      swap1\n      pop\n        /* \"#utility.yul\":11519:11885   */\n      swap2\n      swap1\n      pop\n      jump\t// out\n        /* \"#utility.yul\":11891:12310   */\n    tag_78:\n        /* \"#utility.yul\":12057:12061   */\n      0x00\n        /* \"#utility.yul\":12095:12097   */\n      0x20\n        /* \"#utility.yul\":12084:12093   */\n      dup3\n        /* \"#utility.yul\":12080:12098   */\n      add\n        /* \"#utility.yul\":12072:12098   */\n      swap1\n      pop\n        /* \"#utility.yul\":12144:12153   */\n      dup2\n        /* \"#utility.yul\":12138:12142   */\n      dup2\n        /* \"#utility.yul\":12134:12154   */\n      sub\n        /* \"#utility.yul\":12130:12131   */\n      0x00\n        /* \"#utility.yul\":12119:12128   */\n      dup4\n        /* \"#utility.yul\":12115:12132   */\n      add\n        /* \"#utility.yul\":12108:12155   */\n      mstore\n        /* \"#utility.yul\":12172:12303   */\n      tag_408\n        /* \"#utility.yul\":12298:12302   */\n      dup2\n        /* \"#utility.yul\":12172:12303   */\n      tag_249\n      jump\t// in\n    tag_408:\n        /* \"#utility.yul\":12164:12303   */\n      swap1\n      pop\n        /* \"#utility.yul\":11891:12310   */\n      swap2\n      swap1\n      pop\n      jump\t// out\n        /* \"#utility.yul\":12316:12758   */\n    tag_81:\n        /* \"#utility.yul\":12465:12469   */\n      0x00\n        /* \"#utility.yul\":12503:12505   */\n      0x60\n        /* \"#utility.yul\":12492:12501   */\n      dup3\n        /* \"#utility.yul\":12488:12506   */\n      add\n        /* \"#utility.yul\":12480:12506   */\n      swap1\n      pop\n        /* \"#utility.yul\":12516:12587   */\n      tag_410\n        /* \"#utility.yul\":12584:12585   */\n      0x00\n        /* \"#utility.yul\":12573:12582   */\n      dup4\n        /* \"#utility.yul\":12569:12586   */\n      add\n        /* \"#utility.yul\":12560:12566   */\n      dup7\n        /* \"#utility.yul\":12516:12587   */\n      tag_223\n      jump\t// in\n    tag_410:\n        /* \"#utility.yul\":12597:12669   */\n      tag_411\n        /* \"#utility.yul\":12665:12667   */\n      0x20\n        /* \"#utility.yul\":12654:12663   */\n      dup4\n        /* \"#utility.yul\":12650:12668   */\n      add\n        /* \"#utility.yul\":12641:12647   */\n      dup6\n        /* \"#utility.yul\":12597:12669   */\n      tag_223\n      jump\t// in\n    tag_411:\n        /* \"#utility.yul\":12679:12751   */\n      tag_412\n        /* \"#utility.yul\":12747:12749   */\n      0x40\n        /* \"#utility.yul\":12736:12745   */\n      dup4\n        /* \"#utility.yul\":12732:12750   */\n      add\n        /* \"#utility.yul\":12723:12729   */\n      dup5\n        /* \"#utility.yul\":12679:12751   */\n      tag_222\n      jump\t// in\n    tag_412:\n        /* \"#utility.yul\":12316:12758   */\n      swap5\n      swap4\n      pop\n      pop\n      pop\n      pop\n      jump\t// out\n        /* \"#utility.yul\":12764:12854   */\n    tag_250:\n        /* \"#utility.yul\":12798:12805   */\n      0x00\n        /* \"#utility.yul\":12841:12846   */\n      dup2\n        /* \"#utility.yul\":12834:12847   */\n      iszero\n        /* \"#utility.yul\":12827:12848   */\n      iszero\n        /* \"#utility.yul\":12816:12848   */\n      swap1\n      pop\n        /* \"#utility.yul\":12764:12854   */\n      swap2\n      swap1\n      pop\n      jump\t// out\n        /* \"#utility.yul\":12860:12976   */\n    tag_251:\n        /* \"#utility.yul\":12930:12951   */\n      tag_415\n        /* \"#utility.yul\":12945:12950   */\n      dup2\n        /* \"#utility.yul\":12930:12951   */\n      tag_250\n      jump\t// in\n    tag_415:\n        /* \"#utility.yul\":12923:12928   */\n      dup2\n        /* \"#utility.yul\":12920:12952   */\n      eq\n        /* \"#utility.yul\":12910:12970   */\n      tag_416\n      jumpi\n        /* \"#utility.yul\":12966:12967   */\n      0x00\n        /* \"#utility.yul\":12963:12964   */\n      dup1\n        /* \"#utility.yul\":12956:12968   */\n      revert\n        /* \"#utility.yul\":12910:12970   */\n    tag_416:\n        /* \"#utility.yul\":12860:12976   */\n      pop\n      jump\t// out\n        /* \"#utility.yul\":12982:13119   */\n    tag_252:\n        /* \"#utility.yul\":13036:13041   */\n      0x00\n        /* \"#utility.yul\":13067:13073   */\n      dup2\n        /* \"#utility.yul\":13061:13074   */\n      mload\n        /* \"#utility.yul\":13052:13074   */\n      swap1\n      pop\n        /* \"#utility.yul\":13083:13113   */\n      tag_418\n        /* \"#utility.yul\":13107:13112   */\n      dup2\n        /* \"#utility.yul\":13083:13113   */\n      tag_251\n      jump\t// in\n    tag_418:\n        /* \"#utility.yul\":12982:13119   */\n      swap3\n      swap2\n      pop\n      pop\n      jump\t// out\n        /* \"#utility.yul\":13125:13470   */\n    tag_85:\n        /* \"#utility.yul\":13192:13198   */\n      0x00\n        /* \"#utility.yul\":13241:13243   */\n      0x20\n        /* \"#utility.yul\":13229:13238   */\n      dup3\n        /* \"#utility.yul\":13220:13227   */\n      dup5\n        /* \"#utility.yul\":13216:13239   */\n      sub\n        /* \"#utility.yul\":13212:13244   */\n      slt\n        /* \"#utility.yul\":13209:13328   */\n      iszero\n      tag_420\n      jumpi\n        /* \"#utility.yul\":13247:13326   */\n      tag_421\n      tag_213\n      jump\t// in\n    tag_421:\n        /* \"#utility.yul\":13209:13328   */\n    tag_420:\n        /* \"#utility.yul\":13367:13368   */\n      0x00\n        /* \"#utility.yul\":13392:13453   */\n      tag_422\n        /* \"#utility.yul\":13445:13452   */\n      dup5\n        /* \"#utility.yul\":13436:13442   */\n      dup3\n        /* \"#utility.yul\":13425:13434   */\n      dup6\n        /* \"#utility.yul\":13421:13443   */\n      add\n        /* \"#utility.yul\":13392:13453   */\n      tag_252\n      jump\t// in\n    tag_422:\n        /* \"#utility.yul\":13382:13453   */\n      swap2\n      pop\n        /* \"#utility.yul\":13338:13463   */\n      pop\n        /* \"#utility.yul\":13125:13470   */\n      swap3\n      swap2\n      pop\n      pop\n      jump\t// out\n        /* \"#utility.yul\":13476:13640   */\n    tag_253:\n        /* \"#utility.yul\":13616:13632   */\n      0x5061796d656e74206661696c6564000000000000000000000000000000000000\n        /* \"#utility.yul\":13612:13613   */\n      0x00\n        /* \"#utility.yul\":13604:13610   */\n      dup3\n        /* \"#utility.yul\":13600:13614   */\n      add\n        /* \"#utility.yul\":13593:13633   */\n      mstore\n        /* \"#utility.yul\":13476:13640   */\n      pop\n      jump\t// out\n        /* \"#utility.yul\":13646:14012   */\n    tag_254:\n        /* \"#utility.yul\":13788:13791   */\n      0x00\n        /* \"#utility.yul\":13809:13876   */\n      tag_425\n        /* \"#utility.yul\":13873:13875   */\n      0x0e\n        /* \"#utility.yul\":13868:13871   */\n      dup4\n        /* \"#utility.yul\":13809:13876   */\n      tag_247\n      jump\t// in\n    tag_425:\n        /* \"#utility.yul\":13802:13876   */\n      swap2\n      pop\n        /* \"#utility.yul\":13885:13978   */\n      tag_426\n        /* \"#utility.yul\":13974:13977   */\n      dup3\n        /* \"#utility.yul\":13885:13978   */\n      tag_253\n      jump\t// in\n    tag_426:\n        /* \"#utility.yul\":14003:14005   */\n      0x20\n        /* \"#utility.yul\":13998:14001   */\n      dup3\n        /* \"#utility.yul\":13994:14006   */\n      add\n        /* \"#utility.yul\":13987:14006   */\n      swap1\n      pop\n        /* \"#utility.yul\":13646:14012   */\n      swap2\n      swap1\n      pop\n      jump\t// out\n        /* \"#utility.yul\":14018:14437   */\n    tag_88:\n        /* \"#utility.yul\":14184:14188   */\n      0x00\n        /* \"#utility.yul\":14222:14224   */\n      0x20\n        /* \"#utility.yul\":14211:14220   */\n      dup3\n        /* \"#utility.yul\":14207:14225   */\n      add\n        /* \"#utility.yul\":14199:14225   */\n      swap1\n      pop\n        /* \"#utility.yul\":14271:14280   */\n      dup2\n        /* \"#utility.yul\":14265:14269   */\n      dup2\n        /* \"#utility.yul\":14261:14281   */\n      sub\n        /* \"#utility.yul\":14257:14258   */\n      0x00\n        /* \"#utility.yul\":14246:14255   */\n      dup4\n        /* \"#utility.yul\":14242:14259   */\n      add\n        /* \"#utility.yul\":14235:14282   */\n      mstore\n        /* \"#utility.yul\":14299:14430   */\n      tag_428\n        /* \"#utility.yul\":14425:14429   */\n      dup2\n        /* \"#utility.yul\":14299:14430   */\n      tag_254\n      jump\t// in\n    tag_428:\n        /* \"#utility.yul\":14291:14430   */\n      swap1\n      pop\n        /* \"#utility.yul\":14018:14437   */\n      swap2\n      swap1\n      pop\n      jump\t// out\n        /* \"#utility.yul\":14443:14586   */\n    tag_255:\n        /* \"#utility.yul\":14500:14505   */\n      0x00\n        /* \"#utility.yul\":14531:14537   */\n      dup2\n        /* \"#utility.yul\":14525:14538   */\n      mload\n        /* \"#utility.yul\":14516:14538   */\n      swap1\n      pop\n        /* \"#utility.yul\":14547:14580   */\n      tag_430\n        /* \"#utility.yul\":14574:14579   */\n      dup2\n        /* \"#utility.yul\":14547:14580   */\n      tag_217\n      jump\t// in\n    tag_430:\n        /* \"#utility.yul\":14443:14586   */\n      swap3\n      swap2\n      pop\n      pop\n      jump\t// out\n        /* \"#utility.yul\":14592:14943   */\n    tag_103:\n        /* \"#utility.yul\":14662:14668   */\n      0x00\n        /* \"#utility.yul\":14711:14713   */\n      0x20\n        /* \"#utility.yul\":14699:14708   */\n      dup3\n        /* \"#utility.yul\":14690:14697   */\n      dup5\n        /* \"#utility.yul\":14686:14709   */\n      sub\n        /* \"#utility.yul\":14682:14714   */\n      slt\n        /* \"#utility.yul\":14679:14798   */\n      iszero\n      tag_432\n      jumpi\n        /* \"#utility.yul\":14717:14796   */\n      tag_433\n      tag_213\n      jump\t// in\n    tag_433:\n        /* \"#utility.yul\":14679:14798   */\n    tag_432:\n        /* \"#utility.yul\":14837:14838   */\n      0x00\n        /* \"#utility.yul\":14862:14926   */\n      tag_434\n        /* \"#utility.yul\":14918:14925   */\n      dup5\n        /* \"#utility.yul\":14909:14915   */\n      dup3\n        /* \"#utility.yul\":14898:14907   */\n      dup6\n        /* \"#utility.yul\":14894:14916   */\n      add\n        /* \"#utility.yul\":14862:14926   */\n      tag_255\n      jump\t// in\n    tag_434:\n        /* \"#utility.yul\":14852:14926   */\n      swap2\n      pop\n        /* \"#utility.yul\":14808:14936   */\n      pop\n        /* \"#utility.yul\":14592:14943   */\n      swap3\n      swap2\n      pop\n      pop\n      jump\t// out\n        /* \"#utility.yul\":14949:15112   */\n    tag_256:\n        /* \"#utility.yul\":15089:15104   */\n      0x4e6f7420746865206f776e657200000000000000000000000000000000000000\n        /* \"#utility.yul\":15085:15086   */\n      0x00\n        /* \"#utility.yul\":15077:15083   */\n      dup3\n        /* \"#utility.yul\":15073:15087   */\n      add\n        /* \"#utility.yul\":15066:15105   */\n      mstore\n        /* \"#utility.yul\":14949:15112   */\n      pop\n      jump\t// out\n        /* \"#utility.yul\":15118:15484   */\n    tag_257:\n        /* \"#utility.yul\":15260:15263   */\n      0x00\n        /* \"#utility.yul\":15281:15348   */\n      tag_437\n        /* \"#utility.yul\":15345:15347   */\n      0x0d\n        /* \"#utility.yul\":15340:15343   */\n      dup4\n        /* \"#utility.yul\":15281:15348   */\n      tag_247\n      jump\t// in\n    tag_437:\n        /* \"#utility.yul\":15274:15348   */\n      swap2\n      pop\n        /* \"#utility.yul\":15357:15450   */\n      tag_438\n        /* \"#utility.yul\":15446:15449   */\n      dup3\n        /* \"#utility.yul\":15357:15450   */\n      tag_256\n      jump\t// in\n    tag_438:\n        /* \"#utility.yul\":15475:15477   */\n      0x20\n        /* \"#utility.yul\":15470:15473   */\n      dup3\n        /* \"#utility.yul\":15466:15478   */\n      add\n        /* \"#utility.yul\":15459:15478   */\n      swap1\n      pop\n        /* \"#utility.yul\":15118:15484   */\n      swap2\n      swap1\n      pop\n      jump\t// out\n        /* \"#utility.yul\":15490:15909   */\n    tag_106:\n        /* \"#utility.yul\":15656:15660   */\n      0x00\n        /* \"#utility.yul\":15694:15696   */\n      0x20\n        /* \"#utility.yul\":15683:15692   */\n      dup3\n        /* \"#utility.yul\":15679:15697   */\n      add\n        /* \"#utility.yul\":15671:15697   */\n      swap1\n      pop\n        /* \"#utility.yul\":15743:15752   */\n      dup2\n        /* \"#utility.yul\":15737:15741   */\n      dup2\n        /* \"#utility.yul\":15733:15753   */\n      sub\n        /* \"#utility.yul\":15729:15730   */\n      0x00\n        /* \"#utility.yul\":15718:15727   */\n      dup4\n        /* \"#utility.yul\":15714:15731   */\n      add\n        /* \"#utility.yul\":15707:15754   */\n      mstore\n        /* \"#utility.yul\":15771:15902   */\n      tag_440\n        /* \"#utility.yul\":15897:15901   */\n      dup2\n        /* \"#utility.yul\":15771:15902   */\n      tag_257\n      jump\t// in\n    tag_440:\n        /* \"#utility.yul\":15763:15902   */\n      swap1\n      pop\n        /* \"#utility.yul\":15490:15909   */\n      swap2\n      swap1\n      pop\n      jump\t// out\n        /* \"#utility.yul\":15915:16079   */\n    tag_258:\n        /* \"#utility.yul\":16055:16071   */\n      0x416c7265616479206c6973746564000000000000000000000000000000000000\n        /* \"#utility.yul\":16051:16052   */\n      0x00\n        /* \"#utility.yul\":16043:16049   */\n      dup3\n        /* \"#utility.yul\":16039:16053   */\n      add\n        /* \"#utility.yul\":16032:16072   */\n      mstore\n        /* \"#utility.yul\":15915:16079   */\n      pop\n      jump\t// out\n        /* \"#utility.yul\":16085:16451   */\n    tag_259:\n        /* \"#utility.yul\":16227:16230   */\n      0x00\n        /* \"#utility.yul\":16248:16315   */\n      tag_443\n        /* \"#utility.yul\":16312:16314   */\n      0x0e\n        /* \"#utility.yul\":16307:16310   */\n      dup4\n        /* \"#utility.yul\":16248:16315   */\n      tag_247\n      jump\t// in\n    tag_443:\n        /* \"#utility.yul\":16241:16315   */\n      swap2\n      pop\n        /* \"#utility.yul\":16324:16417   */\n      tag_444\n        /* \"#utility.yul\":16413:16416   */\n      dup3\n        /* \"#utility.yul\":16324:16417   */\n      tag_258\n      jump\t// in\n    tag_444:\n        /* \"#utility.yul\":16442:16444   */\n      0x20\n        /* \"#utility.yul\":16437:16440   */\n      dup3\n        /* \"#utility.yul\":16433:16445   */\n      add\n        /* \"#utility.yul\":16426:16445   */\n      swap1\n      pop\n        /* \"#utility.yul\":16085:16451   */\n      swap2\n      swap1\n      pop\n      jump\t// out\n        /* \"#utility.yul\":16457:16876   */\n    tag_122:\n        /* \"#utility.yul\":16623:16627   */\n      0x00\n        /* \"#utility.yul\":16661:16663   */\n      0x20\n        /* \"#utility.yul\":16650:16659   */\n      dup3\n        /* \"#utility.yul\":16646:16664   */\n      add\n        /* \"#utility.yul\":16638:16664   */\n      swap1\n      pop\n        /* \"#utility.yul\":16710:16719   */\n      dup2\n        /* \"#utility.yul\":16704:16708   */\n      dup2\n        /* \"#utility.yul\":16700:16720   */\n      sub\n        /* \"#utility.yul\":16696:16697   */\n      0x00\n        /* \"#utility.yul\":16685:16694   */\n      dup4\n        /* \"#utility.yul\":16681:16698   */\n      add\n        /* \"#utility.yul\":16674:16721   */\n      mstore\n        /* \"#utility.yul\":16738:16869   */\n      tag_446\n        /* \"#utility.yul\":16864:16868   */\n      dup2\n        /* \"#utility.yul\":16738:16869   */\n      tag_259\n      jump\t// in\n    tag_446:\n        /* \"#utility.yul\":16730:16869   */\n      swap1\n      pop\n        /* \"#utility.yul\":16457:16876   */\n      swap2\n      swap1\n      pop\n      jump\t// out\n        /* \"#utility.yul\":16882:17041   */\n    tag_260:\n        /* \"#utility.yul\":17022:17033   */\n      0x5072696365203e20300000000000000000000000000000000000000000000000\n        /* \"#utility.yul\":17018:17019   */\n      0x00\n        /* \"#utility.yul\":17010:17016   */\n      dup3\n        /* \"#utility.yul\":17006:17020   */\n      add\n        /* \"#utility.yul\":16999:17034   */\n      mstore\n        /* \"#utility.yul\":16882:17041   */\n      pop\n      jump\t// out\n        /* \"#utility.yul\":17047:17412   */\n    tag_261:\n        /* \"#utility.yul\":17189:17192   */\n      0x00\n        /* \"#utility.yul\":17210:17276   */\n      tag_449\n        /* \"#utility.yul\":17274:17275   */\n      0x09\n        /* \"#utility.yul\":17269:17272   */\n      dup4\n        /* \"#utility.yul\":17210:17276   */\n      tag_247\n      jump\t// in\n    tag_449:\n        /* \"#utility.yul\":17203:17276   */\n      swap2\n      pop\n        /* \"#utility.yul\":17285:17378   */\n      tag_450\n        /* \"#utility.yul\":17374:17377   */\n      dup3\n        /* \"#utility.yul\":17285:17378   */\n      tag_260\n      jump\t// in\n    tag_450:\n        /* \"#utility.yul\":17403:17405   */\n      0x20\n        /* \"#utility.yul\":17398:17401   */\n      dup3\n        /* \"#utility.yul\":17394:17406   */\n      add\n        /* \"#utility.yul\":17387:17406   */\n      swap1\n      pop\n        /* \"#utility.yul\":17047:17412   */\n      swap2\n      swap1\n      pop\n      jump\t// out\n        /* \"#utility.yul\":17418:17837   */\n    tag_126:\n        /* \"#utility.yul\":17584:17588   */\n      0x00\n        /* \"#utility.yul\":17622:17624   */\n      0x20\n        /* \"#utility.yul\":17611:17620   */\n      dup3\n        /* \"#utility.yul\":17607:17625   */\n      add\n        /* \"#utility.yul\":17599:17625   */\n      swap1\n      pop\n        /* \"#utility.yul\":17671:17680   */\n      dup2\n        /* \"#utility.yul\":17665:17669   */\n      dup2\n        /* \"#utility.yul\":17661:17681   */\n      sub\n        /* \"#utility.yul\":17657:17658   */\n      0x00\n        /* \"#utility.yul\":17646:17655   */\n      dup4\n        /* \"#utility.yul\":17642:17659   */\n      add\n        /* \"#utility.yul\":17635:17682   */\n      mstore\n        /* \"#utility.yul\":17699:17830   */\n      tag_452\n        /* \"#utility.yul\":17825:17829   */\n      dup2\n        /* \"#utility.yul\":17699:17830   */\n      tag_261\n      jump\t// in\n    tag_452:\n        /* \"#utility.yul\":17691:17830   */\n      swap1\n      pop\n        /* \"#utility.yul\":17418:17837   */\n      swap2\n      swap1\n      pop\n      jump\t// out\n        /* \"#utility.yul\":17843:18005   */\n    tag_262:\n        /* \"#utility.yul\":17983:17997   */\n      0x4e6f7420617070726f7665640000000000000000000000000000000000000000\n        /* \"#utility.yul\":17979:17980   */\n      0x00\n        /* \"#utility.yul\":17971:17977   */\n      dup3\n        /* \"#utility.yul\":17967:17981   */\n      add\n        /* \"#utility.yul\":17960:17998   */\n      mstore\n        /* \"#utility.yul\":17843:18005   */\n      pop\n      jump\t// out\n        /* \"#utility.yul\":18011:18377   */\n    tag_263:\n        /* \"#utility.yul\":18153:18156   */\n      0x00\n        /* \"#utility.yul\":18174:18241   */\n      tag_455\n        /* \"#utility.yul\":18238:18240   */\n      0x0c\n        /* \"#utility.yul\":18233:18236   */\n      dup4\n        /* \"#utility.yul\":18174:18241   */\n      tag_247\n      jump\t// in\n    tag_455:\n        /* \"#utility.yul\":18167:18241   */\n      swap2\n      pop\n        /* \"#utility.yul\":18250:18343   */\n      tag_456\n        /* \"#utility.yul\":18339:18342   */\n      dup3\n        /* \"#utility.yul\":18250:18343   */\n      tag_262\n      jump\t// in\n    tag_456:\n        /* \"#utility.yul\":18368:18370   */\n      0x20\n        /* \"#utility.yul\":18363:18366   */\n      dup3\n        /* \"#utility.yul\":18359:18371   */\n      add\n        /* \"#utility.yul\":18352:18371   */\n      swap1\n      pop\n        /* \"#utility.yul\":18011:18377   */\n      swap2\n      swap1\n      pop\n      jump\t// out\n        /* \"#utility.yul\":18383:18802   */\n    tag_133:\n        /* \"#utility.yul\":18549:18553   */\n      0x00\n        /* \"#utility.yul\":18587:18589   */\n      0x20\n        /* \"#utility.yul\":18576:18585   */\n      dup3\n        /* \"#utility.yul\":18572:18590   */\n      add\n        /* \"#utility.yul\":18564:18590   */\n      swap1\n      pop\n        /* \"#utility.yul\":18636:18645   */\n      dup2\n        /* \"#utility.yul\":18630:18634   */\n      dup2\n        /* \"#utility.yul\":18626:18646   */\n      sub\n        /* \"#utility.yul\":18622:18623   */\n      0x00\n        /* \"#utility.yul\":18611:18620   */\n      dup4\n        /* \"#utility.yul\":18607:18624   */\n      add\n        /* \"#utility.yul\":18600:18647   */\n      mstore\n        /* \"#utility.yul\":18664:18795   */\n      tag_458\n        /* \"#utility.yul\":18790:18794   */\n      dup2\n        /* \"#utility.yul\":18664:18795   */\n      tag_263\n      jump\t// in\n    tag_458:\n        /* \"#utility.yul\":18656:18795   */\n      swap1\n      pop\n        /* \"#utility.yul\":18383:18802   */\n      swap2\n      swap1\n      pop\n      jump\t// out\n        /* \"#utility.yul\":18808:19140   */\n    tag_137:\n        /* \"#utility.yul\":18929:18933   */\n      0x00\n        /* \"#utility.yul\":18967:18969   */\n      0x40\n        /* \"#utility.yul\":18956:18965   */\n      dup3\n        /* \"#utility.yul\":18952:18970   */\n      add\n        /* \"#utility.yul\":18944:18970   */\n      swap1\n      pop\n        /* \"#utility.yul\":18980:19051   */\n      tag_460\n        /* \"#utility.yul\":19048:19049   */\n      0x00\n        /* \"#utility.yul\":19037:19046   */\n      dup4\n        /* \"#utility.yul\":19033:19050   */\n      add\n        /* \"#utility.yul\":19024:19030   */\n      dup6\n        /* \"#utility.yul\":18980:19051   */\n      tag_222\n      jump\t// in\n    tag_460:\n        /* \"#utility.yul\":19061:19133   */\n      tag_461\n        /* \"#utility.yul\":19129:19131   */\n      0x20\n        /* \"#utility.yul\":19118:19127   */\n      dup4\n        /* \"#utility.yul\":19114:19132   */\n      add\n        /* \"#utility.yul\":19105:19111   */\n      dup5\n        /* \"#utility.yul\":19061:19133   */\n      tag_225\n      jump\t// in\n    tag_461:\n        /* \"#utility.yul\":18808:19140   */\n      swap4\n      swap3\n      pop\n      pop\n      pop\n      jump\t// out\n        /* \"#utility.yul\":19146:19304   */\n    tag_264:\n        /* \"#utility.yul\":19286:19296   */\n      0x546f6f206c6f6e67000000000000000000000000000000000000000000000000\n        /* \"#utility.yul\":19282:19283   */\n      0x00\n        /* \"#utility.yul\":19274:19280   */\n      dup3\n        /* \"#utility.yul\":19270:19284   */\n      add\n        /* \"#utility.yul\":19263:19297   */\n      mstore\n        /* \"#utility.yul\":19146:19304   */\n      pop\n      jump\t// out\n        /* \"#utility.yul\":19310:19675   */\n    tag_265:\n        /* \"#utility.yul\":19452:19455   */\n      0x00\n        /* \"#utility.yul\":19473:19539   */\n      tag_464\n        /* \"#utility.yul\":19537:19538   */\n      0x08\n        /* \"#utility.yul\":19532:19535   */\n      dup4\n        /* \"#utility.yul\":19473:19539   */\n      tag_247\n      jump\t// in\n    tag_464:\n        /* \"#utility.yul\":19466:19539   */\n      swap2\n      pop\n        /* \"#utility.yul\":19548:19641   */\n      tag_465\n        /* \"#utility.yul\":19637:19640   */\n      dup3\n        /* \"#utility.yul\":19548:19641   */\n      tag_264\n      jump\t// in\n    tag_465:\n        /* \"#utility.yul\":19666:19668   */\n      0x20\n        /* \"#utility.yul\":19661:19664   */\n      dup3\n        /* \"#utility.yul\":19657:19669   */\n      add\n        /* \"#utility.yul\":19650:19669   */\n      swap1\n      pop\n        /* \"#utility.yul\":19310:19675   */\n      swap2\n      swap1\n      pop\n      jump\t// out\n        /* \"#utility.yul\":19681:20100   */\n    tag_141:\n        /* \"#utility.yul\":19847:19851   */\n      0x00\n        /* \"#utility.yul\":19885:19887   */\n      0x20\n        /* \"#utility.yul\":19874:19883   */\n      dup3\n        /* \"#utility.yul\":19870:19888   */\n      add\n        /* \"#utility.yul\":19862:19888   */\n      swap1\n      pop\n        /* \"#utility.yul\":19934:19943   */\n      dup2\n        /* \"#utility.yul\":19928:19932   */\n      dup2\n        /* \"#utility.yul\":19924:19944   */\n      sub\n        /* \"#utility.yul\":19920:19921   */\n      0x00\n        /* \"#utility.yul\":19909:19918   */\n      dup4\n        /* \"#utility.yul\":19905:19922   */\n      add\n        /* \"#utility.yul\":19898:19945   */\n      mstore\n        /* \"#utility.yul\":19962:20093   */\n      tag_467\n        /* \"#utility.yul\":20088:20092   */\n      dup2\n        /* \"#utility.yul\":19962:20093   */\n      tag_265\n      jump\t// in\n    tag_467:\n        /* \"#utility.yul\":19954:20093   */\n      swap1\n      pop\n        /* \"#utility.yul\":19681:20100   */\n      swap2\n      swap1\n      pop\n      jump\t// out\n        /* \"#utility.yul\":20106:20266   */\n    tag_266:\n        /* \"#utility.yul\":20246:20258   */\n      0x4269642065786973747300000000000000000000000000000000000000000000\n        /* \"#utility.yul\":20242:20243   */\n      0x00\n        /* \"#utility.yul\":20234:20240   */\n      dup3\n        /* \"#utility.yul\":20230:20244   */\n      add\n        /* \"#utility.yul\":20223:20259   */\n      mstore\n        /* \"#utility.yul\":20106:20266   */\n      pop\n      jump\t// out\n        /* \"#utility.yul\":20272:20638   */\n    tag_267:\n        /* \"#utility.yul\":20414:20417   */\n      0x00\n        /* \"#utility.yul\":20435:20502   */\n      tag_470\n        /* \"#utility.yul\":20499:20501   */\n      0x0a\n        /* \"#utility.yul\":20494:20497   */\n      dup4\n        /* \"#utility.yul\":20435:20502   */\n      tag_247\n      jump\t// in\n    tag_470:\n        /* \"#utility.yul\":20428:20502   */\n      swap2\n      pop\n        /* \"#utility.yul\":20511:20604   */\n      tag_471\n        /* \"#utility.yul\":20600:20603   */\n      dup3\n        /* \"#utility.yul\":20511:20604   */\n      tag_266\n      jump\t// in\n    tag_471:\n        /* \"#utility.yul\":20629:20631   */\n      0x20\n        /* \"#utility.yul\":20624:20627   */\n      dup3\n        /* \"#utility.yul\":20620:20632   */\n      add\n        /* \"#utility.yul\":20613:20632   */\n      swap1\n      pop\n        /* \"#utility.yul\":20272:20638   */\n      swap2\n      swap1\n      pop\n      jump\t// out\n        /* \"#utility.yul\":20644:21063   */\n    tag_149:\n        /* \"#utility.yul\":20810:20814   */\n      0x00\n        /* \"#utility.yul\":20848:20850   */\n      0x20\n        /* \"#utility.yul\":20837:20846   */\n      dup3\n        /* \"#utility.yul\":20833:20851   */\n      add\n        /* \"#utility.yul\":20825:20851   */\n      swap1\n      pop\n        /* \"#utility.yul\":20897:20906   */\n      dup2\n        /* \"#utility.yul\":20891:20895   */\n      dup2\n        /* \"#utility.yul\":20887:20907   */\n      sub\n        /* \"#utility.yul\":20883:20884   */\n      0x00\n        /* \"#utility.yul\":20872:20881   */\n      dup4\n        /* \"#utility.yul\":20868:20885   */\n      add\n        /* \"#utility.yul\":20861:20908   */\n      mstore\n        /* \"#utility.yul\":20925:21056   */\n      tag_473\n        /* \"#utility.yul\":21051:21055   */\n      dup2\n        /* \"#utility.yul\":20925:21056   */\n      tag_267\n      jump\t// in\n    tag_473:\n        /* \"#utility.yul\":20917:21056   */\n      swap1\n      pop\n        /* \"#utility.yul\":20644:21063   */\n      swap2\n      swap1\n      pop\n      jump\t// out\n        /* \"#utility.yul\":21069:21234   */\n    tag_268:\n        /* \"#utility.yul\":21209:21226   */\n      0x5472616e73666572206661696c65640000000000000000000000000000000000\n        /* \"#utility.yul\":21205:21206   */\n      0x00\n        /* \"#utility.yul\":21197:21203   */\n      dup3\n        /* \"#utility.yul\":21193:21207   */\n      add\n        /* \"#utility.yul\":21186:21227   */\n      mstore\n        /* \"#utility.yul\":21069:21234   */\n      pop\n      jump\t// out\n        /* \"#utility.yul\":21240:21606   */\n    tag_269:\n        /* \"#utility.yul\":21382:21385   */\n      0x00\n        /* \"#utility.yul\":21403:21470   */\n      tag_476\n        /* \"#utility.yul\":21467:21469   */\n      0x0f\n        /* \"#utility.yul\":21462:21465   */\n      dup4\n        /* \"#utility.yul\":21403:21470   */\n      tag_247\n      jump\t// in\n    tag_476:\n        /* \"#utility.yul\":21396:21470   */\n      swap2\n      pop\n        /* \"#utility.yul\":21479:21572   */\n      tag_477\n        /* \"#utility.yul\":21568:21571   */\n      dup3\n        /* \"#utility.yul\":21479:21572   */\n      tag_268\n      jump\t// in\n    tag_477:\n        /* \"#utility.yul\":21597:21599   */\n      0x20\n        /* \"#utility.yul\":21592:21595   */\n      dup3\n        /* \"#utility.yul\":21588:21600   */\n      add\n        /* \"#utility.yul\":21581:21600   */\n      swap1\n      pop\n        /* \"#utility.yul\":21240:21606   */\n      swap2\n      swap1\n      pop\n      jump\t// out\n        /* \"#utility.yul\":21612:22031   */\n    tag_156:\n        /* \"#utility.yul\":21778:21782   */\n      0x00\n        /* \"#utility.yul\":21816:21818   */\n      0x20\n        /* \"#utility.yul\":21805:21814   */\n      dup3\n        /* \"#utility.yul\":21801:21819   */\n      add\n        /* \"#utility.yul\":21793:21819   */\n      swap1\n      pop\n        /* \"#utility.yul\":21865:21874   */\n      dup2\n        /* \"#utility.yul\":21859:21863   */\n      dup2\n        /* \"#utility.yul\":21855:21875   */\n      sub\n        /* \"#utility.yul\":21851:21852   */\n      0x00\n        /* \"#utility.yul\":21840:21849   */\n      dup4\n        /* \"#utility.yul\":21836:21853   */\n      add\n        /* \"#utility.yul\":21829:21876   */\n      mstore\n        /* \"#utility.yul\":21893:22024   */\n      tag_479\n        /* \"#utility.yul\":22019:22023   */\n      dup2\n        /* \"#utility.yul\":21893:22024   */\n      tag_269\n      jump\t// in\n    tag_479:\n        /* \"#utility.yul\":21885:22024   */\n      swap1\n      pop\n        /* \"#utility.yul\":21612:22031   */\n      swap2\n      swap1\n      pop\n      jump\t// out\n        /* \"#utility.yul\":22037:22217   */\n    tag_163:\n        /* \"#utility.yul\":22085:22162   */\n      0x4e487b7100000000000000000000000000000000000000000000000000000000\n        /* \"#utility.yul\":22082:22083   */\n      0x00\n        /* \"#utility.yul\":22075:22163   */\n      mstore\n        /* \"#utility.yul\":22182:22186   */\n      0x32\n        /* \"#utility.yul\":22179:22180   */\n      0x04\n        /* \"#utility.yul\":22172:22187   */\n      mstore\n        /* \"#utility.yul\":22206:22210   */\n      0x24\n        /* \"#utility.yul\":22203:22204   */\n      0x00\n        /* \"#utility.yul\":22196:22211   */\n      revert\n        /* \"#utility.yul\":22223:22555   */\n    tag_175:\n        /* \"#utility.yul\":22344:22348   */\n      0x00\n        /* \"#utility.yul\":22382:22384   */\n      0x40\n        /* \"#utility.yul\":22371:22380   */\n      dup3\n        /* \"#utility.yul\":22367:22385   */\n      add\n        /* \"#utility.yul\":22359:22385   */\n      swap1\n      pop\n        /* \"#utility.yul\":22395:22466   */\n      tag_482\n        /* \"#utility.yul\":22463:22464   */\n      0x00\n        /* \"#utility.yul\":22452:22461   */\n      dup4\n        /* \"#utility.yul\":22448:22465   */\n      add\n        /* \"#utility.yul\":22439:22445   */\n      dup6\n        /* \"#utility.yul\":22395:22466   */\n      tag_223\n      jump\t// in\n    tag_482:\n        /* \"#utility.yul\":22476:22548   */\n      tag_483\n        /* \"#utility.yul\":22544:22546   */\n      0x20\n        /* \"#utility.yul\":22533:22542   */\n      dup4\n        /* \"#utility.yul\":22529:22547   */\n      add\n        /* \"#utility.yul\":22520:22526   */\n      dup5\n        /* \"#utility.yul\":22476:22548   */\n      tag_222\n      jump\t// in\n    tag_483:\n        /* \"#utility.yul\":22223:22555   */\n      swap4\n      swap3\n      pop\n      pop\n      pop\n      jump\t// out\n        /* \"#utility.yul\":22561:22726   */\n    tag_270:\n        /* \"#utility.yul\":22701:22718   */\n      0x5061792073656c6c6572206661696c0000000000000000000000000000000000\n        /* \"#utility.yul\":22697:22698   */\n      0x00\n        /* \"#utility.yul\":22689:22695   */\n      dup3\n        /* \"#utility.yul\":22685:22699   */\n      add\n        /* \"#utility.yul\":22678:22719   */\n      mstore\n        /* \"#utility.yul\":22561:22726   */\n      pop\n      jump\t// out\n        /* \"#utility.yul\":22732:23098   */\n    tag_271:\n        /* \"#utility.yul\":22874:22877   */\n      0x00\n        /* \"#utility.yul\":22895:22962   */\n      tag_486\n        /* \"#utility.yul\":22959:22961   */\n      0x0f\n        /* \"#utility.yul\":22954:22957   */\n      dup4\n        /* \"#utility.yul\":22895:22962   */\n      tag_247\n      jump\t// in\n    tag_486:\n        /* \"#utility.yul\":22888:22962   */\n      swap2\n      pop\n        /* \"#utility.yul\":22971:23064   */\n      tag_487\n        /* \"#utility.yul\":23060:23063   */\n      dup3\n        /* \"#utility.yul\":22971:23064   */\n      tag_270\n      jump\t// in\n    tag_487:\n        /* \"#utility.yul\":23089:23091   */\n      0x20\n        /* \"#utility.yul\":23084:23087   */\n      dup3\n        /* \"#utility.yul\":23080:23092   */\n      add\n        /* \"#utility.yul\":23073:23092   */\n      swap1\n      pop\n        /* \"#utility.yul\":22732:23098   */\n      swap2\n      swap1\n      pop\n      jump\t// out\n        /* \"#utility.yul\":23104:23523   */\n    tag_181:\n        /* \"#utility.yul\":23270:23274   */\n      0x00\n        /* \"#utility.yul\":23308:23310   */\n      0x20\n        /* \"#utility.yul\":23297:23306   */\n      dup3\n        /* \"#utility.yul\":23293:23311   */\n      add\n        /* \"#utility.yul\":23285:23311   */\n      swap1\n      pop\n        /* \"#utility.yul\":23357:23366   */\n      dup2\n        /* \"#utility.yul\":23351:23355   */\n      dup2\n        /* \"#utility.yul\":23347:23367   */\n      sub\n        /* \"#utility.yul\":23343:23344   */\n      0x00\n        /* \"#utility.yul\":23332:23341   */\n      dup4\n        /* \"#utility.yul\":23328:23345   */\n      add\n        /* \"#utility.yul\":23321:23368   */\n      mstore\n        /* \"#utility.yul\":23385:23516   */\n      tag_489\n        /* \"#utility.yul\":23511:23515   */\n      dup2\n        /* \"#utility.yul\":23385:23516   */\n      tag_271\n      jump\t// in\n    tag_489:\n        /* \"#utility.yul\":23377:23516   */\n      swap1\n      pop\n        /* \"#utility.yul\":23104:23523   */\n      swap2\n      swap1\n      pop\n      jump\t// out\n        /* \"#utility.yul\":23529:23710   */\n    tag_272:\n        /* \"#utility.yul\":23669:23702   */\n      0x5265656e7472616e637947756172643a207265656e7472616e742063616c6c00\n        /* \"#utility.yul\":23665:23666   */\n      0x00\n        /* \"#utility.yul\":23657:23663   */\n      dup3\n        /* \"#utility.yul\":23653:23667   */\n      add\n        /* \"#utility.yul\":23646:23703   */\n      mstore\n        /* \"#utility.yul\":23529:23710   */\n      pop\n      jump\t// out\n        /* \"#utility.yul\":23716:24082   */\n    tag_273:\n        /* \"#utility.yul\":23858:23861   */\n      0x00\n        /* \"#utility.yul\":23879:23946   */\n      tag_492\n        /* \"#utility.yul\":23943:23945   */\n      0x1f\n        /* \"#utility.yul\":23938:23941   */\n      dup4\n        /* \"#utility.yul\":23879:23946   */\n      tag_247\n      jump\t// in\n    tag_492:\n        /* \"#utility.yul\":23872:23946   */\n      swap2\n      pop\n        /* \"#utility.yul\":23955:24048   */\n      tag_493\n        /* \"#utility.yul\":24044:24047   */\n      dup3\n        /* \"#utility.yul\":23955:24048   */\n      tag_272\n      jump\t// in\n    tag_493:\n        /* \"#utility.yul\":24073:24075   */\n      0x20\n        /* \"#utility.yul\":24068:24071   */\n      dup3\n        /* \"#utility.yul\":24064:24076   */\n      add\n        /* \"#utility.yul\":24057:24076   */\n      swap1\n      pop\n        /* \"#utility.yul\":23716:24082   */\n      swap2\n      swap1\n      pop\n      jump\t// out\n        /* \"#utility.yul\":24088:24507   */\n    tag_190:\n        /* \"#utility.yul\":24254:24258   */\n      0x00\n        /* \"#utility.yul\":24292:24294   */\n      0x20\n        /* \"#utility.yul\":24281:24290   */\n      dup3\n        /* \"#utility.yul\":24277:24295   */\n      add\n        /* \"#utility.yul\":24269:24295   */\n      swap1\n      pop\n        /* \"#utility.yul\":24341:24350   */\n      dup2\n        /* \"#utility.yul\":24335:24339   */\n      dup2\n        /* \"#utility.yul\":24331:24351   */\n      sub\n        /* \"#utility.yul\":24327:24328   */\n      0x00\n        /* \"#utility.yul\":24316:24325   */\n      dup4\n        /* \"#utility.yul\":24312:24329   */\n      add\n        /* \"#utility.yul\":24305:24352   */\n      mstore\n        /* \"#utility.yul\":24369:24500   */\n      tag_495\n        /* \"#utility.yul\":24495:24499   */\n      dup2\n        /* \"#utility.yul\":24369:24500   */\n      tag_273\n      jump\t// in\n    tag_495:\n        /* \"#utility.yul\":24361:24500   */\n      swap1\n      pop\n        /* \"#utility.yul\":24088:24507   */\n      swap2\n      swap1\n      pop\n      jump\t// out\n        /* \"#utility.yul\":24513:24693   */\n    tag_274:\n        /* \"#utility.yul\":24561:24638   */\n      0x4e487b7100000000000000000000000000000000000000000000000000000000\n        /* \"#utility.yul\":24558:24559   */\n      0x00\n        /* \"#utility.yul\":24551:24639   */\n      mstore\n        /* \"#utility.yul\":24658:24662   */\n      0x11\n        /* \"#utility.yul\":24655:24656   */\n      0x04\n        /* \"#utility.yul\":24648:24663   */\n      mstore\n        /* \"#utility.yul\":24682:24686   */\n      0x24\n        /* \"#utility.yul\":24679:24680   */\n      0x00\n        /* \"#utility.yul\":24672:24687   */\n      revert\n        /* \"#utility.yul\":24699:24893   */\n    tag_200:\n        /* \"#utility.yul\":24739:24743   */\n      0x00\n        /* \"#utility.yul\":24759:24779   */\n      tag_498\n        /* \"#utility.yul\":24777:24778   */\n      dup3\n        /* \"#utility.yul\":24759:24779   */\n      tag_219\n      jump\t// in\n    tag_498:\n        /* \"#utility.yul\":24754:24779   */\n      swap2\n      pop\n        /* \"#utility.yul\":24793:24813   */\n      tag_499\n        /* \"#utility.yul\":24811:24812   */\n      dup4\n        /* \"#utility.yul\":24793:24813   */\n      tag_219\n      jump\t// in\n    tag_499:\n        /* \"#utility.yul\":24788:24813   */\n      swap3\n      pop\n        /* \"#utility.yul\":24837:24838   */\n      dup3\n        /* \"#utility.yul\":24834:24835   */\n      dup3\n        /* \"#utility.yul\":24830:24839   */\n      sub\n        /* \"#utility.yul\":24822:24839   */\n      swap1\n      pop\n        /* \"#utility.yul\":24861:24862   */\n      dup2\n        /* \"#utility.yul\":24855:24859   */\n      dup2\n        /* \"#utility.yul\":24852:24863   */\n      gt\n        /* \"#utility.yul\":24849:24886   */\n      iszero\n      tag_500\n      jumpi\n        /* \"#utility.yul\":24866:24884   */\n      tag_501\n      tag_274\n      jump\t// in\n    tag_501:\n        /* \"#utility.yul\":24849:24886   */\n    tag_500:\n        /* \"#utility.yul\":24699:24893   */\n      swap3\n      swap2\n      pop\n      pop\n      jump\t// out\n        /* \"#utility.yul\":24899:25079   */\n    tag_209:\n        /* \"#utility.yul\":24947:25024   */\n      0x4e487b7100000000000000000000000000000000000000000000000000000000\n        /* \"#utility.yul\":24944:24945   */\n      0x00\n        /* \"#utility.yul\":24937:25025   */\n      mstore\n        /* \"#utility.yul\":25044:25048   */\n      0x31\n        /* \"#utility.yul\":25041:25042   */\n      0x04\n        /* \"#utility.yul\":25034:25049   */\n      mstore\n        /* \"#utility.yul\":25068:25072   */\n      0x24\n        /* \"#utility.yul\":25065:25066   */\n      0x00\n        /* \"#utility.yul\":25058:25073   */\n      revert\n\n    auxdata: 0xa26469706673582212205e2ee95a341b61d75c077bc9baee362ceaa89fbe285a9353da61098d072098ae64736f6c634300081a0033\n}\n",
				"bytecode": {
					"linkReferences": {},
					"object": "608060405234801561000f575f80fd5b5060405161258e38038061258e833981810160405281019061003191906100dc565b60015f819055508060015f6101000a81548173ffffffffffffffffffffffffffffffffffffffff021916908373ffffffffffffffffffffffffffffffffffffffff16021790555050610107565b5f80fd5b5f73ffffffffffffffffffffffffffffffffffffffff82169050919050565b5f6100ab82610082565b9050919050565b6100bb816100a1565b81146100c5575f80fd5b50565b5f815190506100d6816100b2565b92915050565b5f602082840312156100f1576100f061007e565b5b5f6100fe848285016100c8565b91505092915050565b61247a806101145f395ff3fe608060405234801561000f575f80fd5b50600436106100a6575f3560e01c8063b18e05501161006f578063b18e055014610176578063b2ddee06146101a7578063c42753f3146101c3578063cfb51928146101df578063db7d87561461020f578063f5c9ab241461023f576100a6565b806207df30146100aa578063102e391d146100dc5780633013ce291461010c57806388700d1c1461012a578063a82ba76f1461015a575b5f80fd5b6100c460048036038101906100bf9190611901565b61025b565b6040516100d393929190611975565b60405180910390f35b6100f660048036038101906100f191906119d4565b6102ab565b6040516101039190611a24565b60405180910390f35b6101146102e1565b6040516101219190611a98565b60405180910390f35b610144600480360381019061013f9190611901565b610306565b6040516101519190611b1e565b60405180910390f35b610174600480360381019061016f9190611901565b6103d5565b005b610190600480360381019061018b9190611b37565b61075c565b60405161019e929190611b62565b60405180910390f35b6101c160048036038101906101bc9190611901565b61079b565b005b6101dd60048036038101906101d89190611b89565b610a5f565b005b6101f960048036038101906101f49190611d29565b610f2f565b6040516102069190611d70565b60405180910390f35b61022960048036038101906102249190611d89565b610f81565b6040516102369190611dc7565b60405180910390f35b61025960048036038101906102549190611d89565b610fc9565b005b6002602052815f5260405f20602052805f5260405f205f9150915050805f015490806001015f9054906101000a900473ffffffffffffffffffffffffffffffffffffffff16908060020154905083565b6005602052825f5260405f20602052815f5260405f2081815481106102ce575f80fd5b905f5260205f20015f9250925050505481565b60015f9054906101000a900473ffffffffffffffffffffffffffffffffffffffff1681565b61030e61182c565b60025f8473ffffffffffffffffffffffffffffffffffffffff1673ffffffffffffffffffffffffffffffffffffffff1681526020019081526020015f205f8381526020019081526020015f206040518060600160405290815f8201548152602001600182015f9054906101000a900473ffffffffffffffffffffffffffffffffffffffff1673ffffffffffffffffffffffffffffffffffffffff1673ffffffffffffffffffffffffffffffffffffffff168152602001600282015481525050905092915050565b6103dd6116cf565b81815f60025f8473ffffffffffffffffffffffffffffffffffffffff1673ffffffffffffffffffffffffffffffffffffffff1681526020019081526020015f205f8381526020019081526020015f205f01541161046f576040517f08c379a000000000000000000000000000000000000000000000000000000000815260040161046690611e3a565b60405180910390fd5b5f60025f8673ffffffffffffffffffffffffffffffffffffffff1673ffffffffffffffffffffffffffffffffffffffff1681526020019081526020015f205f8581526020019081526020015f20905060015f9054906101000a900473ffffffffffffffffffffffffffffffffffffffff1673ffffffffffffffffffffffffffffffffffffffff166323b872dd33836001015f9054906101000a900473ffffffffffffffffffffffffffffffffffffffff16845f01546040518463ffffffff1660e01b815260040161054293929190611e58565b6020604051808303815f875af115801561055e573d5f803e3d5ffd5b505050506040513d601f19601f820116820180604052508101906105829190611ec2565b6105c1576040517f08c379a00000000000000000000000000000000000000000000000000000000081526004016105b890611f37565b60405180910390fd5b5f8160020154905060025f8773ffffffffffffffffffffffffffffffffffffffff1673ffffffffffffffffffffffffffffffffffffffff1681526020019081526020015f205f8681526020019081526020015f205f8082015f9055600182015f6101000a81549073ffffffffffffffffffffffffffffffffffffffff0219169055600282015f9055505061065681878761171c565b8573ffffffffffffffffffffffffffffffffffffffff166342842e0e836001015f9054906101000a900473ffffffffffffffffffffffffffffffffffffffff1633886040518463ffffffff1660e01b81526004016106b693929190611e58565b5f604051808303815f87803b1580156106cd575f80fd5b505af11580156106df573d5f803e3d5ffd5b505050503373ffffffffffffffffffffffffffffffffffffffff16858773ffffffffffffffffffffffffffffffffffffffff167f77c3ced349b08a2af4e9d443fb697437c3197b3095d43fcbdc2cdc97b1a60e0c855f01546040516107449190611a24565b60405180910390a450505050610758611823565b5050565b6003602052805f5260405f205f91509050805f015490806001015f9054906101000a900473ffffffffffffffffffffffffffffffffffffffff16905082565b8181335f8390508173ffffffffffffffffffffffffffffffffffffffff168173ffffffffffffffffffffffffffffffffffffffff16636352211e856040518263ffffffff1660e01b81526004016107f29190611a24565b602060405180830381865afa15801561080d573d5f803e3d5ffd5b505050506040513d601f19601f820116820180604052508101906108319190611f69565b73ffffffffffffffffffffffffffffffffffffffff1614610887576040517f08c379a000000000000000000000000000000000000000000000000000000000815260040161087e90611fde565b60405180910390fd5b85855f60025f8473ffffffffffffffffffffffffffffffffffffffff1673ffffffffffffffffffffffffffffffffffffffff1681526020019081526020015f205f8381526020019081526020015f205f015411610919576040517f08c379a000000000000000000000000000000000000000000000000000000000815260040161091090611e3a565b60405180910390fd5b5f60025f8a73ffffffffffffffffffffffffffffffffffffffff1673ffffffffffffffffffffffffffffffffffffffff1681526020019081526020015f205f8981526020019081526020015f2060020154905060025f8a73ffffffffffffffffffffffffffffffffffffffff1673ffffffffffffffffffffffffffffffffffffffff1681526020019081526020015f205f8981526020019081526020015f205f8082015f9055600182015f6101000a81549073ffffffffffffffffffffffffffffffffffffffff0219169055600282015f905550506109f9818a8a61171c565b3373ffffffffffffffffffffffffffffffffffffffff16888a73ffffffffffffffffffffffffffffffffffffffff167f83614a26fd4398c876bd6684c0d04cf2e84ee7e4bc24e8d8888ab0e724bac03260405160405180910390a4505050505050505050565b8383335f8390508173ffffffffffffffffffffffffffffffffffffffff168173ffffffffffffffffffffffffffffffffffffffff16636352211e856040518263ffffffff1660e01b8152600401610ab69190611a24565b602060405180830381865afa158015610ad1573d5f803e3d5ffd5b505050506040513d601f19601f82011682018060405250810190610af59190611f69565b73ffffffffffffffffffffffffffffffffffffffff1614610b4b576040517f08c379a0000000000000000000000000000000000000000000000000000000008152600401610b4290611fde565b60405180910390fd5b87875f60025f8473ffffffffffffffffffffffffffffffffffffffff1673ffffffffffffffffffffffffffffffffffffffff1681526020019081526020015f205f8381526020019081526020015f205f015414610bdd576040517f08c379a0000000000000000000000000000000000000000000000000000000008152600401610bd490612046565b60405180910390fd5b5f8811610c1f576040517f08c379a0000000000000000000000000000000000000000000000000000000008152600401610c16906120ae565b60405180910390fd5b3073ffffffffffffffffffffffffffffffffffffffff168a73ffffffffffffffffffffffffffffffffffffffff1663081812fc8b6040518263ffffffff1660e01b8152600401610c6f9190611a24565b602060405180830381865afa158015610c8a573d5f803e3d5ffd5b505050506040513d601f19601f82011682018060405250810190610cae9190611f69565b73ffffffffffffffffffffffffffffffffffffffff1614610d04576040517f08c379a0000000000000000000000000000000000000000000000000000000008152600401610cfb90612116565b60405180910390fd5b60405180606001604052808981526020013373ffffffffffffffffffffffffffffffffffffffff1681526020018881525060025f8c73ffffffffffffffffffffffffffffffffffffffff1673ffffffffffffffffffffffffffffffffffffffff1681526020019081526020015f205f8b81526020019081526020015f205f820151815f01556020820151816001015f6101000a81548173ffffffffffffffffffffffffffffffffffffffff021916908373ffffffffffffffffffffffffffffffffffffffff1602179055506040820151816002015590505060055f8881526020019081526020015f205f8b73ffffffffffffffffffffffffffffffffffffffff1673ffffffffffffffffffffffffffffffffffffffff1681526020019081526020015f2089908060018154018082558091505060019003905f5260205f20015f909190919091505560045f8881526020019081526020015f208a908060018154018082558091505060019003905f5260205f20015f9091909190916101000a81548173ffffffffffffffffffffffffffffffffffffffff021916908373ffffffffffffffffffffffffffffffffffffffff1602179055503373ffffffffffffffffffffffffffffffffffffffff16898b73ffffffffffffffffffffffffffffffffffffffff167f1417b2eba804ddaa10ed9c3fc1581b7141dd70dbe8bf5e41c36d73c1625f07118b8b604051610f1b929190612134565b60405180910390a450505050505050505050565b5f602082511115610f75576040517f08c379a0000000000000000000000000000000000000000000000000000000008152600401610f6c906121a5565b60405180910390fd5b60208201519050919050565b6004602052815f5260405f208181548110610f9a575f80fd5b905f5260205f20015f915091509054906101000a900473ffffffffffffffffffffffffffffffffffffffff1681565b5f811161100b576040517f08c379a0000000000000000000000000000000000000000000000000000000008152600401611002906120ae565b60405180910390fd5b5f73ffffffffffffffffffffffffffffffffffffffff1660035f8481526020019081526020015f206001015f9054906101000a900473ffffffffffffffffffffffffffffffffffffffff1673ffffffffffffffffffffffffffffffffffffffff16146110ac576040517f08c379a00000000000000000000000000000000000000000000000000000000081526004016110a39061220d565b60405180910390fd5b60015f9054906101000a900473ffffffffffffffffffffffffffffffffffffffff1673ffffffffffffffffffffffffffffffffffffffff166323b872dd3330846040518463ffffffff1660e01b815260040161110a93929190611e58565b6020604051808303815f875af1158015611126573d5f803e3d5ffd5b505050506040513d601f19601f8201168201806040525081019061114a9190611ec2565b611189576040517f08c379a000000000000000000000000000000000000000000000000000000000815260040161118090612275565b60405180910390fd5b60405180604001604052808281526020013373ffffffffffffffffffffffffffffffffffffffff1681525060035f8481526020019081526020015f205f820151815f01556020820151816001015f6101000a81548173ffffffffffffffffffffffffffffffffffffffff021916908373ffffffffffffffffffffffffffffffffffffffff1602179055509050503373ffffffffffffffffffffffffffffffffffffffff16827f52ae0f50cac87b9ab2c56dfe791e7cede837c3f194b7d309cda50d1f60b643d38360405161125d9190611a24565b60405180910390a35f60045f8481526020019081526020015f2090505f5b81805490508110156116c8575f82828154811061129b5761129a612293565b5b905f5260205f20015f9054906101000a900473ffffffffffffffffffffffffffffffffffffffff1690505f60055f8781526020019081526020015f205f8373ffffffffffffffffffffffffffffffffffffffff1673ffffffffffffffffffffffffffffffffffffffff1681526020019081526020015f2090505f5b81805490508110156116b8575f82828154811061133657611335612293565b5b905f5260205f20015490505f60025f8673ffffffffffffffffffffffffffffffffffffffff1673ffffffffffffffffffffffffffffffffffffffff1681526020019081526020015f205f8381526020019081526020015f20905087815f0154111580156113f257505f73ffffffffffffffffffffffffffffffffffffffff16816001015f9054906101000a900473ffffffffffffffffffffffffffffffffffffffff1673ffffffffffffffffffffffffffffffffffffffff1614155b156116a9575f816001015f9054906101000a900473ffffffffffffffffffffffffffffffffffffffff16905060025f8773ffffffffffffffffffffffffffffffffffffffff1673ffffffffffffffffffffffffffffffffffffffff1681526020019081526020015f205f8481526020019081526020015f205f8082015f9055600182015f6101000a81549073ffffffffffffffffffffffffffffffffffffffff0219169055600282015f9055505060035f8b81526020019081526020015f205f8082015f9055600182015f6101000a81549073ffffffffffffffffffffffffffffffffffffffff021916905550506114eb8a878561171c565b60015f9054906101000a900473ffffffffffffffffffffffffffffffffffffffff1673ffffffffffffffffffffffffffffffffffffffff1663a9059cbb82845f01546040518363ffffffff1660e01b815260040161154a9291906122c0565b6020604051808303815f875af1158015611566573d5f803e3d5ffd5b505050506040513d601f19601f8201168201806040525081019061158a9190611ec2565b6115c9576040517f08c379a00000000000000000000000000000000000000000000000000000000081526004016115c090612331565b60405180910390fd5b8573ffffffffffffffffffffffffffffffffffffffff166342842e0e8233866040518463ffffffff1660e01b815260040161160693929190611e58565b5f604051808303815f87803b15801561161d575f80fd5b505af115801561162f573d5f803e3d5ffd5b505050503373ffffffffffffffffffffffffffffffffffffffff16838773ffffffffffffffffffffffffffffffffffffffff167f1658be8dbd90f08a0f1b9367eaf7d55760d7addbb8dfe73c43524c77e6febebc855f01546040516116949190611a24565b60405180910390a450505050505050506116cb565b50508080600101915050611316565b505050808060010191505061127b565b50505b5050565b60025f5403611713576040517f08c379a000000000000000000000000000000000000000000000000000000000815260040161170a90612399565b60405180910390fd5b60025f81905550565b5f60055f8581526020019081526020015f205f8473ffffffffffffffffffffffffffffffffffffffff1673ffffffffffffffffffffffffffffffffffffffff1681526020019081526020015f2090505f5b818054905081101561181c578282828154811061178d5761178c612293565b5b905f5260205f2001540361180f5781600183805490506117ad91906123e4565b815481106117be576117bd612293565b5b905f5260205f2001548282815481106117da576117d9612293565b5b905f5260205f200181905550818054806117f7576117f6612417565b5b600190038181905f5260205f20015f9055905561181c565b808060010191505061176d565b5050505050565b60015f81905550565b60405180606001604052805f81526020015f73ffffffffffffffffffffffffffffffffffffffff1681526020015f80191681525090565b5f604051905090565b5f80fd5b5f80fd5b5f73ffffffffffffffffffffffffffffffffffffffff82169050919050565b5f61189d82611874565b9050919050565b6118ad81611893565b81146118b7575f80fd5b50565b5f813590506118c8816118a4565b92915050565b5f819050919050565b6118e0816118ce565b81146118ea575f80fd5b50565b5f813590506118fb816118d7565b92915050565b5f80604083850312156119175761191661186c565b5b5f611924858286016118ba565b9250506020611935858286016118ed565b9150509250929050565b611948816118ce565b82525050565b61195781611893565b82525050565b5f819050919050565b61196f8161195d565b82525050565b5f6060820190506119885f83018661193f565b611995602083018561194e565b6119a26040830184611966565b949350505050565b6119b38161195d565b81146119bd575f80fd5b50565b5f813590506119ce816119aa565b92915050565b5f805f606084860312156119eb576119ea61186c565b5b5f6119f8868287016119c0565b9350506020611a09868287016118ba565b9250506040611a1a868287016118ed565b9150509250925092565b5f602082019050611a375f83018461193f565b92915050565b5f819050919050565b5f611a60611a5b611a5684611874565b611a3d565b611874565b9050919050565b5f611a7182611a46565b9050919050565b5f611a8282611a67565b9050919050565b611a9281611a78565b82525050565b5f602082019050611aab5f830184611a89565b92915050565b611aba816118ce565b82525050565b611ac981611893565b82525050565b611ad88161195d565b82525050565b606082015f820151611af25f850182611ab1565b506020820151611b056020850182611ac0565b506040820151611b186040850182611acf565b50505050565b5f606082019050611b315f830184611ade565b92915050565b5f60208284031215611b4c57611b4b61186c565b5b5f611b59848285016119c0565b91505092915050565b5f604082019050611b755f83018561193f565b611b82602083018461194e565b9392505050565b5f805f8060808587031215611ba157611ba061186c565b5b5f611bae878288016118ba565b9450506020611bbf878288016118ed565b9350506040611bd0878288016118ed565b9250506060611be1878288016119c0565b91505092959194509250565b5f80fd5b5f80fd5b5f601f19601f8301169050919050565b7f4e487b71000000000000000000000000000000000000000000000000000000005f52604160045260245ffd5b611c3b82611bf5565b810181811067ffffffffffffffff82111715611c5a57611c59611c05565b5b80604052505050565b5f611c6c611863565b9050611c788282611c32565b919050565b5f67ffffffffffffffff821115611c9757611c96611c05565b5b611ca082611bf5565b9050602081019050919050565b828183375f83830152505050565b5f611ccd611cc884611c7d565b611c63565b905082815260208101848484011115611ce957611ce8611bf1565b5b611cf4848285611cad565b509392505050565b5f82601f830112611d1057611d0f611bed565b5b8135611d20848260208601611cbb565b91505092915050565b5f60208284031215611d3e57611d3d61186c565b5b5f82013567ffffffffffffffff811115611d5b57611d5a611870565b5b611d6784828501611cfc565b91505092915050565b5f602082019050611d835f830184611966565b92915050565b5f8060408385031215611d9f57611d9e61186c565b5b5f611dac858286016119c0565b9250506020611dbd858286016118ed565b9150509250929050565b5f602082019050611dda5f83018461194e565b92915050565b5f82825260208201905092915050565b7f4e6f74206c6973746564000000000000000000000000000000000000000000005f82015250565b5f611e24600a83611de0565b9150611e2f82611df0565b602082019050919050565b5f6020820190508181035f830152611e5181611e18565b9050919050565b5f606082019050611e6b5f83018661194e565b611e78602083018561194e565b611e85604083018461193f565b949350505050565b5f8115159050919050565b611ea181611e8d565b8114611eab575f80fd5b50565b5f81519050611ebc81611e98565b92915050565b5f60208284031215611ed757611ed661186c565b5b5f611ee484828501611eae565b91505092915050565b7f5061796d656e74206661696c65640000000000000000000000000000000000005f82015250565b5f611f21600e83611de0565b9150611f2c82611eed565b602082019050919050565b5f6020820190508181035f830152611f4e81611f15565b9050919050565b5f81519050611f63816118a4565b92915050565b5f60208284031215611f7e57611f7d61186c565b5b5f611f8b84828501611f55565b91505092915050565b7f4e6f7420746865206f776e6572000000000000000000000000000000000000005f82015250565b5f611fc8600d83611de0565b9150611fd382611f94565b602082019050919050565b5f6020820190508181035f830152611ff581611fbc565b9050919050565b7f416c7265616479206c69737465640000000000000000000000000000000000005f82015250565b5f612030600e83611de0565b915061203b82611ffc565b602082019050919050565b5f6020820190508181035f83015261205d81612024565b9050919050565b7f5072696365203e203000000000000000000000000000000000000000000000005f82015250565b5f612098600983611de0565b91506120a382612064565b602082019050919050565b5f6020820190508181035f8301526120c58161208c565b9050919050565b7f4e6f7420617070726f76656400000000000000000000000000000000000000005f82015250565b5f612100600c83611de0565b915061210b826120cc565b602082019050919050565b5f6020820190508181035f83015261212d816120f4565b9050919050565b5f6040820190506121475f83018561193f565b6121546020830184611966565b9392505050565b7f546f6f206c6f6e670000000000000000000000000000000000000000000000005f82015250565b5f61218f600883611de0565b915061219a8261215b565b602082019050919050565b5f6020820190508181035f8301526121bc81612183565b9050919050565b7f42696420657869737473000000000000000000000000000000000000000000005f82015250565b5f6121f7600a83611de0565b9150612202826121c3565b602082019050919050565b5f6020820190508181035f830152612224816121eb565b9050919050565b7f5472616e73666572206661696c656400000000000000000000000000000000005f82015250565b5f61225f600f83611de0565b915061226a8261222b565b602082019050919050565b5f6020820190508181035f83015261228c81612253565b9050919050565b7f4e487b71000000000000000000000000000000000000000000000000000000005f52603260045260245ffd5b5f6040820190506122d35f83018561194e565b6122e0602083018461193f565b9392505050565b7f5061792073656c6c6572206661696c00000000000000000000000000000000005f82015250565b5f61231b600f83611de0565b9150612326826122e7565b602082019050919050565b5f6020820190508181035f8301526123488161230f565b9050919050565b7f5265656e7472616e637947756172643a207265656e7472616e742063616c6c005f82015250565b5f612383601f83611de0565b915061238e8261234f565b602082019050919050565b5f6020820190508181035f8301526123b081612377565b9050919050565b7f4e487b71000000000000000000000000000000000000000000000000000000005f52601160045260245ffd5b5f6123ee826118ce565b91506123f9836118ce565b9250828203905081811115612411576124106123b7565b5b92915050565b7f4e487b71000000000000000000000000000000000000000000000000000000005f52603160045260245ffdfea26469706673582212205e2ee95a341b61d75c077bc9baee362ceaa89fbe285a9353da61098d072098ae64736f6c634300081a0033",
					"opcodes": "PUSH1 0x80 PUSH1 0x40 MSTORE CALLVALUE DUP1 ISZERO PUSH2 0xF JUMPI PUSH0 DUP1 REVERT JUMPDEST POP PUSH1 0x40 MLOAD PUSH2 0x258E CODESIZE SUB DUP1 PUSH2 0x258E DUP4 CODECOPY DUP2 DUP2 ADD PUSH1 0x40 MSTORE DUP2 ADD SWAP1 PUSH2 0x31 SWAP2 SWAP1 PUSH2 0xDC JUMP JUMPDEST PUSH1 0x1 PUSH0 DUP2 SWAP1 SSTORE POP DUP1 PUSH1 0x1 PUSH0 PUSH2 0x100 EXP DUP2 SLOAD DUP2 PUSH20 0xFFFFFFFFFFFFFFFFFFFFFFFFFFFFFFFFFFFFFFFF MUL NOT AND SWAP1 DUP4 PUSH20 0xFFFFFFFFFFFFFFFFFFFFFFFFFFFFFFFFFFFFFFFF AND MUL OR SWAP1 SSTORE POP POP PUSH2 0x107 JUMP JUMPDEST PUSH0 DUP1 REVERT JUMPDEST PUSH0 PUSH20 0xFFFFFFFFFFFFFFFFFFFFFFFFFFFFFFFFFFFFFFFF DUP3 AND SWAP1 POP SWAP2 SWAP1 POP JUMP JUMPDEST PUSH0 PUSH2 0xAB DUP3 PUSH2 0x82 JUMP JUMPDEST SWAP1 POP SWAP2 SWAP1 POP JUMP JUMPDEST PUSH2 0xBB DUP2 PUSH2 0xA1 JUMP JUMPDEST DUP2 EQ PUSH2 0xC5 JUMPI PUSH0 DUP1 REVERT JUMPDEST POP JUMP JUMPDEST PUSH0 DUP2 MLOAD SWAP1 POP PUSH2 0xD6 DUP2 PUSH2 0xB2 JUMP JUMPDEST SWAP3 SWAP2 POP POP JUMP JUMPDEST PUSH0 PUSH1 0x20 DUP3 DUP5 SUB SLT ISZERO PUSH2 0xF1 JUMPI PUSH2 0xF0 PUSH2 0x7E JUMP JUMPDEST JUMPDEST PUSH0 PUSH2 0xFE DUP5 DUP3 DUP6 ADD PUSH2 0xC8 JUMP JUMPDEST SWAP2 POP POP SWAP3 SWAP2 POP POP JUMP JUMPDEST PUSH2 0x247A DUP1 PUSH2 0x114 PUSH0 CODECOPY PUSH0 RETURN INVALID PUSH1 0x80 PUSH1 0x40 MSTORE CALLVALUE DUP1 ISZERO PUSH2 0xF JUMPI PUSH0 DUP1 REVERT JUMPDEST POP PUSH1 0x4 CALLDATASIZE LT PUSH2 0xA6 JUMPI PUSH0 CALLDATALOAD PUSH1 0xE0 SHR DUP1 PUSH4 0xB18E0550 GT PUSH2 0x6F JUMPI DUP1 PUSH4 0xB18E0550 EQ PUSH2 0x176 JUMPI DUP1 PUSH4 0xB2DDEE06 EQ PUSH2 0x1A7 JUMPI DUP1 PUSH4 0xC42753F3 EQ PUSH2 0x1C3 JUMPI DUP1 PUSH4 0xCFB51928 EQ PUSH2 0x1DF JUMPI DUP1 PUSH4 0xDB7D8756 EQ PUSH2 0x20F JUMPI DUP1 PUSH4 0xF5C9AB24 EQ PUSH2 0x23F JUMPI PUSH2 0xA6 JUMP JUMPDEST DUP1 PUSH3 0x7DF30 EQ PUSH2 0xAA JUMPI DUP1 PUSH4 0x102E391D EQ PUSH2 0xDC JUMPI DUP1 PUSH4 0x3013CE29 EQ PUSH2 0x10C JUMPI DUP1 PUSH4 0x88700D1C EQ PUSH2 0x12A JUMPI DUP1 PUSH4 0xA82BA76F EQ PUSH2 0x15A JUMPI JUMPDEST PUSH0 DUP1 REVERT JUMPDEST PUSH2 0xC4 PUSH1 0x4 DUP1 CALLDATASIZE SUB DUP2 ADD SWAP1 PUSH2 0xBF SWAP2 SWAP1 PUSH2 0x1901 JUMP JUMPDEST PUSH2 0x25B JUMP JUMPDEST PUSH1 0x40 MLOAD PUSH2 0xD3 SWAP4 SWAP3 SWAP2 SWAP1 PUSH2 0x1975 JUMP JUMPDEST PUSH1 0x40 MLOAD DUP1 SWAP2 SUB SWAP1 RETURN JUMPDEST PUSH2 0xF6 PUSH1 0x4 DUP1 CALLDATASIZE SUB DUP2 ADD SWAP1 PUSH2 0xF1 SWAP2 SWAP1 PUSH2 0x19D4 JUMP JUMPDEST PUSH2 0x2AB JUMP JUMPDEST PUSH1 0x40 MLOAD PUSH2 0x103 SWAP2 SWAP1 PUSH2 0x1A24 JUMP JUMPDEST PUSH1 0x40 MLOAD DUP1 SWAP2 SUB SWAP1 RETURN JUMPDEST PUSH2 0x114 PUSH2 0x2E1 JUMP JUMPDEST PUSH1 0x40 MLOAD PUSH2 0x121 SWAP2 SWAP1 PUSH2 0x1A98 JUMP JUMPDEST PUSH1 0x40 MLOAD DUP1 SWAP2 SUB SWAP1 RETURN JUMPDEST PUSH2 0x144 PUSH1 0x4 DUP1 CALLDATASIZE SUB DUP2 ADD SWAP1 PUSH2 0x13F SWAP2 SWAP1 PUSH2 0x1901 JUMP JUMPDEST PUSH2 0x306 JUMP JUMPDEST PUSH1 0x40 MLOAD PUSH2 0x151 SWAP2 SWAP1 PUSH2 0x1B1E JUMP JUMPDEST PUSH1 0x40 MLOAD DUP1 SWAP2 SUB SWAP1 RETURN JUMPDEST PUSH2 0x174 PUSH1 0x4 DUP1 CALLDATASIZE SUB DUP2 ADD SWAP1 PUSH2 0x16F SWAP2 SWAP1 PUSH2 0x1901 JUMP JUMPDEST PUSH2 0x3D5 JUMP JUMPDEST STOP JUMPDEST PUSH2 0x190 PUSH1 0x4 DUP1 CALLDATASIZE SUB DUP2 ADD SWAP1 PUSH2 0x18B SWAP2 SWAP1 PUSH2 0x1B37 JUMP JUMPDEST PUSH2 0x75C JUMP JUMPDEST PUSH1 0x40 MLOAD PUSH2 0x19E SWAP3 SWAP2 SWAP1 PUSH2 0x1B62 JUMP JUMPDEST PUSH1 0x40 MLOAD DUP1 SWAP2 SUB SWAP1 RETURN JUMPDEST PUSH2 0x1C1 PUSH1 0x4 DUP1 CALLDATASIZE SUB DUP2 ADD SWAP1 PUSH2 0x1BC SWAP2 SWAP1 PUSH2 0x1901 JUMP JUMPDEST PUSH2 0x79B JUMP JUMPDEST STOP JUMPDEST PUSH2 0x1DD PUSH1 0x4 DUP1 CALLDATASIZE SUB DUP2 ADD SWAP1 PUSH2 0x1D8 SWAP2 SWAP1 PUSH2 0x1B89 JUMP JUMPDEST PUSH2 0xA5F JUMP JUMPDEST STOP JUMPDEST PUSH2 0x1F9 PUSH1 0x4 DUP1 CALLDATASIZE SUB DUP2 ADD SWAP1 PUSH2 0x1F4 SWAP2 SWAP1 PUSH2 0x1D29 JUMP JUMPDEST PUSH2 0xF2F JUMP JUMPDEST PUSH1 0x40 MLOAD PUSH2 0x206 SWAP2 SWAP1 PUSH2 0x1D70 JUMP JUMPDEST PUSH1 0x40 MLOAD DUP1 SWAP2 SUB SWAP1 RETURN JUMPDEST PUSH2 0x229 PUSH1 0x4 DUP1 CALLDATASIZE SUB DUP2 ADD SWAP1 PUSH2 0x224 SWAP2 SWAP1 PUSH2 0x1D89 JUMP JUMPDEST PUSH2 0xF81 JUMP JUMPDEST PUSH1 0x40 MLOAD PUSH2 0x236 SWAP2 SWAP1 PUSH2 0x1DC7 JUMP JUMPDEST PUSH1 0x40 MLOAD DUP1 SWAP2 SUB SWAP1 RETURN JUMPDEST PUSH2 0x259 PUSH1 0x4 DUP1 CALLDATASIZE SUB DUP2 ADD SWAP1 PUSH2 0x254 SWAP2 SWAP1 PUSH2 0x1D89 JUMP JUMPDEST PUSH2 0xFC9 JUMP JUMPDEST STOP JUMPDEST PUSH1 0x2 PUSH1 0x20 MSTORE DUP2 PUSH0 MSTORE PUSH1 0x40 PUSH0 KECCAK256 PUSH1 0x20 MSTORE DUP1 PUSH0 MSTORE PUSH1 0x40 PUSH0 KECCAK256 PUSH0 SWAP2 POP SWAP2 POP POP DUP1 PUSH0 ADD SLOAD SWAP1 DUP1 PUSH1 0x1 ADD PUSH0 SWAP1 SLOAD SWAP1 PUSH2 0x100 EXP SWAP1 DIV PUSH20 0xFFFFFFFFFFFFFFFFFFFFFFFFFFFFFFFFFFFFFFFF AND SWAP1 DUP1 PUSH1 0x2 ADD SLOAD SWAP1 POP DUP4 JUMP JUMPDEST PUSH1 0x5 PUSH1 0x20 MSTORE DUP3 PUSH0 MSTORE PUSH1 0x40 PUSH0 KECCAK256 PUSH1 0x20 MSTORE DUP2 PUSH0 MSTORE PUSH1 0x40 PUSH0 KECCAK256 DUP2 DUP2 SLOAD DUP2 LT PUSH2 0x2CE JUMPI PUSH0 DUP1 REVERT JUMPDEST SWAP1 PUSH0 MSTORE PUSH1 0x20 PUSH0 KECCAK256 ADD PUSH0 SWAP3 POP SWAP3 POP POP POP SLOAD DUP2 JUMP JUMPDEST PUSH1 0x1 PUSH0 SWAP1 SLOAD SWAP1 PUSH2 0x100 EXP SWAP1 DIV PUSH20 0xFFFFFFFFFFFFFFFFFFFFFFFFFFFFFFFFFFFFFFFF AND DUP2 JUMP JUMPDEST PUSH2 0x30E PUSH2 0x182C JUMP JUMPDEST PUSH1 0x2 PUSH0 DUP5 PUSH20 0xFFFFFFFFFFFFFFFFFFFFFFFFFFFFFFFFFFFFFFFF AND PUSH20 0xFFFFFFFFFFFFFFFFFFFFFFFFFFFFFFFFFFFFFFFF AND DUP2 MSTORE PUSH1 0x20 ADD SWAP1 DUP2 MSTORE PUSH1 0x20 ADD PUSH0 KECCAK256 PUSH0 DUP4 DUP2 MSTORE PUSH1 0x20 ADD SWAP1 DUP2 MSTORE PUSH1 0x20 ADD PUSH0 KECCAK256 PUSH1 0x40 MLOAD DUP1 PUSH1 0x60 ADD PUSH1 0x40 MSTORE SWAP1 DUP2 PUSH0 DUP3 ADD SLOAD DUP2 MSTORE PUSH1 0x20 ADD PUSH1 0x1 DUP3 ADD PUSH0 SWAP1 SLOAD SWAP1 PUSH2 0x100 EXP SWAP1 DIV PUSH20 0xFFFFFFFFFFFFFFFFFFFFFFFFFFFFFFFFFFFFFFFF AND PUSH20 0xFFFFFFFFFFFFFFFFFFFFFFFFFFFFFFFFFFFFFFFF AND PUSH20 0xFFFFFFFFFFFFFFFFFFFFFFFFFFFFFFFFFFFFFFFF AND DUP2 MSTORE PUSH1 0x20 ADD PUSH1 0x2 DUP3 ADD SLOAD DUP2 MSTORE POP POP SWAP1 POP SWAP3 SWAP2 POP POP JUMP JUMPDEST PUSH2 0x3DD PUSH2 0x16CF JUMP JUMPDEST DUP2 DUP2 PUSH0 PUSH1 0x2 PUSH0 DUP5 PUSH20 0xFFFFFFFFFFFFFFFFFFFFFFFFFFFFFFFFFFFFFFFF AND PUSH20 0xFFFFFFFFFFFFFFFFFFFFFFFFFFFFFFFFFFFFFFFF AND DUP2 MSTORE PUSH1 0x20 ADD SWAP1 DUP2 MSTORE PUSH1 0x20 ADD PUSH0 KECCAK256 PUSH0 DUP4 DUP2 MSTORE PUSH1 0x20 ADD SWAP1 DUP2 MSTORE PUSH1 0x20 ADD PUSH0 KECCAK256 PUSH0 ADD SLOAD GT PUSH2 0x46F JUMPI PUSH1 0x40 MLOAD PUSH32 0x8C379A000000000000000000000000000000000000000000000000000000000 DUP2 MSTORE PUSH1 0x4 ADD PUSH2 0x466 SWAP1 PUSH2 0x1E3A JUMP JUMPDEST PUSH1 0x40 MLOAD DUP1 SWAP2 SUB SWAP1 REVERT JUMPDEST PUSH0 PUSH1 0x2 PUSH0 DUP7 PUSH20 0xFFFFFFFFFFFFFFFFFFFFFFFFFFFFFFFFFFFFFFFF AND PUSH20 0xFFFFFFFFFFFFFFFFFFFFFFFFFFFFFFFFFFFFFFFF AND DUP2 MSTORE PUSH1 0x20 ADD SWAP1 DUP2 MSTORE PUSH1 0x20 ADD PUSH0 KECCAK256 PUSH0 DUP6 DUP2 MSTORE PUSH1 0x20 ADD SWAP1 DUP2 MSTORE PUSH1 0x20 ADD PUSH0 KECCAK256 SWAP1 POP PUSH1 0x1 PUSH0 SWAP1 SLOAD SWAP1 PUSH2 0x100 EXP SWAP1 DIV PUSH20 0xFFFFFFFFFFFFFFFFFFFFFFFFFFFFFFFFFFFFFFFF AND PUSH20 0xFFFFFFFFFFFFFFFFFFFFFFFFFFFFFFFFFFFFFFFF AND PUSH4 0x23B872DD CALLER DUP4 PUSH1 0x1 ADD PUSH0 SWAP1 SLOAD SWAP1 PUSH2 0x100 EXP SWAP1 DIV PUSH20 0xFFFFFFFFFFFFFFFFFFFFFFFFFFFFFFFFFFFFFFFF AND DUP5 PUSH0 ADD SLOAD PUSH1 0x40 MLOAD DUP5 PUSH4 0xFFFFFFFF AND PUSH1 0xE0 SHL DUP2 MSTORE PUSH1 0x4 ADD PUSH2 0x542 SWAP4 SWAP3 SWAP2 SWAP1 PUSH2 0x1E58 JUMP JUMPDEST PUSH1 0x20 PUSH1 0x40 MLOAD DUP1 DUP4 SUB DUP2 PUSH0 DUP8 GAS CALL ISZERO DUP1 ISZERO PUSH2 0x55E JUMPI RETURNDATASIZE PUSH0 DUP1 RETURNDATACOPY RETURNDATASIZE PUSH0 REVERT JUMPDEST POP POP POP POP PUSH1 0x40 MLOAD RETURNDATASIZE PUSH1 0x1F NOT PUSH1 0x1F DUP3 ADD AND DUP3 ADD DUP1 PUSH1 0x40 MSTORE POP DUP2 ADD SWAP1 PUSH2 0x582 SWAP2 SWAP1 PUSH2 0x1EC2 JUMP JUMPDEST PUSH2 0x5C1 JUMPI PUSH1 0x40 MLOAD PUSH32 0x8C379A000000000000000000000000000000000000000000000000000000000 DUP2 MSTORE PUSH1 0x4 ADD PUSH2 0x5B8 SWAP1 PUSH2 0x1F37 JUMP JUMPDEST PUSH1 0x40 MLOAD DUP1 SWAP2 SUB SWAP1 REVERT JUMPDEST PUSH0 DUP2 PUSH1 0x2 ADD SLOAD SWAP1 POP PUSH1 0x2 PUSH0 DUP8 PUSH20 0xFFFFFFFFFFFFFFFFFFFFFFFFFFFFFFFFFFFFFFFF AND PUSH20 0xFFFFFFFFFFFFFFFFFFFFFFFFFFFFFFFFFFFFFFFF AND DUP2 MSTORE PUSH1 0x20 ADD SWAP1 DUP2 MSTORE PUSH1 0x20 ADD PUSH0 KECCAK256 PUSH0 DUP7 DUP2 MSTORE PUSH1 0x20 ADD SWAP1 DUP2 MSTORE PUSH1 0x20 ADD PUSH0 KECCAK256 PUSH0 DUP1 DUP3 ADD PUSH0 SWAP1 SSTORE PUSH1 0x1 DUP3 ADD PUSH0 PUSH2 0x100 EXP DUP2 SLOAD SWAP1 PUSH20 0xFFFFFFFFFFFFFFFFFFFFFFFFFFFFFFFFFFFFFFFF MUL NOT AND SWAP1 SSTORE PUSH1 0x2 DUP3 ADD PUSH0 SWAP1 SSTORE POP POP PUSH2 0x656 DUP2 DUP8 DUP8 PUSH2 0x171C JUMP JUMPDEST DUP6 PUSH20 0xFFFFFFFFFFFFFFFFFFFFFFFFFFFFFFFFFFFFFFFF AND PUSH4 0x42842E0E DUP4 PUSH1 0x1 ADD PUSH0 SWAP1 SLOAD SWAP1 PUSH2 0x100 EXP SWAP1 DIV PUSH20 0xFFFFFFFFFFFFFFFFFFFFFFFFFFFFFFFFFFFFFFFF AND CALLER DUP9 PUSH1 0x40 MLOAD DUP5 PUSH4 0xFFFFFFFF AND PUSH1 0xE0 SHL DUP2 MSTORE PUSH1 0x4 ADD PUSH2 0x6B6 SWAP4 SWAP3 SWAP2 SWAP1 PUSH2 0x1E58 JUMP JUMPDEST PUSH0 PUSH1 0x40 MLOAD DUP1 DUP4 SUB DUP2 PUSH0 DUP8 DUP1 EXTCODESIZE ISZERO DUP1 ISZERO PUSH2 0x6CD JUMPI PUSH0 DUP1 REVERT JUMPDEST POP GAS CALL ISZERO DUP1 ISZERO PUSH2 0x6DF JUMPI RETURNDATASIZE PUSH0 DUP1 RETURNDATACOPY RETURNDATASIZE PUSH0 REVERT JUMPDEST POP POP POP POP CALLER PUSH20 0xFFFFFFFFFFFFFFFFFFFFFFFFFFFFFFFFFFFFFFFF AND DUP6 DUP8 PUSH20 0xFFFFFFFFFFFFFFFFFFFFFFFFFFFFFFFFFFFFFFFF AND PUSH32 0x77C3CED349B08A2AF4E9D443FB697437C3197B3095D43FCBDC2CDC97B1A60E0C DUP6 PUSH0 ADD SLOAD PUSH1 0x40 MLOAD PUSH2 0x744 SWAP2 SWAP1 PUSH2 0x1A24 JUMP JUMPDEST PUSH1 0x40 MLOAD DUP1 SWAP2 SUB SWAP1 LOG4 POP POP POP POP PUSH2 0x758 PUSH2 0x1823 JUMP JUMPDEST POP POP JUMP JUMPDEST PUSH1 0x3 PUSH1 0x20 MSTORE DUP1 PUSH0 MSTORE PUSH1 0x40 PUSH0 KECCAK256 PUSH0 SWAP2 POP SWAP1 POP DUP1 PUSH0 ADD SLOAD SWAP1 DUP1 PUSH1 0x1 ADD PUSH0 SWAP1 SLOAD SWAP1 PUSH2 0x100 EXP SWAP1 DIV PUSH20 0xFFFFFFFFFFFFFFFFFFFFFFFFFFFFFFFFFFFFFFFF AND SWAP1 POP DUP3 JUMP JUMPDEST DUP2 DUP2 CALLER PUSH0 DUP4 SWAP1 POP DUP2 PUSH20 0xFFFFFFFFFFFFFFFFFFFFFFFFFFFFFFFFFFFFFFFF AND DUP2 PUSH20 0xFFFFFFFFFFFFFFFFFFFFFFFFFFFFFFFFFFFFFFFF AND PUSH4 0x6352211E DUP6 PUSH1 0x40 MLOAD DUP3 PUSH4 0xFFFFFFFF AND PUSH1 0xE0 SHL DUP2 MSTORE PUSH1 0x4 ADD PUSH2 0x7F2 SWAP2 SWAP1 PUSH2 0x1A24 JUMP JUMPDEST PUSH1 0x20 PUSH1 0x40 MLOAD DUP1 DUP4 SUB DUP2 DUP7 GAS STATICCALL ISZERO DUP1 ISZERO PUSH2 0x80D JUMPI RETURNDATASIZE PUSH0 DUP1 RETURNDATACOPY RETURNDATASIZE PUSH0 REVERT JUMPDEST POP POP POP POP PUSH1 0x40 MLOAD RETURNDATASIZE PUSH1 0x1F NOT PUSH1 0x1F DUP3 ADD AND DUP3 ADD DUP1 PUSH1 0x40 MSTORE POP DUP2 ADD SWAP1 PUSH2 0x831 SWAP2 SWAP1 PUSH2 0x1F69 JUMP JUMPDEST PUSH20 0xFFFFFFFFFFFFFFFFFFFFFFFFFFFFFFFFFFFFFFFF AND EQ PUSH2 0x887 JUMPI PUSH1 0x40 MLOAD PUSH32 0x8C379A000000000000000000000000000000000000000000000000000000000 DUP2 MSTORE PUSH1 0x4 ADD PUSH2 0x87E SWAP1 PUSH2 0x1FDE JUMP JUMPDEST PUSH1 0x40 MLOAD DUP1 SWAP2 SUB SWAP1 REVERT JUMPDEST DUP6 DUP6 PUSH0 PUSH1 0x2 PUSH0 DUP5 PUSH20 0xFFFFFFFFFFFFFFFFFFFFFFFFFFFFFFFFFFFFFFFF AND PUSH20 0xFFFFFFFFFFFFFFFFFFFFFFFFFFFFFFFFFFFFFFFF AND DUP2 MSTORE PUSH1 0x20 ADD SWAP1 DUP2 MSTORE PUSH1 0x20 ADD PUSH0 KECCAK256 PUSH0 DUP4 DUP2 MSTORE PUSH1 0x20 ADD SWAP1 DUP2 MSTORE PUSH1 0x20 ADD PUSH0 KECCAK256 PUSH0 ADD SLOAD GT PUSH2 0x919 JUMPI PUSH1 0x40 MLOAD PUSH32 0x8C379A000000000000000000000000000000000000000000000000000000000 DUP2 MSTORE PUSH1 0x4 ADD PUSH2 0x910 SWAP1 PUSH2 0x1E3A JUMP JUMPDEST PUSH1 0x40 MLOAD DUP1 SWAP2 SUB SWAP1 REVERT JUMPDEST PUSH0 PUSH1 0x2 PUSH0 DUP11 PUSH20 0xFFFFFFFFFFFFFFFFFFFFFFFFFFFFFFFFFFFFFFFF AND PUSH20 0xFFFFFFFFFFFFFFFFFFFFFFFFFFFFFFFFFFFFFFFF AND DUP2 MSTORE PUSH1 0x20 ADD SWAP1 DUP2 MSTORE PUSH1 0x20 ADD PUSH0 KECCAK256 PUSH0 DUP10 DUP2 MSTORE PUSH1 0x20 ADD SWAP1 DUP2 MSTORE PUSH1 0x20 ADD PUSH0 KECCAK256 PUSH1 0x2 ADD SLOAD SWAP1 POP PUSH1 0x2 PUSH0 DUP11 PUSH20 0xFFFFFFFFFFFFFFFFFFFFFFFFFFFFFFFFFFFFFFFF AND PUSH20 0xFFFFFFFFFFFFFFFFFFFFFFFFFFFFFFFFFFFFFFFF AND DUP2 MSTORE PUSH1 0x20 ADD SWAP1 DUP2 MSTORE PUSH1 0x20 ADD PUSH0 KECCAK256 PUSH0 DUP10 DUP2 MSTORE PUSH1 0x20 ADD SWAP1 DUP2 MSTORE PUSH1 0x20 ADD PUSH0 KECCAK256 PUSH0 DUP1 DUP3 ADD PUSH0 SWAP1 SSTORE PUSH1 0x1 DUP3 ADD PUSH0 PUSH2 0x100 EXP DUP2 SLOAD SWAP1 PUSH20 0xFFFFFFFFFFFFFFFFFFFFFFFFFFFFFFFFFFFFFFFF MUL NOT AND SWAP1 SSTORE PUSH1 0x2 DUP3 ADD PUSH0 SWAP1 SSTORE POP POP PUSH2 0x9F9 DUP2 DUP11 DUP11 PUSH2 0x171C JUMP JUMPDEST CALLER PUSH20 0xFFFFFFFFFFFFFFFFFFFFFFFFFFFFFFFFFFFFFFFF AND DUP9 DUP11 PUSH20 0xFFFFFFFFFFFFFFFFFFFFFFFFFFFFFFFFFFFFFFFF AND PUSH32 0x83614A26FD4398C876BD6684C0D04CF2E84EE7E4BC24E8D8888AB0E724BAC032 PUSH1 0x40 MLOAD PUSH1 0x40 MLOAD DUP1 SWAP2 SUB SWAP1 LOG4 POP POP POP POP POP POP POP POP POP JUMP JUMPDEST DUP4 DUP4 CALLER PUSH0 DUP4 SWAP1 POP DUP2 PUSH20 0xFFFFFFFFFFFFFFFFFFFFFFFFFFFFFFFFFFFFFFFF AND DUP2 PUSH20 0xFFFFFFFFFFFFFFFFFFFFFFFFFFFFFFFFFFFFFFFF AND PUSH4 0x6352211E DUP6 PUSH1 0x40 MLOAD DUP3 PUSH4 0xFFFFFFFF AND PUSH1 0xE0 SHL DUP2 MSTORE PUSH1 0x4 ADD PUSH2 0xAB6 SWAP2 SWAP1 PUSH2 0x1A24 JUMP JUMPDEST PUSH1 0x20 PUSH1 0x40 MLOAD DUP1 DUP4 SUB DUP2 DUP7 GAS STATICCALL ISZERO DUP1 ISZERO PUSH2 0xAD1 JUMPI RETURNDATASIZE PUSH0 DUP1 RETURNDATACOPY RETURNDATASIZE PUSH0 REVERT JUMPDEST POP POP POP POP PUSH1 0x40 MLOAD RETURNDATASIZE PUSH1 0x1F NOT PUSH1 0x1F DUP3 ADD AND DUP3 ADD DUP1 PUSH1 0x40 MSTORE POP DUP2 ADD SWAP1 PUSH2 0xAF5 SWAP2 SWAP1 PUSH2 0x1F69 JUMP JUMPDEST PUSH20 0xFFFFFFFFFFFFFFFFFFFFFFFFFFFFFFFFFFFFFFFF AND EQ PUSH2 0xB4B JUMPI PUSH1 0x40 MLOAD PUSH32 0x8C379A000000000000000000000000000000000000000000000000000000000 DUP2 MSTORE PUSH1 0x4 ADD PUSH2 0xB42 SWAP1 PUSH2 0x1FDE JUMP JUMPDEST PUSH1 0x40 MLOAD DUP1 SWAP2 SUB SWAP1 REVERT JUMPDEST DUP8 DUP8 PUSH0 PUSH1 0x2 PUSH0 DUP5 PUSH20 0xFFFFFFFFFFFFFFFFFFFFFFFFFFFFFFFFFFFFFFFF AND PUSH20 0xFFFFFFFFFFFFFFFFFFFFFFFFFFFFFFFFFFFFFFFF AND DUP2 MSTORE PUSH1 0x20 ADD SWAP1 DUP2 MSTORE PUSH1 0x20 ADD PUSH0 KECCAK256 PUSH0 DUP4 DUP2 MSTORE PUSH1 0x20 ADD SWAP1 DUP2 MSTORE PUSH1 0x20 ADD PUSH0 KECCAK256 PUSH0 ADD SLOAD EQ PUSH2 0xBDD JUMPI PUSH1 0x40 MLOAD PUSH32 0x8C379A000000000000000000000000000000000000000000000000000000000 DUP2 MSTORE PUSH1 0x4 ADD PUSH2 0xBD4 SWAP1 PUSH2 0x2046 JUMP JUMPDEST PUSH1 0x40 MLOAD DUP1 SWAP2 SUB SWAP1 REVERT JUMPDEST PUSH0 DUP9 GT PUSH2 0xC1F JUMPI PUSH1 0x40 MLOAD PUSH32 0x8C379A000000000000000000000000000000000000000000000000000000000 DUP2 MSTORE PUSH1 0x4 ADD PUSH2 0xC16 SWAP1 PUSH2 0x20AE JUMP JUMPDEST PUSH1 0x40 MLOAD DUP1 SWAP2 SUB SWAP1 REVERT JUMPDEST ADDRESS PUSH20 0xFFFFFFFFFFFFFFFFFFFFFFFFFFFFFFFFFFFFFFFF AND DUP11 PUSH20 0xFFFFFFFFFFFFFFFFFFFFFFFFFFFFFFFFFFFFFFFF AND PUSH4 0x81812FC DUP12 PUSH1 0x40 MLOAD DUP3 PUSH4 0xFFFFFFFF AND PUSH1 0xE0 SHL DUP2 MSTORE PUSH1 0x4 ADD PUSH2 0xC6F SWAP2 SWAP1 PUSH2 0x1A24 JUMP JUMPDEST PUSH1 0x20 PUSH1 0x40 MLOAD DUP1 DUP4 SUB DUP2 DUP7 GAS STATICCALL ISZERO DUP1 ISZERO PUSH2 0xC8A JUMPI RETURNDATASIZE PUSH0 DUP1 RETURNDATACOPY RETURNDATASIZE PUSH0 REVERT JUMPDEST POP POP POP POP PUSH1 0x40 MLOAD RETURNDATASIZE PUSH1 0x1F NOT PUSH1 0x1F DUP3 ADD AND DUP3 ADD DUP1 PUSH1 0x40 MSTORE POP DUP2 ADD SWAP1 PUSH2 0xCAE SWAP2 SWAP1 PUSH2 0x1F69 JUMP JUMPDEST PUSH20 0xFFFFFFFFFFFFFFFFFFFFFFFFFFFFFFFFFFFFFFFF AND EQ PUSH2 0xD04 JUMPI PUSH1 0x40 MLOAD PUSH32 0x8C379A000000000000000000000000000000000000000000000000000000000 DUP2 MSTORE PUSH1 0x4 ADD PUSH2 0xCFB SWAP1 PUSH2 0x2116 JUMP JUMPDEST PUSH1 0x40 MLOAD DUP1 SWAP2 SUB SWAP1 REVERT JUMPDEST PUSH1 0x40 MLOAD DUP1 PUSH1 0x60 ADD PUSH1 0x40 MSTORE DUP1 DUP10 DUP2 MSTORE PUSH1 0x20 ADD CALLER PUSH20 0xFFFFFFFFFFFFFFFFFFFFFFFFFFFFFFFFFFFFFFFF AND DUP2 MSTORE PUSH1 0x20 ADD DUP9 DUP2 MSTORE POP PUSH1 0x2 PUSH0 DUP13 PUSH20 0xFFFFFFFFFFFFFFFFFFFFFFFFFFFFFFFFFFFFFFFF AND PUSH20 0xFFFFFFFFFFFFFFFFFFFFFFFFFFFFFFFFFFFFFFFF AND DUP2 MSTORE PUSH1 0x20 ADD SWAP1 DUP2 MSTORE PUSH1 0x20 ADD PUSH0 KECCAK256 PUSH0 DUP12 DUP2 MSTORE PUSH1 0x20 ADD SWAP1 DUP2 MSTORE PUSH1 0x20 ADD PUSH0 KECCAK256 PUSH0 DUP3 ADD MLOAD DUP2 PUSH0 ADD SSTORE PUSH1 0x20 DUP3 ADD MLOAD DUP2 PUSH1 0x1 ADD PUSH0 PUSH2 0x100 EXP DUP2 SLOAD DUP2 PUSH20 0xFFFFFFFFFFFFFFFFFFFFFFFFFFFFFFFFFFFFFFFF MUL NOT AND SWAP1 DUP4 PUSH20 0xFFFFFFFFFFFFFFFFFFFFFFFFFFFFFFFFFFFFFFFF AND MUL OR SWAP1 SSTORE POP PUSH1 0x40 DUP3 ADD MLOAD DUP2 PUSH1 0x2 ADD SSTORE SWAP1 POP POP PUSH1 0x5 PUSH0 DUP9 DUP2 MSTORE PUSH1 0x20 ADD SWAP1 DUP2 MSTORE PUSH1 0x20 ADD PUSH0 KECCAK256 PUSH0 DUP12 PUSH20 0xFFFFFFFFFFFFFFFFFFFFFFFFFFFFFFFFFFFFFFFF AND PUSH20 0xFFFFFFFFFFFFFFFFFFFFFFFFFFFFFFFFFFFFFFFF AND DUP2 MSTORE PUSH1 0x20 ADD SWAP1 DUP2 MSTORE PUSH1 0x20 ADD PUSH0 KECCAK256 DUP10 SWAP1 DUP1 PUSH1 0x1 DUP2 SLOAD ADD DUP1 DUP3 SSTORE DUP1 SWAP2 POP POP PUSH1 0x1 SWAP1 SUB SWAP1 PUSH0 MSTORE PUSH1 0x20 PUSH0 KECCAK256 ADD PUSH0 SWAP1 SWAP2 SWAP1 SWAP2 SWAP1 SWAP2 POP SSTORE PUSH1 0x4 PUSH0 DUP9 DUP2 MSTORE PUSH1 0x20 ADD SWAP1 DUP2 MSTORE PUSH1 0x20 ADD PUSH0 KECCAK256 DUP11 SWAP1 DUP1 PUSH1 0x1 DUP2 SLOAD ADD DUP1 DUP3 SSTORE DUP1 SWAP2 POP POP PUSH1 0x1 SWAP1 SUB SWAP1 PUSH0 MSTORE PUSH1 0x20 PUSH0 KECCAK256 ADD PUSH0 SWAP1 SWAP2 SWAP1 SWAP2 SWAP1 SWAP2 PUSH2 0x100 EXP DUP2 SLOAD DUP2 PUSH20 0xFFFFFFFFFFFFFFFFFFFFFFFFFFFFFFFFFFFFFFFF MUL NOT AND SWAP1 DUP4 PUSH20 0xFFFFFFFFFFFFFFFFFFFFFFFFFFFFFFFFFFFFFFFF AND MUL OR SWAP1 SSTORE POP CALLER PUSH20 0xFFFFFFFFFFFFFFFFFFFFFFFFFFFFFFFFFFFFFFFF AND DUP10 DUP12 PUSH20 0xFFFFFFFFFFFFFFFFFFFFFFFFFFFFFFFFFFFFFFFF AND PUSH32 0x1417B2EBA804DDAA10ED9C3FC1581B7141DD70DBE8BF5E41C36D73C1625F0711 DUP12 DUP12 PUSH1 0x40 MLOAD PUSH2 0xF1B SWAP3 SWAP2 SWAP1 PUSH2 0x2134 JUMP JUMPDEST PUSH1 0x40 MLOAD DUP1 SWAP2 SUB SWAP1 LOG4 POP POP POP POP POP POP POP POP POP POP JUMP JUMPDEST PUSH0 PUSH1 0x20 DUP3 MLOAD GT ISZERO PUSH2 0xF75 JUMPI PUSH1 0x40 MLOAD PUSH32 0x8C379A000000000000000000000000000000000000000000000000000000000 DUP2 MSTORE PUSH1 0x4 ADD PUSH2 0xF6C SWAP1 PUSH2 0x21A5 JUMP JUMPDEST PUSH1 0x40 MLOAD DUP1 SWAP2 SUB SWAP1 REVERT JUMPDEST PUSH1 0x20 DUP3 ADD MLOAD SWAP1 POP SWAP2 SWAP1 POP JUMP JUMPDEST PUSH1 0x4 PUSH1 0x20 MSTORE DUP2 PUSH0 MSTORE PUSH1 0x40 PUSH0 KECCAK256 DUP2 DUP2 SLOAD DUP2 LT PUSH2 0xF9A JUMPI PUSH0 DUP1 REVERT JUMPDEST SWAP1 PUSH0 MSTORE PUSH1 0x20 PUSH0 KECCAK256 ADD PUSH0 SWAP2 POP SWAP2 POP SWAP1 SLOAD SWAP1 PUSH2 0x100 EXP SWAP1 DIV PUSH20 0xFFFFFFFFFFFFFFFFFFFFFFFFFFFFFFFFFFFFFFFF AND DUP2 JUMP JUMPDEST PUSH0 DUP2 GT PUSH2 0x100B JUMPI PUSH1 0x40 MLOAD PUSH32 0x8C379A000000000000000000000000000000000000000000000000000000000 DUP2 MSTORE PUSH1 0x4 ADD PUSH2 0x1002 SWAP1 PUSH2 0x20AE JUMP JUMPDEST PUSH1 0x40 MLOAD DUP1 SWAP2 SUB SWAP1 REVERT JUMPDEST PUSH0 PUSH20 0xFFFFFFFFFFFFFFFFFFFFFFFFFFFFFFFFFFFFFFFF AND PUSH1 0x3 PUSH0 DUP5 DUP2 MSTORE PUSH1 0x20 ADD SWAP1 DUP2 MSTORE PUSH1 0x20 ADD PUSH0 KECCAK256 PUSH1 0x1 ADD PUSH0 SWAP1 SLOAD SWAP1 PUSH2 0x100 EXP SWAP1 DIV PUSH20 0xFFFFFFFFFFFFFFFFFFFFFFFFFFFFFFFFFFFFFFFF AND PUSH20 0xFFFFFFFFFFFFFFFFFFFFFFFFFFFFFFFFFFFFFFFF AND EQ PUSH2 0x10AC JUMPI PUSH1 0x40 MLOAD PUSH32 0x8C379A000000000000000000000000000000000000000000000000000000000 DUP2 MSTORE PUSH1 0x4 ADD PUSH2 0x10A3 SWAP1 PUSH2 0x220D JUMP JUMPDEST PUSH1 0x40 MLOAD DUP1 SWAP2 SUB SWAP1 REVERT JUMPDEST PUSH1 0x1 PUSH0 SWAP1 SLOAD SWAP1 PUSH2 0x100 EXP SWAP1 DIV PUSH20 0xFFFFFFFFFFFFFFFFFFFFFFFFFFFFFFFFFFFFFFFF AND PUSH20 0xFFFFFFFFFFFFFFFFFFFFFFFFFFFFFFFFFFFFFFFF AND PUSH4 0x23B872DD CALLER ADDRESS DUP5 PUSH1 0x40 MLOAD DUP5 PUSH4 0xFFFFFFFF AND PUSH1 0xE0 SHL DUP2 MSTORE PUSH1 0x4 ADD PUSH2 0x110A SWAP4 SWAP3 SWAP2 SWAP1 PUSH2 0x1E58 JUMP JUMPDEST PUSH1 0x20 PUSH1 0x40 MLOAD DUP1 DUP4 SUB DUP2 PUSH0 DUP8 GAS CALL ISZERO DUP1 ISZERO PUSH2 0x1126 JUMPI RETURNDATASIZE PUSH0 DUP1 RETURNDATACOPY RETURNDATASIZE PUSH0 REVERT JUMPDEST POP POP POP POP PUSH1 0x40 MLOAD RETURNDATASIZE PUSH1 0x1F NOT PUSH1 0x1F DUP3 ADD AND DUP3 ADD DUP1 PUSH1 0x40 MSTORE POP DUP2 ADD SWAP1 PUSH2 0x114A SWAP2 SWAP1 PUSH2 0x1EC2 JUMP JUMPDEST PUSH2 0x1189 JUMPI PUSH1 0x40 MLOAD PUSH32 0x8C379A000000000000000000000000000000000000000000000000000000000 DUP2 MSTORE PUSH1 0x4 ADD PUSH2 0x1180 SWAP1 PUSH2 0x2275 JUMP JUMPDEST PUSH1 0x40 MLOAD DUP1 SWAP2 SUB SWAP1 REVERT JUMPDEST PUSH1 0x40 MLOAD DUP1 PUSH1 0x40 ADD PUSH1 0x40 MSTORE DUP1 DUP3 DUP2 MSTORE PUSH1 0x20 ADD CALLER PUSH20 0xFFFFFFFFFFFFFFFFFFFFFFFFFFFFFFFFFFFFFFFF AND DUP2 MSTORE POP PUSH1 0x3 PUSH0 DUP5 DUP2 MSTORE PUSH1 0x20 ADD SWAP1 DUP2 MSTORE PUSH1 0x20 ADD PUSH0 KECCAK256 PUSH0 DUP3 ADD MLOAD DUP2 PUSH0 ADD SSTORE PUSH1 0x20 DUP3 ADD MLOAD DUP2 PUSH1 0x1 ADD PUSH0 PUSH2 0x100 EXP DUP2 SLOAD DUP2 PUSH20 0xFFFFFFFFFFFFFFFFFFFFFFFFFFFFFFFFFFFFFFFF MUL NOT AND SWAP1 DUP4 PUSH20 0xFFFFFFFFFFFFFFFFFFFFFFFFFFFFFFFFFFFFFFFF AND MUL OR SWAP1 SSTORE POP SWAP1 POP POP CALLER PUSH20 0xFFFFFFFFFFFFFFFFFFFFFFFFFFFFFFFFFFFFFFFF AND DUP3 PUSH32 0x52AE0F50CAC87B9AB2C56DFE791E7CEDE837C3F194B7D309CDA50D1F60B643D3 DUP4 PUSH1 0x40 MLOAD PUSH2 0x125D SWAP2 SWAP1 PUSH2 0x1A24 JUMP JUMPDEST PUSH1 0x40 MLOAD DUP1 SWAP2 SUB SWAP1 LOG3 PUSH0 PUSH1 0x4 PUSH0 DUP5 DUP2 MSTORE PUSH1 0x20 ADD SWAP1 DUP2 MSTORE PUSH1 0x20 ADD PUSH0 KECCAK256 SWAP1 POP PUSH0 JUMPDEST DUP2 DUP1 SLOAD SWAP1 POP DUP2 LT ISZERO PUSH2 0x16C8 JUMPI PUSH0 DUP3 DUP3 DUP2 SLOAD DUP2 LT PUSH2 0x129B JUMPI PUSH2 0x129A PUSH2 0x2293 JUMP JUMPDEST JUMPDEST SWAP1 PUSH0 MSTORE PUSH1 0x20 PUSH0 KECCAK256 ADD PUSH0 SWAP1 SLOAD SWAP1 PUSH2 0x100 EXP SWAP1 DIV PUSH20 0xFFFFFFFFFFFFFFFFFFFFFFFFFFFFFFFFFFFFFFFF AND SWAP1 POP PUSH0 PUSH1 0x5 PUSH0 DUP8 DUP2 MSTORE PUSH1 0x20 ADD SWAP1 DUP2 MSTORE PUSH1 0x20 ADD PUSH0 KECCAK256 PUSH0 DUP4 PUSH20 0xFFFFFFFFFFFFFFFFFFFFFFFFFFFFFFFFFFFFFFFF AND PUSH20 0xFFFFFFFFFFFFFFFFFFFFFFFFFFFFFFFFFFFFFFFF AND DUP2 MSTORE PUSH1 0x20 ADD SWAP1 DUP2 MSTORE PUSH1 0x20 ADD PUSH0 KECCAK256 SWAP1 POP PUSH0 JUMPDEST DUP2 DUP1 SLOAD SWAP1 POP DUP2 LT ISZERO PUSH2 0x16B8 JUMPI PUSH0 DUP3 DUP3 DUP2 SLOAD DUP2 LT PUSH2 0x1336 JUMPI PUSH2 0x1335 PUSH2 0x2293 JUMP JUMPDEST JUMPDEST SWAP1 PUSH0 MSTORE PUSH1 0x20 PUSH0 KECCAK256 ADD SLOAD SWAP1 POP PUSH0 PUSH1 0x2 PUSH0 DUP7 PUSH20 0xFFFFFFFFFFFFFFFFFFFFFFFFFFFFFFFFFFFFFFFF AND PUSH20 0xFFFFFFFFFFFFFFFFFFFFFFFFFFFFFFFFFFFFFFFF AND DUP2 MSTORE PUSH1 0x20 ADD SWAP1 DUP2 MSTORE PUSH1 0x20 ADD PUSH0 KECCAK256 PUSH0 DUP4 DUP2 MSTORE PUSH1 0x20 ADD SWAP1 DUP2 MSTORE PUSH1 0x20 ADD PUSH0 KECCAK256 SWAP1 POP DUP8 DUP2 PUSH0 ADD SLOAD GT ISZERO DUP1 ISZERO PUSH2 0x13F2 JUMPI POP PUSH0 PUSH20 0xFFFFFFFFFFFFFFFFFFFFFFFFFFFFFFFFFFFFFFFF AND DUP2 PUSH1 0x1 ADD PUSH0 SWAP1 SLOAD SWAP1 PUSH2 0x100 EXP SWAP1 DIV PUSH20 0xFFFFFFFFFFFFFFFFFFFFFFFFFFFFFFFFFFFFFFFF AND PUSH20 0xFFFFFFFFFFFFFFFFFFFFFFFFFFFFFFFFFFFFFFFF AND EQ ISZERO JUMPDEST ISZERO PUSH2 0x16A9 JUMPI PUSH0 DUP2 PUSH1 0x1 ADD PUSH0 SWAP1 SLOAD SWAP1 PUSH2 0x100 EXP SWAP1 DIV PUSH20 0xFFFFFFFFFFFFFFFFFFFFFFFFFFFFFFFFFFFFFFFF AND SWAP1 POP PUSH1 0x2 PUSH0 DUP8 PUSH20 0xFFFFFFFFFFFFFFFFFFFFFFFFFFFFFFFFFFFFFFFF AND PUSH20 0xFFFFFFFFFFFFFFFFFFFFFFFFFFFFFFFFFFFFFFFF AND DUP2 MSTORE PUSH1 0x20 ADD SWAP1 DUP2 MSTORE PUSH1 0x20 ADD PUSH0 KECCAK256 PUSH0 DUP5 DUP2 MSTORE PUSH1 0x20 ADD SWAP1 DUP2 MSTORE PUSH1 0x20 ADD PUSH0 KECCAK256 PUSH0 DUP1 DUP3 ADD PUSH0 SWAP1 SSTORE PUSH1 0x1 DUP3 ADD PUSH0 PUSH2 0x100 EXP DUP2 SLOAD SWAP1 PUSH20 0xFFFFFFFFFFFFFFFFFFFFFFFFFFFFFFFFFFFFFFFF MUL NOT AND SWAP1 SSTORE PUSH1 0x2 DUP3 ADD PUSH0 SWAP1 SSTORE POP POP PUSH1 0x3 PUSH0 DUP12 DUP2 MSTORE PUSH1 0x20 ADD SWAP1 DUP2 MSTORE PUSH1 0x20 ADD PUSH0 KECCAK256 PUSH0 DUP1 DUP3 ADD PUSH0 SWAP1 SSTORE PUSH1 0x1 DUP3 ADD PUSH0 PUSH2 0x100 EXP DUP2 SLOAD SWAP1 PUSH20 0xFFFFFFFFFFFFFFFFFFFFFFFFFFFFFFFFFFFFFFFF MUL NOT AND SWAP1 SSTORE POP POP PUSH2 0x14EB DUP11 DUP8 DUP6 PUSH2 0x171C JUMP JUMPDEST PUSH1 0x1 PUSH0 SWAP1 SLOAD SWAP1 PUSH2 0x100 EXP SWAP1 DIV PUSH20 0xFFFFFFFFFFFFFFFFFFFFFFFFFFFFFFFFFFFFFFFF AND PUSH20 0xFFFFFFFFFFFFFFFFFFFFFFFFFFFFFFFFFFFFFFFF AND PUSH4 0xA9059CBB DUP3 DUP5 PUSH0 ADD SLOAD PUSH1 0x40 MLOAD DUP4 PUSH4 0xFFFFFFFF AND PUSH1 0xE0 SHL DUP2 MSTORE PUSH1 0x4 ADD PUSH2 0x154A SWAP3 SWAP2 SWAP1 PUSH2 0x22C0 JUMP JUMPDEST PUSH1 0x20 PUSH1 0x40 MLOAD DUP1 DUP4 SUB DUP2 PUSH0 DUP8 GAS CALL ISZERO DUP1 ISZERO PUSH2 0x1566 JUMPI RETURNDATASIZE PUSH0 DUP1 RETURNDATACOPY RETURNDATASIZE PUSH0 REVERT JUMPDEST POP POP POP POP PUSH1 0x40 MLOAD RETURNDATASIZE PUSH1 0x1F NOT PUSH1 0x1F DUP3 ADD AND DUP3 ADD DUP1 PUSH1 0x40 MSTORE POP DUP2 ADD SWAP1 PUSH2 0x158A SWAP2 SWAP1 PUSH2 0x1EC2 JUMP JUMPDEST PUSH2 0x15C9 JUMPI PUSH1 0x40 MLOAD PUSH32 0x8C379A000000000000000000000000000000000000000000000000000000000 DUP2 MSTORE PUSH1 0x4 ADD PUSH2 0x15C0 SWAP1 PUSH2 0x2331 JUMP JUMPDEST PUSH1 0x40 MLOAD DUP1 SWAP2 SUB SWAP1 REVERT JUMPDEST DUP6 PUSH20 0xFFFFFFFFFFFFFFFFFFFFFFFFFFFFFFFFFFFFFFFF AND PUSH4 0x42842E0E DUP3 CALLER DUP7 PUSH1 0x40 MLOAD DUP5 PUSH4 0xFFFFFFFF AND PUSH1 0xE0 SHL DUP2 MSTORE PUSH1 0x4 ADD PUSH2 0x1606 SWAP4 SWAP3 SWAP2 SWAP1 PUSH2 0x1E58 JUMP JUMPDEST PUSH0 PUSH1 0x40 MLOAD DUP1 DUP4 SUB DUP2 PUSH0 DUP8 DUP1 EXTCODESIZE ISZERO DUP1 ISZERO PUSH2 0x161D JUMPI PUSH0 DUP1 REVERT JUMPDEST POP GAS CALL ISZERO DUP1 ISZERO PUSH2 0x162F JUMPI RETURNDATASIZE PUSH0 DUP1 RETURNDATACOPY RETURNDATASIZE PUSH0 REVERT JUMPDEST POP POP POP POP CALLER PUSH20 0xFFFFFFFFFFFFFFFFFFFFFFFFFFFFFFFFFFFFFFFF AND DUP4 DUP8 PUSH20 0xFFFFFFFFFFFFFFFFFFFFFFFFFFFFFFFFFFFFFFFF AND PUSH32 0x1658BE8DBD90F08A0F1B9367EAF7D55760D7ADDBB8DFE73C43524C77E6FEBEBC DUP6 PUSH0 ADD SLOAD PUSH1 0x40 MLOAD PUSH2 0x1694 SWAP2 SWAP1 PUSH2 0x1A24 JUMP JUMPDEST PUSH1 0x40 MLOAD DUP1 SWAP2 SUB SWAP1 LOG4 POP POP POP POP POP POP POP POP PUSH2 0x16CB JUMP JUMPDEST POP POP DUP1 DUP1 PUSH1 0x1 ADD SWAP2 POP POP PUSH2 0x1316 JUMP JUMPDEST POP POP POP DUP1 DUP1 PUSH1 0x1 ADD SWAP2 POP POP PUSH2 0x127B JUMP JUMPDEST POP POP JUMPDEST POP POP JUMP JUMPDEST PUSH1 0x2 PUSH0 SLOAD SUB PUSH2 0x1713 JUMPI PUSH1 0x40 MLOAD PUSH32 0x8C379A000000000000000000000000000000000000000000000000000000000 DUP2 MSTORE PUSH1 0x4 ADD PUSH2 0x170A SWAP1 PUSH2 0x2399 JUMP JUMPDEST PUSH1 0x40 MLOAD DUP1 SWAP2 SUB SWAP1 REVERT JUMPDEST PUSH1 0x2 PUSH0 DUP2 SWAP1 SSTORE POP JUMP JUMPDEST PUSH0 PUSH1 0x5 PUSH0 DUP6 DUP2 MSTORE PUSH1 0x20 ADD SWAP1 DUP2 MSTORE PUSH1 0x20 ADD PUSH0 KECCAK256 PUSH0 DUP5 PUSH20 0xFFFFFFFFFFFFFFFFFFFFFFFFFFFFFFFFFFFFFFFF AND PUSH20 0xFFFFFFFFFFFFFFFFFFFFFFFFFFFFFFFFFFFFFFFF AND DUP2 MSTORE PUSH1 0x20 ADD SWAP1 DUP2 MSTORE PUSH1 0x20 ADD PUSH0 KECCAK256 SWAP1 POP PUSH0 JUMPDEST DUP2 DUP1 SLOAD SWAP1 POP DUP2 LT ISZERO PUSH2 0x181C JUMPI DUP3 DUP3 DUP3 DUP2 SLOAD DUP2 LT PUSH2 0x178D JUMPI PUSH2 0x178C PUSH2 0x2293 JUMP JUMPDEST JUMPDEST SWAP1 PUSH0 MSTORE PUSH1 0x20 PUSH0 KECCAK256 ADD SLOAD SUB PUSH2 0x180F JUMPI DUP2 PUSH1 0x1 DUP4 DUP1 SLOAD SWAP1 POP PUSH2 0x17AD SWAP2 SWAP1 PUSH2 0x23E4 JUMP JUMPDEST DUP2 SLOAD DUP2 LT PUSH2 0x17BE JUMPI PUSH2 0x17BD PUSH2 0x2293 JUMP JUMPDEST JUMPDEST SWAP1 PUSH0 MSTORE PUSH1 0x20 PUSH0 KECCAK256 ADD SLOAD DUP3 DUP3 DUP2 SLOAD DUP2 LT PUSH2 0x17DA JUMPI PUSH2 0x17D9 PUSH2 0x2293 JUMP JUMPDEST JUMPDEST SWAP1 PUSH0 MSTORE PUSH1 0x20 PUSH0 KECCAK256 ADD DUP2 SWAP1 SSTORE POP DUP2 DUP1 SLOAD DUP1 PUSH2 0x17F7 JUMPI PUSH2 0x17F6 PUSH2 0x2417 JUMP JUMPDEST JUMPDEST PUSH1 0x1 SWAP1 SUB DUP2 DUP2 SWAP1 PUSH0 MSTORE PUSH1 0x20 PUSH0 KECCAK256 ADD PUSH0 SWAP1 SSTORE SWAP1 SSTORE PUSH2 0x181C JUMP JUMPDEST DUP1 DUP1 PUSH1 0x1 ADD SWAP2 POP POP PUSH2 0x176D JUMP JUMPDEST POP POP POP POP POP JUMP JUMPDEST PUSH1 0x1 PUSH0 DUP2 SWAP1 SSTORE POP JUMP JUMPDEST PUSH1 0x40 MLOAD DUP1 PUSH1 0x60 ADD PUSH1 0x40 MSTORE DUP1 PUSH0 DUP2 MSTORE PUSH1 0x20 ADD PUSH0 PUSH20 0xFFFFFFFFFFFFFFFFFFFFFFFFFFFFFFFFFFFFFFFF AND DUP2 MSTORE PUSH1 0x20 ADD PUSH0 DUP1 NOT AND DUP2 MSTORE POP SWAP1 JUMP JUMPDEST PUSH0 PUSH1 0x40 MLOAD SWAP1 POP SWAP1 JUMP JUMPDEST PUSH0 DUP1 REVERT JUMPDEST PUSH0 DUP1 REVERT JUMPDEST PUSH0 PUSH20 0xFFFFFFFFFFFFFFFFFFFFFFFFFFFFFFFFFFFFFFFF DUP3 AND SWAP1 POP SWAP2 SWAP1 POP JUMP JUMPDEST PUSH0 PUSH2 0x189D DUP3 PUSH2 0x1874 JUMP JUMPDEST SWAP1 POP SWAP2 SWAP1 POP JUMP JUMPDEST PUSH2 0x18AD DUP2 PUSH2 0x1893 JUMP JUMPDEST DUP2 EQ PUSH2 0x18B7 JUMPI PUSH0 DUP1 REVERT JUMPDEST POP JUMP JUMPDEST PUSH0 DUP2 CALLDATALOAD SWAP1 POP PUSH2 0x18C8 DUP2 PUSH2 0x18A4 JUMP JUMPDEST SWAP3 SWAP2 POP POP JUMP JUMPDEST PUSH0 DUP2 SWAP1 POP SWAP2 SWAP1 POP JUMP JUMPDEST PUSH2 0x18E0 DUP2 PUSH2 0x18CE JUMP JUMPDEST DUP2 EQ PUSH2 0x18EA JUMPI PUSH0 DUP1 REVERT JUMPDEST POP JUMP JUMPDEST PUSH0 DUP2 CALLDATALOAD SWAP1 POP PUSH2 0x18FB DUP2 PUSH2 0x18D7 JUMP JUMPDEST SWAP3 SWAP2 POP POP JUMP JUMPDEST PUSH0 DUP1 PUSH1 0x40 DUP4 DUP6 SUB SLT ISZERO PUSH2 0x1917 JUMPI PUSH2 0x1916 PUSH2 0x186C JUMP JUMPDEST JUMPDEST PUSH0 PUSH2 0x1924 DUP6 DUP3 DUP7 ADD PUSH2 0x18BA JUMP JUMPDEST SWAP3 POP POP PUSH1 0x20 PUSH2 0x1935 DUP6 DUP3 DUP7 ADD PUSH2 0x18ED JUMP JUMPDEST SWAP2 POP POP SWAP3 POP SWAP3 SWAP1 POP JUMP JUMPDEST PUSH2 0x1948 DUP2 PUSH2 0x18CE JUMP JUMPDEST DUP3 MSTORE POP POP JUMP JUMPDEST PUSH2 0x1957 DUP2 PUSH2 0x1893 JUMP JUMPDEST DUP3 MSTORE POP POP JUMP JUMPDEST PUSH0 DUP2 SWAP1 POP SWAP2 SWAP1 POP JUMP JUMPDEST PUSH2 0x196F DUP2 PUSH2 0x195D JUMP JUMPDEST DUP3 MSTORE POP POP JUMP JUMPDEST PUSH0 PUSH1 0x60 DUP3 ADD SWAP1 POP PUSH2 0x1988 PUSH0 DUP4 ADD DUP7 PUSH2 0x193F JUMP JUMPDEST PUSH2 0x1995 PUSH1 0x20 DUP4 ADD DUP6 PUSH2 0x194E JUMP JUMPDEST PUSH2 0x19A2 PUSH1 0x40 DUP4 ADD DUP5 PUSH2 0x1966 JUMP JUMPDEST SWAP5 SWAP4 POP POP POP POP JUMP JUMPDEST PUSH2 0x19B3 DUP2 PUSH2 0x195D JUMP JUMPDEST DUP2 EQ PUSH2 0x19BD JUMPI PUSH0 DUP1 REVERT JUMPDEST POP JUMP JUMPDEST PUSH0 DUP2 CALLDATALOAD SWAP1 POP PUSH2 0x19CE DUP2 PUSH2 0x19AA JUMP JUMPDEST SWAP3 SWAP2 POP POP JUMP JUMPDEST PUSH0 DUP1 PUSH0 PUSH1 0x60 DUP5 DUP7 SUB SLT ISZERO PUSH2 0x19EB JUMPI PUSH2 0x19EA PUSH2 0x186C JUMP JUMPDEST JUMPDEST PUSH0 PUSH2 0x19F8 DUP7 DUP3 DUP8 ADD PUSH2 0x19C0 JUMP JUMPDEST SWAP4 POP POP PUSH1 0x20 PUSH2 0x1A09 DUP7 DUP3 DUP8 ADD PUSH2 0x18BA JUMP JUMPDEST SWAP3 POP POP PUSH1 0x40 PUSH2 0x1A1A DUP7 DUP3 DUP8 ADD PUSH2 0x18ED JUMP JUMPDEST SWAP2 POP POP SWAP3 POP SWAP3 POP SWAP3 JUMP JUMPDEST PUSH0 PUSH1 0x20 DUP3 ADD SWAP1 POP PUSH2 0x1A37 PUSH0 DUP4 ADD DUP5 PUSH2 0x193F JUMP JUMPDEST SWAP3 SWAP2 POP POP JUMP JUMPDEST PUSH0 DUP2 SWAP1 POP SWAP2 SWAP1 POP JUMP JUMPDEST PUSH0 PUSH2 0x1A60 PUSH2 0x1A5B PUSH2 0x1A56 DUP5 PUSH2 0x1874 JUMP JUMPDEST PUSH2 0x1A3D JUMP JUMPDEST PUSH2 0x1874 JUMP JUMPDEST SWAP1 POP SWAP2 SWAP1 POP JUMP JUMPDEST PUSH0 PUSH2 0x1A71 DUP3 PUSH2 0x1A46 JUMP JUMPDEST SWAP1 POP SWAP2 SWAP1 POP JUMP JUMPDEST PUSH0 PUSH2 0x1A82 DUP3 PUSH2 0x1A67 JUMP JUMPDEST SWAP1 POP SWAP2 SWAP1 POP JUMP JUMPDEST PUSH2 0x1A92 DUP2 PUSH2 0x1A78 JUMP JUMPDEST DUP3 MSTORE POP POP JUMP JUMPDEST PUSH0 PUSH1 0x20 DUP3 ADD SWAP1 POP PUSH2 0x1AAB PUSH0 DUP4 ADD DUP5 PUSH2 0x1A89 JUMP JUMPDEST SWAP3 SWAP2 POP POP JUMP JUMPDEST PUSH2 0x1ABA DUP2 PUSH2 0x18CE JUMP JUMPDEST DUP3 MSTORE POP POP JUMP JUMPDEST PUSH2 0x1AC9 DUP2 PUSH2 0x1893 JUMP JUMPDEST DUP3 MSTORE POP POP JUMP JUMPDEST PUSH2 0x1AD8 DUP2 PUSH2 0x195D JUMP JUMPDEST DUP3 MSTORE POP POP JUMP JUMPDEST PUSH1 0x60 DUP3 ADD PUSH0 DUP3 ADD MLOAD PUSH2 0x1AF2 PUSH0 DUP6 ADD DUP3 PUSH2 0x1AB1 JUMP JUMPDEST POP PUSH1 0x20 DUP3 ADD MLOAD PUSH2 0x1B05 PUSH1 0x20 DUP6 ADD DUP3 PUSH2 0x1AC0 JUMP JUMPDEST POP PUSH1 0x40 DUP3 ADD MLOAD PUSH2 0x1B18 PUSH1 0x40 DUP6 ADD DUP3 PUSH2 0x1ACF JUMP JUMPDEST POP POP POP POP JUMP JUMPDEST PUSH0 PUSH1 0x60 DUP3 ADD SWAP1 POP PUSH2 0x1B31 PUSH0 DUP4 ADD DUP5 PUSH2 0x1ADE JUMP JUMPDEST SWAP3 SWAP2 POP POP JUMP JUMPDEST PUSH0 PUSH1 0x20 DUP3 DUP5 SUB SLT ISZERO PUSH2 0x1B4C JUMPI PUSH2 0x1B4B PUSH2 0x186C JUMP JUMPDEST JUMPDEST PUSH0 PUSH2 0x1B59 DUP5 DUP3 DUP6 ADD PUSH2 0x19C0 JUMP JUMPDEST SWAP2 POP POP SWAP3 SWAP2 POP POP JUMP JUMPDEST PUSH0 PUSH1 0x40 DUP3 ADD SWAP1 POP PUSH2 0x1B75 PUSH0 DUP4 ADD DUP6 PUSH2 0x193F JUMP JUMPDEST PUSH2 0x1B82 PUSH1 0x20 DUP4 ADD DUP5 PUSH2 0x194E JUMP JUMPDEST SWAP4 SWAP3 POP POP POP JUMP JUMPDEST PUSH0 DUP1 PUSH0 DUP1 PUSH1 0x80 DUP6 DUP8 SUB SLT ISZERO PUSH2 0x1BA1 JUMPI PUSH2 0x1BA0 PUSH2 0x186C JUMP JUMPDEST JUMPDEST PUSH0 PUSH2 0x1BAE DUP8 DUP3 DUP9 ADD PUSH2 0x18BA JUMP JUMPDEST SWAP5 POP POP PUSH1 0x20 PUSH2 0x1BBF DUP8 DUP3 DUP9 ADD PUSH2 0x18ED JUMP JUMPDEST SWAP4 POP POP PUSH1 0x40 PUSH2 0x1BD0 DUP8 DUP3 DUP9 ADD PUSH2 0x18ED JUMP JUMPDEST SWAP3 POP POP PUSH1 0x60 PUSH2 0x1BE1 DUP8 DUP3 DUP9 ADD PUSH2 0x19C0 JUMP JUMPDEST SWAP2 POP POP SWAP3 SWAP6 SWAP2 SWAP5 POP SWAP3 POP JUMP JUMPDEST PUSH0 DUP1 REVERT JUMPDEST PUSH0 DUP1 REVERT JUMPDEST PUSH0 PUSH1 0x1F NOT PUSH1 0x1F DUP4 ADD AND SWAP1 POP SWAP2 SWAP1 POP JUMP JUMPDEST PUSH32 0x4E487B7100000000000000000000000000000000000000000000000000000000 PUSH0 MSTORE PUSH1 0x41 PUSH1 0x4 MSTORE PUSH1 0x24 PUSH0 REVERT JUMPDEST PUSH2 0x1C3B DUP3 PUSH2 0x1BF5 JUMP JUMPDEST DUP2 ADD DUP2 DUP2 LT PUSH8 0xFFFFFFFFFFFFFFFF DUP3 GT OR ISZERO PUSH2 0x1C5A JUMPI PUSH2 0x1C59 PUSH2 0x1C05 JUMP JUMPDEST JUMPDEST DUP1 PUSH1 0x40 MSTORE POP POP POP JUMP JUMPDEST PUSH0 PUSH2 0x1C6C PUSH2 0x1863 JUMP JUMPDEST SWAP1 POP PUSH2 0x1C78 DUP3 DUP3 PUSH2 0x1C32 JUMP JUMPDEST SWAP2 SWAP1 POP JUMP JUMPDEST PUSH0 PUSH8 0xFFFFFFFFFFFFFFFF DUP3 GT ISZERO PUSH2 0x1C97 JUMPI PUSH2 0x1C96 PUSH2 0x1C05 JUMP JUMPDEST JUMPDEST PUSH2 0x1CA0 DUP3 PUSH2 0x1BF5 JUMP JUMPDEST SWAP1 POP PUSH1 0x20 DUP2 ADD SWAP1 POP SWAP2 SWAP1 POP JUMP JUMPDEST DUP3 DUP2 DUP4 CALLDATACOPY PUSH0 DUP4 DUP4 ADD MSTORE POP POP POP JUMP JUMPDEST PUSH0 PUSH2 0x1CCD PUSH2 0x1CC8 DUP5 PUSH2 0x1C7D JUMP JUMPDEST PUSH2 0x1C63 JUMP JUMPDEST SWAP1 POP DUP3 DUP2 MSTORE PUSH1 0x20 DUP2 ADD DUP5 DUP5 DUP5 ADD GT ISZERO PUSH2 0x1CE9 JUMPI PUSH2 0x1CE8 PUSH2 0x1BF1 JUMP JUMPDEST JUMPDEST PUSH2 0x1CF4 DUP5 DUP3 DUP6 PUSH2 0x1CAD JUMP JUMPDEST POP SWAP4 SWAP3 POP POP POP JUMP JUMPDEST PUSH0 DUP3 PUSH1 0x1F DUP4 ADD SLT PUSH2 0x1D10 JUMPI PUSH2 0x1D0F PUSH2 0x1BED JUMP JUMPDEST JUMPDEST DUP2 CALLDATALOAD PUSH2 0x1D20 DUP5 DUP3 PUSH1 0x20 DUP7 ADD PUSH2 0x1CBB JUMP JUMPDEST SWAP2 POP POP SWAP3 SWAP2 POP POP JUMP JUMPDEST PUSH0 PUSH1 0x20 DUP3 DUP5 SUB SLT ISZERO PUSH2 0x1D3E JUMPI PUSH2 0x1D3D PUSH2 0x186C JUMP JUMPDEST JUMPDEST PUSH0 DUP3 ADD CALLDATALOAD PUSH8 0xFFFFFFFFFFFFFFFF DUP2 GT ISZERO PUSH2 0x1D5B JUMPI PUSH2 0x1D5A PUSH2 0x1870 JUMP JUMPDEST JUMPDEST PUSH2 0x1D67 DUP5 DUP3 DUP6 ADD PUSH2 0x1CFC JUMP JUMPDEST SWAP2 POP POP SWAP3 SWAP2 POP POP JUMP JUMPDEST PUSH0 PUSH1 0x20 DUP3 ADD SWAP1 POP PUSH2 0x1D83 PUSH0 DUP4 ADD DUP5 PUSH2 0x1966 JUMP JUMPDEST SWAP3 SWAP2 POP POP JUMP JUMPDEST PUSH0 DUP1 PUSH1 0x40 DUP4 DUP6 SUB SLT ISZERO PUSH2 0x1D9F JUMPI PUSH2 0x1D9E PUSH2 0x186C JUMP JUMPDEST JUMPDEST PUSH0 PUSH2 0x1DAC DUP6 DUP3 DUP7 ADD PUSH2 0x19C0 JUMP JUMPDEST SWAP3 POP POP PUSH1 0x20 PUSH2 0x1DBD DUP6 DUP3 DUP7 ADD PUSH2 0x18ED JUMP JUMPDEST SWAP2 POP POP SWAP3 POP SWAP3 SWAP1 POP JUMP JUMPDEST PUSH0 PUSH1 0x20 DUP3 ADD SWAP1 POP PUSH2 0x1DDA PUSH0 DUP4 ADD DUP5 PUSH2 0x194E JUMP JUMPDEST SWAP3 SWAP2 POP POP JUMP JUMPDEST PUSH0 DUP3 DUP3 MSTORE PUSH1 0x20 DUP3 ADD SWAP1 POP SWAP3 SWAP2 POP POP JUMP JUMPDEST PUSH32 0x4E6F74206C697374656400000000000000000000000000000000000000000000 PUSH0 DUP3 ADD MSTORE POP JUMP JUMPDEST PUSH0 PUSH2 0x1E24 PUSH1 0xA DUP4 PUSH2 0x1DE0 JUMP JUMPDEST SWAP2 POP PUSH2 0x1E2F DUP3 PUSH2 0x1DF0 JUMP JUMPDEST PUSH1 0x20 DUP3 ADD SWAP1 POP SWAP2 SWAP1 POP JUMP JUMPDEST PUSH0 PUSH1 0x20 DUP3 ADD SWAP1 POP DUP2 DUP2 SUB PUSH0 DUP4 ADD MSTORE PUSH2 0x1E51 DUP2 PUSH2 0x1E18 JUMP JUMPDEST SWAP1 POP SWAP2 SWAP1 POP JUMP JUMPDEST PUSH0 PUSH1 0x60 DUP3 ADD SWAP1 POP PUSH2 0x1E6B PUSH0 DUP4 ADD DUP7 PUSH2 0x194E JUMP JUMPDEST PUSH2 0x1E78 PUSH1 0x20 DUP4 ADD DUP6 PUSH2 0x194E JUMP JUMPDEST PUSH2 0x1E85 PUSH1 0x40 DUP4 ADD DUP5 PUSH2 0x193F JUMP JUMPDEST SWAP5 SWAP4 POP POP POP POP JUMP JUMPDEST PUSH0 DUP2 ISZERO ISZERO SWAP1 POP SWAP2 SWAP1 POP JUMP JUMPDEST PUSH2 0x1EA1 DUP2 PUSH2 0x1E8D JUMP JUMPDEST DUP2 EQ PUSH2 0x1EAB JUMPI PUSH0 DUP1 REVERT JUMPDEST POP JUMP JUMPDEST PUSH0 DUP2 MLOAD SWAP1 POP PUSH2 0x1EBC DUP2 PUSH2 0x1E98 JUMP JUMPDEST SWAP3 SWAP2 POP POP JUMP JUMPDEST PUSH0 PUSH1 0x20 DUP3 DUP5 SUB SLT ISZERO PUSH2 0x1ED7 JUMPI PUSH2 0x1ED6 PUSH2 0x186C JUMP JUMPDEST JUMPDEST PUSH0 PUSH2 0x1EE4 DUP5 DUP3 DUP6 ADD PUSH2 0x1EAE JUMP JUMPDEST SWAP2 POP POP SWAP3 SWAP2 POP POP JUMP JUMPDEST PUSH32 0x5061796D656E74206661696C6564000000000000000000000000000000000000 PUSH0 DUP3 ADD MSTORE POP JUMP JUMPDEST PUSH0 PUSH2 0x1F21 PUSH1 0xE DUP4 PUSH2 0x1DE0 JUMP JUMPDEST SWAP2 POP PUSH2 0x1F2C DUP3 PUSH2 0x1EED JUMP JUMPDEST PUSH1 0x20 DUP3 ADD SWAP1 POP SWAP2 SWAP1 POP JUMP JUMPDEST PUSH0 PUSH1 0x20 DUP3 ADD SWAP1 POP DUP2 DUP2 SUB PUSH0 DUP4 ADD MSTORE PUSH2 0x1F4E DUP2 PUSH2 0x1F15 JUMP JUMPDEST SWAP1 POP SWAP2 SWAP1 POP JUMP JUMPDEST PUSH0 DUP2 MLOAD SWAP1 POP PUSH2 0x1F63 DUP2 PUSH2 0x18A4 JUMP JUMPDEST SWAP3 SWAP2 POP POP JUMP JUMPDEST PUSH0 PUSH1 0x20 DUP3 DUP5 SUB SLT ISZERO PUSH2 0x1F7E JUMPI PUSH2 0x1F7D PUSH2 0x186C JUMP JUMPDEST JUMPDEST PUSH0 PUSH2 0x1F8B DUP5 DUP3 DUP6 ADD PUSH2 0x1F55 JUMP JUMPDEST SWAP2 POP POP SWAP3 SWAP2 POP POP JUMP JUMPDEST PUSH32 0x4E6F7420746865206F776E657200000000000000000000000000000000000000 PUSH0 DUP3 ADD MSTORE POP JUMP JUMPDEST PUSH0 PUSH2 0x1FC8 PUSH1 0xD DUP4 PUSH2 0x1DE0 JUMP JUMPDEST SWAP2 POP PUSH2 0x1FD3 DUP3 PUSH2 0x1F94 JUMP JUMPDEST PUSH1 0x20 DUP3 ADD SWAP1 POP SWAP2 SWAP1 POP JUMP JUMPDEST PUSH0 PUSH1 0x20 DUP3 ADD SWAP1 POP DUP2 DUP2 SUB PUSH0 DUP4 ADD MSTORE PUSH2 0x1FF5 DUP2 PUSH2 0x1FBC JUMP JUMPDEST SWAP1 POP SWAP2 SWAP1 POP JUMP JUMPDEST PUSH32 0x416C7265616479206C6973746564000000000000000000000000000000000000 PUSH0 DUP3 ADD MSTORE POP JUMP JUMPDEST PUSH0 PUSH2 0x2030 PUSH1 0xE DUP4 PUSH2 0x1DE0 JUMP JUMPDEST SWAP2 POP PUSH2 0x203B DUP3 PUSH2 0x1FFC JUMP JUMPDEST PUSH1 0x20 DUP3 ADD SWAP1 POP SWAP2 SWAP1 POP JUMP JUMPDEST PUSH0 PUSH1 0x20 DUP3 ADD SWAP1 POP DUP2 DUP2 SUB PUSH0 DUP4 ADD MSTORE PUSH2 0x205D DUP2 PUSH2 0x2024 JUMP JUMPDEST SWAP1 POP SWAP2 SWAP1 POP JUMP JUMPDEST PUSH32 0x5072696365203E20300000000000000000000000000000000000000000000000 PUSH0 DUP3 ADD MSTORE POP JUMP JUMPDEST PUSH0 PUSH2 0x2098 PUSH1 0x9 DUP4 PUSH2 0x1DE0 JUMP JUMPDEST SWAP2 POP PUSH2 0x20A3 DUP3 PUSH2 0x2064 JUMP JUMPDEST PUSH1 0x20 DUP3 ADD SWAP1 POP SWAP2 SWAP1 POP JUMP JUMPDEST PUSH0 PUSH1 0x20 DUP3 ADD SWAP1 POP DUP2 DUP2 SUB PUSH0 DUP4 ADD MSTORE PUSH2 0x20C5 DUP2 PUSH2 0x208C JUMP JUMPDEST SWAP1 POP SWAP2 SWAP1 POP JUMP JUMPDEST PUSH32 0x4E6F7420617070726F7665640000000000000000000000000000000000000000 PUSH0 DUP3 ADD MSTORE POP JUMP JUMPDEST PUSH0 PUSH2 0x2100 PUSH1 0xC DUP4 PUSH2 0x1DE0 JUMP JUMPDEST SWAP2 POP PUSH2 0x210B DUP3 PUSH2 0x20CC JUMP JUMPDEST PUSH1 0x20 DUP3 ADD SWAP1 POP SWAP2 SWAP1 POP JUMP JUMPDEST PUSH0 PUSH1 0x20 DUP3 ADD SWAP1 POP DUP2 DUP2 SUB PUSH0 DUP4 ADD MSTORE PUSH2 0x212D DUP2 PUSH2 0x20F4 JUMP JUMPDEST SWAP1 POP SWAP2 SWAP1 POP JUMP JUMPDEST PUSH0 PUSH1 0x40 DUP3 ADD SWAP1 POP PUSH2 0x2147 PUSH0 DUP4 ADD DUP6 PUSH2 0x193F JUMP JUMPDEST PUSH2 0x2154 PUSH1 0x20 DUP4 ADD DUP5 PUSH2 0x1966 JUMP JUMPDEST SWAP4 SWAP3 POP POP POP JUMP JUMPDEST PUSH32 0x546F6F206C6F6E67000000000000000000000000000000000000000000000000 PUSH0 DUP3 ADD MSTORE POP JUMP JUMPDEST PUSH0 PUSH2 0x218F PUSH1 0x8 DUP4 PUSH2 0x1DE0 JUMP JUMPDEST SWAP2 POP PUSH2 0x219A DUP3 PUSH2 0x215B JUMP JUMPDEST PUSH1 0x20 DUP3 ADD SWAP1 POP SWAP2 SWAP1 POP JUMP JUMPDEST PUSH0 PUSH1 0x20 DUP3 ADD SWAP1 POP DUP2 DUP2 SUB PUSH0 DUP4 ADD MSTORE PUSH2 0x21BC DUP2 PUSH2 0x2183 JUMP JUMPDEST SWAP1 POP SWAP2 SWAP1 POP JUMP JUMPDEST PUSH32 0x4269642065786973747300000000000000000000000000000000000000000000 PUSH0 DUP3 ADD MSTORE POP JUMP JUMPDEST PUSH0 PUSH2 0x21F7 PUSH1 0xA DUP4 PUSH2 0x1DE0 JUMP JUMPDEST SWAP2 POP PUSH2 0x2202 DUP3 PUSH2 0x21C3 JUMP JUMPDEST PUSH1 0x20 DUP3 ADD SWAP1 POP SWAP2 SWAP1 POP JUMP JUMPDEST PUSH0 PUSH1 0x20 DUP3 ADD SWAP1 POP DUP2 DUP2 SUB PUSH0 DUP4 ADD MSTORE PUSH2 0x2224 DUP2 PUSH2 0x21EB JUMP JUMPDEST SWAP1 POP SWAP2 SWAP1 POP JUMP JUMPDEST PUSH32 0x5472616E73666572206661696C65640000000000000000000000000000000000 PUSH0 DUP3 ADD MSTORE POP JUMP JUMPDEST PUSH0 PUSH2 0x225F PUSH1 0xF DUP4 PUSH2 0x1DE0 JUMP JUMPDEST SWAP2 POP PUSH2 0x226A DUP3 PUSH2 0x222B JUMP JUMPDEST PUSH1 0x20 DUP3 ADD SWAP1 POP SWAP2 SWAP1 POP JUMP JUMPDEST PUSH0 PUSH1 0x20 DUP3 ADD SWAP1 POP DUP2 DUP2 SUB PUSH0 DUP4 ADD MSTORE PUSH2 0x228C DUP2 PUSH2 0x2253 JUMP JUMPDEST SWAP1 POP SWAP2 SWAP1 POP JUMP JUMPDEST PUSH32 0x4E487B7100000000000000000000000000000000000000000000000000000000 PUSH0 MSTORE PUSH1 0x32 PUSH1 0x4 MSTORE PUSH1 0x24 PUSH0 REVERT JUMPDEST PUSH0 PUSH1 0x40 DUP3 ADD SWAP1 POP PUSH2 0x22D3 PUSH0 DUP4 ADD DUP6 PUSH2 0x194E JUMP JUMPDEST PUSH2 0x22E0 PUSH1 0x20 DUP4 ADD DUP5 PUSH2 0x193F JUMP JUMPDEST SWAP4 SWAP3 POP POP POP JUMP JUMPDEST PUSH32 0x5061792073656C6C6572206661696C0000000000000000000000000000000000 PUSH0 DUP3 ADD MSTORE POP JUMP JUMPDEST PUSH0 PUSH2 0x231B PUSH1 0xF DUP4 PUSH2 0x1DE0 JUMP JUMPDEST SWAP2 POP PUSH2 0x2326 DUP3 PUSH2 0x22E7 JUMP JUMPDEST PUSH1 0x20 DUP3 ADD SWAP1 POP SWAP2 SWAP1 POP JUMP JUMPDEST PUSH0 PUSH1 0x20 DUP3 ADD SWAP1 POP DUP2 DUP2 SUB PUSH0 DUP4 ADD MSTORE PUSH2 0x2348 DUP2 PUSH2 0x230F JUMP JUMPDEST SWAP1 POP SWAP2 SWAP1 POP JUMP JUMPDEST PUSH32 0x5265656E7472616E637947756172643A207265656E7472616E742063616C6C00 PUSH0 DUP3 ADD MSTORE POP JUMP JUMPDEST PUSH0 PUSH2 0x2383 PUSH1 0x1F DUP4 PUSH2 0x1DE0 JUMP JUMPDEST SWAP2 POP PUSH2 0x238E DUP3 PUSH2 0x234F JUMP JUMPDEST PUSH1 0x20 DUP3 ADD SWAP1 POP SWAP2 SWAP1 POP JUMP JUMPDEST PUSH0 PUSH1 0x20 DUP3 ADD SWAP1 POP DUP2 DUP2 SUB PUSH0 DUP4 ADD MSTORE PUSH2 0x23B0 DUP2 PUSH2 0x2377 JUMP JUMPDEST SWAP1 POP SWAP2 SWAP1 POP JUMP JUMPDEST PUSH32 0x4E487B7100000000000000000000000000000000000000000000000000000000 PUSH0 MSTORE PUSH1 0x11 PUSH1 0x4 MSTORE PUSH1 0x24 PUSH0 REVERT JUMPDEST PUSH0 PUSH2 0x23EE DUP3 PUSH2 0x18CE JUMP JUMPDEST SWAP2 POP PUSH2 0x23F9 DUP4 PUSH2 0x18CE JUMP JUMPDEST SWAP3 POP DUP3 DUP3 SUB SWAP1 POP DUP2 DUP2 GT ISZERO PUSH2 0x2411 JUMPI PUSH2 0x2410 PUSH2 0x23B7 JUMP JUMPDEST JUMPDEST SWAP3 SWAP2 POP POP JUMP JUMPDEST PUSH32 0x4E487B7100000000000000000000000000000000000000000000000000000000 PUSH0 MSTORE PUSH1 0x31 PUSH1 0x4 MSTORE PUSH1 0x24 PUSH0 REVERT INVALID LOG2 PUSH5 0x6970667358 0x22 SLT KECCAK256 MCOPY 0x2E 0xE9 GAS CALLVALUE SHL PUSH2 0xD75C SMOD PUSH28 0xC9BAEE362CEAA89FBE285A9353DA61098D072098AE64736F6C634300 ADDMOD BYTE STOP CALLER "
				},
				"gasEstimates": {
					"creation": {
						"codeDepositCost": "1867600",
						"executionCost": "infinite",
						"totalCost": "infinite"
					},
					"external": {
						"buyNFT(address,uint256)": "infinite",
						"cancelListing(address,uint256)": "infinite",
						"getListing(address,uint256)": "infinite",
						"groupBids(bytes32)": "5061",
						"groupContracts(bytes32,uint256)": "5270",
						"groupTokenIds(bytes32,address,uint256)": "infinite",
						"listNFT(address,uint256,uint256,bytes32)": "infinite",
						"listings(address,uint256)": "infinite",
						"paymentToken()": "infinite",
						"placeGroupBid(bytes32,uint256)": "infinite",
						"stringToBytes32(string)": "infinite"
					},
					"internal": {
						"_removeTokenIdFromGroup(bytes32,address,uint256)": "infinite"
					}
				},
				"methodIdentifiers": {
					"buyNFT(address,uint256)": "a82ba76f",
					"cancelListing(address,uint256)": "b2ddee06",
					"getListing(address,uint256)": "88700d1c",
					"groupBids(bytes32)": "b18e0550",
					"groupContracts(bytes32,uint256)": "db7d8756",
					"groupTokenIds(bytes32,address,uint256)": "102e391d",
					"listNFT(address,uint256,uint256,bytes32)": "c42753f3",
					"listings(address,uint256)": "0007df30",
					"paymentToken()": "3013ce29",
					"placeGroupBid(bytes32,uint256)": "f5c9ab24",
					"stringToBytes32(string)": "cfb51928"
				}
			},
			"storageLayout": {
				"storage": [
					{
						"astId": 10,
						"contract": "marketplace2.sol:NFTMarketplaceWithERC20",
						"label": "_status",
						"offset": 0,
						"slot": "0",
						"type": "t_uint256"
					},
					{
						"astId": 293,
						"contract": "marketplace2.sol:NFTMarketplaceWithERC20",
						"label": "paymentToken",
						"offset": 0,
						"slot": "1",
						"type": "t_contract(IERC20)142"
					},
					{
						"astId": 300,
						"contract": "marketplace2.sol:NFTMarketplaceWithERC20",
						"label": "listings",
						"offset": 0,
						"slot": "2",
						"type": "t_mapping(t_address,t_mapping(t_uint256,t_struct(Listing)285_storage))"
					},
					{
						"astId": 305,
						"contract": "marketplace2.sol:NFTMarketplaceWithERC20",
						"label": "groupBids",
						"offset": 0,
						"slot": "3",
						"type": "t_mapping(t_bytes32,t_struct(Bid)290_storage)"
					},
					{
						"astId": 310,
						"contract": "marketplace2.sol:NFTMarketplaceWithERC20",
						"label": "groupContracts",
						"offset": 0,
						"slot": "4",
						"type": "t_mapping(t_bytes32,t_array(t_address)dyn_storage)"
					},
					{
						"astId": 317,
						"contract": "marketplace2.sol:NFTMarketplaceWithERC20",
						"label": "groupTokenIds",
						"offset": 0,
						"slot": "5",
						"type": "t_mapping(t_bytes32,t_mapping(t_address,t_array(t_uint256)dyn_storage))"
					}
				],
				"types": {
					"t_address": {
						"encoding": "inplace",
						"label": "address",
						"numberOfBytes": "20"
					},
					"t_array(t_address)dyn_storage": {
						"base": "t_address",
						"encoding": "dynamic_array",
						"label": "address[]",
						"numberOfBytes": "32"
					},
					"t_array(t_uint256)dyn_storage": {
						"base": "t_uint256",
						"encoding": "dynamic_array",
						"label": "uint256[]",
						"numberOfBytes": "32"
					},
					"t_bytes32": {
						"encoding": "inplace",
						"label": "bytes32",
						"numberOfBytes": "32"
					},
					"t_contract(IERC20)142": {
						"encoding": "inplace",
						"label": "contract IERC20",
						"numberOfBytes": "20"
					},
					"t_mapping(t_address,t_array(t_uint256)dyn_storage)": {
						"encoding": "mapping",
						"key": "t_address",
						"label": "mapping(address => uint256[])",
						"numberOfBytes": "32",
						"value": "t_array(t_uint256)dyn_storage"
					},
					"t_mapping(t_address,t_mapping(t_uint256,t_struct(Listing)285_storage))": {
						"encoding": "mapping",
						"key": "t_address",
						"label": "mapping(address => mapping(uint256 => struct NFTMarketplaceWithERC20.Listing))",
						"numberOfBytes": "32",
						"value": "t_mapping(t_uint256,t_struct(Listing)285_storage)"
					},
					"t_mapping(t_bytes32,t_array(t_address)dyn_storage)": {
						"encoding": "mapping",
						"key": "t_bytes32",
						"label": "mapping(bytes32 => address[])",
						"numberOfBytes": "32",
						"value": "t_array(t_address)dyn_storage"
					},
					"t_mapping(t_bytes32,t_mapping(t_address,t_array(t_uint256)dyn_storage))": {
						"encoding": "mapping",
						"key": "t_bytes32",
						"label": "mapping(bytes32 => mapping(address => uint256[]))",
						"numberOfBytes": "32",
						"value": "t_mapping(t_address,t_array(t_uint256)dyn_storage)"
					},
					"t_mapping(t_bytes32,t_struct(Bid)290_storage)": {
						"encoding": "mapping",
						"key": "t_bytes32",
						"label": "mapping(bytes32 => struct NFTMarketplaceWithERC20.Bid)",
						"numberOfBytes": "32",
						"value": "t_struct(Bid)290_storage"
					},
					"t_mapping(t_uint256,t_struct(Listing)285_storage)": {
						"encoding": "mapping",
						"key": "t_uint256",
						"label": "mapping(uint256 => struct NFTMarketplaceWithERC20.Listing)",
						"numberOfBytes": "32",
						"value": "t_struct(Listing)285_storage"
					},
					"t_struct(Bid)290_storage": {
						"encoding": "inplace",
						"label": "struct NFTMarketplaceWithERC20.Bid",
						"members": [
							{
								"astId": 287,
								"contract": "marketplace2.sol:NFTMarketplaceWithERC20",
								"label": "price",
								"offset": 0,
								"slot": "0",
								"type": "t_uint256"
							},
							{
								"astId": 289,
								"contract": "marketplace2.sol:NFTMarketplaceWithERC20",
								"label": "buyer",
								"offset": 0,
								"slot": "1",
								"type": "t_address"
							}
						],
						"numberOfBytes": "64"
					},
					"t_struct(Listing)285_storage": {
						"encoding": "inplace",
						"label": "struct NFTMarketplaceWithERC20.Listing",
						"members": [
							{
								"astId": 280,
								"contract": "marketplace2.sol:NFTMarketplaceWithERC20",
								"label": "price",
								"offset": 0,
								"slot": "0",
								"type": "t_uint256"
							},
							{
								"astId": 282,
								"contract": "marketplace2.sol:NFTMarketplaceWithERC20",
								"label": "seller",
								"offset": 0,
								"slot": "1",
								"type": "t_address"
							},
							{
								"astId": 284,
								"contract": "marketplace2.sol:NFTMarketplaceWithERC20",
								"label": "group",
								"offset": 0,
								"slot": "2",
								"type": "t_bytes32"
							}
						],
						"numberOfBytes": "96"
					},
					"t_uint256": {
						"encoding": "inplace",
						"label": "uint256",
						"numberOfBytes": "32"
					}
				}
			},
			"userdoc": {
				"kind": "user",
				"methods": {},
				"version": 1
			}
		}
	}
}