{
	"BCMMarket4.sol": {
		"NFTMarketplaceWithERC20": {
			"abi": [
				{
					"inputs": [
						{
							"internalType": "address",
							"name": "_paymentToken",
							"type": "address"
						}
					],
					"stateMutability": "nonpayable",
					"type": "constructor"
				},
				{
					"anonymous": false,
					"inputs": [
						{
							"indexed": true,
							"internalType": "address",
							"name": "nftContract",
							"type": "address"
						},
						{
							"indexed": true,
							"internalType": "uint256",
							"name": "tokenId",
							"type": "uint256"
						},
						{
							"indexed": false,
							"internalType": "string",
							"name": "reason",
							"type": "string"
						}
					],
					"name": "ListingFailed",
					"type": "event"
				},
				{
					"anonymous": false,
					"inputs": [
						{
							"indexed": true,
							"internalType": "address",
							"name": "nftContract",
							"type": "address"
						},
						{
							"indexed": true,
							"internalType": "uint256",
							"name": "tokenId",
							"type": "uint256"
						},
						{
							"indexed": false,
							"internalType": "uint256",
							"name": "price",
							"type": "uint256"
						},
						{
							"indexed": true,
							"internalType": "address",
							"name": "seller",
							"type": "address"
						},
						{
							"indexed": false,
							"internalType": "uint16",
							"name": "group",
							"type": "uint16"
						}
					],
					"name": "NFTListed",
					"type": "event"
				},
				{
					"anonymous": false,
					"inputs": [
						{
							"indexed": true,
							"internalType": "address",
							"name": "nftContract",
							"type": "address"
						},
						{
							"indexed": true,
							"internalType": "uint256",
							"name": "tokenId",
							"type": "uint256"
						},
						{
							"indexed": true,
							"internalType": "address",
							"name": "seller",
							"type": "address"
						}
					],
					"name": "NFTListingCancelled",
					"type": "event"
				},
				{
					"anonymous": false,
					"inputs": [
						{
							"indexed": true,
							"internalType": "address",
							"name": "nftContract",
							"type": "address"
						},
						{
							"indexed": true,
							"internalType": "uint256",
							"name": "tokenId",
							"type": "uint256"
						},
						{
							"indexed": false,
							"internalType": "uint256",
							"name": "price",
							"type": "uint256"
						},
						{
							"indexed": true,
							"internalType": "address",
							"name": "buyer",
							"type": "address"
						}
					],
					"name": "NFTSold",
					"type": "event"
				},
				{
					"anonymous": false,
					"inputs": [
						{
							"indexed": true,
							"internalType": "address",
							"name": "nftContract",
							"type": "address"
						},
						{
							"indexed": true,
							"internalType": "uint256",
							"name": "tokenId",
							"type": "uint256"
						},
						{
							"indexed": false,
							"internalType": "string",
							"name": "reason",
							"type": "string"
						}
					],
					"name": "PurchaseFailed",
					"type": "event"
				},
				{
					"inputs": [
						{
							"internalType": "uint16",
							"name": "group",
							"type": "uint16"
						},
						{
							"internalType": "address",
							"name": "nftContract",
							"type": "address"
						},
						{
							"internalType": "uint256",
							"name": "maxTotal",
							"type": "uint256"
						}
					],
					"name": "buyGroup",
					"outputs": [
						{
							"internalType": "uint256[]",
							"name": "purchased",
							"type": "uint256[]"
						}
					],
					"stateMutability": "nonpayable",
					"type": "function"
				},
				{
					"inputs": [
						{
							"internalType": "address",
							"name": "nftContract",
							"type": "address"
						},
						{
							"internalType": "uint256",
							"name": "tokenId",
							"type": "uint256"
						}
					],
					"name": "buyNFT",
					"outputs": [
						{
							"internalType": "bool",
							"name": "success",
							"type": "bool"
						}
					],
					"stateMutability": "nonpayable",
					"type": "function"
				},
				{
					"inputs": [
						{
							"internalType": "address",
							"name": "nftContract",
							"type": "address"
						},
						{
							"internalType": "uint256",
							"name": "tokenId",
							"type": "uint256"
						}
					],
					"name": "cancelListing",
					"outputs": [],
					"stateMutability": "nonpayable",
					"type": "function"
				},
				{
					"inputs": [
						{
							"internalType": "uint16",
							"name": "group",
							"type": "uint16"
						},
						{
							"internalType": "address",
							"name": "nftContract",
							"type": "address"
						}
					],
					"name": "getAllGroupTokenIds",
					"outputs": [
						{
							"internalType": "uint256[]",
							"name": "",
							"type": "uint256[]"
						}
					],
					"stateMutability": "view",
					"type": "function"
				},
				{
					"inputs": [
						{
							"internalType": "uint16",
							"name": "group",
							"type": "uint16"
						},
						{
							"internalType": "uint256",
							"name": "index",
							"type": "uint256"
						}
					],
					"name": "getGroupContract",
					"outputs": [
						{
							"internalType": "address",
							"name": "",
							"type": "address"
						}
					],
					"stateMutability": "view",
					"type": "function"
				},
				{
					"inputs": [
						{
							"internalType": "uint16",
							"name": "group",
							"type": "uint16"
						}
					],
					"name": "getGroupPrice",
					"outputs": [
						{
							"internalType": "uint256",
							"name": "",
							"type": "uint256"
						}
					],
					"stateMutability": "pure",
					"type": "function"
				},
				{
					"inputs": [
						{
							"internalType": "uint16",
							"name": "group",
							"type": "uint16"
						},
						{
							"internalType": "address",
							"name": "nftContract",
							"type": "address"
						},
						{
							"internalType": "uint256",
							"name": "index",
							"type": "uint256"
						}
					],
					"name": "getGroupTokenId",
					"outputs": [
						{
							"internalType": "uint256",
							"name": "",
							"type": "uint256"
						}
					],
					"stateMutability": "view",
					"type": "function"
				},
				{
					"inputs": [
						{
							"internalType": "uint16",
							"name": "",
							"type": "uint16"
						},
						{
							"internalType": "uint256",
							"name": "",
							"type": "uint256"
						}
					],
					"name": "groupContracts",
					"outputs": [
						{
							"internalType": "address",
							"name": "",
							"type": "address"
						}
					],
					"stateMutability": "view",
					"type": "function"
				},
				{
					"inputs": [
						{
							"internalType": "uint16",
							"name": "",
							"type": "uint16"
						},
						{
							"internalType": "address",
							"name": "",
							"type": "address"
						},
						{
							"internalType": "uint256",
							"name": "",
							"type": "uint256"
						}
					],
					"name": "groupTokenIds",
					"outputs": [
						{
							"internalType": "uint256",
							"name": "",
							"type": "uint256"
						}
					],
					"stateMutability": "view",
					"type": "function"
				},
				{
					"inputs": [
						{
							"internalType": "address",
							"name": "nftContract",
							"type": "address"
						},
						{
							"internalType": "uint256[]",
							"name": "tokenIds",
							"type": "uint256[]"
						},
						{
							"internalType": "uint16",
							"name": "group",
							"type": "uint16"
						}
					],
					"name": "listMany",
					"outputs": [
						{
							"internalType": "uint256[]",
							"name": "listed",
							"type": "uint256[]"
						}
					],
					"stateMutability": "nonpayable",
					"type": "function"
				},
				{
					"inputs": [
						{
							"internalType": "address",
							"name": "nftContract",
							"type": "address"
						},
						{
							"internalType": "uint256",
							"name": "tokenId",
							"type": "uint256"
						},
						{
							"internalType": "uint16",
							"name": "group",
							"type": "uint16"
						}
					],
					"name": "listNFT",
					"outputs": [
						{
							"internalType": "bool",
							"name": "success",
							"type": "bool"
						}
					],
					"stateMutability": "nonpayable",
					"type": "function"
				},
				{
					"inputs": [
						{
							"internalType": "address",
							"name": "",
							"type": "address"
						},
						{
							"internalType": "uint256",
							"name": "",
							"type": "uint256"
						}
					],
					"name": "listings",
					"outputs": [
						{
							"internalType": "address",
							"name": "",
							"type": "address"
						}
					],
					"stateMutability": "view",
					"type": "function"
				},
				{
					"inputs": [],
					"name": "paymentToken",
					"outputs": [
						{
							"internalType": "contract IERC20",
							"name": "",
							"type": "address"
						}
					],
					"stateMutability": "view",
					"type": "function"
				}
			],
			"devdoc": {
				"kind": "dev",
				"methods": {},
				"version": 1
			},
			"evm": {
				"assembly": "    /* \"BCMMarket4.sol\":238:6778  contract NFTMarketplaceWithERC20 is ReentrancyGuard {... */\n  mstore(0x40, 0x80)\n    /* \"BCMMarket4.sol\":1068:1156  constructor(address _paymentToken) {... */\n  callvalue\n  dup1\n  iszero\n  tag_1\n  jumpi\n  0x00\n  dup1\n  revert\ntag_1:\n  pop\n  mload(0x40)\n  sub(codesize, bytecodeSize)\n  dup1\n  bytecodeSize\n  dup4\n  codecopy\n  dup2\n  dup2\n  add\n  0x40\n  mstore\n  dup2\n  add\n  swap1\n  tag_2\n  swap2\n  swap1\n  tag_3\n  jump\t// in\ntag_2:\n    /* \"@openzeppelin/contracts/security/ReentrancyGuard.sol\":1716:1717  1 */\n  0x01\n    /* \"@openzeppelin/contracts/security/ReentrancyGuard.sol\":1821:1828  _status */\n  0x00\n    /* \"@openzeppelin/contracts/security/ReentrancyGuard.sol\":1821:1843  _status = _NOT_ENTERED */\n  dup2\n  swap1\n  sstore\n  pop\n    /* \"BCMMarket4.sol\":1135:1148  _paymentToken */\n  dup1\n    /* \"BCMMarket4.sol\":1113:1125  paymentToken */\n  0x01\n  0x00\n    /* \"BCMMarket4.sol\":1113:1149  paymentToken = IERC20(_paymentToken) */\n  0x0100\n  exp\n  dup2\n  sload\n  dup2\n  0xffffffffffffffffffffffffffffffffffffffff\n  mul\n  not\n  and\n  swap1\n  dup4\n  0xffffffffffffffffffffffffffffffffffffffff\n  and\n  mul\n  or\n  swap1\n  sstore\n  pop\n    /* \"BCMMarket4.sol\":1068:1156  constructor(address _paymentToken) {... */\n  pop\n    /* \"BCMMarket4.sol\":238:6778  contract NFTMarketplaceWithERC20 is ReentrancyGuard {... */\n  jump(tag_8)\n    /* \"#utility.yul\":88:205   */\ntag_10:\n    /* \"#utility.yul\":197:198   */\n  0x00\n    /* \"#utility.yul\":194:195   */\n  dup1\n    /* \"#utility.yul\":187:199   */\n  revert\n    /* \"#utility.yul\":334:460   */\ntag_12:\n    /* \"#utility.yul\":371:378   */\n  0x00\n    /* \"#utility.yul\":411:453   */\n  0xffffffffffffffffffffffffffffffffffffffff\n    /* \"#utility.yul\":404:409   */\n  dup3\n    /* \"#utility.yul\":400:454   */\n  and\n    /* \"#utility.yul\":389:454   */\n  swap1\n  pop\n    /* \"#utility.yul\":334:460   */\n  swap2\n  swap1\n  pop\n  jump\t// out\n    /* \"#utility.yul\":466:562   */\ntag_13:\n    /* \"#utility.yul\":503:510   */\n  0x00\n    /* \"#utility.yul\":532:556   */\n  tag_22\n    /* \"#utility.yul\":550:555   */\n  dup3\n    /* \"#utility.yul\":532:556   */\n  tag_12\n  jump\t// in\ntag_22:\n    /* \"#utility.yul\":521:556   */\n  swap1\n  pop\n    /* \"#utility.yul\":466:562   */\n  swap2\n  swap1\n  pop\n  jump\t// out\n    /* \"#utility.yul\":568:690   */\ntag_14:\n    /* \"#utility.yul\":641:665   */\n  tag_24\n    /* \"#utility.yul\":659:664   */\n  dup2\n    /* \"#utility.yul\":641:665   */\n  tag_13\n  jump\t// in\ntag_24:\n    /* \"#utility.yul\":634:639   */\n  dup2\n    /* \"#utility.yul\":631:666   */\n  eq\n    /* \"#utility.yul\":621:684   */\n  tag_25\n  jumpi\n    /* \"#utility.yul\":680:681   */\n  0x00\n    /* \"#utility.yul\":677:678   */\n  dup1\n    /* \"#utility.yul\":670:682   */\n  revert\n    /* \"#utility.yul\":621:684   */\ntag_25:\n    /* \"#utility.yul\":568:690   */\n  pop\n  jump\t// out\n    /* \"#utility.yul\":696:839   */\ntag_15:\n    /* \"#utility.yul\":753:758   */\n  0x00\n    /* \"#utility.yul\":784:790   */\n  dup2\n    /* \"#utility.yul\":778:791   */\n  mload\n    /* \"#utility.yul\":769:791   */\n  swap1\n  pop\n    /* \"#utility.yul\":800:833   */\n  tag_27\n    /* \"#utility.yul\":827:832   */\n  dup2\n    /* \"#utility.yul\":800:833   */\n  tag_14\n  jump\t// in\ntag_27:\n    /* \"#utility.yul\":696:839   */\n  swap3\n  swap2\n  pop\n  pop\n  jump\t// out\n    /* \"#utility.yul\":845:1196   */\ntag_3:\n    /* \"#utility.yul\":915:921   */\n  0x00\n    /* \"#utility.yul\":964:966   */\n  0x20\n    /* \"#utility.yul\":952:961   */\n  dup3\n    /* \"#utility.yul\":943:950   */\n  dup5\n    /* \"#utility.yul\":939:962   */\n  sub\n    /* \"#utility.yul\":935:967   */\n  slt\n    /* \"#utility.yul\":932:1051   */\n  iszero\n  tag_29\n  jumpi\n    /* \"#utility.yul\":970:1049   */\n  tag_30\n  tag_10\n  jump\t// in\ntag_30:\n    /* \"#utility.yul\":932:1051   */\ntag_29:\n    /* \"#utility.yul\":1090:1091   */\n  0x00\n    /* \"#utility.yul\":1115:1179   */\n  tag_31\n    /* \"#utility.yul\":1171:1178   */\n  dup5\n    /* \"#utility.yul\":1162:1168   */\n  dup3\n    /* \"#utility.yul\":1151:1160   */\n  dup6\n    /* \"#utility.yul\":1147:1169   */\n  add\n    /* \"#utility.yul\":1115:1179   */\n  tag_15\n  jump\t// in\ntag_31:\n    /* \"#utility.yul\":1105:1179   */\n  swap2\n  pop\n    /* \"#utility.yul\":1061:1189   */\n  pop\n    /* \"#utility.yul\":845:1196   */\n  swap3\n  swap2\n  pop\n  pop\n  jump\t// out\n    /* \"BCMMarket4.sol\":238:6778  contract NFTMarketplaceWithERC20 is ReentrancyGuard {... */\ntag_8:\n  dataSize(sub_0)\n  dup1\n  dataOffset(sub_0)\n  0x00\n  codecopy\n  0x00\n  return\nstop\n\nsub_0: assembly {\n        /* \"BCMMarket4.sol\":238:6778  contract NFTMarketplaceWithERC20 is ReentrancyGuard {... */\n      mstore(0x40, 0x80)\n      callvalue\n      dup1\n      iszero\n      tag_1\n      jumpi\n      0x00\n      dup1\n      revert\n    tag_1:\n      pop\n      jumpi(tag_2, lt(calldatasize, 0x04))\n      shr(0xe0, calldataload(0x00))\n      dup1\n      0x496b3d10\n      gt\n      tag_16\n      jumpi\n      dup1\n      0xa82ba76f\n      gt\n      tag_17\n      jumpi\n      dup1\n      0xa82ba76f\n      eq\n      tag_12\n      jumpi\n      dup1\n      0xb2ddee06\n      eq\n      tag_13\n      jumpi\n      dup1\n      0xc02b84a1\n      eq\n      tag_14\n      jumpi\n      dup1\n      0xe2006a98\n      eq\n      tag_15\n      jumpi\n      jump(tag_2)\n    tag_17:\n      dup1\n      0x496b3d10\n      eq\n      tag_9\n      jumpi\n      dup1\n      0x75dbef4f\n      eq\n      tag_10\n      jumpi\n      dup1\n      0x9c3e202d\n      eq\n      tag_11\n      jumpi\n      jump(tag_2)\n    tag_16:\n      dup1\n      0x07df30\n      eq\n      tag_3\n      jumpi\n      dup1\n      0x29d9a791\n      eq\n      tag_4\n      jumpi\n      dup1\n      0x2e49e852\n      eq\n      tag_5\n      jumpi\n      dup1\n      0x3013ce29\n      eq\n      tag_6\n      jumpi\n      dup1\n      0x39edfd4e\n      eq\n      tag_7\n      jumpi\n      dup1\n      0x3ffbab63\n      eq\n      tag_8\n      jumpi\n    tag_2:\n      0x00\n      dup1\n      revert\n        /* \"BCMMarket4.sol\":329:392  mapping(address => mapping(uint256 => address)) public listings */\n    tag_3:\n      tag_18\n      0x04\n      dup1\n      calldatasize\n      sub\n      dup2\n      add\n      swap1\n      tag_19\n      swap2\n      swap1\n      tag_20\n      jump\t// in\n    tag_19:\n      tag_21\n      jump\t// in\n    tag_18:\n      mload(0x40)\n      tag_22\n      swap2\n      swap1\n      tag_23\n      jump\t// in\n    tag_22:\n      mload(0x40)\n      dup1\n      swap2\n      sub\n      swap1\n      return\n        /* \"BCMMarket4.sol\":3998:5381  function buyGroup(uint16 group, address nftContract, uint256 maxTotal) external returns (uint256[] memory purchased) {... */\n    tag_4:\n      tag_24\n      0x04\n      dup1\n      calldatasize\n      sub\n      dup2\n      add\n      swap1\n      tag_25\n      swap2\n      swap1\n      tag_26\n      jump\t// in\n    tag_25:\n      tag_27\n      jump\t// in\n    tag_24:\n      mload(0x40)\n      tag_28\n      swap2\n      swap1\n      tag_29\n      jump\t// in\n    tag_28:\n      mload(0x40)\n      dup1\n      swap2\n      sub\n      swap1\n      return\n        /* \"BCMMarket4.sol\":2168:2655  function listMany(address nftContract, uint256[] calldata tokenIds, uint16 group) external returns (uint256[] memory listed) {... */\n    tag_5:\n      tag_30\n      0x04\n      dup1\n      calldatasize\n      sub\n      dup2\n      add\n      swap1\n      tag_31\n      swap2\n      swap1\n      tag_32\n      jump\t// in\n    tag_31:\n      tag_33\n      jump\t// in\n    tag_30:\n      mload(0x40)\n      tag_34\n      swap2\n      swap1\n      tag_29\n      jump\t// in\n    tag_34:\n      mload(0x40)\n      dup1\n      swap2\n      sub\n      swap1\n      return\n        /* \"BCMMarket4.sol\":296:322  IERC20 public paymentToken */\n    tag_6:\n      tag_35\n      tag_36\n      jump\t// in\n    tag_35:\n      mload(0x40)\n      tag_37\n      swap2\n      swap1\n      tag_38\n      jump\t// in\n    tag_37:\n      mload(0x40)\n      dup1\n      swap2\n      sub\n      swap1\n      return\n        /* \"BCMMarket4.sol\":454:523  mapping(uint16 => mapping(address => uint256[])) public groupTokenIds */\n    tag_7:\n      tag_39\n      0x04\n      dup1\n      calldatasize\n      sub\n      dup2\n      add\n      swap1\n      tag_40\n      swap2\n      swap1\n      tag_26\n      jump\t// in\n    tag_40:\n      tag_41\n      jump\t// in\n    tag_39:\n      mload(0x40)\n      tag_42\n      swap2\n      swap1\n      tag_43\n      jump\t// in\n    tag_42:\n      mload(0x40)\n      dup1\n      swap2\n      sub\n      swap1\n      return\n        /* \"BCMMarket4.sol\":6437:6608  function getGroupTokenId(uint16 group, address nftContract, uint256 index) external view returns (uint256) {... */\n    tag_8:\n      tag_44\n      0x04\n      dup1\n      calldatasize\n      sub\n      dup2\n      add\n      swap1\n      tag_45\n      swap2\n      swap1\n      tag_26\n      jump\t// in\n    tag_45:\n      tag_46\n      jump\t// in\n    tag_44:\n      mload(0x40)\n      tag_47\n      swap2\n      swap1\n      tag_43\n      jump\t// in\n    tag_47:\n      mload(0x40)\n      dup1\n      swap2\n      sub\n      swap1\n      return\n        /* \"BCMMarket4.sol\":398:448  mapping(uint16 => address[]) public groupContracts */\n    tag_9:\n      tag_48\n      0x04\n      dup1\n      calldatasize\n      sub\n      dup2\n      add\n      swap1\n      tag_49\n      swap2\n      swap1\n      tag_50\n      jump\t// in\n    tag_49:\n      tag_51\n      jump\t// in\n    tag_48:\n      mload(0x40)\n      tag_52\n      swap2\n      swap1\n      tag_23\n      jump\t// in\n    tag_52:\n      mload(0x40)\n      dup1\n      swap2\n      sub\n      swap1\n      return\n        /* \"BCMMarket4.sol\":6614:6776  function getAllGroupTokenIds(uint16 group, address nftContract) external view returns (uint256[] memory) {... */\n    tag_10:\n      tag_53\n      0x04\n      dup1\n      calldatasize\n      sub\n      dup2\n      add\n      swap1\n      tag_54\n      swap2\n      swap1\n      tag_55\n      jump\t// in\n    tag_54:\n      tag_56\n      jump\t// in\n    tag_53:\n      mload(0x40)\n      tag_57\n      swap2\n      swap1\n      tag_29\n      jump\t// in\n    tag_57:\n      mload(0x40)\n      dup1\n      swap2\n      sub\n      swap1\n      return\n        /* \"BCMMarket4.sol\":1369:2162  function listNFT(address nftContract, uint256 tokenId, uint16 group)... */\n    tag_11:\n      tag_58\n      0x04\n      dup1\n      calldatasize\n      sub\n      dup2\n      add\n      swap1\n      tag_59\n      swap2\n      swap1\n      tag_60\n      jump\t// in\n    tag_59:\n      tag_61\n      jump\t// in\n    tag_58:\n      mload(0x40)\n      tag_62\n      swap2\n      swap1\n      tag_63\n      jump\t// in\n    tag_62:\n      mload(0x40)\n      dup1\n      swap2\n      sub\n      swap1\n      return\n        /* \"BCMMarket4.sol\":3115:3992  function buyNFT(address nftContract, uint256 tokenId) public nonReentrant returns (bool success) {... */\n    tag_12:\n      tag_64\n      0x04\n      dup1\n      calldatasize\n      sub\n      dup2\n      add\n      swap1\n      tag_65\n      swap2\n      swap1\n      tag_20\n      jump\t// in\n    tag_65:\n      tag_66\n      jump\t// in\n    tag_64:\n      mload(0x40)\n      tag_67\n      swap2\n      swap1\n      tag_63\n      jump\t// in\n    tag_67:\n      mload(0x40)\n      dup1\n      swap2\n      sub\n      swap1\n      return\n        /* \"BCMMarket4.sol\":2661:3109  function cancelListing(address nftContract, uint256 tokenId)... */\n    tag_13:\n      tag_68\n      0x04\n      dup1\n      calldatasize\n      sub\n      dup2\n      add\n      swap1\n      tag_69\n      swap2\n      swap1\n      tag_20\n      jump\t// in\n    tag_69:\n      tag_70\n      jump\t// in\n    tag_68:\n      stop\n        /* \"BCMMarket4.sol\":5387:5543  function getGroupPrice(uint16 group) public pure returns (uint256) {... */\n    tag_14:\n      tag_71\n      0x04\n      dup1\n      calldatasize\n      sub\n      dup2\n      add\n      swap1\n      tag_72\n      swap2\n      swap1\n      tag_73\n      jump\t// in\n    tag_72:\n      tag_74\n      jump\t// in\n    tag_71:\n      mload(0x40)\n      tag_75\n      swap2\n      swap1\n      tag_43\n      jump\t// in\n    tag_75:\n      mload(0x40)\n      dup1\n      swap2\n      sub\n      swap1\n      return\n        /* \"BCMMarket4.sol\":6292:6431  function getGroupContract(uint16 group, uint256 index) external view returns (address) {... */\n    tag_15:\n      tag_76\n      0x04\n      dup1\n      calldatasize\n      sub\n      dup2\n      add\n      swap1\n      tag_77\n      swap2\n      swap1\n      tag_50\n      jump\t// in\n    tag_77:\n      tag_78\n      jump\t// in\n    tag_76:\n      mload(0x40)\n      tag_79\n      swap2\n      swap1\n      tag_23\n      jump\t// in\n    tag_79:\n      mload(0x40)\n      dup1\n      swap2\n      sub\n      swap1\n      return\n        /* \"BCMMarket4.sol\":329:392  mapping(address => mapping(uint256 => address)) public listings */\n    tag_21:\n      mstore(0x20, 0x02)\n      dup2\n      0x00\n      mstore\n      mstore(0x20, keccak256(0x00, 0x40))\n      dup1\n      0x00\n      mstore\n      keccak256(0x00, 0x40)\n      0x00\n      swap2\n      pop\n      swap2\n      pop\n      swap1\n      sload\n      swap1\n      0x0100\n      exp\n      swap1\n      div\n      0xffffffffffffffffffffffffffffffffffffffff\n      and\n      dup2\n      jump\t// out\n        /* \"BCMMarket4.sol\":3998:5381  function buyGroup(uint16 group, address nftContract, uint256 maxTotal) external returns (uint256[] memory purchased) {... */\n    tag_27:\n        /* \"BCMMarket4.sol\":4087:4113  uint256[] memory purchased */\n      0x60\n        /* \"BCMMarket4.sol\":4125:4150  uint256[] memory tokenIds */\n      0x00\n        /* \"BCMMarket4.sol\":4153:4166  groupTokenIds */\n      0x04\n        /* \"BCMMarket4.sol\":4153:4173  groupTokenIds[group] */\n      0x00\n        /* \"BCMMarket4.sol\":4167:4172  group */\n      dup7\n        /* \"BCMMarket4.sol\":4153:4173  groupTokenIds[group] */\n      0xffff\n      and\n      0xffff\n      and\n      dup2\n      mstore\n      0x20\n      add\n      swap1\n      dup2\n      mstore\n      0x20\n      add\n      0x00\n      keccak256\n        /* \"BCMMarket4.sol\":4153:4186  groupTokenIds[group][nftContract] */\n      0x00\n        /* \"BCMMarket4.sol\":4174:4185  nftContract */\n      dup6\n        /* \"BCMMarket4.sol\":4153:4186  groupTokenIds[group][nftContract] */\n      0xffffffffffffffffffffffffffffffffffffffff\n      and\n      0xffffffffffffffffffffffffffffffffffffffff\n      and\n      dup2\n      mstore\n      0x20\n      add\n      swap1\n      dup2\n      mstore\n      0x20\n      add\n      0x00\n      keccak256\n        /* \"BCMMarket4.sol\":4125:4186  uint256[] memory tokenIds = groupTokenIds[group][nftContract] */\n      dup1\n      sload\n      dup1\n      0x20\n      mul\n      0x20\n      add\n      mload(0x40)\n      swap1\n      dup2\n      add\n      0x40\n      mstore\n      dup1\n      swap3\n      swap2\n      swap1\n      dup2\n      dup2\n      mstore\n      0x20\n      add\n      dup3\n      dup1\n      sload\n      dup1\n      iszero\n      tag_81\n      jumpi\n      0x20\n      mul\n      dup3\n      add\n      swap2\n      swap1\n      0x00\n      mstore\n      keccak256(0x00, 0x20)\n      swap1\n    tag_82:\n      dup2\n      sload\n      dup2\n      mstore\n      0x20\n      add\n      swap1\n      0x01\n      add\n      swap1\n      dup1\n      dup4\n      gt\n      tag_82\n      jumpi\n    tag_81:\n      pop\n      pop\n      pop\n      pop\n      pop\n      swap1\n      pop\n        /* \"BCMMarket4.sol\":4222:4230  tokenIds */\n      dup1\n        /* \"BCMMarket4.sol\":4222:4237  tokenIds.length */\n      mload\n        /* \"BCMMarket4.sol\":4208:4238  new uint256[](tokenIds.length) */\n      0xffffffffffffffff\n      dup2\n      gt\n      iszero\n      tag_83\n      jumpi\n      tag_84\n      tag_85\n      jump\t// in\n    tag_84:\n    tag_83:\n      mload(0x40)\n      swap1\n      dup1\n      dup3\n      mstore\n      dup1\n      0x20\n      mul\n      0x20\n      add\n      dup3\n      add\n      0x40\n      mstore\n      dup1\n      iszero\n      tag_86\n      jumpi\n      dup2\n      0x20\n      add\n      0x20\n      dup3\n      mul\n      dup1\n      calldatasize\n      dup4\n      calldatacopy\n      dup1\n      dup3\n      add\n      swap2\n      pop\n      pop\n      swap1\n      pop\n    tag_86:\n      pop\n        /* \"BCMMarket4.sol\":4196:4238  purchased = new uint256[](tokenIds.length) */\n      swap2\n      pop\n        /* \"BCMMarket4.sol\":4248:4261  uint256 count */\n      0x00\n        /* \"BCMMarket4.sol\":4275:4293  uint256 totalSpent */\n      dup1\n        /* \"BCMMarket4.sol\":4312:4321  uint256 i */\n      0x00\n        /* \"BCMMarket4.sol\":4307:5329  for (uint256 i = 0; i < tokenIds.length; i++) {... */\n    tag_87:\n        /* \"BCMMarket4.sol\":4331:4339  tokenIds */\n      dup4\n        /* \"BCMMarket4.sol\":4331:4346  tokenIds.length */\n      mload\n        /* \"BCMMarket4.sol\":4327:4328  i */\n      dup2\n        /* \"BCMMarket4.sol\":4327:4346  i < tokenIds.length */\n      lt\n        /* \"BCMMarket4.sol\":4307:5329  for (uint256 i = 0; i < tokenIds.length; i++) {... */\n      iszero\n      tag_88\n      jumpi\n        /* \"BCMMarket4.sol\":4367:4382  uint256 tokenId */\n      0x00\n        /* \"BCMMarket4.sol\":4385:4393  tokenIds */\n      dup5\n        /* \"BCMMarket4.sol\":4394:4395  i */\n      dup3\n        /* \"BCMMarket4.sol\":4385:4396  tokenIds[i] */\n      dup2\n      mload\n      dup2\n      lt\n      tag_90\n      jumpi\n      tag_91\n      tag_92\n      jump\t// in\n    tag_91:\n    tag_90:\n      0x20\n      mul\n      0x20\n      add\n      add\n      mload\n        /* \"BCMMarket4.sol\":4367:4396  uint256 tokenId = tokenIds[i] */\n      swap1\n      pop\n        /* \"BCMMarket4.sol\":4456:4457  0 */\n      0x00\n        /* \"BCMMarket4.sol\":4414:4458  listings[nftContract][tokenId] == address(0) */\n      0xffffffffffffffffffffffffffffffffffffffff\n      and\n        /* \"BCMMarket4.sol\":4414:4422  listings */\n      0x02\n        /* \"BCMMarket4.sol\":4414:4435  listings[nftContract] */\n      0x00\n        /* \"BCMMarket4.sol\":4423:4434  nftContract */\n      dup11\n        /* \"BCMMarket4.sol\":4414:4435  listings[nftContract] */\n      0xffffffffffffffffffffffffffffffffffffffff\n      and\n      0xffffffffffffffffffffffffffffffffffffffff\n      and\n      dup2\n      mstore\n      0x20\n      add\n      swap1\n      dup2\n      mstore\n      0x20\n      add\n      0x00\n      keccak256\n        /* \"BCMMarket4.sol\":4414:4444  listings[nftContract][tokenId] */\n      0x00\n        /* \"BCMMarket4.sol\":4436:4443  tokenId */\n      dup4\n        /* \"BCMMarket4.sol\":4414:4444  listings[nftContract][tokenId] */\n      dup2\n      mstore\n      0x20\n      add\n      swap1\n      dup2\n      mstore\n      0x20\n      add\n      0x00\n      keccak256\n      0x00\n      swap1\n      sload\n      swap1\n      0x0100\n      exp\n      swap1\n      div\n      0xffffffffffffffffffffffffffffffffffffffff\n      and\n        /* \"BCMMarket4.sol\":4414:4458  listings[nftContract][tokenId] == address(0) */\n      0xffffffffffffffffffffffffffffffffffffffff\n      and\n      sub\n        /* \"BCMMarket4.sol\":4410:4468  if (listings[nftContract][tokenId] == address(0)) continue */\n      tag_93\n      jumpi\n        /* \"BCMMarket4.sol\":4460:4468  continue */\n      pop\n      jump(tag_89)\n        /* \"BCMMarket4.sol\":4410:4468  if (listings[nftContract][tokenId] == address(0)) continue */\n    tag_93:\n        /* \"BCMMarket4.sol\":4482:4495  uint256 price */\n      0x00\n        /* \"BCMMarket4.sol\":4498:4518  getGroupPrice(group) */\n      tag_94\n        /* \"BCMMarket4.sol\":4512:4517  group */\n      dup11\n        /* \"BCMMarket4.sol\":4498:4511  getGroupPrice */\n      tag_74\n        /* \"BCMMarket4.sol\":4498:4518  getGroupPrice(group) */\n      jump\t// in\n    tag_94:\n        /* \"BCMMarket4.sol\":4482:4518  uint256 price = getGroupPrice(group) */\n      swap1\n      pop\n        /* \"BCMMarket4.sol\":4557:4565  maxTotal */\n      dup8\n        /* \"BCMMarket4.sol\":4549:4554  price */\n      dup2\n        /* \"BCMMarket4.sol\":4536:4546  totalSpent */\n      dup6\n        /* \"BCMMarket4.sol\":4536:4554  totalSpent + price */\n      tag_95\n      swap2\n      swap1\n      tag_96\n      jump\t// in\n    tag_95:\n        /* \"BCMMarket4.sol\":4536:4565  totalSpent + price > maxTotal */\n      gt\n        /* \"BCMMarket4.sol\":4532:4686  if (totalSpent + price > maxTotal) {... */\n      iszero\n      tag_97\n      jumpi\n        /* \"BCMMarket4.sol\":4618:4625  tokenId */\n      dup2\n        /* \"BCMMarket4.sol\":4605:4616  nftContract */\n      dup10\n        /* \"BCMMarket4.sol\":4590:4645  PurchaseFailed(nftContract, tokenId, \"Budget exceeded\") */\n      0xffffffffffffffffffffffffffffffffffffffff\n      and\n      0x8a8719b9514356483d3fc6f38c0ada5a06a46d633339046c40ee527d7bda0de4\n      mload(0x40)\n      tag_98\n      swap1\n      tag_99\n      jump\t// in\n    tag_98:\n      mload(0x40)\n      dup1\n      swap2\n      sub\n      swap1\n      log3\n        /* \"BCMMarket4.sol\":4663:4671  continue */\n      pop\n      pop\n      jump(tag_89)\n        /* \"BCMMarket4.sol\":4532:4686  if (totalSpent + price > maxTotal) {... */\n    tag_97:\n        /* \"BCMMarket4.sol\":4704:4716  paymentToken */\n      0x01\n      0x00\n      swap1\n      sload\n      swap1\n      0x0100\n      exp\n      swap1\n      div\n      0xffffffffffffffffffffffffffffffffffffffff\n      and\n        /* \"BCMMarket4.sol\":4704:4729  paymentToken.transferFrom */\n      0xffffffffffffffffffffffffffffffffffffffff\n      and\n      0x23b872dd\n        /* \"BCMMarket4.sol\":4730:4740  msg.sender */\n      caller\n        /* \"BCMMarket4.sol\":4742:4750  listings */\n      0x02\n        /* \"BCMMarket4.sol\":4742:4763  listings[nftContract] */\n      0x00\n        /* \"BCMMarket4.sol\":4751:4762  nftContract */\n      dup14\n        /* \"BCMMarket4.sol\":4742:4763  listings[nftContract] */\n      0xffffffffffffffffffffffffffffffffffffffff\n      and\n      0xffffffffffffffffffffffffffffffffffffffff\n      and\n      dup2\n      mstore\n      0x20\n      add\n      swap1\n      dup2\n      mstore\n      0x20\n      add\n      0x00\n      keccak256\n        /* \"BCMMarket4.sol\":4742:4772  listings[nftContract][tokenId] */\n      0x00\n        /* \"BCMMarket4.sol\":4764:4771  tokenId */\n      dup7\n        /* \"BCMMarket4.sol\":4742:4772  listings[nftContract][tokenId] */\n      dup2\n      mstore\n      0x20\n      add\n      swap1\n      dup2\n      mstore\n      0x20\n      add\n      0x00\n      keccak256\n      0x00\n      swap1\n      sload\n      swap1\n      0x0100\n      exp\n      swap1\n      div\n      0xffffffffffffffffffffffffffffffffffffffff\n      and\n        /* \"BCMMarket4.sol\":4774:4779  price */\n      dup5\n        /* \"BCMMarket4.sol\":4704:4780  paymentToken.transferFrom(msg.sender, listings[nftContract][tokenId], price) */\n      mload(0x40)\n      dup5\n      0xffffffff\n      and\n      0xe0\n      shl\n      dup2\n      mstore\n      0x04\n      add\n      tag_100\n      swap4\n      swap3\n      swap2\n      swap1\n      tag_101\n      jump\t// in\n    tag_100:\n      0x20\n      mload(0x40)\n      dup1\n      dup4\n      sub\n      dup2\n      0x00\n      dup8\n      gas\n      call\n      iszero\n      dup1\n      iszero\n      tag_103\n      jumpi\n      returndatasize\n      0x00\n      dup1\n      returndatacopy\n      revert(0x00, returndatasize)\n    tag_103:\n      pop\n      pop\n      pop\n      pop\n      mload(0x40)\n      returndatasize\n      not(0x1f)\n      0x1f\n      dup3\n      add\n      and\n      dup3\n      add\n      dup1\n      0x40\n      mstore\n      pop\n      dup2\n      add\n      swap1\n      tag_104\n      swap2\n      swap1\n      tag_105\n      jump\t// in\n    tag_104:\n        /* \"BCMMarket4.sol\":4699:4900  if (!paymentToken.transferFrom(msg.sender, listings[nftContract][tokenId], price)) {... */\n      tag_106\n      jumpi\n        /* \"BCMMarket4.sol\":4833:4840  tokenId */\n      dup2\n        /* \"BCMMarket4.sol\":4820:4831  nftContract */\n      dup10\n        /* \"BCMMarket4.sol\":4805:4859  PurchaseFailed(nftContract, tokenId, \"Payment failed\") */\n      0xffffffffffffffffffffffffffffffffffffffff\n      and\n      0x8a8719b9514356483d3fc6f38c0ada5a06a46d633339046c40ee527d7bda0de4\n      mload(0x40)\n      tag_107\n      swap1\n      tag_108\n      jump\t// in\n    tag_107:\n      mload(0x40)\n      dup1\n      swap2\n      sub\n      swap1\n      log3\n        /* \"BCMMarket4.sol\":4877:4885  continue */\n      pop\n      pop\n      jump(tag_89)\n        /* \"BCMMarket4.sol\":4699:4900  if (!paymentToken.transferFrom(msg.sender, listings[nftContract][tokenId], price)) {... */\n    tag_106:\n        /* \"BCMMarket4.sol\":4913:4927  address seller */\n      0x00\n        /* \"BCMMarket4.sol\":4930:4938  listings */\n      0x02\n        /* \"BCMMarket4.sol\":4930:4951  listings[nftContract] */\n      0x00\n        /* \"BCMMarket4.sol\":4939:4950  nftContract */\n      dup12\n        /* \"BCMMarket4.sol\":4930:4951  listings[nftContract] */\n      0xffffffffffffffffffffffffffffffffffffffff\n      and\n      0xffffffffffffffffffffffffffffffffffffffff\n      and\n      dup2\n      mstore\n      0x20\n      add\n      swap1\n      dup2\n      mstore\n      0x20\n      add\n      0x00\n      keccak256\n        /* \"BCMMarket4.sol\":4930:4960  listings[nftContract][tokenId] */\n      0x00\n        /* \"BCMMarket4.sol\":4952:4959  tokenId */\n      dup5\n        /* \"BCMMarket4.sol\":4930:4960  listings[nftContract][tokenId] */\n      dup2\n      mstore\n      0x20\n      add\n      swap1\n      dup2\n      mstore\n      0x20\n      add\n      0x00\n      keccak256\n      0x00\n      swap1\n      sload\n      swap1\n      0x0100\n      exp\n      swap1\n      div\n      0xffffffffffffffffffffffffffffffffffffffff\n      and\n        /* \"BCMMarket4.sol\":4913:4960  address seller = listings[nftContract][tokenId] */\n      swap1\n      pop\n        /* \"BCMMarket4.sol\":4981:4989  listings */\n      0x02\n        /* \"BCMMarket4.sol\":4981:5002  listings[nftContract] */\n      0x00\n        /* \"BCMMarket4.sol\":4990:5001  nftContract */\n      dup12\n        /* \"BCMMarket4.sol\":4981:5002  listings[nftContract] */\n      0xffffffffffffffffffffffffffffffffffffffff\n      and\n      0xffffffffffffffffffffffffffffffffffffffff\n      and\n      dup2\n      mstore\n      0x20\n      add\n      swap1\n      dup2\n      mstore\n      0x20\n      add\n      0x00\n      keccak256\n        /* \"BCMMarket4.sol\":4981:5011  listings[nftContract][tokenId] */\n      0x00\n        /* \"BCMMarket4.sol\":5003:5010  tokenId */\n      dup5\n        /* \"BCMMarket4.sol\":4981:5011  listings[nftContract][tokenId] */\n      dup2\n      mstore\n      0x20\n      add\n      swap1\n      dup2\n      mstore\n      0x20\n      add\n      0x00\n      keccak256\n      0x00\n        /* \"BCMMarket4.sol\":4974:5011  delete listings[nftContract][tokenId] */\n      0x0100\n      exp\n      dup2\n      sload\n      swap1\n      0xffffffffffffffffffffffffffffffffffffffff\n      mul\n      not\n      and\n      swap1\n      sstore\n        /* \"BCMMarket4.sol\":5025:5077  _removeTokenIdFromGroup(group, nftContract, tokenId) */\n      tag_109\n        /* \"BCMMarket4.sol\":5049:5054  group */\n      dup12\n        /* \"BCMMarket4.sol\":5056:5067  nftContract */\n      dup12\n        /* \"BCMMarket4.sol\":5069:5076  tokenId */\n      dup6\n        /* \"BCMMarket4.sol\":5025:5048  _removeTokenIdFromGroup */\n      tag_110\n        /* \"BCMMarket4.sol\":5025:5077  _removeTokenIdFromGroup(group, nftContract, tokenId) */\n      jump\t// in\n    tag_109:\n        /* \"BCMMarket4.sol\":5099:5110  nftContract */\n      dup10\n        /* \"BCMMarket4.sol\":5091:5128  IERC721(nftContract).safeTransferFrom */\n      0xffffffffffffffffffffffffffffffffffffffff\n      and\n      0x42842e0e\n        /* \"BCMMarket4.sol\":5129:5135  seller */\n      dup3\n        /* \"BCMMarket4.sol\":5137:5147  msg.sender */\n      caller\n        /* \"BCMMarket4.sol\":5149:5156  tokenId */\n      dup7\n        /* \"BCMMarket4.sol\":5091:5157  IERC721(nftContract).safeTransferFrom(seller, msg.sender, tokenId) */\n      mload(0x40)\n      dup5\n      0xffffffff\n      and\n      0xe0\n      shl\n      dup2\n      mstore\n      0x04\n      add\n      tag_111\n      swap4\n      swap3\n      swap2\n      swap1\n      tag_101\n      jump\t// in\n    tag_111:\n      0x00\n      mload(0x40)\n      dup1\n      dup4\n      sub\n      dup2\n      0x00\n      dup8\n      dup1\n      extcodesize\n      iszero\n      dup1\n      iszero\n      tag_112\n      jumpi\n      0x00\n      dup1\n      revert\n    tag_112:\n      pop\n      gas\n      call\n      iszero\n      dup1\n      iszero\n      tag_114\n      jumpi\n      returndatasize\n      0x00\n      dup1\n      returndatacopy\n      revert(0x00, returndatasize)\n    tag_114:\n      pop\n      pop\n      pop\n      pop\n        /* \"BCMMarket4.sol\":5213:5223  msg.sender */\n      caller\n        /* \"BCMMarket4.sol\":5176:5224  NFTSold(nftContract, tokenId, price, msg.sender) */\n      0xffffffffffffffffffffffffffffffffffffffff\n      and\n        /* \"BCMMarket4.sol\":5197:5204  tokenId */\n      dup4\n        /* \"BCMMarket4.sol\":5184:5195  nftContract */\n      dup12\n        /* \"BCMMarket4.sol\":5176:5224  NFTSold(nftContract, tokenId, price, msg.sender) */\n      0xffffffffffffffffffffffffffffffffffffffff\n      and\n      0x77c3ced349b08a2af4e9d443fb697437c3197b3095d43fcbdc2cdc97b1a60e0c\n        /* \"BCMMarket4.sol\":5206:5211  price */\n      dup6\n        /* \"BCMMarket4.sol\":5176:5224  NFTSold(nftContract, tokenId, price, msg.sender) */\n      mload(0x40)\n      tag_115\n      swap2\n      swap1\n      tag_43\n      jump\t// in\n    tag_115:\n      mload(0x40)\n      dup1\n      swap2\n      sub\n      swap1\n      log4\n        /* \"BCMMarket4.sol\":5257:5264  tokenId */\n      dup3\n        /* \"BCMMarket4.sol\":5238:5247  purchased */\n      dup9\n        /* \"BCMMarket4.sol\":5248:5253  count */\n      dup8\n        /* \"BCMMarket4.sol\":5238:5254  purchased[count] */\n      dup2\n      mload\n      dup2\n      lt\n      tag_116\n      jumpi\n      tag_117\n      tag_92\n      jump\t// in\n    tag_117:\n    tag_116:\n      0x20\n      mul\n      0x20\n      add\n      add\n        /* \"BCMMarket4.sol\":5238:5264  purchased[count] = tokenId */\n      dup2\n      dup2\n      mstore\n      pop\n      pop\n        /* \"BCMMarket4.sol\":5278:5285  count++ */\n      dup6\n      dup1\n      tag_118\n      swap1\n      tag_119\n      jump\t// in\n    tag_118:\n      swap7\n      pop\n      pop\n        /* \"BCMMarket4.sol\":5313:5318  price */\n      dup2\n        /* \"BCMMarket4.sol\":5299:5318  totalSpent += price */\n      dup6\n      tag_120\n      swap2\n      swap1\n      tag_96\n      jump\t// in\n    tag_120:\n      swap5\n      pop\n        /* \"BCMMarket4.sol\":4353:5329  {... */\n      pop\n      pop\n      pop\n        /* \"BCMMarket4.sol\":4307:5329  for (uint256 i = 0; i < tokenIds.length; i++) {... */\n    tag_89:\n        /* \"BCMMarket4.sol\":4348:4351  i++ */\n      dup1\n      dup1\n      0x01\n      add\n      swap2\n      pop\n      pop\n        /* \"BCMMarket4.sol\":4307:5329  for (uint256 i = 0; i < tokenIds.length; i++) {... */\n      jump(tag_87)\n    tag_88:\n      pop\n        /* \"BCMMarket4.sol\":5367:5372  count */\n      dup2\n        /* \"BCMMarket4.sol\":5356:5365  purchased */\n      dup5\n        /* \"BCMMarket4.sol\":5349:5373  mstore(purchased, count) */\n      mstore\n        /* \"BCMMarket4.sol\":5347:5375  { mstore(purchased, count) } */\n      pop\n      pop\n      pop\n        /* \"BCMMarket4.sol\":3998:5381  function buyGroup(uint16 group, address nftContract, uint256 maxTotal) external returns (uint256[] memory purchased) {... */\n      swap4\n      swap3\n      pop\n      pop\n      pop\n      jump\t// out\n        /* \"BCMMarket4.sol\":2168:2655  function listMany(address nftContract, uint256[] calldata tokenIds, uint16 group) external returns (uint256[] memory listed) {... */\n    tag_33:\n        /* \"BCMMarket4.sol\":2268:2291  uint256[] memory listed */\n      0x60\n        /* \"BCMMarket4.sol\":2326:2334  tokenIds */\n      dup4\n      dup4\n        /* \"BCMMarket4.sol\":2326:2341  tokenIds.length */\n      swap1\n      pop\n        /* \"BCMMarket4.sol\":2312:2342  new uint256[](tokenIds.length) */\n      0xffffffffffffffff\n      dup2\n      gt\n      iszero\n      tag_122\n      jumpi\n      tag_123\n      tag_85\n      jump\t// in\n    tag_123:\n    tag_122:\n      mload(0x40)\n      swap1\n      dup1\n      dup3\n      mstore\n      dup1\n      0x20\n      mul\n      0x20\n      add\n      dup3\n      add\n      0x40\n      mstore\n      dup1\n      iszero\n      tag_124\n      jumpi\n      dup2\n      0x20\n      add\n      0x20\n      dup3\n      mul\n      dup1\n      calldatasize\n      dup4\n      calldatacopy\n      dup1\n      dup3\n      add\n      swap2\n      pop\n      pop\n      swap1\n      pop\n    tag_124:\n      pop\n        /* \"BCMMarket4.sol\":2303:2342  listed = new uint256[](tokenIds.length) */\n      swap1\n      pop\n        /* \"BCMMarket4.sol\":2352:2365  uint256 count */\n      0x00\n        /* \"BCMMarket4.sol\":2384:2393  uint256 i */\n      dup1\n        /* \"BCMMarket4.sol\":2379:2606  for (uint256 i = 0; i < tokenIds.length; i++) {... */\n    tag_125:\n        /* \"BCMMarket4.sol\":2403:2411  tokenIds */\n      dup6\n      dup6\n        /* \"BCMMarket4.sol\":2403:2418  tokenIds.length */\n      swap1\n      pop\n        /* \"BCMMarket4.sol\":2399:2400  i */\n      dup2\n        /* \"BCMMarket4.sol\":2399:2418  i < tokenIds.length */\n      lt\n        /* \"BCMMarket4.sol\":2379:2606  for (uint256 i = 0; i < tokenIds.length; i++) {... */\n      iszero\n      tag_126\n      jumpi\n        /* \"BCMMarket4.sol\":2439:2446  bool ok */\n      0x00\n        /* \"BCMMarket4.sol\":2449:2489  listNFT(nftContract, tokenIds[i], group) */\n      tag_128\n        /* \"BCMMarket4.sol\":2457:2468  nftContract */\n      dup9\n        /* \"BCMMarket4.sol\":2470:2478  tokenIds */\n      dup9\n      dup9\n        /* \"BCMMarket4.sol\":2479:2480  i */\n      dup6\n        /* \"BCMMarket4.sol\":2470:2481  tokenIds[i] */\n      dup2\n      dup2\n      lt\n      tag_129\n      jumpi\n      tag_130\n      tag_92\n      jump\t// in\n    tag_130:\n    tag_129:\n      swap1\n      pop\n      0x20\n      mul\n      add\n      calldataload\n        /* \"BCMMarket4.sol\":2483:2488  group */\n      dup8\n        /* \"BCMMarket4.sol\":2449:2456  listNFT */\n      tag_61\n        /* \"BCMMarket4.sol\":2449:2489  listNFT(nftContract, tokenIds[i], group) */\n      jump\t// in\n    tag_128:\n        /* \"BCMMarket4.sol\":2439:2489  bool ok = listNFT(nftContract, tokenIds[i], group) */\n      swap1\n      pop\n        /* \"BCMMarket4.sol\":2507:2509  ok */\n      dup1\n        /* \"BCMMarket4.sol\":2503:2596  if (ok) {... */\n      iszero\n      tag_131\n      jumpi\n        /* \"BCMMarket4.sol\":2545:2553  tokenIds */\n      dup7\n      dup7\n        /* \"BCMMarket4.sol\":2554:2555  i */\n      dup4\n        /* \"BCMMarket4.sol\":2545:2556  tokenIds[i] */\n      dup2\n      dup2\n      lt\n      tag_132\n      jumpi\n      tag_133\n      tag_92\n      jump\t// in\n    tag_133:\n    tag_132:\n      swap1\n      pop\n      0x20\n      mul\n      add\n      calldataload\n        /* \"BCMMarket4.sol\":2529:2535  listed */\n      dup5\n        /* \"BCMMarket4.sol\":2536:2541  count */\n      dup5\n        /* \"BCMMarket4.sol\":2529:2542  listed[count] */\n      dup2\n      mload\n      dup2\n      lt\n      tag_134\n      jumpi\n      tag_135\n      tag_92\n      jump\t// in\n    tag_135:\n    tag_134:\n      0x20\n      mul\n      0x20\n      add\n      add\n        /* \"BCMMarket4.sol\":2529:2556  listed[count] = tokenIds[i] */\n      dup2\n      dup2\n      mstore\n      pop\n      pop\n        /* \"BCMMarket4.sol\":2574:2581  count++ */\n      dup3\n      dup1\n      tag_136\n      swap1\n      tag_119\n      jump\t// in\n    tag_136:\n      swap4\n      pop\n      pop\n        /* \"BCMMarket4.sol\":2503:2596  if (ok) {... */\n    tag_131:\n        /* \"BCMMarket4.sol\":2425:2606  {... */\n      pop\n        /* \"BCMMarket4.sol\":2420:2423  i++ */\n      dup1\n      dup1\n      0x01\n      add\n      swap2\n      pop\n      pop\n        /* \"BCMMarket4.sol\":2379:2606  for (uint256 i = 0; i < tokenIds.length; i++) {... */\n      jump(tag_125)\n    tag_126:\n      pop\n        /* \"BCMMarket4.sol\":2641:2646  count */\n      dup1\n        /* \"BCMMarket4.sol\":2633:2639  listed */\n      dup3\n        /* \"BCMMarket4.sol\":2626:2647  mstore(listed, count) */\n      mstore\n        /* \"BCMMarket4.sol\":2624:2649  { mstore(listed, count) } */\n      pop\n        /* \"BCMMarket4.sol\":2168:2655  function listMany(address nftContract, uint256[] calldata tokenIds, uint16 group) external returns (uint256[] memory listed) {... */\n      swap5\n      swap4\n      pop\n      pop\n      pop\n      pop\n      jump\t// out\n        /* \"BCMMarket4.sol\":296:322  IERC20 public paymentToken */\n    tag_36:\n      0x01\n      0x00\n      swap1\n      sload\n      swap1\n      0x0100\n      exp\n      swap1\n      div\n      0xffffffffffffffffffffffffffffffffffffffff\n      and\n      dup2\n      jump\t// out\n        /* \"BCMMarket4.sol\":454:523  mapping(uint16 => mapping(address => uint256[])) public groupTokenIds */\n    tag_41:\n      mstore(0x20, 0x04)\n      dup3\n      0x00\n      mstore\n      mstore(0x20, keccak256(0x00, 0x40))\n      dup2\n      0x00\n      mstore\n      keccak256(0x00, 0x40)\n      dup2\n      dup2\n      sload\n      dup2\n      lt\n      tag_137\n      jumpi\n      0x00\n      dup1\n      revert\n    tag_137:\n      swap1\n      0x00\n      mstore\n      keccak256(0x00, 0x20)\n      add\n      0x00\n      swap3\n      pop\n      swap3\n      pop\n      pop\n      pop\n      sload\n      dup2\n      jump\t// out\n        /* \"BCMMarket4.sol\":6437:6608  function getGroupTokenId(uint16 group, address nftContract, uint256 index) external view returns (uint256) {... */\n    tag_46:\n        /* \"BCMMarket4.sol\":6535:6542  uint256 */\n      0x00\n        /* \"BCMMarket4.sol\":6561:6574  groupTokenIds */\n      0x04\n        /* \"BCMMarket4.sol\":6561:6581  groupTokenIds[group] */\n      0x00\n        /* \"BCMMarket4.sol\":6575:6580  group */\n      dup6\n        /* \"BCMMarket4.sol\":6561:6581  groupTokenIds[group] */\n      0xffff\n      and\n      0xffff\n      and\n      dup2\n      mstore\n      0x20\n      add\n      swap1\n      dup2\n      mstore\n      0x20\n      add\n      0x00\n      keccak256\n        /* \"BCMMarket4.sol\":6561:6594  groupTokenIds[group][nftContract] */\n      0x00\n        /* \"BCMMarket4.sol\":6582:6593  nftContract */\n      dup5\n        /* \"BCMMarket4.sol\":6561:6594  groupTokenIds[group][nftContract] */\n      0xffffffffffffffffffffffffffffffffffffffff\n      and\n      0xffffffffffffffffffffffffffffffffffffffff\n      and\n      dup2\n      mstore\n      0x20\n      add\n      swap1\n      dup2\n      mstore\n      0x20\n      add\n      0x00\n      keccak256\n        /* \"BCMMarket4.sol\":6595:6600  index */\n      dup3\n        /* \"BCMMarket4.sol\":6561:6601  groupTokenIds[group][nftContract][index] */\n      dup2\n      sload\n      dup2\n      lt\n      tag_140\n      jumpi\n      tag_141\n      tag_92\n      jump\t// in\n    tag_141:\n    tag_140:\n      swap1\n      0x00\n      mstore\n      keccak256(0x00, 0x20)\n      add\n      sload\n        /* \"BCMMarket4.sol\":6554:6601  return groupTokenIds[group][nftContract][index] */\n      swap1\n      pop\n        /* \"BCMMarket4.sol\":6437:6608  function getGroupTokenId(uint16 group, address nftContract, uint256 index) external view returns (uint256) {... */\n      swap4\n      swap3\n      pop\n      pop\n      pop\n      jump\t// out\n        /* \"BCMMarket4.sol\":398:448  mapping(uint16 => address[]) public groupContracts */\n    tag_51:\n      mstore(0x20, 0x03)\n      dup2\n      0x00\n      mstore\n      keccak256(0x00, 0x40)\n      dup2\n      dup2\n      sload\n      dup2\n      lt\n      tag_143\n      jumpi\n      0x00\n      dup1\n      revert\n    tag_143:\n      swap1\n      0x00\n      mstore\n      keccak256(0x00, 0x20)\n      add\n      0x00\n      swap2\n      pop\n      swap2\n      pop\n      swap1\n      sload\n      swap1\n      0x0100\n      exp\n      swap1\n      div\n      0xffffffffffffffffffffffffffffffffffffffff\n      and\n      dup2\n      jump\t// out\n        /* \"BCMMarket4.sol\":6614:6776  function getAllGroupTokenIds(uint16 group, address nftContract) external view returns (uint256[] memory) {... */\n    tag_56:\n        /* \"BCMMarket4.sol\":6701:6717  uint256[] memory */\n      0x60\n        /* \"BCMMarket4.sol\":6736:6749  groupTokenIds */\n      0x04\n        /* \"BCMMarket4.sol\":6736:6756  groupTokenIds[group] */\n      0x00\n        /* \"BCMMarket4.sol\":6750:6755  group */\n      dup5\n        /* \"BCMMarket4.sol\":6736:6756  groupTokenIds[group] */\n      0xffff\n      and\n      0xffff\n      and\n      dup2\n      mstore\n      0x20\n      add\n      swap1\n      dup2\n      mstore\n      0x20\n      add\n      0x00\n      keccak256\n        /* \"BCMMarket4.sol\":6736:6769  groupTokenIds[group][nftContract] */\n      0x00\n        /* \"BCMMarket4.sol\":6757:6768  nftContract */\n      dup4\n        /* \"BCMMarket4.sol\":6736:6769  groupTokenIds[group][nftContract] */\n      0xffffffffffffffffffffffffffffffffffffffff\n      and\n      0xffffffffffffffffffffffffffffffffffffffff\n      and\n      dup2\n      mstore\n      0x20\n      add\n      swap1\n      dup2\n      mstore\n      0x20\n      add\n      0x00\n      keccak256\n        /* \"BCMMarket4.sol\":6729:6769  return groupTokenIds[group][nftContract] */\n      dup1\n      sload\n      dup1\n      0x20\n      mul\n      0x20\n      add\n      mload(0x40)\n      swap1\n      dup2\n      add\n      0x40\n      mstore\n      dup1\n      swap3\n      swap2\n      swap1\n      dup2\n      dup2\n      mstore\n      0x20\n      add\n      dup3\n      dup1\n      sload\n      dup1\n      iszero\n      tag_146\n      jumpi\n      0x20\n      mul\n      dup3\n      add\n      swap2\n      swap1\n      0x00\n      mstore\n      keccak256(0x00, 0x20)\n      swap1\n    tag_147:\n      dup2\n      sload\n      dup2\n      mstore\n      0x20\n      add\n      swap1\n      0x01\n      add\n      swap1\n      dup1\n      dup4\n      gt\n      tag_147\n      jumpi\n    tag_146:\n      pop\n      pop\n      pop\n      pop\n      pop\n      swap1\n      pop\n        /* \"BCMMarket4.sol\":6614:6776  function getAllGroupTokenIds(uint16 group, address nftContract) external view returns (uint256[] memory) {... */\n      swap3\n      swap2\n      pop\n      pop\n      jump\t// out\n        /* \"BCMMarket4.sol\":1369:2162  function listNFT(address nftContract, uint256 tokenId, uint16 group)... */\n    tag_61:\n        /* \"BCMMarket4.sol\":1520:1532  bool success */\n      0x00\n        /* \"BCMMarket4.sol\":1469:1480  nftContract */\n      dup4\n        /* \"BCMMarket4.sol\":1482:1489  tokenId */\n      dup4\n        /* \"BCMMarket4.sol\":1491:1501  msg.sender */\n      caller\n        /* \"BCMMarket4.sol\":1244:1255  IERC721 nft */\n      0x00\n        /* \"BCMMarket4.sol\":1266:1277  nftContract */\n      dup4\n        /* \"BCMMarket4.sol\":1244:1278  IERC721 nft = IERC721(nftContract) */\n      swap1\n      pop\n        /* \"BCMMarket4.sol\":1320:1327  spender */\n      dup2\n        /* \"BCMMarket4.sol\":1296:1327  nft.ownerOf(tokenId) == spender */\n      0xffffffffffffffffffffffffffffffffffffffff\n      and\n        /* \"BCMMarket4.sol\":1296:1299  nft */\n      dup2\n        /* \"BCMMarket4.sol\":1296:1307  nft.ownerOf */\n      0xffffffffffffffffffffffffffffffffffffffff\n      and\n      0x6352211e\n        /* \"BCMMarket4.sol\":1308:1315  tokenId */\n      dup6\n        /* \"BCMMarket4.sol\":1296:1316  nft.ownerOf(tokenId) */\n      mload(0x40)\n      dup3\n      0xffffffff\n      and\n      0xe0\n      shl\n      dup2\n      mstore\n      0x04\n      add\n      tag_149\n      swap2\n      swap1\n      tag_43\n      jump\t// in\n    tag_149:\n      0x20\n      mload(0x40)\n      dup1\n      dup4\n      sub\n      dup2\n      dup7\n      gas\n      staticcall\n      iszero\n      dup1\n      iszero\n      tag_151\n      jumpi\n      returndatasize\n      0x00\n      dup1\n      returndatacopy\n      revert(0x00, returndatasize)\n    tag_151:\n      pop\n      pop\n      pop\n      pop\n      mload(0x40)\n      returndatasize\n      not(0x1f)\n      0x1f\n      dup3\n      add\n      and\n      dup3\n      add\n      dup1\n      0x40\n      mstore\n      pop\n      dup2\n      add\n      swap1\n      tag_152\n      swap2\n      swap1\n      tag_153\n      jump\t// in\n    tag_152:\n        /* \"BCMMarket4.sol\":1296:1327  nft.ownerOf(tokenId) == spender */\n      0xffffffffffffffffffffffffffffffffffffffff\n      and\n      eq\n        /* \"BCMMarket4.sol\":1288:1345  require(nft.ownerOf(tokenId) == spender, \"Not the owner\") */\n      tag_154\n      jumpi\n      mload(0x40)\n      0x08c379a000000000000000000000000000000000000000000000000000000000\n      dup2\n      mstore\n      0x04\n      add\n      tag_155\n      swap1\n      tag_156\n      jump\t// in\n    tag_155:\n      mload(0x40)\n      dup1\n      swap2\n      sub\n      swap1\n      revert\n    tag_154:\n        /* \"BCMMarket4.sol\":1594:1595  0 */\n      0x00\n        /* \"BCMMarket4.sol\":1552:1596  listings[nftContract][tokenId] != address(0) */\n      0xffffffffffffffffffffffffffffffffffffffff\n      and\n        /* \"BCMMarket4.sol\":1552:1560  listings */\n      0x02\n        /* \"BCMMarket4.sol\":1552:1573  listings[nftContract] */\n      0x00\n        /* \"BCMMarket4.sol\":1561:1572  nftContract */\n      dup11\n        /* \"BCMMarket4.sol\":1552:1573  listings[nftContract] */\n      0xffffffffffffffffffffffffffffffffffffffff\n      and\n      0xffffffffffffffffffffffffffffffffffffffff\n      and\n      dup2\n      mstore\n      0x20\n      add\n      swap1\n      dup2\n      mstore\n      0x20\n      add\n      0x00\n      keccak256\n        /* \"BCMMarket4.sol\":1552:1582  listings[nftContract][tokenId] */\n      0x00\n        /* \"BCMMarket4.sol\":1574:1581  tokenId */\n      dup10\n        /* \"BCMMarket4.sol\":1552:1582  listings[nftContract][tokenId] */\n      dup2\n      mstore\n      0x20\n      add\n      swap1\n      dup2\n      mstore\n      0x20\n      add\n      0x00\n      keccak256\n      0x00\n      swap1\n      sload\n      swap1\n      0x0100\n      exp\n      swap1\n      div\n      0xffffffffffffffffffffffffffffffffffffffff\n      and\n        /* \"BCMMarket4.sol\":1552:1596  listings[nftContract][tokenId] != address(0) */\n      0xffffffffffffffffffffffffffffffffffffffff\n      and\n      eq\n        /* \"BCMMarket4.sol\":1548:1707  if (listings[nftContract][tokenId] != address(0)) {... */\n      tag_158\n      jumpi\n        /* \"BCMMarket4.sol\":1644:1651  tokenId */\n      dup7\n        /* \"BCMMarket4.sol\":1631:1642  nftContract */\n      dup9\n        /* \"BCMMarket4.sol\":1617:1670  ListingFailed(nftContract, tokenId, \"Already listed\") */\n      0xffffffffffffffffffffffffffffffffffffffff\n      and\n      0x0795d2a562f597cc96a526206719a45f67c20b30518ea1c6f88de912dd25ed23\n      mload(0x40)\n      tag_159\n      swap1\n      tag_160\n      jump\t// in\n    tag_159:\n      mload(0x40)\n      dup1\n      swap2\n      sub\n      swap1\n      log3\n        /* \"BCMMarket4.sol\":1691:1696  false */\n      0x00\n        /* \"BCMMarket4.sol\":1684:1696  return false */\n      swap5\n      pop\n      jump(tag_157)\n        /* \"BCMMarket4.sol\":1548:1707  if (listings[nftContract][tokenId] != address(0)) {... */\n    tag_158:\n        /* \"BCMMarket4.sol\":1773:1777  this */\n      address\n        /* \"BCMMarket4.sol\":1720:1778  IERC721(nftContract).getApproved(tokenId) != address(this) */\n      0xffffffffffffffffffffffffffffffffffffffff\n      and\n        /* \"BCMMarket4.sol\":1728:1739  nftContract */\n      dup9\n        /* \"BCMMarket4.sol\":1720:1752  IERC721(nftContract).getApproved */\n      0xffffffffffffffffffffffffffffffffffffffff\n      and\n      0x081812fc\n        /* \"BCMMarket4.sol\":1753:1760  tokenId */\n      dup10\n        /* \"BCMMarket4.sol\":1720:1761  IERC721(nftContract).getApproved(tokenId) */\n      mload(0x40)\n      dup3\n      0xffffffff\n      and\n      0xe0\n      shl\n      dup2\n      mstore\n      0x04\n      add\n      tag_161\n      swap2\n      swap1\n      tag_43\n      jump\t// in\n    tag_161:\n      0x20\n      mload(0x40)\n      dup1\n      dup4\n      sub\n      dup2\n      dup7\n      gas\n      staticcall\n      iszero\n      dup1\n      iszero\n      tag_163\n      jumpi\n      returndatasize\n      0x00\n      dup1\n      returndatacopy\n      revert(0x00, returndatasize)\n    tag_163:\n      pop\n      pop\n      pop\n      pop\n      mload(0x40)\n      returndatasize\n      not(0x1f)\n      0x1f\n      dup3\n      add\n      and\n      dup3\n      add\n      dup1\n      0x40\n      mstore\n      pop\n      dup2\n      add\n      swap1\n      tag_164\n      swap2\n      swap1\n      tag_153\n      jump\t// in\n    tag_164:\n        /* \"BCMMarket4.sol\":1720:1778  IERC721(nftContract).getApproved(tokenId) != address(this) */\n      0xffffffffffffffffffffffffffffffffffffffff\n      and\n      eq\n        /* \"BCMMarket4.sol\":1716:1887  if (IERC721(nftContract).getApproved(tokenId) != address(this)) {... */\n      tag_165\n      jumpi\n        /* \"BCMMarket4.sol\":1826:1833  tokenId */\n      dup7\n        /* \"BCMMarket4.sol\":1813:1824  nftContract */\n      dup9\n        /* \"BCMMarket4.sol\":1799:1850  ListingFailed(nftContract, tokenId, \"Not approved\") */\n      0xffffffffffffffffffffffffffffffffffffffff\n      and\n      0x0795d2a562f597cc96a526206719a45f67c20b30518ea1c6f88de912dd25ed23\n      mload(0x40)\n      tag_166\n      swap1\n      tag_167\n      jump\t// in\n    tag_166:\n      mload(0x40)\n      dup1\n      swap2\n      sub\n      swap1\n      log3\n        /* \"BCMMarket4.sol\":1871:1876  false */\n      0x00\n        /* \"BCMMarket4.sol\":1864:1876  return false */\n      swap5\n      pop\n      jump(tag_157)\n        /* \"BCMMarket4.sol\":1716:1887  if (IERC721(nftContract).getApproved(tokenId) != address(this)) {... */\n    tag_165:\n        /* \"BCMMarket4.sol\":1930:1940  msg.sender */\n      caller\n        /* \"BCMMarket4.sol\":1897:1905  listings */\n      0x02\n        /* \"BCMMarket4.sol\":1897:1918  listings[nftContract] */\n      0x00\n        /* \"BCMMarket4.sol\":1906:1917  nftContract */\n      dup11\n        /* \"BCMMarket4.sol\":1897:1918  listings[nftContract] */\n      0xffffffffffffffffffffffffffffffffffffffff\n      and\n      0xffffffffffffffffffffffffffffffffffffffff\n      and\n      dup2\n      mstore\n      0x20\n      add\n      swap1\n      dup2\n      mstore\n      0x20\n      add\n      0x00\n      keccak256\n        /* \"BCMMarket4.sol\":1897:1927  listings[nftContract][tokenId] */\n      0x00\n        /* \"BCMMarket4.sol\":1919:1926  tokenId */\n      dup10\n        /* \"BCMMarket4.sol\":1897:1927  listings[nftContract][tokenId] */\n      dup2\n      mstore\n      0x20\n      add\n      swap1\n      dup2\n      mstore\n      0x20\n      add\n      0x00\n      keccak256\n      0x00\n        /* \"BCMMarket4.sol\":1897:1940  listings[nftContract][tokenId] = msg.sender */\n      0x0100\n      exp\n      dup2\n      sload\n      dup2\n      0xffffffffffffffffffffffffffffffffffffffff\n      mul\n      not\n      and\n      swap1\n      dup4\n      0xffffffffffffffffffffffffffffffffffffffff\n      and\n      mul\n      or\n      swap1\n      sstore\n      pop\n        /* \"BCMMarket4.sol\":1950:1963  groupTokenIds */\n      0x04\n        /* \"BCMMarket4.sol\":1950:1970  groupTokenIds[group] */\n      0x00\n        /* \"BCMMarket4.sol\":1964:1969  group */\n      dup8\n        /* \"BCMMarket4.sol\":1950:1970  groupTokenIds[group] */\n      0xffff\n      and\n      0xffff\n      and\n      dup2\n      mstore\n      0x20\n      add\n      swap1\n      dup2\n      mstore\n      0x20\n      add\n      0x00\n      keccak256\n        /* \"BCMMarket4.sol\":1950:1983  groupTokenIds[group][nftContract] */\n      0x00\n        /* \"BCMMarket4.sol\":1971:1982  nftContract */\n      dup10\n        /* \"BCMMarket4.sol\":1950:1983  groupTokenIds[group][nftContract] */\n      0xffffffffffffffffffffffffffffffffffffffff\n      and\n      0xffffffffffffffffffffffffffffffffffffffff\n      and\n      dup2\n      mstore\n      0x20\n      add\n      swap1\n      dup2\n      mstore\n      0x20\n      add\n      0x00\n      keccak256\n        /* \"BCMMarket4.sol\":1989:1996  tokenId */\n      dup8\n        /* \"BCMMarket4.sol\":1950:1997  groupTokenIds[group][nftContract].push(tokenId) */\n      swap1\n      dup1\n      0x01\n      dup2\n      sload\n      add\n      dup1\n      dup3\n      sstore\n      dup1\n      swap2\n      pop\n      pop\n      0x01\n      swap1\n      sub\n      swap1\n      0x00\n      mstore\n      keccak256(0x00, 0x20)\n      add\n      0x00\n      swap1\n      swap2\n      swap1\n      swap2\n      swap1\n      swap2\n      pop\n      sstore\n        /* \"BCMMarket4.sol\":2007:2021  groupContracts */\n      0x03\n        /* \"BCMMarket4.sol\":2007:2028  groupContracts[group] */\n      0x00\n        /* \"BCMMarket4.sol\":2022:2027  group */\n      dup8\n        /* \"BCMMarket4.sol\":2007:2028  groupContracts[group] */\n      0xffff\n      and\n      0xffff\n      and\n      dup2\n      mstore\n      0x20\n      add\n      swap1\n      dup2\n      mstore\n      0x20\n      add\n      0x00\n      keccak256\n        /* \"BCMMarket4.sol\":2034:2045  nftContract */\n      dup9\n        /* \"BCMMarket4.sol\":2007:2046  groupContracts[group].push(nftContract) */\n      swap1\n      dup1\n      0x01\n      dup2\n      sload\n      add\n      dup1\n      dup3\n      sstore\n      dup1\n      swap2\n      pop\n      pop\n      0x01\n      swap1\n      sub\n      swap1\n      0x00\n      mstore\n      keccak256(0x00, 0x20)\n      add\n      0x00\n      swap1\n      swap2\n      swap1\n      swap2\n      swap1\n      swap2\n      0x0100\n      exp\n      dup2\n      sload\n      dup2\n      0xffffffffffffffffffffffffffffffffffffffff\n      mul\n      not\n      and\n      swap1\n      dup4\n      0xffffffffffffffffffffffffffffffffffffffff\n      and\n      mul\n      or\n      swap1\n      sstore\n      pop\n        /* \"BCMMarket4.sol\":2116:2126  msg.sender */\n      caller\n        /* \"BCMMarket4.sol\":2062:2134  NFTListed(nftContract, tokenId, getGroupPrice(group), msg.sender, group) */\n      0xffffffffffffffffffffffffffffffffffffffff\n      and\n        /* \"BCMMarket4.sol\":2085:2092  tokenId */\n      dup8\n        /* \"BCMMarket4.sol\":2072:2083  nftContract */\n      dup10\n        /* \"BCMMarket4.sol\":2062:2134  NFTListed(nftContract, tokenId, getGroupPrice(group), msg.sender, group) */\n      0xffffffffffffffffffffffffffffffffffffffff\n      and\n      0xd4d9493bde2c94a44263c0e6b76a960efec9b18d7e4533b24a2f72e7fe120523\n        /* \"BCMMarket4.sol\":2094:2114  getGroupPrice(group) */\n      tag_170\n        /* \"BCMMarket4.sol\":2108:2113  group */\n      dup11\n        /* \"BCMMarket4.sol\":2094:2107  getGroupPrice */\n      tag_74\n        /* \"BCMMarket4.sol\":2094:2114  getGroupPrice(group) */\n      jump\t// in\n    tag_170:\n        /* \"BCMMarket4.sol\":2128:2133  group */\n      dup11\n        /* \"BCMMarket4.sol\":2062:2134  NFTListed(nftContract, tokenId, getGroupPrice(group), msg.sender, group) */\n      mload(0x40)\n      tag_171\n      swap3\n      swap2\n      swap1\n      tag_172\n      jump\t// in\n    tag_171:\n      mload(0x40)\n      dup1\n      swap2\n      sub\n      swap1\n      log4\n        /* \"BCMMarket4.sol\":2151:2155  true */\n      0x01\n        /* \"BCMMarket4.sol\":2144:2155  return true */\n      swap5\n      pop\n        /* \"BCMMarket4.sol\":1355:1356  _ */\n    tag_157:\n        /* \"BCMMarket4.sol\":1234:1363  {... */\n      pop\n        /* \"BCMMarket4.sol\":1369:2162  function listNFT(address nftContract, uint256 tokenId, uint16 group)... */\n      pop\n      pop\n      pop\n      swap4\n      swap3\n      pop\n      pop\n      pop\n      jump\t// out\n        /* \"BCMMarket4.sol\":3115:3992  function buyNFT(address nftContract, uint256 tokenId) public nonReentrant returns (bool success) {... */\n    tag_66:\n        /* \"BCMMarket4.sol\":3198:3210  bool success */\n      0x00\n        /* \"@openzeppelin/contracts/security/ReentrancyGuard.sol\":2261:2282  _nonReentrantBefore() */\n      tag_174\n        /* \"@openzeppelin/contracts/security/ReentrancyGuard.sol\":2261:2280  _nonReentrantBefore */\n      tag_175\n        /* \"@openzeppelin/contracts/security/ReentrancyGuard.sol\":2261:2282  _nonReentrantBefore() */\n      jump\t// in\n    tag_174:\n        /* \"BCMMarket4.sol\":3268:3269  0 */\n      0x00\n        /* \"BCMMarket4.sol\":3226:3270  listings[nftContract][tokenId] == address(0) */\n      0xffffffffffffffffffffffffffffffffffffffff\n      and\n        /* \"BCMMarket4.sol\":3226:3234  listings */\n      0x02\n        /* \"BCMMarket4.sol\":3226:3247  listings[nftContract] */\n      0x00\n        /* \"BCMMarket4.sol\":3235:3246  nftContract */\n      dup6\n        /* \"BCMMarket4.sol\":3226:3247  listings[nftContract] */\n      0xffffffffffffffffffffffffffffffffffffffff\n      and\n      0xffffffffffffffffffffffffffffffffffffffff\n      and\n      dup2\n      mstore\n      0x20\n      add\n      swap1\n      dup2\n      mstore\n      0x20\n      add\n      0x00\n      keccak256\n        /* \"BCMMarket4.sol\":3226:3256  listings[nftContract][tokenId] */\n      0x00\n        /* \"BCMMarket4.sol\":3248:3255  tokenId */\n      dup5\n        /* \"BCMMarket4.sol\":3226:3256  listings[nftContract][tokenId] */\n      dup2\n      mstore\n      0x20\n      add\n      swap1\n      dup2\n      mstore\n      0x20\n      add\n      0x00\n      keccak256\n      0x00\n      swap1\n      sload\n      swap1\n      0x0100\n      exp\n      swap1\n      div\n      0xffffffffffffffffffffffffffffffffffffffff\n      and\n        /* \"BCMMarket4.sol\":3226:3270  listings[nftContract][tokenId] == address(0) */\n      0xffffffffffffffffffffffffffffffffffffffff\n      and\n      sub\n        /* \"BCMMarket4.sol\":3222:3378  if (listings[nftContract][tokenId] == address(0)) {... */\n      tag_177\n      jumpi\n        /* \"BCMMarket4.sol\":3319:3326  tokenId */\n      dup2\n        /* \"BCMMarket4.sol\":3306:3317  nftContract */\n      dup4\n        /* \"BCMMarket4.sol\":3291:3341  PurchaseFailed(nftContract, tokenId, \"Not listed\") */\n      0xffffffffffffffffffffffffffffffffffffffff\n      and\n      0x8a8719b9514356483d3fc6f38c0ada5a06a46d633339046c40ee527d7bda0de4\n      mload(0x40)\n      tag_178\n      swap1\n      tag_179\n      jump\t// in\n    tag_178:\n      mload(0x40)\n      dup1\n      swap2\n      sub\n      swap1\n      log3\n        /* \"BCMMarket4.sol\":3362:3367  false */\n      0x00\n        /* \"BCMMarket4.sol\":3355:3367  return false */\n      swap1\n      pop\n      jump(tag_176)\n        /* \"BCMMarket4.sol\":3222:3378  if (listings[nftContract][tokenId] == address(0)) {... */\n    tag_177:\n        /* \"BCMMarket4.sol\":3387:3399  uint16 group */\n      0x00\n        /* \"BCMMarket4.sol\":3402:3432  getGroup(nftContract, tokenId) */\n      tag_180\n        /* \"BCMMarket4.sol\":3411:3422  nftContract */\n      dup5\n        /* \"BCMMarket4.sol\":3424:3431  tokenId */\n      dup5\n        /* \"BCMMarket4.sol\":3402:3410  getGroup */\n      tag_181\n        /* \"BCMMarket4.sol\":3402:3432  getGroup(nftContract, tokenId) */\n      jump\t// in\n    tag_180:\n        /* \"BCMMarket4.sol\":3387:3432  uint16 group = getGroup(nftContract, tokenId) */\n      swap1\n      pop\n        /* \"BCMMarket4.sol\":3442:3456  address seller */\n      0x00\n        /* \"BCMMarket4.sol\":3459:3467  listings */\n      0x02\n        /* \"BCMMarket4.sol\":3459:3480  listings[nftContract] */\n      0x00\n        /* \"BCMMarket4.sol\":3468:3479  nftContract */\n      dup7\n        /* \"BCMMarket4.sol\":3459:3480  listings[nftContract] */\n      0xffffffffffffffffffffffffffffffffffffffff\n      and\n      0xffffffffffffffffffffffffffffffffffffffff\n      and\n      dup2\n      mstore\n      0x20\n      add\n      swap1\n      dup2\n      mstore\n      0x20\n      add\n      0x00\n      keccak256\n        /* \"BCMMarket4.sol\":3459:3489  listings[nftContract][tokenId] */\n      0x00\n        /* \"BCMMarket4.sol\":3481:3488  tokenId */\n      dup6\n        /* \"BCMMarket4.sol\":3459:3489  listings[nftContract][tokenId] */\n      dup2\n      mstore\n      0x20\n      add\n      swap1\n      dup2\n      mstore\n      0x20\n      add\n      0x00\n      keccak256\n      0x00\n      swap1\n      sload\n      swap1\n      0x0100\n      exp\n      swap1\n      div\n      0xffffffffffffffffffffffffffffffffffffffff\n      and\n        /* \"BCMMarket4.sol\":3442:3489  address seller = listings[nftContract][tokenId] */\n      swap1\n      pop\n        /* \"BCMMarket4.sol\":3499:3512  uint256 price */\n      0x00\n        /* \"BCMMarket4.sol\":3515:3535  getGroupPrice(group) */\n      tag_182\n        /* \"BCMMarket4.sol\":3529:3534  group */\n      dup4\n        /* \"BCMMarket4.sol\":3515:3528  getGroupPrice */\n      tag_74\n        /* \"BCMMarket4.sol\":3515:3535  getGroupPrice(group) */\n      jump\t// in\n    tag_182:\n        /* \"BCMMarket4.sol\":3499:3535  uint256 price = getGroupPrice(group) */\n      swap1\n      pop\n        /* \"BCMMarket4.sol\":3551:3563  paymentToken */\n      0x01\n      0x00\n      swap1\n      sload\n      swap1\n      0x0100\n      exp\n      swap1\n      div\n      0xffffffffffffffffffffffffffffffffffffffff\n      and\n        /* \"BCMMarket4.sol\":3551:3576  paymentToken.transferFrom */\n      0xffffffffffffffffffffffffffffffffffffffff\n      and\n      0x23b872dd\n        /* \"BCMMarket4.sol\":3577:3587  msg.sender */\n      caller\n        /* \"BCMMarket4.sol\":3589:3595  seller */\n      dup5\n        /* \"BCMMarket4.sol\":3597:3602  price */\n      dup5\n        /* \"BCMMarket4.sol\":3551:3603  paymentToken.transferFrom(msg.sender, seller, price) */\n      mload(0x40)\n      dup5\n      0xffffffff\n      and\n      0xe0\n      shl\n      dup2\n      mstore\n      0x04\n      add\n      tag_183\n      swap4\n      swap3\n      swap2\n      swap1\n      tag_101\n      jump\t// in\n    tag_183:\n      0x20\n      mload(0x40)\n      dup1\n      dup4\n      sub\n      dup2\n      0x00\n      dup8\n      gas\n      call\n      iszero\n      dup1\n      iszero\n      tag_185\n      jumpi\n      returndatasize\n      0x00\n      dup1\n      returndatacopy\n      revert(0x00, returndatasize)\n    tag_185:\n      pop\n      pop\n      pop\n      pop\n      mload(0x40)\n      returndatasize\n      not(0x1f)\n      0x1f\n      dup3\n      add\n      and\n      dup3\n      add\n      dup1\n      0x40\n      mstore\n      pop\n      dup2\n      add\n      swap1\n      tag_186\n      swap2\n      swap1\n      tag_105\n      jump\t// in\n    tag_186:\n        /* \"BCMMarket4.sol\":3546:3715  if (!paymentToken.transferFrom(msg.sender, seller, price)) {... */\n      tag_187\n      jumpi\n        /* \"BCMMarket4.sol\":3652:3659  tokenId */\n      dup5\n        /* \"BCMMarket4.sol\":3639:3650  nftContract */\n      dup7\n        /* \"BCMMarket4.sol\":3624:3678  PurchaseFailed(nftContract, tokenId, \"Payment failed\") */\n      0xffffffffffffffffffffffffffffffffffffffff\n      and\n      0x8a8719b9514356483d3fc6f38c0ada5a06a46d633339046c40ee527d7bda0de4\n      mload(0x40)\n      tag_188\n      swap1\n      tag_108\n      jump\t// in\n    tag_188:\n      mload(0x40)\n      dup1\n      swap2\n      sub\n      swap1\n      log3\n        /* \"BCMMarket4.sol\":3699:3704  false */\n      0x00\n        /* \"BCMMarket4.sol\":3692:3704  return false */\n      swap4\n      pop\n      pop\n      pop\n      pop\n      jump(tag_176)\n        /* \"BCMMarket4.sol\":3546:3715  if (!paymentToken.transferFrom(msg.sender, seller, price)) {... */\n    tag_187:\n        /* \"BCMMarket4.sol\":3732:3740  listings */\n      0x02\n        /* \"BCMMarket4.sol\":3732:3753  listings[nftContract] */\n      0x00\n        /* \"BCMMarket4.sol\":3741:3752  nftContract */\n      dup8\n        /* \"BCMMarket4.sol\":3732:3753  listings[nftContract] */\n      0xffffffffffffffffffffffffffffffffffffffff\n      and\n      0xffffffffffffffffffffffffffffffffffffffff\n      and\n      dup2\n      mstore\n      0x20\n      add\n      swap1\n      dup2\n      mstore\n      0x20\n      add\n      0x00\n      keccak256\n        /* \"BCMMarket4.sol\":3732:3762  listings[nftContract][tokenId] */\n      0x00\n        /* \"BCMMarket4.sol\":3754:3761  tokenId */\n      dup7\n        /* \"BCMMarket4.sol\":3732:3762  listings[nftContract][tokenId] */\n      dup2\n      mstore\n      0x20\n      add\n      swap1\n      dup2\n      mstore\n      0x20\n      add\n      0x00\n      keccak256\n      0x00\n        /* \"BCMMarket4.sol\":3725:3762  delete listings[nftContract][tokenId] */\n      0x0100\n      exp\n      dup2\n      sload\n      swap1\n      0xffffffffffffffffffffffffffffffffffffffff\n      mul\n      not\n      and\n      swap1\n      sstore\n        /* \"BCMMarket4.sol\":3772:3824  _removeTokenIdFromGroup(group, nftContract, tokenId) */\n      tag_189\n        /* \"BCMMarket4.sol\":3796:3801  group */\n      dup4\n        /* \"BCMMarket4.sol\":3803:3814  nftContract */\n      dup8\n        /* \"BCMMarket4.sol\":3816:3823  tokenId */\n      dup8\n        /* \"BCMMarket4.sol\":3772:3795  _removeTokenIdFromGroup */\n      tag_110\n        /* \"BCMMarket4.sol\":3772:3824  _removeTokenIdFromGroup(group, nftContract, tokenId) */\n      jump\t// in\n    tag_189:\n        /* \"BCMMarket4.sol\":3843:3854  nftContract */\n      dup6\n        /* \"BCMMarket4.sol\":3835:3872  IERC721(nftContract).safeTransferFrom */\n      0xffffffffffffffffffffffffffffffffffffffff\n      and\n      0x42842e0e\n        /* \"BCMMarket4.sol\":3873:3879  seller */\n      dup4\n        /* \"BCMMarket4.sol\":3881:3891  msg.sender */\n      caller\n        /* \"BCMMarket4.sol\":3893:3900  tokenId */\n      dup9\n        /* \"BCMMarket4.sol\":3835:3901  IERC721(nftContract).safeTransferFrom(seller, msg.sender, tokenId) */\n      mload(0x40)\n      dup5\n      0xffffffff\n      and\n      0xe0\n      shl\n      dup2\n      mstore\n      0x04\n      add\n      tag_190\n      swap4\n      swap3\n      swap2\n      swap1\n      tag_101\n      jump\t// in\n    tag_190:\n      0x00\n      mload(0x40)\n      dup1\n      dup4\n      sub\n      dup2\n      0x00\n      dup8\n      dup1\n      extcodesize\n      iszero\n      dup1\n      iszero\n      tag_191\n      jumpi\n      0x00\n      dup1\n      revert\n    tag_191:\n      pop\n      gas\n      call\n      iszero\n      dup1\n      iszero\n      tag_193\n      jumpi\n      returndatasize\n      0x00\n      dup1\n      returndatacopy\n      revert(0x00, returndatasize)\n    tag_193:\n      pop\n      pop\n      pop\n      pop\n        /* \"BCMMarket4.sol\":3953:3963  msg.sender */\n      caller\n        /* \"BCMMarket4.sol\":3916:3964  NFTSold(nftContract, tokenId, price, msg.sender) */\n      0xffffffffffffffffffffffffffffffffffffffff\n      and\n        /* \"BCMMarket4.sol\":3937:3944  tokenId */\n      dup6\n        /* \"BCMMarket4.sol\":3924:3935  nftContract */\n      dup8\n        /* \"BCMMarket4.sol\":3916:3964  NFTSold(nftContract, tokenId, price, msg.sender) */\n      0xffffffffffffffffffffffffffffffffffffffff\n      and\n      0x77c3ced349b08a2af4e9d443fb697437c3197b3095d43fcbdc2cdc97b1a60e0c\n        /* \"BCMMarket4.sol\":3946:3951  price */\n      dup5\n        /* \"BCMMarket4.sol\":3916:3964  NFTSold(nftContract, tokenId, price, msg.sender) */\n      mload(0x40)\n      tag_194\n      swap2\n      swap1\n      tag_43\n      jump\t// in\n    tag_194:\n      mload(0x40)\n      dup1\n      swap2\n      sub\n      swap1\n      log4\n        /* \"BCMMarket4.sol\":3981:3985  true */\n      0x01\n        /* \"BCMMarket4.sol\":3974:3985  return true */\n      swap4\n      pop\n      pop\n      pop\n      pop\n        /* \"@openzeppelin/contracts/security/ReentrancyGuard.sol\":2292:2293  _ */\n    tag_176:\n        /* \"@openzeppelin/contracts/security/ReentrancyGuard.sol\":2303:2323  _nonReentrantAfter() */\n      tag_195\n        /* \"@openzeppelin/contracts/security/ReentrancyGuard.sol\":2303:2321  _nonReentrantAfter */\n      tag_196\n        /* \"@openzeppelin/contracts/security/ReentrancyGuard.sol\":2303:2323  _nonReentrantAfter() */\n      jump\t// in\n    tag_195:\n        /* \"BCMMarket4.sol\":3115:3992  function buyNFT(address nftContract, uint256 tokenId) public nonReentrant returns (bool success) {... */\n      swap3\n      swap2\n      pop\n      pop\n      jump\t// out\n        /* \"BCMMarket4.sol\":2661:3109  function cancelListing(address nftContract, uint256 tokenId)... */\n    tag_70:\n        /* \"BCMMarket4.sol\":2755:2766  nftContract */\n      dup2\n        /* \"BCMMarket4.sol\":2768:2775  tokenId */\n      dup2\n        /* \"BCMMarket4.sol\":2777:2787  msg.sender */\n      caller\n        /* \"BCMMarket4.sol\":1244:1255  IERC721 nft */\n      0x00\n        /* \"BCMMarket4.sol\":1266:1277  nftContract */\n      dup4\n        /* \"BCMMarket4.sol\":1244:1278  IERC721 nft = IERC721(nftContract) */\n      swap1\n      pop\n        /* \"BCMMarket4.sol\":1320:1327  spender */\n      dup2\n        /* \"BCMMarket4.sol\":1296:1327  nft.ownerOf(tokenId) == spender */\n      0xffffffffffffffffffffffffffffffffffffffff\n      and\n        /* \"BCMMarket4.sol\":1296:1299  nft */\n      dup2\n        /* \"BCMMarket4.sol\":1296:1307  nft.ownerOf */\n      0xffffffffffffffffffffffffffffffffffffffff\n      and\n      0x6352211e\n        /* \"BCMMarket4.sol\":1308:1315  tokenId */\n      dup6\n        /* \"BCMMarket4.sol\":1296:1316  nft.ownerOf(tokenId) */\n      mload(0x40)\n      dup3\n      0xffffffff\n      and\n      0xe0\n      shl\n      dup2\n      mstore\n      0x04\n      add\n      tag_198\n      swap2\n      swap1\n      tag_43\n      jump\t// in\n    tag_198:\n      0x20\n      mload(0x40)\n      dup1\n      dup4\n      sub\n      dup2\n      dup7\n      gas\n      staticcall\n      iszero\n      dup1\n      iszero\n      tag_200\n      jumpi\n      returndatasize\n      0x00\n      dup1\n      returndatacopy\n      revert(0x00, returndatasize)\n    tag_200:\n      pop\n      pop\n      pop\n      pop\n      mload(0x40)\n      returndatasize\n      not(0x1f)\n      0x1f\n      dup3\n      add\n      and\n      dup3\n      add\n      dup1\n      0x40\n      mstore\n      pop\n      dup2\n      add\n      swap1\n      tag_201\n      swap2\n      swap1\n      tag_153\n      jump\t// in\n    tag_201:\n        /* \"BCMMarket4.sol\":1296:1327  nft.ownerOf(tokenId) == spender */\n      0xffffffffffffffffffffffffffffffffffffffff\n      and\n      eq\n        /* \"BCMMarket4.sol\":1288:1345  require(nft.ownerOf(tokenId) == spender, \"Not the owner\") */\n      tag_202\n      jumpi\n      mload(0x40)\n      0x08c379a000000000000000000000000000000000000000000000000000000000\n      dup2\n      mstore\n      0x04\n      add\n      tag_203\n      swap1\n      tag_156\n      jump\t// in\n    tag_203:\n      mload(0x40)\n      dup1\n      swap2\n      sub\n      swap1\n      revert\n    tag_202:\n        /* \"BCMMarket4.sol\":2853:2854  0 */\n      0x00\n        /* \"BCMMarket4.sol\":2811:2855  listings[nftContract][tokenId] != address(0) */\n      0xffffffffffffffffffffffffffffffffffffffff\n      and\n        /* \"BCMMarket4.sol\":2811:2819  listings */\n      0x02\n        /* \"BCMMarket4.sol\":2811:2832  listings[nftContract] */\n      0x00\n        /* \"BCMMarket4.sol\":2820:2831  nftContract */\n      dup9\n        /* \"BCMMarket4.sol\":2811:2832  listings[nftContract] */\n      0xffffffffffffffffffffffffffffffffffffffff\n      and\n      0xffffffffffffffffffffffffffffffffffffffff\n      and\n      dup2\n      mstore\n      0x20\n      add\n      swap1\n      dup2\n      mstore\n      0x20\n      add\n      0x00\n      keccak256\n        /* \"BCMMarket4.sol\":2811:2841  listings[nftContract][tokenId] */\n      0x00\n        /* \"BCMMarket4.sol\":2833:2840  tokenId */\n      dup8\n        /* \"BCMMarket4.sol\":2811:2841  listings[nftContract][tokenId] */\n      dup2\n      mstore\n      0x20\n      add\n      swap1\n      dup2\n      mstore\n      0x20\n      add\n      0x00\n      keccak256\n      0x00\n      swap1\n      sload\n      swap1\n      0x0100\n      exp\n      swap1\n      div\n      0xffffffffffffffffffffffffffffffffffffffff\n      and\n        /* \"BCMMarket4.sol\":2811:2855  listings[nftContract][tokenId] != address(0) */\n      0xffffffffffffffffffffffffffffffffffffffff\n      and\n      sub\n        /* \"BCMMarket4.sol\":2803:2870  require(listings[nftContract][tokenId] != address(0), \"Not listed\") */\n      tag_205\n      jumpi\n      mload(0x40)\n      0x08c379a000000000000000000000000000000000000000000000000000000000\n      dup2\n      mstore\n      0x04\n      add\n      tag_206\n      swap1\n      tag_179\n      jump\t// in\n    tag_206:\n      mload(0x40)\n      dup1\n      swap2\n      sub\n      swap1\n      revert\n    tag_205:\n        /* \"BCMMarket4.sol\":2880:2892  uint16 group */\n      0x00\n        /* \"BCMMarket4.sol\":2895:2925  getGroup(nftContract, tokenId) */\n      tag_207\n        /* \"BCMMarket4.sol\":2904:2915  nftContract */\n      dup8\n        /* \"BCMMarket4.sol\":2917:2924  tokenId */\n      dup8\n        /* \"BCMMarket4.sol\":2895:2903  getGroup */\n      tag_181\n        /* \"BCMMarket4.sol\":2895:2925  getGroup(nftContract, tokenId) */\n      jump\t// in\n    tag_207:\n        /* \"BCMMarket4.sol\":2880:2925  uint16 group = getGroup(nftContract, tokenId) */\n      swap1\n      pop\n        /* \"BCMMarket4.sol\":2942:2950  listings */\n      0x02\n        /* \"BCMMarket4.sol\":2942:2963  listings[nftContract] */\n      0x00\n        /* \"BCMMarket4.sol\":2951:2962  nftContract */\n      dup9\n        /* \"BCMMarket4.sol\":2942:2963  listings[nftContract] */\n      0xffffffffffffffffffffffffffffffffffffffff\n      and\n      0xffffffffffffffffffffffffffffffffffffffff\n      and\n      dup2\n      mstore\n      0x20\n      add\n      swap1\n      dup2\n      mstore\n      0x20\n      add\n      0x00\n      keccak256\n        /* \"BCMMarket4.sol\":2942:2972  listings[nftContract][tokenId] */\n      0x00\n        /* \"BCMMarket4.sol\":2964:2971  tokenId */\n      dup8\n        /* \"BCMMarket4.sol\":2942:2972  listings[nftContract][tokenId] */\n      dup2\n      mstore\n      0x20\n      add\n      swap1\n      dup2\n      mstore\n      0x20\n      add\n      0x00\n      keccak256\n      0x00\n        /* \"BCMMarket4.sol\":2935:2972  delete listings[nftContract][tokenId] */\n      0x0100\n      exp\n      dup2\n      sload\n      swap1\n      0xffffffffffffffffffffffffffffffffffffffff\n      mul\n      not\n      and\n      swap1\n      sstore\n        /* \"BCMMarket4.sol\":2982:3034  _removeTokenIdFromGroup(group, nftContract, tokenId) */\n      tag_208\n        /* \"BCMMarket4.sol\":3006:3011  group */\n      dup2\n        /* \"BCMMarket4.sol\":3013:3024  nftContract */\n      dup9\n        /* \"BCMMarket4.sol\":3026:3033  tokenId */\n      dup9\n        /* \"BCMMarket4.sol\":2982:3005  _removeTokenIdFromGroup */\n      tag_110\n        /* \"BCMMarket4.sol\":2982:3034  _removeTokenIdFromGroup(group, nftContract, tokenId) */\n      jump\t// in\n    tag_208:\n        /* \"BCMMarket4.sol\":3091:3101  msg.sender */\n      caller\n        /* \"BCMMarket4.sol\":3049:3102  NFTListingCancelled(nftContract, tokenId, msg.sender) */\n      0xffffffffffffffffffffffffffffffffffffffff\n      and\n        /* \"BCMMarket4.sol\":3082:3089  tokenId */\n      dup7\n        /* \"BCMMarket4.sol\":3069:3080  nftContract */\n      dup9\n        /* \"BCMMarket4.sol\":3049:3102  NFTListingCancelled(nftContract, tokenId, msg.sender) */\n      0xffffffffffffffffffffffffffffffffffffffff\n      and\n      0x83614a26fd4398c876bd6684c0d04cf2e84ee7e4bc24e8d8888ab0e724bac032\n      mload(0x40)\n      mload(0x40)\n      dup1\n      swap2\n      sub\n      swap1\n      log4\n        /* \"BCMMarket4.sol\":2793:3109  {... */\n      pop\n        /* \"BCMMarket4.sol\":1234:1363  {... */\n      pop\n        /* \"BCMMarket4.sol\":2661:3109  function cancelListing(address nftContract, uint256 tokenId)... */\n      pop\n      pop\n      pop\n      pop\n      pop\n      jump\t// out\n        /* \"BCMMarket4.sol\":5387:5543  function getGroupPrice(uint16 group) public pure returns (uint256) {... */\n    tag_74:\n        /* \"BCMMarket4.sol\":5445:5452  uint256 */\n      0x00\n        /* \"BCMMarket4.sol\":5480:5481  0 */\n      dup1\n        /* \"BCMMarket4.sol\":5472:5477  group */\n      dup3\n        /* \"BCMMarket4.sol\":5472:5481  group > 0 */\n      0xffff\n      and\n      gt\n        /* \"BCMMarket4.sol\":5464:5499  require(group > 0, \"Invalid group\") */\n      tag_210\n      jumpi\n      mload(0x40)\n      0x08c379a000000000000000000000000000000000000000000000000000000000\n      dup2\n      mstore\n      0x04\n      add\n      tag_211\n      swap1\n      tag_212\n      jump\t// in\n    tag_211:\n      mload(0x40)\n      dup1\n      swap2\n      sub\n      swap1\n      revert\n    tag_210:\n        /* \"BCMMarket4.sol\":5533:5536  1e6 */\n      0x0f4240\n        /* \"BCMMarket4.sol\":5524:5529  group */\n      dup3\n        /* \"BCMMarket4.sol\":5516:5530  uint256(group) */\n      0xffff\n      and\n        /* \"BCMMarket4.sol\":5516:5536  uint256(group) * 1e6 */\n      tag_213\n      swap2\n      swap1\n      tag_214\n      jump\t// in\n    tag_213:\n        /* \"BCMMarket4.sol\":5509:5536  return uint256(group) * 1e6 */\n      swap1\n      pop\n        /* \"BCMMarket4.sol\":5387:5543  function getGroupPrice(uint16 group) public pure returns (uint256) {... */\n      swap2\n      swap1\n      pop\n      jump\t// out\n        /* \"BCMMarket4.sol\":6292:6431  function getGroupContract(uint16 group, uint256 index) external view returns (address) {... */\n    tag_78:\n        /* \"BCMMarket4.sol\":6370:6377  address */\n      0x00\n        /* \"BCMMarket4.sol\":6396:6410  groupContracts */\n      0x03\n        /* \"BCMMarket4.sol\":6396:6417  groupContracts[group] */\n      0x00\n        /* \"BCMMarket4.sol\":6411:6416  group */\n      dup5\n        /* \"BCMMarket4.sol\":6396:6417  groupContracts[group] */\n      0xffff\n      and\n      0xffff\n      and\n      dup2\n      mstore\n      0x20\n      add\n      swap1\n      dup2\n      mstore\n      0x20\n      add\n      0x00\n      keccak256\n        /* \"BCMMarket4.sol\":6418:6423  index */\n      dup3\n        /* \"BCMMarket4.sol\":6396:6424  groupContracts[group][index] */\n      dup2\n      sload\n      dup2\n      lt\n      tag_216\n      jumpi\n      tag_217\n      tag_92\n      jump\t// in\n    tag_217:\n    tag_216:\n      swap1\n      0x00\n      mstore\n      keccak256(0x00, 0x20)\n      add\n      0x00\n      swap1\n      sload\n      swap1\n      0x0100\n      exp\n      swap1\n      div\n      0xffffffffffffffffffffffffffffffffffffffff\n      and\n        /* \"BCMMarket4.sol\":6389:6424  return groupContracts[group][index] */\n      swap1\n      pop\n        /* \"BCMMarket4.sol\":6292:6431  function getGroupContract(uint16 group, uint256 index) external view returns (address) {... */\n      swap3\n      swap2\n      pop\n      pop\n      jump\t// out\n        /* \"BCMMarket4.sol\":5889:6286  function _removeTokenIdFromGroup(uint16 group, address nftContract, uint256 tokenId) internal {... */\n    tag_110:\n        /* \"BCMMarket4.sol\":5993:6017  uint256[] storage tokens */\n      0x00\n        /* \"BCMMarket4.sol\":6020:6033  groupTokenIds */\n      0x04\n        /* \"BCMMarket4.sol\":6020:6040  groupTokenIds[group] */\n      0x00\n        /* \"BCMMarket4.sol\":6034:6039  group */\n      dup6\n        /* \"BCMMarket4.sol\":6020:6040  groupTokenIds[group] */\n      0xffff\n      and\n      0xffff\n      and\n      dup2\n      mstore\n      0x20\n      add\n      swap1\n      dup2\n      mstore\n      0x20\n      add\n      0x00\n      keccak256\n        /* \"BCMMarket4.sol\":6020:6053  groupTokenIds[group][nftContract] */\n      0x00\n        /* \"BCMMarket4.sol\":6041:6052  nftContract */\n      dup5\n        /* \"BCMMarket4.sol\":6020:6053  groupTokenIds[group][nftContract] */\n      0xffffffffffffffffffffffffffffffffffffffff\n      and\n      0xffffffffffffffffffffffffffffffffffffffff\n      and\n      dup2\n      mstore\n      0x20\n      add\n      swap1\n      dup2\n      mstore\n      0x20\n      add\n      0x00\n      keccak256\n        /* \"BCMMarket4.sol\":5993:6053  uint256[] storage tokens = groupTokenIds[group][nftContract] */\n      swap1\n      pop\n        /* \"BCMMarket4.sol\":6068:6077  uint256 i */\n      0x00\n        /* \"BCMMarket4.sol\":6063:6280  for (uint256 i = 0; i < tokens.length; i++) {... */\n    tag_220:\n        /* \"BCMMarket4.sol\":6087:6093  tokens */\n      dup2\n        /* \"BCMMarket4.sol\":6087:6100  tokens.length */\n      dup1\n      sload\n      swap1\n      pop\n        /* \"BCMMarket4.sol\":6083:6084  i */\n      dup2\n        /* \"BCMMarket4.sol\":6083:6100  i < tokens.length */\n      lt\n        /* \"BCMMarket4.sol\":6063:6280  for (uint256 i = 0; i < tokens.length; i++) {... */\n      iszero\n      tag_221\n      jumpi\n        /* \"BCMMarket4.sol\":6138:6145  tokenId */\n      dup3\n        /* \"BCMMarket4.sol\":6125:6131  tokens */\n      dup3\n        /* \"BCMMarket4.sol\":6132:6133  i */\n      dup3\n        /* \"BCMMarket4.sol\":6125:6134  tokens[i] */\n      dup2\n      sload\n      dup2\n      lt\n      tag_223\n      jumpi\n      tag_224\n      tag_92\n      jump\t// in\n    tag_224:\n    tag_223:\n      swap1\n      0x00\n      mstore\n      keccak256(0x00, 0x20)\n      add\n      sload\n        /* \"BCMMarket4.sol\":6125:6145  tokens[i] == tokenId */\n      sub\n        /* \"BCMMarket4.sol\":6121:6270  if (tokens[i] == tokenId) {... */\n      tag_226\n      jumpi\n        /* \"BCMMarket4.sol\":6177:6183  tokens */\n      dup2\n        /* \"BCMMarket4.sol\":6200:6201  1 */\n      0x01\n        /* \"BCMMarket4.sol\":6184:6190  tokens */\n      dup4\n        /* \"BCMMarket4.sol\":6184:6197  tokens.length */\n      dup1\n      sload\n      swap1\n      pop\n        /* \"BCMMarket4.sol\":6184:6201  tokens.length - 1 */\n      tag_227\n      swap2\n      swap1\n      tag_228\n      jump\t// in\n    tag_227:\n        /* \"BCMMarket4.sol\":6177:6202  tokens[tokens.length - 1] */\n      dup2\n      sload\n      dup2\n      lt\n      tag_229\n      jumpi\n      tag_230\n      tag_92\n      jump\t// in\n    tag_230:\n    tag_229:\n      swap1\n      0x00\n      mstore\n      keccak256(0x00, 0x20)\n      add\n      sload\n        /* \"BCMMarket4.sol\":6165:6171  tokens */\n      dup3\n        /* \"BCMMarket4.sol\":6172:6173  i */\n      dup3\n        /* \"BCMMarket4.sol\":6165:6174  tokens[i] */\n      dup2\n      sload\n      dup2\n      lt\n      tag_232\n      jumpi\n      tag_233\n      tag_92\n      jump\t// in\n    tag_233:\n    tag_232:\n      swap1\n      0x00\n      mstore\n      keccak256(0x00, 0x20)\n      add\n        /* \"BCMMarket4.sol\":6165:6202  tokens[i] = tokens[tokens.length - 1] */\n      dup2\n      swap1\n      sstore\n      pop\n        /* \"BCMMarket4.sol\":6220:6226  tokens */\n      dup2\n        /* \"BCMMarket4.sol\":6220:6232  tokens.pop() */\n      dup1\n      sload\n      dup1\n      tag_235\n      jumpi\n      tag_236\n      tag_237\n      jump\t// in\n    tag_236:\n    tag_235:\n      0x01\n      swap1\n      sub\n      dup2\n      dup2\n      swap1\n      0x00\n      mstore\n      keccak256(0x00, 0x20)\n      add\n      0x00\n      swap1\n      sstore\n      swap1\n      sstore\n        /* \"BCMMarket4.sol\":6250:6255  break */\n      jump(tag_221)\n        /* \"BCMMarket4.sol\":6121:6270  if (tokens[i] == tokenId) {... */\n    tag_226:\n        /* \"BCMMarket4.sol\":6102:6105  i++ */\n      dup1\n      dup1\n      0x01\n      add\n      swap2\n      pop\n      pop\n        /* \"BCMMarket4.sol\":6063:6280  for (uint256 i = 0; i < tokens.length; i++) {... */\n      jump(tag_220)\n    tag_221:\n      pop\n        /* \"BCMMarket4.sol\":5983:6286  {... */\n      pop\n        /* \"BCMMarket4.sol\":5889:6286  function _removeTokenIdFromGroup(uint16 group, address nftContract, uint256 tokenId) internal {... */\n      pop\n      pop\n      pop\n      jump\t// out\n        /* \"@openzeppelin/contracts/security/ReentrancyGuard.sol\":2336:2623  function _nonReentrantBefore() private {... */\n    tag_175:\n        /* \"@openzeppelin/contracts/security/ReentrancyGuard.sol\":1759:1760  2 */\n      0x02\n        /* \"@openzeppelin/contracts/security/ReentrancyGuard.sol\":2468:2475  _status */\n      sload(0x00)\n        /* \"@openzeppelin/contracts/security/ReentrancyGuard.sol\":2468:2487  _status != _ENTERED */\n      sub\n        /* \"@openzeppelin/contracts/security/ReentrancyGuard.sol\":2460:2523  require(_status != _ENTERED, \"ReentrancyGuard: reentrant call\") */\n      tag_240\n      jumpi\n      mload(0x40)\n      0x08c379a000000000000000000000000000000000000000000000000000000000\n      dup2\n      mstore\n      0x04\n      add\n      tag_241\n      swap1\n      tag_242\n      jump\t// in\n    tag_241:\n      mload(0x40)\n      dup1\n      swap2\n      sub\n      swap1\n      revert\n    tag_240:\n        /* \"@openzeppelin/contracts/security/ReentrancyGuard.sol\":1759:1760  2 */\n      0x02\n        /* \"@openzeppelin/contracts/security/ReentrancyGuard.sol\":2598:2605  _status */\n      0x00\n        /* \"@openzeppelin/contracts/security/ReentrancyGuard.sol\":2598:2616  _status = _ENTERED */\n      dup2\n      swap1\n      sstore\n      pop\n        /* \"@openzeppelin/contracts/security/ReentrancyGuard.sol\":2336:2623  function _nonReentrantBefore() private {... */\n      jump\t// out\n        /* \"BCMMarket4.sol\":5549:5883  function getGroup(address nftContract, uint256 tokenId) internal returns (uint16) {... */\n    tag_181:\n        /* \"BCMMarket4.sol\":5623:5629  uint16 */\n      0x00\n        /* \"BCMMarket4.sol\":5642:5654  bool success */\n      dup1\n        /* \"BCMMarket4.sol\":5656:5675  bytes memory result */\n      0x00\n        /* \"BCMMarket4.sol\":5687:5698  nftContract */\n      dup5\n        /* \"BCMMarket4.sol\":5679:5704  address(nftContract).call */\n      0xffffffffffffffffffffffffffffffffffffffff\n      and\n        /* \"BCMMarket4.sol\":5768:5775  tokenId */\n      dup5\n        /* \"BCMMarket4.sol\":5718:5776  abi.encodeWithSignature(\"getTokenGroup(uint256)\", tokenId) */\n      add(0x24, mload(0x40))\n      tag_244\n      swap2\n      swap1\n      tag_43\n      jump\t// in\n    tag_244:\n      mload(0x40)\n      0x20\n      dup2\n      dup4\n      sub\n      sub\n      dup2\n      mstore\n      swap1\n      0x40\n      mstore\n      and(not(0xffffffffffffffffffffffffffffffffffffffffffffffffffffffff), 0x8166c9dc00000000000000000000000000000000000000000000000000000000)\n      0x20\n      dup3\n      add\n      dup1\n      mload\n      0xffffffffffffffffffffffffffffffffffffffffffffffffffffffff\n      dup4\n      dup2\n      dup4\n      and\n      or\n      dup4\n      mstore\n      pop\n      pop\n      pop\n      pop\n        /* \"BCMMarket4.sol\":5679:5786  address(nftContract).call(... */\n      mload(0x40)\n      tag_245\n      swap2\n      swap1\n      tag_246\n      jump\t// in\n    tag_245:\n      0x00\n      mload(0x40)\n      dup1\n      dup4\n      sub\n      dup2\n      0x00\n      dup7\n      gas\n      call\n      swap2\n      pop\n      pop\n      returndatasize\n      dup1\n      0x00\n      dup2\n      eq\n      tag_249\n      jumpi\n      mload(0x40)\n      swap2\n      pop\n      and(add(returndatasize, 0x3f), not(0x1f))\n      dup3\n      add\n      0x40\n      mstore\n      returndatasize\n      dup3\n      mstore\n      returndatasize\n      0x00\n      0x20\n      dup5\n      add\n      returndatacopy\n      jump(tag_248)\n    tag_249:\n      0x60\n      swap2\n      pop\n    tag_248:\n      pop\n        /* \"BCMMarket4.sol\":5641:5786  (bool success, bytes memory result) = address(nftContract).call(... */\n      swap2\n      pop\n      swap2\n      pop\n        /* \"BCMMarket4.sol\":5804:5811  success */\n      dup2\n        /* \"BCMMarket4.sol\":5796:5831  require(success, \"Group not found\") */\n      tag_250\n      jumpi\n      mload(0x40)\n      0x08c379a000000000000000000000000000000000000000000000000000000000\n      dup2\n      mstore\n      0x04\n      add\n      tag_251\n      swap1\n      tag_252\n      jump\t// in\n    tag_251:\n      mload(0x40)\n      dup1\n      swap2\n      sub\n      swap1\n      revert\n    tag_250:\n        /* \"BCMMarket4.sol\":5859:5865  result */\n      dup1\n        /* \"BCMMarket4.sol\":5848:5876  abi.decode(result, (uint16)) */\n      dup1\n      0x20\n      add\n      swap1\n      mload\n      dup2\n      add\n      swap1\n      tag_253\n      swap2\n      swap1\n      tag_254\n      jump\t// in\n    tag_253:\n        /* \"BCMMarket4.sol\":5841:5876  return abi.decode(result, (uint16)) */\n      swap3\n      pop\n      pop\n      pop\n        /* \"BCMMarket4.sol\":5549:5883  function getGroup(address nftContract, uint256 tokenId) internal returns (uint16) {... */\n      swap3\n      swap2\n      pop\n      pop\n      jump\t// out\n        /* \"@openzeppelin/contracts/security/ReentrancyGuard.sol\":2629:2838  function _nonReentrantAfter() private {... */\n    tag_196:\n        /* \"@openzeppelin/contracts/security/ReentrancyGuard.sol\":1716:1717  1 */\n      0x01\n        /* \"@openzeppelin/contracts/security/ReentrancyGuard.sol\":2809:2816  _status */\n      0x00\n        /* \"@openzeppelin/contracts/security/ReentrancyGuard.sol\":2809:2831  _status = _NOT_ENTERED */\n      dup2\n      swap1\n      sstore\n      pop\n        /* \"@openzeppelin/contracts/security/ReentrancyGuard.sol\":2629:2838  function _nonReentrantAfter() private {... */\n      jump\t// out\n        /* \"#utility.yul\":88:205   */\n    tag_257:\n        /* \"#utility.yul\":197:198   */\n      0x00\n        /* \"#utility.yul\":194:195   */\n      dup1\n        /* \"#utility.yul\":187:199   */\n      revert\n        /* \"#utility.yul\":211:328   */\n    tag_258:\n        /* \"#utility.yul\":320:321   */\n      0x00\n        /* \"#utility.yul\":317:318   */\n      dup1\n        /* \"#utility.yul\":310:322   */\n      revert\n        /* \"#utility.yul\":334:460   */\n    tag_259:\n        /* \"#utility.yul\":371:378   */\n      0x00\n        /* \"#utility.yul\":411:453   */\n      0xffffffffffffffffffffffffffffffffffffffff\n        /* \"#utility.yul\":404:409   */\n      dup3\n        /* \"#utility.yul\":400:454   */\n      and\n        /* \"#utility.yul\":389:454   */\n      swap1\n      pop\n        /* \"#utility.yul\":334:460   */\n      swap2\n      swap1\n      pop\n      jump\t// out\n        /* \"#utility.yul\":466:562   */\n    tag_260:\n        /* \"#utility.yul\":503:510   */\n      0x00\n        /* \"#utility.yul\":532:556   */\n      tag_324\n        /* \"#utility.yul\":550:555   */\n      dup3\n        /* \"#utility.yul\":532:556   */\n      tag_259\n      jump\t// in\n    tag_324:\n        /* \"#utility.yul\":521:556   */\n      swap1\n      pop\n        /* \"#utility.yul\":466:562   */\n      swap2\n      swap1\n      pop\n      jump\t// out\n        /* \"#utility.yul\":568:690   */\n    tag_261:\n        /* \"#utility.yul\":641:665   */\n      tag_326\n        /* \"#utility.yul\":659:664   */\n      dup2\n        /* \"#utility.yul\":641:665   */\n      tag_260\n      jump\t// in\n    tag_326:\n        /* \"#utility.yul\":634:639   */\n      dup2\n        /* \"#utility.yul\":631:666   */\n      eq\n        /* \"#utility.yul\":621:684   */\n      tag_327\n      jumpi\n        /* \"#utility.yul\":680:681   */\n      0x00\n        /* \"#utility.yul\":677:678   */\n      dup1\n        /* \"#utility.yul\":670:682   */\n      revert\n        /* \"#utility.yul\":621:684   */\n    tag_327:\n        /* \"#utility.yul\":568:690   */\n      pop\n      jump\t// out\n        /* \"#utility.yul\":696:835   */\n    tag_262:\n        /* \"#utility.yul\":742:747   */\n      0x00\n        /* \"#utility.yul\":780:786   */\n      dup2\n        /* \"#utility.yul\":767:787   */\n      calldataload\n        /* \"#utility.yul\":758:787   */\n      swap1\n      pop\n        /* \"#utility.yul\":796:829   */\n      tag_329\n        /* \"#utility.yul\":823:828   */\n      dup2\n        /* \"#utility.yul\":796:829   */\n      tag_261\n      jump\t// in\n    tag_329:\n        /* \"#utility.yul\":696:835   */\n      swap3\n      swap2\n      pop\n      pop\n      jump\t// out\n        /* \"#utility.yul\":841:918   */\n    tag_263:\n        /* \"#utility.yul\":878:885   */\n      0x00\n        /* \"#utility.yul\":907:912   */\n      dup2\n        /* \"#utility.yul\":896:912   */\n      swap1\n      pop\n        /* \"#utility.yul\":841:918   */\n      swap2\n      swap1\n      pop\n      jump\t// out\n        /* \"#utility.yul\":924:1046   */\n    tag_264:\n        /* \"#utility.yul\":997:1021   */\n      tag_332\n        /* \"#utility.yul\":1015:1020   */\n      dup2\n        /* \"#utility.yul\":997:1021   */\n      tag_263\n      jump\t// in\n    tag_332:\n        /* \"#utility.yul\":990:995   */\n      dup2\n        /* \"#utility.yul\":987:1022   */\n      eq\n        /* \"#utility.yul\":977:1040   */\n      tag_333\n      jumpi\n        /* \"#utility.yul\":1036:1037   */\n      0x00\n        /* \"#utility.yul\":1033:1034   */\n      dup1\n        /* \"#utility.yul\":1026:1038   */\n      revert\n        /* \"#utility.yul\":977:1040   */\n    tag_333:\n        /* \"#utility.yul\":924:1046   */\n      pop\n      jump\t// out\n        /* \"#utility.yul\":1052:1191   */\n    tag_265:\n        /* \"#utility.yul\":1098:1103   */\n      0x00\n        /* \"#utility.yul\":1136:1142   */\n      dup2\n        /* \"#utility.yul\":1123:1143   */\n      calldataload\n        /* \"#utility.yul\":1114:1143   */\n      swap1\n      pop\n        /* \"#utility.yul\":1152:1185   */\n      tag_335\n        /* \"#utility.yul\":1179:1184   */\n      dup2\n        /* \"#utility.yul\":1152:1185   */\n      tag_264\n      jump\t// in\n    tag_335:\n        /* \"#utility.yul\":1052:1191   */\n      swap3\n      swap2\n      pop\n      pop\n      jump\t// out\n        /* \"#utility.yul\":1197:1671   */\n    tag_20:\n        /* \"#utility.yul\":1265:1271   */\n      0x00\n        /* \"#utility.yul\":1273:1279   */\n      dup1\n        /* \"#utility.yul\":1322:1324   */\n      0x40\n        /* \"#utility.yul\":1310:1319   */\n      dup4\n        /* \"#utility.yul\":1301:1308   */\n      dup6\n        /* \"#utility.yul\":1297:1320   */\n      sub\n        /* \"#utility.yul\":1293:1325   */\n      slt\n        /* \"#utility.yul\":1290:1409   */\n      iszero\n      tag_337\n      jumpi\n        /* \"#utility.yul\":1328:1407   */\n      tag_338\n      tag_257\n      jump\t// in\n    tag_338:\n        /* \"#utility.yul\":1290:1409   */\n    tag_337:\n        /* \"#utility.yul\":1448:1449   */\n      0x00\n        /* \"#utility.yul\":1473:1526   */\n      tag_339\n        /* \"#utility.yul\":1518:1525   */\n      dup6\n        /* \"#utility.yul\":1509:1515   */\n      dup3\n        /* \"#utility.yul\":1498:1507   */\n      dup7\n        /* \"#utility.yul\":1494:1516   */\n      add\n        /* \"#utility.yul\":1473:1526   */\n      tag_262\n      jump\t// in\n    tag_339:\n        /* \"#utility.yul\":1463:1526   */\n      swap3\n      pop\n        /* \"#utility.yul\":1419:1536   */\n      pop\n        /* \"#utility.yul\":1575:1577   */\n      0x20\n        /* \"#utility.yul\":1601:1654   */\n      tag_340\n        /* \"#utility.yul\":1646:1653   */\n      dup6\n        /* \"#utility.yul\":1637:1643   */\n      dup3\n        /* \"#utility.yul\":1626:1635   */\n      dup7\n        /* \"#utility.yul\":1622:1644   */\n      add\n        /* \"#utility.yul\":1601:1654   */\n      tag_265\n      jump\t// in\n    tag_340:\n        /* \"#utility.yul\":1591:1654   */\n      swap2\n      pop\n        /* \"#utility.yul\":1546:1664   */\n      pop\n        /* \"#utility.yul\":1197:1671   */\n      swap3\n      pop\n      swap3\n      swap1\n      pop\n      jump\t// out\n        /* \"#utility.yul\":1677:1795   */\n    tag_266:\n        /* \"#utility.yul\":1764:1788   */\n      tag_342\n        /* \"#utility.yul\":1782:1787   */\n      dup2\n        /* \"#utility.yul\":1764:1788   */\n      tag_260\n      jump\t// in\n    tag_342:\n        /* \"#utility.yul\":1759:1762   */\n      dup3\n        /* \"#utility.yul\":1752:1789   */\n      mstore\n        /* \"#utility.yul\":1677:1795   */\n      pop\n      pop\n      jump\t// out\n        /* \"#utility.yul\":1801:2023   */\n    tag_23:\n        /* \"#utility.yul\":1894:1898   */\n      0x00\n        /* \"#utility.yul\":1932:1934   */\n      0x20\n        /* \"#utility.yul\":1921:1930   */\n      dup3\n        /* \"#utility.yul\":1917:1935   */\n      add\n        /* \"#utility.yul\":1909:1935   */\n      swap1\n      pop\n        /* \"#utility.yul\":1945:2016   */\n      tag_344\n        /* \"#utility.yul\":2013:2014   */\n      0x00\n        /* \"#utility.yul\":2002:2011   */\n      dup4\n        /* \"#utility.yul\":1998:2015   */\n      add\n        /* \"#utility.yul\":1989:1995   */\n      dup5\n        /* \"#utility.yul\":1945:2016   */\n      tag_266\n      jump\t// in\n    tag_344:\n        /* \"#utility.yul\":1801:2023   */\n      swap3\n      swap2\n      pop\n      pop\n      jump\t// out\n        /* \"#utility.yul\":2029:2118   */\n    tag_267:\n        /* \"#utility.yul\":2065:2072   */\n      0x00\n        /* \"#utility.yul\":2105:2111   */\n      0xffff\n        /* \"#utility.yul\":2098:2103   */\n      dup3\n        /* \"#utility.yul\":2094:2112   */\n      and\n        /* \"#utility.yul\":2083:2112   */\n      swap1\n      pop\n        /* \"#utility.yul\":2029:2118   */\n      swap2\n      swap1\n      pop\n      jump\t// out\n        /* \"#utility.yul\":2124:2244   */\n    tag_268:\n        /* \"#utility.yul\":2196:2219   */\n      tag_347\n        /* \"#utility.yul\":2213:2218   */\n      dup2\n        /* \"#utility.yul\":2196:2219   */\n      tag_267\n      jump\t// in\n    tag_347:\n        /* \"#utility.yul\":2189:2194   */\n      dup2\n        /* \"#utility.yul\":2186:2220   */\n      eq\n        /* \"#utility.yul\":2176:2238   */\n      tag_348\n      jumpi\n        /* \"#utility.yul\":2234:2235   */\n      0x00\n        /* \"#utility.yul\":2231:2232   */\n      dup1\n        /* \"#utility.yul\":2224:2236   */\n      revert\n        /* \"#utility.yul\":2176:2238   */\n    tag_348:\n        /* \"#utility.yul\":2124:2244   */\n      pop\n      jump\t// out\n        /* \"#utility.yul\":2250:2387   */\n    tag_269:\n        /* \"#utility.yul\":2295:2300   */\n      0x00\n        /* \"#utility.yul\":2333:2339   */\n      dup2\n        /* \"#utility.yul\":2320:2340   */\n      calldataload\n        /* \"#utility.yul\":2311:2340   */\n      swap1\n      pop\n        /* \"#utility.yul\":2349:2381   */\n      tag_350\n        /* \"#utility.yul\":2375:2380   */\n      dup2\n        /* \"#utility.yul\":2349:2381   */\n      tag_268\n      jump\t// in\n    tag_350:\n        /* \"#utility.yul\":2250:2387   */\n      swap3\n      swap2\n      pop\n      pop\n      jump\t// out\n        /* \"#utility.yul\":2393:3010   */\n    tag_26:\n        /* \"#utility.yul\":2469:2475   */\n      0x00\n        /* \"#utility.yul\":2477:2483   */\n      dup1\n        /* \"#utility.yul\":2485:2491   */\n      0x00\n        /* \"#utility.yul\":2534:2536   */\n      0x60\n        /* \"#utility.yul\":2522:2531   */\n      dup5\n        /* \"#utility.yul\":2513:2520   */\n      dup7\n        /* \"#utility.yul\":2509:2532   */\n      sub\n        /* \"#utility.yul\":2505:2537   */\n      slt\n        /* \"#utility.yul\":2502:2621   */\n      iszero\n      tag_352\n      jumpi\n        /* \"#utility.yul\":2540:2619   */\n      tag_353\n      tag_257\n      jump\t// in\n    tag_353:\n        /* \"#utility.yul\":2502:2621   */\n    tag_352:\n        /* \"#utility.yul\":2660:2661   */\n      0x00\n        /* \"#utility.yul\":2685:2737   */\n      tag_354\n        /* \"#utility.yul\":2729:2736   */\n      dup7\n        /* \"#utility.yul\":2720:2726   */\n      dup3\n        /* \"#utility.yul\":2709:2718   */\n      dup8\n        /* \"#utility.yul\":2705:2727   */\n      add\n        /* \"#utility.yul\":2685:2737   */\n      tag_269\n      jump\t// in\n    tag_354:\n        /* \"#utility.yul\":2675:2737   */\n      swap4\n      pop\n        /* \"#utility.yul\":2631:2747   */\n      pop\n        /* \"#utility.yul\":2786:2788   */\n      0x20\n        /* \"#utility.yul\":2812:2865   */\n      tag_355\n        /* \"#utility.yul\":2857:2864   */\n      dup7\n        /* \"#utility.yul\":2848:2854   */\n      dup3\n        /* \"#utility.yul\":2837:2846   */\n      dup8\n        /* \"#utility.yul\":2833:2855   */\n      add\n        /* \"#utility.yul\":2812:2865   */\n      tag_262\n      jump\t// in\n    tag_355:\n        /* \"#utility.yul\":2802:2865   */\n      swap3\n      pop\n        /* \"#utility.yul\":2757:2875   */\n      pop\n        /* \"#utility.yul\":2914:2916   */\n      0x40\n        /* \"#utility.yul\":2940:2993   */\n      tag_356\n        /* \"#utility.yul\":2985:2992   */\n      dup7\n        /* \"#utility.yul\":2976:2982   */\n      dup3\n        /* \"#utility.yul\":2965:2974   */\n      dup8\n        /* \"#utility.yul\":2961:2983   */\n      add\n        /* \"#utility.yul\":2940:2993   */\n      tag_265\n      jump\t// in\n    tag_356:\n        /* \"#utility.yul\":2930:2993   */\n      swap2\n      pop\n        /* \"#utility.yul\":2885:3003   */\n      pop\n        /* \"#utility.yul\":2393:3010   */\n      swap3\n      pop\n      swap3\n      pop\n      swap3\n      jump\t// out\n        /* \"#utility.yul\":3016:3130   */\n    tag_270:\n        /* \"#utility.yul\":3083:3089   */\n      0x00\n        /* \"#utility.yul\":3117:3122   */\n      dup2\n        /* \"#utility.yul\":3111:3123   */\n      mload\n        /* \"#utility.yul\":3101:3123   */\n      swap1\n      pop\n        /* \"#utility.yul\":3016:3130   */\n      swap2\n      swap1\n      pop\n      jump\t// out\n        /* \"#utility.yul\":3136:3320   */\n    tag_271:\n        /* \"#utility.yul\":3235:3246   */\n      0x00\n        /* \"#utility.yul\":3269:3275   */\n      dup3\n        /* \"#utility.yul\":3264:3267   */\n      dup3\n        /* \"#utility.yul\":3257:3276   */\n      mstore\n        /* \"#utility.yul\":3309:3313   */\n      0x20\n        /* \"#utility.yul\":3304:3307   */\n      dup3\n        /* \"#utility.yul\":3300:3314   */\n      add\n        /* \"#utility.yul\":3285:3314   */\n      swap1\n      pop\n        /* \"#utility.yul\":3136:3320   */\n      swap3\n      swap2\n      pop\n      pop\n      jump\t// out\n        /* \"#utility.yul\":3326:3458   */\n    tag_272:\n        /* \"#utility.yul\":3393:3397   */\n      0x00\n        /* \"#utility.yul\":3416:3419   */\n      dup2\n        /* \"#utility.yul\":3408:3419   */\n      swap1\n      pop\n        /* \"#utility.yul\":3446:3450   */\n      0x20\n        /* \"#utility.yul\":3441:3444   */\n      dup3\n        /* \"#utility.yul\":3437:3451   */\n      add\n        /* \"#utility.yul\":3429:3451   */\n      swap1\n      pop\n        /* \"#utility.yul\":3326:3458   */\n      swap2\n      swap1\n      pop\n      jump\t// out\n        /* \"#utility.yul\":3464:3572   */\n    tag_273:\n        /* \"#utility.yul\":3541:3565   */\n      tag_361\n        /* \"#utility.yul\":3559:3564   */\n      dup2\n        /* \"#utility.yul\":3541:3565   */\n      tag_263\n      jump\t// in\n    tag_361:\n        /* \"#utility.yul\":3536:3539   */\n      dup3\n        /* \"#utility.yul\":3529:3566   */\n      mstore\n        /* \"#utility.yul\":3464:3572   */\n      pop\n      pop\n      jump\t// out\n        /* \"#utility.yul\":3578:3757   */\n    tag_274:\n        /* \"#utility.yul\":3647:3657   */\n      0x00\n        /* \"#utility.yul\":3668:3714   */\n      tag_363\n        /* \"#utility.yul\":3710:3713   */\n      dup4\n        /* \"#utility.yul\":3702:3708   */\n      dup4\n        /* \"#utility.yul\":3668:3714   */\n      tag_273\n      jump\t// in\n    tag_363:\n        /* \"#utility.yul\":3746:3750   */\n      0x20\n        /* \"#utility.yul\":3741:3744   */\n      dup4\n        /* \"#utility.yul\":3737:3751   */\n      add\n        /* \"#utility.yul\":3723:3751   */\n      swap1\n      pop\n        /* \"#utility.yul\":3578:3757   */\n      swap3\n      swap2\n      pop\n      pop\n      jump\t// out\n        /* \"#utility.yul\":3763:3876   */\n    tag_275:\n        /* \"#utility.yul\":3833:3837   */\n      0x00\n        /* \"#utility.yul\":3865:3869   */\n      0x20\n        /* \"#utility.yul\":3860:3863   */\n      dup3\n        /* \"#utility.yul\":3856:3870   */\n      add\n        /* \"#utility.yul\":3848:3870   */\n      swap1\n      pop\n        /* \"#utility.yul\":3763:3876   */\n      swap2\n      swap1\n      pop\n      jump\t// out\n        /* \"#utility.yul\":3912:4644   */\n    tag_276:\n        /* \"#utility.yul\":4031:4034   */\n      0x00\n        /* \"#utility.yul\":4060:4114   */\n      tag_366\n        /* \"#utility.yul\":4108:4113   */\n      dup3\n        /* \"#utility.yul\":4060:4114   */\n      tag_270\n      jump\t// in\n    tag_366:\n        /* \"#utility.yul\":4130:4216   */\n      tag_367\n        /* \"#utility.yul\":4209:4215   */\n      dup2\n        /* \"#utility.yul\":4204:4207   */\n      dup6\n        /* \"#utility.yul\":4130:4216   */\n      tag_271\n      jump\t// in\n    tag_367:\n        /* \"#utility.yul\":4123:4216   */\n      swap4\n      pop\n        /* \"#utility.yul\":4240:4296   */\n      tag_368\n        /* \"#utility.yul\":4290:4295   */\n      dup4\n        /* \"#utility.yul\":4240:4296   */\n      tag_272\n      jump\t// in\n    tag_368:\n        /* \"#utility.yul\":4319:4326   */\n      dup1\n        /* \"#utility.yul\":4350:4351   */\n      0x00\n        /* \"#utility.yul\":4335:4619   */\n    tag_369:\n        /* \"#utility.yul\":4360:4366   */\n      dup4\n        /* \"#utility.yul\":4357:4358   */\n      dup2\n        /* \"#utility.yul\":4354:4367   */\n      lt\n        /* \"#utility.yul\":4335:4619   */\n      iszero\n      tag_371\n      jumpi\n        /* \"#utility.yul\":4436:4442   */\n      dup2\n        /* \"#utility.yul\":4430:4443   */\n      mload\n        /* \"#utility.yul\":4463:4526   */\n      tag_372\n        /* \"#utility.yul\":4522:4525   */\n      dup9\n        /* \"#utility.yul\":4507:4520   */\n      dup3\n        /* \"#utility.yul\":4463:4526   */\n      tag_274\n      jump\t// in\n    tag_372:\n        /* \"#utility.yul\":4456:4526   */\n      swap8\n      pop\n        /* \"#utility.yul\":4549:4609   */\n      tag_373\n        /* \"#utility.yul\":4602:4608   */\n      dup4\n        /* \"#utility.yul\":4549:4609   */\n      tag_275\n      jump\t// in\n    tag_373:\n        /* \"#utility.yul\":4539:4609   */\n      swap3\n      pop\n        /* \"#utility.yul\":4395:4619   */\n      pop\n        /* \"#utility.yul\":4382:4383   */\n      0x01\n        /* \"#utility.yul\":4379:4380   */\n      dup2\n        /* \"#utility.yul\":4375:4384   */\n      add\n        /* \"#utility.yul\":4370:4384   */\n      swap1\n      pop\n        /* \"#utility.yul\":4335:4619   */\n      jump(tag_369)\n    tag_371:\n        /* \"#utility.yul\":4339:4353   */\n      pop\n        /* \"#utility.yul\":4635:4638   */\n      dup6\n        /* \"#utility.yul\":4628:4638   */\n      swap4\n      pop\n        /* \"#utility.yul\":4036:4644   */\n      pop\n      pop\n      pop\n        /* \"#utility.yul\":3912:4644   */\n      swap3\n      swap2\n      pop\n      pop\n      jump\t// out\n        /* \"#utility.yul\":4650:5023   */\n    tag_29:\n        /* \"#utility.yul\":4793:4797   */\n      0x00\n        /* \"#utility.yul\":4831:4833   */\n      0x20\n        /* \"#utility.yul\":4820:4829   */\n      dup3\n        /* \"#utility.yul\":4816:4834   */\n      add\n        /* \"#utility.yul\":4808:4834   */\n      swap1\n      pop\n        /* \"#utility.yul\":4880:4889   */\n      dup2\n        /* \"#utility.yul\":4874:4878   */\n      dup2\n        /* \"#utility.yul\":4870:4890   */\n      sub\n        /* \"#utility.yul\":4866:4867   */\n      0x00\n        /* \"#utility.yul\":4855:4864   */\n      dup4\n        /* \"#utility.yul\":4851:4868   */\n      add\n        /* \"#utility.yul\":4844:4891   */\n      mstore\n        /* \"#utility.yul\":4908:5016   */\n      tag_375\n        /* \"#utility.yul\":5011:5015   */\n      dup2\n        /* \"#utility.yul\":5002:5008   */\n      dup5\n        /* \"#utility.yul\":4908:5016   */\n      tag_276\n      jump\t// in\n    tag_375:\n        /* \"#utility.yul\":4900:5016   */\n      swap1\n      pop\n        /* \"#utility.yul\":4650:5023   */\n      swap3\n      swap2\n      pop\n      pop\n      jump\t// out\n        /* \"#utility.yul\":5029:5146   */\n    tag_277:\n        /* \"#utility.yul\":5138:5139   */\n      0x00\n        /* \"#utility.yul\":5135:5136   */\n      dup1\n        /* \"#utility.yul\":5128:5140   */\n      revert\n        /* \"#utility.yul\":5152:5269   */\n    tag_278:\n        /* \"#utility.yul\":5261:5262   */\n      0x00\n        /* \"#utility.yul\":5258:5259   */\n      dup1\n        /* \"#utility.yul\":5251:5263   */\n      revert\n        /* \"#utility.yul\":5275:5392   */\n    tag_279:\n        /* \"#utility.yul\":5384:5385   */\n      0x00\n        /* \"#utility.yul\":5381:5382   */\n      dup1\n        /* \"#utility.yul\":5374:5386   */\n      revert\n        /* \"#utility.yul\":5415:5983   */\n    tag_280:\n        /* \"#utility.yul\":5488:5496   */\n      0x00\n        /* \"#utility.yul\":5498:5504   */\n      dup1\n        /* \"#utility.yul\":5548:5551   */\n      dup4\n        /* \"#utility.yul\":5541:5545   */\n      0x1f\n        /* \"#utility.yul\":5533:5539   */\n      dup5\n        /* \"#utility.yul\":5529:5546   */\n      add\n        /* \"#utility.yul\":5525:5552   */\n      slt\n        /* \"#utility.yul\":5515:5637   */\n      tag_380\n      jumpi\n        /* \"#utility.yul\":5556:5635   */\n      tag_381\n      tag_277\n      jump\t// in\n    tag_381:\n        /* \"#utility.yul\":5515:5637   */\n    tag_380:\n        /* \"#utility.yul\":5669:5675   */\n      dup3\n        /* \"#utility.yul\":5656:5676   */\n      calldataload\n        /* \"#utility.yul\":5646:5676   */\n      swap1\n      pop\n        /* \"#utility.yul\":5699:5717   */\n      0xffffffffffffffff\n        /* \"#utility.yul\":5691:5697   */\n      dup2\n        /* \"#utility.yul\":5688:5718   */\n      gt\n        /* \"#utility.yul\":5685:5802   */\n      iszero\n      tag_382\n      jumpi\n        /* \"#utility.yul\":5721:5800   */\n      tag_383\n      tag_278\n      jump\t// in\n    tag_383:\n        /* \"#utility.yul\":5685:5802   */\n    tag_382:\n        /* \"#utility.yul\":5835:5839   */\n      0x20\n        /* \"#utility.yul\":5827:5833   */\n      dup4\n        /* \"#utility.yul\":5823:5840   */\n      add\n        /* \"#utility.yul\":5811:5840   */\n      swap2\n      pop\n        /* \"#utility.yul\":5889:5892   */\n      dup4\n        /* \"#utility.yul\":5881:5885   */\n      0x20\n        /* \"#utility.yul\":5873:5879   */\n      dup3\n        /* \"#utility.yul\":5869:5886   */\n      mul\n        /* \"#utility.yul\":5859:5867   */\n      dup4\n        /* \"#utility.yul\":5855:5887   */\n      add\n        /* \"#utility.yul\":5852:5893   */\n      gt\n        /* \"#utility.yul\":5849:5977   */\n      iszero\n      tag_384\n      jumpi\n        /* \"#utility.yul\":5896:5975   */\n      tag_385\n      tag_279\n      jump\t// in\n    tag_385:\n        /* \"#utility.yul\":5849:5977   */\n    tag_384:\n        /* \"#utility.yul\":5415:5983   */\n      swap3\n      pop\n      swap3\n      swap1\n      pop\n      jump\t// out\n        /* \"#utility.yul\":5989:6836   */\n    tag_32:\n        /* \"#utility.yul\":6092:6098   */\n      0x00\n        /* \"#utility.yul\":6100:6106   */\n      dup1\n        /* \"#utility.yul\":6108:6114   */\n      0x00\n        /* \"#utility.yul\":6116:6122   */\n      dup1\n        /* \"#utility.yul\":6165:6167   */\n      0x60\n        /* \"#utility.yul\":6153:6162   */\n      dup6\n        /* \"#utility.yul\":6144:6151   */\n      dup8\n        /* \"#utility.yul\":6140:6163   */\n      sub\n        /* \"#utility.yul\":6136:6168   */\n      slt\n        /* \"#utility.yul\":6133:6252   */\n      iszero\n      tag_387\n      jumpi\n        /* \"#utility.yul\":6171:6250   */\n      tag_388\n      tag_257\n      jump\t// in\n    tag_388:\n        /* \"#utility.yul\":6133:6252   */\n    tag_387:\n        /* \"#utility.yul\":6291:6292   */\n      0x00\n        /* \"#utility.yul\":6316:6369   */\n      tag_389\n        /* \"#utility.yul\":6361:6368   */\n      dup8\n        /* \"#utility.yul\":6352:6358   */\n      dup3\n        /* \"#utility.yul\":6341:6350   */\n      dup9\n        /* \"#utility.yul\":6337:6359   */\n      add\n        /* \"#utility.yul\":6316:6369   */\n      tag_262\n      jump\t// in\n    tag_389:\n        /* \"#utility.yul\":6306:6369   */\n      swap5\n      pop\n        /* \"#utility.yul\":6262:6379   */\n      pop\n        /* \"#utility.yul\":6446:6448   */\n      0x20\n        /* \"#utility.yul\":6435:6444   */\n      dup6\n        /* \"#utility.yul\":6431:6449   */\n      add\n        /* \"#utility.yul\":6418:6450   */\n      calldataload\n        /* \"#utility.yul\":6477:6495   */\n      0xffffffffffffffff\n        /* \"#utility.yul\":6469:6475   */\n      dup2\n        /* \"#utility.yul\":6466:6496   */\n      gt\n        /* \"#utility.yul\":6463:6580   */\n      iszero\n      tag_390\n      jumpi\n        /* \"#utility.yul\":6499:6578   */\n      tag_391\n      tag_258\n      jump\t// in\n    tag_391:\n        /* \"#utility.yul\":6463:6580   */\n    tag_390:\n        /* \"#utility.yul\":6612:6692   */\n      tag_392\n        /* \"#utility.yul\":6684:6691   */\n      dup8\n        /* \"#utility.yul\":6675:6681   */\n      dup3\n        /* \"#utility.yul\":6664:6673   */\n      dup9\n        /* \"#utility.yul\":6660:6682   */\n      add\n        /* \"#utility.yul\":6612:6692   */\n      tag_280\n      jump\t// in\n    tag_392:\n        /* \"#utility.yul\":6594:6692   */\n      swap4\n      pop\n      swap4\n      pop\n        /* \"#utility.yul\":6389:6702   */\n      pop\n        /* \"#utility.yul\":6741:6743   */\n      0x40\n        /* \"#utility.yul\":6767:6819   */\n      tag_393\n        /* \"#utility.yul\":6811:6818   */\n      dup8\n        /* \"#utility.yul\":6802:6808   */\n      dup3\n        /* \"#utility.yul\":6791:6800   */\n      dup9\n        /* \"#utility.yul\":6787:6809   */\n      add\n        /* \"#utility.yul\":6767:6819   */\n      tag_269\n      jump\t// in\n    tag_393:\n        /* \"#utility.yul\":6757:6819   */\n      swap2\n      pop\n        /* \"#utility.yul\":6712:6829   */\n      pop\n        /* \"#utility.yul\":5989:6836   */\n      swap3\n      swap6\n      swap2\n      swap5\n      pop\n      swap3\n      pop\n      jump\t// out\n        /* \"#utility.yul\":6842:6902   */\n    tag_281:\n        /* \"#utility.yul\":6870:6873   */\n      0x00\n        /* \"#utility.yul\":6891:6896   */\n      dup2\n        /* \"#utility.yul\":6884:6896   */\n      swap1\n      pop\n        /* \"#utility.yul\":6842:6902   */\n      swap2\n      swap1\n      pop\n      jump\t// out\n        /* \"#utility.yul\":6908:7050   */\n    tag_282:\n        /* \"#utility.yul\":6958:6967   */\n      0x00\n        /* \"#utility.yul\":6991:7044   */\n      tag_396\n        /* \"#utility.yul\":7009:7043   */\n      tag_397\n        /* \"#utility.yul\":7018:7042   */\n      tag_398\n        /* \"#utility.yul\":7036:7041   */\n      dup5\n        /* \"#utility.yul\":7018:7042   */\n      tag_259\n      jump\t// in\n    tag_398:\n        /* \"#utility.yul\":7009:7043   */\n      tag_281\n      jump\t// in\n    tag_397:\n        /* \"#utility.yul\":6991:7044   */\n      tag_259\n      jump\t// in\n    tag_396:\n        /* \"#utility.yul\":6978:7044   */\n      swap1\n      pop\n        /* \"#utility.yul\":6908:7050   */\n      swap2\n      swap1\n      pop\n      jump\t// out\n        /* \"#utility.yul\":7056:7182   */\n    tag_283:\n        /* \"#utility.yul\":7106:7115   */\n      0x00\n        /* \"#utility.yul\":7139:7176   */\n      tag_400\n        /* \"#utility.yul\":7170:7175   */\n      dup3\n        /* \"#utility.yul\":7139:7176   */\n      tag_282\n      jump\t// in\n    tag_400:\n        /* \"#utility.yul\":7126:7176   */\n      swap1\n      pop\n        /* \"#utility.yul\":7056:7182   */\n      swap2\n      swap1\n      pop\n      jump\t// out\n        /* \"#utility.yul\":7188:7328   */\n    tag_284:\n        /* \"#utility.yul\":7252:7261   */\n      0x00\n        /* \"#utility.yul\":7285:7322   */\n      tag_402\n        /* \"#utility.yul\":7316:7321   */\n      dup3\n        /* \"#utility.yul\":7285:7322   */\n      tag_283\n      jump\t// in\n    tag_402:\n        /* \"#utility.yul\":7272:7322   */\n      swap1\n      pop\n        /* \"#utility.yul\":7188:7328   */\n      swap2\n      swap1\n      pop\n      jump\t// out\n        /* \"#utility.yul\":7334:7493   */\n    tag_285:\n        /* \"#utility.yul\":7435:7486   */\n      tag_404\n        /* \"#utility.yul\":7480:7485   */\n      dup2\n        /* \"#utility.yul\":7435:7486   */\n      tag_284\n      jump\t// in\n    tag_404:\n        /* \"#utility.yul\":7430:7433   */\n      dup3\n        /* \"#utility.yul\":7423:7487   */\n      mstore\n        /* \"#utility.yul\":7334:7493   */\n      pop\n      pop\n      jump\t// out\n        /* \"#utility.yul\":7499:7749   */\n    tag_38:\n        /* \"#utility.yul\":7606:7610   */\n      0x00\n        /* \"#utility.yul\":7644:7646   */\n      0x20\n        /* \"#utility.yul\":7633:7642   */\n      dup3\n        /* \"#utility.yul\":7629:7647   */\n      add\n        /* \"#utility.yul\":7621:7647   */\n      swap1\n      pop\n        /* \"#utility.yul\":7657:7742   */\n      tag_406\n        /* \"#utility.yul\":7739:7740   */\n      0x00\n        /* \"#utility.yul\":7728:7737   */\n      dup4\n        /* \"#utility.yul\":7724:7741   */\n      add\n        /* \"#utility.yul\":7715:7721   */\n      dup5\n        /* \"#utility.yul\":7657:7742   */\n      tag_285\n      jump\t// in\n    tag_406:\n        /* \"#utility.yul\":7499:7749   */\n      swap3\n      swap2\n      pop\n      pop\n      jump\t// out\n        /* \"#utility.yul\":7755:7873   */\n    tag_286:\n        /* \"#utility.yul\":7842:7866   */\n      tag_408\n        /* \"#utility.yul\":7860:7865   */\n      dup2\n        /* \"#utility.yul\":7842:7866   */\n      tag_263\n      jump\t// in\n    tag_408:\n        /* \"#utility.yul\":7837:7840   */\n      dup3\n        /* \"#utility.yul\":7830:7867   */\n      mstore\n        /* \"#utility.yul\":7755:7873   */\n      pop\n      pop\n      jump\t// out\n        /* \"#utility.yul\":7879:8101   */\n    tag_43:\n        /* \"#utility.yul\":7972:7976   */\n      0x00\n        /* \"#utility.yul\":8010:8012   */\n      0x20\n        /* \"#utility.yul\":7999:8008   */\n      dup3\n        /* \"#utility.yul\":7995:8013   */\n      add\n        /* \"#utility.yul\":7987:8013   */\n      swap1\n      pop\n        /* \"#utility.yul\":8023:8094   */\n      tag_410\n        /* \"#utility.yul\":8091:8092   */\n      0x00\n        /* \"#utility.yul\":8080:8089   */\n      dup4\n        /* \"#utility.yul\":8076:8093   */\n      add\n        /* \"#utility.yul\":8067:8073   */\n      dup5\n        /* \"#utility.yul\":8023:8094   */\n      tag_286\n      jump\t// in\n    tag_410:\n        /* \"#utility.yul\":7879:8101   */\n      swap3\n      swap2\n      pop\n      pop\n      jump\t// out\n        /* \"#utility.yul\":8107:8579   */\n    tag_50:\n        /* \"#utility.yul\":8174:8180   */\n      0x00\n        /* \"#utility.yul\":8182:8188   */\n      dup1\n        /* \"#utility.yul\":8231:8233   */\n      0x40\n        /* \"#utility.yul\":8219:8228   */\n      dup4\n        /* \"#utility.yul\":8210:8217   */\n      dup6\n        /* \"#utility.yul\":8206:8229   */\n      sub\n        /* \"#utility.yul\":8202:8234   */\n      slt\n        /* \"#utility.yul\":8199:8318   */\n      iszero\n      tag_412\n      jumpi\n        /* \"#utility.yul\":8237:8316   */\n      tag_413\n      tag_257\n      jump\t// in\n    tag_413:\n        /* \"#utility.yul\":8199:8318   */\n    tag_412:\n        /* \"#utility.yul\":8357:8358   */\n      0x00\n        /* \"#utility.yul\":8382:8434   */\n      tag_414\n        /* \"#utility.yul\":8426:8433   */\n      dup6\n        /* \"#utility.yul\":8417:8423   */\n      dup3\n        /* \"#utility.yul\":8406:8415   */\n      dup7\n        /* \"#utility.yul\":8402:8424   */\n      add\n        /* \"#utility.yul\":8382:8434   */\n      tag_269\n      jump\t// in\n    tag_414:\n        /* \"#utility.yul\":8372:8434   */\n      swap3\n      pop\n        /* \"#utility.yul\":8328:8444   */\n      pop\n        /* \"#utility.yul\":8483:8485   */\n      0x20\n        /* \"#utility.yul\":8509:8562   */\n      tag_415\n        /* \"#utility.yul\":8554:8561   */\n      dup6\n        /* \"#utility.yul\":8545:8551   */\n      dup3\n        /* \"#utility.yul\":8534:8543   */\n      dup7\n        /* \"#utility.yul\":8530:8552   */\n      add\n        /* \"#utility.yul\":8509:8562   */\n      tag_265\n      jump\t// in\n    tag_415:\n        /* \"#utility.yul\":8499:8562   */\n      swap2\n      pop\n        /* \"#utility.yul\":8454:8572   */\n      pop\n        /* \"#utility.yul\":8107:8579   */\n      swap3\n      pop\n      swap3\n      swap1\n      pop\n      jump\t// out\n        /* \"#utility.yul\":8585:9057   */\n    tag_55:\n        /* \"#utility.yul\":8652:8658   */\n      0x00\n        /* \"#utility.yul\":8660:8666   */\n      dup1\n        /* \"#utility.yul\":8709:8711   */\n      0x40\n        /* \"#utility.yul\":8697:8706   */\n      dup4\n        /* \"#utility.yul\":8688:8695   */\n      dup6\n        /* \"#utility.yul\":8684:8707   */\n      sub\n        /* \"#utility.yul\":8680:8712   */\n      slt\n        /* \"#utility.yul\":8677:8796   */\n      iszero\n      tag_417\n      jumpi\n        /* \"#utility.yul\":8715:8794   */\n      tag_418\n      tag_257\n      jump\t// in\n    tag_418:\n        /* \"#utility.yul\":8677:8796   */\n    tag_417:\n        /* \"#utility.yul\":8835:8836   */\n      0x00\n        /* \"#utility.yul\":8860:8912   */\n      tag_419\n        /* \"#utility.yul\":8904:8911   */\n      dup6\n        /* \"#utility.yul\":8895:8901   */\n      dup3\n        /* \"#utility.yul\":8884:8893   */\n      dup7\n        /* \"#utility.yul\":8880:8902   */\n      add\n        /* \"#utility.yul\":8860:8912   */\n      tag_269\n      jump\t// in\n    tag_419:\n        /* \"#utility.yul\":8850:8912   */\n      swap3\n      pop\n        /* \"#utility.yul\":8806:8922   */\n      pop\n        /* \"#utility.yul\":8961:8963   */\n      0x20\n        /* \"#utility.yul\":8987:9040   */\n      tag_420\n        /* \"#utility.yul\":9032:9039   */\n      dup6\n        /* \"#utility.yul\":9023:9029   */\n      dup3\n        /* \"#utility.yul\":9012:9021   */\n      dup7\n        /* \"#utility.yul\":9008:9030   */\n      add\n        /* \"#utility.yul\":8987:9040   */\n      tag_262\n      jump\t// in\n    tag_420:\n        /* \"#utility.yul\":8977:9040   */\n      swap2\n      pop\n        /* \"#utility.yul\":8932:9050   */\n      pop\n        /* \"#utility.yul\":8585:9057   */\n      swap3\n      pop\n      swap3\n      swap1\n      pop\n      jump\t// out\n        /* \"#utility.yul\":9063:9680   */\n    tag_60:\n        /* \"#utility.yul\":9139:9145   */\n      0x00\n        /* \"#utility.yul\":9147:9153   */\n      dup1\n        /* \"#utility.yul\":9155:9161   */\n      0x00\n        /* \"#utility.yul\":9204:9206   */\n      0x60\n        /* \"#utility.yul\":9192:9201   */\n      dup5\n        /* \"#utility.yul\":9183:9190   */\n      dup7\n        /* \"#utility.yul\":9179:9202   */\n      sub\n        /* \"#utility.yul\":9175:9207   */\n      slt\n        /* \"#utility.yul\":9172:9291   */\n      iszero\n      tag_422\n      jumpi\n        /* \"#utility.yul\":9210:9289   */\n      tag_423\n      tag_257\n      jump\t// in\n    tag_423:\n        /* \"#utility.yul\":9172:9291   */\n    tag_422:\n        /* \"#utility.yul\":9330:9331   */\n      0x00\n        /* \"#utility.yul\":9355:9408   */\n      tag_424\n        /* \"#utility.yul\":9400:9407   */\n      dup7\n        /* \"#utility.yul\":9391:9397   */\n      dup3\n        /* \"#utility.yul\":9380:9389   */\n      dup8\n        /* \"#utility.yul\":9376:9398   */\n      add\n        /* \"#utility.yul\":9355:9408   */\n      tag_262\n      jump\t// in\n    tag_424:\n        /* \"#utility.yul\":9345:9408   */\n      swap4\n      pop\n        /* \"#utility.yul\":9301:9418   */\n      pop\n        /* \"#utility.yul\":9457:9459   */\n      0x20\n        /* \"#utility.yul\":9483:9536   */\n      tag_425\n        /* \"#utility.yul\":9528:9535   */\n      dup7\n        /* \"#utility.yul\":9519:9525   */\n      dup3\n        /* \"#utility.yul\":9508:9517   */\n      dup8\n        /* \"#utility.yul\":9504:9526   */\n      add\n        /* \"#utility.yul\":9483:9536   */\n      tag_265\n      jump\t// in\n    tag_425:\n        /* \"#utility.yul\":9473:9536   */\n      swap3\n      pop\n        /* \"#utility.yul\":9428:9546   */\n      pop\n        /* \"#utility.yul\":9585:9587   */\n      0x40\n        /* \"#utility.yul\":9611:9663   */\n      tag_426\n        /* \"#utility.yul\":9655:9662   */\n      dup7\n        /* \"#utility.yul\":9646:9652   */\n      dup3\n        /* \"#utility.yul\":9635:9644   */\n      dup8\n        /* \"#utility.yul\":9631:9653   */\n      add\n        /* \"#utility.yul\":9611:9663   */\n      tag_269\n      jump\t// in\n    tag_426:\n        /* \"#utility.yul\":9601:9663   */\n      swap2\n      pop\n        /* \"#utility.yul\":9556:9673   */\n      pop\n        /* \"#utility.yul\":9063:9680   */\n      swap3\n      pop\n      swap3\n      pop\n      swap3\n      jump\t// out\n        /* \"#utility.yul\":9686:9776   */\n    tag_287:\n        /* \"#utility.yul\":9720:9727   */\n      0x00\n        /* \"#utility.yul\":9763:9768   */\n      dup2\n        /* \"#utility.yul\":9756:9769   */\n      iszero\n        /* \"#utility.yul\":9749:9770   */\n      iszero\n        /* \"#utility.yul\":9738:9770   */\n      swap1\n      pop\n        /* \"#utility.yul\":9686:9776   */\n      swap2\n      swap1\n      pop\n      jump\t// out\n        /* \"#utility.yul\":9782:9891   */\n    tag_288:\n        /* \"#utility.yul\":9863:9884   */\n      tag_429\n        /* \"#utility.yul\":9878:9883   */\n      dup2\n        /* \"#utility.yul\":9863:9884   */\n      tag_287\n      jump\t// in\n    tag_429:\n        /* \"#utility.yul\":9858:9861   */\n      dup3\n        /* \"#utility.yul\":9851:9885   */\n      mstore\n        /* \"#utility.yul\":9782:9891   */\n      pop\n      pop\n      jump\t// out\n        /* \"#utility.yul\":9897:10107   */\n    tag_63:\n        /* \"#utility.yul\":9984:9988   */\n      0x00\n        /* \"#utility.yul\":10022:10024   */\n      0x20\n        /* \"#utility.yul\":10011:10020   */\n      dup3\n        /* \"#utility.yul\":10007:10025   */\n      add\n        /* \"#utility.yul\":9999:10025   */\n      swap1\n      pop\n        /* \"#utility.yul\":10035:10100   */\n      tag_431\n        /* \"#utility.yul\":10097:10098   */\n      0x00\n        /* \"#utility.yul\":10086:10095   */\n      dup4\n        /* \"#utility.yul\":10082:10099   */\n      add\n        /* \"#utility.yul\":10073:10079   */\n      dup5\n        /* \"#utility.yul\":10035:10100   */\n      tag_288\n      jump\t// in\n    tag_431:\n        /* \"#utility.yul\":9897:10107   */\n      swap3\n      swap2\n      pop\n      pop\n      jump\t// out\n        /* \"#utility.yul\":10113:10440   */\n    tag_73:\n        /* \"#utility.yul\":10171:10177   */\n      0x00\n        /* \"#utility.yul\":10220:10222   */\n      0x20\n        /* \"#utility.yul\":10208:10217   */\n      dup3\n        /* \"#utility.yul\":10199:10206   */\n      dup5\n        /* \"#utility.yul\":10195:10218   */\n      sub\n        /* \"#utility.yul\":10191:10223   */\n      slt\n        /* \"#utility.yul\":10188:10307   */\n      iszero\n      tag_433\n      jumpi\n        /* \"#utility.yul\":10226:10305   */\n      tag_434\n      tag_257\n      jump\t// in\n    tag_434:\n        /* \"#utility.yul\":10188:10307   */\n    tag_433:\n        /* \"#utility.yul\":10346:10347   */\n      0x00\n        /* \"#utility.yul\":10371:10423   */\n      tag_435\n        /* \"#utility.yul\":10415:10422   */\n      dup5\n        /* \"#utility.yul\":10406:10412   */\n      dup3\n        /* \"#utility.yul\":10395:10404   */\n      dup6\n        /* \"#utility.yul\":10391:10413   */\n      add\n        /* \"#utility.yul\":10371:10423   */\n      tag_269\n      jump\t// in\n    tag_435:\n        /* \"#utility.yul\":10361:10423   */\n      swap2\n      pop\n        /* \"#utility.yul\":10317:10433   */\n      pop\n        /* \"#utility.yul\":10113:10440   */\n      swap3\n      swap2\n      pop\n      pop\n      jump\t// out\n        /* \"#utility.yul\":10446:10626   */\n    tag_85:\n        /* \"#utility.yul\":10494:10571   */\n      0x4e487b7100000000000000000000000000000000000000000000000000000000\n        /* \"#utility.yul\":10491:10492   */\n      0x00\n        /* \"#utility.yul\":10484:10572   */\n      mstore\n        /* \"#utility.yul\":10591:10595   */\n      0x41\n        /* \"#utility.yul\":10588:10589   */\n      0x04\n        /* \"#utility.yul\":10581:10596   */\n      mstore\n        /* \"#utility.yul\":10615:10619   */\n      0x24\n        /* \"#utility.yul\":10612:10613   */\n      0x00\n        /* \"#utility.yul\":10605:10620   */\n      revert\n        /* \"#utility.yul\":10632:10812   */\n    tag_92:\n        /* \"#utility.yul\":10680:10757   */\n      0x4e487b7100000000000000000000000000000000000000000000000000000000\n        /* \"#utility.yul\":10677:10678   */\n      0x00\n        /* \"#utility.yul\":10670:10758   */\n      mstore\n        /* \"#utility.yul\":10777:10781   */\n      0x32\n        /* \"#utility.yul\":10774:10775   */\n      0x04\n        /* \"#utility.yul\":10767:10782   */\n      mstore\n        /* \"#utility.yul\":10801:10805   */\n      0x24\n        /* \"#utility.yul\":10798:10799   */\n      0x00\n        /* \"#utility.yul\":10791:10806   */\n      revert\n        /* \"#utility.yul\":10818:10998   */\n    tag_289:\n        /* \"#utility.yul\":10866:10943   */\n      0x4e487b7100000000000000000000000000000000000000000000000000000000\n        /* \"#utility.yul\":10863:10864   */\n      0x00\n        /* \"#utility.yul\":10856:10944   */\n      mstore\n        /* \"#utility.yul\":10963:10967   */\n      0x11\n        /* \"#utility.yul\":10960:10961   */\n      0x04\n        /* \"#utility.yul\":10953:10968   */\n      mstore\n        /* \"#utility.yul\":10987:10991   */\n      0x24\n        /* \"#utility.yul\":10984:10985   */\n      0x00\n        /* \"#utility.yul\":10977:10992   */\n      revert\n        /* \"#utility.yul\":11004:11195   */\n    tag_96:\n        /* \"#utility.yul\":11044:11047   */\n      0x00\n        /* \"#utility.yul\":11063:11083   */\n      tag_440\n        /* \"#utility.yul\":11081:11082   */\n      dup3\n        /* \"#utility.yul\":11063:11083   */\n      tag_263\n      jump\t// in\n    tag_440:\n        /* \"#utility.yul\":11058:11083   */\n      swap2\n      pop\n        /* \"#utility.yul\":11097:11117   */\n      tag_441\n        /* \"#utility.yul\":11115:11116   */\n      dup4\n        /* \"#utility.yul\":11097:11117   */\n      tag_263\n      jump\t// in\n    tag_441:\n        /* \"#utility.yul\":11092:11117   */\n      swap3\n      pop\n        /* \"#utility.yul\":11140:11141   */\n      dup3\n        /* \"#utility.yul\":11137:11138   */\n      dup3\n        /* \"#utility.yul\":11133:11142   */\n      add\n        /* \"#utility.yul\":11126:11142   */\n      swap1\n      pop\n        /* \"#utility.yul\":11161:11164   */\n      dup1\n        /* \"#utility.yul\":11158:11159   */\n      dup3\n        /* \"#utility.yul\":11155:11165   */\n      gt\n        /* \"#utility.yul\":11152:11188   */\n      iszero\n      tag_442\n      jumpi\n        /* \"#utility.yul\":11168:11186   */\n      tag_443\n      tag_289\n      jump\t// in\n    tag_443:\n        /* \"#utility.yul\":11152:11188   */\n    tag_442:\n        /* \"#utility.yul\":11004:11195   */\n      swap3\n      swap2\n      pop\n      pop\n      jump\t// out\n        /* \"#utility.yul\":11201:11370   */\n    tag_290:\n        /* \"#utility.yul\":11285:11296   */\n      0x00\n        /* \"#utility.yul\":11319:11325   */\n      dup3\n        /* \"#utility.yul\":11314:11317   */\n      dup3\n        /* \"#utility.yul\":11307:11326   */\n      mstore\n        /* \"#utility.yul\":11359:11363   */\n      0x20\n        /* \"#utility.yul\":11354:11357   */\n      dup3\n        /* \"#utility.yul\":11350:11364   */\n      add\n        /* \"#utility.yul\":11335:11364   */\n      swap1\n      pop\n        /* \"#utility.yul\":11201:11370   */\n      swap3\n      swap2\n      pop\n      pop\n      jump\t// out\n        /* \"#utility.yul\":11376:11541   */\n    tag_291:\n        /* \"#utility.yul\":11516:11533   */\n      0x4275646765742065786365656465640000000000000000000000000000000000\n        /* \"#utility.yul\":11512:11513   */\n      0x00\n        /* \"#utility.yul\":11504:11510   */\n      dup3\n        /* \"#utility.yul\":11500:11514   */\n      add\n        /* \"#utility.yul\":11493:11534   */\n      mstore\n        /* \"#utility.yul\":11376:11541   */\n      pop\n      jump\t// out\n        /* \"#utility.yul\":11547:11913   */\n    tag_292:\n        /* \"#utility.yul\":11689:11692   */\n      0x00\n        /* \"#utility.yul\":11710:11777   */\n      tag_447\n        /* \"#utility.yul\":11774:11776   */\n      0x0f\n        /* \"#utility.yul\":11769:11772   */\n      dup4\n        /* \"#utility.yul\":11710:11777   */\n      tag_290\n      jump\t// in\n    tag_447:\n        /* \"#utility.yul\":11703:11777   */\n      swap2\n      pop\n        /* \"#utility.yul\":11786:11879   */\n      tag_448\n        /* \"#utility.yul\":11875:11878   */\n      dup3\n        /* \"#utility.yul\":11786:11879   */\n      tag_291\n      jump\t// in\n    tag_448:\n        /* \"#utility.yul\":11904:11906   */\n      0x20\n        /* \"#utility.yul\":11899:11902   */\n      dup3\n        /* \"#utility.yul\":11895:11907   */\n      add\n        /* \"#utility.yul\":11888:11907   */\n      swap1\n      pop\n        /* \"#utility.yul\":11547:11913   */\n      swap2\n      swap1\n      pop\n      jump\t// out\n        /* \"#utility.yul\":11919:12338   */\n    tag_99:\n        /* \"#utility.yul\":12085:12089   */\n      0x00\n        /* \"#utility.yul\":12123:12125   */\n      0x20\n        /* \"#utility.yul\":12112:12121   */\n      dup3\n        /* \"#utility.yul\":12108:12126   */\n      add\n        /* \"#utility.yul\":12100:12126   */\n      swap1\n      pop\n        /* \"#utility.yul\":12172:12181   */\n      dup2\n        /* \"#utility.yul\":12166:12170   */\n      dup2\n        /* \"#utility.yul\":12162:12182   */\n      sub\n        /* \"#utility.yul\":12158:12159   */\n      0x00\n        /* \"#utility.yul\":12147:12156   */\n      dup4\n        /* \"#utility.yul\":12143:12160   */\n      add\n        /* \"#utility.yul\":12136:12183   */\n      mstore\n        /* \"#utility.yul\":12200:12331   */\n      tag_450\n        /* \"#utility.yul\":12326:12330   */\n      dup2\n        /* \"#utility.yul\":12200:12331   */\n      tag_292\n      jump\t// in\n    tag_450:\n        /* \"#utility.yul\":12192:12331   */\n      swap1\n      pop\n        /* \"#utility.yul\":11919:12338   */\n      swap2\n      swap1\n      pop\n      jump\t// out\n        /* \"#utility.yul\":12344:12786   */\n    tag_101:\n        /* \"#utility.yul\":12493:12497   */\n      0x00\n        /* \"#utility.yul\":12531:12533   */\n      0x60\n        /* \"#utility.yul\":12520:12529   */\n      dup3\n        /* \"#utility.yul\":12516:12534   */\n      add\n        /* \"#utility.yul\":12508:12534   */\n      swap1\n      pop\n        /* \"#utility.yul\":12544:12615   */\n      tag_452\n        /* \"#utility.yul\":12612:12613   */\n      0x00\n        /* \"#utility.yul\":12601:12610   */\n      dup4\n        /* \"#utility.yul\":12597:12614   */\n      add\n        /* \"#utility.yul\":12588:12594   */\n      dup7\n        /* \"#utility.yul\":12544:12615   */\n      tag_266\n      jump\t// in\n    tag_452:\n        /* \"#utility.yul\":12625:12697   */\n      tag_453\n        /* \"#utility.yul\":12693:12695   */\n      0x20\n        /* \"#utility.yul\":12682:12691   */\n      dup4\n        /* \"#utility.yul\":12678:12696   */\n      add\n        /* \"#utility.yul\":12669:12675   */\n      dup6\n        /* \"#utility.yul\":12625:12697   */\n      tag_266\n      jump\t// in\n    tag_453:\n        /* \"#utility.yul\":12707:12779   */\n      tag_454\n        /* \"#utility.yul\":12775:12777   */\n      0x40\n        /* \"#utility.yul\":12764:12773   */\n      dup4\n        /* \"#utility.yul\":12760:12778   */\n      add\n        /* \"#utility.yul\":12751:12757   */\n      dup5\n        /* \"#utility.yul\":12707:12779   */\n      tag_286\n      jump\t// in\n    tag_454:\n        /* \"#utility.yul\":12344:12786   */\n      swap5\n      swap4\n      pop\n      pop\n      pop\n      pop\n      jump\t// out\n        /* \"#utility.yul\":12792:12908   */\n    tag_293:\n        /* \"#utility.yul\":12862:12883   */\n      tag_456\n        /* \"#utility.yul\":12877:12882   */\n      dup2\n        /* \"#utility.yul\":12862:12883   */\n      tag_287\n      jump\t// in\n    tag_456:\n        /* \"#utility.yul\":12855:12860   */\n      dup2\n        /* \"#utility.yul\":12852:12884   */\n      eq\n        /* \"#utility.yul\":12842:12902   */\n      tag_457\n      jumpi\n        /* \"#utility.yul\":12898:12899   */\n      0x00\n        /* \"#utility.yul\":12895:12896   */\n      dup1\n        /* \"#utility.yul\":12888:12900   */\n      revert\n        /* \"#utility.yul\":12842:12902   */\n    tag_457:\n        /* \"#utility.yul\":12792:12908   */\n      pop\n      jump\t// out\n        /* \"#utility.yul\":12914:13051   */\n    tag_294:\n        /* \"#utility.yul\":12968:12973   */\n      0x00\n        /* \"#utility.yul\":12999:13005   */\n      dup2\n        /* \"#utility.yul\":12993:13006   */\n      mload\n        /* \"#utility.yul\":12984:13006   */\n      swap1\n      pop\n        /* \"#utility.yul\":13015:13045   */\n      tag_459\n        /* \"#utility.yul\":13039:13044   */\n      dup2\n        /* \"#utility.yul\":13015:13045   */\n      tag_293\n      jump\t// in\n    tag_459:\n        /* \"#utility.yul\":12914:13051   */\n      swap3\n      swap2\n      pop\n      pop\n      jump\t// out\n        /* \"#utility.yul\":13057:13402   */\n    tag_105:\n        /* \"#utility.yul\":13124:13130   */\n      0x00\n        /* \"#utility.yul\":13173:13175   */\n      0x20\n        /* \"#utility.yul\":13161:13170   */\n      dup3\n        /* \"#utility.yul\":13152:13159   */\n      dup5\n        /* \"#utility.yul\":13148:13171   */\n      sub\n        /* \"#utility.yul\":13144:13176   */\n      slt\n        /* \"#utility.yul\":13141:13260   */\n      iszero\n      tag_461\n      jumpi\n        /* \"#utility.yul\":13179:13258   */\n      tag_462\n      tag_257\n      jump\t// in\n    tag_462:\n        /* \"#utility.yul\":13141:13260   */\n    tag_461:\n        /* \"#utility.yul\":13299:13300   */\n      0x00\n        /* \"#utility.yul\":13324:13385   */\n      tag_463\n        /* \"#utility.yul\":13377:13384   */\n      dup5\n        /* \"#utility.yul\":13368:13374   */\n      dup3\n        /* \"#utility.yul\":13357:13366   */\n      dup6\n        /* \"#utility.yul\":13353:13375   */\n      add\n        /* \"#utility.yul\":13324:13385   */\n      tag_294\n      jump\t// in\n    tag_463:\n        /* \"#utility.yul\":13314:13385   */\n      swap2\n      pop\n        /* \"#utility.yul\":13270:13395   */\n      pop\n        /* \"#utility.yul\":13057:13402   */\n      swap3\n      swap2\n      pop\n      pop\n      jump\t// out\n        /* \"#utility.yul\":13408:13572   */\n    tag_295:\n        /* \"#utility.yul\":13548:13564   */\n      0x5061796d656e74206661696c6564000000000000000000000000000000000000\n        /* \"#utility.yul\":13544:13545   */\n      0x00\n        /* \"#utility.yul\":13536:13542   */\n      dup3\n        /* \"#utility.yul\":13532:13546   */\n      add\n        /* \"#utility.yul\":13525:13565   */\n      mstore\n        /* \"#utility.yul\":13408:13572   */\n      pop\n      jump\t// out\n        /* \"#utility.yul\":13578:13944   */\n    tag_296:\n        /* \"#utility.yul\":13720:13723   */\n      0x00\n        /* \"#utility.yul\":13741:13808   */\n      tag_466\n        /* \"#utility.yul\":13805:13807   */\n      0x0e\n        /* \"#utility.yul\":13800:13803   */\n      dup4\n        /* \"#utility.yul\":13741:13808   */\n      tag_290\n      jump\t// in\n    tag_466:\n        /* \"#utility.yul\":13734:13808   */\n      swap2\n      pop\n        /* \"#utility.yul\":13817:13910   */\n      tag_467\n        /* \"#utility.yul\":13906:13909   */\n      dup3\n        /* \"#utility.yul\":13817:13910   */\n      tag_295\n      jump\t// in\n    tag_467:\n        /* \"#utility.yul\":13935:13937   */\n      0x20\n        /* \"#utility.yul\":13930:13933   */\n      dup3\n        /* \"#utility.yul\":13926:13938   */\n      add\n        /* \"#utility.yul\":13919:13938   */\n      swap1\n      pop\n        /* \"#utility.yul\":13578:13944   */\n      swap2\n      swap1\n      pop\n      jump\t// out\n        /* \"#utility.yul\":13950:14369   */\n    tag_108:\n        /* \"#utility.yul\":14116:14120   */\n      0x00\n        /* \"#utility.yul\":14154:14156   */\n      0x20\n        /* \"#utility.yul\":14143:14152   */\n      dup3\n        /* \"#utility.yul\":14139:14157   */\n      add\n        /* \"#utility.yul\":14131:14157   */\n      swap1\n      pop\n        /* \"#utility.yul\":14203:14212   */\n      dup2\n        /* \"#utility.yul\":14197:14201   */\n      dup2\n        /* \"#utility.yul\":14193:14213   */\n      sub\n        /* \"#utility.yul\":14189:14190   */\n      0x00\n        /* \"#utility.yul\":14178:14187   */\n      dup4\n        /* \"#utility.yul\":14174:14191   */\n      add\n        /* \"#utility.yul\":14167:14214   */\n      mstore\n        /* \"#utility.yul\":14231:14362   */\n      tag_469\n        /* \"#utility.yul\":14357:14361   */\n      dup2\n        /* \"#utility.yul\":14231:14362   */\n      tag_296\n      jump\t// in\n    tag_469:\n        /* \"#utility.yul\":14223:14362   */\n      swap1\n      pop\n        /* \"#utility.yul\":13950:14369   */\n      swap2\n      swap1\n      pop\n      jump\t// out\n        /* \"#utility.yul\":14375:14608   */\n    tag_119:\n        /* \"#utility.yul\":14414:14417   */\n      0x00\n        /* \"#utility.yul\":14437:14461   */\n      tag_471\n        /* \"#utility.yul\":14455:14460   */\n      dup3\n        /* \"#utility.yul\":14437:14461   */\n      tag_263\n      jump\t// in\n    tag_471:\n        /* \"#utility.yul\":14428:14461   */\n      swap2\n      pop\n        /* \"#utility.yul\":14483:14549   */\n      0xffffffffffffffffffffffffffffffffffffffffffffffffffffffffffffffff\n        /* \"#utility.yul\":14476:14481   */\n      dup3\n        /* \"#utility.yul\":14473:14550   */\n      sub\n        /* \"#utility.yul\":14470:14573   */\n      tag_472\n      jumpi\n        /* \"#utility.yul\":14553:14571   */\n      tag_473\n      tag_289\n      jump\t// in\n    tag_473:\n        /* \"#utility.yul\":14470:14573   */\n    tag_472:\n        /* \"#utility.yul\":14600:14601   */\n      0x01\n        /* \"#utility.yul\":14593:14598   */\n      dup3\n        /* \"#utility.yul\":14589:14602   */\n      add\n        /* \"#utility.yul\":14582:14602   */\n      swap1\n      pop\n        /* \"#utility.yul\":14375:14608   */\n      swap2\n      swap1\n      pop\n      jump\t// out\n        /* \"#utility.yul\":14614:14757   */\n    tag_297:\n        /* \"#utility.yul\":14671:14676   */\n      0x00\n        /* \"#utility.yul\":14702:14708   */\n      dup2\n        /* \"#utility.yul\":14696:14709   */\n      mload\n        /* \"#utility.yul\":14687:14709   */\n      swap1\n      pop\n        /* \"#utility.yul\":14718:14751   */\n      tag_475\n        /* \"#utility.yul\":14745:14750   */\n      dup2\n        /* \"#utility.yul\":14718:14751   */\n      tag_261\n      jump\t// in\n    tag_475:\n        /* \"#utility.yul\":14614:14757   */\n      swap3\n      swap2\n      pop\n      pop\n      jump\t// out\n        /* \"#utility.yul\":14763:15114   */\n    tag_153:\n        /* \"#utility.yul\":14833:14839   */\n      0x00\n        /* \"#utility.yul\":14882:14884   */\n      0x20\n        /* \"#utility.yul\":14870:14879   */\n      dup3\n        /* \"#utility.yul\":14861:14868   */\n      dup5\n        /* \"#utility.yul\":14857:14880   */\n      sub\n        /* \"#utility.yul\":14853:14885   */\n      slt\n        /* \"#utility.yul\":14850:14969   */\n      iszero\n      tag_477\n      jumpi\n        /* \"#utility.yul\":14888:14967   */\n      tag_478\n      tag_257\n      jump\t// in\n    tag_478:\n        /* \"#utility.yul\":14850:14969   */\n    tag_477:\n        /* \"#utility.yul\":15008:15009   */\n      0x00\n        /* \"#utility.yul\":15033:15097   */\n      tag_479\n        /* \"#utility.yul\":15089:15096   */\n      dup5\n        /* \"#utility.yul\":15080:15086   */\n      dup3\n        /* \"#utility.yul\":15069:15078   */\n      dup6\n        /* \"#utility.yul\":15065:15087   */\n      add\n        /* \"#utility.yul\":15033:15097   */\n      tag_297\n      jump\t// in\n    tag_479:\n        /* \"#utility.yul\":15023:15097   */\n      swap2\n      pop\n        /* \"#utility.yul\":14979:15107   */\n      pop\n        /* \"#utility.yul\":14763:15114   */\n      swap3\n      swap2\n      pop\n      pop\n      jump\t// out\n        /* \"#utility.yul\":15120:15283   */\n    tag_298:\n        /* \"#utility.yul\":15260:15275   */\n      0x4e6f7420746865206f776e657200000000000000000000000000000000000000\n        /* \"#utility.yul\":15256:15257   */\n      0x00\n        /* \"#utility.yul\":15248:15254   */\n      dup3\n        /* \"#utility.yul\":15244:15258   */\n      add\n        /* \"#utility.yul\":15237:15276   */\n      mstore\n        /* \"#utility.yul\":15120:15283   */\n      pop\n      jump\t// out\n        /* \"#utility.yul\":15289:15655   */\n    tag_299:\n        /* \"#utility.yul\":15431:15434   */\n      0x00\n        /* \"#utility.yul\":15452:15519   */\n      tag_482\n        /* \"#utility.yul\":15516:15518   */\n      0x0d\n        /* \"#utility.yul\":15511:15514   */\n      dup4\n        /* \"#utility.yul\":15452:15519   */\n      tag_290\n      jump\t// in\n    tag_482:\n        /* \"#utility.yul\":15445:15519   */\n      swap2\n      pop\n        /* \"#utility.yul\":15528:15621   */\n      tag_483\n        /* \"#utility.yul\":15617:15620   */\n      dup3\n        /* \"#utility.yul\":15528:15621   */\n      tag_298\n      jump\t// in\n    tag_483:\n        /* \"#utility.yul\":15646:15648   */\n      0x20\n        /* \"#utility.yul\":15641:15644   */\n      dup3\n        /* \"#utility.yul\":15637:15649   */\n      add\n        /* \"#utility.yul\":15630:15649   */\n      swap1\n      pop\n        /* \"#utility.yul\":15289:15655   */\n      swap2\n      swap1\n      pop\n      jump\t// out\n        /* \"#utility.yul\":15661:16080   */\n    tag_156:\n        /* \"#utility.yul\":15827:15831   */\n      0x00\n        /* \"#utility.yul\":15865:15867   */\n      0x20\n        /* \"#utility.yul\":15854:15863   */\n      dup3\n        /* \"#utility.yul\":15850:15868   */\n      add\n        /* \"#utility.yul\":15842:15868   */\n      swap1\n      pop\n        /* \"#utility.yul\":15914:15923   */\n      dup2\n        /* \"#utility.yul\":15908:15912   */\n      dup2\n        /* \"#utility.yul\":15904:15924   */\n      sub\n        /* \"#utility.yul\":15900:15901   */\n      0x00\n        /* \"#utility.yul\":15889:15898   */\n      dup4\n        /* \"#utility.yul\":15885:15902   */\n      add\n        /* \"#utility.yul\":15878:15925   */\n      mstore\n        /* \"#utility.yul\":15942:16073   */\n      tag_485\n        /* \"#utility.yul\":16068:16072   */\n      dup2\n        /* \"#utility.yul\":15942:16073   */\n      tag_299\n      jump\t// in\n    tag_485:\n        /* \"#utility.yul\":15934:16073   */\n      swap1\n      pop\n        /* \"#utility.yul\":15661:16080   */\n      swap2\n      swap1\n      pop\n      jump\t// out\n        /* \"#utility.yul\":16086:16250   */\n    tag_300:\n        /* \"#utility.yul\":16226:16242   */\n      0x416c7265616479206c6973746564000000000000000000000000000000000000\n        /* \"#utility.yul\":16222:16223   */\n      0x00\n        /* \"#utility.yul\":16214:16220   */\n      dup3\n        /* \"#utility.yul\":16210:16224   */\n      add\n        /* \"#utility.yul\":16203:16243   */\n      mstore\n        /* \"#utility.yul\":16086:16250   */\n      pop\n      jump\t// out\n        /* \"#utility.yul\":16256:16622   */\n    tag_301:\n        /* \"#utility.yul\":16398:16401   */\n      0x00\n        /* \"#utility.yul\":16419:16486   */\n      tag_488\n        /* \"#utility.yul\":16483:16485   */\n      0x0e\n        /* \"#utility.yul\":16478:16481   */\n      dup4\n        /* \"#utility.yul\":16419:16486   */\n      tag_290\n      jump\t// in\n    tag_488:\n        /* \"#utility.yul\":16412:16486   */\n      swap2\n      pop\n        /* \"#utility.yul\":16495:16588   */\n      tag_489\n        /* \"#utility.yul\":16584:16587   */\n      dup3\n        /* \"#utility.yul\":16495:16588   */\n      tag_300\n      jump\t// in\n    tag_489:\n        /* \"#utility.yul\":16613:16615   */\n      0x20\n        /* \"#utility.yul\":16608:16611   */\n      dup3\n        /* \"#utility.yul\":16604:16616   */\n      add\n        /* \"#utility.yul\":16597:16616   */\n      swap1\n      pop\n        /* \"#utility.yul\":16256:16622   */\n      swap2\n      swap1\n      pop\n      jump\t// out\n        /* \"#utility.yul\":16628:17047   */\n    tag_160:\n        /* \"#utility.yul\":16794:16798   */\n      0x00\n        /* \"#utility.yul\":16832:16834   */\n      0x20\n        /* \"#utility.yul\":16821:16830   */\n      dup3\n        /* \"#utility.yul\":16817:16835   */\n      add\n        /* \"#utility.yul\":16809:16835   */\n      swap1\n      pop\n        /* \"#utility.yul\":16881:16890   */\n      dup2\n        /* \"#utility.yul\":16875:16879   */\n      dup2\n        /* \"#utility.yul\":16871:16891   */\n      sub\n        /* \"#utility.yul\":16867:16868   */\n      0x00\n        /* \"#utility.yul\":16856:16865   */\n      dup4\n        /* \"#utility.yul\":16852:16869   */\n      add\n        /* \"#utility.yul\":16845:16892   */\n      mstore\n        /* \"#utility.yul\":16909:17040   */\n      tag_491\n        /* \"#utility.yul\":17035:17039   */\n      dup2\n        /* \"#utility.yul\":16909:17040   */\n      tag_301\n      jump\t// in\n    tag_491:\n        /* \"#utility.yul\":16901:17040   */\n      swap1\n      pop\n        /* \"#utility.yul\":16628:17047   */\n      swap2\n      swap1\n      pop\n      jump\t// out\n        /* \"#utility.yul\":17053:17215   */\n    tag_302:\n        /* \"#utility.yul\":17193:17207   */\n      0x4e6f7420617070726f7665640000000000000000000000000000000000000000\n        /* \"#utility.yul\":17189:17190   */\n      0x00\n        /* \"#utility.yul\":17181:17187   */\n      dup3\n        /* \"#utility.yul\":17177:17191   */\n      add\n        /* \"#utility.yul\":17170:17208   */\n      mstore\n        /* \"#utility.yul\":17053:17215   */\n      pop\n      jump\t// out\n        /* \"#utility.yul\":17221:17587   */\n    tag_303:\n        /* \"#utility.yul\":17363:17366   */\n      0x00\n        /* \"#utility.yul\":17384:17451   */\n      tag_494\n        /* \"#utility.yul\":17448:17450   */\n      0x0c\n        /* \"#utility.yul\":17443:17446   */\n      dup4\n        /* \"#utility.yul\":17384:17451   */\n      tag_290\n      jump\t// in\n    tag_494:\n        /* \"#utility.yul\":17377:17451   */\n      swap2\n      pop\n        /* \"#utility.yul\":17460:17553   */\n      tag_495\n        /* \"#utility.yul\":17549:17552   */\n      dup3\n        /* \"#utility.yul\":17460:17553   */\n      tag_302\n      jump\t// in\n    tag_495:\n        /* \"#utility.yul\":17578:17580   */\n      0x20\n        /* \"#utility.yul\":17573:17576   */\n      dup3\n        /* \"#utility.yul\":17569:17581   */\n      add\n        /* \"#utility.yul\":17562:17581   */\n      swap1\n      pop\n        /* \"#utility.yul\":17221:17587   */\n      swap2\n      swap1\n      pop\n      jump\t// out\n        /* \"#utility.yul\":17593:18012   */\n    tag_167:\n        /* \"#utility.yul\":17759:17763   */\n      0x00\n        /* \"#utility.yul\":17797:17799   */\n      0x20\n        /* \"#utility.yul\":17786:17795   */\n      dup3\n        /* \"#utility.yul\":17782:17800   */\n      add\n        /* \"#utility.yul\":17774:17800   */\n      swap1\n      pop\n        /* \"#utility.yul\":17846:17855   */\n      dup2\n        /* \"#utility.yul\":17840:17844   */\n      dup2\n        /* \"#utility.yul\":17836:17856   */\n      sub\n        /* \"#utility.yul\":17832:17833   */\n      0x00\n        /* \"#utility.yul\":17821:17830   */\n      dup4\n        /* \"#utility.yul\":17817:17834   */\n      add\n        /* \"#utility.yul\":17810:17857   */\n      mstore\n        /* \"#utility.yul\":17874:18005   */\n      tag_497\n        /* \"#utility.yul\":18000:18004   */\n      dup2\n        /* \"#utility.yul\":17874:18005   */\n      tag_303\n      jump\t// in\n    tag_497:\n        /* \"#utility.yul\":17866:18005   */\n      swap1\n      pop\n        /* \"#utility.yul\":17593:18012   */\n      swap2\n      swap1\n      pop\n      jump\t// out\n        /* \"#utility.yul\":18018:18133   */\n    tag_304:\n        /* \"#utility.yul\":18103:18126   */\n      tag_499\n        /* \"#utility.yul\":18120:18125   */\n      dup2\n        /* \"#utility.yul\":18103:18126   */\n      tag_267\n      jump\t// in\n    tag_499:\n        /* \"#utility.yul\":18098:18101   */\n      dup3\n        /* \"#utility.yul\":18091:18127   */\n      mstore\n        /* \"#utility.yul\":18018:18133   */\n      pop\n      pop\n      jump\t// out\n        /* \"#utility.yul\":18139:18467   */\n    tag_172:\n        /* \"#utility.yul\":18258:18262   */\n      0x00\n        /* \"#utility.yul\":18296:18298   */\n      0x40\n        /* \"#utility.yul\":18285:18294   */\n      dup3\n        /* \"#utility.yul\":18281:18299   */\n      add\n        /* \"#utility.yul\":18273:18299   */\n      swap1\n      pop\n        /* \"#utility.yul\":18309:18380   */\n      tag_501\n        /* \"#utility.yul\":18377:18378   */\n      0x00\n        /* \"#utility.yul\":18366:18375   */\n      dup4\n        /* \"#utility.yul\":18362:18379   */\n      add\n        /* \"#utility.yul\":18353:18359   */\n      dup6\n        /* \"#utility.yul\":18309:18380   */\n      tag_286\n      jump\t// in\n    tag_501:\n        /* \"#utility.yul\":18390:18460   */\n      tag_502\n        /* \"#utility.yul\":18456:18458   */\n      0x20\n        /* \"#utility.yul\":18445:18454   */\n      dup4\n        /* \"#utility.yul\":18441:18459   */\n      add\n        /* \"#utility.yul\":18432:18438   */\n      dup5\n        /* \"#utility.yul\":18390:18460   */\n      tag_304\n      jump\t// in\n    tag_502:\n        /* \"#utility.yul\":18139:18467   */\n      swap4\n      swap3\n      pop\n      pop\n      pop\n      jump\t// out\n        /* \"#utility.yul\":18473:18633   */\n    tag_305:\n        /* \"#utility.yul\":18613:18625   */\n      0x4e6f74206c697374656400000000000000000000000000000000000000000000\n        /* \"#utility.yul\":18609:18610   */\n      0x00\n        /* \"#utility.yul\":18601:18607   */\n      dup3\n        /* \"#utility.yul\":18597:18611   */\n      add\n        /* \"#utility.yul\":18590:18626   */\n      mstore\n        /* \"#utility.yul\":18473:18633   */\n      pop\n      jump\t// out\n        /* \"#utility.yul\":18639:19005   */\n    tag_306:\n        /* \"#utility.yul\":18781:18784   */\n      0x00\n        /* \"#utility.yul\":18802:18869   */\n      tag_505\n        /* \"#utility.yul\":18866:18868   */\n      0x0a\n        /* \"#utility.yul\":18861:18864   */\n      dup4\n        /* \"#utility.yul\":18802:18869   */\n      tag_290\n      jump\t// in\n    tag_505:\n        /* \"#utility.yul\":18795:18869   */\n      swap2\n      pop\n        /* \"#utility.yul\":18878:18971   */\n      tag_506\n        /* \"#utility.yul\":18967:18970   */\n      dup3\n        /* \"#utility.yul\":18878:18971   */\n      tag_305\n      jump\t// in\n    tag_506:\n        /* \"#utility.yul\":18996:18998   */\n      0x20\n        /* \"#utility.yul\":18991:18994   */\n      dup3\n        /* \"#utility.yul\":18987:18999   */\n      add\n        /* \"#utility.yul\":18980:18999   */\n      swap1\n      pop\n        /* \"#utility.yul\":18639:19005   */\n      swap2\n      swap1\n      pop\n      jump\t// out\n        /* \"#utility.yul\":19011:19430   */\n    tag_179:\n        /* \"#utility.yul\":19177:19181   */\n      0x00\n        /* \"#utility.yul\":19215:19217   */\n      0x20\n        /* \"#utility.yul\":19204:19213   */\n      dup3\n        /* \"#utility.yul\":19200:19218   */\n      add\n        /* \"#utility.yul\":19192:19218   */\n      swap1\n      pop\n        /* \"#utility.yul\":19264:19273   */\n      dup2\n        /* \"#utility.yul\":19258:19262   */\n      dup2\n        /* \"#utility.yul\":19254:19274   */\n      sub\n        /* \"#utility.yul\":19250:19251   */\n      0x00\n        /* \"#utility.yul\":19239:19248   */\n      dup4\n        /* \"#utility.yul\":19235:19252   */\n      add\n        /* \"#utility.yul\":19228:19275   */\n      mstore\n        /* \"#utility.yul\":19292:19423   */\n      tag_508\n        /* \"#utility.yul\":19418:19422   */\n      dup2\n        /* \"#utility.yul\":19292:19423   */\n      tag_306\n      jump\t// in\n    tag_508:\n        /* \"#utility.yul\":19284:19423   */\n      swap1\n      pop\n        /* \"#utility.yul\":19011:19430   */\n      swap2\n      swap1\n      pop\n      jump\t// out\n        /* \"#utility.yul\":19436:19599   */\n    tag_307:\n        /* \"#utility.yul\":19576:19591   */\n      0x496e76616c69642067726f757000000000000000000000000000000000000000\n        /* \"#utility.yul\":19572:19573   */\n      0x00\n        /* \"#utility.yul\":19564:19570   */\n      dup3\n        /* \"#utility.yul\":19560:19574   */\n      add\n        /* \"#utility.yul\":19553:19592   */\n      mstore\n        /* \"#utility.yul\":19436:19599   */\n      pop\n      jump\t// out\n        /* \"#utility.yul\":19605:19971   */\n    tag_308:\n        /* \"#utility.yul\":19747:19750   */\n      0x00\n        /* \"#utility.yul\":19768:19835   */\n      tag_511\n        /* \"#utility.yul\":19832:19834   */\n      0x0d\n        /* \"#utility.yul\":19827:19830   */\n      dup4\n        /* \"#utility.yul\":19768:19835   */\n      tag_290\n      jump\t// in\n    tag_511:\n        /* \"#utility.yul\":19761:19835   */\n      swap2\n      pop\n        /* \"#utility.yul\":19844:19937   */\n      tag_512\n        /* \"#utility.yul\":19933:19936   */\n      dup3\n        /* \"#utility.yul\":19844:19937   */\n      tag_307\n      jump\t// in\n    tag_512:\n        /* \"#utility.yul\":19962:19964   */\n      0x20\n        /* \"#utility.yul\":19957:19960   */\n      dup3\n        /* \"#utility.yul\":19953:19965   */\n      add\n        /* \"#utility.yul\":19946:19965   */\n      swap1\n      pop\n        /* \"#utility.yul\":19605:19971   */\n      swap2\n      swap1\n      pop\n      jump\t// out\n        /* \"#utility.yul\":19977:20396   */\n    tag_212:\n        /* \"#utility.yul\":20143:20147   */\n      0x00\n        /* \"#utility.yul\":20181:20183   */\n      0x20\n        /* \"#utility.yul\":20170:20179   */\n      dup3\n        /* \"#utility.yul\":20166:20184   */\n      add\n        /* \"#utility.yul\":20158:20184   */\n      swap1\n      pop\n        /* \"#utility.yul\":20230:20239   */\n      dup2\n        /* \"#utility.yul\":20224:20228   */\n      dup2\n        /* \"#utility.yul\":20220:20240   */\n      sub\n        /* \"#utility.yul\":20216:20217   */\n      0x00\n        /* \"#utility.yul\":20205:20214   */\n      dup4\n        /* \"#utility.yul\":20201:20218   */\n      add\n        /* \"#utility.yul\":20194:20241   */\n      mstore\n        /* \"#utility.yul\":20258:20389   */\n      tag_514\n        /* \"#utility.yul\":20384:20388   */\n      dup2\n        /* \"#utility.yul\":20258:20389   */\n      tag_308\n      jump\t// in\n    tag_514:\n        /* \"#utility.yul\":20250:20389   */\n      swap1\n      pop\n        /* \"#utility.yul\":19977:20396   */\n      swap2\n      swap1\n      pop\n      jump\t// out\n        /* \"#utility.yul\":20402:20812   */\n    tag_214:\n        /* \"#utility.yul\":20442:20449   */\n      0x00\n        /* \"#utility.yul\":20465:20485   */\n      tag_516\n        /* \"#utility.yul\":20483:20484   */\n      dup3\n        /* \"#utility.yul\":20465:20485   */\n      tag_263\n      jump\t// in\n    tag_516:\n        /* \"#utility.yul\":20460:20485   */\n      swap2\n      pop\n        /* \"#utility.yul\":20499:20519   */\n      tag_517\n        /* \"#utility.yul\":20517:20518   */\n      dup4\n        /* \"#utility.yul\":20499:20519   */\n      tag_263\n      jump\t// in\n    tag_517:\n        /* \"#utility.yul\":20494:20519   */\n      swap3\n      pop\n        /* \"#utility.yul\":20554:20555   */\n      dup3\n        /* \"#utility.yul\":20551:20552   */\n      dup3\n        /* \"#utility.yul\":20547:20556   */\n      mul\n        /* \"#utility.yul\":20576:20606   */\n      tag_518\n        /* \"#utility.yul\":20594:20605   */\n      dup2\n        /* \"#utility.yul\":20576:20606   */\n      tag_263\n      jump\t// in\n    tag_518:\n        /* \"#utility.yul\":20565:20606   */\n      swap2\n      pop\n        /* \"#utility.yul\":20755:20756   */\n      dup3\n        /* \"#utility.yul\":20746:20753   */\n      dup3\n        /* \"#utility.yul\":20742:20757   */\n      div\n        /* \"#utility.yul\":20739:20740   */\n      dup5\n        /* \"#utility.yul\":20736:20758   */\n      eq\n        /* \"#utility.yul\":20716:20717   */\n      dup4\n        /* \"#utility.yul\":20709:20718   */\n      iszero\n        /* \"#utility.yul\":20689:20772   */\n      or\n        /* \"#utility.yul\":20666:20805   */\n      tag_519\n      jumpi\n        /* \"#utility.yul\":20785:20803   */\n      tag_520\n      tag_289\n      jump\t// in\n    tag_520:\n        /* \"#utility.yul\":20666:20805   */\n    tag_519:\n        /* \"#utility.yul\":20450:20812   */\n      pop\n        /* \"#utility.yul\":20402:20812   */\n      swap3\n      swap2\n      pop\n      pop\n      jump\t// out\n        /* \"#utility.yul\":20818:21012   */\n    tag_228:\n        /* \"#utility.yul\":20858:20862   */\n      0x00\n        /* \"#utility.yul\":20878:20898   */\n      tag_522\n        /* \"#utility.yul\":20896:20897   */\n      dup3\n        /* \"#utility.yul\":20878:20898   */\n      tag_263\n      jump\t// in\n    tag_522:\n        /* \"#utility.yul\":20873:20898   */\n      swap2\n      pop\n        /* \"#utility.yul\":20912:20932   */\n      tag_523\n        /* \"#utility.yul\":20930:20931   */\n      dup4\n        /* \"#utility.yul\":20912:20932   */\n      tag_263\n      jump\t// in\n    tag_523:\n        /* \"#utility.yul\":20907:20932   */\n      swap3\n      pop\n        /* \"#utility.yul\":20956:20957   */\n      dup3\n        /* \"#utility.yul\":20953:20954   */\n      dup3\n        /* \"#utility.yul\":20949:20958   */\n      sub\n        /* \"#utility.yul\":20941:20958   */\n      swap1\n      pop\n        /* \"#utility.yul\":20980:20981   */\n      dup2\n        /* \"#utility.yul\":20974:20978   */\n      dup2\n        /* \"#utility.yul\":20971:20982   */\n      gt\n        /* \"#utility.yul\":20968:21005   */\n      iszero\n      tag_524\n      jumpi\n        /* \"#utility.yul\":20985:21003   */\n      tag_525\n      tag_289\n      jump\t// in\n    tag_525:\n        /* \"#utility.yul\":20968:21005   */\n    tag_524:\n        /* \"#utility.yul\":20818:21012   */\n      swap3\n      swap2\n      pop\n      pop\n      jump\t// out\n        /* \"#utility.yul\":21018:21198   */\n    tag_237:\n        /* \"#utility.yul\":21066:21143   */\n      0x4e487b7100000000000000000000000000000000000000000000000000000000\n        /* \"#utility.yul\":21063:21064   */\n      0x00\n        /* \"#utility.yul\":21056:21144   */\n      mstore\n        /* \"#utility.yul\":21163:21167   */\n      0x31\n        /* \"#utility.yul\":21160:21161   */\n      0x04\n        /* \"#utility.yul\":21153:21168   */\n      mstore\n        /* \"#utility.yul\":21187:21191   */\n      0x24\n        /* \"#utility.yul\":21184:21185   */\n      0x00\n        /* \"#utility.yul\":21177:21192   */\n      revert\n        /* \"#utility.yul\":21204:21385   */\n    tag_309:\n        /* \"#utility.yul\":21344:21377   */\n      0x5265656e7472616e637947756172643a207265656e7472616e742063616c6c00\n        /* \"#utility.yul\":21340:21341   */\n      0x00\n        /* \"#utility.yul\":21332:21338   */\n      dup3\n        /* \"#utility.yul\":21328:21342   */\n      add\n        /* \"#utility.yul\":21321:21378   */\n      mstore\n        /* \"#utility.yul\":21204:21385   */\n      pop\n      jump\t// out\n        /* \"#utility.yul\":21391:21757   */\n    tag_310:\n        /* \"#utility.yul\":21533:21536   */\n      0x00\n        /* \"#utility.yul\":21554:21621   */\n      tag_529\n        /* \"#utility.yul\":21618:21620   */\n      0x1f\n        /* \"#utility.yul\":21613:21616   */\n      dup4\n        /* \"#utility.yul\":21554:21621   */\n      tag_290\n      jump\t// in\n    tag_529:\n        /* \"#utility.yul\":21547:21621   */\n      swap2\n      pop\n        /* \"#utility.yul\":21630:21723   */\n      tag_530\n        /* \"#utility.yul\":21719:21722   */\n      dup3\n        /* \"#utility.yul\":21630:21723   */\n      tag_309\n      jump\t// in\n    tag_530:\n        /* \"#utility.yul\":21748:21750   */\n      0x20\n        /* \"#utility.yul\":21743:21746   */\n      dup3\n        /* \"#utility.yul\":21739:21751   */\n      add\n        /* \"#utility.yul\":21732:21751   */\n      swap1\n      pop\n        /* \"#utility.yul\":21391:21757   */\n      swap2\n      swap1\n      pop\n      jump\t// out\n        /* \"#utility.yul\":21763:22182   */\n    tag_242:\n        /* \"#utility.yul\":21929:21933   */\n      0x00\n        /* \"#utility.yul\":21967:21969   */\n      0x20\n        /* \"#utility.yul\":21956:21965   */\n      dup3\n        /* \"#utility.yul\":21952:21970   */\n      add\n        /* \"#utility.yul\":21944:21970   */\n      swap1\n      pop\n        /* \"#utility.yul\":22016:22025   */\n      dup2\n        /* \"#utility.yul\":22010:22014   */\n      dup2\n        /* \"#utility.yul\":22006:22026   */\n      sub\n        /* \"#utility.yul\":22002:22003   */\n      0x00\n        /* \"#utility.yul\":21991:22000   */\n      dup4\n        /* \"#utility.yul\":21987:22004   */\n      add\n        /* \"#utility.yul\":21980:22027   */\n      mstore\n        /* \"#utility.yul\":22044:22175   */\n      tag_532\n        /* \"#utility.yul\":22170:22174   */\n      dup2\n        /* \"#utility.yul\":22044:22175   */\n      tag_310\n      jump\t// in\n    tag_532:\n        /* \"#utility.yul\":22036:22175   */\n      swap1\n      pop\n        /* \"#utility.yul\":21763:22182   */\n      swap2\n      swap1\n      pop\n      jump\t// out\n        /* \"#utility.yul\":22188:22286   */\n    tag_311:\n        /* \"#utility.yul\":22239:22245   */\n      0x00\n        /* \"#utility.yul\":22273:22278   */\n      dup2\n        /* \"#utility.yul\":22267:22279   */\n      mload\n        /* \"#utility.yul\":22257:22279   */\n      swap1\n      pop\n        /* \"#utility.yul\":22188:22286   */\n      swap2\n      swap1\n      pop\n      jump\t// out\n        /* \"#utility.yul\":22292:22439   */\n    tag_312:\n        /* \"#utility.yul\":22393:22404   */\n      0x00\n        /* \"#utility.yul\":22430:22433   */\n      dup2\n        /* \"#utility.yul\":22415:22433   */\n      swap1\n      pop\n        /* \"#utility.yul\":22292:22439   */\n      swap3\n      swap2\n      pop\n      pop\n      jump\t// out\n        /* \"#utility.yul\":22445:22584   */\n    tag_313:\n        /* \"#utility.yul\":22534:22540   */\n      dup3\n        /* \"#utility.yul\":22529:22532   */\n      dup2\n        /* \"#utility.yul\":22524:22527   */\n      dup4\n        /* \"#utility.yul\":22518:22541   */\n      mcopy\n        /* \"#utility.yul\":22575:22576   */\n      0x00\n        /* \"#utility.yul\":22566:22572   */\n      dup4\n        /* \"#utility.yul\":22561:22564   */\n      dup4\n        /* \"#utility.yul\":22557:22573   */\n      add\n        /* \"#utility.yul\":22550:22577   */\n      mstore\n        /* \"#utility.yul\":22445:22584   */\n      pop\n      pop\n      pop\n      jump\t// out\n        /* \"#utility.yul\":22590:22976   */\n    tag_314:\n        /* \"#utility.yul\":22694:22697   */\n      0x00\n        /* \"#utility.yul\":22722:22760   */\n      tag_537\n        /* \"#utility.yul\":22754:22759   */\n      dup3\n        /* \"#utility.yul\":22722:22760   */\n      tag_311\n      jump\t// in\n    tag_537:\n        /* \"#utility.yul\":22776:22864   */\n      tag_538\n        /* \"#utility.yul\":22857:22863   */\n      dup2\n        /* \"#utility.yul\":22852:22855   */\n      dup6\n        /* \"#utility.yul\":22776:22864   */\n      tag_312\n      jump\t// in\n    tag_538:\n        /* \"#utility.yul\":22769:22864   */\n      swap4\n      pop\n        /* \"#utility.yul\":22873:22938   */\n      tag_539\n        /* \"#utility.yul\":22931:22937   */\n      dup2\n        /* \"#utility.yul\":22926:22929   */\n      dup6\n        /* \"#utility.yul\":22919:22923   */\n      0x20\n        /* \"#utility.yul\":22912:22917   */\n      dup7\n        /* \"#utility.yul\":22908:22924   */\n      add\n        /* \"#utility.yul\":22873:22938   */\n      tag_313\n      jump\t// in\n    tag_539:\n        /* \"#utility.yul\":22963:22969   */\n      dup1\n        /* \"#utility.yul\":22958:22961   */\n      dup5\n        /* \"#utility.yul\":22954:22970   */\n      add\n        /* \"#utility.yul\":22947:22970   */\n      swap2\n      pop\n        /* \"#utility.yul\":22698:22976   */\n      pop\n        /* \"#utility.yul\":22590:22976   */\n      swap3\n      swap2\n      pop\n      pop\n      jump\t// out\n        /* \"#utility.yul\":22982:23253   */\n    tag_246:\n        /* \"#utility.yul\":23112:23115   */\n      0x00\n        /* \"#utility.yul\":23134:23227   */\n      tag_541\n        /* \"#utility.yul\":23223:23226   */\n      dup3\n        /* \"#utility.yul\":23214:23220   */\n      dup5\n        /* \"#utility.yul\":23134:23227   */\n      tag_314\n      jump\t// in\n    tag_541:\n        /* \"#utility.yul\":23127:23227   */\n      swap2\n      pop\n        /* \"#utility.yul\":23244:23247   */\n      dup2\n        /* \"#utility.yul\":23237:23247   */\n      swap1\n      pop\n        /* \"#utility.yul\":22982:23253   */\n      swap3\n      swap2\n      pop\n      pop\n      jump\t// out\n        /* \"#utility.yul\":23259:23424   */\n    tag_315:\n        /* \"#utility.yul\":23399:23416   */\n      0x47726f7570206e6f7420666f756e640000000000000000000000000000000000\n        /* \"#utility.yul\":23395:23396   */\n      0x00\n        /* \"#utility.yul\":23387:23393   */\n      dup3\n        /* \"#utility.yul\":23383:23397   */\n      add\n        /* \"#utility.yul\":23376:23417   */\n      mstore\n        /* \"#utility.yul\":23259:23424   */\n      pop\n      jump\t// out\n        /* \"#utility.yul\":23430:23796   */\n    tag_316:\n        /* \"#utility.yul\":23572:23575   */\n      0x00\n        /* \"#utility.yul\":23593:23660   */\n      tag_544\n        /* \"#utility.yul\":23657:23659   */\n      0x0f\n        /* \"#utility.yul\":23652:23655   */\n      dup4\n        /* \"#utility.yul\":23593:23660   */\n      tag_290\n      jump\t// in\n    tag_544:\n        /* \"#utility.yul\":23586:23660   */\n      swap2\n      pop\n        /* \"#utility.yul\":23669:23762   */\n      tag_545\n        /* \"#utility.yul\":23758:23761   */\n      dup3\n        /* \"#utility.yul\":23669:23762   */\n      tag_315\n      jump\t// in\n    tag_545:\n        /* \"#utility.yul\":23787:23789   */\n      0x20\n        /* \"#utility.yul\":23782:23785   */\n      dup3\n        /* \"#utility.yul\":23778:23790   */\n      add\n        /* \"#utility.yul\":23771:23790   */\n      swap1\n      pop\n        /* \"#utility.yul\":23430:23796   */\n      swap2\n      swap1\n      pop\n      jump\t// out\n        /* \"#utility.yul\":23802:24221   */\n    tag_252:\n        /* \"#utility.yul\":23968:23972   */\n      0x00\n        /* \"#utility.yul\":24006:24008   */\n      0x20\n        /* \"#utility.yul\":23995:24004   */\n      dup3\n        /* \"#utility.yul\":23991:24009   */\n      add\n        /* \"#utility.yul\":23983:24009   */\n      swap1\n      pop\n        /* \"#utility.yul\":24055:24064   */\n      dup2\n        /* \"#utility.yul\":24049:24053   */\n      dup2\n        /* \"#utility.yul\":24045:24065   */\n      sub\n        /* \"#utility.yul\":24041:24042   */\n      0x00\n        /* \"#utility.yul\":24030:24039   */\n      dup4\n        /* \"#utility.yul\":24026:24043   */\n      add\n        /* \"#utility.yul\":24019:24066   */\n      mstore\n        /* \"#utility.yul\":24083:24214   */\n      tag_547\n        /* \"#utility.yul\":24209:24213   */\n      dup2\n        /* \"#utility.yul\":24083:24214   */\n      tag_316\n      jump\t// in\n    tag_547:\n        /* \"#utility.yul\":24075:24214   */\n      swap1\n      pop\n        /* \"#utility.yul\":23802:24221   */\n      swap2\n      swap1\n      pop\n      jump\t// out\n        /* \"#utility.yul\":24227:24368   */\n    tag_317:\n        /* \"#utility.yul\":24283:24288   */\n      0x00\n        /* \"#utility.yul\":24314:24320   */\n      dup2\n        /* \"#utility.yul\":24308:24321   */\n      mload\n        /* \"#utility.yul\":24299:24321   */\n      swap1\n      pop\n        /* \"#utility.yul\":24330:24362   */\n      tag_549\n        /* \"#utility.yul\":24356:24361   */\n      dup2\n        /* \"#utility.yul\":24330:24362   */\n      tag_268\n      jump\t// in\n    tag_549:\n        /* \"#utility.yul\":24227:24368   */\n      swap3\n      swap2\n      pop\n      pop\n      jump\t// out\n        /* \"#utility.yul\":24374:24723   */\n    tag_254:\n        /* \"#utility.yul\":24443:24449   */\n      0x00\n        /* \"#utility.yul\":24492:24494   */\n      0x20\n        /* \"#utility.yul\":24480:24489   */\n      dup3\n        /* \"#utility.yul\":24471:24478   */\n      dup5\n        /* \"#utility.yul\":24467:24490   */\n      sub\n        /* \"#utility.yul\":24463:24495   */\n      slt\n        /* \"#utility.yul\":24460:24579   */\n      iszero\n      tag_551\n      jumpi\n        /* \"#utility.yul\":24498:24577   */\n      tag_552\n      tag_257\n      jump\t// in\n    tag_552:\n        /* \"#utility.yul\":24460:24579   */\n    tag_551:\n        /* \"#utility.yul\":24618:24619   */\n      0x00\n        /* \"#utility.yul\":24643:24706   */\n      tag_553\n        /* \"#utility.yul\":24698:24705   */\n      dup5\n        /* \"#utility.yul\":24689:24695   */\n      dup3\n        /* \"#utility.yul\":24678:24687   */\n      dup6\n        /* \"#utility.yul\":24674:24696   */\n      add\n        /* \"#utility.yul\":24643:24706   */\n      tag_317\n      jump\t// in\n    tag_553:\n        /* \"#utility.yul\":24633:24706   */\n      swap2\n      pop\n        /* \"#utility.yul\":24589:24716   */\n      pop\n        /* \"#utility.yul\":24374:24723   */\n      swap3\n      swap2\n      pop\n      pop\n      jump\t// out\n\n    auxdata: 0xa2646970667358221220dcfe302c1e3f01d5bfe2e311ac03d5f82c7c34bbe1c8706f5f594855f0c7676c64736f6c634300081a0033\n}\n",
				"bytecode": {
					"linkReferences": {},
					"object": "608060405234801561000f575f80fd5b506040516127cb3803806127cb833981810160405281019061003191906100dc565b60015f819055508060015f6101000a81548173ffffffffffffffffffffffffffffffffffffffff021916908373ffffffffffffffffffffffffffffffffffffffff16021790555050610107565b5f80fd5b5f73ffffffffffffffffffffffffffffffffffffffff82169050919050565b5f6100ab82610082565b9050919050565b6100bb816100a1565b81146100c5575f80fd5b50565b5f815190506100d6816100b2565b92915050565b5f602082840312156100f1576100f061007e565b5b5f6100fe848285016100c8565b91505092915050565b6126b7806101145f395ff3fe608060405234801561000f575f80fd5b50600436106100cc575f3560e01c8063496b3d101161008a578063a82ba76f11610064578063a82ba76f1461026e578063b2ddee061461029e578063c02b84a1146102ba578063e2006a98146102ea576100cc565b8063496b3d10146101de57806375dbef4f1461020e5780639c3e202d1461023e576100cc565b806207df30146100d057806329d9a791146101005780632e49e852146101305780633013ce291461016057806339edfd4e1461017e5780633ffbab63146101ae575b5f80fd5b6100ea60048036038101906100e59190611b25565b61031a565b6040516100f79190611b72565b60405180910390f35b61011a60048036038101906101159190611bc2565b610357565b6040516101279190611cc9565b60405180910390f35b61014a60048036038101906101459190611d4a565b6108ff565b6040516101579190611cc9565b60405180910390f35b6101686109ed565b6040516101759190611e16565b60405180910390f35b61019860048036038101906101939190611bc2565b610a12565b6040516101a59190611e3e565b60405180910390f35b6101c860048036038101906101c39190611bc2565b610a48565b6040516101d59190611e3e565b60405180910390f35b6101f860048036038101906101f39190611e57565b610ac1565b6040516102059190611b72565b60405180910390f35b61022860048036038101906102239190611e95565b610b09565b6040516102359190611cc9565b60405180910390f35b61025860048036038101906102539190611ed3565b610bb4565b6040516102659190611f3d565b60405180910390f35b61028860048036038101906102839190611b25565b61108c565b6040516102959190611f3d565b60405180910390f35b6102b860048036038101906102b39190611b25565b611469565b005b6102d460048036038101906102cf9190611f56565b611718565b6040516102e19190611e3e565b60405180910390f35b61030460048036038101906102ff9190611e57565b611779565b6040516103119190611b72565b60405180910390f35b6002602052815f5260405f20602052805f5260405f205f915091509054906101000a900473ffffffffffffffffffffffffffffffffffffffff1681565b60605f60045f8661ffff1661ffff1681526020019081526020015f205f8573ffffffffffffffffffffffffffffffffffffffff1673ffffffffffffffffffffffffffffffffffffffff1681526020019081526020015f208054806020026020016040519081016040528092919081815260200182805480156103f657602002820191905f5260205f20905b8154815260200190600101908083116103e2575b50505050509050805167ffffffffffffffff81111561041857610417611f81565b5b6040519080825280602002602001820160405280156104465781602001602082028036833780820191505090505b5091505f805f5b83518110156108f1575f84828151811061046a57610469611fae565b5b602002602001015190505f73ffffffffffffffffffffffffffffffffffffffff1660025f8a73ffffffffffffffffffffffffffffffffffffffff1673ffffffffffffffffffffffffffffffffffffffff1681526020019081526020015f205f8381526020019081526020015f205f9054906101000a900473ffffffffffffffffffffffffffffffffffffffff1673ffffffffffffffffffffffffffffffffffffffff160361051857506108e4565b5f6105228a611718565b90508781856105319190612008565b111561058b57818973ffffffffffffffffffffffffffffffffffffffff167f8a8719b9514356483d3fc6f38c0ada5a06a46d633339046c40ee527d7bda0de460405161057c90612095565b60405180910390a350506108e4565b60015f9054906101000a900473ffffffffffffffffffffffffffffffffffffffff1673ffffffffffffffffffffffffffffffffffffffff166323b872dd3360025f8d73ffffffffffffffffffffffffffffffffffffffff1673ffffffffffffffffffffffffffffffffffffffff1681526020019081526020015f205f8681526020019081526020015f205f9054906101000a900473ffffffffffffffffffffffffffffffffffffffff16846040518463ffffffff1660e01b8152600401610654939291906120b3565b6020604051808303815f875af1158015610670573d5f803e3d5ffd5b505050506040513d601f19601f820116820180604052508101906106949190612112565b6106ec57818973ffffffffffffffffffffffffffffffffffffffff167f8a8719b9514356483d3fc6f38c0ada5a06a46d633339046c40ee527d7bda0de46040516106dd90612187565b60405180910390a350506108e4565b5f60025f8b73ffffffffffffffffffffffffffffffffffffffff1673ffffffffffffffffffffffffffffffffffffffff1681526020019081526020015f205f8481526020019081526020015f205f9054906101000a900473ffffffffffffffffffffffffffffffffffffffff16905060025f8b73ffffffffffffffffffffffffffffffffffffffff1673ffffffffffffffffffffffffffffffffffffffff1681526020019081526020015f205f8481526020019081526020015f205f6101000a81549073ffffffffffffffffffffffffffffffffffffffff02191690556107d48b8b856117d5565b8973ffffffffffffffffffffffffffffffffffffffff166342842e0e8233866040518463ffffffff1660e01b8152600401610811939291906120b3565b5f604051808303815f87803b158015610828575f80fd5b505af115801561083a573d5f803e3d5ffd5b505050503373ffffffffffffffffffffffffffffffffffffffff16838b73ffffffffffffffffffffffffffffffffffffffff167f77c3ced349b08a2af4e9d443fb697437c3197b3095d43fcbdc2cdc97b1a60e0c8560405161089c9190611e3e565b60405180910390a4828887815181106108b8576108b7611fae565b5b60200260200101818152505085806108cf906121a5565b96505081856108de9190612008565b94505050505b808060010191505061044d565b508184525050509392505050565b60608383905067ffffffffffffffff81111561091e5761091d611f81565b5b60405190808252806020026020018201604052801561094c5781602001602082028036833780820191505090505b5090505f805b858590508110156109e0575f6109828888888581811061097557610974611fae565b5b9050602002013587610bb4565b905080156109d25786868381811061099d5761099c611fae565b5b905060200201358484815181106109b7576109b6611fae565b5b60200260200101818152505082806109ce906121a5565b9350505b508080600101915050610952565b5080825250949350505050565b60015f9054906101000a900473ffffffffffffffffffffffffffffffffffffffff1681565b6004602052825f5260405f20602052815f5260405f208181548110610a35575f80fd5b905f5260205f20015f9250925050505481565b5f60045f8561ffff1661ffff1681526020019081526020015f205f8473ffffffffffffffffffffffffffffffffffffffff1673ffffffffffffffffffffffffffffffffffffffff1681526020019081526020015f208281548110610aaf57610aae611fae565b5b905f5260205f20015490509392505050565b6003602052815f5260405f208181548110610ada575f80fd5b905f5260205f20015f915091509054906101000a900473ffffffffffffffffffffffffffffffffffffffff1681565b606060045f8461ffff1661ffff1681526020019081526020015f205f8373ffffffffffffffffffffffffffffffffffffffff1673ffffffffffffffffffffffffffffffffffffffff1681526020019081526020015f20805480602002602001604051908101604052809291908181526020018280548015610ba757602002820191905f5260205f20905b815481526020019060010190808311610b93575b5050505050905092915050565b5f8383335f8390508173ffffffffffffffffffffffffffffffffffffffff168173ffffffffffffffffffffffffffffffffffffffff16636352211e856040518263ffffffff1660e01b8152600401610c0c9190611e3e565b602060405180830381865afa158015610c27573d5f803e3d5ffd5b505050506040513d601f19601f82011682018060405250810190610c4b9190612200565b73ffffffffffffffffffffffffffffffffffffffff1614610ca1576040517f08c379a0000000000000000000000000000000000000000000000000000000008152600401610c9890612275565b60405180910390fd5b5f73ffffffffffffffffffffffffffffffffffffffff1660025f8a73ffffffffffffffffffffffffffffffffffffffff1673ffffffffffffffffffffffffffffffffffffffff1681526020019081526020015f205f8981526020019081526020015f205f9054906101000a900473ffffffffffffffffffffffffffffffffffffffff1673ffffffffffffffffffffffffffffffffffffffff1614610d9457868873ffffffffffffffffffffffffffffffffffffffff167f0795d2a562f597cc96a526206719a45f67c20b30518ea1c6f88de912dd25ed23604051610d84906122dd565b60405180910390a35f9450611081565b3073ffffffffffffffffffffffffffffffffffffffff168873ffffffffffffffffffffffffffffffffffffffff1663081812fc896040518263ffffffff1660e01b8152600401610de49190611e3e565b602060405180830381865afa158015610dff573d5f803e3d5ffd5b505050506040513d601f19601f82011682018060405250810190610e239190612200565b73ffffffffffffffffffffffffffffffffffffffff1614610e9357868873ffffffffffffffffffffffffffffffffffffffff167f0795d2a562f597cc96a526206719a45f67c20b30518ea1c6f88de912dd25ed23604051610e8390612345565b60405180910390a35f9450611081565b3360025f8a73ffffffffffffffffffffffffffffffffffffffff1673ffffffffffffffffffffffffffffffffffffffff1681526020019081526020015f205f8981526020019081526020015f205f6101000a81548173ffffffffffffffffffffffffffffffffffffffff021916908373ffffffffffffffffffffffffffffffffffffffff16021790555060045f8761ffff1661ffff1681526020019081526020015f205f8973ffffffffffffffffffffffffffffffffffffffff1673ffffffffffffffffffffffffffffffffffffffff1681526020019081526020015f2087908060018154018082558091505060019003905f5260205f20015f909190919091505560035f8761ffff1661ffff1681526020019081526020015f2088908060018154018082558091505060019003905f5260205f20015f9091909190916101000a81548173ffffffffffffffffffffffffffffffffffffffff021916908373ffffffffffffffffffffffffffffffffffffffff1602179055503373ffffffffffffffffffffffffffffffffffffffff16878973ffffffffffffffffffffffffffffffffffffffff167fd4d9493bde2c94a44263c0e6b76a960efec9b18d7e4533b24a2f72e7fe1205236110658a611718565b8a604051611074929190612372565b60405180910390a4600194505b505050509392505050565b5f6110956118e4565b5f73ffffffffffffffffffffffffffffffffffffffff1660025f8573ffffffffffffffffffffffffffffffffffffffff1673ffffffffffffffffffffffffffffffffffffffff1681526020019081526020015f205f8481526020019081526020015f205f9054906101000a900473ffffffffffffffffffffffffffffffffffffffff1673ffffffffffffffffffffffffffffffffffffffff160361118857818373ffffffffffffffffffffffffffffffffffffffff167f8a8719b9514356483d3fc6f38c0ada5a06a46d633339046c40ee527d7bda0de4604051611178906123e3565b60405180910390a35f905061145b565b5f6111938484611931565b90505f60025f8673ffffffffffffffffffffffffffffffffffffffff1673ffffffffffffffffffffffffffffffffffffffff1681526020019081526020015f205f8581526020019081526020015f205f9054906101000a900473ffffffffffffffffffffffffffffffffffffffff1690505f61120e83611718565b905060015f9054906101000a900473ffffffffffffffffffffffffffffffffffffffff1673ffffffffffffffffffffffffffffffffffffffff166323b872dd3384846040518463ffffffff1660e01b815260040161126e939291906120b3565b6020604051808303815f875af115801561128a573d5f803e3d5ffd5b505050506040513d601f19601f820116820180604052508101906112ae9190612112565b61130a57848673ffffffffffffffffffffffffffffffffffffffff167f8a8719b9514356483d3fc6f38c0ada5a06a46d633339046c40ee527d7bda0de46040516112f790612187565b60405180910390a35f935050505061145b565b60025f8773ffffffffffffffffffffffffffffffffffffffff1673ffffffffffffffffffffffffffffffffffffffff1681526020019081526020015f205f8681526020019081526020015f205f6101000a81549073ffffffffffffffffffffffffffffffffffffffff02191690556113838387876117d5565b8573ffffffffffffffffffffffffffffffffffffffff166342842e0e8333886040518463ffffffff1660e01b81526004016113c0939291906120b3565b5f604051808303815f87803b1580156113d7575f80fd5b505af11580156113e9573d5f803e3d5ffd5b505050503373ffffffffffffffffffffffffffffffffffffffff16858773ffffffffffffffffffffffffffffffffffffffff167f77c3ced349b08a2af4e9d443fb697437c3197b3095d43fcbdc2cdc97b1a60e0c8460405161144b9190611e3e565b60405180910390a4600193505050505b611463611a87565b92915050565b8181335f8390508173ffffffffffffffffffffffffffffffffffffffff168173ffffffffffffffffffffffffffffffffffffffff16636352211e856040518263ffffffff1660e01b81526004016114c09190611e3e565b602060405180830381865afa1580156114db573d5f803e3d5ffd5b505050506040513d601f19601f820116820180604052508101906114ff9190612200565b73ffffffffffffffffffffffffffffffffffffffff1614611555576040517f08c379a000000000000000000000000000000000000000000000000000000000815260040161154c90612275565b60405180910390fd5b5f73ffffffffffffffffffffffffffffffffffffffff1660025f8873ffffffffffffffffffffffffffffffffffffffff1673ffffffffffffffffffffffffffffffffffffffff1681526020019081526020015f205f8781526020019081526020015f205f9054906101000a900473ffffffffffffffffffffffffffffffffffffffff1673ffffffffffffffffffffffffffffffffffffffff160361162e576040517f08c379a0000000000000000000000000000000000000000000000000000000008152600401611625906123e3565b60405180910390fd5b5f6116398787611931565b905060025f8873ffffffffffffffffffffffffffffffffffffffff1673ffffffffffffffffffffffffffffffffffffffff1681526020019081526020015f205f8781526020019081526020015f205f6101000a81549073ffffffffffffffffffffffffffffffffffffffff02191690556116b48188886117d5565b3373ffffffffffffffffffffffffffffffffffffffff16868873ffffffffffffffffffffffffffffffffffffffff167f83614a26fd4398c876bd6684c0d04cf2e84ee7e4bc24e8d8888ab0e724bac03260405160405180910390a450505050505050565b5f808261ffff161161175f576040517f08c379a00000000000000000000000000000000000000000000000000000000081526004016117569061244b565b60405180910390fd5b620f42408261ffff166117729190612469565b9050919050565b5f60035f8461ffff1661ffff1681526020019081526020015f2082815481106117a5576117a4611fae565b5b905f5260205f20015f9054906101000a900473ffffffffffffffffffffffffffffffffffffffff16905092915050565b5f60045f8561ffff1661ffff1681526020019081526020015f205f8473ffffffffffffffffffffffffffffffffffffffff1673ffffffffffffffffffffffffffffffffffffffff1681526020019081526020015f2090505f5b81805490508110156118dd578282828154811061184e5761184d611fae565b5b905f5260205f200154036118d057816001838054905061186e91906124aa565b8154811061187f5761187e611fae565b5b905f5260205f20015482828154811061189b5761189a611fae565b5b905f5260205f200181905550818054806118b8576118b76124dd565b5b600190038181905f5260205f20015f905590556118dd565b808060010191505061182e565b5050505050565b60025f5403611928576040517f08c379a000000000000000000000000000000000000000000000000000000000815260040161191f90612554565b60405180910390fd5b60025f81905550565b5f805f8473ffffffffffffffffffffffffffffffffffffffff168460405160240161195c9190611e3e565b6040516020818303038152906040527f8166c9dc000000000000000000000000000000000000000000000000000000007bffffffffffffffffffffffffffffffffffffffffffffffffffffffff19166020820180517bffffffffffffffffffffffffffffffffffffffffffffffffffffffff83818316178352505050506040516119e691906125c4565b5f604051808303815f865af19150503d805f8114611a1f576040519150601f19603f3d011682016040523d82523d5f602084013e611a24565b606091505b509150915081611a69576040517f08c379a0000000000000000000000000000000000000000000000000000000008152600401611a6090612624565b60405180910390fd5b80806020019051810190611a7d9190612656565b9250505092915050565b60015f81905550565b5f80fd5b5f80fd5b5f73ffffffffffffffffffffffffffffffffffffffff82169050919050565b5f611ac182611a98565b9050919050565b611ad181611ab7565b8114611adb575f80fd5b50565b5f81359050611aec81611ac8565b92915050565b5f819050919050565b611b0481611af2565b8114611b0e575f80fd5b50565b5f81359050611b1f81611afb565b92915050565b5f8060408385031215611b3b57611b3a611a90565b5b5f611b4885828601611ade565b9250506020611b5985828601611b11565b9150509250929050565b611b6c81611ab7565b82525050565b5f602082019050611b855f830184611b63565b92915050565b5f61ffff82169050919050565b611ba181611b8b565b8114611bab575f80fd5b50565b5f81359050611bbc81611b98565b92915050565b5f805f60608486031215611bd957611bd8611a90565b5b5f611be686828701611bae565b9350506020611bf786828701611ade565b9250506040611c0886828701611b11565b9150509250925092565b5f81519050919050565b5f82825260208201905092915050565b5f819050602082019050919050565b611c4481611af2565b82525050565b5f611c558383611c3b565b60208301905092915050565b5f602082019050919050565b5f611c7782611c12565b611c818185611c1c565b9350611c8c83611c2c565b805f5b83811015611cbc578151611ca38882611c4a565b9750611cae83611c61565b925050600181019050611c8f565b5085935050505092915050565b5f6020820190508181035f830152611ce18184611c6d565b905092915050565b5f80fd5b5f80fd5b5f80fd5b5f8083601f840112611d0a57611d09611ce9565b5b8235905067ffffffffffffffff811115611d2757611d26611ced565b5b602083019150836020820283011115611d4357611d42611cf1565b5b9250929050565b5f805f8060608587031215611d6257611d61611a90565b5b5f611d6f87828801611ade565b945050602085013567ffffffffffffffff811115611d9057611d8f611a94565b5b611d9c87828801611cf5565b93509350506040611daf87828801611bae565b91505092959194509250565b5f819050919050565b5f611dde611dd9611dd484611a98565b611dbb565b611a98565b9050919050565b5f611def82611dc4565b9050919050565b5f611e0082611de5565b9050919050565b611e1081611df6565b82525050565b5f602082019050611e295f830184611e07565b92915050565b611e3881611af2565b82525050565b5f602082019050611e515f830184611e2f565b92915050565b5f8060408385031215611e6d57611e6c611a90565b5b5f611e7a85828601611bae565b9250506020611e8b85828601611b11565b9150509250929050565b5f8060408385031215611eab57611eaa611a90565b5b5f611eb885828601611bae565b9250506020611ec985828601611ade565b9150509250929050565b5f805f60608486031215611eea57611ee9611a90565b5b5f611ef786828701611ade565b9350506020611f0886828701611b11565b9250506040611f1986828701611bae565b9150509250925092565b5f8115159050919050565b611f3781611f23565b82525050565b5f602082019050611f505f830184611f2e565b92915050565b5f60208284031215611f6b57611f6a611a90565b5b5f611f7884828501611bae565b91505092915050565b7f4e487b71000000000000000000000000000000000000000000000000000000005f52604160045260245ffd5b7f4e487b71000000000000000000000000000000000000000000000000000000005f52603260045260245ffd5b7f4e487b71000000000000000000000000000000000000000000000000000000005f52601160045260245ffd5b5f61201282611af2565b915061201d83611af2565b925082820190508082111561203557612034611fdb565b5b92915050565b5f82825260208201905092915050565b7f42756467657420657863656564656400000000000000000000000000000000005f82015250565b5f61207f600f8361203b565b915061208a8261204b565b602082019050919050565b5f6020820190508181035f8301526120ac81612073565b9050919050565b5f6060820190506120c65f830186611b63565b6120d36020830185611b63565b6120e06040830184611e2f565b949350505050565b6120f181611f23565b81146120fb575f80fd5b50565b5f8151905061210c816120e8565b92915050565b5f6020828403121561212757612126611a90565b5b5f612134848285016120fe565b91505092915050565b7f5061796d656e74206661696c65640000000000000000000000000000000000005f82015250565b5f612171600e8361203b565b915061217c8261213d565b602082019050919050565b5f6020820190508181035f83015261219e81612165565b9050919050565b5f6121af82611af2565b91507fffffffffffffffffffffffffffffffffffffffffffffffffffffffffffffffff82036121e1576121e0611fdb565b5b600182019050919050565b5f815190506121fa81611ac8565b92915050565b5f6020828403121561221557612214611a90565b5b5f612222848285016121ec565b91505092915050565b7f4e6f7420746865206f776e6572000000000000000000000000000000000000005f82015250565b5f61225f600d8361203b565b915061226a8261222b565b602082019050919050565b5f6020820190508181035f83015261228c81612253565b9050919050565b7f416c7265616479206c69737465640000000000000000000000000000000000005f82015250565b5f6122c7600e8361203b565b91506122d282612293565b602082019050919050565b5f6020820190508181035f8301526122f4816122bb565b9050919050565b7f4e6f7420617070726f76656400000000000000000000000000000000000000005f82015250565b5f61232f600c8361203b565b915061233a826122fb565b602082019050919050565b5f6020820190508181035f83015261235c81612323565b9050919050565b61236c81611b8b565b82525050565b5f6040820190506123855f830185611e2f565b6123926020830184612363565b9392505050565b7f4e6f74206c6973746564000000000000000000000000000000000000000000005f82015250565b5f6123cd600a8361203b565b91506123d882612399565b602082019050919050565b5f6020820190508181035f8301526123fa816123c1565b9050919050565b7f496e76616c69642067726f7570000000000000000000000000000000000000005f82015250565b5f612435600d8361203b565b915061244082612401565b602082019050919050565b5f6020820190508181035f83015261246281612429565b9050919050565b5f61247382611af2565b915061247e83611af2565b925082820261248c81611af2565b915082820484148315176124a3576124a2611fdb565b5b5092915050565b5f6124b482611af2565b91506124bf83611af2565b92508282039050818111156124d7576124d6611fdb565b5b92915050565b7f4e487b71000000000000000000000000000000000000000000000000000000005f52603160045260245ffd5b7f5265656e7472616e637947756172643a207265656e7472616e742063616c6c005f82015250565b5f61253e601f8361203b565b91506125498261250a565b602082019050919050565b5f6020820190508181035f83015261256b81612532565b9050919050565b5f81519050919050565b5f81905092915050565b8281835e5f83830152505050565b5f61259e82612572565b6125a8818561257c565b93506125b8818560208601612586565b80840191505092915050565b5f6125cf8284612594565b915081905092915050565b7f47726f7570206e6f7420666f756e6400000000000000000000000000000000005f82015250565b5f61260e600f8361203b565b9150612619826125da565b602082019050919050565b5f6020820190508181035f83015261263b81612602565b9050919050565b5f8151905061265081611b98565b92915050565b5f6020828403121561266b5761266a611a90565b5b5f61267884828501612642565b9150509291505056fea2646970667358221220dcfe302c1e3f01d5bfe2e311ac03d5f82c7c34bbe1c8706f5f594855f0c7676c64736f6c634300081a0033",
					"opcodes": "PUSH1 0x80 PUSH1 0x40 MSTORE CALLVALUE DUP1 ISZERO PUSH2 0xF JUMPI PUSH0 DUP1 REVERT JUMPDEST POP PUSH1 0x40 MLOAD PUSH2 0x27CB CODESIZE SUB DUP1 PUSH2 0x27CB DUP4 CODECOPY DUP2 DUP2 ADD PUSH1 0x40 MSTORE DUP2 ADD SWAP1 PUSH2 0x31 SWAP2 SWAP1 PUSH2 0xDC JUMP JUMPDEST PUSH1 0x1 PUSH0 DUP2 SWAP1 SSTORE POP DUP1 PUSH1 0x1 PUSH0 PUSH2 0x100 EXP DUP2 SLOAD DUP2 PUSH20 0xFFFFFFFFFFFFFFFFFFFFFFFFFFFFFFFFFFFFFFFF MUL NOT AND SWAP1 DUP4 PUSH20 0xFFFFFFFFFFFFFFFFFFFFFFFFFFFFFFFFFFFFFFFF AND MUL OR SWAP1 SSTORE POP POP PUSH2 0x107 JUMP JUMPDEST PUSH0 DUP1 REVERT JUMPDEST PUSH0 PUSH20 0xFFFFFFFFFFFFFFFFFFFFFFFFFFFFFFFFFFFFFFFF DUP3 AND SWAP1 POP SWAP2 SWAP1 POP JUMP JUMPDEST PUSH0 PUSH2 0xAB DUP3 PUSH2 0x82 JUMP JUMPDEST SWAP1 POP SWAP2 SWAP1 POP JUMP JUMPDEST PUSH2 0xBB DUP2 PUSH2 0xA1 JUMP JUMPDEST DUP2 EQ PUSH2 0xC5 JUMPI PUSH0 DUP1 REVERT JUMPDEST POP JUMP JUMPDEST PUSH0 DUP2 MLOAD SWAP1 POP PUSH2 0xD6 DUP2 PUSH2 0xB2 JUMP JUMPDEST SWAP3 SWAP2 POP POP JUMP JUMPDEST PUSH0 PUSH1 0x20 DUP3 DUP5 SUB SLT ISZERO PUSH2 0xF1 JUMPI PUSH2 0xF0 PUSH2 0x7E JUMP JUMPDEST JUMPDEST PUSH0 PUSH2 0xFE DUP5 DUP3 DUP6 ADD PUSH2 0xC8 JUMP JUMPDEST SWAP2 POP POP SWAP3 SWAP2 POP POP JUMP JUMPDEST PUSH2 0x26B7 DUP1 PUSH2 0x114 PUSH0 CODECOPY PUSH0 RETURN INVALID PUSH1 0x80 PUSH1 0x40 MSTORE CALLVALUE DUP1 ISZERO PUSH2 0xF JUMPI PUSH0 DUP1 REVERT JUMPDEST POP PUSH1 0x4 CALLDATASIZE LT PUSH2 0xCC JUMPI PUSH0 CALLDATALOAD PUSH1 0xE0 SHR DUP1 PUSH4 0x496B3D10 GT PUSH2 0x8A JUMPI DUP1 PUSH4 0xA82BA76F GT PUSH2 0x64 JUMPI DUP1 PUSH4 0xA82BA76F EQ PUSH2 0x26E JUMPI DUP1 PUSH4 0xB2DDEE06 EQ PUSH2 0x29E JUMPI DUP1 PUSH4 0xC02B84A1 EQ PUSH2 0x2BA JUMPI DUP1 PUSH4 0xE2006A98 EQ PUSH2 0x2EA JUMPI PUSH2 0xCC JUMP JUMPDEST DUP1 PUSH4 0x496B3D10 EQ PUSH2 0x1DE JUMPI DUP1 PUSH4 0x75DBEF4F EQ PUSH2 0x20E JUMPI DUP1 PUSH4 0x9C3E202D EQ PUSH2 0x23E JUMPI PUSH2 0xCC JUMP JUMPDEST DUP1 PUSH3 0x7DF30 EQ PUSH2 0xD0 JUMPI DUP1 PUSH4 0x29D9A791 EQ PUSH2 0x100 JUMPI DUP1 PUSH4 0x2E49E852 EQ PUSH2 0x130 JUMPI DUP1 PUSH4 0x3013CE29 EQ PUSH2 0x160 JUMPI DUP1 PUSH4 0x39EDFD4E EQ PUSH2 0x17E JUMPI DUP1 PUSH4 0x3FFBAB63 EQ PUSH2 0x1AE JUMPI JUMPDEST PUSH0 DUP1 REVERT JUMPDEST PUSH2 0xEA PUSH1 0x4 DUP1 CALLDATASIZE SUB DUP2 ADD SWAP1 PUSH2 0xE5 SWAP2 SWAP1 PUSH2 0x1B25 JUMP JUMPDEST PUSH2 0x31A JUMP JUMPDEST PUSH1 0x40 MLOAD PUSH2 0xF7 SWAP2 SWAP1 PUSH2 0x1B72 JUMP JUMPDEST PUSH1 0x40 MLOAD DUP1 SWAP2 SUB SWAP1 RETURN JUMPDEST PUSH2 0x11A PUSH1 0x4 DUP1 CALLDATASIZE SUB DUP2 ADD SWAP1 PUSH2 0x115 SWAP2 SWAP1 PUSH2 0x1BC2 JUMP JUMPDEST PUSH2 0x357 JUMP JUMPDEST PUSH1 0x40 MLOAD PUSH2 0x127 SWAP2 SWAP1 PUSH2 0x1CC9 JUMP JUMPDEST PUSH1 0x40 MLOAD DUP1 SWAP2 SUB SWAP1 RETURN JUMPDEST PUSH2 0x14A PUSH1 0x4 DUP1 CALLDATASIZE SUB DUP2 ADD SWAP1 PUSH2 0x145 SWAP2 SWAP1 PUSH2 0x1D4A JUMP JUMPDEST PUSH2 0x8FF JUMP JUMPDEST PUSH1 0x40 MLOAD PUSH2 0x157 SWAP2 SWAP1 PUSH2 0x1CC9 JUMP JUMPDEST PUSH1 0x40 MLOAD DUP1 SWAP2 SUB SWAP1 RETURN JUMPDEST PUSH2 0x168 PUSH2 0x9ED JUMP JUMPDEST PUSH1 0x40 MLOAD PUSH2 0x175 SWAP2 SWAP1 PUSH2 0x1E16 JUMP JUMPDEST PUSH1 0x40 MLOAD DUP1 SWAP2 SUB SWAP1 RETURN JUMPDEST PUSH2 0x198 PUSH1 0x4 DUP1 CALLDATASIZE SUB DUP2 ADD SWAP1 PUSH2 0x193 SWAP2 SWAP1 PUSH2 0x1BC2 JUMP JUMPDEST PUSH2 0xA12 JUMP JUMPDEST PUSH1 0x40 MLOAD PUSH2 0x1A5 SWAP2 SWAP1 PUSH2 0x1E3E JUMP JUMPDEST PUSH1 0x40 MLOAD DUP1 SWAP2 SUB SWAP1 RETURN JUMPDEST PUSH2 0x1C8 PUSH1 0x4 DUP1 CALLDATASIZE SUB DUP2 ADD SWAP1 PUSH2 0x1C3 SWAP2 SWAP1 PUSH2 0x1BC2 JUMP JUMPDEST PUSH2 0xA48 JUMP JUMPDEST PUSH1 0x40 MLOAD PUSH2 0x1D5 SWAP2 SWAP1 PUSH2 0x1E3E JUMP JUMPDEST PUSH1 0x40 MLOAD DUP1 SWAP2 SUB SWAP1 RETURN JUMPDEST PUSH2 0x1F8 PUSH1 0x4 DUP1 CALLDATASIZE SUB DUP2 ADD SWAP1 PUSH2 0x1F3 SWAP2 SWAP1 PUSH2 0x1E57 JUMP JUMPDEST PUSH2 0xAC1 JUMP JUMPDEST PUSH1 0x40 MLOAD PUSH2 0x205 SWAP2 SWAP1 PUSH2 0x1B72 JUMP JUMPDEST PUSH1 0x40 MLOAD DUP1 SWAP2 SUB SWAP1 RETURN JUMPDEST PUSH2 0x228 PUSH1 0x4 DUP1 CALLDATASIZE SUB DUP2 ADD SWAP1 PUSH2 0x223 SWAP2 SWAP1 PUSH2 0x1E95 JUMP JUMPDEST PUSH2 0xB09 JUMP JUMPDEST PUSH1 0x40 MLOAD PUSH2 0x235 SWAP2 SWAP1 PUSH2 0x1CC9 JUMP JUMPDEST PUSH1 0x40 MLOAD DUP1 SWAP2 SUB SWAP1 RETURN JUMPDEST PUSH2 0x258 PUSH1 0x4 DUP1 CALLDATASIZE SUB DUP2 ADD SWAP1 PUSH2 0x253 SWAP2 SWAP1 PUSH2 0x1ED3 JUMP JUMPDEST PUSH2 0xBB4 JUMP JUMPDEST PUSH1 0x40 MLOAD PUSH2 0x265 SWAP2 SWAP1 PUSH2 0x1F3D JUMP JUMPDEST PUSH1 0x40 MLOAD DUP1 SWAP2 SUB SWAP1 RETURN JUMPDEST PUSH2 0x288 PUSH1 0x4 DUP1 CALLDATASIZE SUB DUP2 ADD SWAP1 PUSH2 0x283 SWAP2 SWAP1 PUSH2 0x1B25 JUMP JUMPDEST PUSH2 0x108C JUMP JUMPDEST PUSH1 0x40 MLOAD PUSH2 0x295 SWAP2 SWAP1 PUSH2 0x1F3D JUMP JUMPDEST PUSH1 0x40 MLOAD DUP1 SWAP2 SUB SWAP1 RETURN JUMPDEST PUSH2 0x2B8 PUSH1 0x4 DUP1 CALLDATASIZE SUB DUP2 ADD SWAP1 PUSH2 0x2B3 SWAP2 SWAP1 PUSH2 0x1B25 JUMP JUMPDEST PUSH2 0x1469 JUMP JUMPDEST STOP JUMPDEST PUSH2 0x2D4 PUSH1 0x4 DUP1 CALLDATASIZE SUB DUP2 ADD SWAP1 PUSH2 0x2CF SWAP2 SWAP1 PUSH2 0x1F56 JUMP JUMPDEST PUSH2 0x1718 JUMP JUMPDEST PUSH1 0x40 MLOAD PUSH2 0x2E1 SWAP2 SWAP1 PUSH2 0x1E3E JUMP JUMPDEST PUSH1 0x40 MLOAD DUP1 SWAP2 SUB SWAP1 RETURN JUMPDEST PUSH2 0x304 PUSH1 0x4 DUP1 CALLDATASIZE SUB DUP2 ADD SWAP1 PUSH2 0x2FF SWAP2 SWAP1 PUSH2 0x1E57 JUMP JUMPDEST PUSH2 0x1779 JUMP JUMPDEST PUSH1 0x40 MLOAD PUSH2 0x311 SWAP2 SWAP1 PUSH2 0x1B72 JUMP JUMPDEST PUSH1 0x40 MLOAD DUP1 SWAP2 SUB SWAP1 RETURN JUMPDEST PUSH1 0x2 PUSH1 0x20 MSTORE DUP2 PUSH0 MSTORE PUSH1 0x40 PUSH0 KECCAK256 PUSH1 0x20 MSTORE DUP1 PUSH0 MSTORE PUSH1 0x40 PUSH0 KECCAK256 PUSH0 SWAP2 POP SWAP2 POP SWAP1 SLOAD SWAP1 PUSH2 0x100 EXP SWAP1 DIV PUSH20 0xFFFFFFFFFFFFFFFFFFFFFFFFFFFFFFFFFFFFFFFF AND DUP2 JUMP JUMPDEST PUSH1 0x60 PUSH0 PUSH1 0x4 PUSH0 DUP7 PUSH2 0xFFFF AND PUSH2 0xFFFF AND DUP2 MSTORE PUSH1 0x20 ADD SWAP1 DUP2 MSTORE PUSH1 0x20 ADD PUSH0 KECCAK256 PUSH0 DUP6 PUSH20 0xFFFFFFFFFFFFFFFFFFFFFFFFFFFFFFFFFFFFFFFF AND PUSH20 0xFFFFFFFFFFFFFFFFFFFFFFFFFFFFFFFFFFFFFFFF AND DUP2 MSTORE PUSH1 0x20 ADD SWAP1 DUP2 MSTORE PUSH1 0x20 ADD PUSH0 KECCAK256 DUP1 SLOAD DUP1 PUSH1 0x20 MUL PUSH1 0x20 ADD PUSH1 0x40 MLOAD SWAP1 DUP2 ADD PUSH1 0x40 MSTORE DUP1 SWAP3 SWAP2 SWAP1 DUP2 DUP2 MSTORE PUSH1 0x20 ADD DUP3 DUP1 SLOAD DUP1 ISZERO PUSH2 0x3F6 JUMPI PUSH1 0x20 MUL DUP3 ADD SWAP2 SWAP1 PUSH0 MSTORE PUSH1 0x20 PUSH0 KECCAK256 SWAP1 JUMPDEST DUP2 SLOAD DUP2 MSTORE PUSH1 0x20 ADD SWAP1 PUSH1 0x1 ADD SWAP1 DUP1 DUP4 GT PUSH2 0x3E2 JUMPI JUMPDEST POP POP POP POP POP SWAP1 POP DUP1 MLOAD PUSH8 0xFFFFFFFFFFFFFFFF DUP2 GT ISZERO PUSH2 0x418 JUMPI PUSH2 0x417 PUSH2 0x1F81 JUMP JUMPDEST JUMPDEST PUSH1 0x40 MLOAD SWAP1 DUP1 DUP3 MSTORE DUP1 PUSH1 0x20 MUL PUSH1 0x20 ADD DUP3 ADD PUSH1 0x40 MSTORE DUP1 ISZERO PUSH2 0x446 JUMPI DUP2 PUSH1 0x20 ADD PUSH1 0x20 DUP3 MUL DUP1 CALLDATASIZE DUP4 CALLDATACOPY DUP1 DUP3 ADD SWAP2 POP POP SWAP1 POP JUMPDEST POP SWAP2 POP PUSH0 DUP1 PUSH0 JUMPDEST DUP4 MLOAD DUP2 LT ISZERO PUSH2 0x8F1 JUMPI PUSH0 DUP5 DUP3 DUP2 MLOAD DUP2 LT PUSH2 0x46A JUMPI PUSH2 0x469 PUSH2 0x1FAE JUMP JUMPDEST JUMPDEST PUSH1 0x20 MUL PUSH1 0x20 ADD ADD MLOAD SWAP1 POP PUSH0 PUSH20 0xFFFFFFFFFFFFFFFFFFFFFFFFFFFFFFFFFFFFFFFF AND PUSH1 0x2 PUSH0 DUP11 PUSH20 0xFFFFFFFFFFFFFFFFFFFFFFFFFFFFFFFFFFFFFFFF AND PUSH20 0xFFFFFFFFFFFFFFFFFFFFFFFFFFFFFFFFFFFFFFFF AND DUP2 MSTORE PUSH1 0x20 ADD SWAP1 DUP2 MSTORE PUSH1 0x20 ADD PUSH0 KECCAK256 PUSH0 DUP4 DUP2 MSTORE PUSH1 0x20 ADD SWAP1 DUP2 MSTORE PUSH1 0x20 ADD PUSH0 KECCAK256 PUSH0 SWAP1 SLOAD SWAP1 PUSH2 0x100 EXP SWAP1 DIV PUSH20 0xFFFFFFFFFFFFFFFFFFFFFFFFFFFFFFFFFFFFFFFF AND PUSH20 0xFFFFFFFFFFFFFFFFFFFFFFFFFFFFFFFFFFFFFFFF AND SUB PUSH2 0x518 JUMPI POP PUSH2 0x8E4 JUMP JUMPDEST PUSH0 PUSH2 0x522 DUP11 PUSH2 0x1718 JUMP JUMPDEST SWAP1 POP DUP8 DUP2 DUP6 PUSH2 0x531 SWAP2 SWAP1 PUSH2 0x2008 JUMP JUMPDEST GT ISZERO PUSH2 0x58B JUMPI DUP2 DUP10 PUSH20 0xFFFFFFFFFFFFFFFFFFFFFFFFFFFFFFFFFFFFFFFF AND PUSH32 0x8A8719B9514356483D3FC6F38C0ADA5A06A46D633339046C40EE527D7BDA0DE4 PUSH1 0x40 MLOAD PUSH2 0x57C SWAP1 PUSH2 0x2095 JUMP JUMPDEST PUSH1 0x40 MLOAD DUP1 SWAP2 SUB SWAP1 LOG3 POP POP PUSH2 0x8E4 JUMP JUMPDEST PUSH1 0x1 PUSH0 SWAP1 SLOAD SWAP1 PUSH2 0x100 EXP SWAP1 DIV PUSH20 0xFFFFFFFFFFFFFFFFFFFFFFFFFFFFFFFFFFFFFFFF AND PUSH20 0xFFFFFFFFFFFFFFFFFFFFFFFFFFFFFFFFFFFFFFFF AND PUSH4 0x23B872DD CALLER PUSH1 0x2 PUSH0 DUP14 PUSH20 0xFFFFFFFFFFFFFFFFFFFFFFFFFFFFFFFFFFFFFFFF AND PUSH20 0xFFFFFFFFFFFFFFFFFFFFFFFFFFFFFFFFFFFFFFFF AND DUP2 MSTORE PUSH1 0x20 ADD SWAP1 DUP2 MSTORE PUSH1 0x20 ADD PUSH0 KECCAK256 PUSH0 DUP7 DUP2 MSTORE PUSH1 0x20 ADD SWAP1 DUP2 MSTORE PUSH1 0x20 ADD PUSH0 KECCAK256 PUSH0 SWAP1 SLOAD SWAP1 PUSH2 0x100 EXP SWAP1 DIV PUSH20 0xFFFFFFFFFFFFFFFFFFFFFFFFFFFFFFFFFFFFFFFF AND DUP5 PUSH1 0x40 MLOAD DUP5 PUSH4 0xFFFFFFFF AND PUSH1 0xE0 SHL DUP2 MSTORE PUSH1 0x4 ADD PUSH2 0x654 SWAP4 SWAP3 SWAP2 SWAP1 PUSH2 0x20B3 JUMP JUMPDEST PUSH1 0x20 PUSH1 0x40 MLOAD DUP1 DUP4 SUB DUP2 PUSH0 DUP8 GAS CALL ISZERO DUP1 ISZERO PUSH2 0x670 JUMPI RETURNDATASIZE PUSH0 DUP1 RETURNDATACOPY RETURNDATASIZE PUSH0 REVERT JUMPDEST POP POP POP POP PUSH1 0x40 MLOAD RETURNDATASIZE PUSH1 0x1F NOT PUSH1 0x1F DUP3 ADD AND DUP3 ADD DUP1 PUSH1 0x40 MSTORE POP DUP2 ADD SWAP1 PUSH2 0x694 SWAP2 SWAP1 PUSH2 0x2112 JUMP JUMPDEST PUSH2 0x6EC JUMPI DUP2 DUP10 PUSH20 0xFFFFFFFFFFFFFFFFFFFFFFFFFFFFFFFFFFFFFFFF AND PUSH32 0x8A8719B9514356483D3FC6F38C0ADA5A06A46D633339046C40EE527D7BDA0DE4 PUSH1 0x40 MLOAD PUSH2 0x6DD SWAP1 PUSH2 0x2187 JUMP JUMPDEST PUSH1 0x40 MLOAD DUP1 SWAP2 SUB SWAP1 LOG3 POP POP PUSH2 0x8E4 JUMP JUMPDEST PUSH0 PUSH1 0x2 PUSH0 DUP12 PUSH20 0xFFFFFFFFFFFFFFFFFFFFFFFFFFFFFFFFFFFFFFFF AND PUSH20 0xFFFFFFFFFFFFFFFFFFFFFFFFFFFFFFFFFFFFFFFF AND DUP2 MSTORE PUSH1 0x20 ADD SWAP1 DUP2 MSTORE PUSH1 0x20 ADD PUSH0 KECCAK256 PUSH0 DUP5 DUP2 MSTORE PUSH1 0x20 ADD SWAP1 DUP2 MSTORE PUSH1 0x20 ADD PUSH0 KECCAK256 PUSH0 SWAP1 SLOAD SWAP1 PUSH2 0x100 EXP SWAP1 DIV PUSH20 0xFFFFFFFFFFFFFFFFFFFFFFFFFFFFFFFFFFFFFFFF AND SWAP1 POP PUSH1 0x2 PUSH0 DUP12 PUSH20 0xFFFFFFFFFFFFFFFFFFFFFFFFFFFFFFFFFFFFFFFF AND PUSH20 0xFFFFFFFFFFFFFFFFFFFFFFFFFFFFFFFFFFFFFFFF AND DUP2 MSTORE PUSH1 0x20 ADD SWAP1 DUP2 MSTORE PUSH1 0x20 ADD PUSH0 KECCAK256 PUSH0 DUP5 DUP2 MSTORE PUSH1 0x20 ADD SWAP1 DUP2 MSTORE PUSH1 0x20 ADD PUSH0 KECCAK256 PUSH0 PUSH2 0x100 EXP DUP2 SLOAD SWAP1 PUSH20 0xFFFFFFFFFFFFFFFFFFFFFFFFFFFFFFFFFFFFFFFF MUL NOT AND SWAP1 SSTORE PUSH2 0x7D4 DUP12 DUP12 DUP6 PUSH2 0x17D5 JUMP JUMPDEST DUP10 PUSH20 0xFFFFFFFFFFFFFFFFFFFFFFFFFFFFFFFFFFFFFFFF AND PUSH4 0x42842E0E DUP3 CALLER DUP7 PUSH1 0x40 MLOAD DUP5 PUSH4 0xFFFFFFFF AND PUSH1 0xE0 SHL DUP2 MSTORE PUSH1 0x4 ADD PUSH2 0x811 SWAP4 SWAP3 SWAP2 SWAP1 PUSH2 0x20B3 JUMP JUMPDEST PUSH0 PUSH1 0x40 MLOAD DUP1 DUP4 SUB DUP2 PUSH0 DUP8 DUP1 EXTCODESIZE ISZERO DUP1 ISZERO PUSH2 0x828 JUMPI PUSH0 DUP1 REVERT JUMPDEST POP GAS CALL ISZERO DUP1 ISZERO PUSH2 0x83A JUMPI RETURNDATASIZE PUSH0 DUP1 RETURNDATACOPY RETURNDATASIZE PUSH0 REVERT JUMPDEST POP POP POP POP CALLER PUSH20 0xFFFFFFFFFFFFFFFFFFFFFFFFFFFFFFFFFFFFFFFF AND DUP4 DUP12 PUSH20 0xFFFFFFFFFFFFFFFFFFFFFFFFFFFFFFFFFFFFFFFF AND PUSH32 0x77C3CED349B08A2AF4E9D443FB697437C3197B3095D43FCBDC2CDC97B1A60E0C DUP6 PUSH1 0x40 MLOAD PUSH2 0x89C SWAP2 SWAP1 PUSH2 0x1E3E JUMP JUMPDEST PUSH1 0x40 MLOAD DUP1 SWAP2 SUB SWAP1 LOG4 DUP3 DUP9 DUP8 DUP2 MLOAD DUP2 LT PUSH2 0x8B8 JUMPI PUSH2 0x8B7 PUSH2 0x1FAE JUMP JUMPDEST JUMPDEST PUSH1 0x20 MUL PUSH1 0x20 ADD ADD DUP2 DUP2 MSTORE POP POP DUP6 DUP1 PUSH2 0x8CF SWAP1 PUSH2 0x21A5 JUMP JUMPDEST SWAP7 POP POP DUP2 DUP6 PUSH2 0x8DE SWAP2 SWAP1 PUSH2 0x2008 JUMP JUMPDEST SWAP5 POP POP POP POP JUMPDEST DUP1 DUP1 PUSH1 0x1 ADD SWAP2 POP POP PUSH2 0x44D JUMP JUMPDEST POP DUP2 DUP5 MSTORE POP POP POP SWAP4 SWAP3 POP POP POP JUMP JUMPDEST PUSH1 0x60 DUP4 DUP4 SWAP1 POP PUSH8 0xFFFFFFFFFFFFFFFF DUP2 GT ISZERO PUSH2 0x91E JUMPI PUSH2 0x91D PUSH2 0x1F81 JUMP JUMPDEST JUMPDEST PUSH1 0x40 MLOAD SWAP1 DUP1 DUP3 MSTORE DUP1 PUSH1 0x20 MUL PUSH1 0x20 ADD DUP3 ADD PUSH1 0x40 MSTORE DUP1 ISZERO PUSH2 0x94C JUMPI DUP2 PUSH1 0x20 ADD PUSH1 0x20 DUP3 MUL DUP1 CALLDATASIZE DUP4 CALLDATACOPY DUP1 DUP3 ADD SWAP2 POP POP SWAP1 POP JUMPDEST POP SWAP1 POP PUSH0 DUP1 JUMPDEST DUP6 DUP6 SWAP1 POP DUP2 LT ISZERO PUSH2 0x9E0 JUMPI PUSH0 PUSH2 0x982 DUP9 DUP9 DUP9 DUP6 DUP2 DUP2 LT PUSH2 0x975 JUMPI PUSH2 0x974 PUSH2 0x1FAE JUMP JUMPDEST JUMPDEST SWAP1 POP PUSH1 0x20 MUL ADD CALLDATALOAD DUP8 PUSH2 0xBB4 JUMP JUMPDEST SWAP1 POP DUP1 ISZERO PUSH2 0x9D2 JUMPI DUP7 DUP7 DUP4 DUP2 DUP2 LT PUSH2 0x99D JUMPI PUSH2 0x99C PUSH2 0x1FAE JUMP JUMPDEST JUMPDEST SWAP1 POP PUSH1 0x20 MUL ADD CALLDATALOAD DUP5 DUP5 DUP2 MLOAD DUP2 LT PUSH2 0x9B7 JUMPI PUSH2 0x9B6 PUSH2 0x1FAE JUMP JUMPDEST JUMPDEST PUSH1 0x20 MUL PUSH1 0x20 ADD ADD DUP2 DUP2 MSTORE POP POP DUP3 DUP1 PUSH2 0x9CE SWAP1 PUSH2 0x21A5 JUMP JUMPDEST SWAP4 POP POP JUMPDEST POP DUP1 DUP1 PUSH1 0x1 ADD SWAP2 POP POP PUSH2 0x952 JUMP JUMPDEST POP DUP1 DUP3 MSTORE POP SWAP5 SWAP4 POP POP POP POP JUMP JUMPDEST PUSH1 0x1 PUSH0 SWAP1 SLOAD SWAP1 PUSH2 0x100 EXP SWAP1 DIV PUSH20 0xFFFFFFFFFFFFFFFFFFFFFFFFFFFFFFFFFFFFFFFF AND DUP2 JUMP JUMPDEST PUSH1 0x4 PUSH1 0x20 MSTORE DUP3 PUSH0 MSTORE PUSH1 0x40 PUSH0 KECCAK256 PUSH1 0x20 MSTORE DUP2 PUSH0 MSTORE PUSH1 0x40 PUSH0 KECCAK256 DUP2 DUP2 SLOAD DUP2 LT PUSH2 0xA35 JUMPI PUSH0 DUP1 REVERT JUMPDEST SWAP1 PUSH0 MSTORE PUSH1 0x20 PUSH0 KECCAK256 ADD PUSH0 SWAP3 POP SWAP3 POP POP POP SLOAD DUP2 JUMP JUMPDEST PUSH0 PUSH1 0x4 PUSH0 DUP6 PUSH2 0xFFFF AND PUSH2 0xFFFF AND DUP2 MSTORE PUSH1 0x20 ADD SWAP1 DUP2 MSTORE PUSH1 0x20 ADD PUSH0 KECCAK256 PUSH0 DUP5 PUSH20 0xFFFFFFFFFFFFFFFFFFFFFFFFFFFFFFFFFFFFFFFF AND PUSH20 0xFFFFFFFFFFFFFFFFFFFFFFFFFFFFFFFFFFFFFFFF AND DUP2 MSTORE PUSH1 0x20 ADD SWAP1 DUP2 MSTORE PUSH1 0x20 ADD PUSH0 KECCAK256 DUP3 DUP2 SLOAD DUP2 LT PUSH2 0xAAF JUMPI PUSH2 0xAAE PUSH2 0x1FAE JUMP JUMPDEST JUMPDEST SWAP1 PUSH0 MSTORE PUSH1 0x20 PUSH0 KECCAK256 ADD SLOAD SWAP1 POP SWAP4 SWAP3 POP POP POP JUMP JUMPDEST PUSH1 0x3 PUSH1 0x20 MSTORE DUP2 PUSH0 MSTORE PUSH1 0x40 PUSH0 KECCAK256 DUP2 DUP2 SLOAD DUP2 LT PUSH2 0xADA JUMPI PUSH0 DUP1 REVERT JUMPDEST SWAP1 PUSH0 MSTORE PUSH1 0x20 PUSH0 KECCAK256 ADD PUSH0 SWAP2 POP SWAP2 POP SWAP1 SLOAD SWAP1 PUSH2 0x100 EXP SWAP1 DIV PUSH20 0xFFFFFFFFFFFFFFFFFFFFFFFFFFFFFFFFFFFFFFFF AND DUP2 JUMP JUMPDEST PUSH1 0x60 PUSH1 0x4 PUSH0 DUP5 PUSH2 0xFFFF AND PUSH2 0xFFFF AND DUP2 MSTORE PUSH1 0x20 ADD SWAP1 DUP2 MSTORE PUSH1 0x20 ADD PUSH0 KECCAK256 PUSH0 DUP4 PUSH20 0xFFFFFFFFFFFFFFFFFFFFFFFFFFFFFFFFFFFFFFFF AND PUSH20 0xFFFFFFFFFFFFFFFFFFFFFFFFFFFFFFFFFFFFFFFF AND DUP2 MSTORE PUSH1 0x20 ADD SWAP1 DUP2 MSTORE PUSH1 0x20 ADD PUSH0 KECCAK256 DUP1 SLOAD DUP1 PUSH1 0x20 MUL PUSH1 0x20 ADD PUSH1 0x40 MLOAD SWAP1 DUP2 ADD PUSH1 0x40 MSTORE DUP1 SWAP3 SWAP2 SWAP1 DUP2 DUP2 MSTORE PUSH1 0x20 ADD DUP3 DUP1 SLOAD DUP1 ISZERO PUSH2 0xBA7 JUMPI PUSH1 0x20 MUL DUP3 ADD SWAP2 SWAP1 PUSH0 MSTORE PUSH1 0x20 PUSH0 KECCAK256 SWAP1 JUMPDEST DUP2 SLOAD DUP2 MSTORE PUSH1 0x20 ADD SWAP1 PUSH1 0x1 ADD SWAP1 DUP1 DUP4 GT PUSH2 0xB93 JUMPI JUMPDEST POP POP POP POP POP SWAP1 POP SWAP3 SWAP2 POP POP JUMP JUMPDEST PUSH0 DUP4 DUP4 CALLER PUSH0 DUP4 SWAP1 POP DUP2 PUSH20 0xFFFFFFFFFFFFFFFFFFFFFFFFFFFFFFFFFFFFFFFF AND DUP2 PUSH20 0xFFFFFFFFFFFFFFFFFFFFFFFFFFFFFFFFFFFFFFFF AND PUSH4 0x6352211E DUP6 PUSH1 0x40 MLOAD DUP3 PUSH4 0xFFFFFFFF AND PUSH1 0xE0 SHL DUP2 MSTORE PUSH1 0x4 ADD PUSH2 0xC0C SWAP2 SWAP1 PUSH2 0x1E3E JUMP JUMPDEST PUSH1 0x20 PUSH1 0x40 MLOAD DUP1 DUP4 SUB DUP2 DUP7 GAS STATICCALL ISZERO DUP1 ISZERO PUSH2 0xC27 JUMPI RETURNDATASIZE PUSH0 DUP1 RETURNDATACOPY RETURNDATASIZE PUSH0 REVERT JUMPDEST POP POP POP POP PUSH1 0x40 MLOAD RETURNDATASIZE PUSH1 0x1F NOT PUSH1 0x1F DUP3 ADD AND DUP3 ADD DUP1 PUSH1 0x40 MSTORE POP DUP2 ADD SWAP1 PUSH2 0xC4B SWAP2 SWAP1 PUSH2 0x2200 JUMP JUMPDEST PUSH20 0xFFFFFFFFFFFFFFFFFFFFFFFFFFFFFFFFFFFFFFFF AND EQ PUSH2 0xCA1 JUMPI PUSH1 0x40 MLOAD PUSH32 0x8C379A000000000000000000000000000000000000000000000000000000000 DUP2 MSTORE PUSH1 0x4 ADD PUSH2 0xC98 SWAP1 PUSH2 0x2275 JUMP JUMPDEST PUSH1 0x40 MLOAD DUP1 SWAP2 SUB SWAP1 REVERT JUMPDEST PUSH0 PUSH20 0xFFFFFFFFFFFFFFFFFFFFFFFFFFFFFFFFFFFFFFFF AND PUSH1 0x2 PUSH0 DUP11 PUSH20 0xFFFFFFFFFFFFFFFFFFFFFFFFFFFFFFFFFFFFFFFF AND PUSH20 0xFFFFFFFFFFFFFFFFFFFFFFFFFFFFFFFFFFFFFFFF AND DUP2 MSTORE PUSH1 0x20 ADD SWAP1 DUP2 MSTORE PUSH1 0x20 ADD PUSH0 KECCAK256 PUSH0 DUP10 DUP2 MSTORE PUSH1 0x20 ADD SWAP1 DUP2 MSTORE PUSH1 0x20 ADD PUSH0 KECCAK256 PUSH0 SWAP1 SLOAD SWAP1 PUSH2 0x100 EXP SWAP1 DIV PUSH20 0xFFFFFFFFFFFFFFFFFFFFFFFFFFFFFFFFFFFFFFFF AND PUSH20 0xFFFFFFFFFFFFFFFFFFFFFFFFFFFFFFFFFFFFFFFF AND EQ PUSH2 0xD94 JUMPI DUP7 DUP9 PUSH20 0xFFFFFFFFFFFFFFFFFFFFFFFFFFFFFFFFFFFFFFFF AND PUSH32 0x795D2A562F597CC96A526206719A45F67C20B30518EA1C6F88DE912DD25ED23 PUSH1 0x40 MLOAD PUSH2 0xD84 SWAP1 PUSH2 0x22DD JUMP JUMPDEST PUSH1 0x40 MLOAD DUP1 SWAP2 SUB SWAP1 LOG3 PUSH0 SWAP5 POP PUSH2 0x1081 JUMP JUMPDEST ADDRESS PUSH20 0xFFFFFFFFFFFFFFFFFFFFFFFFFFFFFFFFFFFFFFFF AND DUP9 PUSH20 0xFFFFFFFFFFFFFFFFFFFFFFFFFFFFFFFFFFFFFFFF AND PUSH4 0x81812FC DUP10 PUSH1 0x40 MLOAD DUP3 PUSH4 0xFFFFFFFF AND PUSH1 0xE0 SHL DUP2 MSTORE PUSH1 0x4 ADD PUSH2 0xDE4 SWAP2 SWAP1 PUSH2 0x1E3E JUMP JUMPDEST PUSH1 0x20 PUSH1 0x40 MLOAD DUP1 DUP4 SUB DUP2 DUP7 GAS STATICCALL ISZERO DUP1 ISZERO PUSH2 0xDFF JUMPI RETURNDATASIZE PUSH0 DUP1 RETURNDATACOPY RETURNDATASIZE PUSH0 REVERT JUMPDEST POP POP POP POP PUSH1 0x40 MLOAD RETURNDATASIZE PUSH1 0x1F NOT PUSH1 0x1F DUP3 ADD AND DUP3 ADD DUP1 PUSH1 0x40 MSTORE POP DUP2 ADD SWAP1 PUSH2 0xE23 SWAP2 SWAP1 PUSH2 0x2200 JUMP JUMPDEST PUSH20 0xFFFFFFFFFFFFFFFFFFFFFFFFFFFFFFFFFFFFFFFF AND EQ PUSH2 0xE93 JUMPI DUP7 DUP9 PUSH20 0xFFFFFFFFFFFFFFFFFFFFFFFFFFFFFFFFFFFFFFFF AND PUSH32 0x795D2A562F597CC96A526206719A45F67C20B30518EA1C6F88DE912DD25ED23 PUSH1 0x40 MLOAD PUSH2 0xE83 SWAP1 PUSH2 0x2345 JUMP JUMPDEST PUSH1 0x40 MLOAD DUP1 SWAP2 SUB SWAP1 LOG3 PUSH0 SWAP5 POP PUSH2 0x1081 JUMP JUMPDEST CALLER PUSH1 0x2 PUSH0 DUP11 PUSH20 0xFFFFFFFFFFFFFFFFFFFFFFFFFFFFFFFFFFFFFFFF AND PUSH20 0xFFFFFFFFFFFFFFFFFFFFFFFFFFFFFFFFFFFFFFFF AND DUP2 MSTORE PUSH1 0x20 ADD SWAP1 DUP2 MSTORE PUSH1 0x20 ADD PUSH0 KECCAK256 PUSH0 DUP10 DUP2 MSTORE PUSH1 0x20 ADD SWAP1 DUP2 MSTORE PUSH1 0x20 ADD PUSH0 KECCAK256 PUSH0 PUSH2 0x100 EXP DUP2 SLOAD DUP2 PUSH20 0xFFFFFFFFFFFFFFFFFFFFFFFFFFFFFFFFFFFFFFFF MUL NOT AND SWAP1 DUP4 PUSH20 0xFFFFFFFFFFFFFFFFFFFFFFFFFFFFFFFFFFFFFFFF AND MUL OR SWAP1 SSTORE POP PUSH1 0x4 PUSH0 DUP8 PUSH2 0xFFFF AND PUSH2 0xFFFF AND DUP2 MSTORE PUSH1 0x20 ADD SWAP1 DUP2 MSTORE PUSH1 0x20 ADD PUSH0 KECCAK256 PUSH0 DUP10 PUSH20 0xFFFFFFFFFFFFFFFFFFFFFFFFFFFFFFFFFFFFFFFF AND PUSH20 0xFFFFFFFFFFFFFFFFFFFFFFFFFFFFFFFFFFFFFFFF AND DUP2 MSTORE PUSH1 0x20 ADD SWAP1 DUP2 MSTORE PUSH1 0x20 ADD PUSH0 KECCAK256 DUP8 SWAP1 DUP1 PUSH1 0x1 DUP2 SLOAD ADD DUP1 DUP3 SSTORE DUP1 SWAP2 POP POP PUSH1 0x1 SWAP1 SUB SWAP1 PUSH0 MSTORE PUSH1 0x20 PUSH0 KECCAK256 ADD PUSH0 SWAP1 SWAP2 SWAP1 SWAP2 SWAP1 SWAP2 POP SSTORE PUSH1 0x3 PUSH0 DUP8 PUSH2 0xFFFF AND PUSH2 0xFFFF AND DUP2 MSTORE PUSH1 0x20 ADD SWAP1 DUP2 MSTORE PUSH1 0x20 ADD PUSH0 KECCAK256 DUP9 SWAP1 DUP1 PUSH1 0x1 DUP2 SLOAD ADD DUP1 DUP3 SSTORE DUP1 SWAP2 POP POP PUSH1 0x1 SWAP1 SUB SWAP1 PUSH0 MSTORE PUSH1 0x20 PUSH0 KECCAK256 ADD PUSH0 SWAP1 SWAP2 SWAP1 SWAP2 SWAP1 SWAP2 PUSH2 0x100 EXP DUP2 SLOAD DUP2 PUSH20 0xFFFFFFFFFFFFFFFFFFFFFFFFFFFFFFFFFFFFFFFF MUL NOT AND SWAP1 DUP4 PUSH20 0xFFFFFFFFFFFFFFFFFFFFFFFFFFFFFFFFFFFFFFFF AND MUL OR SWAP1 SSTORE POP CALLER PUSH20 0xFFFFFFFFFFFFFFFFFFFFFFFFFFFFFFFFFFFFFFFF AND DUP8 DUP10 PUSH20 0xFFFFFFFFFFFFFFFFFFFFFFFFFFFFFFFFFFFFFFFF AND PUSH32 0xD4D9493BDE2C94A44263C0E6B76A960EFEC9B18D7E4533B24A2F72E7FE120523 PUSH2 0x1065 DUP11 PUSH2 0x1718 JUMP JUMPDEST DUP11 PUSH1 0x40 MLOAD PUSH2 0x1074 SWAP3 SWAP2 SWAP1 PUSH2 0x2372 JUMP JUMPDEST PUSH1 0x40 MLOAD DUP1 SWAP2 SUB SWAP1 LOG4 PUSH1 0x1 SWAP5 POP JUMPDEST POP POP POP POP SWAP4 SWAP3 POP POP POP JUMP JUMPDEST PUSH0 PUSH2 0x1095 PUSH2 0x18E4 JUMP JUMPDEST PUSH0 PUSH20 0xFFFFFFFFFFFFFFFFFFFFFFFFFFFFFFFFFFFFFFFF AND PUSH1 0x2 PUSH0 DUP6 PUSH20 0xFFFFFFFFFFFFFFFFFFFFFFFFFFFFFFFFFFFFFFFF AND PUSH20 0xFFFFFFFFFFFFFFFFFFFFFFFFFFFFFFFFFFFFFFFF AND DUP2 MSTORE PUSH1 0x20 ADD SWAP1 DUP2 MSTORE PUSH1 0x20 ADD PUSH0 KECCAK256 PUSH0 DUP5 DUP2 MSTORE PUSH1 0x20 ADD SWAP1 DUP2 MSTORE PUSH1 0x20 ADD PUSH0 KECCAK256 PUSH0 SWAP1 SLOAD SWAP1 PUSH2 0x100 EXP SWAP1 DIV PUSH20 0xFFFFFFFFFFFFFFFFFFFFFFFFFFFFFFFFFFFFFFFF AND PUSH20 0xFFFFFFFFFFFFFFFFFFFFFFFFFFFFFFFFFFFFFFFF AND SUB PUSH2 0x1188 JUMPI DUP2 DUP4 PUSH20 0xFFFFFFFFFFFFFFFFFFFFFFFFFFFFFFFFFFFFFFFF AND PUSH32 0x8A8719B9514356483D3FC6F38C0ADA5A06A46D633339046C40EE527D7BDA0DE4 PUSH1 0x40 MLOAD PUSH2 0x1178 SWAP1 PUSH2 0x23E3 JUMP JUMPDEST PUSH1 0x40 MLOAD DUP1 SWAP2 SUB SWAP1 LOG3 PUSH0 SWAP1 POP PUSH2 0x145B JUMP JUMPDEST PUSH0 PUSH2 0x1193 DUP5 DUP5 PUSH2 0x1931 JUMP JUMPDEST SWAP1 POP PUSH0 PUSH1 0x2 PUSH0 DUP7 PUSH20 0xFFFFFFFFFFFFFFFFFFFFFFFFFFFFFFFFFFFFFFFF AND PUSH20 0xFFFFFFFFFFFFFFFFFFFFFFFFFFFFFFFFFFFFFFFF AND DUP2 MSTORE PUSH1 0x20 ADD SWAP1 DUP2 MSTORE PUSH1 0x20 ADD PUSH0 KECCAK256 PUSH0 DUP6 DUP2 MSTORE PUSH1 0x20 ADD SWAP1 DUP2 MSTORE PUSH1 0x20 ADD PUSH0 KECCAK256 PUSH0 SWAP1 SLOAD SWAP1 PUSH2 0x100 EXP SWAP1 DIV PUSH20 0xFFFFFFFFFFFFFFFFFFFFFFFFFFFFFFFFFFFFFFFF AND SWAP1 POP PUSH0 PUSH2 0x120E DUP4 PUSH2 0x1718 JUMP JUMPDEST SWAP1 POP PUSH1 0x1 PUSH0 SWAP1 SLOAD SWAP1 PUSH2 0x100 EXP SWAP1 DIV PUSH20 0xFFFFFFFFFFFFFFFFFFFFFFFFFFFFFFFFFFFFFFFF AND PUSH20 0xFFFFFFFFFFFFFFFFFFFFFFFFFFFFFFFFFFFFFFFF AND PUSH4 0x23B872DD CALLER DUP5 DUP5 PUSH1 0x40 MLOAD DUP5 PUSH4 0xFFFFFFFF AND PUSH1 0xE0 SHL DUP2 MSTORE PUSH1 0x4 ADD PUSH2 0x126E SWAP4 SWAP3 SWAP2 SWAP1 PUSH2 0x20B3 JUMP JUMPDEST PUSH1 0x20 PUSH1 0x40 MLOAD DUP1 DUP4 SUB DUP2 PUSH0 DUP8 GAS CALL ISZERO DUP1 ISZERO PUSH2 0x128A JUMPI RETURNDATASIZE PUSH0 DUP1 RETURNDATACOPY RETURNDATASIZE PUSH0 REVERT JUMPDEST POP POP POP POP PUSH1 0x40 MLOAD RETURNDATASIZE PUSH1 0x1F NOT PUSH1 0x1F DUP3 ADD AND DUP3 ADD DUP1 PUSH1 0x40 MSTORE POP DUP2 ADD SWAP1 PUSH2 0x12AE SWAP2 SWAP1 PUSH2 0x2112 JUMP JUMPDEST PUSH2 0x130A JUMPI DUP5 DUP7 PUSH20 0xFFFFFFFFFFFFFFFFFFFFFFFFFFFFFFFFFFFFFFFF AND PUSH32 0x8A8719B9514356483D3FC6F38C0ADA5A06A46D633339046C40EE527D7BDA0DE4 PUSH1 0x40 MLOAD PUSH2 0x12F7 SWAP1 PUSH2 0x2187 JUMP JUMPDEST PUSH1 0x40 MLOAD DUP1 SWAP2 SUB SWAP1 LOG3 PUSH0 SWAP4 POP POP POP POP PUSH2 0x145B JUMP JUMPDEST PUSH1 0x2 PUSH0 DUP8 PUSH20 0xFFFFFFFFFFFFFFFFFFFFFFFFFFFFFFFFFFFFFFFF AND PUSH20 0xFFFFFFFFFFFFFFFFFFFFFFFFFFFFFFFFFFFFFFFF AND DUP2 MSTORE PUSH1 0x20 ADD SWAP1 DUP2 MSTORE PUSH1 0x20 ADD PUSH0 KECCAK256 PUSH0 DUP7 DUP2 MSTORE PUSH1 0x20 ADD SWAP1 DUP2 MSTORE PUSH1 0x20 ADD PUSH0 KECCAK256 PUSH0 PUSH2 0x100 EXP DUP2 SLOAD SWAP1 PUSH20 0xFFFFFFFFFFFFFFFFFFFFFFFFFFFFFFFFFFFFFFFF MUL NOT AND SWAP1 SSTORE PUSH2 0x1383 DUP4 DUP8 DUP8 PUSH2 0x17D5 JUMP JUMPDEST DUP6 PUSH20 0xFFFFFFFFFFFFFFFFFFFFFFFFFFFFFFFFFFFFFFFF AND PUSH4 0x42842E0E DUP4 CALLER DUP9 PUSH1 0x40 MLOAD DUP5 PUSH4 0xFFFFFFFF AND PUSH1 0xE0 SHL DUP2 MSTORE PUSH1 0x4 ADD PUSH2 0x13C0 SWAP4 SWAP3 SWAP2 SWAP1 PUSH2 0x20B3 JUMP JUMPDEST PUSH0 PUSH1 0x40 MLOAD DUP1 DUP4 SUB DUP2 PUSH0 DUP8 DUP1 EXTCODESIZE ISZERO DUP1 ISZERO PUSH2 0x13D7 JUMPI PUSH0 DUP1 REVERT JUMPDEST POP GAS CALL ISZERO DUP1 ISZERO PUSH2 0x13E9 JUMPI RETURNDATASIZE PUSH0 DUP1 RETURNDATACOPY RETURNDATASIZE PUSH0 REVERT JUMPDEST POP POP POP POP CALLER PUSH20 0xFFFFFFFFFFFFFFFFFFFFFFFFFFFFFFFFFFFFFFFF AND DUP6 DUP8 PUSH20 0xFFFFFFFFFFFFFFFFFFFFFFFFFFFFFFFFFFFFFFFF AND PUSH32 0x77C3CED349B08A2AF4E9D443FB697437C3197B3095D43FCBDC2CDC97B1A60E0C DUP5 PUSH1 0x40 MLOAD PUSH2 0x144B SWAP2 SWAP1 PUSH2 0x1E3E JUMP JUMPDEST PUSH1 0x40 MLOAD DUP1 SWAP2 SUB SWAP1 LOG4 PUSH1 0x1 SWAP4 POP POP POP POP JUMPDEST PUSH2 0x1463 PUSH2 0x1A87 JUMP JUMPDEST SWAP3 SWAP2 POP POP JUMP JUMPDEST DUP2 DUP2 CALLER PUSH0 DUP4 SWAP1 POP DUP2 PUSH20 0xFFFFFFFFFFFFFFFFFFFFFFFFFFFFFFFFFFFFFFFF AND DUP2 PUSH20 0xFFFFFFFFFFFFFFFFFFFFFFFFFFFFFFFFFFFFFFFF AND PUSH4 0x6352211E DUP6 PUSH1 0x40 MLOAD DUP3 PUSH4 0xFFFFFFFF AND PUSH1 0xE0 SHL DUP2 MSTORE PUSH1 0x4 ADD PUSH2 0x14C0 SWAP2 SWAP1 PUSH2 0x1E3E JUMP JUMPDEST PUSH1 0x20 PUSH1 0x40 MLOAD DUP1 DUP4 SUB DUP2 DUP7 GAS STATICCALL ISZERO DUP1 ISZERO PUSH2 0x14DB JUMPI RETURNDATASIZE PUSH0 DUP1 RETURNDATACOPY RETURNDATASIZE PUSH0 REVERT JUMPDEST POP POP POP POP PUSH1 0x40 MLOAD RETURNDATASIZE PUSH1 0x1F NOT PUSH1 0x1F DUP3 ADD AND DUP3 ADD DUP1 PUSH1 0x40 MSTORE POP DUP2 ADD SWAP1 PUSH2 0x14FF SWAP2 SWAP1 PUSH2 0x2200 JUMP JUMPDEST PUSH20 0xFFFFFFFFFFFFFFFFFFFFFFFFFFFFFFFFFFFFFFFF AND EQ PUSH2 0x1555 JUMPI PUSH1 0x40 MLOAD PUSH32 0x8C379A000000000000000000000000000000000000000000000000000000000 DUP2 MSTORE PUSH1 0x4 ADD PUSH2 0x154C SWAP1 PUSH2 0x2275 JUMP JUMPDEST PUSH1 0x40 MLOAD DUP1 SWAP2 SUB SWAP1 REVERT JUMPDEST PUSH0 PUSH20 0xFFFFFFFFFFFFFFFFFFFFFFFFFFFFFFFFFFFFFFFF AND PUSH1 0x2 PUSH0 DUP9 PUSH20 0xFFFFFFFFFFFFFFFFFFFFFFFFFFFFFFFFFFFFFFFF AND PUSH20 0xFFFFFFFFFFFFFFFFFFFFFFFFFFFFFFFFFFFFFFFF AND DUP2 MSTORE PUSH1 0x20 ADD SWAP1 DUP2 MSTORE PUSH1 0x20 ADD PUSH0 KECCAK256 PUSH0 DUP8 DUP2 MSTORE PUSH1 0x20 ADD SWAP1 DUP2 MSTORE PUSH1 0x20 ADD PUSH0 KECCAK256 PUSH0 SWAP1 SLOAD SWAP1 PUSH2 0x100 EXP SWAP1 DIV PUSH20 0xFFFFFFFFFFFFFFFFFFFFFFFFFFFFFFFFFFFFFFFF AND PUSH20 0xFFFFFFFFFFFFFFFFFFFFFFFFFFFFFFFFFFFFFFFF AND SUB PUSH2 0x162E JUMPI PUSH1 0x40 MLOAD PUSH32 0x8C379A000000000000000000000000000000000000000000000000000000000 DUP2 MSTORE PUSH1 0x4 ADD PUSH2 0x1625 SWAP1 PUSH2 0x23E3 JUMP JUMPDEST PUSH1 0x40 MLOAD DUP1 SWAP2 SUB SWAP1 REVERT JUMPDEST PUSH0 PUSH2 0x1639 DUP8 DUP8 PUSH2 0x1931 JUMP JUMPDEST SWAP1 POP PUSH1 0x2 PUSH0 DUP9 PUSH20 0xFFFFFFFFFFFFFFFFFFFFFFFFFFFFFFFFFFFFFFFF AND PUSH20 0xFFFFFFFFFFFFFFFFFFFFFFFFFFFFFFFFFFFFFFFF AND DUP2 MSTORE PUSH1 0x20 ADD SWAP1 DUP2 MSTORE PUSH1 0x20 ADD PUSH0 KECCAK256 PUSH0 DUP8 DUP2 MSTORE PUSH1 0x20 ADD SWAP1 DUP2 MSTORE PUSH1 0x20 ADD PUSH0 KECCAK256 PUSH0 PUSH2 0x100 EXP DUP2 SLOAD SWAP1 PUSH20 0xFFFFFFFFFFFFFFFFFFFFFFFFFFFFFFFFFFFFFFFF MUL NOT AND SWAP1 SSTORE PUSH2 0x16B4 DUP2 DUP9 DUP9 PUSH2 0x17D5 JUMP JUMPDEST CALLER PUSH20 0xFFFFFFFFFFFFFFFFFFFFFFFFFFFFFFFFFFFFFFFF AND DUP7 DUP9 PUSH20 0xFFFFFFFFFFFFFFFFFFFFFFFFFFFFFFFFFFFFFFFF AND PUSH32 0x83614A26FD4398C876BD6684C0D04CF2E84EE7E4BC24E8D8888AB0E724BAC032 PUSH1 0x40 MLOAD PUSH1 0x40 MLOAD DUP1 SWAP2 SUB SWAP1 LOG4 POP POP POP POP POP POP POP JUMP JUMPDEST PUSH0 DUP1 DUP3 PUSH2 0xFFFF AND GT PUSH2 0x175F JUMPI PUSH1 0x40 MLOAD PUSH32 0x8C379A000000000000000000000000000000000000000000000000000000000 DUP2 MSTORE PUSH1 0x4 ADD PUSH2 0x1756 SWAP1 PUSH2 0x244B JUMP JUMPDEST PUSH1 0x40 MLOAD DUP1 SWAP2 SUB SWAP1 REVERT JUMPDEST PUSH3 0xF4240 DUP3 PUSH2 0xFFFF AND PUSH2 0x1772 SWAP2 SWAP1 PUSH2 0x2469 JUMP JUMPDEST SWAP1 POP SWAP2 SWAP1 POP JUMP JUMPDEST PUSH0 PUSH1 0x3 PUSH0 DUP5 PUSH2 0xFFFF AND PUSH2 0xFFFF AND DUP2 MSTORE PUSH1 0x20 ADD SWAP1 DUP2 MSTORE PUSH1 0x20 ADD PUSH0 KECCAK256 DUP3 DUP2 SLOAD DUP2 LT PUSH2 0x17A5 JUMPI PUSH2 0x17A4 PUSH2 0x1FAE JUMP JUMPDEST JUMPDEST SWAP1 PUSH0 MSTORE PUSH1 0x20 PUSH0 KECCAK256 ADD PUSH0 SWAP1 SLOAD SWAP1 PUSH2 0x100 EXP SWAP1 DIV PUSH20 0xFFFFFFFFFFFFFFFFFFFFFFFFFFFFFFFFFFFFFFFF AND SWAP1 POP SWAP3 SWAP2 POP POP JUMP JUMPDEST PUSH0 PUSH1 0x4 PUSH0 DUP6 PUSH2 0xFFFF AND PUSH2 0xFFFF AND DUP2 MSTORE PUSH1 0x20 ADD SWAP1 DUP2 MSTORE PUSH1 0x20 ADD PUSH0 KECCAK256 PUSH0 DUP5 PUSH20 0xFFFFFFFFFFFFFFFFFFFFFFFFFFFFFFFFFFFFFFFF AND PUSH20 0xFFFFFFFFFFFFFFFFFFFFFFFFFFFFFFFFFFFFFFFF AND DUP2 MSTORE PUSH1 0x20 ADD SWAP1 DUP2 MSTORE PUSH1 0x20 ADD PUSH0 KECCAK256 SWAP1 POP PUSH0 JUMPDEST DUP2 DUP1 SLOAD SWAP1 POP DUP2 LT ISZERO PUSH2 0x18DD JUMPI DUP3 DUP3 DUP3 DUP2 SLOAD DUP2 LT PUSH2 0x184E JUMPI PUSH2 0x184D PUSH2 0x1FAE JUMP JUMPDEST JUMPDEST SWAP1 PUSH0 MSTORE PUSH1 0x20 PUSH0 KECCAK256 ADD SLOAD SUB PUSH2 0x18D0 JUMPI DUP2 PUSH1 0x1 DUP4 DUP1 SLOAD SWAP1 POP PUSH2 0x186E SWAP2 SWAP1 PUSH2 0x24AA JUMP JUMPDEST DUP2 SLOAD DUP2 LT PUSH2 0x187F JUMPI PUSH2 0x187E PUSH2 0x1FAE JUMP JUMPDEST JUMPDEST SWAP1 PUSH0 MSTORE PUSH1 0x20 PUSH0 KECCAK256 ADD SLOAD DUP3 DUP3 DUP2 SLOAD DUP2 LT PUSH2 0x189B JUMPI PUSH2 0x189A PUSH2 0x1FAE JUMP JUMPDEST JUMPDEST SWAP1 PUSH0 MSTORE PUSH1 0x20 PUSH0 KECCAK256 ADD DUP2 SWAP1 SSTORE POP DUP2 DUP1 SLOAD DUP1 PUSH2 0x18B8 JUMPI PUSH2 0x18B7 PUSH2 0x24DD JUMP JUMPDEST JUMPDEST PUSH1 0x1 SWAP1 SUB DUP2 DUP2 SWAP1 PUSH0 MSTORE PUSH1 0x20 PUSH0 KECCAK256 ADD PUSH0 SWAP1 SSTORE SWAP1 SSTORE PUSH2 0x18DD JUMP JUMPDEST DUP1 DUP1 PUSH1 0x1 ADD SWAP2 POP POP PUSH2 0x182E JUMP JUMPDEST POP POP POP POP POP JUMP JUMPDEST PUSH1 0x2 PUSH0 SLOAD SUB PUSH2 0x1928 JUMPI PUSH1 0x40 MLOAD PUSH32 0x8C379A000000000000000000000000000000000000000000000000000000000 DUP2 MSTORE PUSH1 0x4 ADD PUSH2 0x191F SWAP1 PUSH2 0x2554 JUMP JUMPDEST PUSH1 0x40 MLOAD DUP1 SWAP2 SUB SWAP1 REVERT JUMPDEST PUSH1 0x2 PUSH0 DUP2 SWAP1 SSTORE POP JUMP JUMPDEST PUSH0 DUP1 PUSH0 DUP5 PUSH20 0xFFFFFFFFFFFFFFFFFFFFFFFFFFFFFFFFFFFFFFFF AND DUP5 PUSH1 0x40 MLOAD PUSH1 0x24 ADD PUSH2 0x195C SWAP2 SWAP1 PUSH2 0x1E3E JUMP JUMPDEST PUSH1 0x40 MLOAD PUSH1 0x20 DUP2 DUP4 SUB SUB DUP2 MSTORE SWAP1 PUSH1 0x40 MSTORE PUSH32 0x8166C9DC00000000000000000000000000000000000000000000000000000000 PUSH28 0xFFFFFFFFFFFFFFFFFFFFFFFFFFFFFFFFFFFFFFFFFFFFFFFFFFFFFFFF NOT AND PUSH1 0x20 DUP3 ADD DUP1 MLOAD PUSH28 0xFFFFFFFFFFFFFFFFFFFFFFFFFFFFFFFFFFFFFFFFFFFFFFFFFFFFFFFF DUP4 DUP2 DUP4 AND OR DUP4 MSTORE POP POP POP POP PUSH1 0x40 MLOAD PUSH2 0x19E6 SWAP2 SWAP1 PUSH2 0x25C4 JUMP JUMPDEST PUSH0 PUSH1 0x40 MLOAD DUP1 DUP4 SUB DUP2 PUSH0 DUP7 GAS CALL SWAP2 POP POP RETURNDATASIZE DUP1 PUSH0 DUP2 EQ PUSH2 0x1A1F JUMPI PUSH1 0x40 MLOAD SWAP2 POP PUSH1 0x1F NOT PUSH1 0x3F RETURNDATASIZE ADD AND DUP3 ADD PUSH1 0x40 MSTORE RETURNDATASIZE DUP3 MSTORE RETURNDATASIZE PUSH0 PUSH1 0x20 DUP5 ADD RETURNDATACOPY PUSH2 0x1A24 JUMP JUMPDEST PUSH1 0x60 SWAP2 POP JUMPDEST POP SWAP2 POP SWAP2 POP DUP2 PUSH2 0x1A69 JUMPI PUSH1 0x40 MLOAD PUSH32 0x8C379A000000000000000000000000000000000000000000000000000000000 DUP2 MSTORE PUSH1 0x4 ADD PUSH2 0x1A60 SWAP1 PUSH2 0x2624 JUMP JUMPDEST PUSH1 0x40 MLOAD DUP1 SWAP2 SUB SWAP1 REVERT JUMPDEST DUP1 DUP1 PUSH1 0x20 ADD SWAP1 MLOAD DUP2 ADD SWAP1 PUSH2 0x1A7D SWAP2 SWAP1 PUSH2 0x2656 JUMP JUMPDEST SWAP3 POP POP POP SWAP3 SWAP2 POP POP JUMP JUMPDEST PUSH1 0x1 PUSH0 DUP2 SWAP1 SSTORE POP JUMP JUMPDEST PUSH0 DUP1 REVERT JUMPDEST PUSH0 DUP1 REVERT JUMPDEST PUSH0 PUSH20 0xFFFFFFFFFFFFFFFFFFFFFFFFFFFFFFFFFFFFFFFF DUP3 AND SWAP1 POP SWAP2 SWAP1 POP JUMP JUMPDEST PUSH0 PUSH2 0x1AC1 DUP3 PUSH2 0x1A98 JUMP JUMPDEST SWAP1 POP SWAP2 SWAP1 POP JUMP JUMPDEST PUSH2 0x1AD1 DUP2 PUSH2 0x1AB7 JUMP JUMPDEST DUP2 EQ PUSH2 0x1ADB JUMPI PUSH0 DUP1 REVERT JUMPDEST POP JUMP JUMPDEST PUSH0 DUP2 CALLDATALOAD SWAP1 POP PUSH2 0x1AEC DUP2 PUSH2 0x1AC8 JUMP JUMPDEST SWAP3 SWAP2 POP POP JUMP JUMPDEST PUSH0 DUP2 SWAP1 POP SWAP2 SWAP1 POP JUMP JUMPDEST PUSH2 0x1B04 DUP2 PUSH2 0x1AF2 JUMP JUMPDEST DUP2 EQ PUSH2 0x1B0E JUMPI PUSH0 DUP1 REVERT JUMPDEST POP JUMP JUMPDEST PUSH0 DUP2 CALLDATALOAD SWAP1 POP PUSH2 0x1B1F DUP2 PUSH2 0x1AFB JUMP JUMPDEST SWAP3 SWAP2 POP POP JUMP JUMPDEST PUSH0 DUP1 PUSH1 0x40 DUP4 DUP6 SUB SLT ISZERO PUSH2 0x1B3B JUMPI PUSH2 0x1B3A PUSH2 0x1A90 JUMP JUMPDEST JUMPDEST PUSH0 PUSH2 0x1B48 DUP6 DUP3 DUP7 ADD PUSH2 0x1ADE JUMP JUMPDEST SWAP3 POP POP PUSH1 0x20 PUSH2 0x1B59 DUP6 DUP3 DUP7 ADD PUSH2 0x1B11 JUMP JUMPDEST SWAP2 POP POP SWAP3 POP SWAP3 SWAP1 POP JUMP JUMPDEST PUSH2 0x1B6C DUP2 PUSH2 0x1AB7 JUMP JUMPDEST DUP3 MSTORE POP POP JUMP JUMPDEST PUSH0 PUSH1 0x20 DUP3 ADD SWAP1 POP PUSH2 0x1B85 PUSH0 DUP4 ADD DUP5 PUSH2 0x1B63 JUMP JUMPDEST SWAP3 SWAP2 POP POP JUMP JUMPDEST PUSH0 PUSH2 0xFFFF DUP3 AND SWAP1 POP SWAP2 SWAP1 POP JUMP JUMPDEST PUSH2 0x1BA1 DUP2 PUSH2 0x1B8B JUMP JUMPDEST DUP2 EQ PUSH2 0x1BAB JUMPI PUSH0 DUP1 REVERT JUMPDEST POP JUMP JUMPDEST PUSH0 DUP2 CALLDATALOAD SWAP1 POP PUSH2 0x1BBC DUP2 PUSH2 0x1B98 JUMP JUMPDEST SWAP3 SWAP2 POP POP JUMP JUMPDEST PUSH0 DUP1 PUSH0 PUSH1 0x60 DUP5 DUP7 SUB SLT ISZERO PUSH2 0x1BD9 JUMPI PUSH2 0x1BD8 PUSH2 0x1A90 JUMP JUMPDEST JUMPDEST PUSH0 PUSH2 0x1BE6 DUP7 DUP3 DUP8 ADD PUSH2 0x1BAE JUMP JUMPDEST SWAP4 POP POP PUSH1 0x20 PUSH2 0x1BF7 DUP7 DUP3 DUP8 ADD PUSH2 0x1ADE JUMP JUMPDEST SWAP3 POP POP PUSH1 0x40 PUSH2 0x1C08 DUP7 DUP3 DUP8 ADD PUSH2 0x1B11 JUMP JUMPDEST SWAP2 POP POP SWAP3 POP SWAP3 POP SWAP3 JUMP JUMPDEST PUSH0 DUP2 MLOAD SWAP1 POP SWAP2 SWAP1 POP JUMP JUMPDEST PUSH0 DUP3 DUP3 MSTORE PUSH1 0x20 DUP3 ADD SWAP1 POP SWAP3 SWAP2 POP POP JUMP JUMPDEST PUSH0 DUP2 SWAP1 POP PUSH1 0x20 DUP3 ADD SWAP1 POP SWAP2 SWAP1 POP JUMP JUMPDEST PUSH2 0x1C44 DUP2 PUSH2 0x1AF2 JUMP JUMPDEST DUP3 MSTORE POP POP JUMP JUMPDEST PUSH0 PUSH2 0x1C55 DUP4 DUP4 PUSH2 0x1C3B JUMP JUMPDEST PUSH1 0x20 DUP4 ADD SWAP1 POP SWAP3 SWAP2 POP POP JUMP JUMPDEST PUSH0 PUSH1 0x20 DUP3 ADD SWAP1 POP SWAP2 SWAP1 POP JUMP JUMPDEST PUSH0 PUSH2 0x1C77 DUP3 PUSH2 0x1C12 JUMP JUMPDEST PUSH2 0x1C81 DUP2 DUP6 PUSH2 0x1C1C JUMP JUMPDEST SWAP4 POP PUSH2 0x1C8C DUP4 PUSH2 0x1C2C JUMP JUMPDEST DUP1 PUSH0 JUMPDEST DUP4 DUP2 LT ISZERO PUSH2 0x1CBC JUMPI DUP2 MLOAD PUSH2 0x1CA3 DUP9 DUP3 PUSH2 0x1C4A JUMP JUMPDEST SWAP8 POP PUSH2 0x1CAE DUP4 PUSH2 0x1C61 JUMP JUMPDEST SWAP3 POP POP PUSH1 0x1 DUP2 ADD SWAP1 POP PUSH2 0x1C8F JUMP JUMPDEST POP DUP6 SWAP4 POP POP POP POP SWAP3 SWAP2 POP POP JUMP JUMPDEST PUSH0 PUSH1 0x20 DUP3 ADD SWAP1 POP DUP2 DUP2 SUB PUSH0 DUP4 ADD MSTORE PUSH2 0x1CE1 DUP2 DUP5 PUSH2 0x1C6D JUMP JUMPDEST SWAP1 POP SWAP3 SWAP2 POP POP JUMP JUMPDEST PUSH0 DUP1 REVERT JUMPDEST PUSH0 DUP1 REVERT JUMPDEST PUSH0 DUP1 REVERT JUMPDEST PUSH0 DUP1 DUP4 PUSH1 0x1F DUP5 ADD SLT PUSH2 0x1D0A JUMPI PUSH2 0x1D09 PUSH2 0x1CE9 JUMP JUMPDEST JUMPDEST DUP3 CALLDATALOAD SWAP1 POP PUSH8 0xFFFFFFFFFFFFFFFF DUP2 GT ISZERO PUSH2 0x1D27 JUMPI PUSH2 0x1D26 PUSH2 0x1CED JUMP JUMPDEST JUMPDEST PUSH1 0x20 DUP4 ADD SWAP2 POP DUP4 PUSH1 0x20 DUP3 MUL DUP4 ADD GT ISZERO PUSH2 0x1D43 JUMPI PUSH2 0x1D42 PUSH2 0x1CF1 JUMP JUMPDEST JUMPDEST SWAP3 POP SWAP3 SWAP1 POP JUMP JUMPDEST PUSH0 DUP1 PUSH0 DUP1 PUSH1 0x60 DUP6 DUP8 SUB SLT ISZERO PUSH2 0x1D62 JUMPI PUSH2 0x1D61 PUSH2 0x1A90 JUMP JUMPDEST JUMPDEST PUSH0 PUSH2 0x1D6F DUP8 DUP3 DUP9 ADD PUSH2 0x1ADE JUMP JUMPDEST SWAP5 POP POP PUSH1 0x20 DUP6 ADD CALLDATALOAD PUSH8 0xFFFFFFFFFFFFFFFF DUP2 GT ISZERO PUSH2 0x1D90 JUMPI PUSH2 0x1D8F PUSH2 0x1A94 JUMP JUMPDEST JUMPDEST PUSH2 0x1D9C DUP8 DUP3 DUP9 ADD PUSH2 0x1CF5 JUMP JUMPDEST SWAP4 POP SWAP4 POP POP PUSH1 0x40 PUSH2 0x1DAF DUP8 DUP3 DUP9 ADD PUSH2 0x1BAE JUMP JUMPDEST SWAP2 POP POP SWAP3 SWAP6 SWAP2 SWAP5 POP SWAP3 POP JUMP JUMPDEST PUSH0 DUP2 SWAP1 POP SWAP2 SWAP1 POP JUMP JUMPDEST PUSH0 PUSH2 0x1DDE PUSH2 0x1DD9 PUSH2 0x1DD4 DUP5 PUSH2 0x1A98 JUMP JUMPDEST PUSH2 0x1DBB JUMP JUMPDEST PUSH2 0x1A98 JUMP JUMPDEST SWAP1 POP SWAP2 SWAP1 POP JUMP JUMPDEST PUSH0 PUSH2 0x1DEF DUP3 PUSH2 0x1DC4 JUMP JUMPDEST SWAP1 POP SWAP2 SWAP1 POP JUMP JUMPDEST PUSH0 PUSH2 0x1E00 DUP3 PUSH2 0x1DE5 JUMP JUMPDEST SWAP1 POP SWAP2 SWAP1 POP JUMP JUMPDEST PUSH2 0x1E10 DUP2 PUSH2 0x1DF6 JUMP JUMPDEST DUP3 MSTORE POP POP JUMP JUMPDEST PUSH0 PUSH1 0x20 DUP3 ADD SWAP1 POP PUSH2 0x1E29 PUSH0 DUP4 ADD DUP5 PUSH2 0x1E07 JUMP JUMPDEST SWAP3 SWAP2 POP POP JUMP JUMPDEST PUSH2 0x1E38 DUP2 PUSH2 0x1AF2 JUMP JUMPDEST DUP3 MSTORE POP POP JUMP JUMPDEST PUSH0 PUSH1 0x20 DUP3 ADD SWAP1 POP PUSH2 0x1E51 PUSH0 DUP4 ADD DUP5 PUSH2 0x1E2F JUMP JUMPDEST SWAP3 SWAP2 POP POP JUMP JUMPDEST PUSH0 DUP1 PUSH1 0x40 DUP4 DUP6 SUB SLT ISZERO PUSH2 0x1E6D JUMPI PUSH2 0x1E6C PUSH2 0x1A90 JUMP JUMPDEST JUMPDEST PUSH0 PUSH2 0x1E7A DUP6 DUP3 DUP7 ADD PUSH2 0x1BAE JUMP JUMPDEST SWAP3 POP POP PUSH1 0x20 PUSH2 0x1E8B DUP6 DUP3 DUP7 ADD PUSH2 0x1B11 JUMP JUMPDEST SWAP2 POP POP SWAP3 POP SWAP3 SWAP1 POP JUMP JUMPDEST PUSH0 DUP1 PUSH1 0x40 DUP4 DUP6 SUB SLT ISZERO PUSH2 0x1EAB JUMPI PUSH2 0x1EAA PUSH2 0x1A90 JUMP JUMPDEST JUMPDEST PUSH0 PUSH2 0x1EB8 DUP6 DUP3 DUP7 ADD PUSH2 0x1BAE JUMP JUMPDEST SWAP3 POP POP PUSH1 0x20 PUSH2 0x1EC9 DUP6 DUP3 DUP7 ADD PUSH2 0x1ADE JUMP JUMPDEST SWAP2 POP POP SWAP3 POP SWAP3 SWAP1 POP JUMP JUMPDEST PUSH0 DUP1 PUSH0 PUSH1 0x60 DUP5 DUP7 SUB SLT ISZERO PUSH2 0x1EEA JUMPI PUSH2 0x1EE9 PUSH2 0x1A90 JUMP JUMPDEST JUMPDEST PUSH0 PUSH2 0x1EF7 DUP7 DUP3 DUP8 ADD PUSH2 0x1ADE JUMP JUMPDEST SWAP4 POP POP PUSH1 0x20 PUSH2 0x1F08 DUP7 DUP3 DUP8 ADD PUSH2 0x1B11 JUMP JUMPDEST SWAP3 POP POP PUSH1 0x40 PUSH2 0x1F19 DUP7 DUP3 DUP8 ADD PUSH2 0x1BAE JUMP JUMPDEST SWAP2 POP POP SWAP3 POP SWAP3 POP SWAP3 JUMP JUMPDEST PUSH0 DUP2 ISZERO ISZERO SWAP1 POP SWAP2 SWAP1 POP JUMP JUMPDEST PUSH2 0x1F37 DUP2 PUSH2 0x1F23 JUMP JUMPDEST DUP3 MSTORE POP POP JUMP JUMPDEST PUSH0 PUSH1 0x20 DUP3 ADD SWAP1 POP PUSH2 0x1F50 PUSH0 DUP4 ADD DUP5 PUSH2 0x1F2E JUMP JUMPDEST SWAP3 SWAP2 POP POP JUMP JUMPDEST PUSH0 PUSH1 0x20 DUP3 DUP5 SUB SLT ISZERO PUSH2 0x1F6B JUMPI PUSH2 0x1F6A PUSH2 0x1A90 JUMP JUMPDEST JUMPDEST PUSH0 PUSH2 0x1F78 DUP5 DUP3 DUP6 ADD PUSH2 0x1BAE JUMP JUMPDEST SWAP2 POP POP SWAP3 SWAP2 POP POP JUMP JUMPDEST PUSH32 0x4E487B7100000000000000000000000000000000000000000000000000000000 PUSH0 MSTORE PUSH1 0x41 PUSH1 0x4 MSTORE PUSH1 0x24 PUSH0 REVERT JUMPDEST PUSH32 0x4E487B7100000000000000000000000000000000000000000000000000000000 PUSH0 MSTORE PUSH1 0x32 PUSH1 0x4 MSTORE PUSH1 0x24 PUSH0 REVERT JUMPDEST PUSH32 0x4E487B7100000000000000000000000000000000000000000000000000000000 PUSH0 MSTORE PUSH1 0x11 PUSH1 0x4 MSTORE PUSH1 0x24 PUSH0 REVERT JUMPDEST PUSH0 PUSH2 0x2012 DUP3 PUSH2 0x1AF2 JUMP JUMPDEST SWAP2 POP PUSH2 0x201D DUP4 PUSH2 0x1AF2 JUMP JUMPDEST SWAP3 POP DUP3 DUP3 ADD SWAP1 POP DUP1 DUP3 GT ISZERO PUSH2 0x2035 JUMPI PUSH2 0x2034 PUSH2 0x1FDB JUMP JUMPDEST JUMPDEST SWAP3 SWAP2 POP POP JUMP JUMPDEST PUSH0 DUP3 DUP3 MSTORE PUSH1 0x20 DUP3 ADD SWAP1 POP SWAP3 SWAP2 POP POP JUMP JUMPDEST PUSH32 0x4275646765742065786365656465640000000000000000000000000000000000 PUSH0 DUP3 ADD MSTORE POP JUMP JUMPDEST PUSH0 PUSH2 0x207F PUSH1 0xF DUP4 PUSH2 0x203B JUMP JUMPDEST SWAP2 POP PUSH2 0x208A DUP3 PUSH2 0x204B JUMP JUMPDEST PUSH1 0x20 DUP3 ADD SWAP1 POP SWAP2 SWAP1 POP JUMP JUMPDEST PUSH0 PUSH1 0x20 DUP3 ADD SWAP1 POP DUP2 DUP2 SUB PUSH0 DUP4 ADD MSTORE PUSH2 0x20AC DUP2 PUSH2 0x2073 JUMP JUMPDEST SWAP1 POP SWAP2 SWAP1 POP JUMP JUMPDEST PUSH0 PUSH1 0x60 DUP3 ADD SWAP1 POP PUSH2 0x20C6 PUSH0 DUP4 ADD DUP7 PUSH2 0x1B63 JUMP JUMPDEST PUSH2 0x20D3 PUSH1 0x20 DUP4 ADD DUP6 PUSH2 0x1B63 JUMP JUMPDEST PUSH2 0x20E0 PUSH1 0x40 DUP4 ADD DUP5 PUSH2 0x1E2F JUMP JUMPDEST SWAP5 SWAP4 POP POP POP POP JUMP JUMPDEST PUSH2 0x20F1 DUP2 PUSH2 0x1F23 JUMP JUMPDEST DUP2 EQ PUSH2 0x20FB JUMPI PUSH0 DUP1 REVERT JUMPDEST POP JUMP JUMPDEST PUSH0 DUP2 MLOAD SWAP1 POP PUSH2 0x210C DUP2 PUSH2 0x20E8 JUMP JUMPDEST SWAP3 SWAP2 POP POP JUMP JUMPDEST PUSH0 PUSH1 0x20 DUP3 DUP5 SUB SLT ISZERO PUSH2 0x2127 JUMPI PUSH2 0x2126 PUSH2 0x1A90 JUMP JUMPDEST JUMPDEST PUSH0 PUSH2 0x2134 DUP5 DUP3 DUP6 ADD PUSH2 0x20FE JUMP JUMPDEST SWAP2 POP POP SWAP3 SWAP2 POP POP JUMP JUMPDEST PUSH32 0x5061796D656E74206661696C6564000000000000000000000000000000000000 PUSH0 DUP3 ADD MSTORE POP JUMP JUMPDEST PUSH0 PUSH2 0x2171 PUSH1 0xE DUP4 PUSH2 0x203B JUMP JUMPDEST SWAP2 POP PUSH2 0x217C DUP3 PUSH2 0x213D JUMP JUMPDEST PUSH1 0x20 DUP3 ADD SWAP1 POP SWAP2 SWAP1 POP JUMP JUMPDEST PUSH0 PUSH1 0x20 DUP3 ADD SWAP1 POP DUP2 DUP2 SUB PUSH0 DUP4 ADD MSTORE PUSH2 0x219E DUP2 PUSH2 0x2165 JUMP JUMPDEST SWAP1 POP SWAP2 SWAP1 POP JUMP JUMPDEST PUSH0 PUSH2 0x21AF DUP3 PUSH2 0x1AF2 JUMP JUMPDEST SWAP2 POP PUSH32 0xFFFFFFFFFFFFFFFFFFFFFFFFFFFFFFFFFFFFFFFFFFFFFFFFFFFFFFFFFFFFFFFF DUP3 SUB PUSH2 0x21E1 JUMPI PUSH2 0x21E0 PUSH2 0x1FDB JUMP JUMPDEST JUMPDEST PUSH1 0x1 DUP3 ADD SWAP1 POP SWAP2 SWAP1 POP JUMP JUMPDEST PUSH0 DUP2 MLOAD SWAP1 POP PUSH2 0x21FA DUP2 PUSH2 0x1AC8 JUMP JUMPDEST SWAP3 SWAP2 POP POP JUMP JUMPDEST PUSH0 PUSH1 0x20 DUP3 DUP5 SUB SLT ISZERO PUSH2 0x2215 JUMPI PUSH2 0x2214 PUSH2 0x1A90 JUMP JUMPDEST JUMPDEST PUSH0 PUSH2 0x2222 DUP5 DUP3 DUP6 ADD PUSH2 0x21EC JUMP JUMPDEST SWAP2 POP POP SWAP3 SWAP2 POP POP JUMP JUMPDEST PUSH32 0x4E6F7420746865206F776E657200000000000000000000000000000000000000 PUSH0 DUP3 ADD MSTORE POP JUMP JUMPDEST PUSH0 PUSH2 0x225F PUSH1 0xD DUP4 PUSH2 0x203B JUMP JUMPDEST SWAP2 POP PUSH2 0x226A DUP3 PUSH2 0x222B JUMP JUMPDEST PUSH1 0x20 DUP3 ADD SWAP1 POP SWAP2 SWAP1 POP JUMP JUMPDEST PUSH0 PUSH1 0x20 DUP3 ADD SWAP1 POP DUP2 DUP2 SUB PUSH0 DUP4 ADD MSTORE PUSH2 0x228C DUP2 PUSH2 0x2253 JUMP JUMPDEST SWAP1 POP SWAP2 SWAP1 POP JUMP JUMPDEST PUSH32 0x416C7265616479206C6973746564000000000000000000000000000000000000 PUSH0 DUP3 ADD MSTORE POP JUMP JUMPDEST PUSH0 PUSH2 0x22C7 PUSH1 0xE DUP4 PUSH2 0x203B JUMP JUMPDEST SWAP2 POP PUSH2 0x22D2 DUP3 PUSH2 0x2293 JUMP JUMPDEST PUSH1 0x20 DUP3 ADD SWAP1 POP SWAP2 SWAP1 POP JUMP JUMPDEST PUSH0 PUSH1 0x20 DUP3 ADD SWAP1 POP DUP2 DUP2 SUB PUSH0 DUP4 ADD MSTORE PUSH2 0x22F4 DUP2 PUSH2 0x22BB JUMP JUMPDEST SWAP1 POP SWAP2 SWAP1 POP JUMP JUMPDEST PUSH32 0x4E6F7420617070726F7665640000000000000000000000000000000000000000 PUSH0 DUP3 ADD MSTORE POP JUMP JUMPDEST PUSH0 PUSH2 0x232F PUSH1 0xC DUP4 PUSH2 0x203B JUMP JUMPDEST SWAP2 POP PUSH2 0x233A DUP3 PUSH2 0x22FB JUMP JUMPDEST PUSH1 0x20 DUP3 ADD SWAP1 POP SWAP2 SWAP1 POP JUMP JUMPDEST PUSH0 PUSH1 0x20 DUP3 ADD SWAP1 POP DUP2 DUP2 SUB PUSH0 DUP4 ADD MSTORE PUSH2 0x235C DUP2 PUSH2 0x2323 JUMP JUMPDEST SWAP1 POP SWAP2 SWAP1 POP JUMP JUMPDEST PUSH2 0x236C DUP2 PUSH2 0x1B8B JUMP JUMPDEST DUP3 MSTORE POP POP JUMP JUMPDEST PUSH0 PUSH1 0x40 DUP3 ADD SWAP1 POP PUSH2 0x2385 PUSH0 DUP4 ADD DUP6 PUSH2 0x1E2F JUMP JUMPDEST PUSH2 0x2392 PUSH1 0x20 DUP4 ADD DUP5 PUSH2 0x2363 JUMP JUMPDEST SWAP4 SWAP3 POP POP POP JUMP JUMPDEST PUSH32 0x4E6F74206C697374656400000000000000000000000000000000000000000000 PUSH0 DUP3 ADD MSTORE POP JUMP JUMPDEST PUSH0 PUSH2 0x23CD PUSH1 0xA DUP4 PUSH2 0x203B JUMP JUMPDEST SWAP2 POP PUSH2 0x23D8 DUP3 PUSH2 0x2399 JUMP JUMPDEST PUSH1 0x20 DUP3 ADD SWAP1 POP SWAP2 SWAP1 POP JUMP JUMPDEST PUSH0 PUSH1 0x20 DUP3 ADD SWAP1 POP DUP2 DUP2 SUB PUSH0 DUP4 ADD MSTORE PUSH2 0x23FA DUP2 PUSH2 0x23C1 JUMP JUMPDEST SWAP1 POP SWAP2 SWAP1 POP JUMP JUMPDEST PUSH32 0x496E76616C69642067726F757000000000000000000000000000000000000000 PUSH0 DUP3 ADD MSTORE POP JUMP JUMPDEST PUSH0 PUSH2 0x2435 PUSH1 0xD DUP4 PUSH2 0x203B JUMP JUMPDEST SWAP2 POP PUSH2 0x2440 DUP3 PUSH2 0x2401 JUMP JUMPDEST PUSH1 0x20 DUP3 ADD SWAP1 POP SWAP2 SWAP1 POP JUMP JUMPDEST PUSH0 PUSH1 0x20 DUP3 ADD SWAP1 POP DUP2 DUP2 SUB PUSH0 DUP4 ADD MSTORE PUSH2 0x2462 DUP2 PUSH2 0x2429 JUMP JUMPDEST SWAP1 POP SWAP2 SWAP1 POP JUMP JUMPDEST PUSH0 PUSH2 0x2473 DUP3 PUSH2 0x1AF2 JUMP JUMPDEST SWAP2 POP PUSH2 0x247E DUP4 PUSH2 0x1AF2 JUMP JUMPDEST SWAP3 POP DUP3 DUP3 MUL PUSH2 0x248C DUP2 PUSH2 0x1AF2 JUMP JUMPDEST SWAP2 POP DUP3 DUP3 DIV DUP5 EQ DUP4 ISZERO OR PUSH2 0x24A3 JUMPI PUSH2 0x24A2 PUSH2 0x1FDB JUMP JUMPDEST JUMPDEST POP SWAP3 SWAP2 POP POP JUMP JUMPDEST PUSH0 PUSH2 0x24B4 DUP3 PUSH2 0x1AF2 JUMP JUMPDEST SWAP2 POP PUSH2 0x24BF DUP4 PUSH2 0x1AF2 JUMP JUMPDEST SWAP3 POP DUP3 DUP3 SUB SWAP1 POP DUP2 DUP2 GT ISZERO PUSH2 0x24D7 JUMPI PUSH2 0x24D6 PUSH2 0x1FDB JUMP JUMPDEST JUMPDEST SWAP3 SWAP2 POP POP JUMP JUMPDEST PUSH32 0x4E487B7100000000000000000000000000000000000000000000000000000000 PUSH0 MSTORE PUSH1 0x31 PUSH1 0x4 MSTORE PUSH1 0x24 PUSH0 REVERT JUMPDEST PUSH32 0x5265656E7472616E637947756172643A207265656E7472616E742063616C6C00 PUSH0 DUP3 ADD MSTORE POP JUMP JUMPDEST PUSH0 PUSH2 0x253E PUSH1 0x1F DUP4 PUSH2 0x203B JUMP JUMPDEST SWAP2 POP PUSH2 0x2549 DUP3 PUSH2 0x250A JUMP JUMPDEST PUSH1 0x20 DUP3 ADD SWAP1 POP SWAP2 SWAP1 POP JUMP JUMPDEST PUSH0 PUSH1 0x20 DUP3 ADD SWAP1 POP DUP2 DUP2 SUB PUSH0 DUP4 ADD MSTORE PUSH2 0x256B DUP2 PUSH2 0x2532 JUMP JUMPDEST SWAP1 POP SWAP2 SWAP1 POP JUMP JUMPDEST PUSH0 DUP2 MLOAD SWAP1 POP SWAP2 SWAP1 POP JUMP JUMPDEST PUSH0 DUP2 SWAP1 POP SWAP3 SWAP2 POP POP JUMP JUMPDEST DUP3 DUP2 DUP4 MCOPY PUSH0 DUP4 DUP4 ADD MSTORE POP POP POP JUMP JUMPDEST PUSH0 PUSH2 0x259E DUP3 PUSH2 0x2572 JUMP JUMPDEST PUSH2 0x25A8 DUP2 DUP6 PUSH2 0x257C JUMP JUMPDEST SWAP4 POP PUSH2 0x25B8 DUP2 DUP6 PUSH1 0x20 DUP7 ADD PUSH2 0x2586 JUMP JUMPDEST DUP1 DUP5 ADD SWAP2 POP POP SWAP3 SWAP2 POP POP JUMP JUMPDEST PUSH0 PUSH2 0x25CF DUP3 DUP5 PUSH2 0x2594 JUMP JUMPDEST SWAP2 POP DUP2 SWAP1 POP SWAP3 SWAP2 POP POP JUMP JUMPDEST PUSH32 0x47726F7570206E6F7420666F756E640000000000000000000000000000000000 PUSH0 DUP3 ADD MSTORE POP JUMP JUMPDEST PUSH0 PUSH2 0x260E PUSH1 0xF DUP4 PUSH2 0x203B JUMP JUMPDEST SWAP2 POP PUSH2 0x2619 DUP3 PUSH2 0x25DA JUMP JUMPDEST PUSH1 0x20 DUP3 ADD SWAP1 POP SWAP2 SWAP1 POP JUMP JUMPDEST PUSH0 PUSH1 0x20 DUP3 ADD SWAP1 POP DUP2 DUP2 SUB PUSH0 DUP4 ADD MSTORE PUSH2 0x263B DUP2 PUSH2 0x2602 JUMP JUMPDEST SWAP1 POP SWAP2 SWAP1 POP JUMP JUMPDEST PUSH0 DUP2 MLOAD SWAP1 POP PUSH2 0x2650 DUP2 PUSH2 0x1B98 JUMP JUMPDEST SWAP3 SWAP2 POP POP JUMP JUMPDEST PUSH0 PUSH1 0x20 DUP3 DUP5 SUB SLT ISZERO PUSH2 0x266B JUMPI PUSH2 0x266A PUSH2 0x1A90 JUMP JUMPDEST JUMPDEST PUSH0 PUSH2 0x2678 DUP5 DUP3 DUP6 ADD PUSH2 0x2642 JUMP JUMPDEST SWAP2 POP POP SWAP3 SWAP2 POP POP JUMP INVALID LOG2 PUSH5 0x6970667358 0x22 SLT KECCAK256 0xDC INVALID ADDRESS 0x2C 0x1E EXTCODEHASH ADD 0xD5 0xBF 0xE2 0xE3 GT 0xAC SUB 0xD5 0xF8 0x2C PUSH29 0x34BBE1C8706F5F594855F0C7676C64736F6C634300081A003300000000 "
				},
				"gasEstimates": {
					"creation": {
						"codeDepositCost": "1982200",
						"executionCost": "infinite",
						"totalCost": "infinite"
					},
					"external": {
						"buyGroup(uint16,address,uint256)": "infinite",
						"buyNFT(address,uint256)": "infinite",
						"cancelListing(address,uint256)": "infinite",
						"getAllGroupTokenIds(uint16,address)": "infinite",
						"getGroupContract(uint16,uint256)": "5307",
						"getGroupPrice(uint16)": "infinite",
						"getGroupTokenId(uint16,address,uint256)": "infinite",
						"groupContracts(uint16,uint256)": "5211",
						"groupTokenIds(uint16,address,uint256)": "infinite",
						"listMany(address,uint256[],uint16)": "infinite",
						"listNFT(address,uint256,uint16)": "infinite",
						"listings(address,uint256)": "infinite",
						"paymentToken()": "infinite"
					},
					"internal": {
						"_removeTokenIdFromGroup(uint16,address,uint256)": "infinite",
						"getGroup(address,uint256)": "infinite"
					}
				},
				"methodIdentifiers": {
					"buyGroup(uint16,address,uint256)": "29d9a791",
					"buyNFT(address,uint256)": "a82ba76f",
					"cancelListing(address,uint256)": "b2ddee06",
					"getAllGroupTokenIds(uint16,address)": "75dbef4f",
					"getGroupContract(uint16,uint256)": "e2006a98",
					"getGroupPrice(uint16)": "c02b84a1",
					"getGroupTokenId(uint16,address,uint256)": "3ffbab63",
					"groupContracts(uint16,uint256)": "496b3d10",
					"groupTokenIds(uint16,address,uint256)": "39edfd4e",
					"listMany(address,uint256[],uint16)": "2e49e852",
					"listNFT(address,uint256,uint16)": "9c3e202d",
					"listings(address,uint256)": "0007df30",
					"paymentToken()": "3013ce29"
				}
			},
			"storageLayout": {
				"storage": [
					{
						"astId": 10,
						"contract": "BCMMarket4.sol:NFTMarketplaceWithERC20",
						"label": "_status",
						"offset": 0,
						"slot": "0",
						"type": "t_uint256"
					},
					{
						"astId": 281,
						"contract": "BCMMarket4.sol:NFTMarketplaceWithERC20",
						"label": "paymentToken",
						"offset": 0,
						"slot": "1",
						"type": "t_contract(IERC20)142"
					},
					{
						"astId": 287,
						"contract": "BCMMarket4.sol:NFTMarketplaceWithERC20",
						"label": "listings",
						"offset": 0,
						"slot": "2",
						"type": "t_mapping(t_address,t_mapping(t_uint256,t_address))"
					},
					{
						"astId": 292,
						"contract": "BCMMarket4.sol:NFTMarketplaceWithERC20",
						"label": "groupContracts",
						"offset": 0,
						"slot": "3",
						"type": "t_mapping(t_uint16,t_array(t_address)dyn_storage)"
					},
					{
						"astId": 299,
						"contract": "BCMMarket4.sol:NFTMarketplaceWithERC20",
						"label": "groupTokenIds",
						"offset": 0,
						"slot": "4",
						"type": "t_mapping(t_uint16,t_mapping(t_address,t_array(t_uint256)dyn_storage))"
					}
				],
				"types": {
					"t_address": {
						"encoding": "inplace",
						"label": "address",
						"numberOfBytes": "20"
					},
					"t_array(t_address)dyn_storage": {
						"base": "t_address",
						"encoding": "dynamic_array",
						"label": "address[]",
						"numberOfBytes": "32"
					},
					"t_array(t_uint256)dyn_storage": {
						"base": "t_uint256",
						"encoding": "dynamic_array",
						"label": "uint256[]",
						"numberOfBytes": "32"
					},
					"t_contract(IERC20)142": {
						"encoding": "inplace",
						"label": "contract IERC20",
						"numberOfBytes": "20"
					},
					"t_mapping(t_address,t_array(t_uint256)dyn_storage)": {
						"encoding": "mapping",
						"key": "t_address",
						"label": "mapping(address => uint256[])",
						"numberOfBytes": "32",
						"value": "t_array(t_uint256)dyn_storage"
					},
					"t_mapping(t_address,t_mapping(t_uint256,t_address))": {
						"encoding": "mapping",
						"key": "t_address",
						"label": "mapping(address => mapping(uint256 => address))",
						"numberOfBytes": "32",
						"value": "t_mapping(t_uint256,t_address)"
					},
					"t_mapping(t_uint16,t_array(t_address)dyn_storage)": {
						"encoding": "mapping",
						"key": "t_uint16",
						"label": "mapping(uint16 => address[])",
						"numberOfBytes": "32",
						"value": "t_array(t_address)dyn_storage"
					},
					"t_mapping(t_uint16,t_mapping(t_address,t_array(t_uint256)dyn_storage))": {
						"encoding": "mapping",
						"key": "t_uint16",
						"label": "mapping(uint16 => mapping(address => uint256[]))",
						"numberOfBytes": "32",
						"value": "t_mapping(t_address,t_array(t_uint256)dyn_storage)"
					},
					"t_mapping(t_uint256,t_address)": {
						"encoding": "mapping",
						"key": "t_uint256",
						"label": "mapping(uint256 => address)",
						"numberOfBytes": "32",
						"value": "t_address"
					},
					"t_uint16": {
						"encoding": "inplace",
						"label": "uint16",
						"numberOfBytes": "2"
					},
					"t_uint256": {
						"encoding": "inplace",
						"label": "uint256",
						"numberOfBytes": "32"
					}
				}
			},
			"userdoc": {
				"kind": "user",
				"methods": {},
				"version": 1
			}
		}
	}
}