{
	"BCMMarket2.sol": {
		"NFTMarketplaceWithERC20": {
			"abi": [
				{
					"inputs": [
						{
							"internalType": "address",
							"name": "_paymentToken",
							"type": "address"
						}
					],
					"stateMutability": "nonpayable",
					"type": "constructor"
				},
				{
					"anonymous": false,
					"inputs": [
						{
							"indexed": true,
							"internalType": "address",
							"name": "nftContract",
							"type": "address"
						},
						{
							"indexed": true,
							"internalType": "uint256",
							"name": "tokenId",
							"type": "uint256"
						},
						{
							"indexed": false,
							"internalType": "string",
							"name": "reason",
							"type": "string"
						}
					],
					"name": "ListingFailed",
					"type": "event"
				},
				{
					"anonymous": false,
					"inputs": [
						{
							"indexed": true,
							"internalType": "address",
							"name": "nftContract",
							"type": "address"
						},
						{
							"indexed": true,
							"internalType": "uint256",
							"name": "tokenId",
							"type": "uint256"
						},
						{
							"indexed": false,
							"internalType": "uint256",
							"name": "price",
							"type": "uint256"
						},
						{
							"indexed": true,
							"internalType": "address",
							"name": "seller",
							"type": "address"
						},
						{
							"indexed": false,
							"internalType": "uint16",
							"name": "group",
							"type": "uint16"
						}
					],
					"name": "NFTListed",
					"type": "event"
				},
				{
					"anonymous": false,
					"inputs": [
						{
							"indexed": true,
							"internalType": "address",
							"name": "nftContract",
							"type": "address"
						},
						{
							"indexed": true,
							"internalType": "uint256",
							"name": "tokenId",
							"type": "uint256"
						},
						{
							"indexed": true,
							"internalType": "address",
							"name": "seller",
							"type": "address"
						}
					],
					"name": "NFTListingCancelled",
					"type": "event"
				},
				{
					"anonymous": false,
					"inputs": [
						{
							"indexed": true,
							"internalType": "address",
							"name": "nftContract",
							"type": "address"
						},
						{
							"indexed": true,
							"internalType": "uint256",
							"name": "tokenId",
							"type": "uint256"
						},
						{
							"indexed": false,
							"internalType": "uint256",
							"name": "price",
							"type": "uint256"
						},
						{
							"indexed": true,
							"internalType": "address",
							"name": "buyer",
							"type": "address"
						}
					],
					"name": "NFTSold",
					"type": "event"
				},
				{
					"anonymous": false,
					"inputs": [
						{
							"indexed": true,
							"internalType": "address",
							"name": "nftContract",
							"type": "address"
						},
						{
							"indexed": true,
							"internalType": "uint256",
							"name": "tokenId",
							"type": "uint256"
						},
						{
							"indexed": false,
							"internalType": "string",
							"name": "reason",
							"type": "string"
						}
					],
					"name": "PurchaseFailed",
					"type": "event"
				},
				{
					"inputs": [
						{
							"internalType": "address",
							"name": "nftContract",
							"type": "address"
						},
						{
							"internalType": "uint256[]",
							"name": "tokenIds",
							"type": "uint256[]"
						}
					],
					"name": "buyMany",
					"outputs": [
						{
							"internalType": "uint256[]",
							"name": "purchased",
							"type": "uint256[]"
						}
					],
					"stateMutability": "nonpayable",
					"type": "function"
				},
				{
					"inputs": [
						{
							"internalType": "address",
							"name": "nftContract",
							"type": "address"
						},
						{
							"internalType": "uint256",
							"name": "tokenId",
							"type": "uint256"
						}
					],
					"name": "buyNFT",
					"outputs": [
						{
							"internalType": "bool",
							"name": "success",
							"type": "bool"
						}
					],
					"stateMutability": "nonpayable",
					"type": "function"
				},
				{
					"inputs": [
						{
							"internalType": "address",
							"name": "nftContract",
							"type": "address"
						},
						{
							"internalType": "uint256[]",
							"name": "tokenIds",
							"type": "uint256[]"
						},
						{
							"internalType": "uint256",
							"name": "maxTotal",
							"type": "uint256"
						}
					],
					"name": "buyUpTo",
					"outputs": [
						{
							"internalType": "uint256[]",
							"name": "purchased",
							"type": "uint256[]"
						}
					],
					"stateMutability": "nonpayable",
					"type": "function"
				},
				{
					"inputs": [
						{
							"internalType": "address",
							"name": "nftContract",
							"type": "address"
						},
						{
							"internalType": "uint256",
							"name": "tokenId",
							"type": "uint256"
						}
					],
					"name": "cancelListing",
					"outputs": [],
					"stateMutability": "nonpayable",
					"type": "function"
				},
				{
					"inputs": [
						{
							"internalType": "uint16",
							"name": "group",
							"type": "uint16"
						}
					],
					"name": "getGroupPrice",
					"outputs": [
						{
							"internalType": "uint256",
							"name": "",
							"type": "uint256"
						}
					],
					"stateMutability": "pure",
					"type": "function"
				},
				{
					"inputs": [
						{
							"internalType": "uint16",
							"name": "",
							"type": "uint16"
						},
						{
							"internalType": "uint256",
							"name": "",
							"type": "uint256"
						}
					],
					"name": "groupContracts",
					"outputs": [
						{
							"internalType": "address",
							"name": "",
							"type": "address"
						}
					],
					"stateMutability": "view",
					"type": "function"
				},
				{
					"inputs": [
						{
							"internalType": "uint16",
							"name": "",
							"type": "uint16"
						},
						{
							"internalType": "address",
							"name": "",
							"type": "address"
						},
						{
							"internalType": "uint256",
							"name": "",
							"type": "uint256"
						}
					],
					"name": "groupTokenIds",
					"outputs": [
						{
							"internalType": "uint256",
							"name": "",
							"type": "uint256"
						}
					],
					"stateMutability": "view",
					"type": "function"
				},
				{
					"inputs": [
						{
							"internalType": "address",
							"name": "nftContract",
							"type": "address"
						},
						{
							"internalType": "uint256[]",
							"name": "tokenIds",
							"type": "uint256[]"
						},
						{
							"internalType": "uint16",
							"name": "group",
							"type": "uint16"
						}
					],
					"name": "listMany",
					"outputs": [
						{
							"internalType": "uint256[]",
							"name": "listed",
							"type": "uint256[]"
						}
					],
					"stateMutability": "nonpayable",
					"type": "function"
				},
				{
					"inputs": [
						{
							"internalType": "address",
							"name": "nftContract",
							"type": "address"
						},
						{
							"internalType": "uint256",
							"name": "tokenId",
							"type": "uint256"
						},
						{
							"internalType": "uint16",
							"name": "group",
							"type": "uint16"
						}
					],
					"name": "listNFT",
					"outputs": [
						{
							"internalType": "bool",
							"name": "success",
							"type": "bool"
						}
					],
					"stateMutability": "nonpayable",
					"type": "function"
				},
				{
					"inputs": [
						{
							"internalType": "address",
							"name": "nftContract",
							"type": "address"
						},
						{
							"internalType": "uint256[]",
							"name": "tokenIds",
							"type": "uint256[]"
						},
						{
							"internalType": "uint16",
							"name": "group",
							"type": "uint16"
						},
						{
							"internalType": "uint256",
							"name": "maxCount",
							"type": "uint256"
						}
					],
					"name": "listUpTo",
					"outputs": [
						{
							"internalType": "uint256[]",
							"name": "listed",
							"type": "uint256[]"
						}
					],
					"stateMutability": "nonpayable",
					"type": "function"
				},
				{
					"inputs": [
						{
							"internalType": "address",
							"name": "",
							"type": "address"
						},
						{
							"internalType": "uint256",
							"name": "",
							"type": "uint256"
						}
					],
					"name": "listings",
					"outputs": [
						{
							"internalType": "address",
							"name": "",
							"type": "address"
						}
					],
					"stateMutability": "view",
					"type": "function"
				},
				{
					"inputs": [],
					"name": "paymentToken",
					"outputs": [
						{
							"internalType": "contract IERC20",
							"name": "",
							"type": "address"
						}
					],
					"stateMutability": "view",
					"type": "function"
				}
			],
			"devdoc": {
				"kind": "dev",
				"methods": {},
				"version": 1
			},
			"evm": {
				"assembly": "    /* \"BCMMarket2.sol\":238:7487  contract NFTMarketplaceWithERC20 is ReentrancyGuard {... */\n  mstore(0x40, 0x80)\n    /* \"BCMMarket2.sol\":1068:1156  constructor(address _paymentToken) {... */\n  callvalue\n  dup1\n  iszero\n  tag_1\n  jumpi\n  0x00\n  dup1\n  revert\ntag_1:\n  pop\n  mload(0x40)\n  sub(codesize, bytecodeSize)\n  dup1\n  bytecodeSize\n  dup4\n  codecopy\n  dup2\n  dup2\n  add\n  0x40\n  mstore\n  dup2\n  add\n  swap1\n  tag_2\n  swap2\n  swap1\n  tag_3\n  jump\t// in\ntag_2:\n    /* \"@openzeppelin/contracts/security/ReentrancyGuard.sol\":1716:1717  1 */\n  0x01\n    /* \"@openzeppelin/contracts/security/ReentrancyGuard.sol\":1821:1828  _status */\n  0x00\n    /* \"@openzeppelin/contracts/security/ReentrancyGuard.sol\":1821:1843  _status = _NOT_ENTERED */\n  dup2\n  swap1\n  sstore\n  pop\n    /* \"BCMMarket2.sol\":1135:1148  _paymentToken */\n  dup1\n    /* \"BCMMarket2.sol\":1113:1125  paymentToken */\n  0x01\n  0x00\n    /* \"BCMMarket2.sol\":1113:1149  paymentToken = IERC20(_paymentToken) */\n  0x0100\n  exp\n  dup2\n  sload\n  dup2\n  0xffffffffffffffffffffffffffffffffffffffff\n  mul\n  not\n  and\n  swap1\n  dup4\n  0xffffffffffffffffffffffffffffffffffffffff\n  and\n  mul\n  or\n  swap1\n  sstore\n  pop\n    /* \"BCMMarket2.sol\":1068:1156  constructor(address _paymentToken) {... */\n  pop\n    /* \"BCMMarket2.sol\":238:7487  contract NFTMarketplaceWithERC20 is ReentrancyGuard {... */\n  jump(tag_8)\n    /* \"#utility.yul\":88:205   */\ntag_10:\n    /* \"#utility.yul\":197:198   */\n  0x00\n    /* \"#utility.yul\":194:195   */\n  dup1\n    /* \"#utility.yul\":187:199   */\n  revert\n    /* \"#utility.yul\":334:460   */\ntag_12:\n    /* \"#utility.yul\":371:378   */\n  0x00\n    /* \"#utility.yul\":411:453   */\n  0xffffffffffffffffffffffffffffffffffffffff\n    /* \"#utility.yul\":404:409   */\n  dup3\n    /* \"#utility.yul\":400:454   */\n  and\n    /* \"#utility.yul\":389:454   */\n  swap1\n  pop\n    /* \"#utility.yul\":334:460   */\n  swap2\n  swap1\n  pop\n  jump\t// out\n    /* \"#utility.yul\":466:562   */\ntag_13:\n    /* \"#utility.yul\":503:510   */\n  0x00\n    /* \"#utility.yul\":532:556   */\n  tag_22\n    /* \"#utility.yul\":550:555   */\n  dup3\n    /* \"#utility.yul\":532:556   */\n  tag_12\n  jump\t// in\ntag_22:\n    /* \"#utility.yul\":521:556   */\n  swap1\n  pop\n    /* \"#utility.yul\":466:562   */\n  swap2\n  swap1\n  pop\n  jump\t// out\n    /* \"#utility.yul\":568:690   */\ntag_14:\n    /* \"#utility.yul\":641:665   */\n  tag_24\n    /* \"#utility.yul\":659:664   */\n  dup2\n    /* \"#utility.yul\":641:665   */\n  tag_13\n  jump\t// in\ntag_24:\n    /* \"#utility.yul\":634:639   */\n  dup2\n    /* \"#utility.yul\":631:666   */\n  eq\n    /* \"#utility.yul\":621:684   */\n  tag_25\n  jumpi\n    /* \"#utility.yul\":680:681   */\n  0x00\n    /* \"#utility.yul\":677:678   */\n  dup1\n    /* \"#utility.yul\":670:682   */\n  revert\n    /* \"#utility.yul\":621:684   */\ntag_25:\n    /* \"#utility.yul\":568:690   */\n  pop\n  jump\t// out\n    /* \"#utility.yul\":696:839   */\ntag_15:\n    /* \"#utility.yul\":753:758   */\n  0x00\n    /* \"#utility.yul\":784:790   */\n  dup2\n    /* \"#utility.yul\":778:791   */\n  mload\n    /* \"#utility.yul\":769:791   */\n  swap1\n  pop\n    /* \"#utility.yul\":800:833   */\n  tag_27\n    /* \"#utility.yul\":827:832   */\n  dup2\n    /* \"#utility.yul\":800:833   */\n  tag_14\n  jump\t// in\ntag_27:\n    /* \"#utility.yul\":696:839   */\n  swap3\n  swap2\n  pop\n  pop\n  jump\t// out\n    /* \"#utility.yul\":845:1196   */\ntag_3:\n    /* \"#utility.yul\":915:921   */\n  0x00\n    /* \"#utility.yul\":964:966   */\n  0x20\n    /* \"#utility.yul\":952:961   */\n  dup3\n    /* \"#utility.yul\":943:950   */\n  dup5\n    /* \"#utility.yul\":939:962   */\n  sub\n    /* \"#utility.yul\":935:967   */\n  slt\n    /* \"#utility.yul\":932:1051   */\n  iszero\n  tag_29\n  jumpi\n    /* \"#utility.yul\":970:1049   */\n  tag_30\n  tag_10\n  jump\t// in\ntag_30:\n    /* \"#utility.yul\":932:1051   */\ntag_29:\n    /* \"#utility.yul\":1090:1091   */\n  0x00\n    /* \"#utility.yul\":1115:1179   */\n  tag_31\n    /* \"#utility.yul\":1171:1178   */\n  dup5\n    /* \"#utility.yul\":1162:1168   */\n  dup3\n    /* \"#utility.yul\":1151:1160   */\n  dup6\n    /* \"#utility.yul\":1147:1169   */\n  add\n    /* \"#utility.yul\":1115:1179   */\n  tag_15\n  jump\t// in\ntag_31:\n    /* \"#utility.yul\":1105:1179   */\n  swap2\n  pop\n    /* \"#utility.yul\":1061:1189   */\n  pop\n    /* \"#utility.yul\":845:1196   */\n  swap3\n  swap2\n  pop\n  pop\n  jump\t// out\n    /* \"BCMMarket2.sol\":238:7487  contract NFTMarketplaceWithERC20 is ReentrancyGuard {... */\ntag_8:\n  dataSize(sub_0)\n  dup1\n  dataOffset(sub_0)\n  0x00\n  codecopy\n  0x00\n  return\nstop\n\nsub_0: assembly {\n        /* \"BCMMarket2.sol\":238:7487  contract NFTMarketplaceWithERC20 is ReentrancyGuard {... */\n      mstore(0x40, 0x80)\n      callvalue\n      dup1\n      iszero\n      tag_1\n      jumpi\n      0x00\n      dup1\n      revert\n    tag_1:\n      pop\n      jumpi(tag_2, lt(calldatasize, 0x04))\n      shr(0xe0, calldataload(0x00))\n      dup1\n      0x496b3d10\n      gt\n      tag_15\n      jumpi\n      dup1\n      0x496b3d10\n      eq\n      tag_9\n      jumpi\n      dup1\n      0x9c3e202d\n      eq\n      tag_10\n      jumpi\n      dup1\n      0xa82ba76f\n      eq\n      tag_11\n      jumpi\n      dup1\n      0xb2942b73\n      eq\n      tag_12\n      jumpi\n      dup1\n      0xb2ddee06\n      eq\n      tag_13\n      jumpi\n      dup1\n      0xc02b84a1\n      eq\n      tag_14\n      jumpi\n      jump(tag_2)\n    tag_15:\n      dup1\n      0x07df30\n      eq\n      tag_3\n      jumpi\n      dup1\n      0x083fd5a9\n      eq\n      tag_4\n      jumpi\n      dup1\n      0x2e49e852\n      eq\n      tag_5\n      jumpi\n      dup1\n      0x3013ce29\n      eq\n      tag_6\n      jumpi\n      dup1\n      0x39edfd4e\n      eq\n      tag_7\n      jumpi\n      dup1\n      0x449918e0\n      eq\n      tag_8\n      jumpi\n    tag_2:\n      0x00\n      dup1\n      revert\n        /* \"BCMMarket2.sol\":329:392  mapping(address => mapping(uint256 => address)) public listings */\n    tag_3:\n      tag_16\n      0x04\n      dup1\n      calldatasize\n      sub\n      dup2\n      add\n      swap1\n      tag_17\n      swap2\n      swap1\n      tag_18\n      jump\t// in\n    tag_17:\n      tag_19\n      jump\t// in\n    tag_16:\n      mload(0x40)\n      tag_20\n      swap2\n      swap1\n      tag_21\n      jump\t// in\n    tag_20:\n      mload(0x40)\n      dup1\n      swap2\n      sub\n      swap1\n      return\n        /* \"BCMMarket2.sol\":4480:6047  function buyUpTo(address nftContract, uint256[] calldata tokenIds, uint256 maxTotal) external returns (uint256[] memory purchased) {... */\n    tag_4:\n      tag_22\n      0x04\n      dup1\n      calldatasize\n      sub\n      dup2\n      add\n      swap1\n      tag_23\n      swap2\n      swap1\n      tag_24\n      jump\t// in\n    tag_23:\n      tag_25\n      jump\t// in\n    tag_22:\n      mload(0x40)\n      tag_26\n      swap2\n      swap1\n      tag_27\n      jump\t// in\n    tag_26:\n      mload(0x40)\n      dup1\n      swap2\n      sub\n      swap1\n      return\n        /* \"BCMMarket2.sol\":2168:2655  function listMany(address nftContract, uint256[] calldata tokenIds, uint16 group) external returns (uint256[] memory listed) {... */\n    tag_5:\n      tag_28\n      0x04\n      dup1\n      calldatasize\n      sub\n      dup2\n      add\n      swap1\n      tag_29\n      swap2\n      swap1\n      tag_30\n      jump\t// in\n    tag_29:\n      tag_31\n      jump\t// in\n    tag_28:\n      mload(0x40)\n      tag_32\n      swap2\n      swap1\n      tag_27\n      jump\t// in\n    tag_32:\n      mload(0x40)\n      dup1\n      swap2\n      sub\n      swap1\n      return\n        /* \"BCMMarket2.sol\":296:322  IERC20 public paymentToken */\n    tag_6:\n      tag_33\n      tag_34\n      jump\t// in\n    tag_33:\n      mload(0x40)\n      tag_35\n      swap2\n      swap1\n      tag_36\n      jump\t// in\n    tag_35:\n      mload(0x40)\n      dup1\n      swap2\n      sub\n      swap1\n      return\n        /* \"BCMMarket2.sol\":454:523  mapping(uint16 => mapping(address => uint256[])) public groupTokenIds */\n    tag_7:\n      tag_37\n      0x04\n      dup1\n      calldatasize\n      sub\n      dup2\n      add\n      swap1\n      tag_38\n      swap2\n      swap1\n      tag_39\n      jump\t// in\n    tag_38:\n      tag_40\n      jump\t// in\n    tag_37:\n      mload(0x40)\n      tag_41\n      swap2\n      swap1\n      tag_42\n      jump\t// in\n    tag_41:\n      mload(0x40)\n      dup1\n      swap2\n      sub\n      swap1\n      return\n        /* \"BCMMarket2.sol\":3998:4474  function buyMany(address nftContract, uint256[] calldata tokenIds) external returns (uint256[] memory purchased) {... */\n    tag_8:\n      tag_43\n      0x04\n      dup1\n      calldatasize\n      sub\n      dup2\n      add\n      swap1\n      tag_44\n      swap2\n      swap1\n      tag_45\n      jump\t// in\n    tag_44:\n      tag_46\n      jump\t// in\n    tag_43:\n      mload(0x40)\n      tag_47\n      swap2\n      swap1\n      tag_27\n      jump\t// in\n    tag_47:\n      mload(0x40)\n      dup1\n      swap2\n      sub\n      swap1\n      return\n        /* \"BCMMarket2.sol\":398:448  mapping(uint16 => address[]) public groupContracts */\n    tag_9:\n      tag_48\n      0x04\n      dup1\n      calldatasize\n      sub\n      dup2\n      add\n      swap1\n      tag_49\n      swap2\n      swap1\n      tag_50\n      jump\t// in\n    tag_49:\n      tag_51\n      jump\t// in\n    tag_48:\n      mload(0x40)\n      tag_52\n      swap2\n      swap1\n      tag_21\n      jump\t// in\n    tag_52:\n      mload(0x40)\n      dup1\n      swap2\n      sub\n      swap1\n      return\n        /* \"BCMMarket2.sol\":1369:2162  function listNFT(address nftContract, uint256 tokenId, uint16 group)... */\n    tag_10:\n      tag_53\n      0x04\n      dup1\n      calldatasize\n      sub\n      dup2\n      add\n      swap1\n      tag_54\n      swap2\n      swap1\n      tag_55\n      jump\t// in\n    tag_54:\n      tag_56\n      jump\t// in\n    tag_53:\n      mload(0x40)\n      tag_57\n      swap2\n      swap1\n      tag_58\n      jump\t// in\n    tag_57:\n      mload(0x40)\n      dup1\n      swap2\n      sub\n      swap1\n      return\n        /* \"BCMMarket2.sol\":3115:3992  function buyNFT(address nftContract, uint256 tokenId) public nonReentrant returns (bool success) {... */\n    tag_11:\n      tag_59\n      0x04\n      dup1\n      calldatasize\n      sub\n      dup2\n      add\n      swap1\n      tag_60\n      swap2\n      swap1\n      tag_18\n      jump\t// in\n    tag_60:\n      tag_61\n      jump\t// in\n    tag_59:\n      mload(0x40)\n      tag_62\n      swap2\n      swap1\n      tag_58\n      jump\t// in\n    tag_62:\n      mload(0x40)\n      dup1\n      swap2\n      sub\n      swap1\n      return\n        /* \"BCMMarket2.sol\":6053:6578  function listUpTo(address nftContract, uint256[] calldata tokenIds, uint16 group, uint256 maxCount) external returns (uint256[] memory listed) {... */\n    tag_12:\n      tag_63\n      0x04\n      dup1\n      calldatasize\n      sub\n      dup2\n      add\n      swap1\n      tag_64\n      swap2\n      swap1\n      tag_65\n      jump\t// in\n    tag_64:\n      tag_66\n      jump\t// in\n    tag_63:\n      mload(0x40)\n      tag_67\n      swap2\n      swap1\n      tag_27\n      jump\t// in\n    tag_67:\n      mload(0x40)\n      dup1\n      swap2\n      sub\n      swap1\n      return\n        /* \"BCMMarket2.sol\":2661:3109  function cancelListing(address nftContract, uint256 tokenId)... */\n    tag_13:\n      tag_68\n      0x04\n      dup1\n      calldatasize\n      sub\n      dup2\n      add\n      swap1\n      tag_69\n      swap2\n      swap1\n      tag_18\n      jump\t// in\n    tag_69:\n      tag_70\n      jump\t// in\n    tag_68:\n      stop\n        /* \"BCMMarket2.sol\":6584:6740  function getGroupPrice(uint16 group) public pure returns (uint256) {... */\n    tag_14:\n      tag_71\n      0x04\n      dup1\n      calldatasize\n      sub\n      dup2\n      add\n      swap1\n      tag_72\n      swap2\n      swap1\n      tag_73\n      jump\t// in\n    tag_72:\n      tag_74\n      jump\t// in\n    tag_71:\n      mload(0x40)\n      tag_75\n      swap2\n      swap1\n      tag_42\n      jump\t// in\n    tag_75:\n      mload(0x40)\n      dup1\n      swap2\n      sub\n      swap1\n      return\n        /* \"BCMMarket2.sol\":329:392  mapping(address => mapping(uint256 => address)) public listings */\n    tag_19:\n      mstore(0x20, 0x02)\n      dup2\n      0x00\n      mstore\n      mstore(0x20, keccak256(0x00, 0x40))\n      dup1\n      0x00\n      mstore\n      keccak256(0x00, 0x40)\n      0x00\n      swap2\n      pop\n      swap2\n      pop\n      swap1\n      sload\n      swap1\n      0x0100\n      exp\n      swap1\n      div\n      0xffffffffffffffffffffffffffffffffffffffff\n      and\n      dup2\n      jump\t// out\n        /* \"BCMMarket2.sol\":4480:6047  function buyUpTo(address nftContract, uint256[] calldata tokenIds, uint256 maxTotal) external returns (uint256[] memory purchased) {... */\n    tag_25:\n        /* \"BCMMarket2.sol\":4583:4609  uint256[] memory purchased */\n      0x60\n        /* \"BCMMarket2.sol\":4647:4655  tokenIds */\n      dup4\n      dup4\n        /* \"BCMMarket2.sol\":4647:4662  tokenIds.length */\n      swap1\n      pop\n        /* \"BCMMarket2.sol\":4633:4663  new uint256[](tokenIds.length) */\n      0xffffffffffffffff\n      dup2\n      gt\n      iszero\n      tag_77\n      jumpi\n      tag_78\n      tag_79\n      jump\t// in\n    tag_78:\n    tag_77:\n      mload(0x40)\n      swap1\n      dup1\n      dup3\n      mstore\n      dup1\n      0x20\n      mul\n      0x20\n      add\n      dup3\n      add\n      0x40\n      mstore\n      dup1\n      iszero\n      tag_80\n      jumpi\n      dup2\n      0x20\n      add\n      0x20\n      dup3\n      mul\n      dup1\n      calldatasize\n      dup4\n      calldatacopy\n      dup1\n      dup3\n      add\n      swap2\n      pop\n      pop\n      swap1\n      pop\n    tag_80:\n      pop\n        /* \"BCMMarket2.sol\":4621:4663  purchased = new uint256[](tokenIds.length) */\n      swap1\n      pop\n        /* \"BCMMarket2.sol\":4673:4686  uint256 count */\n      0x00\n        /* \"BCMMarket2.sol\":4700:4718  uint256 totalSpent */\n      dup1\n        /* \"BCMMarket2.sol\":4738:4747  uint256 i */\n      0x00\n        /* \"BCMMarket2.sol\":4733:5995  for (uint256 i = 0; i < tokenIds.length; i++) {... */\n    tag_81:\n        /* \"BCMMarket2.sol\":4757:4765  tokenIds */\n      dup7\n      dup7\n        /* \"BCMMarket2.sol\":4757:4772  tokenIds.length */\n      swap1\n      pop\n        /* \"BCMMarket2.sol\":4753:4754  i */\n      dup2\n        /* \"BCMMarket2.sol\":4753:4772  i < tokenIds.length */\n      lt\n        /* \"BCMMarket2.sol\":4733:5995  for (uint256 i = 0; i < tokenIds.length; i++) {... */\n      iszero\n      tag_82\n      jumpi\n        /* \"BCMMarket2.sol\":4843:4844  0 */\n      0x00\n        /* \"BCMMarket2.sol\":4797:4845  listings[nftContract][tokenIds[i]] != address(0) */\n      0xffffffffffffffffffffffffffffffffffffffff\n      and\n        /* \"BCMMarket2.sol\":4797:4805  listings */\n      0x02\n        /* \"BCMMarket2.sol\":4797:4818  listings[nftContract] */\n      0x00\n        /* \"BCMMarket2.sol\":4806:4817  nftContract */\n      dup11\n        /* \"BCMMarket2.sol\":4797:4818  listings[nftContract] */\n      0xffffffffffffffffffffffffffffffffffffffff\n      and\n      0xffffffffffffffffffffffffffffffffffffffff\n      and\n      dup2\n      mstore\n      0x20\n      add\n      swap1\n      dup2\n      mstore\n      0x20\n      add\n      0x00\n      keccak256\n        /* \"BCMMarket2.sol\":4797:4831  listings[nftContract][tokenIds[i]] */\n      0x00\n        /* \"BCMMarket2.sol\":4819:4827  tokenIds */\n      dup10\n      dup10\n        /* \"BCMMarket2.sol\":4828:4829  i */\n      dup6\n        /* \"BCMMarket2.sol\":4819:4830  tokenIds[i] */\n      dup2\n      dup2\n      lt\n      tag_84\n      jumpi\n      tag_85\n      tag_86\n      jump\t// in\n    tag_85:\n    tag_84:\n      swap1\n      pop\n      0x20\n      mul\n      add\n      calldataload\n        /* \"BCMMarket2.sol\":4797:4831  listings[nftContract][tokenIds[i]] */\n      dup2\n      mstore\n      0x20\n      add\n      swap1\n      dup2\n      mstore\n      0x20\n      add\n      0x00\n      keccak256\n      0x00\n      swap1\n      sload\n      swap1\n      0x0100\n      exp\n      swap1\n      div\n      0xffffffffffffffffffffffffffffffffffffffff\n      and\n        /* \"BCMMarket2.sol\":4797:4845  listings[nftContract][tokenIds[i]] != address(0) */\n      0xffffffffffffffffffffffffffffffffffffffff\n      and\n      eq\n        /* \"BCMMarket2.sol\":4793:5985  if (listings[nftContract][tokenIds[i]] != address(0)) {... */\n      tag_87\n      jumpi\n        /* \"BCMMarket2.sol\":4865:4877  uint16 group */\n      0x00\n        /* \"BCMMarket2.sol\":4880:4914  getGroup(nftContract, tokenIds[i]) */\n      tag_88\n        /* \"BCMMarket2.sol\":4889:4900  nftContract */\n      dup10\n        /* \"BCMMarket2.sol\":4902:4910  tokenIds */\n      dup10\n      dup10\n        /* \"BCMMarket2.sol\":4911:4912  i */\n      dup6\n        /* \"BCMMarket2.sol\":4902:4913  tokenIds[i] */\n      dup2\n      dup2\n      lt\n      tag_89\n      jumpi\n      tag_90\n      tag_86\n      jump\t// in\n    tag_90:\n    tag_89:\n      swap1\n      pop\n      0x20\n      mul\n      add\n      calldataload\n        /* \"BCMMarket2.sol\":4880:4888  getGroup */\n      tag_91\n        /* \"BCMMarket2.sol\":4880:4914  getGroup(nftContract, tokenIds[i]) */\n      jump\t// in\n    tag_88:\n        /* \"BCMMarket2.sol\":4865:4914  uint16 group = getGroup(nftContract, tokenIds[i]) */\n      swap1\n      pop\n        /* \"BCMMarket2.sol\":4932:4945  uint256 price */\n      0x00\n        /* \"BCMMarket2.sol\":4948:4968  getGroupPrice(group) */\n      tag_92\n        /* \"BCMMarket2.sol\":4962:4967  group */\n      dup3\n        /* \"BCMMarket2.sol\":4948:4961  getGroupPrice */\n      tag_74\n        /* \"BCMMarket2.sol\":4948:4968  getGroupPrice(group) */\n      jump\t// in\n    tag_92:\n        /* \"BCMMarket2.sol\":4932:4968  uint256 price = getGroupPrice(group) */\n      swap1\n      pop\n        /* \"BCMMarket2.sol\":5012:5020  maxTotal */\n      dup7\n        /* \"BCMMarket2.sol\":5004:5009  price */\n      dup2\n        /* \"BCMMarket2.sol\":4991:5001  totalSpent */\n      dup6\n        /* \"BCMMarket2.sol\":4991:5009  totalSpent + price */\n      tag_93\n      swap2\n      swap1\n      tag_94\n      jump\t// in\n    tag_93:\n        /* \"BCMMarket2.sol\":4991:5020  totalSpent + price > maxTotal */\n      gt\n        /* \"BCMMarket2.sol\":4987:5157  if (totalSpent + price > maxTotal) {... */\n      iszero\n      tag_95\n      jumpi\n        /* \"BCMMarket2.sol\":5077:5085  tokenIds */\n      dup9\n      dup9\n        /* \"BCMMarket2.sol\":5086:5087  i */\n      dup5\n        /* \"BCMMarket2.sol\":5077:5088  tokenIds[i] */\n      dup2\n      dup2\n      lt\n      tag_96\n      jumpi\n      tag_97\n      tag_86\n      jump\t// in\n    tag_97:\n    tag_96:\n      swap1\n      pop\n      0x20\n      mul\n      add\n      calldataload\n        /* \"BCMMarket2.sol\":5064:5075  nftContract */\n      dup11\n        /* \"BCMMarket2.sol\":5049:5108  PurchaseFailed(nftContract, tokenIds[i], \"Budget exceeded\") */\n      0xffffffffffffffffffffffffffffffffffffffff\n      and\n      0x8a8719b9514356483d3fc6f38c0ada5a06a46d633339046c40ee527d7bda0de4\n      mload(0x40)\n      tag_98\n      swap1\n      tag_99\n      jump\t// in\n    tag_98:\n      mload(0x40)\n      dup1\n      swap2\n      sub\n      swap1\n      log3\n        /* \"BCMMarket2.sol\":5130:5138  continue */\n      pop\n      pop\n      jump(tag_83)\n        /* \"BCMMarket2.sol\":4987:5157  if (totalSpent + price > maxTotal) {... */\n    tag_95:\n        /* \"BCMMarket2.sol\":5179:5191  paymentToken */\n      0x01\n      0x00\n      swap1\n      sload\n      swap1\n      0x0100\n      exp\n      swap1\n      div\n      0xffffffffffffffffffffffffffffffffffffffff\n      and\n        /* \"BCMMarket2.sol\":5179:5204  paymentToken.transferFrom */\n      0xffffffffffffffffffffffffffffffffffffffff\n      and\n      0x23b872dd\n        /* \"BCMMarket2.sol\":5205:5215  msg.sender */\n      caller\n        /* \"BCMMarket2.sol\":5217:5225  listings */\n      0x02\n        /* \"BCMMarket2.sol\":5217:5238  listings[nftContract] */\n      0x00\n        /* \"BCMMarket2.sol\":5226:5237  nftContract */\n      dup15\n        /* \"BCMMarket2.sol\":5217:5238  listings[nftContract] */\n      0xffffffffffffffffffffffffffffffffffffffff\n      and\n      0xffffffffffffffffffffffffffffffffffffffff\n      and\n      dup2\n      mstore\n      0x20\n      add\n      swap1\n      dup2\n      mstore\n      0x20\n      add\n      0x00\n      keccak256\n        /* \"BCMMarket2.sol\":5217:5251  listings[nftContract][tokenIds[i]] */\n      0x00\n        /* \"BCMMarket2.sol\":5239:5247  tokenIds */\n      dup14\n      dup14\n        /* \"BCMMarket2.sol\":5248:5249  i */\n      dup10\n        /* \"BCMMarket2.sol\":5239:5250  tokenIds[i] */\n      dup2\n      dup2\n      lt\n      tag_100\n      jumpi\n      tag_101\n      tag_86\n      jump\t// in\n    tag_101:\n    tag_100:\n      swap1\n      pop\n      0x20\n      mul\n      add\n      calldataload\n        /* \"BCMMarket2.sol\":5217:5251  listings[nftContract][tokenIds[i]] */\n      dup2\n      mstore\n      0x20\n      add\n      swap1\n      dup2\n      mstore\n      0x20\n      add\n      0x00\n      keccak256\n      0x00\n      swap1\n      sload\n      swap1\n      0x0100\n      exp\n      swap1\n      div\n      0xffffffffffffffffffffffffffffffffffffffff\n      and\n        /* \"BCMMarket2.sol\":5253:5258  price */\n      dup5\n        /* \"BCMMarket2.sol\":5179:5259  paymentToken.transferFrom(msg.sender, listings[nftContract][tokenIds[i]], price) */\n      mload(0x40)\n      dup5\n      0xffffffff\n      and\n      0xe0\n      shl\n      dup2\n      mstore\n      0x04\n      add\n      tag_102\n      swap4\n      swap3\n      swap2\n      swap1\n      tag_103\n      jump\t// in\n    tag_102:\n      0x20\n      mload(0x40)\n      dup1\n      dup4\n      sub\n      dup2\n      0x00\n      dup8\n      gas\n      call\n      iszero\n      dup1\n      iszero\n      tag_105\n      jumpi\n      returndatasize\n      0x00\n      dup1\n      returndatacopy\n      revert(0x00, returndatasize)\n    tag_105:\n      pop\n      pop\n      pop\n      pop\n      mload(0x40)\n      returndatasize\n      not(0x1f)\n      0x1f\n      dup3\n      add\n      and\n      dup3\n      add\n      dup1\n      0x40\n      mstore\n      pop\n      dup2\n      add\n      swap1\n      tag_106\n      swap2\n      swap1\n      tag_107\n      jump\t// in\n    tag_106:\n        /* \"BCMMarket2.sol\":5174:5395  if (!paymentToken.transferFrom(msg.sender, listings[nftContract][tokenIds[i]], price)) {... */\n      tag_108\n      jumpi\n        /* \"BCMMarket2.sol\":5316:5324  tokenIds */\n      dup9\n      dup9\n        /* \"BCMMarket2.sol\":5325:5326  i */\n      dup5\n        /* \"BCMMarket2.sol\":5316:5327  tokenIds[i] */\n      dup2\n      dup2\n      lt\n      tag_109\n      jumpi\n      tag_110\n      tag_86\n      jump\t// in\n    tag_110:\n    tag_109:\n      swap1\n      pop\n      0x20\n      mul\n      add\n      calldataload\n        /* \"BCMMarket2.sol\":5303:5314  nftContract */\n      dup11\n        /* \"BCMMarket2.sol\":5288:5346  PurchaseFailed(nftContract, tokenIds[i], \"Payment failed\") */\n      0xffffffffffffffffffffffffffffffffffffffff\n      and\n      0x8a8719b9514356483d3fc6f38c0ada5a06a46d633339046c40ee527d7bda0de4\n      mload(0x40)\n      tag_111\n      swap1\n      tag_112\n      jump\t// in\n    tag_111:\n      mload(0x40)\n      dup1\n      swap2\n      sub\n      swap1\n      log3\n        /* \"BCMMarket2.sol\":5368:5376  continue */\n      pop\n      pop\n      jump(tag_83)\n        /* \"BCMMarket2.sol\":5174:5395  if (!paymentToken.transferFrom(msg.sender, listings[nftContract][tokenIds[i]], price)) {... */\n    tag_108:\n        /* \"BCMMarket2.sol\":5413:5427  address seller */\n      0x00\n        /* \"BCMMarket2.sol\":5430:5438  listings */\n      0x02\n        /* \"BCMMarket2.sol\":5430:5451  listings[nftContract] */\n      0x00\n        /* \"BCMMarket2.sol\":5439:5450  nftContract */\n      dup13\n        /* \"BCMMarket2.sol\":5430:5451  listings[nftContract] */\n      0xffffffffffffffffffffffffffffffffffffffff\n      and\n      0xffffffffffffffffffffffffffffffffffffffff\n      and\n      dup2\n      mstore\n      0x20\n      add\n      swap1\n      dup2\n      mstore\n      0x20\n      add\n      0x00\n      keccak256\n        /* \"BCMMarket2.sol\":5430:5464  listings[nftContract][tokenIds[i]] */\n      0x00\n        /* \"BCMMarket2.sol\":5452:5460  tokenIds */\n      dup12\n      dup12\n        /* \"BCMMarket2.sol\":5461:5462  i */\n      dup8\n        /* \"BCMMarket2.sol\":5452:5463  tokenIds[i] */\n      dup2\n      dup2\n      lt\n      tag_113\n      jumpi\n      tag_114\n      tag_86\n      jump\t// in\n    tag_114:\n    tag_113:\n      swap1\n      pop\n      0x20\n      mul\n      add\n      calldataload\n        /* \"BCMMarket2.sol\":5430:5464  listings[nftContract][tokenIds[i]] */\n      dup2\n      mstore\n      0x20\n      add\n      swap1\n      dup2\n      mstore\n      0x20\n      add\n      0x00\n      keccak256\n      0x00\n      swap1\n      sload\n      swap1\n      0x0100\n      exp\n      swap1\n      div\n      0xffffffffffffffffffffffffffffffffffffffff\n      and\n        /* \"BCMMarket2.sol\":5413:5464  address seller = listings[nftContract][tokenIds[i]] */\n      swap1\n      pop\n        /* \"BCMMarket2.sol\":5489:5497  listings */\n      0x02\n        /* \"BCMMarket2.sol\":5489:5510  listings[nftContract] */\n      0x00\n        /* \"BCMMarket2.sol\":5498:5509  nftContract */\n      dup13\n        /* \"BCMMarket2.sol\":5489:5510  listings[nftContract] */\n      0xffffffffffffffffffffffffffffffffffffffff\n      and\n      0xffffffffffffffffffffffffffffffffffffffff\n      and\n      dup2\n      mstore\n      0x20\n      add\n      swap1\n      dup2\n      mstore\n      0x20\n      add\n      0x00\n      keccak256\n        /* \"BCMMarket2.sol\":5489:5523  listings[nftContract][tokenIds[i]] */\n      0x00\n        /* \"BCMMarket2.sol\":5511:5519  tokenIds */\n      dup12\n      dup12\n        /* \"BCMMarket2.sol\":5520:5521  i */\n      dup8\n        /* \"BCMMarket2.sol\":5511:5522  tokenIds[i] */\n      dup2\n      dup2\n      lt\n      tag_115\n      jumpi\n      tag_116\n      tag_86\n      jump\t// in\n    tag_116:\n    tag_115:\n      swap1\n      pop\n      0x20\n      mul\n      add\n      calldataload\n        /* \"BCMMarket2.sol\":5489:5523  listings[nftContract][tokenIds[i]] */\n      dup2\n      mstore\n      0x20\n      add\n      swap1\n      dup2\n      mstore\n      0x20\n      add\n      0x00\n      keccak256\n      0x00\n        /* \"BCMMarket2.sol\":5482:5523  delete listings[nftContract][tokenIds[i]] */\n      0x0100\n      exp\n      dup2\n      sload\n      swap1\n      0xffffffffffffffffffffffffffffffffffffffff\n      mul\n      not\n      and\n      swap1\n      sstore\n        /* \"BCMMarket2.sol\":5541:5597  _removeTokenIdFromGroup(group, nftContract, tokenIds[i]) */\n      tag_117\n        /* \"BCMMarket2.sol\":5565:5570  group */\n      dup4\n        /* \"BCMMarket2.sol\":5572:5583  nftContract */\n      dup13\n        /* \"BCMMarket2.sol\":5585:5593  tokenIds */\n      dup13\n      dup13\n        /* \"BCMMarket2.sol\":5594:5595  i */\n      dup9\n        /* \"BCMMarket2.sol\":5585:5596  tokenIds[i] */\n      dup2\n      dup2\n      lt\n      tag_118\n      jumpi\n      tag_119\n      tag_86\n      jump\t// in\n    tag_119:\n    tag_118:\n      swap1\n      pop\n      0x20\n      mul\n      add\n      calldataload\n        /* \"BCMMarket2.sol\":5541:5564  _removeTokenIdFromGroup */\n      tag_120\n        /* \"BCMMarket2.sol\":5541:5597  _removeTokenIdFromGroup(group, nftContract, tokenIds[i]) */\n      jump\t// in\n    tag_117:\n        /* \"BCMMarket2.sol\":5624:5635  nftContract */\n      dup11\n        /* \"BCMMarket2.sol\":5616:5653  IERC721(nftContract).safeTransferFrom */\n      0xffffffffffffffffffffffffffffffffffffffff\n      and\n      0x42842e0e\n        /* \"BCMMarket2.sol\":5654:5660  seller */\n      dup3\n        /* \"BCMMarket2.sol\":5662:5672  msg.sender */\n      caller\n        /* \"BCMMarket2.sol\":5674:5682  tokenIds */\n      dup14\n      dup14\n        /* \"BCMMarket2.sol\":5683:5684  i */\n      dup10\n        /* \"BCMMarket2.sol\":5674:5685  tokenIds[i] */\n      dup2\n      dup2\n      lt\n      tag_121\n      jumpi\n      tag_122\n      tag_86\n      jump\t// in\n    tag_122:\n    tag_121:\n      swap1\n      pop\n      0x20\n      mul\n      add\n      calldataload\n        /* \"BCMMarket2.sol\":5616:5686  IERC721(nftContract).safeTransferFrom(seller, msg.sender, tokenIds[i]) */\n      mload(0x40)\n      dup5\n      0xffffffff\n      and\n      0xe0\n      shl\n      dup2\n      mstore\n      0x04\n      add\n      tag_123\n      swap4\n      swap3\n      swap2\n      swap1\n      tag_103\n      jump\t// in\n    tag_123:\n      0x00\n      mload(0x40)\n      dup1\n      dup4\n      sub\n      dup2\n      0x00\n      dup8\n      dup1\n      extcodesize\n      iszero\n      dup1\n      iszero\n      tag_124\n      jumpi\n      0x00\n      dup1\n      revert\n    tag_124:\n      pop\n      gas\n      call\n      iszero\n      dup1\n      iszero\n      tag_126\n      jumpi\n      returndatasize\n      0x00\n      dup1\n      returndatacopy\n      revert(0x00, returndatasize)\n    tag_126:\n      pop\n      pop\n      pop\n      pop\n        /* \"BCMMarket2.sol\":5750:5760  msg.sender */\n      caller\n        /* \"BCMMarket2.sol\":5709:5761  NFTSold(nftContract, tokenIds[i], price, msg.sender) */\n      0xffffffffffffffffffffffffffffffffffffffff\n      and\n        /* \"BCMMarket2.sol\":5730:5738  tokenIds */\n      dup11\n      dup11\n        /* \"BCMMarket2.sol\":5739:5740  i */\n      dup7\n        /* \"BCMMarket2.sol\":5730:5741  tokenIds[i] */\n      dup2\n      dup2\n      lt\n      tag_127\n      jumpi\n      tag_128\n      tag_86\n      jump\t// in\n    tag_128:\n    tag_127:\n      swap1\n      pop\n      0x20\n      mul\n      add\n      calldataload\n        /* \"BCMMarket2.sol\":5717:5728  nftContract */\n      dup13\n        /* \"BCMMarket2.sol\":5709:5761  NFTSold(nftContract, tokenIds[i], price, msg.sender) */\n      0xffffffffffffffffffffffffffffffffffffffff\n      and\n      0x77c3ced349b08a2af4e9d443fb697437c3197b3095d43fcbdc2cdc97b1a60e0c\n        /* \"BCMMarket2.sol\":5743:5748  price */\n      dup6\n        /* \"BCMMarket2.sol\":5709:5761  NFTSold(nftContract, tokenIds[i], price, msg.sender) */\n      mload(0x40)\n      tag_129\n      swap2\n      swap1\n      tag_42\n      jump\t// in\n    tag_129:\n      mload(0x40)\n      dup1\n      swap2\n      sub\n      swap1\n      log4\n        /* \"BCMMarket2.sol\":5799:5807  tokenIds */\n      dup10\n      dup10\n        /* \"BCMMarket2.sol\":5808:5809  i */\n      dup6\n        /* \"BCMMarket2.sol\":5799:5810  tokenIds[i] */\n      dup2\n      dup2\n      lt\n      tag_130\n      jumpi\n      tag_131\n      tag_86\n      jump\t// in\n    tag_131:\n    tag_130:\n      swap1\n      pop\n      0x20\n      mul\n      add\n      calldataload\n        /* \"BCMMarket2.sol\":5780:5789  purchased */\n      dup8\n        /* \"BCMMarket2.sol\":5790:5795  count */\n      dup8\n        /* \"BCMMarket2.sol\":5780:5796  purchased[count] */\n      dup2\n      mload\n      dup2\n      lt\n      tag_132\n      jumpi\n      tag_133\n      tag_86\n      jump\t// in\n    tag_133:\n    tag_132:\n      0x20\n      mul\n      0x20\n      add\n      add\n        /* \"BCMMarket2.sol\":5780:5810  purchased[count] = tokenIds[i] */\n      dup2\n      dup2\n      mstore\n      pop\n      pop\n        /* \"BCMMarket2.sol\":5828:5835  count++ */\n      dup6\n      dup1\n      tag_134\n      swap1\n      tag_135\n      jump\t// in\n    tag_134:\n      swap7\n      pop\n      pop\n        /* \"BCMMarket2.sol\":5867:5872  price */\n      dup2\n        /* \"BCMMarket2.sol\":5853:5872  totalSpent += price */\n      dup6\n      tag_136\n      swap2\n      swap1\n      tag_94\n      jump\t// in\n    tag_136:\n      swap5\n      pop\n        /* \"BCMMarket2.sol\":4847:5887  {... */\n      pop\n      pop\n      pop\n        /* \"BCMMarket2.sol\":4793:5985  if (listings[nftContract][tokenIds[i]] != address(0)) {... */\n      jump(tag_137)\n    tag_87:\n        /* \"BCMMarket2.sol\":5944:5952  tokenIds */\n      dup7\n      dup7\n        /* \"BCMMarket2.sol\":5953:5954  i */\n      dup3\n        /* \"BCMMarket2.sol\":5944:5955  tokenIds[i] */\n      dup2\n      dup2\n      lt\n      tag_138\n      jumpi\n      tag_139\n      tag_86\n      jump\t// in\n    tag_139:\n    tag_138:\n      swap1\n      pop\n      0x20\n      mul\n      add\n      calldataload\n        /* \"BCMMarket2.sol\":5931:5942  nftContract */\n      dup9\n        /* \"BCMMarket2.sol\":5916:5970  PurchaseFailed(nftContract, tokenIds[i], \"Not listed\") */\n      0xffffffffffffffffffffffffffffffffffffffff\n      and\n      0x8a8719b9514356483d3fc6f38c0ada5a06a46d633339046c40ee527d7bda0de4\n      mload(0x40)\n      tag_140\n      swap1\n      tag_141\n      jump\t// in\n    tag_140:\n      mload(0x40)\n      dup1\n      swap2\n      sub\n      swap1\n      log3\n        /* \"BCMMarket2.sol\":4793:5985  if (listings[nftContract][tokenIds[i]] != address(0)) {... */\n    tag_137:\n        /* \"BCMMarket2.sol\":4733:5995  for (uint256 i = 0; i < tokenIds.length; i++) {... */\n    tag_83:\n        /* \"BCMMarket2.sol\":4774:4777  i++ */\n      dup1\n      dup1\n      0x01\n      add\n      swap2\n      pop\n      pop\n        /* \"BCMMarket2.sol\":4733:5995  for (uint256 i = 0; i < tokenIds.length; i++) {... */\n      jump(tag_81)\n    tag_82:\n      pop\n        /* \"BCMMarket2.sol\":6033:6038  count */\n      dup2\n        /* \"BCMMarket2.sol\":6022:6031  purchased */\n      dup4\n        /* \"BCMMarket2.sol\":6015:6039  mstore(purchased, count) */\n      mstore\n        /* \"BCMMarket2.sol\":6013:6041  { mstore(purchased, count) } */\n      pop\n      pop\n        /* \"BCMMarket2.sol\":4480:6047  function buyUpTo(address nftContract, uint256[] calldata tokenIds, uint256 maxTotal) external returns (uint256[] memory purchased) {... */\n      swap5\n      swap4\n      pop\n      pop\n      pop\n      pop\n      jump\t// out\n        /* \"BCMMarket2.sol\":2168:2655  function listMany(address nftContract, uint256[] calldata tokenIds, uint16 group) external returns (uint256[] memory listed) {... */\n    tag_31:\n        /* \"BCMMarket2.sol\":2268:2291  uint256[] memory listed */\n      0x60\n        /* \"BCMMarket2.sol\":2326:2334  tokenIds */\n      dup4\n      dup4\n        /* \"BCMMarket2.sol\":2326:2341  tokenIds.length */\n      swap1\n      pop\n        /* \"BCMMarket2.sol\":2312:2342  new uint256[](tokenIds.length) */\n      0xffffffffffffffff\n      dup2\n      gt\n      iszero\n      tag_143\n      jumpi\n      tag_144\n      tag_79\n      jump\t// in\n    tag_144:\n    tag_143:\n      mload(0x40)\n      swap1\n      dup1\n      dup3\n      mstore\n      dup1\n      0x20\n      mul\n      0x20\n      add\n      dup3\n      add\n      0x40\n      mstore\n      dup1\n      iszero\n      tag_145\n      jumpi\n      dup2\n      0x20\n      add\n      0x20\n      dup3\n      mul\n      dup1\n      calldatasize\n      dup4\n      calldatacopy\n      dup1\n      dup3\n      add\n      swap2\n      pop\n      pop\n      swap1\n      pop\n    tag_145:\n      pop\n        /* \"BCMMarket2.sol\":2303:2342  listed = new uint256[](tokenIds.length) */\n      swap1\n      pop\n        /* \"BCMMarket2.sol\":2352:2365  uint256 count */\n      0x00\n        /* \"BCMMarket2.sol\":2384:2393  uint256 i */\n      dup1\n        /* \"BCMMarket2.sol\":2379:2606  for (uint256 i = 0; i < tokenIds.length; i++) {... */\n    tag_146:\n        /* \"BCMMarket2.sol\":2403:2411  tokenIds */\n      dup6\n      dup6\n        /* \"BCMMarket2.sol\":2403:2418  tokenIds.length */\n      swap1\n      pop\n        /* \"BCMMarket2.sol\":2399:2400  i */\n      dup2\n        /* \"BCMMarket2.sol\":2399:2418  i < tokenIds.length */\n      lt\n        /* \"BCMMarket2.sol\":2379:2606  for (uint256 i = 0; i < tokenIds.length; i++) {... */\n      iszero\n      tag_147\n      jumpi\n        /* \"BCMMarket2.sol\":2439:2446  bool ok */\n      0x00\n        /* \"BCMMarket2.sol\":2449:2489  listNFT(nftContract, tokenIds[i], group) */\n      tag_149\n        /* \"BCMMarket2.sol\":2457:2468  nftContract */\n      dup9\n        /* \"BCMMarket2.sol\":2470:2478  tokenIds */\n      dup9\n      dup9\n        /* \"BCMMarket2.sol\":2479:2480  i */\n      dup6\n        /* \"BCMMarket2.sol\":2470:2481  tokenIds[i] */\n      dup2\n      dup2\n      lt\n      tag_150\n      jumpi\n      tag_151\n      tag_86\n      jump\t// in\n    tag_151:\n    tag_150:\n      swap1\n      pop\n      0x20\n      mul\n      add\n      calldataload\n        /* \"BCMMarket2.sol\":2483:2488  group */\n      dup8\n        /* \"BCMMarket2.sol\":2449:2456  listNFT */\n      tag_56\n        /* \"BCMMarket2.sol\":2449:2489  listNFT(nftContract, tokenIds[i], group) */\n      jump\t// in\n    tag_149:\n        /* \"BCMMarket2.sol\":2439:2489  bool ok = listNFT(nftContract, tokenIds[i], group) */\n      swap1\n      pop\n        /* \"BCMMarket2.sol\":2507:2509  ok */\n      dup1\n        /* \"BCMMarket2.sol\":2503:2596  if (ok) {... */\n      iszero\n      tag_152\n      jumpi\n        /* \"BCMMarket2.sol\":2545:2553  tokenIds */\n      dup7\n      dup7\n        /* \"BCMMarket2.sol\":2554:2555  i */\n      dup4\n        /* \"BCMMarket2.sol\":2545:2556  tokenIds[i] */\n      dup2\n      dup2\n      lt\n      tag_153\n      jumpi\n      tag_154\n      tag_86\n      jump\t// in\n    tag_154:\n    tag_153:\n      swap1\n      pop\n      0x20\n      mul\n      add\n      calldataload\n        /* \"BCMMarket2.sol\":2529:2535  listed */\n      dup5\n        /* \"BCMMarket2.sol\":2536:2541  count */\n      dup5\n        /* \"BCMMarket2.sol\":2529:2542  listed[count] */\n      dup2\n      mload\n      dup2\n      lt\n      tag_155\n      jumpi\n      tag_156\n      tag_86\n      jump\t// in\n    tag_156:\n    tag_155:\n      0x20\n      mul\n      0x20\n      add\n      add\n        /* \"BCMMarket2.sol\":2529:2556  listed[count] = tokenIds[i] */\n      dup2\n      dup2\n      mstore\n      pop\n      pop\n        /* \"BCMMarket2.sol\":2574:2581  count++ */\n      dup3\n      dup1\n      tag_157\n      swap1\n      tag_135\n      jump\t// in\n    tag_157:\n      swap4\n      pop\n      pop\n        /* \"BCMMarket2.sol\":2503:2596  if (ok) {... */\n    tag_152:\n        /* \"BCMMarket2.sol\":2425:2606  {... */\n      pop\n        /* \"BCMMarket2.sol\":2420:2423  i++ */\n      dup1\n      dup1\n      0x01\n      add\n      swap2\n      pop\n      pop\n        /* \"BCMMarket2.sol\":2379:2606  for (uint256 i = 0; i < tokenIds.length; i++) {... */\n      jump(tag_146)\n    tag_147:\n      pop\n        /* \"BCMMarket2.sol\":2641:2646  count */\n      dup1\n        /* \"BCMMarket2.sol\":2633:2639  listed */\n      dup3\n        /* \"BCMMarket2.sol\":2626:2647  mstore(listed, count) */\n      mstore\n        /* \"BCMMarket2.sol\":2624:2649  { mstore(listed, count) } */\n      pop\n        /* \"BCMMarket2.sol\":2168:2655  function listMany(address nftContract, uint256[] calldata tokenIds, uint16 group) external returns (uint256[] memory listed) {... */\n      swap5\n      swap4\n      pop\n      pop\n      pop\n      pop\n      jump\t// out\n        /* \"BCMMarket2.sol\":296:322  IERC20 public paymentToken */\n    tag_34:\n      0x01\n      0x00\n      swap1\n      sload\n      swap1\n      0x0100\n      exp\n      swap1\n      div\n      0xffffffffffffffffffffffffffffffffffffffff\n      and\n      dup2\n      jump\t// out\n        /* \"BCMMarket2.sol\":454:523  mapping(uint16 => mapping(address => uint256[])) public groupTokenIds */\n    tag_40:\n      mstore(0x20, 0x04)\n      dup3\n      0x00\n      mstore\n      mstore(0x20, keccak256(0x00, 0x40))\n      dup2\n      0x00\n      mstore\n      keccak256(0x00, 0x40)\n      dup2\n      dup2\n      sload\n      dup2\n      lt\n      tag_158\n      jumpi\n      0x00\n      dup1\n      revert\n    tag_158:\n      swap1\n      0x00\n      mstore\n      keccak256(0x00, 0x20)\n      add\n      0x00\n      swap3\n      pop\n      swap3\n      pop\n      pop\n      pop\n      sload\n      dup2\n      jump\t// out\n        /* \"BCMMarket2.sol\":3998:4474  function buyMany(address nftContract, uint256[] calldata tokenIds) external returns (uint256[] memory purchased) {... */\n    tag_46:\n        /* \"BCMMarket2.sol\":4083:4109  uint256[] memory purchased */\n      0x60\n        /* \"BCMMarket2.sol\":4147:4155  tokenIds */\n      dup3\n      dup3\n        /* \"BCMMarket2.sol\":4147:4162  tokenIds.length */\n      swap1\n      pop\n        /* \"BCMMarket2.sol\":4133:4163  new uint256[](tokenIds.length) */\n      0xffffffffffffffff\n      dup2\n      gt\n      iszero\n      tag_161\n      jumpi\n      tag_162\n      tag_79\n      jump\t// in\n    tag_162:\n    tag_161:\n      mload(0x40)\n      swap1\n      dup1\n      dup3\n      mstore\n      dup1\n      0x20\n      mul\n      0x20\n      add\n      dup3\n      add\n      0x40\n      mstore\n      dup1\n      iszero\n      tag_163\n      jumpi\n      dup2\n      0x20\n      add\n      0x20\n      dup3\n      mul\n      dup1\n      calldatasize\n      dup4\n      calldatacopy\n      dup1\n      dup3\n      add\n      swap2\n      pop\n      pop\n      swap1\n      pop\n    tag_163:\n      pop\n        /* \"BCMMarket2.sol\":4121:4163  purchased = new uint256[](tokenIds.length) */\n      swap1\n      pop\n        /* \"BCMMarket2.sol\":4173:4186  uint256 count */\n      0x00\n        /* \"BCMMarket2.sol\":4205:4214  uint256 i */\n      dup1\n        /* \"BCMMarket2.sol\":4200:4422  for (uint256 i = 0; i < tokenIds.length; i++) {... */\n    tag_164:\n        /* \"BCMMarket2.sol\":4224:4232  tokenIds */\n      dup5\n      dup5\n        /* \"BCMMarket2.sol\":4224:4239  tokenIds.length */\n      swap1\n      pop\n        /* \"BCMMarket2.sol\":4220:4221  i */\n      dup2\n        /* \"BCMMarket2.sol\":4220:4239  i < tokenIds.length */\n      lt\n        /* \"BCMMarket2.sol\":4200:4422  for (uint256 i = 0; i < tokenIds.length; i++) {... */\n      iszero\n      tag_165\n      jumpi\n        /* \"BCMMarket2.sol\":4260:4267  bool ok */\n      0x00\n        /* \"BCMMarket2.sol\":4270:4302  buyNFT(nftContract, tokenIds[i]) */\n      tag_167\n        /* \"BCMMarket2.sol\":4277:4288  nftContract */\n      dup8\n        /* \"BCMMarket2.sol\":4290:4298  tokenIds */\n      dup8\n      dup8\n        /* \"BCMMarket2.sol\":4299:4300  i */\n      dup6\n        /* \"BCMMarket2.sol\":4290:4301  tokenIds[i] */\n      dup2\n      dup2\n      lt\n      tag_168\n      jumpi\n      tag_169\n      tag_86\n      jump\t// in\n    tag_169:\n    tag_168:\n      swap1\n      pop\n      0x20\n      mul\n      add\n      calldataload\n        /* \"BCMMarket2.sol\":4270:4276  buyNFT */\n      tag_61\n        /* \"BCMMarket2.sol\":4270:4302  buyNFT(nftContract, tokenIds[i]) */\n      jump\t// in\n    tag_167:\n        /* \"BCMMarket2.sol\":4260:4302  bool ok = buyNFT(nftContract, tokenIds[i]) */\n      swap1\n      pop\n        /* \"BCMMarket2.sol\":4320:4322  ok */\n      dup1\n        /* \"BCMMarket2.sol\":4316:4412  if (ok) {... */\n      iszero\n      tag_170\n      jumpi\n        /* \"BCMMarket2.sol\":4361:4369  tokenIds */\n      dup6\n      dup6\n        /* \"BCMMarket2.sol\":4370:4371  i */\n      dup4\n        /* \"BCMMarket2.sol\":4361:4372  tokenIds[i] */\n      dup2\n      dup2\n      lt\n      tag_171\n      jumpi\n      tag_172\n      tag_86\n      jump\t// in\n    tag_172:\n    tag_171:\n      swap1\n      pop\n      0x20\n      mul\n      add\n      calldataload\n        /* \"BCMMarket2.sol\":4342:4351  purchased */\n      dup5\n        /* \"BCMMarket2.sol\":4352:4357  count */\n      dup5\n        /* \"BCMMarket2.sol\":4342:4358  purchased[count] */\n      dup2\n      mload\n      dup2\n      lt\n      tag_173\n      jumpi\n      tag_174\n      tag_86\n      jump\t// in\n    tag_174:\n    tag_173:\n      0x20\n      mul\n      0x20\n      add\n      add\n        /* \"BCMMarket2.sol\":4342:4372  purchased[count] = tokenIds[i] */\n      dup2\n      dup2\n      mstore\n      pop\n      pop\n        /* \"BCMMarket2.sol\":4390:4397  count++ */\n      dup3\n      dup1\n      tag_175\n      swap1\n      tag_135\n      jump\t// in\n    tag_175:\n      swap4\n      pop\n      pop\n        /* \"BCMMarket2.sol\":4316:4412  if (ok) {... */\n    tag_170:\n        /* \"BCMMarket2.sol\":4246:4422  {... */\n      pop\n        /* \"BCMMarket2.sol\":4241:4244  i++ */\n      dup1\n      dup1\n      0x01\n      add\n      swap2\n      pop\n      pop\n        /* \"BCMMarket2.sol\":4200:4422  for (uint256 i = 0; i < tokenIds.length; i++) {... */\n      jump(tag_164)\n    tag_165:\n      pop\n        /* \"BCMMarket2.sol\":4460:4465  count */\n      dup1\n        /* \"BCMMarket2.sol\":4449:4458  purchased */\n      dup3\n        /* \"BCMMarket2.sol\":4442:4466  mstore(purchased, count) */\n      mstore\n        /* \"BCMMarket2.sol\":4440:4468  { mstore(purchased, count) } */\n      pop\n        /* \"BCMMarket2.sol\":3998:4474  function buyMany(address nftContract, uint256[] calldata tokenIds) external returns (uint256[] memory purchased) {... */\n      swap4\n      swap3\n      pop\n      pop\n      pop\n      jump\t// out\n        /* \"BCMMarket2.sol\":398:448  mapping(uint16 => address[]) public groupContracts */\n    tag_51:\n      mstore(0x20, 0x03)\n      dup2\n      0x00\n      mstore\n      keccak256(0x00, 0x40)\n      dup2\n      dup2\n      sload\n      dup2\n      lt\n      tag_176\n      jumpi\n      0x00\n      dup1\n      revert\n    tag_176:\n      swap1\n      0x00\n      mstore\n      keccak256(0x00, 0x20)\n      add\n      0x00\n      swap2\n      pop\n      swap2\n      pop\n      swap1\n      sload\n      swap1\n      0x0100\n      exp\n      swap1\n      div\n      0xffffffffffffffffffffffffffffffffffffffff\n      and\n      dup2\n      jump\t// out\n        /* \"BCMMarket2.sol\":1369:2162  function listNFT(address nftContract, uint256 tokenId, uint16 group)... */\n    tag_56:\n        /* \"BCMMarket2.sol\":1520:1532  bool success */\n      0x00\n        /* \"BCMMarket2.sol\":1469:1480  nftContract */\n      dup4\n        /* \"BCMMarket2.sol\":1482:1489  tokenId */\n      dup4\n        /* \"BCMMarket2.sol\":1491:1501  msg.sender */\n      caller\n        /* \"BCMMarket2.sol\":1244:1255  IERC721 nft */\n      0x00\n        /* \"BCMMarket2.sol\":1266:1277  nftContract */\n      dup4\n        /* \"BCMMarket2.sol\":1244:1278  IERC721 nft = IERC721(nftContract) */\n      swap1\n      pop\n        /* \"BCMMarket2.sol\":1320:1327  spender */\n      dup2\n        /* \"BCMMarket2.sol\":1296:1327  nft.ownerOf(tokenId) == spender */\n      0xffffffffffffffffffffffffffffffffffffffff\n      and\n        /* \"BCMMarket2.sol\":1296:1299  nft */\n      dup2\n        /* \"BCMMarket2.sol\":1296:1307  nft.ownerOf */\n      0xffffffffffffffffffffffffffffffffffffffff\n      and\n      0x6352211e\n        /* \"BCMMarket2.sol\":1308:1315  tokenId */\n      dup6\n        /* \"BCMMarket2.sol\":1296:1316  nft.ownerOf(tokenId) */\n      mload(0x40)\n      dup3\n      0xffffffff\n      and\n      0xe0\n      shl\n      dup2\n      mstore\n      0x04\n      add\n      tag_179\n      swap2\n      swap1\n      tag_42\n      jump\t// in\n    tag_179:\n      0x20\n      mload(0x40)\n      dup1\n      dup4\n      sub\n      dup2\n      dup7\n      gas\n      staticcall\n      iszero\n      dup1\n      iszero\n      tag_181\n      jumpi\n      returndatasize\n      0x00\n      dup1\n      returndatacopy\n      revert(0x00, returndatasize)\n    tag_181:\n      pop\n      pop\n      pop\n      pop\n      mload(0x40)\n      returndatasize\n      not(0x1f)\n      0x1f\n      dup3\n      add\n      and\n      dup3\n      add\n      dup1\n      0x40\n      mstore\n      pop\n      dup2\n      add\n      swap1\n      tag_182\n      swap2\n      swap1\n      tag_183\n      jump\t// in\n    tag_182:\n        /* \"BCMMarket2.sol\":1296:1327  nft.ownerOf(tokenId) == spender */\n      0xffffffffffffffffffffffffffffffffffffffff\n      and\n      eq\n        /* \"BCMMarket2.sol\":1288:1345  require(nft.ownerOf(tokenId) == spender, \"Not the owner\") */\n      tag_184\n      jumpi\n      mload(0x40)\n      0x08c379a000000000000000000000000000000000000000000000000000000000\n      dup2\n      mstore\n      0x04\n      add\n      tag_185\n      swap1\n      tag_186\n      jump\t// in\n    tag_185:\n      mload(0x40)\n      dup1\n      swap2\n      sub\n      swap1\n      revert\n    tag_184:\n        /* \"BCMMarket2.sol\":1594:1595  0 */\n      0x00\n        /* \"BCMMarket2.sol\":1552:1596  listings[nftContract][tokenId] != address(0) */\n      0xffffffffffffffffffffffffffffffffffffffff\n      and\n        /* \"BCMMarket2.sol\":1552:1560  listings */\n      0x02\n        /* \"BCMMarket2.sol\":1552:1573  listings[nftContract] */\n      0x00\n        /* \"BCMMarket2.sol\":1561:1572  nftContract */\n      dup11\n        /* \"BCMMarket2.sol\":1552:1573  listings[nftContract] */\n      0xffffffffffffffffffffffffffffffffffffffff\n      and\n      0xffffffffffffffffffffffffffffffffffffffff\n      and\n      dup2\n      mstore\n      0x20\n      add\n      swap1\n      dup2\n      mstore\n      0x20\n      add\n      0x00\n      keccak256\n        /* \"BCMMarket2.sol\":1552:1582  listings[nftContract][tokenId] */\n      0x00\n        /* \"BCMMarket2.sol\":1574:1581  tokenId */\n      dup10\n        /* \"BCMMarket2.sol\":1552:1582  listings[nftContract][tokenId] */\n      dup2\n      mstore\n      0x20\n      add\n      swap1\n      dup2\n      mstore\n      0x20\n      add\n      0x00\n      keccak256\n      0x00\n      swap1\n      sload\n      swap1\n      0x0100\n      exp\n      swap1\n      div\n      0xffffffffffffffffffffffffffffffffffffffff\n      and\n        /* \"BCMMarket2.sol\":1552:1596  listings[nftContract][tokenId] != address(0) */\n      0xffffffffffffffffffffffffffffffffffffffff\n      and\n      eq\n        /* \"BCMMarket2.sol\":1548:1707  if (listings[nftContract][tokenId] != address(0)) {... */\n      tag_188\n      jumpi\n        /* \"BCMMarket2.sol\":1644:1651  tokenId */\n      dup7\n        /* \"BCMMarket2.sol\":1631:1642  nftContract */\n      dup9\n        /* \"BCMMarket2.sol\":1617:1670  ListingFailed(nftContract, tokenId, \"Already listed\") */\n      0xffffffffffffffffffffffffffffffffffffffff\n      and\n      0x0795d2a562f597cc96a526206719a45f67c20b30518ea1c6f88de912dd25ed23\n      mload(0x40)\n      tag_189\n      swap1\n      tag_190\n      jump\t// in\n    tag_189:\n      mload(0x40)\n      dup1\n      swap2\n      sub\n      swap1\n      log3\n        /* \"BCMMarket2.sol\":1691:1696  false */\n      0x00\n        /* \"BCMMarket2.sol\":1684:1696  return false */\n      swap5\n      pop\n      jump(tag_187)\n        /* \"BCMMarket2.sol\":1548:1707  if (listings[nftContract][tokenId] != address(0)) {... */\n    tag_188:\n        /* \"BCMMarket2.sol\":1773:1777  this */\n      address\n        /* \"BCMMarket2.sol\":1720:1778  IERC721(nftContract).getApproved(tokenId) != address(this) */\n      0xffffffffffffffffffffffffffffffffffffffff\n      and\n        /* \"BCMMarket2.sol\":1728:1739  nftContract */\n      dup9\n        /* \"BCMMarket2.sol\":1720:1752  IERC721(nftContract).getApproved */\n      0xffffffffffffffffffffffffffffffffffffffff\n      and\n      0x081812fc\n        /* \"BCMMarket2.sol\":1753:1760  tokenId */\n      dup10\n        /* \"BCMMarket2.sol\":1720:1761  IERC721(nftContract).getApproved(tokenId) */\n      mload(0x40)\n      dup3\n      0xffffffff\n      and\n      0xe0\n      shl\n      dup2\n      mstore\n      0x04\n      add\n      tag_191\n      swap2\n      swap1\n      tag_42\n      jump\t// in\n    tag_191:\n      0x20\n      mload(0x40)\n      dup1\n      dup4\n      sub\n      dup2\n      dup7\n      gas\n      staticcall\n      iszero\n      dup1\n      iszero\n      tag_193\n      jumpi\n      returndatasize\n      0x00\n      dup1\n      returndatacopy\n      revert(0x00, returndatasize)\n    tag_193:\n      pop\n      pop\n      pop\n      pop\n      mload(0x40)\n      returndatasize\n      not(0x1f)\n      0x1f\n      dup3\n      add\n      and\n      dup3\n      add\n      dup1\n      0x40\n      mstore\n      pop\n      dup2\n      add\n      swap1\n      tag_194\n      swap2\n      swap1\n      tag_183\n      jump\t// in\n    tag_194:\n        /* \"BCMMarket2.sol\":1720:1778  IERC721(nftContract).getApproved(tokenId) != address(this) */\n      0xffffffffffffffffffffffffffffffffffffffff\n      and\n      eq\n        /* \"BCMMarket2.sol\":1716:1887  if (IERC721(nftContract).getApproved(tokenId) != address(this)) {... */\n      tag_195\n      jumpi\n        /* \"BCMMarket2.sol\":1826:1833  tokenId */\n      dup7\n        /* \"BCMMarket2.sol\":1813:1824  nftContract */\n      dup9\n        /* \"BCMMarket2.sol\":1799:1850  ListingFailed(nftContract, tokenId, \"Not approved\") */\n      0xffffffffffffffffffffffffffffffffffffffff\n      and\n      0x0795d2a562f597cc96a526206719a45f67c20b30518ea1c6f88de912dd25ed23\n      mload(0x40)\n      tag_196\n      swap1\n      tag_197\n      jump\t// in\n    tag_196:\n      mload(0x40)\n      dup1\n      swap2\n      sub\n      swap1\n      log3\n        /* \"BCMMarket2.sol\":1871:1876  false */\n      0x00\n        /* \"BCMMarket2.sol\":1864:1876  return false */\n      swap5\n      pop\n      jump(tag_187)\n        /* \"BCMMarket2.sol\":1716:1887  if (IERC721(nftContract).getApproved(tokenId) != address(this)) {... */\n    tag_195:\n        /* \"BCMMarket2.sol\":1930:1940  msg.sender */\n      caller\n        /* \"BCMMarket2.sol\":1897:1905  listings */\n      0x02\n        /* \"BCMMarket2.sol\":1897:1918  listings[nftContract] */\n      0x00\n        /* \"BCMMarket2.sol\":1906:1917  nftContract */\n      dup11\n        /* \"BCMMarket2.sol\":1897:1918  listings[nftContract] */\n      0xffffffffffffffffffffffffffffffffffffffff\n      and\n      0xffffffffffffffffffffffffffffffffffffffff\n      and\n      dup2\n      mstore\n      0x20\n      add\n      swap1\n      dup2\n      mstore\n      0x20\n      add\n      0x00\n      keccak256\n        /* \"BCMMarket2.sol\":1897:1927  listings[nftContract][tokenId] */\n      0x00\n        /* \"BCMMarket2.sol\":1919:1926  tokenId */\n      dup10\n        /* \"BCMMarket2.sol\":1897:1927  listings[nftContract][tokenId] */\n      dup2\n      mstore\n      0x20\n      add\n      swap1\n      dup2\n      mstore\n      0x20\n      add\n      0x00\n      keccak256\n      0x00\n        /* \"BCMMarket2.sol\":1897:1940  listings[nftContract][tokenId] = msg.sender */\n      0x0100\n      exp\n      dup2\n      sload\n      dup2\n      0xffffffffffffffffffffffffffffffffffffffff\n      mul\n      not\n      and\n      swap1\n      dup4\n      0xffffffffffffffffffffffffffffffffffffffff\n      and\n      mul\n      or\n      swap1\n      sstore\n      pop\n        /* \"BCMMarket2.sol\":1950:1963  groupTokenIds */\n      0x04\n        /* \"BCMMarket2.sol\":1950:1970  groupTokenIds[group] */\n      0x00\n        /* \"BCMMarket2.sol\":1964:1969  group */\n      dup8\n        /* \"BCMMarket2.sol\":1950:1970  groupTokenIds[group] */\n      0xffff\n      and\n      0xffff\n      and\n      dup2\n      mstore\n      0x20\n      add\n      swap1\n      dup2\n      mstore\n      0x20\n      add\n      0x00\n      keccak256\n        /* \"BCMMarket2.sol\":1950:1983  groupTokenIds[group][nftContract] */\n      0x00\n        /* \"BCMMarket2.sol\":1971:1982  nftContract */\n      dup10\n        /* \"BCMMarket2.sol\":1950:1983  groupTokenIds[group][nftContract] */\n      0xffffffffffffffffffffffffffffffffffffffff\n      and\n      0xffffffffffffffffffffffffffffffffffffffff\n      and\n      dup2\n      mstore\n      0x20\n      add\n      swap1\n      dup2\n      mstore\n      0x20\n      add\n      0x00\n      keccak256\n        /* \"BCMMarket2.sol\":1989:1996  tokenId */\n      dup8\n        /* \"BCMMarket2.sol\":1950:1997  groupTokenIds[group][nftContract].push(tokenId) */\n      swap1\n      dup1\n      0x01\n      dup2\n      sload\n      add\n      dup1\n      dup3\n      sstore\n      dup1\n      swap2\n      pop\n      pop\n      0x01\n      swap1\n      sub\n      swap1\n      0x00\n      mstore\n      keccak256(0x00, 0x20)\n      add\n      0x00\n      swap1\n      swap2\n      swap1\n      swap2\n      swap1\n      swap2\n      pop\n      sstore\n        /* \"BCMMarket2.sol\":2007:2021  groupContracts */\n      0x03\n        /* \"BCMMarket2.sol\":2007:2028  groupContracts[group] */\n      0x00\n        /* \"BCMMarket2.sol\":2022:2027  group */\n      dup8\n        /* \"BCMMarket2.sol\":2007:2028  groupContracts[group] */\n      0xffff\n      and\n      0xffff\n      and\n      dup2\n      mstore\n      0x20\n      add\n      swap1\n      dup2\n      mstore\n      0x20\n      add\n      0x00\n      keccak256\n        /* \"BCMMarket2.sol\":2034:2045  nftContract */\n      dup9\n        /* \"BCMMarket2.sol\":2007:2046  groupContracts[group].push(nftContract) */\n      swap1\n      dup1\n      0x01\n      dup2\n      sload\n      add\n      dup1\n      dup3\n      sstore\n      dup1\n      swap2\n      pop\n      pop\n      0x01\n      swap1\n      sub\n      swap1\n      0x00\n      mstore\n      keccak256(0x00, 0x20)\n      add\n      0x00\n      swap1\n      swap2\n      swap1\n      swap2\n      swap1\n      swap2\n      0x0100\n      exp\n      dup2\n      sload\n      dup2\n      0xffffffffffffffffffffffffffffffffffffffff\n      mul\n      not\n      and\n      swap1\n      dup4\n      0xffffffffffffffffffffffffffffffffffffffff\n      and\n      mul\n      or\n      swap1\n      sstore\n      pop\n        /* \"BCMMarket2.sol\":2116:2126  msg.sender */\n      caller\n        /* \"BCMMarket2.sol\":2062:2134  NFTListed(nftContract, tokenId, getGroupPrice(group), msg.sender, group) */\n      0xffffffffffffffffffffffffffffffffffffffff\n      and\n        /* \"BCMMarket2.sol\":2085:2092  tokenId */\n      dup8\n        /* \"BCMMarket2.sol\":2072:2083  nftContract */\n      dup10\n        /* \"BCMMarket2.sol\":2062:2134  NFTListed(nftContract, tokenId, getGroupPrice(group), msg.sender, group) */\n      0xffffffffffffffffffffffffffffffffffffffff\n      and\n      0xd4d9493bde2c94a44263c0e6b76a960efec9b18d7e4533b24a2f72e7fe120523\n        /* \"BCMMarket2.sol\":2094:2114  getGroupPrice(group) */\n      tag_200\n        /* \"BCMMarket2.sol\":2108:2113  group */\n      dup11\n        /* \"BCMMarket2.sol\":2094:2107  getGroupPrice */\n      tag_74\n        /* \"BCMMarket2.sol\":2094:2114  getGroupPrice(group) */\n      jump\t// in\n    tag_200:\n        /* \"BCMMarket2.sol\":2128:2133  group */\n      dup11\n        /* \"BCMMarket2.sol\":2062:2134  NFTListed(nftContract, tokenId, getGroupPrice(group), msg.sender, group) */\n      mload(0x40)\n      tag_201\n      swap3\n      swap2\n      swap1\n      tag_202\n      jump\t// in\n    tag_201:\n      mload(0x40)\n      dup1\n      swap2\n      sub\n      swap1\n      log4\n        /* \"BCMMarket2.sol\":2151:2155  true */\n      0x01\n        /* \"BCMMarket2.sol\":2144:2155  return true */\n      swap5\n      pop\n        /* \"BCMMarket2.sol\":1355:1356  _ */\n    tag_187:\n        /* \"BCMMarket2.sol\":1234:1363  {... */\n      pop\n        /* \"BCMMarket2.sol\":1369:2162  function listNFT(address nftContract, uint256 tokenId, uint16 group)... */\n      pop\n      pop\n      pop\n      swap4\n      swap3\n      pop\n      pop\n      pop\n      jump\t// out\n        /* \"BCMMarket2.sol\":3115:3992  function buyNFT(address nftContract, uint256 tokenId) public nonReentrant returns (bool success) {... */\n    tag_61:\n        /* \"BCMMarket2.sol\":3198:3210  bool success */\n      0x00\n        /* \"@openzeppelin/contracts/security/ReentrancyGuard.sol\":2261:2282  _nonReentrantBefore() */\n      tag_204\n        /* \"@openzeppelin/contracts/security/ReentrancyGuard.sol\":2261:2280  _nonReentrantBefore */\n      tag_205\n        /* \"@openzeppelin/contracts/security/ReentrancyGuard.sol\":2261:2282  _nonReentrantBefore() */\n      jump\t// in\n    tag_204:\n        /* \"BCMMarket2.sol\":3268:3269  0 */\n      0x00\n        /* \"BCMMarket2.sol\":3226:3270  listings[nftContract][tokenId] == address(0) */\n      0xffffffffffffffffffffffffffffffffffffffff\n      and\n        /* \"BCMMarket2.sol\":3226:3234  listings */\n      0x02\n        /* \"BCMMarket2.sol\":3226:3247  listings[nftContract] */\n      0x00\n        /* \"BCMMarket2.sol\":3235:3246  nftContract */\n      dup6\n        /* \"BCMMarket2.sol\":3226:3247  listings[nftContract] */\n      0xffffffffffffffffffffffffffffffffffffffff\n      and\n      0xffffffffffffffffffffffffffffffffffffffff\n      and\n      dup2\n      mstore\n      0x20\n      add\n      swap1\n      dup2\n      mstore\n      0x20\n      add\n      0x00\n      keccak256\n        /* \"BCMMarket2.sol\":3226:3256  listings[nftContract][tokenId] */\n      0x00\n        /* \"BCMMarket2.sol\":3248:3255  tokenId */\n      dup5\n        /* \"BCMMarket2.sol\":3226:3256  listings[nftContract][tokenId] */\n      dup2\n      mstore\n      0x20\n      add\n      swap1\n      dup2\n      mstore\n      0x20\n      add\n      0x00\n      keccak256\n      0x00\n      swap1\n      sload\n      swap1\n      0x0100\n      exp\n      swap1\n      div\n      0xffffffffffffffffffffffffffffffffffffffff\n      and\n        /* \"BCMMarket2.sol\":3226:3270  listings[nftContract][tokenId] == address(0) */\n      0xffffffffffffffffffffffffffffffffffffffff\n      and\n      sub\n        /* \"BCMMarket2.sol\":3222:3378  if (listings[nftContract][tokenId] == address(0)) {... */\n      tag_207\n      jumpi\n        /* \"BCMMarket2.sol\":3319:3326  tokenId */\n      dup2\n        /* \"BCMMarket2.sol\":3306:3317  nftContract */\n      dup4\n        /* \"BCMMarket2.sol\":3291:3341  PurchaseFailed(nftContract, tokenId, \"Not listed\") */\n      0xffffffffffffffffffffffffffffffffffffffff\n      and\n      0x8a8719b9514356483d3fc6f38c0ada5a06a46d633339046c40ee527d7bda0de4\n      mload(0x40)\n      tag_208\n      swap1\n      tag_141\n      jump\t// in\n    tag_208:\n      mload(0x40)\n      dup1\n      swap2\n      sub\n      swap1\n      log3\n        /* \"BCMMarket2.sol\":3362:3367  false */\n      0x00\n        /* \"BCMMarket2.sol\":3355:3367  return false */\n      swap1\n      pop\n      jump(tag_206)\n        /* \"BCMMarket2.sol\":3222:3378  if (listings[nftContract][tokenId] == address(0)) {... */\n    tag_207:\n        /* \"BCMMarket2.sol\":3387:3399  uint16 group */\n      0x00\n        /* \"BCMMarket2.sol\":3402:3432  getGroup(nftContract, tokenId) */\n      tag_209\n        /* \"BCMMarket2.sol\":3411:3422  nftContract */\n      dup5\n        /* \"BCMMarket2.sol\":3424:3431  tokenId */\n      dup5\n        /* \"BCMMarket2.sol\":3402:3410  getGroup */\n      tag_91\n        /* \"BCMMarket2.sol\":3402:3432  getGroup(nftContract, tokenId) */\n      jump\t// in\n    tag_209:\n        /* \"BCMMarket2.sol\":3387:3432  uint16 group = getGroup(nftContract, tokenId) */\n      swap1\n      pop\n        /* \"BCMMarket2.sol\":3442:3456  address seller */\n      0x00\n        /* \"BCMMarket2.sol\":3459:3467  listings */\n      0x02\n        /* \"BCMMarket2.sol\":3459:3480  listings[nftContract] */\n      0x00\n        /* \"BCMMarket2.sol\":3468:3479  nftContract */\n      dup7\n        /* \"BCMMarket2.sol\":3459:3480  listings[nftContract] */\n      0xffffffffffffffffffffffffffffffffffffffff\n      and\n      0xffffffffffffffffffffffffffffffffffffffff\n      and\n      dup2\n      mstore\n      0x20\n      add\n      swap1\n      dup2\n      mstore\n      0x20\n      add\n      0x00\n      keccak256\n        /* \"BCMMarket2.sol\":3459:3489  listings[nftContract][tokenId] */\n      0x00\n        /* \"BCMMarket2.sol\":3481:3488  tokenId */\n      dup6\n        /* \"BCMMarket2.sol\":3459:3489  listings[nftContract][tokenId] */\n      dup2\n      mstore\n      0x20\n      add\n      swap1\n      dup2\n      mstore\n      0x20\n      add\n      0x00\n      keccak256\n      0x00\n      swap1\n      sload\n      swap1\n      0x0100\n      exp\n      swap1\n      div\n      0xffffffffffffffffffffffffffffffffffffffff\n      and\n        /* \"BCMMarket2.sol\":3442:3489  address seller = listings[nftContract][tokenId] */\n      swap1\n      pop\n        /* \"BCMMarket2.sol\":3499:3512  uint256 price */\n      0x00\n        /* \"BCMMarket2.sol\":3515:3535  getGroupPrice(group) */\n      tag_210\n        /* \"BCMMarket2.sol\":3529:3534  group */\n      dup4\n        /* \"BCMMarket2.sol\":3515:3528  getGroupPrice */\n      tag_74\n        /* \"BCMMarket2.sol\":3515:3535  getGroupPrice(group) */\n      jump\t// in\n    tag_210:\n        /* \"BCMMarket2.sol\":3499:3535  uint256 price = getGroupPrice(group) */\n      swap1\n      pop\n        /* \"BCMMarket2.sol\":3551:3563  paymentToken */\n      0x01\n      0x00\n      swap1\n      sload\n      swap1\n      0x0100\n      exp\n      swap1\n      div\n      0xffffffffffffffffffffffffffffffffffffffff\n      and\n        /* \"BCMMarket2.sol\":3551:3576  paymentToken.transferFrom */\n      0xffffffffffffffffffffffffffffffffffffffff\n      and\n      0x23b872dd\n        /* \"BCMMarket2.sol\":3577:3587  msg.sender */\n      caller\n        /* \"BCMMarket2.sol\":3589:3595  seller */\n      dup5\n        /* \"BCMMarket2.sol\":3597:3602  price */\n      dup5\n        /* \"BCMMarket2.sol\":3551:3603  paymentToken.transferFrom(msg.sender, seller, price) */\n      mload(0x40)\n      dup5\n      0xffffffff\n      and\n      0xe0\n      shl\n      dup2\n      mstore\n      0x04\n      add\n      tag_211\n      swap4\n      swap3\n      swap2\n      swap1\n      tag_103\n      jump\t// in\n    tag_211:\n      0x20\n      mload(0x40)\n      dup1\n      dup4\n      sub\n      dup2\n      0x00\n      dup8\n      gas\n      call\n      iszero\n      dup1\n      iszero\n      tag_213\n      jumpi\n      returndatasize\n      0x00\n      dup1\n      returndatacopy\n      revert(0x00, returndatasize)\n    tag_213:\n      pop\n      pop\n      pop\n      pop\n      mload(0x40)\n      returndatasize\n      not(0x1f)\n      0x1f\n      dup3\n      add\n      and\n      dup3\n      add\n      dup1\n      0x40\n      mstore\n      pop\n      dup2\n      add\n      swap1\n      tag_214\n      swap2\n      swap1\n      tag_107\n      jump\t// in\n    tag_214:\n        /* \"BCMMarket2.sol\":3546:3715  if (!paymentToken.transferFrom(msg.sender, seller, price)) {... */\n      tag_215\n      jumpi\n        /* \"BCMMarket2.sol\":3652:3659  tokenId */\n      dup5\n        /* \"BCMMarket2.sol\":3639:3650  nftContract */\n      dup7\n        /* \"BCMMarket2.sol\":3624:3678  PurchaseFailed(nftContract, tokenId, \"Payment failed\") */\n      0xffffffffffffffffffffffffffffffffffffffff\n      and\n      0x8a8719b9514356483d3fc6f38c0ada5a06a46d633339046c40ee527d7bda0de4\n      mload(0x40)\n      tag_216\n      swap1\n      tag_112\n      jump\t// in\n    tag_216:\n      mload(0x40)\n      dup1\n      swap2\n      sub\n      swap1\n      log3\n        /* \"BCMMarket2.sol\":3699:3704  false */\n      0x00\n        /* \"BCMMarket2.sol\":3692:3704  return false */\n      swap4\n      pop\n      pop\n      pop\n      pop\n      jump(tag_206)\n        /* \"BCMMarket2.sol\":3546:3715  if (!paymentToken.transferFrom(msg.sender, seller, price)) {... */\n    tag_215:\n        /* \"BCMMarket2.sol\":3732:3740  listings */\n      0x02\n        /* \"BCMMarket2.sol\":3732:3753  listings[nftContract] */\n      0x00\n        /* \"BCMMarket2.sol\":3741:3752  nftContract */\n      dup8\n        /* \"BCMMarket2.sol\":3732:3753  listings[nftContract] */\n      0xffffffffffffffffffffffffffffffffffffffff\n      and\n      0xffffffffffffffffffffffffffffffffffffffff\n      and\n      dup2\n      mstore\n      0x20\n      add\n      swap1\n      dup2\n      mstore\n      0x20\n      add\n      0x00\n      keccak256\n        /* \"BCMMarket2.sol\":3732:3762  listings[nftContract][tokenId] */\n      0x00\n        /* \"BCMMarket2.sol\":3754:3761  tokenId */\n      dup7\n        /* \"BCMMarket2.sol\":3732:3762  listings[nftContract][tokenId] */\n      dup2\n      mstore\n      0x20\n      add\n      swap1\n      dup2\n      mstore\n      0x20\n      add\n      0x00\n      keccak256\n      0x00\n        /* \"BCMMarket2.sol\":3725:3762  delete listings[nftContract][tokenId] */\n      0x0100\n      exp\n      dup2\n      sload\n      swap1\n      0xffffffffffffffffffffffffffffffffffffffff\n      mul\n      not\n      and\n      swap1\n      sstore\n        /* \"BCMMarket2.sol\":3772:3824  _removeTokenIdFromGroup(group, nftContract, tokenId) */\n      tag_217\n        /* \"BCMMarket2.sol\":3796:3801  group */\n      dup4\n        /* \"BCMMarket2.sol\":3803:3814  nftContract */\n      dup8\n        /* \"BCMMarket2.sol\":3816:3823  tokenId */\n      dup8\n        /* \"BCMMarket2.sol\":3772:3795  _removeTokenIdFromGroup */\n      tag_120\n        /* \"BCMMarket2.sol\":3772:3824  _removeTokenIdFromGroup(group, nftContract, tokenId) */\n      jump\t// in\n    tag_217:\n        /* \"BCMMarket2.sol\":3843:3854  nftContract */\n      dup6\n        /* \"BCMMarket2.sol\":3835:3872  IERC721(nftContract).safeTransferFrom */\n      0xffffffffffffffffffffffffffffffffffffffff\n      and\n      0x42842e0e\n        /* \"BCMMarket2.sol\":3873:3879  seller */\n      dup4\n        /* \"BCMMarket2.sol\":3881:3891  msg.sender */\n      caller\n        /* \"BCMMarket2.sol\":3893:3900  tokenId */\n      dup9\n        /* \"BCMMarket2.sol\":3835:3901  IERC721(nftContract).safeTransferFrom(seller, msg.sender, tokenId) */\n      mload(0x40)\n      dup5\n      0xffffffff\n      and\n      0xe0\n      shl\n      dup2\n      mstore\n      0x04\n      add\n      tag_218\n      swap4\n      swap3\n      swap2\n      swap1\n      tag_103\n      jump\t// in\n    tag_218:\n      0x00\n      mload(0x40)\n      dup1\n      dup4\n      sub\n      dup2\n      0x00\n      dup8\n      dup1\n      extcodesize\n      iszero\n      dup1\n      iszero\n      tag_219\n      jumpi\n      0x00\n      dup1\n      revert\n    tag_219:\n      pop\n      gas\n      call\n      iszero\n      dup1\n      iszero\n      tag_221\n      jumpi\n      returndatasize\n      0x00\n      dup1\n      returndatacopy\n      revert(0x00, returndatasize)\n    tag_221:\n      pop\n      pop\n      pop\n      pop\n        /* \"BCMMarket2.sol\":3953:3963  msg.sender */\n      caller\n        /* \"BCMMarket2.sol\":3916:3964  NFTSold(nftContract, tokenId, price, msg.sender) */\n      0xffffffffffffffffffffffffffffffffffffffff\n      and\n        /* \"BCMMarket2.sol\":3937:3944  tokenId */\n      dup6\n        /* \"BCMMarket2.sol\":3924:3935  nftContract */\n      dup8\n        /* \"BCMMarket2.sol\":3916:3964  NFTSold(nftContract, tokenId, price, msg.sender) */\n      0xffffffffffffffffffffffffffffffffffffffff\n      and\n      0x77c3ced349b08a2af4e9d443fb697437c3197b3095d43fcbdc2cdc97b1a60e0c\n        /* \"BCMMarket2.sol\":3946:3951  price */\n      dup5\n        /* \"BCMMarket2.sol\":3916:3964  NFTSold(nftContract, tokenId, price, msg.sender) */\n      mload(0x40)\n      tag_222\n      swap2\n      swap1\n      tag_42\n      jump\t// in\n    tag_222:\n      mload(0x40)\n      dup1\n      swap2\n      sub\n      swap1\n      log4\n        /* \"BCMMarket2.sol\":3981:3985  true */\n      0x01\n        /* \"BCMMarket2.sol\":3974:3985  return true */\n      swap4\n      pop\n      pop\n      pop\n      pop\n        /* \"@openzeppelin/contracts/security/ReentrancyGuard.sol\":2292:2293  _ */\n    tag_206:\n        /* \"@openzeppelin/contracts/security/ReentrancyGuard.sol\":2303:2323  _nonReentrantAfter() */\n      tag_223\n        /* \"@openzeppelin/contracts/security/ReentrancyGuard.sol\":2303:2321  _nonReentrantAfter */\n      tag_224\n        /* \"@openzeppelin/contracts/security/ReentrancyGuard.sol\":2303:2323  _nonReentrantAfter() */\n      jump\t// in\n    tag_223:\n        /* \"BCMMarket2.sol\":3115:3992  function buyNFT(address nftContract, uint256 tokenId) public nonReentrant returns (bool success) {... */\n      swap3\n      swap2\n      pop\n      pop\n      jump\t// out\n        /* \"BCMMarket2.sol\":6053:6578  function listUpTo(address nftContract, uint256[] calldata tokenIds, uint16 group, uint256 maxCount) external returns (uint256[] memory listed) {... */\n    tag_66:\n        /* \"BCMMarket2.sol\":6171:6194  uint256[] memory listed */\n      0x60\n        /* \"BCMMarket2.sol\":6229:6237  tokenIds */\n      dup5\n      dup5\n        /* \"BCMMarket2.sol\":6229:6244  tokenIds.length */\n      swap1\n      pop\n        /* \"BCMMarket2.sol\":6215:6245  new uint256[](tokenIds.length) */\n      0xffffffffffffffff\n      dup2\n      gt\n      iszero\n      tag_226\n      jumpi\n      tag_227\n      tag_79\n      jump\t// in\n    tag_227:\n    tag_226:\n      mload(0x40)\n      swap1\n      dup1\n      dup3\n      mstore\n      dup1\n      0x20\n      mul\n      0x20\n      add\n      dup3\n      add\n      0x40\n      mstore\n      dup1\n      iszero\n      tag_228\n      jumpi\n      dup2\n      0x20\n      add\n      0x20\n      dup3\n      mul\n      dup1\n      calldatasize\n      dup4\n      calldatacopy\n      dup1\n      dup3\n      add\n      swap2\n      pop\n      pop\n      swap1\n      pop\n    tag_228:\n      pop\n        /* \"BCMMarket2.sol\":6206:6245  listed = new uint256[](tokenIds.length) */\n      swap1\n      pop\n        /* \"BCMMarket2.sol\":6255:6268  uint256 count */\n      0x00\n        /* \"BCMMarket2.sol\":6287:6296  uint256 i */\n      dup1\n        /* \"BCMMarket2.sol\":6282:6529  for (uint256 i = 0; i < tokenIds.length && count < maxCount; i++) {... */\n    tag_229:\n        /* \"BCMMarket2.sol\":6306:6314  tokenIds */\n      dup7\n      dup7\n        /* \"BCMMarket2.sol\":6306:6321  tokenIds.length */\n      swap1\n      pop\n        /* \"BCMMarket2.sol\":6302:6303  i */\n      dup2\n        /* \"BCMMarket2.sol\":6302:6321  i < tokenIds.length */\n      lt\n        /* \"BCMMarket2.sol\":6302:6341  i < tokenIds.length && count < maxCount */\n      dup1\n      iszero\n      tag_232\n      jumpi\n      pop\n        /* \"BCMMarket2.sol\":6333:6341  maxCount */\n      dup4\n        /* \"BCMMarket2.sol\":6325:6330  count */\n      dup3\n        /* \"BCMMarket2.sol\":6325:6341  count < maxCount */\n      lt\n        /* \"BCMMarket2.sol\":6302:6341  i < tokenIds.length && count < maxCount */\n    tag_232:\n        /* \"BCMMarket2.sol\":6282:6529  for (uint256 i = 0; i < tokenIds.length && count < maxCount; i++) {... */\n      iszero\n      tag_230\n      jumpi\n        /* \"BCMMarket2.sol\":6362:6369  bool ok */\n      0x00\n        /* \"BCMMarket2.sol\":6372:6412  listNFT(nftContract, tokenIds[i], group) */\n      tag_233\n        /* \"BCMMarket2.sol\":6380:6391  nftContract */\n      dup10\n        /* \"BCMMarket2.sol\":6393:6401  tokenIds */\n      dup10\n      dup10\n        /* \"BCMMarket2.sol\":6402:6403  i */\n      dup6\n        /* \"BCMMarket2.sol\":6393:6404  tokenIds[i] */\n      dup2\n      dup2\n      lt\n      tag_234\n      jumpi\n      tag_235\n      tag_86\n      jump\t// in\n    tag_235:\n    tag_234:\n      swap1\n      pop\n      0x20\n      mul\n      add\n      calldataload\n        /* \"BCMMarket2.sol\":6406:6411  group */\n      dup9\n        /* \"BCMMarket2.sol\":6372:6379  listNFT */\n      tag_56\n        /* \"BCMMarket2.sol\":6372:6412  listNFT(nftContract, tokenIds[i], group) */\n      jump\t// in\n    tag_233:\n        /* \"BCMMarket2.sol\":6362:6412  bool ok = listNFT(nftContract, tokenIds[i], group) */\n      swap1\n      pop\n        /* \"BCMMarket2.sol\":6430:6432  ok */\n      dup1\n        /* \"BCMMarket2.sol\":6426:6519  if (ok) {... */\n      iszero\n      tag_236\n      jumpi\n        /* \"BCMMarket2.sol\":6468:6476  tokenIds */\n      dup8\n      dup8\n        /* \"BCMMarket2.sol\":6477:6478  i */\n      dup4\n        /* \"BCMMarket2.sol\":6468:6479  tokenIds[i] */\n      dup2\n      dup2\n      lt\n      tag_237\n      jumpi\n      tag_238\n      tag_86\n      jump\t// in\n    tag_238:\n    tag_237:\n      swap1\n      pop\n      0x20\n      mul\n      add\n      calldataload\n        /* \"BCMMarket2.sol\":6452:6458  listed */\n      dup5\n        /* \"BCMMarket2.sol\":6459:6464  count */\n      dup5\n        /* \"BCMMarket2.sol\":6452:6465  listed[count] */\n      dup2\n      mload\n      dup2\n      lt\n      tag_239\n      jumpi\n      tag_240\n      tag_86\n      jump\t// in\n    tag_240:\n    tag_239:\n      0x20\n      mul\n      0x20\n      add\n      add\n        /* \"BCMMarket2.sol\":6452:6479  listed[count] = tokenIds[i] */\n      dup2\n      dup2\n      mstore\n      pop\n      pop\n        /* \"BCMMarket2.sol\":6497:6504  count++ */\n      dup3\n      dup1\n      tag_241\n      swap1\n      tag_135\n      jump\t// in\n    tag_241:\n      swap4\n      pop\n      pop\n        /* \"BCMMarket2.sol\":6426:6519  if (ok) {... */\n    tag_236:\n        /* \"BCMMarket2.sol\":6348:6529  {... */\n      pop\n        /* \"BCMMarket2.sol\":6343:6346  i++ */\n      dup1\n      dup1\n      tag_242\n      swap1\n      tag_135\n      jump\t// in\n    tag_242:\n      swap2\n      pop\n      pop\n        /* \"BCMMarket2.sol\":6282:6529  for (uint256 i = 0; i < tokenIds.length && count < maxCount; i++) {... */\n      jump(tag_229)\n    tag_230:\n      pop\n        /* \"BCMMarket2.sol\":6564:6569  count */\n      dup1\n        /* \"BCMMarket2.sol\":6556:6562  listed */\n      dup3\n        /* \"BCMMarket2.sol\":6549:6570  mstore(listed, count) */\n      mstore\n        /* \"BCMMarket2.sol\":6547:6572  { mstore(listed, count) } */\n      pop\n        /* \"BCMMarket2.sol\":6053:6578  function listUpTo(address nftContract, uint256[] calldata tokenIds, uint16 group, uint256 maxCount) external returns (uint256[] memory listed) {... */\n      swap6\n      swap5\n      pop\n      pop\n      pop\n      pop\n      pop\n      jump\t// out\n        /* \"BCMMarket2.sol\":2661:3109  function cancelListing(address nftContract, uint256 tokenId)... */\n    tag_70:\n        /* \"BCMMarket2.sol\":2755:2766  nftContract */\n      dup2\n        /* \"BCMMarket2.sol\":2768:2775  tokenId */\n      dup2\n        /* \"BCMMarket2.sol\":2777:2787  msg.sender */\n      caller\n        /* \"BCMMarket2.sol\":1244:1255  IERC721 nft */\n      0x00\n        /* \"BCMMarket2.sol\":1266:1277  nftContract */\n      dup4\n        /* \"BCMMarket2.sol\":1244:1278  IERC721 nft = IERC721(nftContract) */\n      swap1\n      pop\n        /* \"BCMMarket2.sol\":1320:1327  spender */\n      dup2\n        /* \"BCMMarket2.sol\":1296:1327  nft.ownerOf(tokenId) == spender */\n      0xffffffffffffffffffffffffffffffffffffffff\n      and\n        /* \"BCMMarket2.sol\":1296:1299  nft */\n      dup2\n        /* \"BCMMarket2.sol\":1296:1307  nft.ownerOf */\n      0xffffffffffffffffffffffffffffffffffffffff\n      and\n      0x6352211e\n        /* \"BCMMarket2.sol\":1308:1315  tokenId */\n      dup6\n        /* \"BCMMarket2.sol\":1296:1316  nft.ownerOf(tokenId) */\n      mload(0x40)\n      dup3\n      0xffffffff\n      and\n      0xe0\n      shl\n      dup2\n      mstore\n      0x04\n      add\n      tag_244\n      swap2\n      swap1\n      tag_42\n      jump\t// in\n    tag_244:\n      0x20\n      mload(0x40)\n      dup1\n      dup4\n      sub\n      dup2\n      dup7\n      gas\n      staticcall\n      iszero\n      dup1\n      iszero\n      tag_246\n      jumpi\n      returndatasize\n      0x00\n      dup1\n      returndatacopy\n      revert(0x00, returndatasize)\n    tag_246:\n      pop\n      pop\n      pop\n      pop\n      mload(0x40)\n      returndatasize\n      not(0x1f)\n      0x1f\n      dup3\n      add\n      and\n      dup3\n      add\n      dup1\n      0x40\n      mstore\n      pop\n      dup2\n      add\n      swap1\n      tag_247\n      swap2\n      swap1\n      tag_183\n      jump\t// in\n    tag_247:\n        /* \"BCMMarket2.sol\":1296:1327  nft.ownerOf(tokenId) == spender */\n      0xffffffffffffffffffffffffffffffffffffffff\n      and\n      eq\n        /* \"BCMMarket2.sol\":1288:1345  require(nft.ownerOf(tokenId) == spender, \"Not the owner\") */\n      tag_248\n      jumpi\n      mload(0x40)\n      0x08c379a000000000000000000000000000000000000000000000000000000000\n      dup2\n      mstore\n      0x04\n      add\n      tag_249\n      swap1\n      tag_186\n      jump\t// in\n    tag_249:\n      mload(0x40)\n      dup1\n      swap2\n      sub\n      swap1\n      revert\n    tag_248:\n        /* \"BCMMarket2.sol\":2853:2854  0 */\n      0x00\n        /* \"BCMMarket2.sol\":2811:2855  listings[nftContract][tokenId] != address(0) */\n      0xffffffffffffffffffffffffffffffffffffffff\n      and\n        /* \"BCMMarket2.sol\":2811:2819  listings */\n      0x02\n        /* \"BCMMarket2.sol\":2811:2832  listings[nftContract] */\n      0x00\n        /* \"BCMMarket2.sol\":2820:2831  nftContract */\n      dup9\n        /* \"BCMMarket2.sol\":2811:2832  listings[nftContract] */\n      0xffffffffffffffffffffffffffffffffffffffff\n      and\n      0xffffffffffffffffffffffffffffffffffffffff\n      and\n      dup2\n      mstore\n      0x20\n      add\n      swap1\n      dup2\n      mstore\n      0x20\n      add\n      0x00\n      keccak256\n        /* \"BCMMarket2.sol\":2811:2841  listings[nftContract][tokenId] */\n      0x00\n        /* \"BCMMarket2.sol\":2833:2840  tokenId */\n      dup8\n        /* \"BCMMarket2.sol\":2811:2841  listings[nftContract][tokenId] */\n      dup2\n      mstore\n      0x20\n      add\n      swap1\n      dup2\n      mstore\n      0x20\n      add\n      0x00\n      keccak256\n      0x00\n      swap1\n      sload\n      swap1\n      0x0100\n      exp\n      swap1\n      div\n      0xffffffffffffffffffffffffffffffffffffffff\n      and\n        /* \"BCMMarket2.sol\":2811:2855  listings[nftContract][tokenId] != address(0) */\n      0xffffffffffffffffffffffffffffffffffffffff\n      and\n      sub\n        /* \"BCMMarket2.sol\":2803:2870  require(listings[nftContract][tokenId] != address(0), \"Not listed\") */\n      tag_251\n      jumpi\n      mload(0x40)\n      0x08c379a000000000000000000000000000000000000000000000000000000000\n      dup2\n      mstore\n      0x04\n      add\n      tag_252\n      swap1\n      tag_141\n      jump\t// in\n    tag_252:\n      mload(0x40)\n      dup1\n      swap2\n      sub\n      swap1\n      revert\n    tag_251:\n        /* \"BCMMarket2.sol\":2880:2892  uint16 group */\n      0x00\n        /* \"BCMMarket2.sol\":2895:2925  getGroup(nftContract, tokenId) */\n      tag_253\n        /* \"BCMMarket2.sol\":2904:2915  nftContract */\n      dup8\n        /* \"BCMMarket2.sol\":2917:2924  tokenId */\n      dup8\n        /* \"BCMMarket2.sol\":2895:2903  getGroup */\n      tag_91\n        /* \"BCMMarket2.sol\":2895:2925  getGroup(nftContract, tokenId) */\n      jump\t// in\n    tag_253:\n        /* \"BCMMarket2.sol\":2880:2925  uint16 group = getGroup(nftContract, tokenId) */\n      swap1\n      pop\n        /* \"BCMMarket2.sol\":2942:2950  listings */\n      0x02\n        /* \"BCMMarket2.sol\":2942:2963  listings[nftContract] */\n      0x00\n        /* \"BCMMarket2.sol\":2951:2962  nftContract */\n      dup9\n        /* \"BCMMarket2.sol\":2942:2963  listings[nftContract] */\n      0xffffffffffffffffffffffffffffffffffffffff\n      and\n      0xffffffffffffffffffffffffffffffffffffffff\n      and\n      dup2\n      mstore\n      0x20\n      add\n      swap1\n      dup2\n      mstore\n      0x20\n      add\n      0x00\n      keccak256\n        /* \"BCMMarket2.sol\":2942:2972  listings[nftContract][tokenId] */\n      0x00\n        /* \"BCMMarket2.sol\":2964:2971  tokenId */\n      dup8\n        /* \"BCMMarket2.sol\":2942:2972  listings[nftContract][tokenId] */\n      dup2\n      mstore\n      0x20\n      add\n      swap1\n      dup2\n      mstore\n      0x20\n      add\n      0x00\n      keccak256\n      0x00\n        /* \"BCMMarket2.sol\":2935:2972  delete listings[nftContract][tokenId] */\n      0x0100\n      exp\n      dup2\n      sload\n      swap1\n      0xffffffffffffffffffffffffffffffffffffffff\n      mul\n      not\n      and\n      swap1\n      sstore\n        /* \"BCMMarket2.sol\":2982:3034  _removeTokenIdFromGroup(group, nftContract, tokenId) */\n      tag_254\n        /* \"BCMMarket2.sol\":3006:3011  group */\n      dup2\n        /* \"BCMMarket2.sol\":3013:3024  nftContract */\n      dup9\n        /* \"BCMMarket2.sol\":3026:3033  tokenId */\n      dup9\n        /* \"BCMMarket2.sol\":2982:3005  _removeTokenIdFromGroup */\n      tag_120\n        /* \"BCMMarket2.sol\":2982:3034  _removeTokenIdFromGroup(group, nftContract, tokenId) */\n      jump\t// in\n    tag_254:\n        /* \"BCMMarket2.sol\":3091:3101  msg.sender */\n      caller\n        /* \"BCMMarket2.sol\":3049:3102  NFTListingCancelled(nftContract, tokenId, msg.sender) */\n      0xffffffffffffffffffffffffffffffffffffffff\n      and\n        /* \"BCMMarket2.sol\":3082:3089  tokenId */\n      dup7\n        /* \"BCMMarket2.sol\":3069:3080  nftContract */\n      dup9\n        /* \"BCMMarket2.sol\":3049:3102  NFTListingCancelled(nftContract, tokenId, msg.sender) */\n      0xffffffffffffffffffffffffffffffffffffffff\n      and\n      0x83614a26fd4398c876bd6684c0d04cf2e84ee7e4bc24e8d8888ab0e724bac032\n      mload(0x40)\n      mload(0x40)\n      dup1\n      swap2\n      sub\n      swap1\n      log4\n        /* \"BCMMarket2.sol\":2793:3109  {... */\n      pop\n        /* \"BCMMarket2.sol\":1234:1363  {... */\n      pop\n        /* \"BCMMarket2.sol\":2661:3109  function cancelListing(address nftContract, uint256 tokenId)... */\n      pop\n      pop\n      pop\n      pop\n      pop\n      jump\t// out\n        /* \"BCMMarket2.sol\":6584:6740  function getGroupPrice(uint16 group) public pure returns (uint256) {... */\n    tag_74:\n        /* \"BCMMarket2.sol\":6642:6649  uint256 */\n      0x00\n        /* \"BCMMarket2.sol\":6677:6678  0 */\n      dup1\n        /* \"BCMMarket2.sol\":6669:6674  group */\n      dup3\n        /* \"BCMMarket2.sol\":6669:6678  group > 0 */\n      0xffff\n      and\n      gt\n        /* \"BCMMarket2.sol\":6661:6696  require(group > 0, \"Invalid group\") */\n      tag_256\n      jumpi\n      mload(0x40)\n      0x08c379a000000000000000000000000000000000000000000000000000000000\n      dup2\n      mstore\n      0x04\n      add\n      tag_257\n      swap1\n      tag_258\n      jump\t// in\n    tag_257:\n      mload(0x40)\n      dup1\n      swap2\n      sub\n      swap1\n      revert\n    tag_256:\n        /* \"BCMMarket2.sol\":6730:6733  1e6 */\n      0x0f4240\n        /* \"BCMMarket2.sol\":6721:6726  group */\n      dup3\n        /* \"BCMMarket2.sol\":6713:6727  uint256(group) */\n      0xffff\n      and\n        /* \"BCMMarket2.sol\":6713:6733  uint256(group) * 1e6 */\n      tag_259\n      swap2\n      swap1\n      tag_260\n      jump\t// in\n    tag_259:\n        /* \"BCMMarket2.sol\":6706:6733  return uint256(group) * 1e6 */\n      swap1\n      pop\n        /* \"BCMMarket2.sol\":6584:6740  function getGroupPrice(uint16 group) public pure returns (uint256) {... */\n      swap2\n      swap1\n      pop\n      jump\t// out\n        /* \"BCMMarket2.sol\":6746:7080  function getGroup(address nftContract, uint256 tokenId) internal returns (uint16) {... */\n    tag_91:\n        /* \"BCMMarket2.sol\":6820:6826  uint16 */\n      0x00\n        /* \"BCMMarket2.sol\":6839:6851  bool success */\n      dup1\n        /* \"BCMMarket2.sol\":6853:6872  bytes memory result */\n      0x00\n        /* \"BCMMarket2.sol\":6884:6895  nftContract */\n      dup5\n        /* \"BCMMarket2.sol\":6876:6901  address(nftContract).call */\n      0xffffffffffffffffffffffffffffffffffffffff\n      and\n        /* \"BCMMarket2.sol\":6965:6972  tokenId */\n      dup5\n        /* \"BCMMarket2.sol\":6915:6973  abi.encodeWithSignature(\"getTokenGroup(uint256)\", tokenId) */\n      add(0x24, mload(0x40))\n      tag_262\n      swap2\n      swap1\n      tag_42\n      jump\t// in\n    tag_262:\n      mload(0x40)\n      0x20\n      dup2\n      dup4\n      sub\n      sub\n      dup2\n      mstore\n      swap1\n      0x40\n      mstore\n      and(not(0xffffffffffffffffffffffffffffffffffffffffffffffffffffffff), 0x8166c9dc00000000000000000000000000000000000000000000000000000000)\n      0x20\n      dup3\n      add\n      dup1\n      mload\n      0xffffffffffffffffffffffffffffffffffffffffffffffffffffffff\n      dup4\n      dup2\n      dup4\n      and\n      or\n      dup4\n      mstore\n      pop\n      pop\n      pop\n      pop\n        /* \"BCMMarket2.sol\":6876:6983  address(nftContract).call(... */\n      mload(0x40)\n      tag_263\n      swap2\n      swap1\n      tag_264\n      jump\t// in\n    tag_263:\n      0x00\n      mload(0x40)\n      dup1\n      dup4\n      sub\n      dup2\n      0x00\n      dup7\n      gas\n      call\n      swap2\n      pop\n      pop\n      returndatasize\n      dup1\n      0x00\n      dup2\n      eq\n      tag_267\n      jumpi\n      mload(0x40)\n      swap2\n      pop\n      and(add(returndatasize, 0x3f), not(0x1f))\n      dup3\n      add\n      0x40\n      mstore\n      returndatasize\n      dup3\n      mstore\n      returndatasize\n      0x00\n      0x20\n      dup5\n      add\n      returndatacopy\n      jump(tag_266)\n    tag_267:\n      0x60\n      swap2\n      pop\n    tag_266:\n      pop\n        /* \"BCMMarket2.sol\":6838:6983  (bool success, bytes memory result) = address(nftContract).call(... */\n      swap2\n      pop\n      swap2\n      pop\n        /* \"BCMMarket2.sol\":7001:7008  success */\n      dup2\n        /* \"BCMMarket2.sol\":6993:7028  require(success, \"Group not found\") */\n      tag_268\n      jumpi\n      mload(0x40)\n      0x08c379a000000000000000000000000000000000000000000000000000000000\n      dup2\n      mstore\n      0x04\n      add\n      tag_269\n      swap1\n      tag_270\n      jump\t// in\n    tag_269:\n      mload(0x40)\n      dup1\n      swap2\n      sub\n      swap1\n      revert\n    tag_268:\n        /* \"BCMMarket2.sol\":7056:7062  result */\n      dup1\n        /* \"BCMMarket2.sol\":7045:7073  abi.decode(result, (uint16)) */\n      dup1\n      0x20\n      add\n      swap1\n      mload\n      dup2\n      add\n      swap1\n      tag_271\n      swap2\n      swap1\n      tag_272\n      jump\t// in\n    tag_271:\n        /* \"BCMMarket2.sol\":7038:7073  return abi.decode(result, (uint16)) */\n      swap3\n      pop\n      pop\n      pop\n        /* \"BCMMarket2.sol\":6746:7080  function getGroup(address nftContract, uint256 tokenId) internal returns (uint16) {... */\n      swap3\n      swap2\n      pop\n      pop\n      jump\t// out\n        /* \"BCMMarket2.sol\":7088:7485  function _removeTokenIdFromGroup(uint16 group, address nftContract, uint256 tokenId) internal {... */\n    tag_120:\n        /* \"BCMMarket2.sol\":7192:7216  uint256[] storage tokens */\n      0x00\n        /* \"BCMMarket2.sol\":7219:7232  groupTokenIds */\n      0x04\n        /* \"BCMMarket2.sol\":7219:7239  groupTokenIds[group] */\n      0x00\n        /* \"BCMMarket2.sol\":7233:7238  group */\n      dup6\n        /* \"BCMMarket2.sol\":7219:7239  groupTokenIds[group] */\n      0xffff\n      and\n      0xffff\n      and\n      dup2\n      mstore\n      0x20\n      add\n      swap1\n      dup2\n      mstore\n      0x20\n      add\n      0x00\n      keccak256\n        /* \"BCMMarket2.sol\":7219:7252  groupTokenIds[group][nftContract] */\n      0x00\n        /* \"BCMMarket2.sol\":7240:7251  nftContract */\n      dup5\n        /* \"BCMMarket2.sol\":7219:7252  groupTokenIds[group][nftContract] */\n      0xffffffffffffffffffffffffffffffffffffffff\n      and\n      0xffffffffffffffffffffffffffffffffffffffff\n      and\n      dup2\n      mstore\n      0x20\n      add\n      swap1\n      dup2\n      mstore\n      0x20\n      add\n      0x00\n      keccak256\n        /* \"BCMMarket2.sol\":7192:7252  uint256[] storage tokens = groupTokenIds[group][nftContract] */\n      swap1\n      pop\n        /* \"BCMMarket2.sol\":7267:7276  uint256 i */\n      0x00\n        /* \"BCMMarket2.sol\":7262:7479  for (uint256 i = 0; i < tokens.length; i++) {... */\n    tag_274:\n        /* \"BCMMarket2.sol\":7286:7292  tokens */\n      dup2\n        /* \"BCMMarket2.sol\":7286:7299  tokens.length */\n      dup1\n      sload\n      swap1\n      pop\n        /* \"BCMMarket2.sol\":7282:7283  i */\n      dup2\n        /* \"BCMMarket2.sol\":7282:7299  i < tokens.length */\n      lt\n        /* \"BCMMarket2.sol\":7262:7479  for (uint256 i = 0; i < tokens.length; i++) {... */\n      iszero\n      tag_275\n      jumpi\n        /* \"BCMMarket2.sol\":7337:7344  tokenId */\n      dup3\n        /* \"BCMMarket2.sol\":7324:7330  tokens */\n      dup3\n        /* \"BCMMarket2.sol\":7331:7332  i */\n      dup3\n        /* \"BCMMarket2.sol\":7324:7333  tokens[i] */\n      dup2\n      sload\n      dup2\n      lt\n      tag_277\n      jumpi\n      tag_278\n      tag_86\n      jump\t// in\n    tag_278:\n    tag_277:\n      swap1\n      0x00\n      mstore\n      keccak256(0x00, 0x20)\n      add\n      sload\n        /* \"BCMMarket2.sol\":7324:7344  tokens[i] == tokenId */\n      sub\n        /* \"BCMMarket2.sol\":7320:7469  if (tokens[i] == tokenId) {... */\n      tag_280\n      jumpi\n        /* \"BCMMarket2.sol\":7376:7382  tokens */\n      dup2\n        /* \"BCMMarket2.sol\":7399:7400  1 */\n      0x01\n        /* \"BCMMarket2.sol\":7383:7389  tokens */\n      dup4\n        /* \"BCMMarket2.sol\":7383:7396  tokens.length */\n      dup1\n      sload\n      swap1\n      pop\n        /* \"BCMMarket2.sol\":7383:7400  tokens.length - 1 */\n      tag_281\n      swap2\n      swap1\n      tag_282\n      jump\t// in\n    tag_281:\n        /* \"BCMMarket2.sol\":7376:7401  tokens[tokens.length - 1] */\n      dup2\n      sload\n      dup2\n      lt\n      tag_283\n      jumpi\n      tag_284\n      tag_86\n      jump\t// in\n    tag_284:\n    tag_283:\n      swap1\n      0x00\n      mstore\n      keccak256(0x00, 0x20)\n      add\n      sload\n        /* \"BCMMarket2.sol\":7364:7370  tokens */\n      dup3\n        /* \"BCMMarket2.sol\":7371:7372  i */\n      dup3\n        /* \"BCMMarket2.sol\":7364:7373  tokens[i] */\n      dup2\n      sload\n      dup2\n      lt\n      tag_286\n      jumpi\n      tag_287\n      tag_86\n      jump\t// in\n    tag_287:\n    tag_286:\n      swap1\n      0x00\n      mstore\n      keccak256(0x00, 0x20)\n      add\n        /* \"BCMMarket2.sol\":7364:7401  tokens[i] = tokens[tokens.length - 1] */\n      dup2\n      swap1\n      sstore\n      pop\n        /* \"BCMMarket2.sol\":7419:7425  tokens */\n      dup2\n        /* \"BCMMarket2.sol\":7419:7431  tokens.pop() */\n      dup1\n      sload\n      dup1\n      tag_289\n      jumpi\n      tag_290\n      tag_291\n      jump\t// in\n    tag_290:\n    tag_289:\n      0x01\n      swap1\n      sub\n      dup2\n      dup2\n      swap1\n      0x00\n      mstore\n      keccak256(0x00, 0x20)\n      add\n      0x00\n      swap1\n      sstore\n      swap1\n      sstore\n        /* \"BCMMarket2.sol\":7449:7454  break */\n      jump(tag_275)\n        /* \"BCMMarket2.sol\":7320:7469  if (tokens[i] == tokenId) {... */\n    tag_280:\n        /* \"BCMMarket2.sol\":7301:7304  i++ */\n      dup1\n      dup1\n      0x01\n      add\n      swap2\n      pop\n      pop\n        /* \"BCMMarket2.sol\":7262:7479  for (uint256 i = 0; i < tokens.length; i++) {... */\n      jump(tag_274)\n    tag_275:\n      pop\n        /* \"BCMMarket2.sol\":7182:7485  {... */\n      pop\n        /* \"BCMMarket2.sol\":7088:7485  function _removeTokenIdFromGroup(uint16 group, address nftContract, uint256 tokenId) internal {... */\n      pop\n      pop\n      pop\n      jump\t// out\n        /* \"@openzeppelin/contracts/security/ReentrancyGuard.sol\":2336:2623  function _nonReentrantBefore() private {... */\n    tag_205:\n        /* \"@openzeppelin/contracts/security/ReentrancyGuard.sol\":1759:1760  2 */\n      0x02\n        /* \"@openzeppelin/contracts/security/ReentrancyGuard.sol\":2468:2475  _status */\n      sload(0x00)\n        /* \"@openzeppelin/contracts/security/ReentrancyGuard.sol\":2468:2487  _status != _ENTERED */\n      sub\n        /* \"@openzeppelin/contracts/security/ReentrancyGuard.sol\":2460:2523  require(_status != _ENTERED, \"ReentrancyGuard: reentrant call\") */\n      tag_294\n      jumpi\n      mload(0x40)\n      0x08c379a000000000000000000000000000000000000000000000000000000000\n      dup2\n      mstore\n      0x04\n      add\n      tag_295\n      swap1\n      tag_296\n      jump\t// in\n    tag_295:\n      mload(0x40)\n      dup1\n      swap2\n      sub\n      swap1\n      revert\n    tag_294:\n        /* \"@openzeppelin/contracts/security/ReentrancyGuard.sol\":1759:1760  2 */\n      0x02\n        /* \"@openzeppelin/contracts/security/ReentrancyGuard.sol\":2598:2605  _status */\n      0x00\n        /* \"@openzeppelin/contracts/security/ReentrancyGuard.sol\":2598:2616  _status = _ENTERED */\n      dup2\n      swap1\n      sstore\n      pop\n        /* \"@openzeppelin/contracts/security/ReentrancyGuard.sol\":2336:2623  function _nonReentrantBefore() private {... */\n      jump\t// out\n        /* \"@openzeppelin/contracts/security/ReentrancyGuard.sol\":2629:2838  function _nonReentrantAfter() private {... */\n    tag_224:\n        /* \"@openzeppelin/contracts/security/ReentrancyGuard.sol\":1716:1717  1 */\n      0x01\n        /* \"@openzeppelin/contracts/security/ReentrancyGuard.sol\":2809:2816  _status */\n      0x00\n        /* \"@openzeppelin/contracts/security/ReentrancyGuard.sol\":2809:2831  _status = _NOT_ENTERED */\n      dup2\n      swap1\n      sstore\n      pop\n        /* \"@openzeppelin/contracts/security/ReentrancyGuard.sol\":2629:2838  function _nonReentrantAfter() private {... */\n      jump\t// out\n        /* \"#utility.yul\":88:205   */\n    tag_299:\n        /* \"#utility.yul\":197:198   */\n      0x00\n        /* \"#utility.yul\":194:195   */\n      dup1\n        /* \"#utility.yul\":187:199   */\n      revert\n        /* \"#utility.yul\":211:328   */\n    tag_300:\n        /* \"#utility.yul\":320:321   */\n      0x00\n        /* \"#utility.yul\":317:318   */\n      dup1\n        /* \"#utility.yul\":310:322   */\n      revert\n        /* \"#utility.yul\":334:460   */\n    tag_301:\n        /* \"#utility.yul\":371:378   */\n      0x00\n        /* \"#utility.yul\":411:453   */\n      0xffffffffffffffffffffffffffffffffffffffff\n        /* \"#utility.yul\":404:409   */\n      dup3\n        /* \"#utility.yul\":400:454   */\n      and\n        /* \"#utility.yul\":389:454   */\n      swap1\n      pop\n        /* \"#utility.yul\":334:460   */\n      swap2\n      swap1\n      pop\n      jump\t// out\n        /* \"#utility.yul\":466:562   */\n    tag_302:\n        /* \"#utility.yul\":503:510   */\n      0x00\n        /* \"#utility.yul\":532:556   */\n      tag_366\n        /* \"#utility.yul\":550:555   */\n      dup3\n        /* \"#utility.yul\":532:556   */\n      tag_301\n      jump\t// in\n    tag_366:\n        /* \"#utility.yul\":521:556   */\n      swap1\n      pop\n        /* \"#utility.yul\":466:562   */\n      swap2\n      swap1\n      pop\n      jump\t// out\n        /* \"#utility.yul\":568:690   */\n    tag_303:\n        /* \"#utility.yul\":641:665   */\n      tag_368\n        /* \"#utility.yul\":659:664   */\n      dup2\n        /* \"#utility.yul\":641:665   */\n      tag_302\n      jump\t// in\n    tag_368:\n        /* \"#utility.yul\":634:639   */\n      dup2\n        /* \"#utility.yul\":631:666   */\n      eq\n        /* \"#utility.yul\":621:684   */\n      tag_369\n      jumpi\n        /* \"#utility.yul\":680:681   */\n      0x00\n        /* \"#utility.yul\":677:678   */\n      dup1\n        /* \"#utility.yul\":670:682   */\n      revert\n        /* \"#utility.yul\":621:684   */\n    tag_369:\n        /* \"#utility.yul\":568:690   */\n      pop\n      jump\t// out\n        /* \"#utility.yul\":696:835   */\n    tag_304:\n        /* \"#utility.yul\":742:747   */\n      0x00\n        /* \"#utility.yul\":780:786   */\n      dup2\n        /* \"#utility.yul\":767:787   */\n      calldataload\n        /* \"#utility.yul\":758:787   */\n      swap1\n      pop\n        /* \"#utility.yul\":796:829   */\n      tag_371\n        /* \"#utility.yul\":823:828   */\n      dup2\n        /* \"#utility.yul\":796:829   */\n      tag_303\n      jump\t// in\n    tag_371:\n        /* \"#utility.yul\":696:835   */\n      swap3\n      swap2\n      pop\n      pop\n      jump\t// out\n        /* \"#utility.yul\":841:918   */\n    tag_305:\n        /* \"#utility.yul\":878:885   */\n      0x00\n        /* \"#utility.yul\":907:912   */\n      dup2\n        /* \"#utility.yul\":896:912   */\n      swap1\n      pop\n        /* \"#utility.yul\":841:918   */\n      swap2\n      swap1\n      pop\n      jump\t// out\n        /* \"#utility.yul\":924:1046   */\n    tag_306:\n        /* \"#utility.yul\":997:1021   */\n      tag_374\n        /* \"#utility.yul\":1015:1020   */\n      dup2\n        /* \"#utility.yul\":997:1021   */\n      tag_305\n      jump\t// in\n    tag_374:\n        /* \"#utility.yul\":990:995   */\n      dup2\n        /* \"#utility.yul\":987:1022   */\n      eq\n        /* \"#utility.yul\":977:1040   */\n      tag_375\n      jumpi\n        /* \"#utility.yul\":1036:1037   */\n      0x00\n        /* \"#utility.yul\":1033:1034   */\n      dup1\n        /* \"#utility.yul\":1026:1038   */\n      revert\n        /* \"#utility.yul\":977:1040   */\n    tag_375:\n        /* \"#utility.yul\":924:1046   */\n      pop\n      jump\t// out\n        /* \"#utility.yul\":1052:1191   */\n    tag_307:\n        /* \"#utility.yul\":1098:1103   */\n      0x00\n        /* \"#utility.yul\":1136:1142   */\n      dup2\n        /* \"#utility.yul\":1123:1143   */\n      calldataload\n        /* \"#utility.yul\":1114:1143   */\n      swap1\n      pop\n        /* \"#utility.yul\":1152:1185   */\n      tag_377\n        /* \"#utility.yul\":1179:1184   */\n      dup2\n        /* \"#utility.yul\":1152:1185   */\n      tag_306\n      jump\t// in\n    tag_377:\n        /* \"#utility.yul\":1052:1191   */\n      swap3\n      swap2\n      pop\n      pop\n      jump\t// out\n        /* \"#utility.yul\":1197:1671   */\n    tag_18:\n        /* \"#utility.yul\":1265:1271   */\n      0x00\n        /* \"#utility.yul\":1273:1279   */\n      dup1\n        /* \"#utility.yul\":1322:1324   */\n      0x40\n        /* \"#utility.yul\":1310:1319   */\n      dup4\n        /* \"#utility.yul\":1301:1308   */\n      dup6\n        /* \"#utility.yul\":1297:1320   */\n      sub\n        /* \"#utility.yul\":1293:1325   */\n      slt\n        /* \"#utility.yul\":1290:1409   */\n      iszero\n      tag_379\n      jumpi\n        /* \"#utility.yul\":1328:1407   */\n      tag_380\n      tag_299\n      jump\t// in\n    tag_380:\n        /* \"#utility.yul\":1290:1409   */\n    tag_379:\n        /* \"#utility.yul\":1448:1449   */\n      0x00\n        /* \"#utility.yul\":1473:1526   */\n      tag_381\n        /* \"#utility.yul\":1518:1525   */\n      dup6\n        /* \"#utility.yul\":1509:1515   */\n      dup3\n        /* \"#utility.yul\":1498:1507   */\n      dup7\n        /* \"#utility.yul\":1494:1516   */\n      add\n        /* \"#utility.yul\":1473:1526   */\n      tag_304\n      jump\t// in\n    tag_381:\n        /* \"#utility.yul\":1463:1526   */\n      swap3\n      pop\n        /* \"#utility.yul\":1419:1536   */\n      pop\n        /* \"#utility.yul\":1575:1577   */\n      0x20\n        /* \"#utility.yul\":1601:1654   */\n      tag_382\n        /* \"#utility.yul\":1646:1653   */\n      dup6\n        /* \"#utility.yul\":1637:1643   */\n      dup3\n        /* \"#utility.yul\":1626:1635   */\n      dup7\n        /* \"#utility.yul\":1622:1644   */\n      add\n        /* \"#utility.yul\":1601:1654   */\n      tag_307\n      jump\t// in\n    tag_382:\n        /* \"#utility.yul\":1591:1654   */\n      swap2\n      pop\n        /* \"#utility.yul\":1546:1664   */\n      pop\n        /* \"#utility.yul\":1197:1671   */\n      swap3\n      pop\n      swap3\n      swap1\n      pop\n      jump\t// out\n        /* \"#utility.yul\":1677:1795   */\n    tag_308:\n        /* \"#utility.yul\":1764:1788   */\n      tag_384\n        /* \"#utility.yul\":1782:1787   */\n      dup2\n        /* \"#utility.yul\":1764:1788   */\n      tag_302\n      jump\t// in\n    tag_384:\n        /* \"#utility.yul\":1759:1762   */\n      dup3\n        /* \"#utility.yul\":1752:1789   */\n      mstore\n        /* \"#utility.yul\":1677:1795   */\n      pop\n      pop\n      jump\t// out\n        /* \"#utility.yul\":1801:2023   */\n    tag_21:\n        /* \"#utility.yul\":1894:1898   */\n      0x00\n        /* \"#utility.yul\":1932:1934   */\n      0x20\n        /* \"#utility.yul\":1921:1930   */\n      dup3\n        /* \"#utility.yul\":1917:1935   */\n      add\n        /* \"#utility.yul\":1909:1935   */\n      swap1\n      pop\n        /* \"#utility.yul\":1945:2016   */\n      tag_386\n        /* \"#utility.yul\":2013:2014   */\n      0x00\n        /* \"#utility.yul\":2002:2011   */\n      dup4\n        /* \"#utility.yul\":1998:2015   */\n      add\n        /* \"#utility.yul\":1989:1995   */\n      dup5\n        /* \"#utility.yul\":1945:2016   */\n      tag_308\n      jump\t// in\n    tag_386:\n        /* \"#utility.yul\":1801:2023   */\n      swap3\n      swap2\n      pop\n      pop\n      jump\t// out\n        /* \"#utility.yul\":2029:2146   */\n    tag_309:\n        /* \"#utility.yul\":2138:2139   */\n      0x00\n        /* \"#utility.yul\":2135:2136   */\n      dup1\n        /* \"#utility.yul\":2128:2140   */\n      revert\n        /* \"#utility.yul\":2152:2269   */\n    tag_310:\n        /* \"#utility.yul\":2261:2262   */\n      0x00\n        /* \"#utility.yul\":2258:2259   */\n      dup1\n        /* \"#utility.yul\":2251:2263   */\n      revert\n        /* \"#utility.yul\":2275:2392   */\n    tag_311:\n        /* \"#utility.yul\":2384:2385   */\n      0x00\n        /* \"#utility.yul\":2381:2382   */\n      dup1\n        /* \"#utility.yul\":2374:2386   */\n      revert\n        /* \"#utility.yul\":2415:2983   */\n    tag_312:\n        /* \"#utility.yul\":2488:2496   */\n      0x00\n        /* \"#utility.yul\":2498:2504   */\n      dup1\n        /* \"#utility.yul\":2548:2551   */\n      dup4\n        /* \"#utility.yul\":2541:2545   */\n      0x1f\n        /* \"#utility.yul\":2533:2539   */\n      dup5\n        /* \"#utility.yul\":2529:2546   */\n      add\n        /* \"#utility.yul\":2525:2552   */\n      slt\n        /* \"#utility.yul\":2515:2637   */\n      tag_391\n      jumpi\n        /* \"#utility.yul\":2556:2635   */\n      tag_392\n      tag_309\n      jump\t// in\n    tag_392:\n        /* \"#utility.yul\":2515:2637   */\n    tag_391:\n        /* \"#utility.yul\":2669:2675   */\n      dup3\n        /* \"#utility.yul\":2656:2676   */\n      calldataload\n        /* \"#utility.yul\":2646:2676   */\n      swap1\n      pop\n        /* \"#utility.yul\":2699:2717   */\n      0xffffffffffffffff\n        /* \"#utility.yul\":2691:2697   */\n      dup2\n        /* \"#utility.yul\":2688:2718   */\n      gt\n        /* \"#utility.yul\":2685:2802   */\n      iszero\n      tag_393\n      jumpi\n        /* \"#utility.yul\":2721:2800   */\n      tag_394\n      tag_310\n      jump\t// in\n    tag_394:\n        /* \"#utility.yul\":2685:2802   */\n    tag_393:\n        /* \"#utility.yul\":2835:2839   */\n      0x20\n        /* \"#utility.yul\":2827:2833   */\n      dup4\n        /* \"#utility.yul\":2823:2840   */\n      add\n        /* \"#utility.yul\":2811:2840   */\n      swap2\n      pop\n        /* \"#utility.yul\":2889:2892   */\n      dup4\n        /* \"#utility.yul\":2881:2885   */\n      0x20\n        /* \"#utility.yul\":2873:2879   */\n      dup3\n        /* \"#utility.yul\":2869:2886   */\n      mul\n        /* \"#utility.yul\":2859:2867   */\n      dup4\n        /* \"#utility.yul\":2855:2887   */\n      add\n        /* \"#utility.yul\":2852:2893   */\n      gt\n        /* \"#utility.yul\":2849:2977   */\n      iszero\n      tag_395\n      jumpi\n        /* \"#utility.yul\":2896:2975   */\n      tag_396\n      tag_311\n      jump\t// in\n    tag_396:\n        /* \"#utility.yul\":2849:2977   */\n    tag_395:\n        /* \"#utility.yul\":2415:2983   */\n      swap3\n      pop\n      swap3\n      swap1\n      pop\n      jump\t// out\n        /* \"#utility.yul\":2989:3838   */\n    tag_24:\n        /* \"#utility.yul\":3093:3099   */\n      0x00\n        /* \"#utility.yul\":3101:3107   */\n      dup1\n        /* \"#utility.yul\":3109:3115   */\n      0x00\n        /* \"#utility.yul\":3117:3123   */\n      dup1\n        /* \"#utility.yul\":3166:3168   */\n      0x60\n        /* \"#utility.yul\":3154:3163   */\n      dup6\n        /* \"#utility.yul\":3145:3152   */\n      dup8\n        /* \"#utility.yul\":3141:3164   */\n      sub\n        /* \"#utility.yul\":3137:3169   */\n      slt\n        /* \"#utility.yul\":3134:3253   */\n      iszero\n      tag_398\n      jumpi\n        /* \"#utility.yul\":3172:3251   */\n      tag_399\n      tag_299\n      jump\t// in\n    tag_399:\n        /* \"#utility.yul\":3134:3253   */\n    tag_398:\n        /* \"#utility.yul\":3292:3293   */\n      0x00\n        /* \"#utility.yul\":3317:3370   */\n      tag_400\n        /* \"#utility.yul\":3362:3369   */\n      dup8\n        /* \"#utility.yul\":3353:3359   */\n      dup3\n        /* \"#utility.yul\":3342:3351   */\n      dup9\n        /* \"#utility.yul\":3338:3360   */\n      add\n        /* \"#utility.yul\":3317:3370   */\n      tag_304\n      jump\t// in\n    tag_400:\n        /* \"#utility.yul\":3307:3370   */\n      swap5\n      pop\n        /* \"#utility.yul\":3263:3380   */\n      pop\n        /* \"#utility.yul\":3447:3449   */\n      0x20\n        /* \"#utility.yul\":3436:3445   */\n      dup6\n        /* \"#utility.yul\":3432:3450   */\n      add\n        /* \"#utility.yul\":3419:3451   */\n      calldataload\n        /* \"#utility.yul\":3478:3496   */\n      0xffffffffffffffff\n        /* \"#utility.yul\":3470:3476   */\n      dup2\n        /* \"#utility.yul\":3467:3497   */\n      gt\n        /* \"#utility.yul\":3464:3581   */\n      iszero\n      tag_401\n      jumpi\n        /* \"#utility.yul\":3500:3579   */\n      tag_402\n      tag_300\n      jump\t// in\n    tag_402:\n        /* \"#utility.yul\":3464:3581   */\n    tag_401:\n        /* \"#utility.yul\":3613:3693   */\n      tag_403\n        /* \"#utility.yul\":3685:3692   */\n      dup8\n        /* \"#utility.yul\":3676:3682   */\n      dup3\n        /* \"#utility.yul\":3665:3674   */\n      dup9\n        /* \"#utility.yul\":3661:3683   */\n      add\n        /* \"#utility.yul\":3613:3693   */\n      tag_312\n      jump\t// in\n    tag_403:\n        /* \"#utility.yul\":3595:3693   */\n      swap4\n      pop\n      swap4\n      pop\n        /* \"#utility.yul\":3390:3703   */\n      pop\n        /* \"#utility.yul\":3742:3744   */\n      0x40\n        /* \"#utility.yul\":3768:3821   */\n      tag_404\n        /* \"#utility.yul\":3813:3820   */\n      dup8\n        /* \"#utility.yul\":3804:3810   */\n      dup3\n        /* \"#utility.yul\":3793:3802   */\n      dup9\n        /* \"#utility.yul\":3789:3811   */\n      add\n        /* \"#utility.yul\":3768:3821   */\n      tag_307\n      jump\t// in\n    tag_404:\n        /* \"#utility.yul\":3758:3821   */\n      swap2\n      pop\n        /* \"#utility.yul\":3713:3831   */\n      pop\n        /* \"#utility.yul\":2989:3838   */\n      swap3\n      swap6\n      swap2\n      swap5\n      pop\n      swap3\n      pop\n      jump\t// out\n        /* \"#utility.yul\":3844:3958   */\n    tag_313:\n        /* \"#utility.yul\":3911:3917   */\n      0x00\n        /* \"#utility.yul\":3945:3950   */\n      dup2\n        /* \"#utility.yul\":3939:3951   */\n      mload\n        /* \"#utility.yul\":3929:3951   */\n      swap1\n      pop\n        /* \"#utility.yul\":3844:3958   */\n      swap2\n      swap1\n      pop\n      jump\t// out\n        /* \"#utility.yul\":3964:4148   */\n    tag_314:\n        /* \"#utility.yul\":4063:4074   */\n      0x00\n        /* \"#utility.yul\":4097:4103   */\n      dup3\n        /* \"#utility.yul\":4092:4095   */\n      dup3\n        /* \"#utility.yul\":4085:4104   */\n      mstore\n        /* \"#utility.yul\":4137:4141   */\n      0x20\n        /* \"#utility.yul\":4132:4135   */\n      dup3\n        /* \"#utility.yul\":4128:4142   */\n      add\n        /* \"#utility.yul\":4113:4142   */\n      swap1\n      pop\n        /* \"#utility.yul\":3964:4148   */\n      swap3\n      swap2\n      pop\n      pop\n      jump\t// out\n        /* \"#utility.yul\":4154:4286   */\n    tag_315:\n        /* \"#utility.yul\":4221:4225   */\n      0x00\n        /* \"#utility.yul\":4244:4247   */\n      dup2\n        /* \"#utility.yul\":4236:4247   */\n      swap1\n      pop\n        /* \"#utility.yul\":4274:4278   */\n      0x20\n        /* \"#utility.yul\":4269:4272   */\n      dup3\n        /* \"#utility.yul\":4265:4279   */\n      add\n        /* \"#utility.yul\":4257:4279   */\n      swap1\n      pop\n        /* \"#utility.yul\":4154:4286   */\n      swap2\n      swap1\n      pop\n      jump\t// out\n        /* \"#utility.yul\":4292:4400   */\n    tag_316:\n        /* \"#utility.yul\":4369:4393   */\n      tag_409\n        /* \"#utility.yul\":4387:4392   */\n      dup2\n        /* \"#utility.yul\":4369:4393   */\n      tag_305\n      jump\t// in\n    tag_409:\n        /* \"#utility.yul\":4364:4367   */\n      dup3\n        /* \"#utility.yul\":4357:4394   */\n      mstore\n        /* \"#utility.yul\":4292:4400   */\n      pop\n      pop\n      jump\t// out\n        /* \"#utility.yul\":4406:4585   */\n    tag_317:\n        /* \"#utility.yul\":4475:4485   */\n      0x00\n        /* \"#utility.yul\":4496:4542   */\n      tag_411\n        /* \"#utility.yul\":4538:4541   */\n      dup4\n        /* \"#utility.yul\":4530:4536   */\n      dup4\n        /* \"#utility.yul\":4496:4542   */\n      tag_316\n      jump\t// in\n    tag_411:\n        /* \"#utility.yul\":4574:4578   */\n      0x20\n        /* \"#utility.yul\":4569:4572   */\n      dup4\n        /* \"#utility.yul\":4565:4579   */\n      add\n        /* \"#utility.yul\":4551:4579   */\n      swap1\n      pop\n        /* \"#utility.yul\":4406:4585   */\n      swap3\n      swap2\n      pop\n      pop\n      jump\t// out\n        /* \"#utility.yul\":4591:4704   */\n    tag_318:\n        /* \"#utility.yul\":4661:4665   */\n      0x00\n        /* \"#utility.yul\":4693:4697   */\n      0x20\n        /* \"#utility.yul\":4688:4691   */\n      dup3\n        /* \"#utility.yul\":4684:4698   */\n      add\n        /* \"#utility.yul\":4676:4698   */\n      swap1\n      pop\n        /* \"#utility.yul\":4591:4704   */\n      swap2\n      swap1\n      pop\n      jump\t// out\n        /* \"#utility.yul\":4740:5472   */\n    tag_319:\n        /* \"#utility.yul\":4859:4862   */\n      0x00\n        /* \"#utility.yul\":4888:4942   */\n      tag_414\n        /* \"#utility.yul\":4936:4941   */\n      dup3\n        /* \"#utility.yul\":4888:4942   */\n      tag_313\n      jump\t// in\n    tag_414:\n        /* \"#utility.yul\":4958:5044   */\n      tag_415\n        /* \"#utility.yul\":5037:5043   */\n      dup2\n        /* \"#utility.yul\":5032:5035   */\n      dup6\n        /* \"#utility.yul\":4958:5044   */\n      tag_314\n      jump\t// in\n    tag_415:\n        /* \"#utility.yul\":4951:5044   */\n      swap4\n      pop\n        /* \"#utility.yul\":5068:5124   */\n      tag_416\n        /* \"#utility.yul\":5118:5123   */\n      dup4\n        /* \"#utility.yul\":5068:5124   */\n      tag_315\n      jump\t// in\n    tag_416:\n        /* \"#utility.yul\":5147:5154   */\n      dup1\n        /* \"#utility.yul\":5178:5179   */\n      0x00\n        /* \"#utility.yul\":5163:5447   */\n    tag_417:\n        /* \"#utility.yul\":5188:5194   */\n      dup4\n        /* \"#utility.yul\":5185:5186   */\n      dup2\n        /* \"#utility.yul\":5182:5195   */\n      lt\n        /* \"#utility.yul\":5163:5447   */\n      iszero\n      tag_419\n      jumpi\n        /* \"#utility.yul\":5264:5270   */\n      dup2\n        /* \"#utility.yul\":5258:5271   */\n      mload\n        /* \"#utility.yul\":5291:5354   */\n      tag_420\n        /* \"#utility.yul\":5350:5353   */\n      dup9\n        /* \"#utility.yul\":5335:5348   */\n      dup3\n        /* \"#utility.yul\":5291:5354   */\n      tag_317\n      jump\t// in\n    tag_420:\n        /* \"#utility.yul\":5284:5354   */\n      swap8\n      pop\n        /* \"#utility.yul\":5377:5437   */\n      tag_421\n        /* \"#utility.yul\":5430:5436   */\n      dup4\n        /* \"#utility.yul\":5377:5437   */\n      tag_318\n      jump\t// in\n    tag_421:\n        /* \"#utility.yul\":5367:5437   */\n      swap3\n      pop\n        /* \"#utility.yul\":5223:5447   */\n      pop\n        /* \"#utility.yul\":5210:5211   */\n      0x01\n        /* \"#utility.yul\":5207:5208   */\n      dup2\n        /* \"#utility.yul\":5203:5212   */\n      add\n        /* \"#utility.yul\":5198:5212   */\n      swap1\n      pop\n        /* \"#utility.yul\":5163:5447   */\n      jump(tag_417)\n    tag_419:\n        /* \"#utility.yul\":5167:5181   */\n      pop\n        /* \"#utility.yul\":5463:5466   */\n      dup6\n        /* \"#utility.yul\":5456:5466   */\n      swap4\n      pop\n        /* \"#utility.yul\":4864:5472   */\n      pop\n      pop\n      pop\n        /* \"#utility.yul\":4740:5472   */\n      swap3\n      swap2\n      pop\n      pop\n      jump\t// out\n        /* \"#utility.yul\":5478:5851   */\n    tag_27:\n        /* \"#utility.yul\":5621:5625   */\n      0x00\n        /* \"#utility.yul\":5659:5661   */\n      0x20\n        /* \"#utility.yul\":5648:5657   */\n      dup3\n        /* \"#utility.yul\":5644:5662   */\n      add\n        /* \"#utility.yul\":5636:5662   */\n      swap1\n      pop\n        /* \"#utility.yul\":5708:5717   */\n      dup2\n        /* \"#utility.yul\":5702:5706   */\n      dup2\n        /* \"#utility.yul\":5698:5718   */\n      sub\n        /* \"#utility.yul\":5694:5695   */\n      0x00\n        /* \"#utility.yul\":5683:5692   */\n      dup4\n        /* \"#utility.yul\":5679:5696   */\n      add\n        /* \"#utility.yul\":5672:5719   */\n      mstore\n        /* \"#utility.yul\":5736:5844   */\n      tag_423\n        /* \"#utility.yul\":5839:5843   */\n      dup2\n        /* \"#utility.yul\":5830:5836   */\n      dup5\n        /* \"#utility.yul\":5736:5844   */\n      tag_319\n      jump\t// in\n    tag_423:\n        /* \"#utility.yul\":5728:5844   */\n      swap1\n      pop\n        /* \"#utility.yul\":5478:5851   */\n      swap3\n      swap2\n      pop\n      pop\n      jump\t// out\n        /* \"#utility.yul\":5857:5946   */\n    tag_320:\n        /* \"#utility.yul\":5893:5900   */\n      0x00\n        /* \"#utility.yul\":5933:5939   */\n      0xffff\n        /* \"#utility.yul\":5926:5931   */\n      dup3\n        /* \"#utility.yul\":5922:5940   */\n      and\n        /* \"#utility.yul\":5911:5940   */\n      swap1\n      pop\n        /* \"#utility.yul\":5857:5946   */\n      swap2\n      swap1\n      pop\n      jump\t// out\n        /* \"#utility.yul\":5952:6072   */\n    tag_321:\n        /* \"#utility.yul\":6024:6047   */\n      tag_426\n        /* \"#utility.yul\":6041:6046   */\n      dup2\n        /* \"#utility.yul\":6024:6047   */\n      tag_320\n      jump\t// in\n    tag_426:\n        /* \"#utility.yul\":6017:6022   */\n      dup2\n        /* \"#utility.yul\":6014:6048   */\n      eq\n        /* \"#utility.yul\":6004:6066   */\n      tag_427\n      jumpi\n        /* \"#utility.yul\":6062:6063   */\n      0x00\n        /* \"#utility.yul\":6059:6060   */\n      dup1\n        /* \"#utility.yul\":6052:6064   */\n      revert\n        /* \"#utility.yul\":6004:6066   */\n    tag_427:\n        /* \"#utility.yul\":5952:6072   */\n      pop\n      jump\t// out\n        /* \"#utility.yul\":6078:6215   */\n    tag_322:\n        /* \"#utility.yul\":6123:6128   */\n      0x00\n        /* \"#utility.yul\":6161:6167   */\n      dup2\n        /* \"#utility.yul\":6148:6168   */\n      calldataload\n        /* \"#utility.yul\":6139:6168   */\n      swap1\n      pop\n        /* \"#utility.yul\":6177:6209   */\n      tag_429\n        /* \"#utility.yul\":6203:6208   */\n      dup2\n        /* \"#utility.yul\":6177:6209   */\n      tag_321\n      jump\t// in\n    tag_429:\n        /* \"#utility.yul\":6078:6215   */\n      swap3\n      swap2\n      pop\n      pop\n      jump\t// out\n        /* \"#utility.yul\":6221:7068   */\n    tag_30:\n        /* \"#utility.yul\":6324:6330   */\n      0x00\n        /* \"#utility.yul\":6332:6338   */\n      dup1\n        /* \"#utility.yul\":6340:6346   */\n      0x00\n        /* \"#utility.yul\":6348:6354   */\n      dup1\n        /* \"#utility.yul\":6397:6399   */\n      0x60\n        /* \"#utility.yul\":6385:6394   */\n      dup6\n        /* \"#utility.yul\":6376:6383   */\n      dup8\n        /* \"#utility.yul\":6372:6395   */\n      sub\n        /* \"#utility.yul\":6368:6400   */\n      slt\n        /* \"#utility.yul\":6365:6484   */\n      iszero\n      tag_431\n      jumpi\n        /* \"#utility.yul\":6403:6482   */\n      tag_432\n      tag_299\n      jump\t// in\n    tag_432:\n        /* \"#utility.yul\":6365:6484   */\n    tag_431:\n        /* \"#utility.yul\":6523:6524   */\n      0x00\n        /* \"#utility.yul\":6548:6601   */\n      tag_433\n        /* \"#utility.yul\":6593:6600   */\n      dup8\n        /* \"#utility.yul\":6584:6590   */\n      dup3\n        /* \"#utility.yul\":6573:6582   */\n      dup9\n        /* \"#utility.yul\":6569:6591   */\n      add\n        /* \"#utility.yul\":6548:6601   */\n      tag_304\n      jump\t// in\n    tag_433:\n        /* \"#utility.yul\":6538:6601   */\n      swap5\n      pop\n        /* \"#utility.yul\":6494:6611   */\n      pop\n        /* \"#utility.yul\":6678:6680   */\n      0x20\n        /* \"#utility.yul\":6667:6676   */\n      dup6\n        /* \"#utility.yul\":6663:6681   */\n      add\n        /* \"#utility.yul\":6650:6682   */\n      calldataload\n        /* \"#utility.yul\":6709:6727   */\n      0xffffffffffffffff\n        /* \"#utility.yul\":6701:6707   */\n      dup2\n        /* \"#utility.yul\":6698:6728   */\n      gt\n        /* \"#utility.yul\":6695:6812   */\n      iszero\n      tag_434\n      jumpi\n        /* \"#utility.yul\":6731:6810   */\n      tag_435\n      tag_300\n      jump\t// in\n    tag_435:\n        /* \"#utility.yul\":6695:6812   */\n    tag_434:\n        /* \"#utility.yul\":6844:6924   */\n      tag_436\n        /* \"#utility.yul\":6916:6923   */\n      dup8\n        /* \"#utility.yul\":6907:6913   */\n      dup3\n        /* \"#utility.yul\":6896:6905   */\n      dup9\n        /* \"#utility.yul\":6892:6914   */\n      add\n        /* \"#utility.yul\":6844:6924   */\n      tag_312\n      jump\t// in\n    tag_436:\n        /* \"#utility.yul\":6826:6924   */\n      swap4\n      pop\n      swap4\n      pop\n        /* \"#utility.yul\":6621:6934   */\n      pop\n        /* \"#utility.yul\":6973:6975   */\n      0x40\n        /* \"#utility.yul\":6999:7051   */\n      tag_437\n        /* \"#utility.yul\":7043:7050   */\n      dup8\n        /* \"#utility.yul\":7034:7040   */\n      dup3\n        /* \"#utility.yul\":7023:7032   */\n      dup9\n        /* \"#utility.yul\":7019:7041   */\n      add\n        /* \"#utility.yul\":6999:7051   */\n      tag_322\n      jump\t// in\n    tag_437:\n        /* \"#utility.yul\":6989:7051   */\n      swap2\n      pop\n        /* \"#utility.yul\":6944:7061   */\n      pop\n        /* \"#utility.yul\":6221:7068   */\n      swap3\n      swap6\n      swap2\n      swap5\n      pop\n      swap3\n      pop\n      jump\t// out\n        /* \"#utility.yul\":7074:7134   */\n    tag_323:\n        /* \"#utility.yul\":7102:7105   */\n      0x00\n        /* \"#utility.yul\":7123:7128   */\n      dup2\n        /* \"#utility.yul\":7116:7128   */\n      swap1\n      pop\n        /* \"#utility.yul\":7074:7134   */\n      swap2\n      swap1\n      pop\n      jump\t// out\n        /* \"#utility.yul\":7140:7282   */\n    tag_324:\n        /* \"#utility.yul\":7190:7199   */\n      0x00\n        /* \"#utility.yul\":7223:7276   */\n      tag_440\n        /* \"#utility.yul\":7241:7275   */\n      tag_441\n        /* \"#utility.yul\":7250:7274   */\n      tag_442\n        /* \"#utility.yul\":7268:7273   */\n      dup5\n        /* \"#utility.yul\":7250:7274   */\n      tag_301\n      jump\t// in\n    tag_442:\n        /* \"#utility.yul\":7241:7275   */\n      tag_323\n      jump\t// in\n    tag_441:\n        /* \"#utility.yul\":7223:7276   */\n      tag_301\n      jump\t// in\n    tag_440:\n        /* \"#utility.yul\":7210:7276   */\n      swap1\n      pop\n        /* \"#utility.yul\":7140:7282   */\n      swap2\n      swap1\n      pop\n      jump\t// out\n        /* \"#utility.yul\":7288:7414   */\n    tag_325:\n        /* \"#utility.yul\":7338:7347   */\n      0x00\n        /* \"#utility.yul\":7371:7408   */\n      tag_444\n        /* \"#utility.yul\":7402:7407   */\n      dup3\n        /* \"#utility.yul\":7371:7408   */\n      tag_324\n      jump\t// in\n    tag_444:\n        /* \"#utility.yul\":7358:7408   */\n      swap1\n      pop\n        /* \"#utility.yul\":7288:7414   */\n      swap2\n      swap1\n      pop\n      jump\t// out\n        /* \"#utility.yul\":7420:7560   */\n    tag_326:\n        /* \"#utility.yul\":7484:7493   */\n      0x00\n        /* \"#utility.yul\":7517:7554   */\n      tag_446\n        /* \"#utility.yul\":7548:7553   */\n      dup3\n        /* \"#utility.yul\":7517:7554   */\n      tag_325\n      jump\t// in\n    tag_446:\n        /* \"#utility.yul\":7504:7554   */\n      swap1\n      pop\n        /* \"#utility.yul\":7420:7560   */\n      swap2\n      swap1\n      pop\n      jump\t// out\n        /* \"#utility.yul\":7566:7725   */\n    tag_327:\n        /* \"#utility.yul\":7667:7718   */\n      tag_448\n        /* \"#utility.yul\":7712:7717   */\n      dup2\n        /* \"#utility.yul\":7667:7718   */\n      tag_326\n      jump\t// in\n    tag_448:\n        /* \"#utility.yul\":7662:7665   */\n      dup3\n        /* \"#utility.yul\":7655:7719   */\n      mstore\n        /* \"#utility.yul\":7566:7725   */\n      pop\n      pop\n      jump\t// out\n        /* \"#utility.yul\":7731:7981   */\n    tag_36:\n        /* \"#utility.yul\":7838:7842   */\n      0x00\n        /* \"#utility.yul\":7876:7878   */\n      0x20\n        /* \"#utility.yul\":7865:7874   */\n      dup3\n        /* \"#utility.yul\":7861:7879   */\n      add\n        /* \"#utility.yul\":7853:7879   */\n      swap1\n      pop\n        /* \"#utility.yul\":7889:7974   */\n      tag_450\n        /* \"#utility.yul\":7971:7972   */\n      0x00\n        /* \"#utility.yul\":7960:7969   */\n      dup4\n        /* \"#utility.yul\":7956:7973   */\n      add\n        /* \"#utility.yul\":7947:7953   */\n      dup5\n        /* \"#utility.yul\":7889:7974   */\n      tag_327\n      jump\t// in\n    tag_450:\n        /* \"#utility.yul\":7731:7981   */\n      swap3\n      swap2\n      pop\n      pop\n      jump\t// out\n        /* \"#utility.yul\":7987:8604   */\n    tag_39:\n        /* \"#utility.yul\":8063:8069   */\n      0x00\n        /* \"#utility.yul\":8071:8077   */\n      dup1\n        /* \"#utility.yul\":8079:8085   */\n      0x00\n        /* \"#utility.yul\":8128:8130   */\n      0x60\n        /* \"#utility.yul\":8116:8125   */\n      dup5\n        /* \"#utility.yul\":8107:8114   */\n      dup7\n        /* \"#utility.yul\":8103:8126   */\n      sub\n        /* \"#utility.yul\":8099:8131   */\n      slt\n        /* \"#utility.yul\":8096:8215   */\n      iszero\n      tag_452\n      jumpi\n        /* \"#utility.yul\":8134:8213   */\n      tag_453\n      tag_299\n      jump\t// in\n    tag_453:\n        /* \"#utility.yul\":8096:8215   */\n    tag_452:\n        /* \"#utility.yul\":8254:8255   */\n      0x00\n        /* \"#utility.yul\":8279:8331   */\n      tag_454\n        /* \"#utility.yul\":8323:8330   */\n      dup7\n        /* \"#utility.yul\":8314:8320   */\n      dup3\n        /* \"#utility.yul\":8303:8312   */\n      dup8\n        /* \"#utility.yul\":8299:8321   */\n      add\n        /* \"#utility.yul\":8279:8331   */\n      tag_322\n      jump\t// in\n    tag_454:\n        /* \"#utility.yul\":8269:8331   */\n      swap4\n      pop\n        /* \"#utility.yul\":8225:8341   */\n      pop\n        /* \"#utility.yul\":8380:8382   */\n      0x20\n        /* \"#utility.yul\":8406:8459   */\n      tag_455\n        /* \"#utility.yul\":8451:8458   */\n      dup7\n        /* \"#utility.yul\":8442:8448   */\n      dup3\n        /* \"#utility.yul\":8431:8440   */\n      dup8\n        /* \"#utility.yul\":8427:8449   */\n      add\n        /* \"#utility.yul\":8406:8459   */\n      tag_304\n      jump\t// in\n    tag_455:\n        /* \"#utility.yul\":8396:8459   */\n      swap3\n      pop\n        /* \"#utility.yul\":8351:8469   */\n      pop\n        /* \"#utility.yul\":8508:8510   */\n      0x40\n        /* \"#utility.yul\":8534:8587   */\n      tag_456\n        /* \"#utility.yul\":8579:8586   */\n      dup7\n        /* \"#utility.yul\":8570:8576   */\n      dup3\n        /* \"#utility.yul\":8559:8568   */\n      dup8\n        /* \"#utility.yul\":8555:8577   */\n      add\n        /* \"#utility.yul\":8534:8587   */\n      tag_307\n      jump\t// in\n    tag_456:\n        /* \"#utility.yul\":8524:8587   */\n      swap2\n      pop\n        /* \"#utility.yul\":8479:8597   */\n      pop\n        /* \"#utility.yul\":7987:8604   */\n      swap3\n      pop\n      swap3\n      pop\n      swap3\n      jump\t// out\n        /* \"#utility.yul\":8610:8728   */\n    tag_328:\n        /* \"#utility.yul\":8697:8721   */\n      tag_458\n        /* \"#utility.yul\":8715:8720   */\n      dup2\n        /* \"#utility.yul\":8697:8721   */\n      tag_305\n      jump\t// in\n    tag_458:\n        /* \"#utility.yul\":8692:8695   */\n      dup3\n        /* \"#utility.yul\":8685:8722   */\n      mstore\n        /* \"#utility.yul\":8610:8728   */\n      pop\n      pop\n      jump\t// out\n        /* \"#utility.yul\":8734:8956   */\n    tag_42:\n        /* \"#utility.yul\":8827:8831   */\n      0x00\n        /* \"#utility.yul\":8865:8867   */\n      0x20\n        /* \"#utility.yul\":8854:8863   */\n      dup3\n        /* \"#utility.yul\":8850:8868   */\n      add\n        /* \"#utility.yul\":8842:8868   */\n      swap1\n      pop\n        /* \"#utility.yul\":8878:8949   */\n      tag_460\n        /* \"#utility.yul\":8946:8947   */\n      0x00\n        /* \"#utility.yul\":8935:8944   */\n      dup4\n        /* \"#utility.yul\":8931:8948   */\n      add\n        /* \"#utility.yul\":8922:8928   */\n      dup5\n        /* \"#utility.yul\":8878:8949   */\n      tag_328\n      jump\t// in\n    tag_460:\n        /* \"#utility.yul\":8734:8956   */\n      swap3\n      swap2\n      pop\n      pop\n      jump\t// out\n        /* \"#utility.yul\":8962:9666   */\n    tag_45:\n        /* \"#utility.yul\":9057:9063   */\n      0x00\n        /* \"#utility.yul\":9065:9071   */\n      dup1\n        /* \"#utility.yul\":9073:9079   */\n      0x00\n        /* \"#utility.yul\":9122:9124   */\n      0x40\n        /* \"#utility.yul\":9110:9119   */\n      dup5\n        /* \"#utility.yul\":9101:9108   */\n      dup7\n        /* \"#utility.yul\":9097:9120   */\n      sub\n        /* \"#utility.yul\":9093:9125   */\n      slt\n        /* \"#utility.yul\":9090:9209   */\n      iszero\n      tag_462\n      jumpi\n        /* \"#utility.yul\":9128:9207   */\n      tag_463\n      tag_299\n      jump\t// in\n    tag_463:\n        /* \"#utility.yul\":9090:9209   */\n    tag_462:\n        /* \"#utility.yul\":9248:9249   */\n      0x00\n        /* \"#utility.yul\":9273:9326   */\n      tag_464\n        /* \"#utility.yul\":9318:9325   */\n      dup7\n        /* \"#utility.yul\":9309:9315   */\n      dup3\n        /* \"#utility.yul\":9298:9307   */\n      dup8\n        /* \"#utility.yul\":9294:9316   */\n      add\n        /* \"#utility.yul\":9273:9326   */\n      tag_304\n      jump\t// in\n    tag_464:\n        /* \"#utility.yul\":9263:9326   */\n      swap4\n      pop\n        /* \"#utility.yul\":9219:9336   */\n      pop\n        /* \"#utility.yul\":9403:9405   */\n      0x20\n        /* \"#utility.yul\":9392:9401   */\n      dup5\n        /* \"#utility.yul\":9388:9406   */\n      add\n        /* \"#utility.yul\":9375:9407   */\n      calldataload\n        /* \"#utility.yul\":9434:9452   */\n      0xffffffffffffffff\n        /* \"#utility.yul\":9426:9432   */\n      dup2\n        /* \"#utility.yul\":9423:9453   */\n      gt\n        /* \"#utility.yul\":9420:9537   */\n      iszero\n      tag_465\n      jumpi\n        /* \"#utility.yul\":9456:9535   */\n      tag_466\n      tag_300\n      jump\t// in\n    tag_466:\n        /* \"#utility.yul\":9420:9537   */\n    tag_465:\n        /* \"#utility.yul\":9569:9649   */\n      tag_467\n        /* \"#utility.yul\":9641:9648   */\n      dup7\n        /* \"#utility.yul\":9632:9638   */\n      dup3\n        /* \"#utility.yul\":9621:9630   */\n      dup8\n        /* \"#utility.yul\":9617:9639   */\n      add\n        /* \"#utility.yul\":9569:9649   */\n      tag_312\n      jump\t// in\n    tag_467:\n        /* \"#utility.yul\":9551:9649   */\n      swap3\n      pop\n      swap3\n      pop\n        /* \"#utility.yul\":9346:9659   */\n      pop\n        /* \"#utility.yul\":8962:9666   */\n      swap3\n      pop\n      swap3\n      pop\n      swap3\n      jump\t// out\n        /* \"#utility.yul\":9672:10144   */\n    tag_50:\n        /* \"#utility.yul\":9739:9745   */\n      0x00\n        /* \"#utility.yul\":9747:9753   */\n      dup1\n        /* \"#utility.yul\":9796:9798   */\n      0x40\n        /* \"#utility.yul\":9784:9793   */\n      dup4\n        /* \"#utility.yul\":9775:9782   */\n      dup6\n        /* \"#utility.yul\":9771:9794   */\n      sub\n        /* \"#utility.yul\":9767:9799   */\n      slt\n        /* \"#utility.yul\":9764:9883   */\n      iszero\n      tag_469\n      jumpi\n        /* \"#utility.yul\":9802:9881   */\n      tag_470\n      tag_299\n      jump\t// in\n    tag_470:\n        /* \"#utility.yul\":9764:9883   */\n    tag_469:\n        /* \"#utility.yul\":9922:9923   */\n      0x00\n        /* \"#utility.yul\":9947:9999   */\n      tag_471\n        /* \"#utility.yul\":9991:9998   */\n      dup6\n        /* \"#utility.yul\":9982:9988   */\n      dup3\n        /* \"#utility.yul\":9971:9980   */\n      dup7\n        /* \"#utility.yul\":9967:9989   */\n      add\n        /* \"#utility.yul\":9947:9999   */\n      tag_322\n      jump\t// in\n    tag_471:\n        /* \"#utility.yul\":9937:9999   */\n      swap3\n      pop\n        /* \"#utility.yul\":9893:10009   */\n      pop\n        /* \"#utility.yul\":10048:10050   */\n      0x20\n        /* \"#utility.yul\":10074:10127   */\n      tag_472\n        /* \"#utility.yul\":10119:10126   */\n      dup6\n        /* \"#utility.yul\":10110:10116   */\n      dup3\n        /* \"#utility.yul\":10099:10108   */\n      dup7\n        /* \"#utility.yul\":10095:10117   */\n      add\n        /* \"#utility.yul\":10074:10127   */\n      tag_307\n      jump\t// in\n    tag_472:\n        /* \"#utility.yul\":10064:10127   */\n      swap2\n      pop\n        /* \"#utility.yul\":10019:10137   */\n      pop\n        /* \"#utility.yul\":9672:10144   */\n      swap3\n      pop\n      swap3\n      swap1\n      pop\n      jump\t// out\n        /* \"#utility.yul\":10150:10767   */\n    tag_55:\n        /* \"#utility.yul\":10226:10232   */\n      0x00\n        /* \"#utility.yul\":10234:10240   */\n      dup1\n        /* \"#utility.yul\":10242:10248   */\n      0x00\n        /* \"#utility.yul\":10291:10293   */\n      0x60\n        /* \"#utility.yul\":10279:10288   */\n      dup5\n        /* \"#utility.yul\":10270:10277   */\n      dup7\n        /* \"#utility.yul\":10266:10289   */\n      sub\n        /* \"#utility.yul\":10262:10294   */\n      slt\n        /* \"#utility.yul\":10259:10378   */\n      iszero\n      tag_474\n      jumpi\n        /* \"#utility.yul\":10297:10376   */\n      tag_475\n      tag_299\n      jump\t// in\n    tag_475:\n        /* \"#utility.yul\":10259:10378   */\n    tag_474:\n        /* \"#utility.yul\":10417:10418   */\n      0x00\n        /* \"#utility.yul\":10442:10495   */\n      tag_476\n        /* \"#utility.yul\":10487:10494   */\n      dup7\n        /* \"#utility.yul\":10478:10484   */\n      dup3\n        /* \"#utility.yul\":10467:10476   */\n      dup8\n        /* \"#utility.yul\":10463:10485   */\n      add\n        /* \"#utility.yul\":10442:10495   */\n      tag_304\n      jump\t// in\n    tag_476:\n        /* \"#utility.yul\":10432:10495   */\n      swap4\n      pop\n        /* \"#utility.yul\":10388:10505   */\n      pop\n        /* \"#utility.yul\":10544:10546   */\n      0x20\n        /* \"#utility.yul\":10570:10623   */\n      tag_477\n        /* \"#utility.yul\":10615:10622   */\n      dup7\n        /* \"#utility.yul\":10606:10612   */\n      dup3\n        /* \"#utility.yul\":10595:10604   */\n      dup8\n        /* \"#utility.yul\":10591:10613   */\n      add\n        /* \"#utility.yul\":10570:10623   */\n      tag_307\n      jump\t// in\n    tag_477:\n        /* \"#utility.yul\":10560:10623   */\n      swap3\n      pop\n        /* \"#utility.yul\":10515:10633   */\n      pop\n        /* \"#utility.yul\":10672:10674   */\n      0x40\n        /* \"#utility.yul\":10698:10750   */\n      tag_478\n        /* \"#utility.yul\":10742:10749   */\n      dup7\n        /* \"#utility.yul\":10733:10739   */\n      dup3\n        /* \"#utility.yul\":10722:10731   */\n      dup8\n        /* \"#utility.yul\":10718:10740   */\n      add\n        /* \"#utility.yul\":10698:10750   */\n      tag_322\n      jump\t// in\n    tag_478:\n        /* \"#utility.yul\":10688:10750   */\n      swap2\n      pop\n        /* \"#utility.yul\":10643:10760   */\n      pop\n        /* \"#utility.yul\":10150:10767   */\n      swap3\n      pop\n      swap3\n      pop\n      swap3\n      jump\t// out\n        /* \"#utility.yul\":10773:10863   */\n    tag_329:\n        /* \"#utility.yul\":10807:10814   */\n      0x00\n        /* \"#utility.yul\":10850:10855   */\n      dup2\n        /* \"#utility.yul\":10843:10856   */\n      iszero\n        /* \"#utility.yul\":10836:10857   */\n      iszero\n        /* \"#utility.yul\":10825:10857   */\n      swap1\n      pop\n        /* \"#utility.yul\":10773:10863   */\n      swap2\n      swap1\n      pop\n      jump\t// out\n        /* \"#utility.yul\":10869:10978   */\n    tag_330:\n        /* \"#utility.yul\":10950:10971   */\n      tag_481\n        /* \"#utility.yul\":10965:10970   */\n      dup2\n        /* \"#utility.yul\":10950:10971   */\n      tag_329\n      jump\t// in\n    tag_481:\n        /* \"#utility.yul\":10945:10948   */\n      dup3\n        /* \"#utility.yul\":10938:10972   */\n      mstore\n        /* \"#utility.yul\":10869:10978   */\n      pop\n      pop\n      jump\t// out\n        /* \"#utility.yul\":10984:11194   */\n    tag_58:\n        /* \"#utility.yul\":11071:11075   */\n      0x00\n        /* \"#utility.yul\":11109:11111   */\n      0x20\n        /* \"#utility.yul\":11098:11107   */\n      dup3\n        /* \"#utility.yul\":11094:11112   */\n      add\n        /* \"#utility.yul\":11086:11112   */\n      swap1\n      pop\n        /* \"#utility.yul\":11122:11187   */\n      tag_483\n        /* \"#utility.yul\":11184:11185   */\n      0x00\n        /* \"#utility.yul\":11173:11182   */\n      dup4\n        /* \"#utility.yul\":11169:11186   */\n      add\n        /* \"#utility.yul\":11160:11166   */\n      dup5\n        /* \"#utility.yul\":11122:11187   */\n      tag_330\n      jump\t// in\n    tag_483:\n        /* \"#utility.yul\":10984:11194   */\n      swap3\n      swap2\n      pop\n      pop\n      jump\t// out\n        /* \"#utility.yul\":11200:12193   */\n    tag_65:\n        /* \"#utility.yul\":11312:11318   */\n      0x00\n        /* \"#utility.yul\":11320:11326   */\n      dup1\n        /* \"#utility.yul\":11328:11334   */\n      0x00\n        /* \"#utility.yul\":11336:11342   */\n      dup1\n        /* \"#utility.yul\":11344:11350   */\n      0x00\n        /* \"#utility.yul\":11393:11396   */\n      0x80\n        /* \"#utility.yul\":11381:11390   */\n      dup7\n        /* \"#utility.yul\":11372:11379   */\n      dup9\n        /* \"#utility.yul\":11368:11391   */\n      sub\n        /* \"#utility.yul\":11364:11397   */\n      slt\n        /* \"#utility.yul\":11361:11481   */\n      iszero\n      tag_485\n      jumpi\n        /* \"#utility.yul\":11400:11479   */\n      tag_486\n      tag_299\n      jump\t// in\n    tag_486:\n        /* \"#utility.yul\":11361:11481   */\n    tag_485:\n        /* \"#utility.yul\":11520:11521   */\n      0x00\n        /* \"#utility.yul\":11545:11598   */\n      tag_487\n        /* \"#utility.yul\":11590:11597   */\n      dup9\n        /* \"#utility.yul\":11581:11587   */\n      dup3\n        /* \"#utility.yul\":11570:11579   */\n      dup10\n        /* \"#utility.yul\":11566:11588   */\n      add\n        /* \"#utility.yul\":11545:11598   */\n      tag_304\n      jump\t// in\n    tag_487:\n        /* \"#utility.yul\":11535:11598   */\n      swap6\n      pop\n        /* \"#utility.yul\":11491:11608   */\n      pop\n        /* \"#utility.yul\":11675:11677   */\n      0x20\n        /* \"#utility.yul\":11664:11673   */\n      dup7\n        /* \"#utility.yul\":11660:11678   */\n      add\n        /* \"#utility.yul\":11647:11679   */\n      calldataload\n        /* \"#utility.yul\":11706:11724   */\n      0xffffffffffffffff\n        /* \"#utility.yul\":11698:11704   */\n      dup2\n        /* \"#utility.yul\":11695:11725   */\n      gt\n        /* \"#utility.yul\":11692:11809   */\n      iszero\n      tag_488\n      jumpi\n        /* \"#utility.yul\":11728:11807   */\n      tag_489\n      tag_300\n      jump\t// in\n    tag_489:\n        /* \"#utility.yul\":11692:11809   */\n    tag_488:\n        /* \"#utility.yul\":11841:11921   */\n      tag_490\n        /* \"#utility.yul\":11913:11920   */\n      dup9\n        /* \"#utility.yul\":11904:11910   */\n      dup3\n        /* \"#utility.yul\":11893:11902   */\n      dup10\n        /* \"#utility.yul\":11889:11911   */\n      add\n        /* \"#utility.yul\":11841:11921   */\n      tag_312\n      jump\t// in\n    tag_490:\n        /* \"#utility.yul\":11823:11921   */\n      swap5\n      pop\n      swap5\n      pop\n        /* \"#utility.yul\":11618:11931   */\n      pop\n        /* \"#utility.yul\":11970:11972   */\n      0x40\n        /* \"#utility.yul\":11996:12048   */\n      tag_491\n        /* \"#utility.yul\":12040:12047   */\n      dup9\n        /* \"#utility.yul\":12031:12037   */\n      dup3\n        /* \"#utility.yul\":12020:12029   */\n      dup10\n        /* \"#utility.yul\":12016:12038   */\n      add\n        /* \"#utility.yul\":11996:12048   */\n      tag_322\n      jump\t// in\n    tag_491:\n        /* \"#utility.yul\":11986:12048   */\n      swap3\n      pop\n        /* \"#utility.yul\":11941:12058   */\n      pop\n        /* \"#utility.yul\":12097:12099   */\n      0x60\n        /* \"#utility.yul\":12123:12176   */\n      tag_492\n        /* \"#utility.yul\":12168:12175   */\n      dup9\n        /* \"#utility.yul\":12159:12165   */\n      dup3\n        /* \"#utility.yul\":12148:12157   */\n      dup10\n        /* \"#utility.yul\":12144:12166   */\n      add\n        /* \"#utility.yul\":12123:12176   */\n      tag_307\n      jump\t// in\n    tag_492:\n        /* \"#utility.yul\":12113:12176   */\n      swap2\n      pop\n        /* \"#utility.yul\":12068:12186   */\n      pop\n        /* \"#utility.yul\":11200:12193   */\n      swap3\n      swap6\n      pop\n      swap3\n      swap6\n      swap1\n      swap4\n      pop\n      jump\t// out\n        /* \"#utility.yul\":12199:12526   */\n    tag_73:\n        /* \"#utility.yul\":12257:12263   */\n      0x00\n        /* \"#utility.yul\":12306:12308   */\n      0x20\n        /* \"#utility.yul\":12294:12303   */\n      dup3\n        /* \"#utility.yul\":12285:12292   */\n      dup5\n        /* \"#utility.yul\":12281:12304   */\n      sub\n        /* \"#utility.yul\":12277:12309   */\n      slt\n        /* \"#utility.yul\":12274:12393   */\n      iszero\n      tag_494\n      jumpi\n        /* \"#utility.yul\":12312:12391   */\n      tag_495\n      tag_299\n      jump\t// in\n    tag_495:\n        /* \"#utility.yul\":12274:12393   */\n    tag_494:\n        /* \"#utility.yul\":12432:12433   */\n      0x00\n        /* \"#utility.yul\":12457:12509   */\n      tag_496\n        /* \"#utility.yul\":12501:12508   */\n      dup5\n        /* \"#utility.yul\":12492:12498   */\n      dup3\n        /* \"#utility.yul\":12481:12490   */\n      dup6\n        /* \"#utility.yul\":12477:12499   */\n      add\n        /* \"#utility.yul\":12457:12509   */\n      tag_322\n      jump\t// in\n    tag_496:\n        /* \"#utility.yul\":12447:12509   */\n      swap2\n      pop\n        /* \"#utility.yul\":12403:12519   */\n      pop\n        /* \"#utility.yul\":12199:12526   */\n      swap3\n      swap2\n      pop\n      pop\n      jump\t// out\n        /* \"#utility.yul\":12532:12712   */\n    tag_79:\n        /* \"#utility.yul\":12580:12657   */\n      0x4e487b7100000000000000000000000000000000000000000000000000000000\n        /* \"#utility.yul\":12577:12578   */\n      0x00\n        /* \"#utility.yul\":12570:12658   */\n      mstore\n        /* \"#utility.yul\":12677:12681   */\n      0x41\n        /* \"#utility.yul\":12674:12675   */\n      0x04\n        /* \"#utility.yul\":12667:12682   */\n      mstore\n        /* \"#utility.yul\":12701:12705   */\n      0x24\n        /* \"#utility.yul\":12698:12699   */\n      0x00\n        /* \"#utility.yul\":12691:12706   */\n      revert\n        /* \"#utility.yul\":12718:12898   */\n    tag_86:\n        /* \"#utility.yul\":12766:12843   */\n      0x4e487b7100000000000000000000000000000000000000000000000000000000\n        /* \"#utility.yul\":12763:12764   */\n      0x00\n        /* \"#utility.yul\":12756:12844   */\n      mstore\n        /* \"#utility.yul\":12863:12867   */\n      0x32\n        /* \"#utility.yul\":12860:12861   */\n      0x04\n        /* \"#utility.yul\":12853:12868   */\n      mstore\n        /* \"#utility.yul\":12887:12891   */\n      0x24\n        /* \"#utility.yul\":12884:12885   */\n      0x00\n        /* \"#utility.yul\":12877:12892   */\n      revert\n        /* \"#utility.yul\":12904:13084   */\n    tag_331:\n        /* \"#utility.yul\":12952:13029   */\n      0x4e487b7100000000000000000000000000000000000000000000000000000000\n        /* \"#utility.yul\":12949:12950   */\n      0x00\n        /* \"#utility.yul\":12942:13030   */\n      mstore\n        /* \"#utility.yul\":13049:13053   */\n      0x11\n        /* \"#utility.yul\":13046:13047   */\n      0x04\n        /* \"#utility.yul\":13039:13054   */\n      mstore\n        /* \"#utility.yul\":13073:13077   */\n      0x24\n        /* \"#utility.yul\":13070:13071   */\n      0x00\n        /* \"#utility.yul\":13063:13078   */\n      revert\n        /* \"#utility.yul\":13090:13281   */\n    tag_94:\n        /* \"#utility.yul\":13130:13133   */\n      0x00\n        /* \"#utility.yul\":13149:13169   */\n      tag_501\n        /* \"#utility.yul\":13167:13168   */\n      dup3\n        /* \"#utility.yul\":13149:13169   */\n      tag_305\n      jump\t// in\n    tag_501:\n        /* \"#utility.yul\":13144:13169   */\n      swap2\n      pop\n        /* \"#utility.yul\":13183:13203   */\n      tag_502\n        /* \"#utility.yul\":13201:13202   */\n      dup4\n        /* \"#utility.yul\":13183:13203   */\n      tag_305\n      jump\t// in\n    tag_502:\n        /* \"#utility.yul\":13178:13203   */\n      swap3\n      pop\n        /* \"#utility.yul\":13226:13227   */\n      dup3\n        /* \"#utility.yul\":13223:13224   */\n      dup3\n        /* \"#utility.yul\":13219:13228   */\n      add\n        /* \"#utility.yul\":13212:13228   */\n      swap1\n      pop\n        /* \"#utility.yul\":13247:13250   */\n      dup1\n        /* \"#utility.yul\":13244:13245   */\n      dup3\n        /* \"#utility.yul\":13241:13251   */\n      gt\n        /* \"#utility.yul\":13238:13274   */\n      iszero\n      tag_503\n      jumpi\n        /* \"#utility.yul\":13254:13272   */\n      tag_504\n      tag_331\n      jump\t// in\n    tag_504:\n        /* \"#utility.yul\":13238:13274   */\n    tag_503:\n        /* \"#utility.yul\":13090:13281   */\n      swap3\n      swap2\n      pop\n      pop\n      jump\t// out\n        /* \"#utility.yul\":13287:13456   */\n    tag_332:\n        /* \"#utility.yul\":13371:13382   */\n      0x00\n        /* \"#utility.yul\":13405:13411   */\n      dup3\n        /* \"#utility.yul\":13400:13403   */\n      dup3\n        /* \"#utility.yul\":13393:13412   */\n      mstore\n        /* \"#utility.yul\":13445:13449   */\n      0x20\n        /* \"#utility.yul\":13440:13443   */\n      dup3\n        /* \"#utility.yul\":13436:13450   */\n      add\n        /* \"#utility.yul\":13421:13450   */\n      swap1\n      pop\n        /* \"#utility.yul\":13287:13456   */\n      swap3\n      swap2\n      pop\n      pop\n      jump\t// out\n        /* \"#utility.yul\":13462:13627   */\n    tag_333:\n        /* \"#utility.yul\":13602:13619   */\n      0x4275646765742065786365656465640000000000000000000000000000000000\n        /* \"#utility.yul\":13598:13599   */\n      0x00\n        /* \"#utility.yul\":13590:13596   */\n      dup3\n        /* \"#utility.yul\":13586:13600   */\n      add\n        /* \"#utility.yul\":13579:13620   */\n      mstore\n        /* \"#utility.yul\":13462:13627   */\n      pop\n      jump\t// out\n        /* \"#utility.yul\":13633:13999   */\n    tag_334:\n        /* \"#utility.yul\":13775:13778   */\n      0x00\n        /* \"#utility.yul\":13796:13863   */\n      tag_508\n        /* \"#utility.yul\":13860:13862   */\n      0x0f\n        /* \"#utility.yul\":13855:13858   */\n      dup4\n        /* \"#utility.yul\":13796:13863   */\n      tag_332\n      jump\t// in\n    tag_508:\n        /* \"#utility.yul\":13789:13863   */\n      swap2\n      pop\n        /* \"#utility.yul\":13872:13965   */\n      tag_509\n        /* \"#utility.yul\":13961:13964   */\n      dup3\n        /* \"#utility.yul\":13872:13965   */\n      tag_333\n      jump\t// in\n    tag_509:\n        /* \"#utility.yul\":13990:13992   */\n      0x20\n        /* \"#utility.yul\":13985:13988   */\n      dup3\n        /* \"#utility.yul\":13981:13993   */\n      add\n        /* \"#utility.yul\":13974:13993   */\n      swap1\n      pop\n        /* \"#utility.yul\":13633:13999   */\n      swap2\n      swap1\n      pop\n      jump\t// out\n        /* \"#utility.yul\":14005:14424   */\n    tag_99:\n        /* \"#utility.yul\":14171:14175   */\n      0x00\n        /* \"#utility.yul\":14209:14211   */\n      0x20\n        /* \"#utility.yul\":14198:14207   */\n      dup3\n        /* \"#utility.yul\":14194:14212   */\n      add\n        /* \"#utility.yul\":14186:14212   */\n      swap1\n      pop\n        /* \"#utility.yul\":14258:14267   */\n      dup2\n        /* \"#utility.yul\":14252:14256   */\n      dup2\n        /* \"#utility.yul\":14248:14268   */\n      sub\n        /* \"#utility.yul\":14244:14245   */\n      0x00\n        /* \"#utility.yul\":14233:14242   */\n      dup4\n        /* \"#utility.yul\":14229:14246   */\n      add\n        /* \"#utility.yul\":14222:14269   */\n      mstore\n        /* \"#utility.yul\":14286:14417   */\n      tag_511\n        /* \"#utility.yul\":14412:14416   */\n      dup2\n        /* \"#utility.yul\":14286:14417   */\n      tag_334\n      jump\t// in\n    tag_511:\n        /* \"#utility.yul\":14278:14417   */\n      swap1\n      pop\n        /* \"#utility.yul\":14005:14424   */\n      swap2\n      swap1\n      pop\n      jump\t// out\n        /* \"#utility.yul\":14430:14872   */\n    tag_103:\n        /* \"#utility.yul\":14579:14583   */\n      0x00\n        /* \"#utility.yul\":14617:14619   */\n      0x60\n        /* \"#utility.yul\":14606:14615   */\n      dup3\n        /* \"#utility.yul\":14602:14620   */\n      add\n        /* \"#utility.yul\":14594:14620   */\n      swap1\n      pop\n        /* \"#utility.yul\":14630:14701   */\n      tag_513\n        /* \"#utility.yul\":14698:14699   */\n      0x00\n        /* \"#utility.yul\":14687:14696   */\n      dup4\n        /* \"#utility.yul\":14683:14700   */\n      add\n        /* \"#utility.yul\":14674:14680   */\n      dup7\n        /* \"#utility.yul\":14630:14701   */\n      tag_308\n      jump\t// in\n    tag_513:\n        /* \"#utility.yul\":14711:14783   */\n      tag_514\n        /* \"#utility.yul\":14779:14781   */\n      0x20\n        /* \"#utility.yul\":14768:14777   */\n      dup4\n        /* \"#utility.yul\":14764:14782   */\n      add\n        /* \"#utility.yul\":14755:14761   */\n      dup6\n        /* \"#utility.yul\":14711:14783   */\n      tag_308\n      jump\t// in\n    tag_514:\n        /* \"#utility.yul\":14793:14865   */\n      tag_515\n        /* \"#utility.yul\":14861:14863   */\n      0x40\n        /* \"#utility.yul\":14850:14859   */\n      dup4\n        /* \"#utility.yul\":14846:14864   */\n      add\n        /* \"#utility.yul\":14837:14843   */\n      dup5\n        /* \"#utility.yul\":14793:14865   */\n      tag_328\n      jump\t// in\n    tag_515:\n        /* \"#utility.yul\":14430:14872   */\n      swap5\n      swap4\n      pop\n      pop\n      pop\n      pop\n      jump\t// out\n        /* \"#utility.yul\":14878:14994   */\n    tag_335:\n        /* \"#utility.yul\":14948:14969   */\n      tag_517\n        /* \"#utility.yul\":14963:14968   */\n      dup2\n        /* \"#utility.yul\":14948:14969   */\n      tag_329\n      jump\t// in\n    tag_517:\n        /* \"#utility.yul\":14941:14946   */\n      dup2\n        /* \"#utility.yul\":14938:14970   */\n      eq\n        /* \"#utility.yul\":14928:14988   */\n      tag_518\n      jumpi\n        /* \"#utility.yul\":14984:14985   */\n      0x00\n        /* \"#utility.yul\":14981:14982   */\n      dup1\n        /* \"#utility.yul\":14974:14986   */\n      revert\n        /* \"#utility.yul\":14928:14988   */\n    tag_518:\n        /* \"#utility.yul\":14878:14994   */\n      pop\n      jump\t// out\n        /* \"#utility.yul\":15000:15137   */\n    tag_336:\n        /* \"#utility.yul\":15054:15059   */\n      0x00\n        /* \"#utility.yul\":15085:15091   */\n      dup2\n        /* \"#utility.yul\":15079:15092   */\n      mload\n        /* \"#utility.yul\":15070:15092   */\n      swap1\n      pop\n        /* \"#utility.yul\":15101:15131   */\n      tag_520\n        /* \"#utility.yul\":15125:15130   */\n      dup2\n        /* \"#utility.yul\":15101:15131   */\n      tag_335\n      jump\t// in\n    tag_520:\n        /* \"#utility.yul\":15000:15137   */\n      swap3\n      swap2\n      pop\n      pop\n      jump\t// out\n        /* \"#utility.yul\":15143:15488   */\n    tag_107:\n        /* \"#utility.yul\":15210:15216   */\n      0x00\n        /* \"#utility.yul\":15259:15261   */\n      0x20\n        /* \"#utility.yul\":15247:15256   */\n      dup3\n        /* \"#utility.yul\":15238:15245   */\n      dup5\n        /* \"#utility.yul\":15234:15257   */\n      sub\n        /* \"#utility.yul\":15230:15262   */\n      slt\n        /* \"#utility.yul\":15227:15346   */\n      iszero\n      tag_522\n      jumpi\n        /* \"#utility.yul\":15265:15344   */\n      tag_523\n      tag_299\n      jump\t// in\n    tag_523:\n        /* \"#utility.yul\":15227:15346   */\n    tag_522:\n        /* \"#utility.yul\":15385:15386   */\n      0x00\n        /* \"#utility.yul\":15410:15471   */\n      tag_524\n        /* \"#utility.yul\":15463:15470   */\n      dup5\n        /* \"#utility.yul\":15454:15460   */\n      dup3\n        /* \"#utility.yul\":15443:15452   */\n      dup6\n        /* \"#utility.yul\":15439:15461   */\n      add\n        /* \"#utility.yul\":15410:15471   */\n      tag_336\n      jump\t// in\n    tag_524:\n        /* \"#utility.yul\":15400:15471   */\n      swap2\n      pop\n        /* \"#utility.yul\":15356:15481   */\n      pop\n        /* \"#utility.yul\":15143:15488   */\n      swap3\n      swap2\n      pop\n      pop\n      jump\t// out\n        /* \"#utility.yul\":15494:15658   */\n    tag_337:\n        /* \"#utility.yul\":15634:15650   */\n      0x5061796d656e74206661696c6564000000000000000000000000000000000000\n        /* \"#utility.yul\":15630:15631   */\n      0x00\n        /* \"#utility.yul\":15622:15628   */\n      dup3\n        /* \"#utility.yul\":15618:15632   */\n      add\n        /* \"#utility.yul\":15611:15651   */\n      mstore\n        /* \"#utility.yul\":15494:15658   */\n      pop\n      jump\t// out\n        /* \"#utility.yul\":15664:16030   */\n    tag_338:\n        /* \"#utility.yul\":15806:15809   */\n      0x00\n        /* \"#utility.yul\":15827:15894   */\n      tag_527\n        /* \"#utility.yul\":15891:15893   */\n      0x0e\n        /* \"#utility.yul\":15886:15889   */\n      dup4\n        /* \"#utility.yul\":15827:15894   */\n      tag_332\n      jump\t// in\n    tag_527:\n        /* \"#utility.yul\":15820:15894   */\n      swap2\n      pop\n        /* \"#utility.yul\":15903:15996   */\n      tag_528\n        /* \"#utility.yul\":15992:15995   */\n      dup3\n        /* \"#utility.yul\":15903:15996   */\n      tag_337\n      jump\t// in\n    tag_528:\n        /* \"#utility.yul\":16021:16023   */\n      0x20\n        /* \"#utility.yul\":16016:16019   */\n      dup3\n        /* \"#utility.yul\":16012:16024   */\n      add\n        /* \"#utility.yul\":16005:16024   */\n      swap1\n      pop\n        /* \"#utility.yul\":15664:16030   */\n      swap2\n      swap1\n      pop\n      jump\t// out\n        /* \"#utility.yul\":16036:16455   */\n    tag_112:\n        /* \"#utility.yul\":16202:16206   */\n      0x00\n        /* \"#utility.yul\":16240:16242   */\n      0x20\n        /* \"#utility.yul\":16229:16238   */\n      dup3\n        /* \"#utility.yul\":16225:16243   */\n      add\n        /* \"#utility.yul\":16217:16243   */\n      swap1\n      pop\n        /* \"#utility.yul\":16289:16298   */\n      dup2\n        /* \"#utility.yul\":16283:16287   */\n      dup2\n        /* \"#utility.yul\":16279:16299   */\n      sub\n        /* \"#utility.yul\":16275:16276   */\n      0x00\n        /* \"#utility.yul\":16264:16273   */\n      dup4\n        /* \"#utility.yul\":16260:16277   */\n      add\n        /* \"#utility.yul\":16253:16300   */\n      mstore\n        /* \"#utility.yul\":16317:16448   */\n      tag_530\n        /* \"#utility.yul\":16443:16447   */\n      dup2\n        /* \"#utility.yul\":16317:16448   */\n      tag_338\n      jump\t// in\n    tag_530:\n        /* \"#utility.yul\":16309:16448   */\n      swap1\n      pop\n        /* \"#utility.yul\":16036:16455   */\n      swap2\n      swap1\n      pop\n      jump\t// out\n        /* \"#utility.yul\":16461:16694   */\n    tag_135:\n        /* \"#utility.yul\":16500:16503   */\n      0x00\n        /* \"#utility.yul\":16523:16547   */\n      tag_532\n        /* \"#utility.yul\":16541:16546   */\n      dup3\n        /* \"#utility.yul\":16523:16547   */\n      tag_305\n      jump\t// in\n    tag_532:\n        /* \"#utility.yul\":16514:16547   */\n      swap2\n      pop\n        /* \"#utility.yul\":16569:16635   */\n      0xffffffffffffffffffffffffffffffffffffffffffffffffffffffffffffffff\n        /* \"#utility.yul\":16562:16567   */\n      dup3\n        /* \"#utility.yul\":16559:16636   */\n      sub\n        /* \"#utility.yul\":16556:16659   */\n      tag_533\n      jumpi\n        /* \"#utility.yul\":16639:16657   */\n      tag_534\n      tag_331\n      jump\t// in\n    tag_534:\n        /* \"#utility.yul\":16556:16659   */\n    tag_533:\n        /* \"#utility.yul\":16686:16687   */\n      0x01\n        /* \"#utility.yul\":16679:16684   */\n      dup3\n        /* \"#utility.yul\":16675:16688   */\n      add\n        /* \"#utility.yul\":16668:16688   */\n      swap1\n      pop\n        /* \"#utility.yul\":16461:16694   */\n      swap2\n      swap1\n      pop\n      jump\t// out\n        /* \"#utility.yul\":16700:16860   */\n    tag_339:\n        /* \"#utility.yul\":16840:16852   */\n      0x4e6f74206c697374656400000000000000000000000000000000000000000000\n        /* \"#utility.yul\":16836:16837   */\n      0x00\n        /* \"#utility.yul\":16828:16834   */\n      dup3\n        /* \"#utility.yul\":16824:16838   */\n      add\n        /* \"#utility.yul\":16817:16853   */\n      mstore\n        /* \"#utility.yul\":16700:16860   */\n      pop\n      jump\t// out\n        /* \"#utility.yul\":16866:17232   */\n    tag_340:\n        /* \"#utility.yul\":17008:17011   */\n      0x00\n        /* \"#utility.yul\":17029:17096   */\n      tag_537\n        /* \"#utility.yul\":17093:17095   */\n      0x0a\n        /* \"#utility.yul\":17088:17091   */\n      dup4\n        /* \"#utility.yul\":17029:17096   */\n      tag_332\n      jump\t// in\n    tag_537:\n        /* \"#utility.yul\":17022:17096   */\n      swap2\n      pop\n        /* \"#utility.yul\":17105:17198   */\n      tag_538\n        /* \"#utility.yul\":17194:17197   */\n      dup3\n        /* \"#utility.yul\":17105:17198   */\n      tag_339\n      jump\t// in\n    tag_538:\n        /* \"#utility.yul\":17223:17225   */\n      0x20\n        /* \"#utility.yul\":17218:17221   */\n      dup3\n        /* \"#utility.yul\":17214:17226   */\n      add\n        /* \"#utility.yul\":17207:17226   */\n      swap1\n      pop\n        /* \"#utility.yul\":16866:17232   */\n      swap2\n      swap1\n      pop\n      jump\t// out\n        /* \"#utility.yul\":17238:17657   */\n    tag_141:\n        /* \"#utility.yul\":17404:17408   */\n      0x00\n        /* \"#utility.yul\":17442:17444   */\n      0x20\n        /* \"#utility.yul\":17431:17440   */\n      dup3\n        /* \"#utility.yul\":17427:17445   */\n      add\n        /* \"#utility.yul\":17419:17445   */\n      swap1\n      pop\n        /* \"#utility.yul\":17491:17500   */\n      dup2\n        /* \"#utility.yul\":17485:17489   */\n      dup2\n        /* \"#utility.yul\":17481:17501   */\n      sub\n        /* \"#utility.yul\":17477:17478   */\n      0x00\n        /* \"#utility.yul\":17466:17475   */\n      dup4\n        /* \"#utility.yul\":17462:17479   */\n      add\n        /* \"#utility.yul\":17455:17502   */\n      mstore\n        /* \"#utility.yul\":17519:17650   */\n      tag_540\n        /* \"#utility.yul\":17645:17649   */\n      dup2\n        /* \"#utility.yul\":17519:17650   */\n      tag_340\n      jump\t// in\n    tag_540:\n        /* \"#utility.yul\":17511:17650   */\n      swap1\n      pop\n        /* \"#utility.yul\":17238:17657   */\n      swap2\n      swap1\n      pop\n      jump\t// out\n        /* \"#utility.yul\":17663:17806   */\n    tag_341:\n        /* \"#utility.yul\":17720:17725   */\n      0x00\n        /* \"#utility.yul\":17751:17757   */\n      dup2\n        /* \"#utility.yul\":17745:17758   */\n      mload\n        /* \"#utility.yul\":17736:17758   */\n      swap1\n      pop\n        /* \"#utility.yul\":17767:17800   */\n      tag_542\n        /* \"#utility.yul\":17794:17799   */\n      dup2\n        /* \"#utility.yul\":17767:17800   */\n      tag_303\n      jump\t// in\n    tag_542:\n        /* \"#utility.yul\":17663:17806   */\n      swap3\n      swap2\n      pop\n      pop\n      jump\t// out\n        /* \"#utility.yul\":17812:18163   */\n    tag_183:\n        /* \"#utility.yul\":17882:17888   */\n      0x00\n        /* \"#utility.yul\":17931:17933   */\n      0x20\n        /* \"#utility.yul\":17919:17928   */\n      dup3\n        /* \"#utility.yul\":17910:17917   */\n      dup5\n        /* \"#utility.yul\":17906:17929   */\n      sub\n        /* \"#utility.yul\":17902:17934   */\n      slt\n        /* \"#utility.yul\":17899:18018   */\n      iszero\n      tag_544\n      jumpi\n        /* \"#utility.yul\":17937:18016   */\n      tag_545\n      tag_299\n      jump\t// in\n    tag_545:\n        /* \"#utility.yul\":17899:18018   */\n    tag_544:\n        /* \"#utility.yul\":18057:18058   */\n      0x00\n        /* \"#utility.yul\":18082:18146   */\n      tag_546\n        /* \"#utility.yul\":18138:18145   */\n      dup5\n        /* \"#utility.yul\":18129:18135   */\n      dup3\n        /* \"#utility.yul\":18118:18127   */\n      dup6\n        /* \"#utility.yul\":18114:18136   */\n      add\n        /* \"#utility.yul\":18082:18146   */\n      tag_341\n      jump\t// in\n    tag_546:\n        /* \"#utility.yul\":18072:18146   */\n      swap2\n      pop\n        /* \"#utility.yul\":18028:18156   */\n      pop\n        /* \"#utility.yul\":17812:18163   */\n      swap3\n      swap2\n      pop\n      pop\n      jump\t// out\n        /* \"#utility.yul\":18169:18332   */\n    tag_342:\n        /* \"#utility.yul\":18309:18324   */\n      0x4e6f7420746865206f776e657200000000000000000000000000000000000000\n        /* \"#utility.yul\":18305:18306   */\n      0x00\n        /* \"#utility.yul\":18297:18303   */\n      dup3\n        /* \"#utility.yul\":18293:18307   */\n      add\n        /* \"#utility.yul\":18286:18325   */\n      mstore\n        /* \"#utility.yul\":18169:18332   */\n      pop\n      jump\t// out\n        /* \"#utility.yul\":18338:18704   */\n    tag_343:\n        /* \"#utility.yul\":18480:18483   */\n      0x00\n        /* \"#utility.yul\":18501:18568   */\n      tag_549\n        /* \"#utility.yul\":18565:18567   */\n      0x0d\n        /* \"#utility.yul\":18560:18563   */\n      dup4\n        /* \"#utility.yul\":18501:18568   */\n      tag_332\n      jump\t// in\n    tag_549:\n        /* \"#utility.yul\":18494:18568   */\n      swap2\n      pop\n        /* \"#utility.yul\":18577:18670   */\n      tag_550\n        /* \"#utility.yul\":18666:18669   */\n      dup3\n        /* \"#utility.yul\":18577:18670   */\n      tag_342\n      jump\t// in\n    tag_550:\n        /* \"#utility.yul\":18695:18697   */\n      0x20\n        /* \"#utility.yul\":18690:18693   */\n      dup3\n        /* \"#utility.yul\":18686:18698   */\n      add\n        /* \"#utility.yul\":18679:18698   */\n      swap1\n      pop\n        /* \"#utility.yul\":18338:18704   */\n      swap2\n      swap1\n      pop\n      jump\t// out\n        /* \"#utility.yul\":18710:19129   */\n    tag_186:\n        /* \"#utility.yul\":18876:18880   */\n      0x00\n        /* \"#utility.yul\":18914:18916   */\n      0x20\n        /* \"#utility.yul\":18903:18912   */\n      dup3\n        /* \"#utility.yul\":18899:18917   */\n      add\n        /* \"#utility.yul\":18891:18917   */\n      swap1\n      pop\n        /* \"#utility.yul\":18963:18972   */\n      dup2\n        /* \"#utility.yul\":18957:18961   */\n      dup2\n        /* \"#utility.yul\":18953:18973   */\n      sub\n        /* \"#utility.yul\":18949:18950   */\n      0x00\n        /* \"#utility.yul\":18938:18947   */\n      dup4\n        /* \"#utility.yul\":18934:18951   */\n      add\n        /* \"#utility.yul\":18927:18974   */\n      mstore\n        /* \"#utility.yul\":18991:19122   */\n      tag_552\n        /* \"#utility.yul\":19117:19121   */\n      dup2\n        /* \"#utility.yul\":18991:19122   */\n      tag_343\n      jump\t// in\n    tag_552:\n        /* \"#utility.yul\":18983:19122   */\n      swap1\n      pop\n        /* \"#utility.yul\":18710:19129   */\n      swap2\n      swap1\n      pop\n      jump\t// out\n        /* \"#utility.yul\":19135:19299   */\n    tag_344:\n        /* \"#utility.yul\":19275:19291   */\n      0x416c7265616479206c6973746564000000000000000000000000000000000000\n        /* \"#utility.yul\":19271:19272   */\n      0x00\n        /* \"#utility.yul\":19263:19269   */\n      dup3\n        /* \"#utility.yul\":19259:19273   */\n      add\n        /* \"#utility.yul\":19252:19292   */\n      mstore\n        /* \"#utility.yul\":19135:19299   */\n      pop\n      jump\t// out\n        /* \"#utility.yul\":19305:19671   */\n    tag_345:\n        /* \"#utility.yul\":19447:19450   */\n      0x00\n        /* \"#utility.yul\":19468:19535   */\n      tag_555\n        /* \"#utility.yul\":19532:19534   */\n      0x0e\n        /* \"#utility.yul\":19527:19530   */\n      dup4\n        /* \"#utility.yul\":19468:19535   */\n      tag_332\n      jump\t// in\n    tag_555:\n        /* \"#utility.yul\":19461:19535   */\n      swap2\n      pop\n        /* \"#utility.yul\":19544:19637   */\n      tag_556\n        /* \"#utility.yul\":19633:19636   */\n      dup3\n        /* \"#utility.yul\":19544:19637   */\n      tag_344\n      jump\t// in\n    tag_556:\n        /* \"#utility.yul\":19662:19664   */\n      0x20\n        /* \"#utility.yul\":19657:19660   */\n      dup3\n        /* \"#utility.yul\":19653:19665   */\n      add\n        /* \"#utility.yul\":19646:19665   */\n      swap1\n      pop\n        /* \"#utility.yul\":19305:19671   */\n      swap2\n      swap1\n      pop\n      jump\t// out\n        /* \"#utility.yul\":19677:20096   */\n    tag_190:\n        /* \"#utility.yul\":19843:19847   */\n      0x00\n        /* \"#utility.yul\":19881:19883   */\n      0x20\n        /* \"#utility.yul\":19870:19879   */\n      dup3\n        /* \"#utility.yul\":19866:19884   */\n      add\n        /* \"#utility.yul\":19858:19884   */\n      swap1\n      pop\n        /* \"#utility.yul\":19930:19939   */\n      dup2\n        /* \"#utility.yul\":19924:19928   */\n      dup2\n        /* \"#utility.yul\":19920:19940   */\n      sub\n        /* \"#utility.yul\":19916:19917   */\n      0x00\n        /* \"#utility.yul\":19905:19914   */\n      dup4\n        /* \"#utility.yul\":19901:19918   */\n      add\n        /* \"#utility.yul\":19894:19941   */\n      mstore\n        /* \"#utility.yul\":19958:20089   */\n      tag_558\n        /* \"#utility.yul\":20084:20088   */\n      dup2\n        /* \"#utility.yul\":19958:20089   */\n      tag_345\n      jump\t// in\n    tag_558:\n        /* \"#utility.yul\":19950:20089   */\n      swap1\n      pop\n        /* \"#utility.yul\":19677:20096   */\n      swap2\n      swap1\n      pop\n      jump\t// out\n        /* \"#utility.yul\":20102:20264   */\n    tag_346:\n        /* \"#utility.yul\":20242:20256   */\n      0x4e6f7420617070726f7665640000000000000000000000000000000000000000\n        /* \"#utility.yul\":20238:20239   */\n      0x00\n        /* \"#utility.yul\":20230:20236   */\n      dup3\n        /* \"#utility.yul\":20226:20240   */\n      add\n        /* \"#utility.yul\":20219:20257   */\n      mstore\n        /* \"#utility.yul\":20102:20264   */\n      pop\n      jump\t// out\n        /* \"#utility.yul\":20270:20636   */\n    tag_347:\n        /* \"#utility.yul\":20412:20415   */\n      0x00\n        /* \"#utility.yul\":20433:20500   */\n      tag_561\n        /* \"#utility.yul\":20497:20499   */\n      0x0c\n        /* \"#utility.yul\":20492:20495   */\n      dup4\n        /* \"#utility.yul\":20433:20500   */\n      tag_332\n      jump\t// in\n    tag_561:\n        /* \"#utility.yul\":20426:20500   */\n      swap2\n      pop\n        /* \"#utility.yul\":20509:20602   */\n      tag_562\n        /* \"#utility.yul\":20598:20601   */\n      dup3\n        /* \"#utility.yul\":20509:20602   */\n      tag_346\n      jump\t// in\n    tag_562:\n        /* \"#utility.yul\":20627:20629   */\n      0x20\n        /* \"#utility.yul\":20622:20625   */\n      dup3\n        /* \"#utility.yul\":20618:20630   */\n      add\n        /* \"#utility.yul\":20611:20630   */\n      swap1\n      pop\n        /* \"#utility.yul\":20270:20636   */\n      swap2\n      swap1\n      pop\n      jump\t// out\n        /* \"#utility.yul\":20642:21061   */\n    tag_197:\n        /* \"#utility.yul\":20808:20812   */\n      0x00\n        /* \"#utility.yul\":20846:20848   */\n      0x20\n        /* \"#utility.yul\":20835:20844   */\n      dup3\n        /* \"#utility.yul\":20831:20849   */\n      add\n        /* \"#utility.yul\":20823:20849   */\n      swap1\n      pop\n        /* \"#utility.yul\":20895:20904   */\n      dup2\n        /* \"#utility.yul\":20889:20893   */\n      dup2\n        /* \"#utility.yul\":20885:20905   */\n      sub\n        /* \"#utility.yul\":20881:20882   */\n      0x00\n        /* \"#utility.yul\":20870:20879   */\n      dup4\n        /* \"#utility.yul\":20866:20883   */\n      add\n        /* \"#utility.yul\":20859:20906   */\n      mstore\n        /* \"#utility.yul\":20923:21054   */\n      tag_564\n        /* \"#utility.yul\":21049:21053   */\n      dup2\n        /* \"#utility.yul\":20923:21054   */\n      tag_347\n      jump\t// in\n    tag_564:\n        /* \"#utility.yul\":20915:21054   */\n      swap1\n      pop\n        /* \"#utility.yul\":20642:21061   */\n      swap2\n      swap1\n      pop\n      jump\t// out\n        /* \"#utility.yul\":21067:21182   */\n    tag_348:\n        /* \"#utility.yul\":21152:21175   */\n      tag_566\n        /* \"#utility.yul\":21169:21174   */\n      dup2\n        /* \"#utility.yul\":21152:21175   */\n      tag_320\n      jump\t// in\n    tag_566:\n        /* \"#utility.yul\":21147:21150   */\n      dup3\n        /* \"#utility.yul\":21140:21176   */\n      mstore\n        /* \"#utility.yul\":21067:21182   */\n      pop\n      pop\n      jump\t// out\n        /* \"#utility.yul\":21188:21516   */\n    tag_202:\n        /* \"#utility.yul\":21307:21311   */\n      0x00\n        /* \"#utility.yul\":21345:21347   */\n      0x40\n        /* \"#utility.yul\":21334:21343   */\n      dup3\n        /* \"#utility.yul\":21330:21348   */\n      add\n        /* \"#utility.yul\":21322:21348   */\n      swap1\n      pop\n        /* \"#utility.yul\":21358:21429   */\n      tag_568\n        /* \"#utility.yul\":21426:21427   */\n      0x00\n        /* \"#utility.yul\":21415:21424   */\n      dup4\n        /* \"#utility.yul\":21411:21428   */\n      add\n        /* \"#utility.yul\":21402:21408   */\n      dup6\n        /* \"#utility.yul\":21358:21429   */\n      tag_328\n      jump\t// in\n    tag_568:\n        /* \"#utility.yul\":21439:21509   */\n      tag_569\n        /* \"#utility.yul\":21505:21507   */\n      0x20\n        /* \"#utility.yul\":21494:21503   */\n      dup4\n        /* \"#utility.yul\":21490:21508   */\n      add\n        /* \"#utility.yul\":21481:21487   */\n      dup5\n        /* \"#utility.yul\":21439:21509   */\n      tag_348\n      jump\t// in\n    tag_569:\n        /* \"#utility.yul\":21188:21516   */\n      swap4\n      swap3\n      pop\n      pop\n      pop\n      jump\t// out\n        /* \"#utility.yul\":21522:21685   */\n    tag_349:\n        /* \"#utility.yul\":21662:21677   */\n      0x496e76616c69642067726f757000000000000000000000000000000000000000\n        /* \"#utility.yul\":21658:21659   */\n      0x00\n        /* \"#utility.yul\":21650:21656   */\n      dup3\n        /* \"#utility.yul\":21646:21660   */\n      add\n        /* \"#utility.yul\":21639:21678   */\n      mstore\n        /* \"#utility.yul\":21522:21685   */\n      pop\n      jump\t// out\n        /* \"#utility.yul\":21691:22057   */\n    tag_350:\n        /* \"#utility.yul\":21833:21836   */\n      0x00\n        /* \"#utility.yul\":21854:21921   */\n      tag_572\n        /* \"#utility.yul\":21918:21920   */\n      0x0d\n        /* \"#utility.yul\":21913:21916   */\n      dup4\n        /* \"#utility.yul\":21854:21921   */\n      tag_332\n      jump\t// in\n    tag_572:\n        /* \"#utility.yul\":21847:21921   */\n      swap2\n      pop\n        /* \"#utility.yul\":21930:22023   */\n      tag_573\n        /* \"#utility.yul\":22019:22022   */\n      dup3\n        /* \"#utility.yul\":21930:22023   */\n      tag_349\n      jump\t// in\n    tag_573:\n        /* \"#utility.yul\":22048:22050   */\n      0x20\n        /* \"#utility.yul\":22043:22046   */\n      dup3\n        /* \"#utility.yul\":22039:22051   */\n      add\n        /* \"#utility.yul\":22032:22051   */\n      swap1\n      pop\n        /* \"#utility.yul\":21691:22057   */\n      swap2\n      swap1\n      pop\n      jump\t// out\n        /* \"#utility.yul\":22063:22482   */\n    tag_258:\n        /* \"#utility.yul\":22229:22233   */\n      0x00\n        /* \"#utility.yul\":22267:22269   */\n      0x20\n        /* \"#utility.yul\":22256:22265   */\n      dup3\n        /* \"#utility.yul\":22252:22270   */\n      add\n        /* \"#utility.yul\":22244:22270   */\n      swap1\n      pop\n        /* \"#utility.yul\":22316:22325   */\n      dup2\n        /* \"#utility.yul\":22310:22314   */\n      dup2\n        /* \"#utility.yul\":22306:22326   */\n      sub\n        /* \"#utility.yul\":22302:22303   */\n      0x00\n        /* \"#utility.yul\":22291:22300   */\n      dup4\n        /* \"#utility.yul\":22287:22304   */\n      add\n        /* \"#utility.yul\":22280:22327   */\n      mstore\n        /* \"#utility.yul\":22344:22475   */\n      tag_575\n        /* \"#utility.yul\":22470:22474   */\n      dup2\n        /* \"#utility.yul\":22344:22475   */\n      tag_350\n      jump\t// in\n    tag_575:\n        /* \"#utility.yul\":22336:22475   */\n      swap1\n      pop\n        /* \"#utility.yul\":22063:22482   */\n      swap2\n      swap1\n      pop\n      jump\t// out\n        /* \"#utility.yul\":22488:22898   */\n    tag_260:\n        /* \"#utility.yul\":22528:22535   */\n      0x00\n        /* \"#utility.yul\":22551:22571   */\n      tag_577\n        /* \"#utility.yul\":22569:22570   */\n      dup3\n        /* \"#utility.yul\":22551:22571   */\n      tag_305\n      jump\t// in\n    tag_577:\n        /* \"#utility.yul\":22546:22571   */\n      swap2\n      pop\n        /* \"#utility.yul\":22585:22605   */\n      tag_578\n        /* \"#utility.yul\":22603:22604   */\n      dup4\n        /* \"#utility.yul\":22585:22605   */\n      tag_305\n      jump\t// in\n    tag_578:\n        /* \"#utility.yul\":22580:22605   */\n      swap3\n      pop\n        /* \"#utility.yul\":22640:22641   */\n      dup3\n        /* \"#utility.yul\":22637:22638   */\n      dup3\n        /* \"#utility.yul\":22633:22642   */\n      mul\n        /* \"#utility.yul\":22662:22692   */\n      tag_579\n        /* \"#utility.yul\":22680:22691   */\n      dup2\n        /* \"#utility.yul\":22662:22692   */\n      tag_305\n      jump\t// in\n    tag_579:\n        /* \"#utility.yul\":22651:22692   */\n      swap2\n      pop\n        /* \"#utility.yul\":22841:22842   */\n      dup3\n        /* \"#utility.yul\":22832:22839   */\n      dup3\n        /* \"#utility.yul\":22828:22843   */\n      div\n        /* \"#utility.yul\":22825:22826   */\n      dup5\n        /* \"#utility.yul\":22822:22844   */\n      eq\n        /* \"#utility.yul\":22802:22803   */\n      dup4\n        /* \"#utility.yul\":22795:22804   */\n      iszero\n        /* \"#utility.yul\":22775:22858   */\n      or\n        /* \"#utility.yul\":22752:22891   */\n      tag_580\n      jumpi\n        /* \"#utility.yul\":22871:22889   */\n      tag_581\n      tag_331\n      jump\t// in\n    tag_581:\n        /* \"#utility.yul\":22752:22891   */\n    tag_580:\n        /* \"#utility.yul\":22536:22898   */\n      pop\n        /* \"#utility.yul\":22488:22898   */\n      swap3\n      swap2\n      pop\n      pop\n      jump\t// out\n        /* \"#utility.yul\":22904:23002   */\n    tag_351:\n        /* \"#utility.yul\":22955:22961   */\n      0x00\n        /* \"#utility.yul\":22989:22994   */\n      dup2\n        /* \"#utility.yul\":22983:22995   */\n      mload\n        /* \"#utility.yul\":22973:22995   */\n      swap1\n      pop\n        /* \"#utility.yul\":22904:23002   */\n      swap2\n      swap1\n      pop\n      jump\t// out\n        /* \"#utility.yul\":23008:23155   */\n    tag_352:\n        /* \"#utility.yul\":23109:23120   */\n      0x00\n        /* \"#utility.yul\":23146:23149   */\n      dup2\n        /* \"#utility.yul\":23131:23149   */\n      swap1\n      pop\n        /* \"#utility.yul\":23008:23155   */\n      swap3\n      swap2\n      pop\n      pop\n      jump\t// out\n        /* \"#utility.yul\":23161:23300   */\n    tag_353:\n        /* \"#utility.yul\":23250:23256   */\n      dup3\n        /* \"#utility.yul\":23245:23248   */\n      dup2\n        /* \"#utility.yul\":23240:23243   */\n      dup4\n        /* \"#utility.yul\":23234:23257   */\n      mcopy\n        /* \"#utility.yul\":23291:23292   */\n      0x00\n        /* \"#utility.yul\":23282:23288   */\n      dup4\n        /* \"#utility.yul\":23277:23280   */\n      dup4\n        /* \"#utility.yul\":23273:23289   */\n      add\n        /* \"#utility.yul\":23266:23293   */\n      mstore\n        /* \"#utility.yul\":23161:23300   */\n      pop\n      pop\n      pop\n      jump\t// out\n        /* \"#utility.yul\":23306:23692   */\n    tag_354:\n        /* \"#utility.yul\":23410:23413   */\n      0x00\n        /* \"#utility.yul\":23438:23476   */\n      tag_586\n        /* \"#utility.yul\":23470:23475   */\n      dup3\n        /* \"#utility.yul\":23438:23476   */\n      tag_351\n      jump\t// in\n    tag_586:\n        /* \"#utility.yul\":23492:23580   */\n      tag_587\n        /* \"#utility.yul\":23573:23579   */\n      dup2\n        /* \"#utility.yul\":23568:23571   */\n      dup6\n        /* \"#utility.yul\":23492:23580   */\n      tag_352\n      jump\t// in\n    tag_587:\n        /* \"#utility.yul\":23485:23580   */\n      swap4\n      pop\n        /* \"#utility.yul\":23589:23654   */\n      tag_588\n        /* \"#utility.yul\":23647:23653   */\n      dup2\n        /* \"#utility.yul\":23642:23645   */\n      dup6\n        /* \"#utility.yul\":23635:23639   */\n      0x20\n        /* \"#utility.yul\":23628:23633   */\n      dup7\n        /* \"#utility.yul\":23624:23640   */\n      add\n        /* \"#utility.yul\":23589:23654   */\n      tag_353\n      jump\t// in\n    tag_588:\n        /* \"#utility.yul\":23679:23685   */\n      dup1\n        /* \"#utility.yul\":23674:23677   */\n      dup5\n        /* \"#utility.yul\":23670:23686   */\n      add\n        /* \"#utility.yul\":23663:23686   */\n      swap2\n      pop\n        /* \"#utility.yul\":23414:23692   */\n      pop\n        /* \"#utility.yul\":23306:23692   */\n      swap3\n      swap2\n      pop\n      pop\n      jump\t// out\n        /* \"#utility.yul\":23698:23969   */\n    tag_264:\n        /* \"#utility.yul\":23828:23831   */\n      0x00\n        /* \"#utility.yul\":23850:23943   */\n      tag_590\n        /* \"#utility.yul\":23939:23942   */\n      dup3\n        /* \"#utility.yul\":23930:23936   */\n      dup5\n        /* \"#utility.yul\":23850:23943   */\n      tag_354\n      jump\t// in\n    tag_590:\n        /* \"#utility.yul\":23843:23943   */\n      swap2\n      pop\n        /* \"#utility.yul\":23960:23963   */\n      dup2\n        /* \"#utility.yul\":23953:23963   */\n      swap1\n      pop\n        /* \"#utility.yul\":23698:23969   */\n      swap3\n      swap2\n      pop\n      pop\n      jump\t// out\n        /* \"#utility.yul\":23975:24140   */\n    tag_355:\n        /* \"#utility.yul\":24115:24132   */\n      0x47726f7570206e6f7420666f756e640000000000000000000000000000000000\n        /* \"#utility.yul\":24111:24112   */\n      0x00\n        /* \"#utility.yul\":24103:24109   */\n      dup3\n        /* \"#utility.yul\":24099:24113   */\n      add\n        /* \"#utility.yul\":24092:24133   */\n      mstore\n        /* \"#utility.yul\":23975:24140   */\n      pop\n      jump\t// out\n        /* \"#utility.yul\":24146:24512   */\n    tag_356:\n        /* \"#utility.yul\":24288:24291   */\n      0x00\n        /* \"#utility.yul\":24309:24376   */\n      tag_593\n        /* \"#utility.yul\":24373:24375   */\n      0x0f\n        /* \"#utility.yul\":24368:24371   */\n      dup4\n        /* \"#utility.yul\":24309:24376   */\n      tag_332\n      jump\t// in\n    tag_593:\n        /* \"#utility.yul\":24302:24376   */\n      swap2\n      pop\n        /* \"#utility.yul\":24385:24478   */\n      tag_594\n        /* \"#utility.yul\":24474:24477   */\n      dup3\n        /* \"#utility.yul\":24385:24478   */\n      tag_355\n      jump\t// in\n    tag_594:\n        /* \"#utility.yul\":24503:24505   */\n      0x20\n        /* \"#utility.yul\":24498:24501   */\n      dup3\n        /* \"#utility.yul\":24494:24506   */\n      add\n        /* \"#utility.yul\":24487:24506   */\n      swap1\n      pop\n        /* \"#utility.yul\":24146:24512   */\n      swap2\n      swap1\n      pop\n      jump\t// out\n        /* \"#utility.yul\":24518:24937   */\n    tag_270:\n        /* \"#utility.yul\":24684:24688   */\n      0x00\n        /* \"#utility.yul\":24722:24724   */\n      0x20\n        /* \"#utility.yul\":24711:24720   */\n      dup3\n        /* \"#utility.yul\":24707:24725   */\n      add\n        /* \"#utility.yul\":24699:24725   */\n      swap1\n      pop\n        /* \"#utility.yul\":24771:24780   */\n      dup2\n        /* \"#utility.yul\":24765:24769   */\n      dup2\n        /* \"#utility.yul\":24761:24781   */\n      sub\n        /* \"#utility.yul\":24757:24758   */\n      0x00\n        /* \"#utility.yul\":24746:24755   */\n      dup4\n        /* \"#utility.yul\":24742:24759   */\n      add\n        /* \"#utility.yul\":24735:24782   */\n      mstore\n        /* \"#utility.yul\":24799:24930   */\n      tag_596\n        /* \"#utility.yul\":24925:24929   */\n      dup2\n        /* \"#utility.yul\":24799:24930   */\n      tag_356\n      jump\t// in\n    tag_596:\n        /* \"#utility.yul\":24791:24930   */\n      swap1\n      pop\n        /* \"#utility.yul\":24518:24937   */\n      swap2\n      swap1\n      pop\n      jump\t// out\n        /* \"#utility.yul\":24943:25084   */\n    tag_357:\n        /* \"#utility.yul\":24999:25004   */\n      0x00\n        /* \"#utility.yul\":25030:25036   */\n      dup2\n        /* \"#utility.yul\":25024:25037   */\n      mload\n        /* \"#utility.yul\":25015:25037   */\n      swap1\n      pop\n        /* \"#utility.yul\":25046:25078   */\n      tag_598\n        /* \"#utility.yul\":25072:25077   */\n      dup2\n        /* \"#utility.yul\":25046:25078   */\n      tag_321\n      jump\t// in\n    tag_598:\n        /* \"#utility.yul\":24943:25084   */\n      swap3\n      swap2\n      pop\n      pop\n      jump\t// out\n        /* \"#utility.yul\":25090:25439   */\n    tag_272:\n        /* \"#utility.yul\":25159:25165   */\n      0x00\n        /* \"#utility.yul\":25208:25210   */\n      0x20\n        /* \"#utility.yul\":25196:25205   */\n      dup3\n        /* \"#utility.yul\":25187:25194   */\n      dup5\n        /* \"#utility.yul\":25183:25206   */\n      sub\n        /* \"#utility.yul\":25179:25211   */\n      slt\n        /* \"#utility.yul\":25176:25295   */\n      iszero\n      tag_600\n      jumpi\n        /* \"#utility.yul\":25214:25293   */\n      tag_601\n      tag_299\n      jump\t// in\n    tag_601:\n        /* \"#utility.yul\":25176:25295   */\n    tag_600:\n        /* \"#utility.yul\":25334:25335   */\n      0x00\n        /* \"#utility.yul\":25359:25422   */\n      tag_602\n        /* \"#utility.yul\":25414:25421   */\n      dup5\n        /* \"#utility.yul\":25405:25411   */\n      dup3\n        /* \"#utility.yul\":25394:25403   */\n      dup6\n        /* \"#utility.yul\":25390:25412   */\n      add\n        /* \"#utility.yul\":25359:25422   */\n      tag_357\n      jump\t// in\n    tag_602:\n        /* \"#utility.yul\":25349:25422   */\n      swap2\n      pop\n        /* \"#utility.yul\":25305:25432   */\n      pop\n        /* \"#utility.yul\":25090:25439   */\n      swap3\n      swap2\n      pop\n      pop\n      jump\t// out\n        /* \"#utility.yul\":25445:25639   */\n    tag_282:\n        /* \"#utility.yul\":25485:25489   */\n      0x00\n        /* \"#utility.yul\":25505:25525   */\n      tag_604\n        /* \"#utility.yul\":25523:25524   */\n      dup3\n        /* \"#utility.yul\":25505:25525   */\n      tag_305\n      jump\t// in\n    tag_604:\n        /* \"#utility.yul\":25500:25525   */\n      swap2\n      pop\n        /* \"#utility.yul\":25539:25559   */\n      tag_605\n        /* \"#utility.yul\":25557:25558   */\n      dup4\n        /* \"#utility.yul\":25539:25559   */\n      tag_305\n      jump\t// in\n    tag_605:\n        /* \"#utility.yul\":25534:25559   */\n      swap3\n      pop\n        /* \"#utility.yul\":25583:25584   */\n      dup3\n        /* \"#utility.yul\":25580:25581   */\n      dup3\n        /* \"#utility.yul\":25576:25585   */\n      sub\n        /* \"#utility.yul\":25568:25585   */\n      swap1\n      pop\n        /* \"#utility.yul\":25607:25608   */\n      dup2\n        /* \"#utility.yul\":25601:25605   */\n      dup2\n        /* \"#utility.yul\":25598:25609   */\n      gt\n        /* \"#utility.yul\":25595:25632   */\n      iszero\n      tag_606\n      jumpi\n        /* \"#utility.yul\":25612:25630   */\n      tag_607\n      tag_331\n      jump\t// in\n    tag_607:\n        /* \"#utility.yul\":25595:25632   */\n    tag_606:\n        /* \"#utility.yul\":25445:25639   */\n      swap3\n      swap2\n      pop\n      pop\n      jump\t// out\n        /* \"#utility.yul\":25645:25825   */\n    tag_291:\n        /* \"#utility.yul\":25693:25770   */\n      0x4e487b7100000000000000000000000000000000000000000000000000000000\n        /* \"#utility.yul\":25690:25691   */\n      0x00\n        /* \"#utility.yul\":25683:25771   */\n      mstore\n        /* \"#utility.yul\":25790:25794   */\n      0x31\n        /* \"#utility.yul\":25787:25788   */\n      0x04\n        /* \"#utility.yul\":25780:25795   */\n      mstore\n        /* \"#utility.yul\":25814:25818   */\n      0x24\n        /* \"#utility.yul\":25811:25812   */\n      0x00\n        /* \"#utility.yul\":25804:25819   */\n      revert\n        /* \"#utility.yul\":25831:26012   */\n    tag_358:\n        /* \"#utility.yul\":25971:26004   */\n      0x5265656e7472616e637947756172643a207265656e7472616e742063616c6c00\n        /* \"#utility.yul\":25967:25968   */\n      0x00\n        /* \"#utility.yul\":25959:25965   */\n      dup3\n        /* \"#utility.yul\":25955:25969   */\n      add\n        /* \"#utility.yul\":25948:26005   */\n      mstore\n        /* \"#utility.yul\":25831:26012   */\n      pop\n      jump\t// out\n        /* \"#utility.yul\":26018:26384   */\n    tag_359:\n        /* \"#utility.yul\":26160:26163   */\n      0x00\n        /* \"#utility.yul\":26181:26248   */\n      tag_611\n        /* \"#utility.yul\":26245:26247   */\n      0x1f\n        /* \"#utility.yul\":26240:26243   */\n      dup4\n        /* \"#utility.yul\":26181:26248   */\n      tag_332\n      jump\t// in\n    tag_611:\n        /* \"#utility.yul\":26174:26248   */\n      swap2\n      pop\n        /* \"#utility.yul\":26257:26350   */\n      tag_612\n        /* \"#utility.yul\":26346:26349   */\n      dup3\n        /* \"#utility.yul\":26257:26350   */\n      tag_358\n      jump\t// in\n    tag_612:\n        /* \"#utility.yul\":26375:26377   */\n      0x20\n        /* \"#utility.yul\":26370:26373   */\n      dup3\n        /* \"#utility.yul\":26366:26378   */\n      add\n        /* \"#utility.yul\":26359:26378   */\n      swap1\n      pop\n        /* \"#utility.yul\":26018:26384   */\n      swap2\n      swap1\n      pop\n      jump\t// out\n        /* \"#utility.yul\":26390:26809   */\n    tag_296:\n        /* \"#utility.yul\":26556:26560   */\n      0x00\n        /* \"#utility.yul\":26594:26596   */\n      0x20\n        /* \"#utility.yul\":26583:26592   */\n      dup3\n        /* \"#utility.yul\":26579:26597   */\n      add\n        /* \"#utility.yul\":26571:26597   */\n      swap1\n      pop\n        /* \"#utility.yul\":26643:26652   */\n      dup2\n        /* \"#utility.yul\":26637:26641   */\n      dup2\n        /* \"#utility.yul\":26633:26653   */\n      sub\n        /* \"#utility.yul\":26629:26630   */\n      0x00\n        /* \"#utility.yul\":26618:26627   */\n      dup4\n        /* \"#utility.yul\":26614:26631   */\n      add\n        /* \"#utility.yul\":26607:26654   */\n      mstore\n        /* \"#utility.yul\":26671:26802   */\n      tag_614\n        /* \"#utility.yul\":26797:26801   */\n      dup2\n        /* \"#utility.yul\":26671:26802   */\n      tag_359\n      jump\t// in\n    tag_614:\n        /* \"#utility.yul\":26663:26802   */\n      swap1\n      pop\n        /* \"#utility.yul\":26390:26809   */\n      swap2\n      swap1\n      pop\n      jump\t// out\n\n    auxdata: 0xa26469706673582212207105ae1b7820117a7bb0996366db0d813f18d350fe37399f67fe542da60f4cde64736f6c634300081a0033\n}\n",
				"bytecode": {
					"linkReferences": {},
					"object": "608060405234801561000f575f80fd5b506040516129c83803806129c8833981810160405281019061003191906100dc565b60015f819055508060015f6101000a81548173ffffffffffffffffffffffffffffffffffffffff021916908373ffffffffffffffffffffffffffffffffffffffff16021790555050610107565b5f80fd5b5f73ffffffffffffffffffffffffffffffffffffffff82169050919050565b5f6100ab82610082565b9050919050565b6100bb816100a1565b81146100c5575f80fd5b50565b5f815190506100d6816100b2565b92915050565b5f602082840312156100f1576100f061007e565b5b5f6100fe848285016100c8565b91505092915050565b6128b4806101145f395ff3fe608060405234801561000f575f80fd5b50600436106100b1575f3560e01c8063496b3d101161006f578063496b3d10146101c35780639c3e202d146101f3578063a82ba76f14610223578063b2942b7314610253578063b2ddee0614610283578063c02b84a11461029f576100b1565b806207df30146100b5578063083fd5a9146100e55780632e49e852146101155780633013ce291461014557806339edfd4e14610163578063449918e014610193575b5f80fd5b6100cf60048036038101906100ca9190611c0e565b6102cf565b6040516100dc9190611c5b565b60405180910390f35b6100ff60048036038101906100fa9190611cd5565b61030c565b60405161010c9190611dfd565b60405180910390f35b61012f600480360381019061012a9190611e54565b61097c565b60405161013c9190611dfd565b60405180910390f35b61014d610a6a565b60405161015a9190611f20565b60405180910390f35b61017d60048036038101906101789190611f39565b610a8f565b60405161018a9190611f98565b60405180910390f35b6101ad60048036038101906101a89190611fb1565b610ac5565b6040516101ba9190611dfd565b60405180910390f35b6101dd60048036038101906101d8919061200e565b610bb1565b6040516101ea9190611c5b565b60405180910390f35b61020d6004803603810190610208919061204c565b610bf9565b60405161021a91906120b6565b60405180910390f35b61023d60048036038101906102389190611c0e565b6110d1565b60405161024a91906120b6565b60405180910390f35b61026d600480360381019061026891906120cf565b6114ae565b60405161027a9190611dfd565b60405180910390f35b61029d60048036038101906102989190611c0e565b6115ae565b005b6102b960048036038101906102b49190612153565b61185d565b6040516102c69190611f98565b60405180910390f35b6002602052815f5260405f20602052805f5260405f205f915091509054906101000a900473ffffffffffffffffffffffffffffffffffffffff1681565b60608383905067ffffffffffffffff81111561032b5761032a61217e565b5b6040519080825280602002602001820160405280156103595781602001602082028036833780820191505090505b5090505f805f5b8686905081101561096e575f73ffffffffffffffffffffffffffffffffffffffff1660025f8a73ffffffffffffffffffffffffffffffffffffffff1673ffffffffffffffffffffffffffffffffffffffff1681526020019081526020015f205f8989858181106103d3576103d26121ab565b5b9050602002013581526020019081526020015f205f9054906101000a900473ffffffffffffffffffffffffffffffffffffffff1673ffffffffffffffffffffffffffffffffffffffff16146108f9575f6104468989898581811061043a576104396121ab565b5b905060200201356118be565b90505f6104528261185d565b90508681856104619190612205565b11156104d45788888481811061047a576104796121ab565b5b905060200201358a73ffffffffffffffffffffffffffffffffffffffff167f8a8719b9514356483d3fc6f38c0ada5a06a46d633339046c40ee527d7bda0de46040516104c590612292565b60405180910390a35050610961565b60015f9054906101000a900473ffffffffffffffffffffffffffffffffffffffff1673ffffffffffffffffffffffffffffffffffffffff166323b872dd3360025f8e73ffffffffffffffffffffffffffffffffffffffff1673ffffffffffffffffffffffffffffffffffffffff1681526020019081526020015f205f8d8d89818110610563576105626121ab565b5b9050602002013581526020019081526020015f205f9054906101000a900473ffffffffffffffffffffffffffffffffffffffff16846040518463ffffffff1660e01b81526004016105b6939291906122b0565b6020604051808303815f875af11580156105d2573d5f803e3d5ffd5b505050506040513d601f19601f820116820180604052508101906105f6919061230f565b6106675788888481811061060d5761060c6121ab565b5b905060200201358a73ffffffffffffffffffffffffffffffffffffffff167f8a8719b9514356483d3fc6f38c0ada5a06a46d633339046c40ee527d7bda0de460405161065890612384565b60405180910390a35050610961565b5f60025f8c73ffffffffffffffffffffffffffffffffffffffff1673ffffffffffffffffffffffffffffffffffffffff1681526020019081526020015f205f8b8b878181106106b9576106b86121ab565b5b9050602002013581526020019081526020015f205f9054906101000a900473ffffffffffffffffffffffffffffffffffffffff16905060025f8c73ffffffffffffffffffffffffffffffffffffffff1673ffffffffffffffffffffffffffffffffffffffff1681526020019081526020015f205f8b8b878181106107405761073f6121ab565b5b9050602002013581526020019081526020015f205f6101000a81549073ffffffffffffffffffffffffffffffffffffffff021916905561079a838c8c8c8881811061078e5761078d6121ab565b5b90506020020135611a14565b8a73ffffffffffffffffffffffffffffffffffffffff166342842e0e82338d8d898181106107cb576107ca6121ab565b5b905060200201356040518463ffffffff1660e01b81526004016107f0939291906122b0565b5f604051808303815f87803b158015610807575f80fd5b505af1158015610819573d5f803e3d5ffd5b505050503373ffffffffffffffffffffffffffffffffffffffff168a8a86818110610847576108466121ab565b5b905060200201358c73ffffffffffffffffffffffffffffffffffffffff167f77c3ced349b08a2af4e9d443fb697437c3197b3095d43fcbdc2cdc97b1a60e0c856040516108949190611f98565b60405180910390a48989858181106108af576108ae6121ab565b5b905060200201358787815181106108c9576108c86121ab565b5b60200260200101818152505085806108e0906123a2565b96505081856108ef9190612205565b9450505050610960565b86868281811061090c5761090b6121ab565b5b905060200201358873ffffffffffffffffffffffffffffffffffffffff167f8a8719b9514356483d3fc6f38c0ada5a06a46d633339046c40ee527d7bda0de460405161095790612433565b60405180910390a35b5b8080600101915050610360565b508183525050949350505050565b60608383905067ffffffffffffffff81111561099b5761099a61217e565b5b6040519080825280602002602001820160405280156109c95781602001602082028036833780820191505090505b5090505f805b85859050811015610a5d575f6109ff888888858181106109f2576109f16121ab565b5b9050602002013587610bf9565b90508015610a4f57868683818110610a1a57610a196121ab565b5b90506020020135848481518110610a3457610a336121ab565b5b6020026020010181815250508280610a4b906123a2565b9350505b5080806001019150506109cf565b5080825250949350505050565b60015f9054906101000a900473ffffffffffffffffffffffffffffffffffffffff1681565b6004602052825f5260405f20602052815f5260405f208181548110610ab2575f80fd5b905f5260205f20015f9250925050505481565b60608282905067ffffffffffffffff811115610ae457610ae361217e565b5b604051908082528060200260200182016040528015610b125781602001602082028036833780820191505090505b5090505f805b84849050811015610ba5575f610b4787878785818110610b3b57610b3a6121ab565b5b905060200201356110d1565b90508015610b9757858583818110610b6257610b616121ab565b5b90506020020135848481518110610b7c57610b7b6121ab565b5b6020026020010181815250508280610b93906123a2565b9350505b508080600101915050610b18565b50808252509392505050565b6003602052815f5260405f208181548110610bca575f80fd5b905f5260205f20015f915091509054906101000a900473ffffffffffffffffffffffffffffffffffffffff1681565b5f8383335f8390508173ffffffffffffffffffffffffffffffffffffffff168173ffffffffffffffffffffffffffffffffffffffff16636352211e856040518263ffffffff1660e01b8152600401610c519190611f98565b602060405180830381865afa158015610c6c573d5f803e3d5ffd5b505050506040513d601f19601f82011682018060405250810190610c909190612465565b73ffffffffffffffffffffffffffffffffffffffff1614610ce6576040517f08c379a0000000000000000000000000000000000000000000000000000000008152600401610cdd906124da565b60405180910390fd5b5f73ffffffffffffffffffffffffffffffffffffffff1660025f8a73ffffffffffffffffffffffffffffffffffffffff1673ffffffffffffffffffffffffffffffffffffffff1681526020019081526020015f205f8981526020019081526020015f205f9054906101000a900473ffffffffffffffffffffffffffffffffffffffff1673ffffffffffffffffffffffffffffffffffffffff1614610dd957868873ffffffffffffffffffffffffffffffffffffffff167f0795d2a562f597cc96a526206719a45f67c20b30518ea1c6f88de912dd25ed23604051610dc990612542565b60405180910390a35f94506110c6565b3073ffffffffffffffffffffffffffffffffffffffff168873ffffffffffffffffffffffffffffffffffffffff1663081812fc896040518263ffffffff1660e01b8152600401610e299190611f98565b602060405180830381865afa158015610e44573d5f803e3d5ffd5b505050506040513d601f19601f82011682018060405250810190610e689190612465565b73ffffffffffffffffffffffffffffffffffffffff1614610ed857868873ffffffffffffffffffffffffffffffffffffffff167f0795d2a562f597cc96a526206719a45f67c20b30518ea1c6f88de912dd25ed23604051610ec8906125aa565b60405180910390a35f94506110c6565b3360025f8a73ffffffffffffffffffffffffffffffffffffffff1673ffffffffffffffffffffffffffffffffffffffff1681526020019081526020015f205f8981526020019081526020015f205f6101000a81548173ffffffffffffffffffffffffffffffffffffffff021916908373ffffffffffffffffffffffffffffffffffffffff16021790555060045f8761ffff1661ffff1681526020019081526020015f205f8973ffffffffffffffffffffffffffffffffffffffff1673ffffffffffffffffffffffffffffffffffffffff1681526020019081526020015f2087908060018154018082558091505060019003905f5260205f20015f909190919091505560035f8761ffff1661ffff1681526020019081526020015f2088908060018154018082558091505060019003905f5260205f20015f9091909190916101000a81548173ffffffffffffffffffffffffffffffffffffffff021916908373ffffffffffffffffffffffffffffffffffffffff1602179055503373ffffffffffffffffffffffffffffffffffffffff16878973ffffffffffffffffffffffffffffffffffffffff167fd4d9493bde2c94a44263c0e6b76a960efec9b18d7e4533b24a2f72e7fe1205236110aa8a61185d565b8a6040516110b99291906125d7565b60405180910390a4600194505b505050509392505050565b5f6110da611b23565b5f73ffffffffffffffffffffffffffffffffffffffff1660025f8573ffffffffffffffffffffffffffffffffffffffff1673ffffffffffffffffffffffffffffffffffffffff1681526020019081526020015f205f8481526020019081526020015f205f9054906101000a900473ffffffffffffffffffffffffffffffffffffffff1673ffffffffffffffffffffffffffffffffffffffff16036111cd57818373ffffffffffffffffffffffffffffffffffffffff167f8a8719b9514356483d3fc6f38c0ada5a06a46d633339046c40ee527d7bda0de46040516111bd90612433565b60405180910390a35f90506114a0565b5f6111d884846118be565b90505f60025f8673ffffffffffffffffffffffffffffffffffffffff1673ffffffffffffffffffffffffffffffffffffffff1681526020019081526020015f205f8581526020019081526020015f205f9054906101000a900473ffffffffffffffffffffffffffffffffffffffff1690505f6112538361185d565b905060015f9054906101000a900473ffffffffffffffffffffffffffffffffffffffff1673ffffffffffffffffffffffffffffffffffffffff166323b872dd3384846040518463ffffffff1660e01b81526004016112b3939291906122b0565b6020604051808303815f875af11580156112cf573d5f803e3d5ffd5b505050506040513d601f19601f820116820180604052508101906112f3919061230f565b61134f57848673ffffffffffffffffffffffffffffffffffffffff167f8a8719b9514356483d3fc6f38c0ada5a06a46d633339046c40ee527d7bda0de460405161133c90612384565b60405180910390a35f93505050506114a0565b60025f8773ffffffffffffffffffffffffffffffffffffffff1673ffffffffffffffffffffffffffffffffffffffff1681526020019081526020015f205f8681526020019081526020015f205f6101000a81549073ffffffffffffffffffffffffffffffffffffffff02191690556113c8838787611a14565b8573ffffffffffffffffffffffffffffffffffffffff166342842e0e8333886040518463ffffffff1660e01b8152600401611405939291906122b0565b5f604051808303815f87803b15801561141c575f80fd5b505af115801561142e573d5f803e3d5ffd5b505050503373ffffffffffffffffffffffffffffffffffffffff16858773ffffffffffffffffffffffffffffffffffffffff167f77c3ced349b08a2af4e9d443fb697437c3197b3095d43fcbdc2cdc97b1a60e0c846040516114909190611f98565b60405180910390a4600193505050505b6114a8611b70565b92915050565b60608484905067ffffffffffffffff8111156114cd576114cc61217e565b5b6040519080825280602002602001820160405280156114fb5781602001602082028036833780820191505090505b5090505f805b868690508110801561151257508382105b156115a0575f61153c8989898581811061152f5761152e6121ab565b5b9050602002013588610bf9565b9050801561158c57878783818110611557576115566121ab565b5b90506020020135848481518110611571576115706121ab565b5b6020026020010181815250508280611588906123a2565b9350505b508080611598906123a2565b915050611501565b508082525095945050505050565b8181335f8390508173ffffffffffffffffffffffffffffffffffffffff168173ffffffffffffffffffffffffffffffffffffffff16636352211e856040518263ffffffff1660e01b81526004016116059190611f98565b602060405180830381865afa158015611620573d5f803e3d5ffd5b505050506040513d601f19601f820116820180604052508101906116449190612465565b73ffffffffffffffffffffffffffffffffffffffff161461169a576040517f08c379a0000000000000000000000000000000000000000000000000000000008152600401611691906124da565b60405180910390fd5b5f73ffffffffffffffffffffffffffffffffffffffff1660025f8873ffffffffffffffffffffffffffffffffffffffff1673ffffffffffffffffffffffffffffffffffffffff1681526020019081526020015f205f8781526020019081526020015f205f9054906101000a900473ffffffffffffffffffffffffffffffffffffffff1673ffffffffffffffffffffffffffffffffffffffff1603611773576040517f08c379a000000000000000000000000000000000000000000000000000000000815260040161176a90612433565b60405180910390fd5b5f61177e87876118be565b905060025f8873ffffffffffffffffffffffffffffffffffffffff1673ffffffffffffffffffffffffffffffffffffffff1681526020019081526020015f205f8781526020019081526020015f205f6101000a81549073ffffffffffffffffffffffffffffffffffffffff02191690556117f9818888611a14565b3373ffffffffffffffffffffffffffffffffffffffff16868873ffffffffffffffffffffffffffffffffffffffff167f83614a26fd4398c876bd6684c0d04cf2e84ee7e4bc24e8d8888ab0e724bac03260405160405180910390a450505050505050565b5f808261ffff16116118a4576040517f08c379a000000000000000000000000000000000000000000000000000000000815260040161189b90612648565b60405180910390fd5b620f42408261ffff166118b79190612666565b9050919050565b5f805f8473ffffffffffffffffffffffffffffffffffffffff16846040516024016118e99190611f98565b6040516020818303038152906040527f8166c9dc000000000000000000000000000000000000000000000000000000007bffffffffffffffffffffffffffffffffffffffffffffffffffffffff19166020820180517bffffffffffffffffffffffffffffffffffffffffffffffffffffffff838183161783525050505060405161197391906126f9565b5f604051808303815f865af19150503d805f81146119ac576040519150601f19603f3d011682016040523d82523d5f602084013e6119b1565b606091505b5091509150816119f6576040517f08c379a00000000000000000000000000000000000000000000000000000000081526004016119ed90612759565b60405180910390fd5b80806020019051810190611a0a919061278b565b9250505092915050565b5f60045f8561ffff1661ffff1681526020019081526020015f205f8473ffffffffffffffffffffffffffffffffffffffff1673ffffffffffffffffffffffffffffffffffffffff1681526020019081526020015f2090505f5b8180549050811015611b1c5782828281548110611a8d57611a8c6121ab565b5b905f5260205f20015403611b0f578160018380549050611aad91906127b6565b81548110611abe57611abd6121ab565b5b905f5260205f200154828281548110611ada57611ad96121ab565b5b905f5260205f20018190555081805480611af757611af66127e9565b5b600190038181905f5260205f20015f90559055611b1c565b8080600101915050611a6d565b5050505050565b60025f5403611b67576040517f08c379a0000000000000000000000000000000000000000000000000000000008152600401611b5e90612860565b60405180910390fd5b60025f81905550565b60015f81905550565b5f80fd5b5f80fd5b5f73ffffffffffffffffffffffffffffffffffffffff82169050919050565b5f611baa82611b81565b9050919050565b611bba81611ba0565b8114611bc4575f80fd5b50565b5f81359050611bd581611bb1565b92915050565b5f819050919050565b611bed81611bdb565b8114611bf7575f80fd5b50565b5f81359050611c0881611be4565b92915050565b5f8060408385031215611c2457611c23611b79565b5b5f611c3185828601611bc7565b9250506020611c4285828601611bfa565b9150509250929050565b611c5581611ba0565b82525050565b5f602082019050611c6e5f830184611c4c565b92915050565b5f80fd5b5f80fd5b5f80fd5b5f8083601f840112611c9557611c94611c74565b5b8235905067ffffffffffffffff811115611cb257611cb1611c78565b5b602083019150836020820283011115611cce57611ccd611c7c565b5b9250929050565b5f805f8060608587031215611ced57611cec611b79565b5b5f611cfa87828801611bc7565b945050602085013567ffffffffffffffff811115611d1b57611d1a611b7d565b5b611d2787828801611c80565b93509350506040611d3a87828801611bfa565b91505092959194509250565b5f81519050919050565b5f82825260208201905092915050565b5f819050602082019050919050565b611d7881611bdb565b82525050565b5f611d898383611d6f565b60208301905092915050565b5f602082019050919050565b5f611dab82611d46565b611db58185611d50565b9350611dc083611d60565b805f5b83811015611df0578151611dd78882611d7e565b9750611de283611d95565b925050600181019050611dc3565b5085935050505092915050565b5f6020820190508181035f830152611e158184611da1565b905092915050565b5f61ffff82169050919050565b611e3381611e1d565b8114611e3d575f80fd5b50565b5f81359050611e4e81611e2a565b92915050565b5f805f8060608587031215611e6c57611e6b611b79565b5b5f611e7987828801611bc7565b945050602085013567ffffffffffffffff811115611e9a57611e99611b7d565b5b611ea687828801611c80565b93509350506040611eb987828801611e40565b91505092959194509250565b5f819050919050565b5f611ee8611ee3611ede84611b81565b611ec5565b611b81565b9050919050565b5f611ef982611ece565b9050919050565b5f611f0a82611eef565b9050919050565b611f1a81611f00565b82525050565b5f602082019050611f335f830184611f11565b92915050565b5f805f60608486031215611f5057611f4f611b79565b5b5f611f5d86828701611e40565b9350506020611f6e86828701611bc7565b9250506040611f7f86828701611bfa565b9150509250925092565b611f9281611bdb565b82525050565b5f602082019050611fab5f830184611f89565b92915050565b5f805f60408486031215611fc857611fc7611b79565b5b5f611fd586828701611bc7565b935050602084013567ffffffffffffffff811115611ff657611ff5611b7d565b5b61200286828701611c80565b92509250509250925092565b5f806040838503121561202457612023611b79565b5b5f61203185828601611e40565b925050602061204285828601611bfa565b9150509250929050565b5f805f6060848603121561206357612062611b79565b5b5f61207086828701611bc7565b935050602061208186828701611bfa565b925050604061209286828701611e40565b9150509250925092565b5f8115159050919050565b6120b08161209c565b82525050565b5f6020820190506120c95f8301846120a7565b92915050565b5f805f805f608086880312156120e8576120e7611b79565b5b5f6120f588828901611bc7565b955050602086013567ffffffffffffffff81111561211657612115611b7d565b5b61212288828901611c80565b9450945050604061213588828901611e40565b925050606061214688828901611bfa565b9150509295509295909350565b5f6020828403121561216857612167611b79565b5b5f61217584828501611e40565b91505092915050565b7f4e487b71000000000000000000000000000000000000000000000000000000005f52604160045260245ffd5b7f4e487b71000000000000000000000000000000000000000000000000000000005f52603260045260245ffd5b7f4e487b71000000000000000000000000000000000000000000000000000000005f52601160045260245ffd5b5f61220f82611bdb565b915061221a83611bdb565b9250828201905080821115612232576122316121d8565b5b92915050565b5f82825260208201905092915050565b7f42756467657420657863656564656400000000000000000000000000000000005f82015250565b5f61227c600f83612238565b915061228782612248565b602082019050919050565b5f6020820190508181035f8301526122a981612270565b9050919050565b5f6060820190506122c35f830186611c4c565b6122d06020830185611c4c565b6122dd6040830184611f89565b949350505050565b6122ee8161209c565b81146122f8575f80fd5b50565b5f81519050612309816122e5565b92915050565b5f6020828403121561232457612323611b79565b5b5f612331848285016122fb565b91505092915050565b7f5061796d656e74206661696c65640000000000000000000000000000000000005f82015250565b5f61236e600e83612238565b91506123798261233a565b602082019050919050565b5f6020820190508181035f83015261239b81612362565b9050919050565b5f6123ac82611bdb565b91507fffffffffffffffffffffffffffffffffffffffffffffffffffffffffffffffff82036123de576123dd6121d8565b5b600182019050919050565b7f4e6f74206c6973746564000000000000000000000000000000000000000000005f82015250565b5f61241d600a83612238565b9150612428826123e9565b602082019050919050565b5f6020820190508181035f83015261244a81612411565b9050919050565b5f8151905061245f81611bb1565b92915050565b5f6020828403121561247a57612479611b79565b5b5f61248784828501612451565b91505092915050565b7f4e6f7420746865206f776e6572000000000000000000000000000000000000005f82015250565b5f6124c4600d83612238565b91506124cf82612490565b602082019050919050565b5f6020820190508181035f8301526124f1816124b8565b9050919050565b7f416c7265616479206c69737465640000000000000000000000000000000000005f82015250565b5f61252c600e83612238565b9150612537826124f8565b602082019050919050565b5f6020820190508181035f83015261255981612520565b9050919050565b7f4e6f7420617070726f76656400000000000000000000000000000000000000005f82015250565b5f612594600c83612238565b915061259f82612560565b602082019050919050565b5f6020820190508181035f8301526125c181612588565b9050919050565b6125d181611e1d565b82525050565b5f6040820190506125ea5f830185611f89565b6125f760208301846125c8565b9392505050565b7f496e76616c69642067726f7570000000000000000000000000000000000000005f82015250565b5f612632600d83612238565b915061263d826125fe565b602082019050919050565b5f6020820190508181035f83015261265f81612626565b9050919050565b5f61267082611bdb565b915061267b83611bdb565b925082820261268981611bdb565b915082820484148315176126a05761269f6121d8565b5b5092915050565b5f81519050919050565b5f81905092915050565b8281835e5f83830152505050565b5f6126d3826126a7565b6126dd81856126b1565b93506126ed8185602086016126bb565b80840191505092915050565b5f61270482846126c9565b915081905092915050565b7f47726f7570206e6f7420666f756e6400000000000000000000000000000000005f82015250565b5f612743600f83612238565b915061274e8261270f565b602082019050919050565b5f6020820190508181035f83015261277081612737565b9050919050565b5f8151905061278581611e2a565b92915050565b5f602082840312156127a05761279f611b79565b5b5f6127ad84828501612777565b91505092915050565b5f6127c082611bdb565b91506127cb83611bdb565b92508282039050818111156127e3576127e26121d8565b5b92915050565b7f4e487b71000000000000000000000000000000000000000000000000000000005f52603160045260245ffd5b7f5265656e7472616e637947756172643a207265656e7472616e742063616c6c005f82015250565b5f61284a601f83612238565b915061285582612816565b602082019050919050565b5f6020820190508181035f8301526128778161283e565b905091905056fea26469706673582212207105ae1b7820117a7bb0996366db0d813f18d350fe37399f67fe542da60f4cde64736f6c634300081a0033",
					"opcodes": "PUSH1 0x80 PUSH1 0x40 MSTORE CALLVALUE DUP1 ISZERO PUSH2 0xF JUMPI PUSH0 DUP1 REVERT JUMPDEST POP PUSH1 0x40 MLOAD PUSH2 0x29C8 CODESIZE SUB DUP1 PUSH2 0x29C8 DUP4 CODECOPY DUP2 DUP2 ADD PUSH1 0x40 MSTORE DUP2 ADD SWAP1 PUSH2 0x31 SWAP2 SWAP1 PUSH2 0xDC JUMP JUMPDEST PUSH1 0x1 PUSH0 DUP2 SWAP1 SSTORE POP DUP1 PUSH1 0x1 PUSH0 PUSH2 0x100 EXP DUP2 SLOAD DUP2 PUSH20 0xFFFFFFFFFFFFFFFFFFFFFFFFFFFFFFFFFFFFFFFF MUL NOT AND SWAP1 DUP4 PUSH20 0xFFFFFFFFFFFFFFFFFFFFFFFFFFFFFFFFFFFFFFFF AND MUL OR SWAP1 SSTORE POP POP PUSH2 0x107 JUMP JUMPDEST PUSH0 DUP1 REVERT JUMPDEST PUSH0 PUSH20 0xFFFFFFFFFFFFFFFFFFFFFFFFFFFFFFFFFFFFFFFF DUP3 AND SWAP1 POP SWAP2 SWAP1 POP JUMP JUMPDEST PUSH0 PUSH2 0xAB DUP3 PUSH2 0x82 JUMP JUMPDEST SWAP1 POP SWAP2 SWAP1 POP JUMP JUMPDEST PUSH2 0xBB DUP2 PUSH2 0xA1 JUMP JUMPDEST DUP2 EQ PUSH2 0xC5 JUMPI PUSH0 DUP1 REVERT JUMPDEST POP JUMP JUMPDEST PUSH0 DUP2 MLOAD SWAP1 POP PUSH2 0xD6 DUP2 PUSH2 0xB2 JUMP JUMPDEST SWAP3 SWAP2 POP POP JUMP JUMPDEST PUSH0 PUSH1 0x20 DUP3 DUP5 SUB SLT ISZERO PUSH2 0xF1 JUMPI PUSH2 0xF0 PUSH2 0x7E JUMP JUMPDEST JUMPDEST PUSH0 PUSH2 0xFE DUP5 DUP3 DUP6 ADD PUSH2 0xC8 JUMP JUMPDEST SWAP2 POP POP SWAP3 SWAP2 POP POP JUMP JUMPDEST PUSH2 0x28B4 DUP1 PUSH2 0x114 PUSH0 CODECOPY PUSH0 RETURN INVALID PUSH1 0x80 PUSH1 0x40 MSTORE CALLVALUE DUP1 ISZERO PUSH2 0xF JUMPI PUSH0 DUP1 REVERT JUMPDEST POP PUSH1 0x4 CALLDATASIZE LT PUSH2 0xB1 JUMPI PUSH0 CALLDATALOAD PUSH1 0xE0 SHR DUP1 PUSH4 0x496B3D10 GT PUSH2 0x6F JUMPI DUP1 PUSH4 0x496B3D10 EQ PUSH2 0x1C3 JUMPI DUP1 PUSH4 0x9C3E202D EQ PUSH2 0x1F3 JUMPI DUP1 PUSH4 0xA82BA76F EQ PUSH2 0x223 JUMPI DUP1 PUSH4 0xB2942B73 EQ PUSH2 0x253 JUMPI DUP1 PUSH4 0xB2DDEE06 EQ PUSH2 0x283 JUMPI DUP1 PUSH4 0xC02B84A1 EQ PUSH2 0x29F JUMPI PUSH2 0xB1 JUMP JUMPDEST DUP1 PUSH3 0x7DF30 EQ PUSH2 0xB5 JUMPI DUP1 PUSH4 0x83FD5A9 EQ PUSH2 0xE5 JUMPI DUP1 PUSH4 0x2E49E852 EQ PUSH2 0x115 JUMPI DUP1 PUSH4 0x3013CE29 EQ PUSH2 0x145 JUMPI DUP1 PUSH4 0x39EDFD4E EQ PUSH2 0x163 JUMPI DUP1 PUSH4 0x449918E0 EQ PUSH2 0x193 JUMPI JUMPDEST PUSH0 DUP1 REVERT JUMPDEST PUSH2 0xCF PUSH1 0x4 DUP1 CALLDATASIZE SUB DUP2 ADD SWAP1 PUSH2 0xCA SWAP2 SWAP1 PUSH2 0x1C0E JUMP JUMPDEST PUSH2 0x2CF JUMP JUMPDEST PUSH1 0x40 MLOAD PUSH2 0xDC SWAP2 SWAP1 PUSH2 0x1C5B JUMP JUMPDEST PUSH1 0x40 MLOAD DUP1 SWAP2 SUB SWAP1 RETURN JUMPDEST PUSH2 0xFF PUSH1 0x4 DUP1 CALLDATASIZE SUB DUP2 ADD SWAP1 PUSH2 0xFA SWAP2 SWAP1 PUSH2 0x1CD5 JUMP JUMPDEST PUSH2 0x30C JUMP JUMPDEST PUSH1 0x40 MLOAD PUSH2 0x10C SWAP2 SWAP1 PUSH2 0x1DFD JUMP JUMPDEST PUSH1 0x40 MLOAD DUP1 SWAP2 SUB SWAP1 RETURN JUMPDEST PUSH2 0x12F PUSH1 0x4 DUP1 CALLDATASIZE SUB DUP2 ADD SWAP1 PUSH2 0x12A SWAP2 SWAP1 PUSH2 0x1E54 JUMP JUMPDEST PUSH2 0x97C JUMP JUMPDEST PUSH1 0x40 MLOAD PUSH2 0x13C SWAP2 SWAP1 PUSH2 0x1DFD JUMP JUMPDEST PUSH1 0x40 MLOAD DUP1 SWAP2 SUB SWAP1 RETURN JUMPDEST PUSH2 0x14D PUSH2 0xA6A JUMP JUMPDEST PUSH1 0x40 MLOAD PUSH2 0x15A SWAP2 SWAP1 PUSH2 0x1F20 JUMP JUMPDEST PUSH1 0x40 MLOAD DUP1 SWAP2 SUB SWAP1 RETURN JUMPDEST PUSH2 0x17D PUSH1 0x4 DUP1 CALLDATASIZE SUB DUP2 ADD SWAP1 PUSH2 0x178 SWAP2 SWAP1 PUSH2 0x1F39 JUMP JUMPDEST PUSH2 0xA8F JUMP JUMPDEST PUSH1 0x40 MLOAD PUSH2 0x18A SWAP2 SWAP1 PUSH2 0x1F98 JUMP JUMPDEST PUSH1 0x40 MLOAD DUP1 SWAP2 SUB SWAP1 RETURN JUMPDEST PUSH2 0x1AD PUSH1 0x4 DUP1 CALLDATASIZE SUB DUP2 ADD SWAP1 PUSH2 0x1A8 SWAP2 SWAP1 PUSH2 0x1FB1 JUMP JUMPDEST PUSH2 0xAC5 JUMP JUMPDEST PUSH1 0x40 MLOAD PUSH2 0x1BA SWAP2 SWAP1 PUSH2 0x1DFD JUMP JUMPDEST PUSH1 0x40 MLOAD DUP1 SWAP2 SUB SWAP1 RETURN JUMPDEST PUSH2 0x1DD PUSH1 0x4 DUP1 CALLDATASIZE SUB DUP2 ADD SWAP1 PUSH2 0x1D8 SWAP2 SWAP1 PUSH2 0x200E JUMP JUMPDEST PUSH2 0xBB1 JUMP JUMPDEST PUSH1 0x40 MLOAD PUSH2 0x1EA SWAP2 SWAP1 PUSH2 0x1C5B JUMP JUMPDEST PUSH1 0x40 MLOAD DUP1 SWAP2 SUB SWAP1 RETURN JUMPDEST PUSH2 0x20D PUSH1 0x4 DUP1 CALLDATASIZE SUB DUP2 ADD SWAP1 PUSH2 0x208 SWAP2 SWAP1 PUSH2 0x204C JUMP JUMPDEST PUSH2 0xBF9 JUMP JUMPDEST PUSH1 0x40 MLOAD PUSH2 0x21A SWAP2 SWAP1 PUSH2 0x20B6 JUMP JUMPDEST PUSH1 0x40 MLOAD DUP1 SWAP2 SUB SWAP1 RETURN JUMPDEST PUSH2 0x23D PUSH1 0x4 DUP1 CALLDATASIZE SUB DUP2 ADD SWAP1 PUSH2 0x238 SWAP2 SWAP1 PUSH2 0x1C0E JUMP JUMPDEST PUSH2 0x10D1 JUMP JUMPDEST PUSH1 0x40 MLOAD PUSH2 0x24A SWAP2 SWAP1 PUSH2 0x20B6 JUMP JUMPDEST PUSH1 0x40 MLOAD DUP1 SWAP2 SUB SWAP1 RETURN JUMPDEST PUSH2 0x26D PUSH1 0x4 DUP1 CALLDATASIZE SUB DUP2 ADD SWAP1 PUSH2 0x268 SWAP2 SWAP1 PUSH2 0x20CF JUMP JUMPDEST PUSH2 0x14AE JUMP JUMPDEST PUSH1 0x40 MLOAD PUSH2 0x27A SWAP2 SWAP1 PUSH2 0x1DFD JUMP JUMPDEST PUSH1 0x40 MLOAD DUP1 SWAP2 SUB SWAP1 RETURN JUMPDEST PUSH2 0x29D PUSH1 0x4 DUP1 CALLDATASIZE SUB DUP2 ADD SWAP1 PUSH2 0x298 SWAP2 SWAP1 PUSH2 0x1C0E JUMP JUMPDEST PUSH2 0x15AE JUMP JUMPDEST STOP JUMPDEST PUSH2 0x2B9 PUSH1 0x4 DUP1 CALLDATASIZE SUB DUP2 ADD SWAP1 PUSH2 0x2B4 SWAP2 SWAP1 PUSH2 0x2153 JUMP JUMPDEST PUSH2 0x185D JUMP JUMPDEST PUSH1 0x40 MLOAD PUSH2 0x2C6 SWAP2 SWAP1 PUSH2 0x1F98 JUMP JUMPDEST PUSH1 0x40 MLOAD DUP1 SWAP2 SUB SWAP1 RETURN JUMPDEST PUSH1 0x2 PUSH1 0x20 MSTORE DUP2 PUSH0 MSTORE PUSH1 0x40 PUSH0 KECCAK256 PUSH1 0x20 MSTORE DUP1 PUSH0 MSTORE PUSH1 0x40 PUSH0 KECCAK256 PUSH0 SWAP2 POP SWAP2 POP SWAP1 SLOAD SWAP1 PUSH2 0x100 EXP SWAP1 DIV PUSH20 0xFFFFFFFFFFFFFFFFFFFFFFFFFFFFFFFFFFFFFFFF AND DUP2 JUMP JUMPDEST PUSH1 0x60 DUP4 DUP4 SWAP1 POP PUSH8 0xFFFFFFFFFFFFFFFF DUP2 GT ISZERO PUSH2 0x32B JUMPI PUSH2 0x32A PUSH2 0x217E JUMP JUMPDEST JUMPDEST PUSH1 0x40 MLOAD SWAP1 DUP1 DUP3 MSTORE DUP1 PUSH1 0x20 MUL PUSH1 0x20 ADD DUP3 ADD PUSH1 0x40 MSTORE DUP1 ISZERO PUSH2 0x359 JUMPI DUP2 PUSH1 0x20 ADD PUSH1 0x20 DUP3 MUL DUP1 CALLDATASIZE DUP4 CALLDATACOPY DUP1 DUP3 ADD SWAP2 POP POP SWAP1 POP JUMPDEST POP SWAP1 POP PUSH0 DUP1 PUSH0 JUMPDEST DUP7 DUP7 SWAP1 POP DUP2 LT ISZERO PUSH2 0x96E JUMPI PUSH0 PUSH20 0xFFFFFFFFFFFFFFFFFFFFFFFFFFFFFFFFFFFFFFFF AND PUSH1 0x2 PUSH0 DUP11 PUSH20 0xFFFFFFFFFFFFFFFFFFFFFFFFFFFFFFFFFFFFFFFF AND PUSH20 0xFFFFFFFFFFFFFFFFFFFFFFFFFFFFFFFFFFFFFFFF AND DUP2 MSTORE PUSH1 0x20 ADD SWAP1 DUP2 MSTORE PUSH1 0x20 ADD PUSH0 KECCAK256 PUSH0 DUP10 DUP10 DUP6 DUP2 DUP2 LT PUSH2 0x3D3 JUMPI PUSH2 0x3D2 PUSH2 0x21AB JUMP JUMPDEST JUMPDEST SWAP1 POP PUSH1 0x20 MUL ADD CALLDATALOAD DUP2 MSTORE PUSH1 0x20 ADD SWAP1 DUP2 MSTORE PUSH1 0x20 ADD PUSH0 KECCAK256 PUSH0 SWAP1 SLOAD SWAP1 PUSH2 0x100 EXP SWAP1 DIV PUSH20 0xFFFFFFFFFFFFFFFFFFFFFFFFFFFFFFFFFFFFFFFF AND PUSH20 0xFFFFFFFFFFFFFFFFFFFFFFFFFFFFFFFFFFFFFFFF AND EQ PUSH2 0x8F9 JUMPI PUSH0 PUSH2 0x446 DUP10 DUP10 DUP10 DUP6 DUP2 DUP2 LT PUSH2 0x43A JUMPI PUSH2 0x439 PUSH2 0x21AB JUMP JUMPDEST JUMPDEST SWAP1 POP PUSH1 0x20 MUL ADD CALLDATALOAD PUSH2 0x18BE JUMP JUMPDEST SWAP1 POP PUSH0 PUSH2 0x452 DUP3 PUSH2 0x185D JUMP JUMPDEST SWAP1 POP DUP7 DUP2 DUP6 PUSH2 0x461 SWAP2 SWAP1 PUSH2 0x2205 JUMP JUMPDEST GT ISZERO PUSH2 0x4D4 JUMPI DUP9 DUP9 DUP5 DUP2 DUP2 LT PUSH2 0x47A JUMPI PUSH2 0x479 PUSH2 0x21AB JUMP JUMPDEST JUMPDEST SWAP1 POP PUSH1 0x20 MUL ADD CALLDATALOAD DUP11 PUSH20 0xFFFFFFFFFFFFFFFFFFFFFFFFFFFFFFFFFFFFFFFF AND PUSH32 0x8A8719B9514356483D3FC6F38C0ADA5A06A46D633339046C40EE527D7BDA0DE4 PUSH1 0x40 MLOAD PUSH2 0x4C5 SWAP1 PUSH2 0x2292 JUMP JUMPDEST PUSH1 0x40 MLOAD DUP1 SWAP2 SUB SWAP1 LOG3 POP POP PUSH2 0x961 JUMP JUMPDEST PUSH1 0x1 PUSH0 SWAP1 SLOAD SWAP1 PUSH2 0x100 EXP SWAP1 DIV PUSH20 0xFFFFFFFFFFFFFFFFFFFFFFFFFFFFFFFFFFFFFFFF AND PUSH20 0xFFFFFFFFFFFFFFFFFFFFFFFFFFFFFFFFFFFFFFFF AND PUSH4 0x23B872DD CALLER PUSH1 0x2 PUSH0 DUP15 PUSH20 0xFFFFFFFFFFFFFFFFFFFFFFFFFFFFFFFFFFFFFFFF AND PUSH20 0xFFFFFFFFFFFFFFFFFFFFFFFFFFFFFFFFFFFFFFFF AND DUP2 MSTORE PUSH1 0x20 ADD SWAP1 DUP2 MSTORE PUSH1 0x20 ADD PUSH0 KECCAK256 PUSH0 DUP14 DUP14 DUP10 DUP2 DUP2 LT PUSH2 0x563 JUMPI PUSH2 0x562 PUSH2 0x21AB JUMP JUMPDEST JUMPDEST SWAP1 POP PUSH1 0x20 MUL ADD CALLDATALOAD DUP2 MSTORE PUSH1 0x20 ADD SWAP1 DUP2 MSTORE PUSH1 0x20 ADD PUSH0 KECCAK256 PUSH0 SWAP1 SLOAD SWAP1 PUSH2 0x100 EXP SWAP1 DIV PUSH20 0xFFFFFFFFFFFFFFFFFFFFFFFFFFFFFFFFFFFFFFFF AND DUP5 PUSH1 0x40 MLOAD DUP5 PUSH4 0xFFFFFFFF AND PUSH1 0xE0 SHL DUP2 MSTORE PUSH1 0x4 ADD PUSH2 0x5B6 SWAP4 SWAP3 SWAP2 SWAP1 PUSH2 0x22B0 JUMP JUMPDEST PUSH1 0x20 PUSH1 0x40 MLOAD DUP1 DUP4 SUB DUP2 PUSH0 DUP8 GAS CALL ISZERO DUP1 ISZERO PUSH2 0x5D2 JUMPI RETURNDATASIZE PUSH0 DUP1 RETURNDATACOPY RETURNDATASIZE PUSH0 REVERT JUMPDEST POP POP POP POP PUSH1 0x40 MLOAD RETURNDATASIZE PUSH1 0x1F NOT PUSH1 0x1F DUP3 ADD AND DUP3 ADD DUP1 PUSH1 0x40 MSTORE POP DUP2 ADD SWAP1 PUSH2 0x5F6 SWAP2 SWAP1 PUSH2 0x230F JUMP JUMPDEST PUSH2 0x667 JUMPI DUP9 DUP9 DUP5 DUP2 DUP2 LT PUSH2 0x60D JUMPI PUSH2 0x60C PUSH2 0x21AB JUMP JUMPDEST JUMPDEST SWAP1 POP PUSH1 0x20 MUL ADD CALLDATALOAD DUP11 PUSH20 0xFFFFFFFFFFFFFFFFFFFFFFFFFFFFFFFFFFFFFFFF AND PUSH32 0x8A8719B9514356483D3FC6F38C0ADA5A06A46D633339046C40EE527D7BDA0DE4 PUSH1 0x40 MLOAD PUSH2 0x658 SWAP1 PUSH2 0x2384 JUMP JUMPDEST PUSH1 0x40 MLOAD DUP1 SWAP2 SUB SWAP1 LOG3 POP POP PUSH2 0x961 JUMP JUMPDEST PUSH0 PUSH1 0x2 PUSH0 DUP13 PUSH20 0xFFFFFFFFFFFFFFFFFFFFFFFFFFFFFFFFFFFFFFFF AND PUSH20 0xFFFFFFFFFFFFFFFFFFFFFFFFFFFFFFFFFFFFFFFF AND DUP2 MSTORE PUSH1 0x20 ADD SWAP1 DUP2 MSTORE PUSH1 0x20 ADD PUSH0 KECCAK256 PUSH0 DUP12 DUP12 DUP8 DUP2 DUP2 LT PUSH2 0x6B9 JUMPI PUSH2 0x6B8 PUSH2 0x21AB JUMP JUMPDEST JUMPDEST SWAP1 POP PUSH1 0x20 MUL ADD CALLDATALOAD DUP2 MSTORE PUSH1 0x20 ADD SWAP1 DUP2 MSTORE PUSH1 0x20 ADD PUSH0 KECCAK256 PUSH0 SWAP1 SLOAD SWAP1 PUSH2 0x100 EXP SWAP1 DIV PUSH20 0xFFFFFFFFFFFFFFFFFFFFFFFFFFFFFFFFFFFFFFFF AND SWAP1 POP PUSH1 0x2 PUSH0 DUP13 PUSH20 0xFFFFFFFFFFFFFFFFFFFFFFFFFFFFFFFFFFFFFFFF AND PUSH20 0xFFFFFFFFFFFFFFFFFFFFFFFFFFFFFFFFFFFFFFFF AND DUP2 MSTORE PUSH1 0x20 ADD SWAP1 DUP2 MSTORE PUSH1 0x20 ADD PUSH0 KECCAK256 PUSH0 DUP12 DUP12 DUP8 DUP2 DUP2 LT PUSH2 0x740 JUMPI PUSH2 0x73F PUSH2 0x21AB JUMP JUMPDEST JUMPDEST SWAP1 POP PUSH1 0x20 MUL ADD CALLDATALOAD DUP2 MSTORE PUSH1 0x20 ADD SWAP1 DUP2 MSTORE PUSH1 0x20 ADD PUSH0 KECCAK256 PUSH0 PUSH2 0x100 EXP DUP2 SLOAD SWAP1 PUSH20 0xFFFFFFFFFFFFFFFFFFFFFFFFFFFFFFFFFFFFFFFF MUL NOT AND SWAP1 SSTORE PUSH2 0x79A DUP4 DUP13 DUP13 DUP13 DUP9 DUP2 DUP2 LT PUSH2 0x78E JUMPI PUSH2 0x78D PUSH2 0x21AB JUMP JUMPDEST JUMPDEST SWAP1 POP PUSH1 0x20 MUL ADD CALLDATALOAD PUSH2 0x1A14 JUMP JUMPDEST DUP11 PUSH20 0xFFFFFFFFFFFFFFFFFFFFFFFFFFFFFFFFFFFFFFFF AND PUSH4 0x42842E0E DUP3 CALLER DUP14 DUP14 DUP10 DUP2 DUP2 LT PUSH2 0x7CB JUMPI PUSH2 0x7CA PUSH2 0x21AB JUMP JUMPDEST JUMPDEST SWAP1 POP PUSH1 0x20 MUL ADD CALLDATALOAD PUSH1 0x40 MLOAD DUP5 PUSH4 0xFFFFFFFF AND PUSH1 0xE0 SHL DUP2 MSTORE PUSH1 0x4 ADD PUSH2 0x7F0 SWAP4 SWAP3 SWAP2 SWAP1 PUSH2 0x22B0 JUMP JUMPDEST PUSH0 PUSH1 0x40 MLOAD DUP1 DUP4 SUB DUP2 PUSH0 DUP8 DUP1 EXTCODESIZE ISZERO DUP1 ISZERO PUSH2 0x807 JUMPI PUSH0 DUP1 REVERT JUMPDEST POP GAS CALL ISZERO DUP1 ISZERO PUSH2 0x819 JUMPI RETURNDATASIZE PUSH0 DUP1 RETURNDATACOPY RETURNDATASIZE PUSH0 REVERT JUMPDEST POP POP POP POP CALLER PUSH20 0xFFFFFFFFFFFFFFFFFFFFFFFFFFFFFFFFFFFFFFFF AND DUP11 DUP11 DUP7 DUP2 DUP2 LT PUSH2 0x847 JUMPI PUSH2 0x846 PUSH2 0x21AB JUMP JUMPDEST JUMPDEST SWAP1 POP PUSH1 0x20 MUL ADD CALLDATALOAD DUP13 PUSH20 0xFFFFFFFFFFFFFFFFFFFFFFFFFFFFFFFFFFFFFFFF AND PUSH32 0x77C3CED349B08A2AF4E9D443FB697437C3197B3095D43FCBDC2CDC97B1A60E0C DUP6 PUSH1 0x40 MLOAD PUSH2 0x894 SWAP2 SWAP1 PUSH2 0x1F98 JUMP JUMPDEST PUSH1 0x40 MLOAD DUP1 SWAP2 SUB SWAP1 LOG4 DUP10 DUP10 DUP6 DUP2 DUP2 LT PUSH2 0x8AF JUMPI PUSH2 0x8AE PUSH2 0x21AB JUMP JUMPDEST JUMPDEST SWAP1 POP PUSH1 0x20 MUL ADD CALLDATALOAD DUP8 DUP8 DUP2 MLOAD DUP2 LT PUSH2 0x8C9 JUMPI PUSH2 0x8C8 PUSH2 0x21AB JUMP JUMPDEST JUMPDEST PUSH1 0x20 MUL PUSH1 0x20 ADD ADD DUP2 DUP2 MSTORE POP POP DUP6 DUP1 PUSH2 0x8E0 SWAP1 PUSH2 0x23A2 JUMP JUMPDEST SWAP7 POP POP DUP2 DUP6 PUSH2 0x8EF SWAP2 SWAP1 PUSH2 0x2205 JUMP JUMPDEST SWAP5 POP POP POP POP PUSH2 0x960 JUMP JUMPDEST DUP7 DUP7 DUP3 DUP2 DUP2 LT PUSH2 0x90C JUMPI PUSH2 0x90B PUSH2 0x21AB JUMP JUMPDEST JUMPDEST SWAP1 POP PUSH1 0x20 MUL ADD CALLDATALOAD DUP9 PUSH20 0xFFFFFFFFFFFFFFFFFFFFFFFFFFFFFFFFFFFFFFFF AND PUSH32 0x8A8719B9514356483D3FC6F38C0ADA5A06A46D633339046C40EE527D7BDA0DE4 PUSH1 0x40 MLOAD PUSH2 0x957 SWAP1 PUSH2 0x2433 JUMP JUMPDEST PUSH1 0x40 MLOAD DUP1 SWAP2 SUB SWAP1 LOG3 JUMPDEST JUMPDEST DUP1 DUP1 PUSH1 0x1 ADD SWAP2 POP POP PUSH2 0x360 JUMP JUMPDEST POP DUP2 DUP4 MSTORE POP POP SWAP5 SWAP4 POP POP POP POP JUMP JUMPDEST PUSH1 0x60 DUP4 DUP4 SWAP1 POP PUSH8 0xFFFFFFFFFFFFFFFF DUP2 GT ISZERO PUSH2 0x99B JUMPI PUSH2 0x99A PUSH2 0x217E JUMP JUMPDEST JUMPDEST PUSH1 0x40 MLOAD SWAP1 DUP1 DUP3 MSTORE DUP1 PUSH1 0x20 MUL PUSH1 0x20 ADD DUP3 ADD PUSH1 0x40 MSTORE DUP1 ISZERO PUSH2 0x9C9 JUMPI DUP2 PUSH1 0x20 ADD PUSH1 0x20 DUP3 MUL DUP1 CALLDATASIZE DUP4 CALLDATACOPY DUP1 DUP3 ADD SWAP2 POP POP SWAP1 POP JUMPDEST POP SWAP1 POP PUSH0 DUP1 JUMPDEST DUP6 DUP6 SWAP1 POP DUP2 LT ISZERO PUSH2 0xA5D JUMPI PUSH0 PUSH2 0x9FF DUP9 DUP9 DUP9 DUP6 DUP2 DUP2 LT PUSH2 0x9F2 JUMPI PUSH2 0x9F1 PUSH2 0x21AB JUMP JUMPDEST JUMPDEST SWAP1 POP PUSH1 0x20 MUL ADD CALLDATALOAD DUP8 PUSH2 0xBF9 JUMP JUMPDEST SWAP1 POP DUP1 ISZERO PUSH2 0xA4F JUMPI DUP7 DUP7 DUP4 DUP2 DUP2 LT PUSH2 0xA1A JUMPI PUSH2 0xA19 PUSH2 0x21AB JUMP JUMPDEST JUMPDEST SWAP1 POP PUSH1 0x20 MUL ADD CALLDATALOAD DUP5 DUP5 DUP2 MLOAD DUP2 LT PUSH2 0xA34 JUMPI PUSH2 0xA33 PUSH2 0x21AB JUMP JUMPDEST JUMPDEST PUSH1 0x20 MUL PUSH1 0x20 ADD ADD DUP2 DUP2 MSTORE POP POP DUP3 DUP1 PUSH2 0xA4B SWAP1 PUSH2 0x23A2 JUMP JUMPDEST SWAP4 POP POP JUMPDEST POP DUP1 DUP1 PUSH1 0x1 ADD SWAP2 POP POP PUSH2 0x9CF JUMP JUMPDEST POP DUP1 DUP3 MSTORE POP SWAP5 SWAP4 POP POP POP POP JUMP JUMPDEST PUSH1 0x1 PUSH0 SWAP1 SLOAD SWAP1 PUSH2 0x100 EXP SWAP1 DIV PUSH20 0xFFFFFFFFFFFFFFFFFFFFFFFFFFFFFFFFFFFFFFFF AND DUP2 JUMP JUMPDEST PUSH1 0x4 PUSH1 0x20 MSTORE DUP3 PUSH0 MSTORE PUSH1 0x40 PUSH0 KECCAK256 PUSH1 0x20 MSTORE DUP2 PUSH0 MSTORE PUSH1 0x40 PUSH0 KECCAK256 DUP2 DUP2 SLOAD DUP2 LT PUSH2 0xAB2 JUMPI PUSH0 DUP1 REVERT JUMPDEST SWAP1 PUSH0 MSTORE PUSH1 0x20 PUSH0 KECCAK256 ADD PUSH0 SWAP3 POP SWAP3 POP POP POP SLOAD DUP2 JUMP JUMPDEST PUSH1 0x60 DUP3 DUP3 SWAP1 POP PUSH8 0xFFFFFFFFFFFFFFFF DUP2 GT ISZERO PUSH2 0xAE4 JUMPI PUSH2 0xAE3 PUSH2 0x217E JUMP JUMPDEST JUMPDEST PUSH1 0x40 MLOAD SWAP1 DUP1 DUP3 MSTORE DUP1 PUSH1 0x20 MUL PUSH1 0x20 ADD DUP3 ADD PUSH1 0x40 MSTORE DUP1 ISZERO PUSH2 0xB12 JUMPI DUP2 PUSH1 0x20 ADD PUSH1 0x20 DUP3 MUL DUP1 CALLDATASIZE DUP4 CALLDATACOPY DUP1 DUP3 ADD SWAP2 POP POP SWAP1 POP JUMPDEST POP SWAP1 POP PUSH0 DUP1 JUMPDEST DUP5 DUP5 SWAP1 POP DUP2 LT ISZERO PUSH2 0xBA5 JUMPI PUSH0 PUSH2 0xB47 DUP8 DUP8 DUP8 DUP6 DUP2 DUP2 LT PUSH2 0xB3B JUMPI PUSH2 0xB3A PUSH2 0x21AB JUMP JUMPDEST JUMPDEST SWAP1 POP PUSH1 0x20 MUL ADD CALLDATALOAD PUSH2 0x10D1 JUMP JUMPDEST SWAP1 POP DUP1 ISZERO PUSH2 0xB97 JUMPI DUP6 DUP6 DUP4 DUP2 DUP2 LT PUSH2 0xB62 JUMPI PUSH2 0xB61 PUSH2 0x21AB JUMP JUMPDEST JUMPDEST SWAP1 POP PUSH1 0x20 MUL ADD CALLDATALOAD DUP5 DUP5 DUP2 MLOAD DUP2 LT PUSH2 0xB7C JUMPI PUSH2 0xB7B PUSH2 0x21AB JUMP JUMPDEST JUMPDEST PUSH1 0x20 MUL PUSH1 0x20 ADD ADD DUP2 DUP2 MSTORE POP POP DUP3 DUP1 PUSH2 0xB93 SWAP1 PUSH2 0x23A2 JUMP JUMPDEST SWAP4 POP POP JUMPDEST POP DUP1 DUP1 PUSH1 0x1 ADD SWAP2 POP POP PUSH2 0xB18 JUMP JUMPDEST POP DUP1 DUP3 MSTORE POP SWAP4 SWAP3 POP POP POP JUMP JUMPDEST PUSH1 0x3 PUSH1 0x20 MSTORE DUP2 PUSH0 MSTORE PUSH1 0x40 PUSH0 KECCAK256 DUP2 DUP2 SLOAD DUP2 LT PUSH2 0xBCA JUMPI PUSH0 DUP1 REVERT JUMPDEST SWAP1 PUSH0 MSTORE PUSH1 0x20 PUSH0 KECCAK256 ADD PUSH0 SWAP2 POP SWAP2 POP SWAP1 SLOAD SWAP1 PUSH2 0x100 EXP SWAP1 DIV PUSH20 0xFFFFFFFFFFFFFFFFFFFFFFFFFFFFFFFFFFFFFFFF AND DUP2 JUMP JUMPDEST PUSH0 DUP4 DUP4 CALLER PUSH0 DUP4 SWAP1 POP DUP2 PUSH20 0xFFFFFFFFFFFFFFFFFFFFFFFFFFFFFFFFFFFFFFFF AND DUP2 PUSH20 0xFFFFFFFFFFFFFFFFFFFFFFFFFFFFFFFFFFFFFFFF AND PUSH4 0x6352211E DUP6 PUSH1 0x40 MLOAD DUP3 PUSH4 0xFFFFFFFF AND PUSH1 0xE0 SHL DUP2 MSTORE PUSH1 0x4 ADD PUSH2 0xC51 SWAP2 SWAP1 PUSH2 0x1F98 JUMP JUMPDEST PUSH1 0x20 PUSH1 0x40 MLOAD DUP1 DUP4 SUB DUP2 DUP7 GAS STATICCALL ISZERO DUP1 ISZERO PUSH2 0xC6C JUMPI RETURNDATASIZE PUSH0 DUP1 RETURNDATACOPY RETURNDATASIZE PUSH0 REVERT JUMPDEST POP POP POP POP PUSH1 0x40 MLOAD RETURNDATASIZE PUSH1 0x1F NOT PUSH1 0x1F DUP3 ADD AND DUP3 ADD DUP1 PUSH1 0x40 MSTORE POP DUP2 ADD SWAP1 PUSH2 0xC90 SWAP2 SWAP1 PUSH2 0x2465 JUMP JUMPDEST PUSH20 0xFFFFFFFFFFFFFFFFFFFFFFFFFFFFFFFFFFFFFFFF AND EQ PUSH2 0xCE6 JUMPI PUSH1 0x40 MLOAD PUSH32 0x8C379A000000000000000000000000000000000000000000000000000000000 DUP2 MSTORE PUSH1 0x4 ADD PUSH2 0xCDD SWAP1 PUSH2 0x24DA JUMP JUMPDEST PUSH1 0x40 MLOAD DUP1 SWAP2 SUB SWAP1 REVERT JUMPDEST PUSH0 PUSH20 0xFFFFFFFFFFFFFFFFFFFFFFFFFFFFFFFFFFFFFFFF AND PUSH1 0x2 PUSH0 DUP11 PUSH20 0xFFFFFFFFFFFFFFFFFFFFFFFFFFFFFFFFFFFFFFFF AND PUSH20 0xFFFFFFFFFFFFFFFFFFFFFFFFFFFFFFFFFFFFFFFF AND DUP2 MSTORE PUSH1 0x20 ADD SWAP1 DUP2 MSTORE PUSH1 0x20 ADD PUSH0 KECCAK256 PUSH0 DUP10 DUP2 MSTORE PUSH1 0x20 ADD SWAP1 DUP2 MSTORE PUSH1 0x20 ADD PUSH0 KECCAK256 PUSH0 SWAP1 SLOAD SWAP1 PUSH2 0x100 EXP SWAP1 DIV PUSH20 0xFFFFFFFFFFFFFFFFFFFFFFFFFFFFFFFFFFFFFFFF AND PUSH20 0xFFFFFFFFFFFFFFFFFFFFFFFFFFFFFFFFFFFFFFFF AND EQ PUSH2 0xDD9 JUMPI DUP7 DUP9 PUSH20 0xFFFFFFFFFFFFFFFFFFFFFFFFFFFFFFFFFFFFFFFF AND PUSH32 0x795D2A562F597CC96A526206719A45F67C20B30518EA1C6F88DE912DD25ED23 PUSH1 0x40 MLOAD PUSH2 0xDC9 SWAP1 PUSH2 0x2542 JUMP JUMPDEST PUSH1 0x40 MLOAD DUP1 SWAP2 SUB SWAP1 LOG3 PUSH0 SWAP5 POP PUSH2 0x10C6 JUMP JUMPDEST ADDRESS PUSH20 0xFFFFFFFFFFFFFFFFFFFFFFFFFFFFFFFFFFFFFFFF AND DUP9 PUSH20 0xFFFFFFFFFFFFFFFFFFFFFFFFFFFFFFFFFFFFFFFF AND PUSH4 0x81812FC DUP10 PUSH1 0x40 MLOAD DUP3 PUSH4 0xFFFFFFFF AND PUSH1 0xE0 SHL DUP2 MSTORE PUSH1 0x4 ADD PUSH2 0xE29 SWAP2 SWAP1 PUSH2 0x1F98 JUMP JUMPDEST PUSH1 0x20 PUSH1 0x40 MLOAD DUP1 DUP4 SUB DUP2 DUP7 GAS STATICCALL ISZERO DUP1 ISZERO PUSH2 0xE44 JUMPI RETURNDATASIZE PUSH0 DUP1 RETURNDATACOPY RETURNDATASIZE PUSH0 REVERT JUMPDEST POP POP POP POP PUSH1 0x40 MLOAD RETURNDATASIZE PUSH1 0x1F NOT PUSH1 0x1F DUP3 ADD AND DUP3 ADD DUP1 PUSH1 0x40 MSTORE POP DUP2 ADD SWAP1 PUSH2 0xE68 SWAP2 SWAP1 PUSH2 0x2465 JUMP JUMPDEST PUSH20 0xFFFFFFFFFFFFFFFFFFFFFFFFFFFFFFFFFFFFFFFF AND EQ PUSH2 0xED8 JUMPI DUP7 DUP9 PUSH20 0xFFFFFFFFFFFFFFFFFFFFFFFFFFFFFFFFFFFFFFFF AND PUSH32 0x795D2A562F597CC96A526206719A45F67C20B30518EA1C6F88DE912DD25ED23 PUSH1 0x40 MLOAD PUSH2 0xEC8 SWAP1 PUSH2 0x25AA JUMP JUMPDEST PUSH1 0x40 MLOAD DUP1 SWAP2 SUB SWAP1 LOG3 PUSH0 SWAP5 POP PUSH2 0x10C6 JUMP JUMPDEST CALLER PUSH1 0x2 PUSH0 DUP11 PUSH20 0xFFFFFFFFFFFFFFFFFFFFFFFFFFFFFFFFFFFFFFFF AND PUSH20 0xFFFFFFFFFFFFFFFFFFFFFFFFFFFFFFFFFFFFFFFF AND DUP2 MSTORE PUSH1 0x20 ADD SWAP1 DUP2 MSTORE PUSH1 0x20 ADD PUSH0 KECCAK256 PUSH0 DUP10 DUP2 MSTORE PUSH1 0x20 ADD SWAP1 DUP2 MSTORE PUSH1 0x20 ADD PUSH0 KECCAK256 PUSH0 PUSH2 0x100 EXP DUP2 SLOAD DUP2 PUSH20 0xFFFFFFFFFFFFFFFFFFFFFFFFFFFFFFFFFFFFFFFF MUL NOT AND SWAP1 DUP4 PUSH20 0xFFFFFFFFFFFFFFFFFFFFFFFFFFFFFFFFFFFFFFFF AND MUL OR SWAP1 SSTORE POP PUSH1 0x4 PUSH0 DUP8 PUSH2 0xFFFF AND PUSH2 0xFFFF AND DUP2 MSTORE PUSH1 0x20 ADD SWAP1 DUP2 MSTORE PUSH1 0x20 ADD PUSH0 KECCAK256 PUSH0 DUP10 PUSH20 0xFFFFFFFFFFFFFFFFFFFFFFFFFFFFFFFFFFFFFFFF AND PUSH20 0xFFFFFFFFFFFFFFFFFFFFFFFFFFFFFFFFFFFFFFFF AND DUP2 MSTORE PUSH1 0x20 ADD SWAP1 DUP2 MSTORE PUSH1 0x20 ADD PUSH0 KECCAK256 DUP8 SWAP1 DUP1 PUSH1 0x1 DUP2 SLOAD ADD DUP1 DUP3 SSTORE DUP1 SWAP2 POP POP PUSH1 0x1 SWAP1 SUB SWAP1 PUSH0 MSTORE PUSH1 0x20 PUSH0 KECCAK256 ADD PUSH0 SWAP1 SWAP2 SWAP1 SWAP2 SWAP1 SWAP2 POP SSTORE PUSH1 0x3 PUSH0 DUP8 PUSH2 0xFFFF AND PUSH2 0xFFFF AND DUP2 MSTORE PUSH1 0x20 ADD SWAP1 DUP2 MSTORE PUSH1 0x20 ADD PUSH0 KECCAK256 DUP9 SWAP1 DUP1 PUSH1 0x1 DUP2 SLOAD ADD DUP1 DUP3 SSTORE DUP1 SWAP2 POP POP PUSH1 0x1 SWAP1 SUB SWAP1 PUSH0 MSTORE PUSH1 0x20 PUSH0 KECCAK256 ADD PUSH0 SWAP1 SWAP2 SWAP1 SWAP2 SWAP1 SWAP2 PUSH2 0x100 EXP DUP2 SLOAD DUP2 PUSH20 0xFFFFFFFFFFFFFFFFFFFFFFFFFFFFFFFFFFFFFFFF MUL NOT AND SWAP1 DUP4 PUSH20 0xFFFFFFFFFFFFFFFFFFFFFFFFFFFFFFFFFFFFFFFF AND MUL OR SWAP1 SSTORE POP CALLER PUSH20 0xFFFFFFFFFFFFFFFFFFFFFFFFFFFFFFFFFFFFFFFF AND DUP8 DUP10 PUSH20 0xFFFFFFFFFFFFFFFFFFFFFFFFFFFFFFFFFFFFFFFF AND PUSH32 0xD4D9493BDE2C94A44263C0E6B76A960EFEC9B18D7E4533B24A2F72E7FE120523 PUSH2 0x10AA DUP11 PUSH2 0x185D JUMP JUMPDEST DUP11 PUSH1 0x40 MLOAD PUSH2 0x10B9 SWAP3 SWAP2 SWAP1 PUSH2 0x25D7 JUMP JUMPDEST PUSH1 0x40 MLOAD DUP1 SWAP2 SUB SWAP1 LOG4 PUSH1 0x1 SWAP5 POP JUMPDEST POP POP POP POP SWAP4 SWAP3 POP POP POP JUMP JUMPDEST PUSH0 PUSH2 0x10DA PUSH2 0x1B23 JUMP JUMPDEST PUSH0 PUSH20 0xFFFFFFFFFFFFFFFFFFFFFFFFFFFFFFFFFFFFFFFF AND PUSH1 0x2 PUSH0 DUP6 PUSH20 0xFFFFFFFFFFFFFFFFFFFFFFFFFFFFFFFFFFFFFFFF AND PUSH20 0xFFFFFFFFFFFFFFFFFFFFFFFFFFFFFFFFFFFFFFFF AND DUP2 MSTORE PUSH1 0x20 ADD SWAP1 DUP2 MSTORE PUSH1 0x20 ADD PUSH0 KECCAK256 PUSH0 DUP5 DUP2 MSTORE PUSH1 0x20 ADD SWAP1 DUP2 MSTORE PUSH1 0x20 ADD PUSH0 KECCAK256 PUSH0 SWAP1 SLOAD SWAP1 PUSH2 0x100 EXP SWAP1 DIV PUSH20 0xFFFFFFFFFFFFFFFFFFFFFFFFFFFFFFFFFFFFFFFF AND PUSH20 0xFFFFFFFFFFFFFFFFFFFFFFFFFFFFFFFFFFFFFFFF AND SUB PUSH2 0x11CD JUMPI DUP2 DUP4 PUSH20 0xFFFFFFFFFFFFFFFFFFFFFFFFFFFFFFFFFFFFFFFF AND PUSH32 0x8A8719B9514356483D3FC6F38C0ADA5A06A46D633339046C40EE527D7BDA0DE4 PUSH1 0x40 MLOAD PUSH2 0x11BD SWAP1 PUSH2 0x2433 JUMP JUMPDEST PUSH1 0x40 MLOAD DUP1 SWAP2 SUB SWAP1 LOG3 PUSH0 SWAP1 POP PUSH2 0x14A0 JUMP JUMPDEST PUSH0 PUSH2 0x11D8 DUP5 DUP5 PUSH2 0x18BE JUMP JUMPDEST SWAP1 POP PUSH0 PUSH1 0x2 PUSH0 DUP7 PUSH20 0xFFFFFFFFFFFFFFFFFFFFFFFFFFFFFFFFFFFFFFFF AND PUSH20 0xFFFFFFFFFFFFFFFFFFFFFFFFFFFFFFFFFFFFFFFF AND DUP2 MSTORE PUSH1 0x20 ADD SWAP1 DUP2 MSTORE PUSH1 0x20 ADD PUSH0 KECCAK256 PUSH0 DUP6 DUP2 MSTORE PUSH1 0x20 ADD SWAP1 DUP2 MSTORE PUSH1 0x20 ADD PUSH0 KECCAK256 PUSH0 SWAP1 SLOAD SWAP1 PUSH2 0x100 EXP SWAP1 DIV PUSH20 0xFFFFFFFFFFFFFFFFFFFFFFFFFFFFFFFFFFFFFFFF AND SWAP1 POP PUSH0 PUSH2 0x1253 DUP4 PUSH2 0x185D JUMP JUMPDEST SWAP1 POP PUSH1 0x1 PUSH0 SWAP1 SLOAD SWAP1 PUSH2 0x100 EXP SWAP1 DIV PUSH20 0xFFFFFFFFFFFFFFFFFFFFFFFFFFFFFFFFFFFFFFFF AND PUSH20 0xFFFFFFFFFFFFFFFFFFFFFFFFFFFFFFFFFFFFFFFF AND PUSH4 0x23B872DD CALLER DUP5 DUP5 PUSH1 0x40 MLOAD DUP5 PUSH4 0xFFFFFFFF AND PUSH1 0xE0 SHL DUP2 MSTORE PUSH1 0x4 ADD PUSH2 0x12B3 SWAP4 SWAP3 SWAP2 SWAP1 PUSH2 0x22B0 JUMP JUMPDEST PUSH1 0x20 PUSH1 0x40 MLOAD DUP1 DUP4 SUB DUP2 PUSH0 DUP8 GAS CALL ISZERO DUP1 ISZERO PUSH2 0x12CF JUMPI RETURNDATASIZE PUSH0 DUP1 RETURNDATACOPY RETURNDATASIZE PUSH0 REVERT JUMPDEST POP POP POP POP PUSH1 0x40 MLOAD RETURNDATASIZE PUSH1 0x1F NOT PUSH1 0x1F DUP3 ADD AND DUP3 ADD DUP1 PUSH1 0x40 MSTORE POP DUP2 ADD SWAP1 PUSH2 0x12F3 SWAP2 SWAP1 PUSH2 0x230F JUMP JUMPDEST PUSH2 0x134F JUMPI DUP5 DUP7 PUSH20 0xFFFFFFFFFFFFFFFFFFFFFFFFFFFFFFFFFFFFFFFF AND PUSH32 0x8A8719B9514356483D3FC6F38C0ADA5A06A46D633339046C40EE527D7BDA0DE4 PUSH1 0x40 MLOAD PUSH2 0x133C SWAP1 PUSH2 0x2384 JUMP JUMPDEST PUSH1 0x40 MLOAD DUP1 SWAP2 SUB SWAP1 LOG3 PUSH0 SWAP4 POP POP POP POP PUSH2 0x14A0 JUMP JUMPDEST PUSH1 0x2 PUSH0 DUP8 PUSH20 0xFFFFFFFFFFFFFFFFFFFFFFFFFFFFFFFFFFFFFFFF AND PUSH20 0xFFFFFFFFFFFFFFFFFFFFFFFFFFFFFFFFFFFFFFFF AND DUP2 MSTORE PUSH1 0x20 ADD SWAP1 DUP2 MSTORE PUSH1 0x20 ADD PUSH0 KECCAK256 PUSH0 DUP7 DUP2 MSTORE PUSH1 0x20 ADD SWAP1 DUP2 MSTORE PUSH1 0x20 ADD PUSH0 KECCAK256 PUSH0 PUSH2 0x100 EXP DUP2 SLOAD SWAP1 PUSH20 0xFFFFFFFFFFFFFFFFFFFFFFFFFFFFFFFFFFFFFFFF MUL NOT AND SWAP1 SSTORE PUSH2 0x13C8 DUP4 DUP8 DUP8 PUSH2 0x1A14 JUMP JUMPDEST DUP6 PUSH20 0xFFFFFFFFFFFFFFFFFFFFFFFFFFFFFFFFFFFFFFFF AND PUSH4 0x42842E0E DUP4 CALLER DUP9 PUSH1 0x40 MLOAD DUP5 PUSH4 0xFFFFFFFF AND PUSH1 0xE0 SHL DUP2 MSTORE PUSH1 0x4 ADD PUSH2 0x1405 SWAP4 SWAP3 SWAP2 SWAP1 PUSH2 0x22B0 JUMP JUMPDEST PUSH0 PUSH1 0x40 MLOAD DUP1 DUP4 SUB DUP2 PUSH0 DUP8 DUP1 EXTCODESIZE ISZERO DUP1 ISZERO PUSH2 0x141C JUMPI PUSH0 DUP1 REVERT JUMPDEST POP GAS CALL ISZERO DUP1 ISZERO PUSH2 0x142E JUMPI RETURNDATASIZE PUSH0 DUP1 RETURNDATACOPY RETURNDATASIZE PUSH0 REVERT JUMPDEST POP POP POP POP CALLER PUSH20 0xFFFFFFFFFFFFFFFFFFFFFFFFFFFFFFFFFFFFFFFF AND DUP6 DUP8 PUSH20 0xFFFFFFFFFFFFFFFFFFFFFFFFFFFFFFFFFFFFFFFF AND PUSH32 0x77C3CED349B08A2AF4E9D443FB697437C3197B3095D43FCBDC2CDC97B1A60E0C DUP5 PUSH1 0x40 MLOAD PUSH2 0x1490 SWAP2 SWAP1 PUSH2 0x1F98 JUMP JUMPDEST PUSH1 0x40 MLOAD DUP1 SWAP2 SUB SWAP1 LOG4 PUSH1 0x1 SWAP4 POP POP POP POP JUMPDEST PUSH2 0x14A8 PUSH2 0x1B70 JUMP JUMPDEST SWAP3 SWAP2 POP POP JUMP JUMPDEST PUSH1 0x60 DUP5 DUP5 SWAP1 POP PUSH8 0xFFFFFFFFFFFFFFFF DUP2 GT ISZERO PUSH2 0x14CD JUMPI PUSH2 0x14CC PUSH2 0x217E JUMP JUMPDEST JUMPDEST PUSH1 0x40 MLOAD SWAP1 DUP1 DUP3 MSTORE DUP1 PUSH1 0x20 MUL PUSH1 0x20 ADD DUP3 ADD PUSH1 0x40 MSTORE DUP1 ISZERO PUSH2 0x14FB JUMPI DUP2 PUSH1 0x20 ADD PUSH1 0x20 DUP3 MUL DUP1 CALLDATASIZE DUP4 CALLDATACOPY DUP1 DUP3 ADD SWAP2 POP POP SWAP1 POP JUMPDEST POP SWAP1 POP PUSH0 DUP1 JUMPDEST DUP7 DUP7 SWAP1 POP DUP2 LT DUP1 ISZERO PUSH2 0x1512 JUMPI POP DUP4 DUP3 LT JUMPDEST ISZERO PUSH2 0x15A0 JUMPI PUSH0 PUSH2 0x153C DUP10 DUP10 DUP10 DUP6 DUP2 DUP2 LT PUSH2 0x152F JUMPI PUSH2 0x152E PUSH2 0x21AB JUMP JUMPDEST JUMPDEST SWAP1 POP PUSH1 0x20 MUL ADD CALLDATALOAD DUP9 PUSH2 0xBF9 JUMP JUMPDEST SWAP1 POP DUP1 ISZERO PUSH2 0x158C JUMPI DUP8 DUP8 DUP4 DUP2 DUP2 LT PUSH2 0x1557 JUMPI PUSH2 0x1556 PUSH2 0x21AB JUMP JUMPDEST JUMPDEST SWAP1 POP PUSH1 0x20 MUL ADD CALLDATALOAD DUP5 DUP5 DUP2 MLOAD DUP2 LT PUSH2 0x1571 JUMPI PUSH2 0x1570 PUSH2 0x21AB JUMP JUMPDEST JUMPDEST PUSH1 0x20 MUL PUSH1 0x20 ADD ADD DUP2 DUP2 MSTORE POP POP DUP3 DUP1 PUSH2 0x1588 SWAP1 PUSH2 0x23A2 JUMP JUMPDEST SWAP4 POP POP JUMPDEST POP DUP1 DUP1 PUSH2 0x1598 SWAP1 PUSH2 0x23A2 JUMP JUMPDEST SWAP2 POP POP PUSH2 0x1501 JUMP JUMPDEST POP DUP1 DUP3 MSTORE POP SWAP6 SWAP5 POP POP POP POP POP JUMP JUMPDEST DUP2 DUP2 CALLER PUSH0 DUP4 SWAP1 POP DUP2 PUSH20 0xFFFFFFFFFFFFFFFFFFFFFFFFFFFFFFFFFFFFFFFF AND DUP2 PUSH20 0xFFFFFFFFFFFFFFFFFFFFFFFFFFFFFFFFFFFFFFFF AND PUSH4 0x6352211E DUP6 PUSH1 0x40 MLOAD DUP3 PUSH4 0xFFFFFFFF AND PUSH1 0xE0 SHL DUP2 MSTORE PUSH1 0x4 ADD PUSH2 0x1605 SWAP2 SWAP1 PUSH2 0x1F98 JUMP JUMPDEST PUSH1 0x20 PUSH1 0x40 MLOAD DUP1 DUP4 SUB DUP2 DUP7 GAS STATICCALL ISZERO DUP1 ISZERO PUSH2 0x1620 JUMPI RETURNDATASIZE PUSH0 DUP1 RETURNDATACOPY RETURNDATASIZE PUSH0 REVERT JUMPDEST POP POP POP POP PUSH1 0x40 MLOAD RETURNDATASIZE PUSH1 0x1F NOT PUSH1 0x1F DUP3 ADD AND DUP3 ADD DUP1 PUSH1 0x40 MSTORE POP DUP2 ADD SWAP1 PUSH2 0x1644 SWAP2 SWAP1 PUSH2 0x2465 JUMP JUMPDEST PUSH20 0xFFFFFFFFFFFFFFFFFFFFFFFFFFFFFFFFFFFFFFFF AND EQ PUSH2 0x169A JUMPI PUSH1 0x40 MLOAD PUSH32 0x8C379A000000000000000000000000000000000000000000000000000000000 DUP2 MSTORE PUSH1 0x4 ADD PUSH2 0x1691 SWAP1 PUSH2 0x24DA JUMP JUMPDEST PUSH1 0x40 MLOAD DUP1 SWAP2 SUB SWAP1 REVERT JUMPDEST PUSH0 PUSH20 0xFFFFFFFFFFFFFFFFFFFFFFFFFFFFFFFFFFFFFFFF AND PUSH1 0x2 PUSH0 DUP9 PUSH20 0xFFFFFFFFFFFFFFFFFFFFFFFFFFFFFFFFFFFFFFFF AND PUSH20 0xFFFFFFFFFFFFFFFFFFFFFFFFFFFFFFFFFFFFFFFF AND DUP2 MSTORE PUSH1 0x20 ADD SWAP1 DUP2 MSTORE PUSH1 0x20 ADD PUSH0 KECCAK256 PUSH0 DUP8 DUP2 MSTORE PUSH1 0x20 ADD SWAP1 DUP2 MSTORE PUSH1 0x20 ADD PUSH0 KECCAK256 PUSH0 SWAP1 SLOAD SWAP1 PUSH2 0x100 EXP SWAP1 DIV PUSH20 0xFFFFFFFFFFFFFFFFFFFFFFFFFFFFFFFFFFFFFFFF AND PUSH20 0xFFFFFFFFFFFFFFFFFFFFFFFFFFFFFFFFFFFFFFFF AND SUB PUSH2 0x1773 JUMPI PUSH1 0x40 MLOAD PUSH32 0x8C379A000000000000000000000000000000000000000000000000000000000 DUP2 MSTORE PUSH1 0x4 ADD PUSH2 0x176A SWAP1 PUSH2 0x2433 JUMP JUMPDEST PUSH1 0x40 MLOAD DUP1 SWAP2 SUB SWAP1 REVERT JUMPDEST PUSH0 PUSH2 0x177E DUP8 DUP8 PUSH2 0x18BE JUMP JUMPDEST SWAP1 POP PUSH1 0x2 PUSH0 DUP9 PUSH20 0xFFFFFFFFFFFFFFFFFFFFFFFFFFFFFFFFFFFFFFFF AND PUSH20 0xFFFFFFFFFFFFFFFFFFFFFFFFFFFFFFFFFFFFFFFF AND DUP2 MSTORE PUSH1 0x20 ADD SWAP1 DUP2 MSTORE PUSH1 0x20 ADD PUSH0 KECCAK256 PUSH0 DUP8 DUP2 MSTORE PUSH1 0x20 ADD SWAP1 DUP2 MSTORE PUSH1 0x20 ADD PUSH0 KECCAK256 PUSH0 PUSH2 0x100 EXP DUP2 SLOAD SWAP1 PUSH20 0xFFFFFFFFFFFFFFFFFFFFFFFFFFFFFFFFFFFFFFFF MUL NOT AND SWAP1 SSTORE PUSH2 0x17F9 DUP2 DUP9 DUP9 PUSH2 0x1A14 JUMP JUMPDEST CALLER PUSH20 0xFFFFFFFFFFFFFFFFFFFFFFFFFFFFFFFFFFFFFFFF AND DUP7 DUP9 PUSH20 0xFFFFFFFFFFFFFFFFFFFFFFFFFFFFFFFFFFFFFFFF AND PUSH32 0x83614A26FD4398C876BD6684C0D04CF2E84EE7E4BC24E8D8888AB0E724BAC032 PUSH1 0x40 MLOAD PUSH1 0x40 MLOAD DUP1 SWAP2 SUB SWAP1 LOG4 POP POP POP POP POP POP POP JUMP JUMPDEST PUSH0 DUP1 DUP3 PUSH2 0xFFFF AND GT PUSH2 0x18A4 JUMPI PUSH1 0x40 MLOAD PUSH32 0x8C379A000000000000000000000000000000000000000000000000000000000 DUP2 MSTORE PUSH1 0x4 ADD PUSH2 0x189B SWAP1 PUSH2 0x2648 JUMP JUMPDEST PUSH1 0x40 MLOAD DUP1 SWAP2 SUB SWAP1 REVERT JUMPDEST PUSH3 0xF4240 DUP3 PUSH2 0xFFFF AND PUSH2 0x18B7 SWAP2 SWAP1 PUSH2 0x2666 JUMP JUMPDEST SWAP1 POP SWAP2 SWAP1 POP JUMP JUMPDEST PUSH0 DUP1 PUSH0 DUP5 PUSH20 0xFFFFFFFFFFFFFFFFFFFFFFFFFFFFFFFFFFFFFFFF AND DUP5 PUSH1 0x40 MLOAD PUSH1 0x24 ADD PUSH2 0x18E9 SWAP2 SWAP1 PUSH2 0x1F98 JUMP JUMPDEST PUSH1 0x40 MLOAD PUSH1 0x20 DUP2 DUP4 SUB SUB DUP2 MSTORE SWAP1 PUSH1 0x40 MSTORE PUSH32 0x8166C9DC00000000000000000000000000000000000000000000000000000000 PUSH28 0xFFFFFFFFFFFFFFFFFFFFFFFFFFFFFFFFFFFFFFFFFFFFFFFFFFFFFFFF NOT AND PUSH1 0x20 DUP3 ADD DUP1 MLOAD PUSH28 0xFFFFFFFFFFFFFFFFFFFFFFFFFFFFFFFFFFFFFFFFFFFFFFFFFFFFFFFF DUP4 DUP2 DUP4 AND OR DUP4 MSTORE POP POP POP POP PUSH1 0x40 MLOAD PUSH2 0x1973 SWAP2 SWAP1 PUSH2 0x26F9 JUMP JUMPDEST PUSH0 PUSH1 0x40 MLOAD DUP1 DUP4 SUB DUP2 PUSH0 DUP7 GAS CALL SWAP2 POP POP RETURNDATASIZE DUP1 PUSH0 DUP2 EQ PUSH2 0x19AC JUMPI PUSH1 0x40 MLOAD SWAP2 POP PUSH1 0x1F NOT PUSH1 0x3F RETURNDATASIZE ADD AND DUP3 ADD PUSH1 0x40 MSTORE RETURNDATASIZE DUP3 MSTORE RETURNDATASIZE PUSH0 PUSH1 0x20 DUP5 ADD RETURNDATACOPY PUSH2 0x19B1 JUMP JUMPDEST PUSH1 0x60 SWAP2 POP JUMPDEST POP SWAP2 POP SWAP2 POP DUP2 PUSH2 0x19F6 JUMPI PUSH1 0x40 MLOAD PUSH32 0x8C379A000000000000000000000000000000000000000000000000000000000 DUP2 MSTORE PUSH1 0x4 ADD PUSH2 0x19ED SWAP1 PUSH2 0x2759 JUMP JUMPDEST PUSH1 0x40 MLOAD DUP1 SWAP2 SUB SWAP1 REVERT JUMPDEST DUP1 DUP1 PUSH1 0x20 ADD SWAP1 MLOAD DUP2 ADD SWAP1 PUSH2 0x1A0A SWAP2 SWAP1 PUSH2 0x278B JUMP JUMPDEST SWAP3 POP POP POP SWAP3 SWAP2 POP POP JUMP JUMPDEST PUSH0 PUSH1 0x4 PUSH0 DUP6 PUSH2 0xFFFF AND PUSH2 0xFFFF AND DUP2 MSTORE PUSH1 0x20 ADD SWAP1 DUP2 MSTORE PUSH1 0x20 ADD PUSH0 KECCAK256 PUSH0 DUP5 PUSH20 0xFFFFFFFFFFFFFFFFFFFFFFFFFFFFFFFFFFFFFFFF AND PUSH20 0xFFFFFFFFFFFFFFFFFFFFFFFFFFFFFFFFFFFFFFFF AND DUP2 MSTORE PUSH1 0x20 ADD SWAP1 DUP2 MSTORE PUSH1 0x20 ADD PUSH0 KECCAK256 SWAP1 POP PUSH0 JUMPDEST DUP2 DUP1 SLOAD SWAP1 POP DUP2 LT ISZERO PUSH2 0x1B1C JUMPI DUP3 DUP3 DUP3 DUP2 SLOAD DUP2 LT PUSH2 0x1A8D JUMPI PUSH2 0x1A8C PUSH2 0x21AB JUMP JUMPDEST JUMPDEST SWAP1 PUSH0 MSTORE PUSH1 0x20 PUSH0 KECCAK256 ADD SLOAD SUB PUSH2 0x1B0F JUMPI DUP2 PUSH1 0x1 DUP4 DUP1 SLOAD SWAP1 POP PUSH2 0x1AAD SWAP2 SWAP1 PUSH2 0x27B6 JUMP JUMPDEST DUP2 SLOAD DUP2 LT PUSH2 0x1ABE JUMPI PUSH2 0x1ABD PUSH2 0x21AB JUMP JUMPDEST JUMPDEST SWAP1 PUSH0 MSTORE PUSH1 0x20 PUSH0 KECCAK256 ADD SLOAD DUP3 DUP3 DUP2 SLOAD DUP2 LT PUSH2 0x1ADA JUMPI PUSH2 0x1AD9 PUSH2 0x21AB JUMP JUMPDEST JUMPDEST SWAP1 PUSH0 MSTORE PUSH1 0x20 PUSH0 KECCAK256 ADD DUP2 SWAP1 SSTORE POP DUP2 DUP1 SLOAD DUP1 PUSH2 0x1AF7 JUMPI PUSH2 0x1AF6 PUSH2 0x27E9 JUMP JUMPDEST JUMPDEST PUSH1 0x1 SWAP1 SUB DUP2 DUP2 SWAP1 PUSH0 MSTORE PUSH1 0x20 PUSH0 KECCAK256 ADD PUSH0 SWAP1 SSTORE SWAP1 SSTORE PUSH2 0x1B1C JUMP JUMPDEST DUP1 DUP1 PUSH1 0x1 ADD SWAP2 POP POP PUSH2 0x1A6D JUMP JUMPDEST POP POP POP POP POP JUMP JUMPDEST PUSH1 0x2 PUSH0 SLOAD SUB PUSH2 0x1B67 JUMPI PUSH1 0x40 MLOAD PUSH32 0x8C379A000000000000000000000000000000000000000000000000000000000 DUP2 MSTORE PUSH1 0x4 ADD PUSH2 0x1B5E SWAP1 PUSH2 0x2860 JUMP JUMPDEST PUSH1 0x40 MLOAD DUP1 SWAP2 SUB SWAP1 REVERT JUMPDEST PUSH1 0x2 PUSH0 DUP2 SWAP1 SSTORE POP JUMP JUMPDEST PUSH1 0x1 PUSH0 DUP2 SWAP1 SSTORE POP JUMP JUMPDEST PUSH0 DUP1 REVERT JUMPDEST PUSH0 DUP1 REVERT JUMPDEST PUSH0 PUSH20 0xFFFFFFFFFFFFFFFFFFFFFFFFFFFFFFFFFFFFFFFF DUP3 AND SWAP1 POP SWAP2 SWAP1 POP JUMP JUMPDEST PUSH0 PUSH2 0x1BAA DUP3 PUSH2 0x1B81 JUMP JUMPDEST SWAP1 POP SWAP2 SWAP1 POP JUMP JUMPDEST PUSH2 0x1BBA DUP2 PUSH2 0x1BA0 JUMP JUMPDEST DUP2 EQ PUSH2 0x1BC4 JUMPI PUSH0 DUP1 REVERT JUMPDEST POP JUMP JUMPDEST PUSH0 DUP2 CALLDATALOAD SWAP1 POP PUSH2 0x1BD5 DUP2 PUSH2 0x1BB1 JUMP JUMPDEST SWAP3 SWAP2 POP POP JUMP JUMPDEST PUSH0 DUP2 SWAP1 POP SWAP2 SWAP1 POP JUMP JUMPDEST PUSH2 0x1BED DUP2 PUSH2 0x1BDB JUMP JUMPDEST DUP2 EQ PUSH2 0x1BF7 JUMPI PUSH0 DUP1 REVERT JUMPDEST POP JUMP JUMPDEST PUSH0 DUP2 CALLDATALOAD SWAP1 POP PUSH2 0x1C08 DUP2 PUSH2 0x1BE4 JUMP JUMPDEST SWAP3 SWAP2 POP POP JUMP JUMPDEST PUSH0 DUP1 PUSH1 0x40 DUP4 DUP6 SUB SLT ISZERO PUSH2 0x1C24 JUMPI PUSH2 0x1C23 PUSH2 0x1B79 JUMP JUMPDEST JUMPDEST PUSH0 PUSH2 0x1C31 DUP6 DUP3 DUP7 ADD PUSH2 0x1BC7 JUMP JUMPDEST SWAP3 POP POP PUSH1 0x20 PUSH2 0x1C42 DUP6 DUP3 DUP7 ADD PUSH2 0x1BFA JUMP JUMPDEST SWAP2 POP POP SWAP3 POP SWAP3 SWAP1 POP JUMP JUMPDEST PUSH2 0x1C55 DUP2 PUSH2 0x1BA0 JUMP JUMPDEST DUP3 MSTORE POP POP JUMP JUMPDEST PUSH0 PUSH1 0x20 DUP3 ADD SWAP1 POP PUSH2 0x1C6E PUSH0 DUP4 ADD DUP5 PUSH2 0x1C4C JUMP JUMPDEST SWAP3 SWAP2 POP POP JUMP JUMPDEST PUSH0 DUP1 REVERT JUMPDEST PUSH0 DUP1 REVERT JUMPDEST PUSH0 DUP1 REVERT JUMPDEST PUSH0 DUP1 DUP4 PUSH1 0x1F DUP5 ADD SLT PUSH2 0x1C95 JUMPI PUSH2 0x1C94 PUSH2 0x1C74 JUMP JUMPDEST JUMPDEST DUP3 CALLDATALOAD SWAP1 POP PUSH8 0xFFFFFFFFFFFFFFFF DUP2 GT ISZERO PUSH2 0x1CB2 JUMPI PUSH2 0x1CB1 PUSH2 0x1C78 JUMP JUMPDEST JUMPDEST PUSH1 0x20 DUP4 ADD SWAP2 POP DUP4 PUSH1 0x20 DUP3 MUL DUP4 ADD GT ISZERO PUSH2 0x1CCE JUMPI PUSH2 0x1CCD PUSH2 0x1C7C JUMP JUMPDEST JUMPDEST SWAP3 POP SWAP3 SWAP1 POP JUMP JUMPDEST PUSH0 DUP1 PUSH0 DUP1 PUSH1 0x60 DUP6 DUP8 SUB SLT ISZERO PUSH2 0x1CED JUMPI PUSH2 0x1CEC PUSH2 0x1B79 JUMP JUMPDEST JUMPDEST PUSH0 PUSH2 0x1CFA DUP8 DUP3 DUP9 ADD PUSH2 0x1BC7 JUMP JUMPDEST SWAP5 POP POP PUSH1 0x20 DUP6 ADD CALLDATALOAD PUSH8 0xFFFFFFFFFFFFFFFF DUP2 GT ISZERO PUSH2 0x1D1B JUMPI PUSH2 0x1D1A PUSH2 0x1B7D JUMP JUMPDEST JUMPDEST PUSH2 0x1D27 DUP8 DUP3 DUP9 ADD PUSH2 0x1C80 JUMP JUMPDEST SWAP4 POP SWAP4 POP POP PUSH1 0x40 PUSH2 0x1D3A DUP8 DUP3 DUP9 ADD PUSH2 0x1BFA JUMP JUMPDEST SWAP2 POP POP SWAP3 SWAP6 SWAP2 SWAP5 POP SWAP3 POP JUMP JUMPDEST PUSH0 DUP2 MLOAD SWAP1 POP SWAP2 SWAP1 POP JUMP JUMPDEST PUSH0 DUP3 DUP3 MSTORE PUSH1 0x20 DUP3 ADD SWAP1 POP SWAP3 SWAP2 POP POP JUMP JUMPDEST PUSH0 DUP2 SWAP1 POP PUSH1 0x20 DUP3 ADD SWAP1 POP SWAP2 SWAP1 POP JUMP JUMPDEST PUSH2 0x1D78 DUP2 PUSH2 0x1BDB JUMP JUMPDEST DUP3 MSTORE POP POP JUMP JUMPDEST PUSH0 PUSH2 0x1D89 DUP4 DUP4 PUSH2 0x1D6F JUMP JUMPDEST PUSH1 0x20 DUP4 ADD SWAP1 POP SWAP3 SWAP2 POP POP JUMP JUMPDEST PUSH0 PUSH1 0x20 DUP3 ADD SWAP1 POP SWAP2 SWAP1 POP JUMP JUMPDEST PUSH0 PUSH2 0x1DAB DUP3 PUSH2 0x1D46 JUMP JUMPDEST PUSH2 0x1DB5 DUP2 DUP6 PUSH2 0x1D50 JUMP JUMPDEST SWAP4 POP PUSH2 0x1DC0 DUP4 PUSH2 0x1D60 JUMP JUMPDEST DUP1 PUSH0 JUMPDEST DUP4 DUP2 LT ISZERO PUSH2 0x1DF0 JUMPI DUP2 MLOAD PUSH2 0x1DD7 DUP9 DUP3 PUSH2 0x1D7E JUMP JUMPDEST SWAP8 POP PUSH2 0x1DE2 DUP4 PUSH2 0x1D95 JUMP JUMPDEST SWAP3 POP POP PUSH1 0x1 DUP2 ADD SWAP1 POP PUSH2 0x1DC3 JUMP JUMPDEST POP DUP6 SWAP4 POP POP POP POP SWAP3 SWAP2 POP POP JUMP JUMPDEST PUSH0 PUSH1 0x20 DUP3 ADD SWAP1 POP DUP2 DUP2 SUB PUSH0 DUP4 ADD MSTORE PUSH2 0x1E15 DUP2 DUP5 PUSH2 0x1DA1 JUMP JUMPDEST SWAP1 POP SWAP3 SWAP2 POP POP JUMP JUMPDEST PUSH0 PUSH2 0xFFFF DUP3 AND SWAP1 POP SWAP2 SWAP1 POP JUMP JUMPDEST PUSH2 0x1E33 DUP2 PUSH2 0x1E1D JUMP JUMPDEST DUP2 EQ PUSH2 0x1E3D JUMPI PUSH0 DUP1 REVERT JUMPDEST POP JUMP JUMPDEST PUSH0 DUP2 CALLDATALOAD SWAP1 POP PUSH2 0x1E4E DUP2 PUSH2 0x1E2A JUMP JUMPDEST SWAP3 SWAP2 POP POP JUMP JUMPDEST PUSH0 DUP1 PUSH0 DUP1 PUSH1 0x60 DUP6 DUP8 SUB SLT ISZERO PUSH2 0x1E6C JUMPI PUSH2 0x1E6B PUSH2 0x1B79 JUMP JUMPDEST JUMPDEST PUSH0 PUSH2 0x1E79 DUP8 DUP3 DUP9 ADD PUSH2 0x1BC7 JUMP JUMPDEST SWAP5 POP POP PUSH1 0x20 DUP6 ADD CALLDATALOAD PUSH8 0xFFFFFFFFFFFFFFFF DUP2 GT ISZERO PUSH2 0x1E9A JUMPI PUSH2 0x1E99 PUSH2 0x1B7D JUMP JUMPDEST JUMPDEST PUSH2 0x1EA6 DUP8 DUP3 DUP9 ADD PUSH2 0x1C80 JUMP JUMPDEST SWAP4 POP SWAP4 POP POP PUSH1 0x40 PUSH2 0x1EB9 DUP8 DUP3 DUP9 ADD PUSH2 0x1E40 JUMP JUMPDEST SWAP2 POP POP SWAP3 SWAP6 SWAP2 SWAP5 POP SWAP3 POP JUMP JUMPDEST PUSH0 DUP2 SWAP1 POP SWAP2 SWAP1 POP JUMP JUMPDEST PUSH0 PUSH2 0x1EE8 PUSH2 0x1EE3 PUSH2 0x1EDE DUP5 PUSH2 0x1B81 JUMP JUMPDEST PUSH2 0x1EC5 JUMP JUMPDEST PUSH2 0x1B81 JUMP JUMPDEST SWAP1 POP SWAP2 SWAP1 POP JUMP JUMPDEST PUSH0 PUSH2 0x1EF9 DUP3 PUSH2 0x1ECE JUMP JUMPDEST SWAP1 POP SWAP2 SWAP1 POP JUMP JUMPDEST PUSH0 PUSH2 0x1F0A DUP3 PUSH2 0x1EEF JUMP JUMPDEST SWAP1 POP SWAP2 SWAP1 POP JUMP JUMPDEST PUSH2 0x1F1A DUP2 PUSH2 0x1F00 JUMP JUMPDEST DUP3 MSTORE POP POP JUMP JUMPDEST PUSH0 PUSH1 0x20 DUP3 ADD SWAP1 POP PUSH2 0x1F33 PUSH0 DUP4 ADD DUP5 PUSH2 0x1F11 JUMP JUMPDEST SWAP3 SWAP2 POP POP JUMP JUMPDEST PUSH0 DUP1 PUSH0 PUSH1 0x60 DUP5 DUP7 SUB SLT ISZERO PUSH2 0x1F50 JUMPI PUSH2 0x1F4F PUSH2 0x1B79 JUMP JUMPDEST JUMPDEST PUSH0 PUSH2 0x1F5D DUP7 DUP3 DUP8 ADD PUSH2 0x1E40 JUMP JUMPDEST SWAP4 POP POP PUSH1 0x20 PUSH2 0x1F6E DUP7 DUP3 DUP8 ADD PUSH2 0x1BC7 JUMP JUMPDEST SWAP3 POP POP PUSH1 0x40 PUSH2 0x1F7F DUP7 DUP3 DUP8 ADD PUSH2 0x1BFA JUMP JUMPDEST SWAP2 POP POP SWAP3 POP SWAP3 POP SWAP3 JUMP JUMPDEST PUSH2 0x1F92 DUP2 PUSH2 0x1BDB JUMP JUMPDEST DUP3 MSTORE POP POP JUMP JUMPDEST PUSH0 PUSH1 0x20 DUP3 ADD SWAP1 POP PUSH2 0x1FAB PUSH0 DUP4 ADD DUP5 PUSH2 0x1F89 JUMP JUMPDEST SWAP3 SWAP2 POP POP JUMP JUMPDEST PUSH0 DUP1 PUSH0 PUSH1 0x40 DUP5 DUP7 SUB SLT ISZERO PUSH2 0x1FC8 JUMPI PUSH2 0x1FC7 PUSH2 0x1B79 JUMP JUMPDEST JUMPDEST PUSH0 PUSH2 0x1FD5 DUP7 DUP3 DUP8 ADD PUSH2 0x1BC7 JUMP JUMPDEST SWAP4 POP POP PUSH1 0x20 DUP5 ADD CALLDATALOAD PUSH8 0xFFFFFFFFFFFFFFFF DUP2 GT ISZERO PUSH2 0x1FF6 JUMPI PUSH2 0x1FF5 PUSH2 0x1B7D JUMP JUMPDEST JUMPDEST PUSH2 0x2002 DUP7 DUP3 DUP8 ADD PUSH2 0x1C80 JUMP JUMPDEST SWAP3 POP SWAP3 POP POP SWAP3 POP SWAP3 POP SWAP3 JUMP JUMPDEST PUSH0 DUP1 PUSH1 0x40 DUP4 DUP6 SUB SLT ISZERO PUSH2 0x2024 JUMPI PUSH2 0x2023 PUSH2 0x1B79 JUMP JUMPDEST JUMPDEST PUSH0 PUSH2 0x2031 DUP6 DUP3 DUP7 ADD PUSH2 0x1E40 JUMP JUMPDEST SWAP3 POP POP PUSH1 0x20 PUSH2 0x2042 DUP6 DUP3 DUP7 ADD PUSH2 0x1BFA JUMP JUMPDEST SWAP2 POP POP SWAP3 POP SWAP3 SWAP1 POP JUMP JUMPDEST PUSH0 DUP1 PUSH0 PUSH1 0x60 DUP5 DUP7 SUB SLT ISZERO PUSH2 0x2063 JUMPI PUSH2 0x2062 PUSH2 0x1B79 JUMP JUMPDEST JUMPDEST PUSH0 PUSH2 0x2070 DUP7 DUP3 DUP8 ADD PUSH2 0x1BC7 JUMP JUMPDEST SWAP4 POP POP PUSH1 0x20 PUSH2 0x2081 DUP7 DUP3 DUP8 ADD PUSH2 0x1BFA JUMP JUMPDEST SWAP3 POP POP PUSH1 0x40 PUSH2 0x2092 DUP7 DUP3 DUP8 ADD PUSH2 0x1E40 JUMP JUMPDEST SWAP2 POP POP SWAP3 POP SWAP3 POP SWAP3 JUMP JUMPDEST PUSH0 DUP2 ISZERO ISZERO SWAP1 POP SWAP2 SWAP1 POP JUMP JUMPDEST PUSH2 0x20B0 DUP2 PUSH2 0x209C JUMP JUMPDEST DUP3 MSTORE POP POP JUMP JUMPDEST PUSH0 PUSH1 0x20 DUP3 ADD SWAP1 POP PUSH2 0x20C9 PUSH0 DUP4 ADD DUP5 PUSH2 0x20A7 JUMP JUMPDEST SWAP3 SWAP2 POP POP JUMP JUMPDEST PUSH0 DUP1 PUSH0 DUP1 PUSH0 PUSH1 0x80 DUP7 DUP9 SUB SLT ISZERO PUSH2 0x20E8 JUMPI PUSH2 0x20E7 PUSH2 0x1B79 JUMP JUMPDEST JUMPDEST PUSH0 PUSH2 0x20F5 DUP9 DUP3 DUP10 ADD PUSH2 0x1BC7 JUMP JUMPDEST SWAP6 POP POP PUSH1 0x20 DUP7 ADD CALLDATALOAD PUSH8 0xFFFFFFFFFFFFFFFF DUP2 GT ISZERO PUSH2 0x2116 JUMPI PUSH2 0x2115 PUSH2 0x1B7D JUMP JUMPDEST JUMPDEST PUSH2 0x2122 DUP9 DUP3 DUP10 ADD PUSH2 0x1C80 JUMP JUMPDEST SWAP5 POP SWAP5 POP POP PUSH1 0x40 PUSH2 0x2135 DUP9 DUP3 DUP10 ADD PUSH2 0x1E40 JUMP JUMPDEST SWAP3 POP POP PUSH1 0x60 PUSH2 0x2146 DUP9 DUP3 DUP10 ADD PUSH2 0x1BFA JUMP JUMPDEST SWAP2 POP POP SWAP3 SWAP6 POP SWAP3 SWAP6 SWAP1 SWAP4 POP JUMP JUMPDEST PUSH0 PUSH1 0x20 DUP3 DUP5 SUB SLT ISZERO PUSH2 0x2168 JUMPI PUSH2 0x2167 PUSH2 0x1B79 JUMP JUMPDEST JUMPDEST PUSH0 PUSH2 0x2175 DUP5 DUP3 DUP6 ADD PUSH2 0x1E40 JUMP JUMPDEST SWAP2 POP POP SWAP3 SWAP2 POP POP JUMP JUMPDEST PUSH32 0x4E487B7100000000000000000000000000000000000000000000000000000000 PUSH0 MSTORE PUSH1 0x41 PUSH1 0x4 MSTORE PUSH1 0x24 PUSH0 REVERT JUMPDEST PUSH32 0x4E487B7100000000000000000000000000000000000000000000000000000000 PUSH0 MSTORE PUSH1 0x32 PUSH1 0x4 MSTORE PUSH1 0x24 PUSH0 REVERT JUMPDEST PUSH32 0x4E487B7100000000000000000000000000000000000000000000000000000000 PUSH0 MSTORE PUSH1 0x11 PUSH1 0x4 MSTORE PUSH1 0x24 PUSH0 REVERT JUMPDEST PUSH0 PUSH2 0x220F DUP3 PUSH2 0x1BDB JUMP JUMPDEST SWAP2 POP PUSH2 0x221A DUP4 PUSH2 0x1BDB JUMP JUMPDEST SWAP3 POP DUP3 DUP3 ADD SWAP1 POP DUP1 DUP3 GT ISZERO PUSH2 0x2232 JUMPI PUSH2 0x2231 PUSH2 0x21D8 JUMP JUMPDEST JUMPDEST SWAP3 SWAP2 POP POP JUMP JUMPDEST PUSH0 DUP3 DUP3 MSTORE PUSH1 0x20 DUP3 ADD SWAP1 POP SWAP3 SWAP2 POP POP JUMP JUMPDEST PUSH32 0x4275646765742065786365656465640000000000000000000000000000000000 PUSH0 DUP3 ADD MSTORE POP JUMP JUMPDEST PUSH0 PUSH2 0x227C PUSH1 0xF DUP4 PUSH2 0x2238 JUMP JUMPDEST SWAP2 POP PUSH2 0x2287 DUP3 PUSH2 0x2248 JUMP JUMPDEST PUSH1 0x20 DUP3 ADD SWAP1 POP SWAP2 SWAP1 POP JUMP JUMPDEST PUSH0 PUSH1 0x20 DUP3 ADD SWAP1 POP DUP2 DUP2 SUB PUSH0 DUP4 ADD MSTORE PUSH2 0x22A9 DUP2 PUSH2 0x2270 JUMP JUMPDEST SWAP1 POP SWAP2 SWAP1 POP JUMP JUMPDEST PUSH0 PUSH1 0x60 DUP3 ADD SWAP1 POP PUSH2 0x22C3 PUSH0 DUP4 ADD DUP7 PUSH2 0x1C4C JUMP JUMPDEST PUSH2 0x22D0 PUSH1 0x20 DUP4 ADD DUP6 PUSH2 0x1C4C JUMP JUMPDEST PUSH2 0x22DD PUSH1 0x40 DUP4 ADD DUP5 PUSH2 0x1F89 JUMP JUMPDEST SWAP5 SWAP4 POP POP POP POP JUMP JUMPDEST PUSH2 0x22EE DUP2 PUSH2 0x209C JUMP JUMPDEST DUP2 EQ PUSH2 0x22F8 JUMPI PUSH0 DUP1 REVERT JUMPDEST POP JUMP JUMPDEST PUSH0 DUP2 MLOAD SWAP1 POP PUSH2 0x2309 DUP2 PUSH2 0x22E5 JUMP JUMPDEST SWAP3 SWAP2 POP POP JUMP JUMPDEST PUSH0 PUSH1 0x20 DUP3 DUP5 SUB SLT ISZERO PUSH2 0x2324 JUMPI PUSH2 0x2323 PUSH2 0x1B79 JUMP JUMPDEST JUMPDEST PUSH0 PUSH2 0x2331 DUP5 DUP3 DUP6 ADD PUSH2 0x22FB JUMP JUMPDEST SWAP2 POP POP SWAP3 SWAP2 POP POP JUMP JUMPDEST PUSH32 0x5061796D656E74206661696C6564000000000000000000000000000000000000 PUSH0 DUP3 ADD MSTORE POP JUMP JUMPDEST PUSH0 PUSH2 0x236E PUSH1 0xE DUP4 PUSH2 0x2238 JUMP JUMPDEST SWAP2 POP PUSH2 0x2379 DUP3 PUSH2 0x233A JUMP JUMPDEST PUSH1 0x20 DUP3 ADD SWAP1 POP SWAP2 SWAP1 POP JUMP JUMPDEST PUSH0 PUSH1 0x20 DUP3 ADD SWAP1 POP DUP2 DUP2 SUB PUSH0 DUP4 ADD MSTORE PUSH2 0x239B DUP2 PUSH2 0x2362 JUMP JUMPDEST SWAP1 POP SWAP2 SWAP1 POP JUMP JUMPDEST PUSH0 PUSH2 0x23AC DUP3 PUSH2 0x1BDB JUMP JUMPDEST SWAP2 POP PUSH32 0xFFFFFFFFFFFFFFFFFFFFFFFFFFFFFFFFFFFFFFFFFFFFFFFFFFFFFFFFFFFFFFFF DUP3 SUB PUSH2 0x23DE JUMPI PUSH2 0x23DD PUSH2 0x21D8 JUMP JUMPDEST JUMPDEST PUSH1 0x1 DUP3 ADD SWAP1 POP SWAP2 SWAP1 POP JUMP JUMPDEST PUSH32 0x4E6F74206C697374656400000000000000000000000000000000000000000000 PUSH0 DUP3 ADD MSTORE POP JUMP JUMPDEST PUSH0 PUSH2 0x241D PUSH1 0xA DUP4 PUSH2 0x2238 JUMP JUMPDEST SWAP2 POP PUSH2 0x2428 DUP3 PUSH2 0x23E9 JUMP JUMPDEST PUSH1 0x20 DUP3 ADD SWAP1 POP SWAP2 SWAP1 POP JUMP JUMPDEST PUSH0 PUSH1 0x20 DUP3 ADD SWAP1 POP DUP2 DUP2 SUB PUSH0 DUP4 ADD MSTORE PUSH2 0x244A DUP2 PUSH2 0x2411 JUMP JUMPDEST SWAP1 POP SWAP2 SWAP1 POP JUMP JUMPDEST PUSH0 DUP2 MLOAD SWAP1 POP PUSH2 0x245F DUP2 PUSH2 0x1BB1 JUMP JUMPDEST SWAP3 SWAP2 POP POP JUMP JUMPDEST PUSH0 PUSH1 0x20 DUP3 DUP5 SUB SLT ISZERO PUSH2 0x247A JUMPI PUSH2 0x2479 PUSH2 0x1B79 JUMP JUMPDEST JUMPDEST PUSH0 PUSH2 0x2487 DUP5 DUP3 DUP6 ADD PUSH2 0x2451 JUMP JUMPDEST SWAP2 POP POP SWAP3 SWAP2 POP POP JUMP JUMPDEST PUSH32 0x4E6F7420746865206F776E657200000000000000000000000000000000000000 PUSH0 DUP3 ADD MSTORE POP JUMP JUMPDEST PUSH0 PUSH2 0x24C4 PUSH1 0xD DUP4 PUSH2 0x2238 JUMP JUMPDEST SWAP2 POP PUSH2 0x24CF DUP3 PUSH2 0x2490 JUMP JUMPDEST PUSH1 0x20 DUP3 ADD SWAP1 POP SWAP2 SWAP1 POP JUMP JUMPDEST PUSH0 PUSH1 0x20 DUP3 ADD SWAP1 POP DUP2 DUP2 SUB PUSH0 DUP4 ADD MSTORE PUSH2 0x24F1 DUP2 PUSH2 0x24B8 JUMP JUMPDEST SWAP1 POP SWAP2 SWAP1 POP JUMP JUMPDEST PUSH32 0x416C7265616479206C6973746564000000000000000000000000000000000000 PUSH0 DUP3 ADD MSTORE POP JUMP JUMPDEST PUSH0 PUSH2 0x252C PUSH1 0xE DUP4 PUSH2 0x2238 JUMP JUMPDEST SWAP2 POP PUSH2 0x2537 DUP3 PUSH2 0x24F8 JUMP JUMPDEST PUSH1 0x20 DUP3 ADD SWAP1 POP SWAP2 SWAP1 POP JUMP JUMPDEST PUSH0 PUSH1 0x20 DUP3 ADD SWAP1 POP DUP2 DUP2 SUB PUSH0 DUP4 ADD MSTORE PUSH2 0x2559 DUP2 PUSH2 0x2520 JUMP JUMPDEST SWAP1 POP SWAP2 SWAP1 POP JUMP JUMPDEST PUSH32 0x4E6F7420617070726F7665640000000000000000000000000000000000000000 PUSH0 DUP3 ADD MSTORE POP JUMP JUMPDEST PUSH0 PUSH2 0x2594 PUSH1 0xC DUP4 PUSH2 0x2238 JUMP JUMPDEST SWAP2 POP PUSH2 0x259F DUP3 PUSH2 0x2560 JUMP JUMPDEST PUSH1 0x20 DUP3 ADD SWAP1 POP SWAP2 SWAP1 POP JUMP JUMPDEST PUSH0 PUSH1 0x20 DUP3 ADD SWAP1 POP DUP2 DUP2 SUB PUSH0 DUP4 ADD MSTORE PUSH2 0x25C1 DUP2 PUSH2 0x2588 JUMP JUMPDEST SWAP1 POP SWAP2 SWAP1 POP JUMP JUMPDEST PUSH2 0x25D1 DUP2 PUSH2 0x1E1D JUMP JUMPDEST DUP3 MSTORE POP POP JUMP JUMPDEST PUSH0 PUSH1 0x40 DUP3 ADD SWAP1 POP PUSH2 0x25EA PUSH0 DUP4 ADD DUP6 PUSH2 0x1F89 JUMP JUMPDEST PUSH2 0x25F7 PUSH1 0x20 DUP4 ADD DUP5 PUSH2 0x25C8 JUMP JUMPDEST SWAP4 SWAP3 POP POP POP JUMP JUMPDEST PUSH32 0x496E76616C69642067726F757000000000000000000000000000000000000000 PUSH0 DUP3 ADD MSTORE POP JUMP JUMPDEST PUSH0 PUSH2 0x2632 PUSH1 0xD DUP4 PUSH2 0x2238 JUMP JUMPDEST SWAP2 POP PUSH2 0x263D DUP3 PUSH2 0x25FE JUMP JUMPDEST PUSH1 0x20 DUP3 ADD SWAP1 POP SWAP2 SWAP1 POP JUMP JUMPDEST PUSH0 PUSH1 0x20 DUP3 ADD SWAP1 POP DUP2 DUP2 SUB PUSH0 DUP4 ADD MSTORE PUSH2 0x265F DUP2 PUSH2 0x2626 JUMP JUMPDEST SWAP1 POP SWAP2 SWAP1 POP JUMP JUMPDEST PUSH0 PUSH2 0x2670 DUP3 PUSH2 0x1BDB JUMP JUMPDEST SWAP2 POP PUSH2 0x267B DUP4 PUSH2 0x1BDB JUMP JUMPDEST SWAP3 POP DUP3 DUP3 MUL PUSH2 0x2689 DUP2 PUSH2 0x1BDB JUMP JUMPDEST SWAP2 POP DUP3 DUP3 DIV DUP5 EQ DUP4 ISZERO OR PUSH2 0x26A0 JUMPI PUSH2 0x269F PUSH2 0x21D8 JUMP JUMPDEST JUMPDEST POP SWAP3 SWAP2 POP POP JUMP JUMPDEST PUSH0 DUP2 MLOAD SWAP1 POP SWAP2 SWAP1 POP JUMP JUMPDEST PUSH0 DUP2 SWAP1 POP SWAP3 SWAP2 POP POP JUMP JUMPDEST DUP3 DUP2 DUP4 MCOPY PUSH0 DUP4 DUP4 ADD MSTORE POP POP POP JUMP JUMPDEST PUSH0 PUSH2 0x26D3 DUP3 PUSH2 0x26A7 JUMP JUMPDEST PUSH2 0x26DD DUP2 DUP6 PUSH2 0x26B1 JUMP JUMPDEST SWAP4 POP PUSH2 0x26ED DUP2 DUP6 PUSH1 0x20 DUP7 ADD PUSH2 0x26BB JUMP JUMPDEST DUP1 DUP5 ADD SWAP2 POP POP SWAP3 SWAP2 POP POP JUMP JUMPDEST PUSH0 PUSH2 0x2704 DUP3 DUP5 PUSH2 0x26C9 JUMP JUMPDEST SWAP2 POP DUP2 SWAP1 POP SWAP3 SWAP2 POP POP JUMP JUMPDEST PUSH32 0x47726F7570206E6F7420666F756E640000000000000000000000000000000000 PUSH0 DUP3 ADD MSTORE POP JUMP JUMPDEST PUSH0 PUSH2 0x2743 PUSH1 0xF DUP4 PUSH2 0x2238 JUMP JUMPDEST SWAP2 POP PUSH2 0x274E DUP3 PUSH2 0x270F JUMP JUMPDEST PUSH1 0x20 DUP3 ADD SWAP1 POP SWAP2 SWAP1 POP JUMP JUMPDEST PUSH0 PUSH1 0x20 DUP3 ADD SWAP1 POP DUP2 DUP2 SUB PUSH0 DUP4 ADD MSTORE PUSH2 0x2770 DUP2 PUSH2 0x2737 JUMP JUMPDEST SWAP1 POP SWAP2 SWAP1 POP JUMP JUMPDEST PUSH0 DUP2 MLOAD SWAP1 POP PUSH2 0x2785 DUP2 PUSH2 0x1E2A JUMP JUMPDEST SWAP3 SWAP2 POP POP JUMP JUMPDEST PUSH0 PUSH1 0x20 DUP3 DUP5 SUB SLT ISZERO PUSH2 0x27A0 JUMPI PUSH2 0x279F PUSH2 0x1B79 JUMP JUMPDEST JUMPDEST PUSH0 PUSH2 0x27AD DUP5 DUP3 DUP6 ADD PUSH2 0x2777 JUMP JUMPDEST SWAP2 POP POP SWAP3 SWAP2 POP POP JUMP JUMPDEST PUSH0 PUSH2 0x27C0 DUP3 PUSH2 0x1BDB JUMP JUMPDEST SWAP2 POP PUSH2 0x27CB DUP4 PUSH2 0x1BDB JUMP JUMPDEST SWAP3 POP DUP3 DUP3 SUB SWAP1 POP DUP2 DUP2 GT ISZERO PUSH2 0x27E3 JUMPI PUSH2 0x27E2 PUSH2 0x21D8 JUMP JUMPDEST JUMPDEST SWAP3 SWAP2 POP POP JUMP JUMPDEST PUSH32 0x4E487B7100000000000000000000000000000000000000000000000000000000 PUSH0 MSTORE PUSH1 0x31 PUSH1 0x4 MSTORE PUSH1 0x24 PUSH0 REVERT JUMPDEST PUSH32 0x5265656E7472616E637947756172643A207265656E7472616E742063616C6C00 PUSH0 DUP3 ADD MSTORE POP JUMP JUMPDEST PUSH0 PUSH2 0x284A PUSH1 0x1F DUP4 PUSH2 0x2238 JUMP JUMPDEST SWAP2 POP PUSH2 0x2855 DUP3 PUSH2 0x2816 JUMP JUMPDEST PUSH1 0x20 DUP3 ADD SWAP1 POP SWAP2 SWAP1 POP JUMP JUMPDEST PUSH0 PUSH1 0x20 DUP3 ADD SWAP1 POP DUP2 DUP2 SUB PUSH0 DUP4 ADD MSTORE PUSH2 0x2877 DUP2 PUSH2 0x283E JUMP JUMPDEST SWAP1 POP SWAP2 SWAP1 POP JUMP INVALID LOG2 PUSH5 0x6970667358 0x22 SLT KECCAK256 PUSH18 0x5AE1B7820117A7BB0996366DB0D813F18D3 POP INVALID CALLDATACOPY CODECOPY SWAP16 PUSH8 0xFE542DA60F4CDE64 PUSH20 0x6F6C634300081A00330000000000000000000000 "
				},
				"gasEstimates": {
					"creation": {
						"codeDepositCost": "2084000",
						"executionCost": "infinite",
						"totalCost": "infinite"
					},
					"external": {
						"buyMany(address,uint256[])": "infinite",
						"buyNFT(address,uint256)": "infinite",
						"buyUpTo(address,uint256[],uint256)": "infinite",
						"cancelListing(address,uint256)": "infinite",
						"getGroupPrice(uint16)": "infinite",
						"groupContracts(uint16,uint256)": "5188",
						"groupTokenIds(uint16,address,uint256)": "infinite",
						"listMany(address,uint256[],uint16)": "infinite",
						"listNFT(address,uint256,uint16)": "infinite",
						"listUpTo(address,uint256[],uint16,uint256)": "infinite",
						"listings(address,uint256)": "infinite",
						"paymentToken()": "infinite"
					},
					"internal": {
						"_removeTokenIdFromGroup(uint16,address,uint256)": "infinite",
						"getGroup(address,uint256)": "infinite"
					}
				},
				"methodIdentifiers": {
					"buyMany(address,uint256[])": "449918e0",
					"buyNFT(address,uint256)": "a82ba76f",
					"buyUpTo(address,uint256[],uint256)": "083fd5a9",
					"cancelListing(address,uint256)": "b2ddee06",
					"getGroupPrice(uint16)": "c02b84a1",
					"groupContracts(uint16,uint256)": "496b3d10",
					"groupTokenIds(uint16,address,uint256)": "39edfd4e",
					"listMany(address,uint256[],uint16)": "2e49e852",
					"listNFT(address,uint256,uint16)": "9c3e202d",
					"listUpTo(address,uint256[],uint16,uint256)": "b2942b73",
					"listings(address,uint256)": "0007df30",
					"paymentToken()": "3013ce29"
				}
			},
			"storageLayout": {
				"storage": [
					{
						"astId": 10,
						"contract": "BCMMarket2.sol:NFTMarketplaceWithERC20",
						"label": "_status",
						"offset": 0,
						"slot": "0",
						"type": "t_uint256"
					},
					{
						"astId": 281,
						"contract": "BCMMarket2.sol:NFTMarketplaceWithERC20",
						"label": "paymentToken",
						"offset": 0,
						"slot": "1",
						"type": "t_contract(IERC20)142"
					},
					{
						"astId": 287,
						"contract": "BCMMarket2.sol:NFTMarketplaceWithERC20",
						"label": "listings",
						"offset": 0,
						"slot": "2",
						"type": "t_mapping(t_address,t_mapping(t_uint256,t_address))"
					},
					{
						"astId": 292,
						"contract": "BCMMarket2.sol:NFTMarketplaceWithERC20",
						"label": "groupContracts",
						"offset": 0,
						"slot": "3",
						"type": "t_mapping(t_uint16,t_array(t_address)dyn_storage)"
					},
					{
						"astId": 299,
						"contract": "BCMMarket2.sol:NFTMarketplaceWithERC20",
						"label": "groupTokenIds",
						"offset": 0,
						"slot": "4",
						"type": "t_mapping(t_uint16,t_mapping(t_address,t_array(t_uint256)dyn_storage))"
					}
				],
				"types": {
					"t_address": {
						"encoding": "inplace",
						"label": "address",
						"numberOfBytes": "20"
					},
					"t_array(t_address)dyn_storage": {
						"base": "t_address",
						"encoding": "dynamic_array",
						"label": "address[]",
						"numberOfBytes": "32"
					},
					"t_array(t_uint256)dyn_storage": {
						"base": "t_uint256",
						"encoding": "dynamic_array",
						"label": "uint256[]",
						"numberOfBytes": "32"
					},
					"t_contract(IERC20)142": {
						"encoding": "inplace",
						"label": "contract IERC20",
						"numberOfBytes": "20"
					},
					"t_mapping(t_address,t_array(t_uint256)dyn_storage)": {
						"encoding": "mapping",
						"key": "t_address",
						"label": "mapping(address => uint256[])",
						"numberOfBytes": "32",
						"value": "t_array(t_uint256)dyn_storage"
					},
					"t_mapping(t_address,t_mapping(t_uint256,t_address))": {
						"encoding": "mapping",
						"key": "t_address",
						"label": "mapping(address => mapping(uint256 => address))",
						"numberOfBytes": "32",
						"value": "t_mapping(t_uint256,t_address)"
					},
					"t_mapping(t_uint16,t_array(t_address)dyn_storage)": {
						"encoding": "mapping",
						"key": "t_uint16",
						"label": "mapping(uint16 => address[])",
						"numberOfBytes": "32",
						"value": "t_array(t_address)dyn_storage"
					},
					"t_mapping(t_uint16,t_mapping(t_address,t_array(t_uint256)dyn_storage))": {
						"encoding": "mapping",
						"key": "t_uint16",
						"label": "mapping(uint16 => mapping(address => uint256[]))",
						"numberOfBytes": "32",
						"value": "t_mapping(t_address,t_array(t_uint256)dyn_storage)"
					},
					"t_mapping(t_uint256,t_address)": {
						"encoding": "mapping",
						"key": "t_uint256",
						"label": "mapping(uint256 => address)",
						"numberOfBytes": "32",
						"value": "t_address"
					},
					"t_uint16": {
						"encoding": "inplace",
						"label": "uint16",
						"numberOfBytes": "2"
					},
					"t_uint256": {
						"encoding": "inplace",
						"label": "uint256",
						"numberOfBytes": "32"
					}
				}
			},
			"userdoc": {
				"kind": "user",
				"methods": {},
				"version": 1
			}
		}
	}
}